:100000000C94F6000C941E010C941E010C941E011D
:100010000C941E010C941E010C941E010C941E01E4
:100020000C941E010C941E010C9474250C9406244F
:100030000C941E010C941E010C941E010C941E01C4
:100040000C941E010C941E010C941E010C941E01B4
:100050000C94970C0C941E010C941E010C94921C91
:100060000C941E010C941E010C941E010C941E0194
:100070000C941E010C941E010C941E010C941E0184
:100080000C941E010C941E010C941E010C941E0174
:100090000C94651B0C941E010C941E010C941E0103
:1000A0000C941E010C941E010C941E01D21DD51D32
:1000B000C41DC81DCE1DF61DF61DF61DD91DDD1D66
:1000C000E11DE71DEB1DF61DF11D070605040100EE
:1000D000080A0B0C0D090000000200090F000003C4
:1000E0000401000C000000000000000000000000FF
:1000F0000000000000040802011040804010204071
:10010000804080080204018040201002011080100D
:1001100020404020040404040403040502020202F7
:100120000403020202020606060606060404020290
:10013000020404000000002300260029002C002FE8
:100140000000000000250028002B002E00310000D8
:10015000000000240027002A002D003000080B00BA
:10016000020202010009040000010202000005244D
:1001700000100105240101010424020605240600E3
:10018000010705810310004009040100020A000074
:10019000000705020240000007058302400000122C
:1001A000010002EF020140412337800001010203F8
:1001B00001120100020000004041233780000101CC
:1001C00002030141726475696E6F204C4C4300411B
:1001D000726475696E6F204D6963726F0004030964
:1001E0000400FA05950A860E7B1A761F11241FBE9D
:1001F000CFEFDAE0DEBFCDBF14E0A0E0B1E0E4E78E
:10020000F3E502C005900D92AE30B107D9F726E0B4
:10021000AEE0B4E001C01D92A438B207E1F711E0EE
:10022000CCEED1E004C02297FE010E941F29C23EFD
:10023000D107C9F70E940D260C94B8290C94000030
:10024000FC012285213039F4478D50A161A172A1B2
:1002500043960C94710C80E008954B960C945D0CC1
:10026000CF93DF93EC018885882311F0898513C033
:100270008B85882341F08A810E940C09837099271D
:10028000039741F405C08A810E94D30880FF02C011
:100290008D8101C08C81DF91CF91089521E0FC0117
:1002A000208761870895FC0143A354A365A376A327
:1002B00008951F93CF93DF93EC018A810E94260F4C
:1002C0008F3F2FEF9207C9F08837910548F08C32A5
:1002D00021E0920738F08235934030F411E005C0F8
:1002E00012E003C010E001C013E08E85181729F05A
:1002F000CE010F960E94510C1E87DF91CF911F9166
:1003000008950F931F93CF93DF931F92CDB7DEB75E
:100310008C01439669830E94510CC80147960E9444
:10032000510CC8014B960E94510CC8010F960E94B7
:10033000510C6981F80162870F90DF91CF911F9175
:100340000F910895CF93DF93EC011886198682E010
:100350008E871F8E18A219A21AA240E65AEE60E0FC
:1003600070E04BA35CA36DA37EA38A810E94B408B6
:10037000882311F061E001C060E0CE01DF91CF91F0
:100380000C948101CF93DF93EC0161E08A810E949C
:10039000AB0861E0CE010E94810180E0DF91CF9146
:1003A0000895CF93DF93EC018A8181110FC040E65D
:1003B0005AEE60E070E0CE0143960E94710C8823F3
:1003C00029F0CE01DF91CF910C94C201DF91CF9142
:1003D000089520916201222329F0BC018DE196E06D
:1003E0000C94A91F0895FF920F931F93CF93DF934F
:1003F00000D000D0CDB7DEB78C01FC018285813002
:1004000009F068C082810E940C0921E04E9708F033
:1004100020E0F8012387C8010E943001F82EF8017E
:100420001086682F83810E94E00DF8018081918100
:100430000E94460589E891E00E94E901F801848163
:10044000F81203C087E791E002C08FE791E00E94B5
:10045000E9010E946205F80182810E940109CE0132
:1004600001960E94FC0D49815A816B817C81F801C3
:10047000228130E0C901880F991F820F931F815F8D
:100480009B4F0E944F0A62E0F80182810E944D0951
:100490006AE070E080E090E00E940B1D61E0F801EE
:1004A00082810E94900D64EF71E080E090E00E94F4
:1004B0000B1D61E0F80182810E944D096AE070E045
:1004C00080E090E00E940B1D63E0C8010E94810162
:1004D00080E001C081E00F900F900F900F90DF91AE
:1004E000CF911F910F91FF900895CF93DF93EC016F
:1004F0008A85833081F4888199810E94460583E949
:1005000091E00E94E9010E94620564E0CE010E9430
:10051000810180E001C081E0DF91CF910895CF9308
:10052000DF93EC018A85882371F1888199810E948B
:1005300046058CE991E00E94E9010E94620563E0B2
:100540008A810E944D096AE070E080E090E00E949C
:100550000B1D60E08A810E94900D64EF71E080E0E5
:1005600090E00E940B1D60E08A810E944D096AE0C4
:1005700070E080E090E00E940B1D61E0CE010E94DF
:10058000810180E001C081E0DF91CF910895CF9398
:10059000DF93EC018A81882319F060E00E94AB08A8
:1005A000CE010E948F028A81882321F060E0CE0173
:1005B0000E94810180E0DF91CF910895CF93DF9376
:1005C000EC0140EE53E964E070E043960E94710C48
:1005D000882391F0888199810E94460584EA91E000
:1005E0000E94E9010E9462058A810E943A09CE01B7
:1005F000DF91CF910C948F02DF91CF9108950F93EB
:100600001F93CF93DF93EC018E81882351F040EE4E
:1006100053E964E070E0CE014B960E94710C8111A9
:1006200011C08F81882309F441C08E01015F1F4FE3
:1006300040E157E260E070E0C8010E94710C811156
:1006400012C034C0888199810E9446058EEE91E0E7
:100650000E94E9010E9462058A810E943A09CE0146
:100660000E947502DECF888199810E9446058E85A1
:10067000813069F48DED91E00E94E9010E946205EC
:10068000C801DF91CF911F910F910C94510C8130D3
:1006900018F485EB91E0F0CF823019F484EC91E00E
:1006A000EBCF833059F780ED91E0E6CFDF91CF912A
:1006B0001F910F910895CF93DF93EC0140E05AEB27
:1006C0006BED70E043960E94710C8823B9F088812D
:1006D00099810E94460580E092E00E94E9010E9413
:1006E0006205CE010E94300191E09887811190E06F
:1006F0009987CE01DF91CF910C947502DF91CF9154
:100700000895FC01238521110C94FF020C945B03D6
:100710000F931F93CF93DF93EC018C01095E1F4F62
:1007200040E157E260E070E0C8010E94710C88234C
:1007300069F0C8010E94510C888199810E94460588
:1007400083E991E00E94E9010E9462054BA15CA14E
:100750006DA17EA1CE0143960E94710C8823C9F041
:1007600040E65AEE60E070E04BA35CA36DA37EA36D
:10077000888199810E94460581E192E00E94E90109
:100780000E946205CE01DF91CF911F910F910C94D1
:100790008F02DF91CF911F910F910895FC01228567
:1007A000223059F018F4222331F00895233039F023
:1007B000243039F008950C94D1010C94DE020C948D
:1007C00081030C948803CF93DF93EC014B960E9436
:1007D000510C888199810E9446058EE192E00E9429
:1007E000E9010E9462058A85882341F0833058F42C
:1007F00063E0CE01DF91CF910C948101CE01DF91B6
:10080000CF910C94C702DF91CF910895DC0112962D
:10081000EC91F0E0E25EFB4F2081283018F010826E
:100820000C94E3030895CF93DF93EC010E94060438
:10083000CE010E945901CE01DF91CF910C94CE03DD
:100840000C94E303DC01ED91FC910190F081E02D2B
:100850000994089508950F931F93CB01A0E0B0E091
:10086000BA2FA92F982F8827842BE7E1F0E040E0EA
:1008700050E868E970E08C019D010E2E04C03695A9
:100880002795179507950A94D2F700FF04C084278F
:100890009527A627B727769567955795479531975A
:1008A000E730F10541F71F910F910895EF92FF9204
:1008B0000F931F93CF93DF938C0160E470E084E586
:1008C00095E00E94FF1965EF70E084E595E00E94D5
:1008D000220484E595E00E94781A67E370E080E0E6
:1008E00090E00E940B1D43E050E060E470E084E57E
:1008F00095E00E94751AF12C84E595E00E94541948
:100900000397BCF184E595E00E945C19E82E84E52C
:1009100095E00E945C19F82E84E595E00E945C1930
:10092000DE2D90E0C92FCF29482FBE01C8010E94BB
:100930002B04811119C0BE016C7F80E090E00E9401
:10094000BE2720E030E040E857E30E94742820E012
:1009500030E04AEF52E40E94742820E030E040EC9E
:1009600050E40E94BC2613C060E070EC89E794E478
:100970000EC065E070E080E090E00E940B1DF394F3
:1009800084E6F812B9CF60E070E889E794E4DF917B
:10099000CF911F910F91FF90EF900895EF92FF92EA
:1009A0000F931F93CF93DF937C0160E470E084E5A5
:1009B00095E00E94FF1963EF70E084E595E00E94E6
:1009C000220484E595E00E94781A67E370E080E0F5
:1009D00090E00E940B1D43E050E060E470E084E58D
:1009E00095E00E94751A05E610E084E595E00E9406
:1009F0005419039774F461E070E080E090E00E9485
:100A00000B1D0150110989F760E070E889E794E453
:100A100036C084E595E00E945C19082F84E595E0D6
:100A20000E945C19182F84E595E00E945C19D02F74
:100A300090E0C92FC12B482FBE01C7010E942B0493
:100A4000811119C0BE016C7F80E090E00E94BE273A
:100A500020E030E040E857E30E94742822E538EBBC
:100A60004FE253E40E94742826E636E64BE352E454
:100A70000E94BC2604C060E070EC89E794E4DF913A
:100A8000CF911F910F91FF90EF900895CF93DF9337
:100A9000EC0180916201882391F068E272E08DE1BF
:100AA00096E00E94A91FBE018DE196E00E94A91F59
:100AB00060E28DE196E0DF91CF910C94AB1FDF9166
:100AC000CF91089580916201882321F08DE196E015
:100AD0000C94B21F0895FC01611103C0411107C0BD
:100AE00004C0623061F44230C1F488E61DC0423077
:100AF00011F489E619C04130C1F48AE615C06130AD
:100B0000A1F4411102C08CE60FC0423011F48DE611
:100B10000BC0413051F48EE607C0411102C08BE694
:100B200003C0413011F48FE6808308950F931F9323
:100B3000CF93DF93EC01142F186820E2629FC0016D
:100B40001124182B0AE0688184E595E00E94F519CC
:100B5000612F84E595E00E94AC1984E595E00E9440
:100B6000781A882311F0015071F7DF91CF911F910E
:100B70000F9108950F931F93CF93DF938C0160E53E
:100B800070E080E090E00E940B1DF801608170E051
:100B900043E050E084E595E00E94751A1AE084E590
:100BA00095E00E94541903972CF41150C1F7CFEF30
:100BB000DFEF12C084E595E00E945C19082F84E500
:100BC00095E00E945C19182F84E595E00E945C195D
:100BD000D02FF0E0CF2FC12BCE01DF91CF911F910D
:100BE0000F910895982F92959F702AEF929F800DF4
:100BF0001124089584E595E00C94EB191F93CF938D
:100C0000DF93EC016FE670E084E595E00E94FF1948
:100C100060E084E595E00E94AC1960E084E595E031
:100C20000E94AC1929811AE0822F612F0E94DB28D3
:100C3000682F660F680F660F620F84E595E00E94CB
:100C4000AC192A81822F612F0E94DB28682F660F42
:100C5000680F660F620F84E595E00E94AC198B81E6
:100C60008860682F70E084E595E00E9422042C8162
:100C7000822F612F0E94DB28682F660F680F660F96
:100C8000620F84E595E00E94AC192D81822F612FBF
:100C90000E94DB28682F660F680F660F620F84E5DD
:100CA00095E00E94AC192E812E51822F612F0E9457
:100CB000DB28682F660F680F660F620F84E595E0EA
:100CC0000E94AC1984E595E00E94781A6FE670E006
:100CD00084E595E00E94FF1960E084E595E00E94BC
:100CE000AC192881822F612F0E94DB28682F660FA4
:100CF000680F660F620F606870E084E595E00E94FF
:100D0000220484E595E0DF91CF911F910C94781A2D
:100D1000CF93DF93CDB7DEB727970FB6F894DEBF3A
:100D20000FBECDBFAE014F5F5F4F0E94BF0ACE0125
:100D300001960E94FE0527960FB6F894DEBF0FBEFF
:100D4000CDBFDF91CF910895CF93DF93EC016FE694
:100D500070E084E595E00E94FF1960E084E595E08D
:100D60000E94AC1984E595E00E94781A81113EC07A
:100D700047E050E06FE670E084E595E00E94751A68
:100D800084E595E00E945C198F770E94F2058883C4
:100D900084E595E00E945C190E94F205898384E550
:100DA00095E00E945C198F7B0E94F2058A8384E59E
:100DB00095E00E945C19877C8B8384E595E00E9416
:100DC0005C190E94F2058C8384E595E00E945C1911
:100DD0008F7D0E94F2058D8384E595E00E945C1969
:100DE0000E94F205825E8E8381E001C080E0DF9187
:100DF000CF910895CF93DF93CDB7DEB727970FB686
:100E0000F894DEBF0FBECDBFCE0101960E94A406AE
:100E1000882329F0CE0101960E94960B03C060E062
:100E200070E0CB0127960FB6F894DEBF0FBECDBFA2
:100E3000DF91CF9108950F931F93CF93DF938B0191
:100E400067E570E084E595E00E94FF1960EF70E0CF
:100E500084E595E00E94220484E595E00E94781ADA
:100E600048E050E067E570E084E595E00E94751A7F
:100E7000E80118E084E595E00E945C19899311501F
:100E8000C9F7DF91CF911F910F9108950C94A72975
:100E90000C949F29CF92DF92EF92FF920F931F93B2
:100EA000CF93DF9300D0CDB7DEB76C018B017C010F
:100EB00084E0E80EF11CC60169837A830E949F29B1
:100EC000F80181938F01FFEFCF1ADF0A69817A81E0
:100ED000CE14DF0481F7CB010F900F90DF91CF91FB
:100EE0001F910F91FF90EF90DF90CF9008950F9397
:100EF0001F93CF93DF938C01EB010E949F2988837E
:100F0000C80101960E949F298983CE01DF91CF916C
:100F10001F910F910895EF92FF920F931F93CF931C
:100F2000DF931F92CDB7DEB77C01FC0100811181F8
:100F3000C80169830E949F296981681719F0C80157
:100F40000E94A729C7010F90DF91CF911F910F91A8
:100F5000FF90EF900895BF92CF92DF92EF92FF92B1
:100F60000F931F93CF93DF9300D01F92CDB7DEB7BF
:100F70008C01B62EE62EF72E6C0184E0C80ED11C33
:100F8000F70161917F011A830983CE0101967B836A
:100F90000E948B070F5F1F4F7B810C151D0581F78A
:100FA0008B2D972F0F900F900F90DF91CF911F9166
:100FB0000F91FF90EF90DF90CF90BF900895EF9248
:100FC000FF920F931F93CF93DF9300D0CDB7DEB77F
:100FD0007C018B01FB0160819A838983CE0101969C
:100FE0000E948B07F8016181FFEFEF1AFF0AFA8276
:100FF000E982CE0101960E948B07C8010F900F90E5
:10100000DF91CF911F910F91FF90EF900895EF9294
:10101000FF920F931F93CF93DF9300D0CDB7DEB72E
:101020007C018B01FB0160819A838983CE0101964B
:101030000E948B07F8016181FFEFEF1AFF0AFA8225
:10104000E982CE0101960E948B07C8010F900F9094
:10105000DF91CF911F910F91FF90EF900895CF9363
:10106000DF9300D000D0CDB7DEB7BE016F5F7F4FFA
:1010700080E090E00E944A0780E00F900F900F9070
:101080000F90DF91CF910895CF93DF9300D000D0E0
:10109000CDB7DEB719821A821B821C82BE016F5F38
:1010A0007F4F80E090E00E94AB070F900F900F9071
:1010B0000F90DF91CF91089580E290E00E94480761
:1010C00091E0811101C090E0892F0895682F80E29E
:1010D00090E00C94460780E490E00C94480783303D
:1010E00008F081E0682F80E490E00C944607BC0192
:1010F00084E090E00C94DF07BC0186E090E00C9463
:10110000DF07BC0188E090E00C944A07BC0188E04E
:1011100090E00C94AB07CF93DF9300D000D0CDB715
:10112000DEB7CE0101960E94810889819A81AB8148
:10113000BC810196A11DB11D89839A83AB83BC83B9
:10114000CE0101960E9486080F900F900F900F908D
:10115000DF91CF91089590E002969695982F882779
:10116000979587950C944607CF93C82F0E94F60D4C
:10117000982F882381F0CC2371F08C2F90E0029679
:101180009695982F8827979587950E94480791E014
:10119000811101C090E0892FCF910895BC018CE0AE
:1011A00090E00C94AB07CF93DF9300D0CDB7DEB7C0
:1011B00020E8829FC0011124BE016F5F7F4F895FCD
:1011C0009E4F0E94770789819A810F900F90DF913F
:1011D000CF910895CF93DF9300D0CDB7DEB77A8358
:1011E000698320E8829FC0011124BE016F5F7F4F99
:1011F000895F9E4F0E9407080F900F90DF91CF915B
:101200000895CF93C82F0E94D308BC016F5F7F4F12
:101210008C2FCF910C94EA08CF93DF9300D0CDB7F9
:10122000DEB720E8829FC0011124BE016F5F7F4FAF
:10123000855F9E4F0E94770789819A810F900F905A
:10124000DF91CF910895CF93DF9300D0CDB7DEB774
:101250007A83698320E8829FC0011124BE016F5FF9
:101260007F4F855F9E4F0E9407080F900F90DF9180
:10127000CF910895CF93C82F0E940C09BC016F5FD6
:101280007F4F8C2FCF910C94230920E8829FC001BF
:1012900011248A5D9E4F0C94480720E8829FC0016C
:1012A00011248A5D9E4F0C94460720E8829FC0015E
:1012B00011248C5E9E4F0C94480720E8829FC00149
:1012C00011248C5E9E4F0C94460720E8829FC0013B
:1012D0001124815F9E4F0C94480720E8829FC00133
:1012E0001124815F9E4F0C944607FC0180819181FF
:1012F0000C944807FC01808191810C944607FC0105
:101300008081918101960C944807FF920F931F935F
:10131000CF93DF9300D000D01F92CDB7DEB78C0102
:101320006D830E947509F82EC8010E947F096D81A6
:101330006817E8F4F801208131812E5F3F4F862F36
:1013400090E08F0D911D628170E00E94E728880F68
:10135000991F880F991FBE016F5F7F4F820F931FE8
:101360000E944A0769817A818B819C8103C060E079
:1013700070E0CB010F900F900F900F900F90DF91C6
:10138000CF911F910F91FF900895FC018081918171
:1013900001960C944607CF93DF93EC0160E00E9426
:1013A0007A0960E0CE01DF91CF910C94C509FF92DC
:1013B0000F931F93CF93DF9300D000D0CDB7DEB74C
:1013C00019821A821B821C82CE0101960E94860815
:1013D00019821A821B821C82CE0101960E94CE08BD
:1013E00083E0898311E01A83CE0101960E94770879
:1013F00019831A82CE0101960E947C0881E00E9426
:1014000066080FE014E0F12C60E070E08F2D0E9480
:10141000EA0860E070E08F2D0E94230960E08F2DC4
:101420000E944D0960E08F2D0E945D0960E08F2DC4
:101430000E946D09C8010E94CB09F3940D5F1F4FF4
:1014400085E0F812E1CF61E080E091E00E9446077C
:1014500061E080E891E00E94460761E080E092E070
:101460000E94460760E080E892E00E94460760E044
:1014700080E093E00E94460780E00E946F086EE2E1
:1014800072E080E090E00E94AB070F900F900F9009
:101490000F90DF91CF911F910F91FF900895EF92E0
:1014A000FF920F931F93CF93DF9300D000D0CDB75F
:1014B000DEB78C0149835A836B837C830E94750954
:1014C000E82EC8010E947F09F82EF80120813181A1
:1014D0002E5F3F4F90E08E0D911D628170E00E9463
:1014E000E728880F991F880F991FBE016F5F7F4FF4
:1014F000820F931F0E94AB07F801828161E0F8120E
:1015000005C06E0DC8010E947A0904C06F0DC801A4
:101510000E94C5090F900F900F900F90DF91CF910F
:101520001F910F91FF90EF90089528E020931104F0
:1015300080E491E09093100480930F0420931404AE
:1015400080EC91E09093130480931204209317048D
:1015500080E492E0909316048093150420931A047B
:1015600080EC92E0909319048093180420931D045A
:1015700080E493E090931C0480931B0408956F9281
:101580007F928F929F92AF92BF92CF92DF92EF9213
:10159000FF920F931F93CF93DF93EA012CE3C22EA8
:1015A000D12CE12CF12CA70196010E94FB28688325
:1015B000CA01B901A70196010E94FB286983CA01EB
:1015C000B90128E130E040E050E00E94FB284901E9
:1015D0005A016A83CA01B9016C5F7F4F8F4F9F4FD9
:1015E00027E030E040E050E00E94FB286F5F6B8313
:1015F00000E010E0980140E054E6652E712C60E9AF
:10160000C62EDD24D394E42FF0E0EE54F84F7F0192
:1016100083E0E822FF24E114F10489F4CF01B3014F
:101620000E94E728892B29F08EE691E0A0E0B0E047
:101630000AC0CF01B6010E94E728892BA9F38DE6E5
:1016400091E0A0E0B0E0080F191F2A1F3B1FD9014D
:10165000C801AA27BB2788169906AA06BB0610F060
:101660004F5FD1CF4E83E114F10499F4CF0164E6CA
:1016700070E00E94E728892B29F08EE691E0A0E037
:10168000B0E00BC0CF0160E971E00E94E728892B30
:10169000A1F38DE691E0A0E0B0E0081B190B2A0B46
:1016A0003B0B801A910AA20AB30ACF0164E670E0EC
:1016B0000E94E7289C01CF0160E971E00E94E728C1
:1016C000E2E3F2E0A0E0A13059F4E114F10451F4B6
:1016D0002115310511F04DE106C00097E1F302C07C
:1016E000408101C04CE150E060E070E08416950656
:1016F000A606B70640F0841A950AA60AB70AAF5F95
:101700003196AC3001F7AF5FAD8383948C82DF916B
:10171000CF911F910F91FF90EF90DF90CF90BF90EE
:10172000AF909F908F907F906F9008956F927F926F
:101730008F929F92AF92BF92CF92DF92EF92FF92E1
:101740000F931F93CF93DF93FC01C680AC2DB0E0C5
:1017500020E833E341EE51E00E9439294B015C015E
:1017600022EB37E06D01C4E6D0E000E911E0C901E9
:10177000825B97408C159D05DCF4C9018370992725
:10178000892B99F4C901BE010E94E728892B31F405
:10179000C901B8010E94E728892B39F480E8880E36
:1017A00081E5981E81E0A81EB11C2F5F3F4FDFCF5F
:1017B0006580712C8EE4C81A88EFD80AC60164E6E9
:1017C00070E00E94E7288C01C60160E971E00E9488
:1017D000E7287C01C1E0D0E083E0C822DD24C61503
:1017E000D7052CF5C230D10589F4C114D10471F4A8
:1017F0000115110519F4E114F10441F480E8880E93
:101800008BE3981E86E2A81EB11C0FC0DE01AF5C00
:10181000BD4FAC91B0E020E831E541E050E00E94DE
:101820003929860E971EA81EB91E2196D8CF418150
:10183000228130E0A0E1BEE00E9423296B017C01FF
:10184000242F30E0ACE3B0E00E942329C60ED71E5F
:10185000E81EF91E8081C80ED11CE11CF11CA48178
:10186000B0E0119720E831E541E050E00E944429C2
:10187000C60ED71EE81EF91EC80CD91CEA1CFB1C9C
:10188000C701B601DF91CF911F910F91FF90EF90AB
:10189000DF90CF90BF90AF909F908F907F906F9090
:1018A0000895CF93DF93EC010E94DC1C6883798359
:1018B0008A839B83DF91CF9108950F931F93CF93DA
:1018C000DF93EC010E94DC1C088119812A813B8195
:1018D000601B710B820B930BDF91CF911F910F91C6
:1018E0000895CF92DF92EF92FF920F931F93CF93C1
:1018F000DF93EC016A017B010E94DC1C08811981E5
:101900002A813B81601B710B820B930B21E0C61671
:10191000D706E806F90608F020E0822FDF91CF9184
:101920001F910F91FF90EF90DF90CF9008951F923D
:101930000F920FB60F9211240F931F932F933F9383
:101940004F935F936F937F938F939F93AF93BF93C7
:10195000CF93DF93EF93FF930AE412E0C0E0D0E06F
:10196000F80181918F010E94661EFE01ED5DFB4F23
:101970009081981731F0DE01A25EBB4F9C919F5F72
:101980009C9380832196C530D10551F7FF91EF914B
:10199000DF91CF91BF91AF919F918F917F916F9187
:1019A0005F914F913F912F911F910F910F900FBE1B
:1019B0000F901F901895909100019923D9F08530D0
:1019C000E0F4811103C082E10C94891DE82FF0E05E
:1019D000EB5BFD4F40E0608188E294E00E94960559
:1019E00088E294E00E94BA0525E0969587952A95AD
:1019F000E1F708958FEF9FEF089580E090E008955C
:101A0000823038F4E82FF0E0EC5AFD4F80810C94DE
:101A1000301E0895823050F4E82FF0E0EC5AFD4F6C
:101A200080810E94661E21E0019709F020E0822F4C
:101A30000895CF93C82F0E940A0D61E068278C2F6C
:101A4000CF910C94000DEF92FF920F931F93CF93C1
:101A5000DF9361E08DE00E94F71D61E089E00E9464
:101A6000F71D3FE4E32E32E0F32E0AE412E0C0E07B
:101A7000D0E061E0F70181917F010E94F71D62E0F3
:101A8000F80181918F010E94F71DFE01E25EFB4F7C
:101A900010822196C530D10561F761E081E00E9496
:101AA000F71D61E085E10E94F71D61E080E00E9482
:101AB000F71D0E945C088093000184E595E00E9478
:101AC000EB1968EC70E080E090E00E940B1D41E0B3
:101AD00061E088E294E00E946B0568EC70E080E0D1
:101AE00090E00E940B1D89E294E00E942A0468ECB9
:101AF00070E080E090E00E940B1DF894109280004E
:101B00001092810081E080936F0083E080938100D8
:101B10007894DF91CF911F910F91FF90EF900895EE
:101B2000CF93C62F853080F5811120C060E00E94E0
:101B3000301E62E370E080E090E00E940B1D6C2F8D
:101B400084E00E94301E62E370E080E090E00E943A
:101B50000B1D61E080E00E94301E62E370E080E0D7
:101B600090E00E940B1D60E080E005C0E82FF0E0EF
:101B7000E15BFD4F80810E94301E62E370E080E0F7
:101B800090E0CF910C940B1DCF91089580910001AE
:101B9000882321F089E294E00C94560460E070E020
:101BA00080EC9FE7089580910001882321F089E26D
:101BB00094E00C94CE0460E070E080EC9FE7089520
:101BC000823098F4662319F0613039F00895E82FD7
:101BD000F0E0E25CFD4F60E005C0E82FF0E0E25C81
:101BE000FD4F61E080810C94301E089591E08530B6
:101BF00008F090E0892F0895CF93DF93EC01809156
:101C00000001882339F00E94FA06688379838A8369
:101C10009B8304C0188219821A821B82DF91CF91A4
:101C200008950F931F93CF93DF93CDB7DEB7279718
:101C30000FB6F894DEBF0FBECDBF8C0180910001BE
:101C40008823B1F0CE0101960E94A4068F8190E016
:101C50008E54984FF801918380838E8182838D8189
:101C600083838B8184838A8185838981868308C06D
:101C7000F801118210821282138214821582168258
:101C800027960FB6F894DEBF0FBECDBFDF91CF9180
:101C90001F910F910895CF93DF93CDB7DEB72797AC
:101CA0000FB6F894DEBF0FBECDBFFC0180910001DE
:101CB000882399F08081825B8F8382818E838381E8
:101CC0008D8384818B8385818A8386818983CE01FC
:101CD00001960E94960B0E94880627960FB6F894EC
:101CE000DEBF0FBECDBFDF91CF91089520910001DF
:101CF000222329F0BC018EE094E00C941B07FC0128
:101D000088E09FEF91938150E9F7089589E294E08C
:101D10000C942904CF92DF92EF92FF920F931F93BE
:101D2000CF93DF93D82E80910001882309F450C00F
:101D30005AE0F52E0D2D10E06D2D84E595E00E9402
:101D4000F51965E070E080E090E00E940B1DE091E5
:101D50005405F09155050190F081E02D60E084E597
:101D600095E0099565E070E080E090E00E940B1D31
:101D700060E084E595E00E94011A811126C065E0CB
:101D800070E080E090E00E940B1D43E050E0B8015D
:101D900084E595E00E94751A8330B9F465E070E03F
:101DA00080E090E00E940B1DE12C84E595E00E940C
:101DB0005419039784F465E070E080E090E00E949D
:101DC0000B1DE39484E6E812F0CFFA9409F0B4CF47
:101DD000CFEFDFEF27C084E595E00E945C1984E532
:101DE00095E00E945C19E82E84E595E00E945C195C
:101DF000C82E61E084E595E00E94011A8111E5CFCB
:101E000065E070E080E090E00E940B1DE0FAEE24B7
:101E1000E0F8DE2D80E0C82FCC2944E0CC0FDD1F98
:101E20004A95E1F7CE01DF91CF911F910F91FF907D
:101E3000EF90DF90CF90089580910001882319F0F2
:101E400080E60C948A0E8FEF9FEF08959091000129
:101E5000992349F0853050F4E82FF0E0E05CFD4F25
:101E600080810C948A0E8FEF9FEF089580E090E0C0
:101E70000895CF930E941C0F4AE050E0BC018DE111
:101E800096E00E94B120C0E060E28DE196E00E9401
:101E9000AB1F8C2F0E94260FBC014AE050E08DE161
:101EA00096E00E94B120CF5FC53071F78DE196E0DA
:101EB0000E94B21F80E0CF910895CF93DF93C7E8CF
:101EC000D4E0CE010E942D01AB01BC012AE030E03C
:101ED0008DE196E00E94CD20A79685E0CA34D80710
:101EE00081F780E0DF91CF910895CF93C0E08C2FF0
:101EF0000E940C09BC014AE050E08DE196E00E948E
:101F0000B720CF5FC53099F780E0CF910895CF9388
:101F1000C0E08C2F0E94DB0CBC014AE050E08DE158
:101F200096E00E94B720CF5FC53099F780E0CF914F
:101F3000089566E572E08DE196E00E94A91F0E9477
:101F4000D30DAB01BC0122E030E08DE196E00E94B0
:101F5000CC2163E672E08DE196E00E94A91F0E9409
:101F6000C60DAB01BC0122E030E08DE196E00E949D
:101F7000CC2180E00895CF93DF9300D000D0CDB77F
:101F8000DEB7CE0101960E94FC0D49815A816B811A
:101F90007C8180912A0490912B04A0912C04B09113
:101FA0002D04481B590B6A0B7B0B2AE030E08DE1B6
:101FB00096E00E94CD2080E00F900F900F900F9040
:101FC000DF91CF910895CF93DF9300D000D0CDB7AC
:101FD000DEB7CE0101960E94810849815A816B814A
:101FE0007C812AE030E08DE196E00E94CD2080E007
:101FF0000F900F900F900F90DF91CF9108956DE6A5
:1020000072E08DE196E00E94A91F4AE050E061E095
:1020100070E08DE196E00E946B206EE28DE196E02B
:102020000E94AB1F4AE050E061E070E08DE196E075
:102030000E94732061E772E08DE196E00E94A91F83
:102040004AE050E061E070E08DE196E00E946B2094
:102050006EE28DE196E00E94AB1F4AE050E060E046
:1020600070E08DE196E00E946B206EE28DE196E0DB
:102070000E94AB1F4AE050E061E070E08DE196E025
:102080000E94732066E772E08DE196E00E94A91F2E
:102090002AE030E04EE759EE6FE078E58DE196E01A
:1020A0000E948B206CE772E08DE196E00E94A91FF0
:1020B00061E872E08DE196E00E94B61F80E008952D
:1020C0000E94440880E00895CF93823081F4FB01A0
:1020D000828193810E946029C82F0E94F60D882377
:1020E00021F0C093610180E003C083E001C082E081
:1020F000CF910895CF938230B1F4FB018281938117
:102100000E946029C82F0E94F60D882351F0F7E243
:10211000CF9FC001112489579B4F0E94200480E06B
:1021200003C083E001C082E0CF9108950F931F9315
:10213000CF93DF93182FEB018230A0F18A819B812E
:102140000E946029082F0E94F60D882339F1123071
:1021500059F427E2029FE0011124C957DB4F40E602
:102160005AEE60E070E013C01330D1F48C819D8191
:102170000E94602927E2029FE0011124C957DB4F2A
:1021800028EE33E0DC010E943229AB01BC01CE0114
:102190000E945301CE010E94750202C083E003C079
:1021A00080E001C082E0DF91CF911F910F910895EF
:1021B0001F93CF93DF93182FEB0181E0809352059B
:1021C0008AE495E00E94510C113049F410924E05BA
:1021D00010924F05109250051092510513C0123005
:1021E00089F48A819B810E94602928EE33E0DC011A
:1021F0000E94322960934E0570934F0580935005DD
:102200009093510580E0DF91CF911F910895CF9376
:10221000DF938230B9F4FB01C281D38166E872E0BA
:10222000CE010E948E29892B21F481E080936201E6
:1022300009C065E073E0CE010E948E29892B11F45C
:102240001092620180E0DF91CF9108950F931F9368
:10225000CF93DF93EB01843099F58A819B810E94B3
:102260006029182F0E94F60D882351F166E272E072
:102270008E819F810E948E2901E0892B09F000E068
:102280000C80DD81C02D69E872E0CE010E948E29AC
:10229000892B41F487E2189FF0011124E957FB4F85
:1022A00006830EC06CE872E0CE010E948E29892B55
:1022B00039F087E2189FF0011124E957FB4F07839B
:1022C00080E0DF91CF911F910F9108958091530588
:1022D00083FF06C06FE872E08DE196E00E94B61FB2
:1022E0008091530582FF06C064E972E08DE196E0BB
:1022F0000E94B61F8091530581FF06C069E972E014
:102300008DE196E00E94B61F8091530580FF06C0C4
:102310006FE972E08DE196E00E94B61F80E00895BB
:102320000F931F93CF93DF93082FEB018EEF800F56
:10233000823008F051C08A819B810E946029182F49
:102340000E94F60D882309F445C0033061F50C8026
:10235000DD81C02D68EA72E0CE010E948E29892BB2
:1023600061F427E2129FC001112460E089579B4F5E
:102370000E944E0164EA72E027C06FEA72E0CE016B
:102380000E948E29892B61F427E2129FC00111243B
:1023900061E089579B4F0E944E016BEA72E014C0C6
:1023A00064EB72E011C027E2129FC001112489572B
:1023B0009B4F0E943001811103C068EA72E004C0A3
:1023C000813071F76FEA72E08DE196E00E94B61FEE
:1023D00080E003C083E001C082E0DF91CF911F91D4
:1023E0000F910895CF938230B1F4FB0182819381E4
:1023F0000E946029C82F0E94F60D882351F0F7E251
:10240000CF9FC001112489579B4F0E94C20180E0D9
:1024100003C083E001C082E0CF910895CF93823062
:10242000B1F4FB01828193810E946029C82F0E9430
:10243000F60D882351F0F7E2CF9FC0011124895790
:102440009B4F0E94C70280E003C083E001C082E08E
:10245000CF910895CF93DF938130A1F40E946B0850
:10246000811103C065E073E031C0813019F468EA7E
:1024700072E02CC0823019F46FEA72E027C062EC7F
:1024800072E024C0823031F5FB01C281D38165E066
:1024900073E0CE010E948E29892B11F480E011C0D7
:1024A00068EA72E0CE010E948E29892B11F481E046
:1024B00008C06FEA72E0CE010E948E29892B21F4B8
:1024C00082E00E946F0806C064EC72E08DE196E045
:1024D0000E94B61F80E0DF91CF9108951F93CF93A4
:1024E000DF93C0E0D0E0CE010E949F29182F682F13
:1024F00062956F7070E040E150E08DE196E00E94DF
:102500006B201F70612F70E040E150E08DE196E09C
:102510000E946B2060E28DE196E00E94AB1FCE012D
:1025200083709927039729F460E28DE196E00E9479
:10253000AB1FCE018F7199274F9721F48DE196E063
:102540000E94B21F2196C11584E0D80761F680E091
:10255000DF91CF911F910895CF93DF93EC016881B4
:1025600079814AE050E08DE196E00E94B12060E27E
:102570008DE196E00E94AB1F4AE050E06A818DE158
:1025800096E00E94AA2060E28DE196E00E94AB1FD7
:102590004AE050E06B818DE196E00E94AA2060E263
:1025A0008DE196E00E94AB1F4AE050E06C818DE126
:1025B00096E00E94AA2060E28DE196E00E94AB1FA7
:1025C0004AE050E06D818DE196E00E94AA2060E231
:1025D0008DE196E00E94AB1F4AE050E06E818DE1F4
:1025E00096E0DF91CF910C94AA200F931F93CF9385
:1025F000DF93CDB7DEB727970FB6F894DEBF0FBED7
:10260000CDBF8B01813061F18730C1F5FB01828143
:1026100093810E9460299A838983F801848195813E
:102620000E9460298B83F801868197810E9460292E
:102630008C83F801808591850E9460298D83F80143
:10264000828593850E9460298E83F8018485958513
:102650000E9460298F83CE0101960E944B0E0CC010
:10266000CE0101960E94110ECE0101960E94AC127D
:102670008DE196E00E94B21F80E001C082E02796C3
:102680000FB6F894DEBF0FBECDBFDF91CF911F9183
:102690000F910895FF920F931F93CF93DF93EC0157
:1026A000F12C8E0169916F7070E040E150E08DE196
:1026B00096E00E946B20F801608170E084E07595DF
:1026C00067958A95E1F740E150E08DE196E00E9440
:1026D0006B20F394F8E0FF12E4CFDF91CF911F91CC
:1026E0000F91FF900895CF93DF93CDB7DEB7289772
:1026F0000FB6F894DEBF0FBECDBFCE0101960E948B
:10270000760ECE0101960E944A138DE196E00E945A
:10271000B21F80E028960FB6F894DEBF0FBECDBF83
:10272000DF91CF910895CF92DF92EF92FF920F93B6
:102730001F93CF93DF937C01C62E8A01D12CF4E046
:10274000DF9EE0011124CF5FDE4F888199810097E1
:1027500069F0F801608171810E948E29892B21F432
:102760000A80DB81C02D04C0D394E9CFC0E0D0E063
:1027700061ED72E08DE196E00E94A91FB7018DE145
:1027800096E00E94A91F60E28DE196E00E94AB1FD7
:10279000F801608171818DE196E00E94B61F20975B
:1027A00029F0B8018C2DFE01099506C06BED72E091
:1027B0008DE196E00E94B61F6BEE72E08DE196E02F
:1027C000DF91CF911F910F91FF90EF90DF90CF900D
:1027D0000C94B61FBF92CF92DF92EF92FF920F93AD
:1027E0001F93CF93DF93CDB7DEB760970FB6F89402
:1027F000DEBF0FBECDBFB12C8FE294E07C0187011C
:102800002FEFE21AF20AF801C080DD24C7FCD09451
:10281000C6010E948629892B91F7C6010E947E2954
:10282000892BD1F0DD24D394DB0CFE013196EB0D26
:10283000F11DEB0DF11D1183008378018701FFEF7E
:10284000EF1AFF0AF8018081992787FD90950E9471
:102850007E29892B99F7BD2CF8018081882399F076
:10286000C80101961082F7E0FB1540F689819A8134
:10287000FC012081203451F46FEF6B0DAE014D5FF0
:102880005F4F019609C0BB2049F0F0CFAE014F5F0A
:102890005F4F6B2D80EF92E00E94931360960FB60E
:1028A000F894DEBF0FBECDBFDF91CF911F910F9186
:1028B000FF90EF90DF90CF90BF9008951F93CF933C
:1028C000DF9382EF92E090938804809387041092C4
:1028D000890410928A0410928B0421E020938C04C6
:1028E00020938D0420938E0485EF92E09093AF04A3
:1028F0008093AE042093B0042093B1041092B204EC
:102900002093B3042093B4042093B50488EF92E09D
:102910009093D6048093D50482E08093D7041092DC
:10292000D9042093DA041092DB041092DC048BEFBC
:1029300092E09093FD048093FC0483E08093FE0476
:1029400010920205109203058EEF92E090932405F9
:102950008093230584E08093250510922905109229
:102960002A05C7E8D4E0CE010E94A201A79685E01F
:10297000CA34D807C1F7C7E8D4E010E0812F0E941D
:1029800045098250823078F460E0812F0E944D0921
:1029900080915305857021F0CE010E94C70203C0CB
:1029A000CE010E948F021F5FA796153039F7DF9185
:1029B000CF911F9108958F929F92AF92BF92CF9225
:1029C000DF92EF92FF920F931F93CF93DF93EC016F
:1029D000062F0E947F09081720F0CE010E947F0970
:1029E000082F11E0C12CD12C76011017A8F4612F0B
:1029F000CE010E9485094B015C016FEF610FCE0192
:102A00000E948509861A970AA80AB90AC80CD91C17
:102A1000EA1CFB1C1F5FE9CF202F30E040E050E0B4
:102A2000C701B6010E94FB28CA01B901DF91CF910D
:102A30001F910F91FF90EF90DF90CF90BF90AF90DC
:102A40009F908F90089529E288E190E00FB6F89466
:102A5000A895809360000FBE20936000A895C0E009
:102A6000C530F0F461E080E00E94000D61E081E09B
:102A70000E94000D60E570E080E090E00E940B1D78
:102A800060E080E00E94000D60E081E00E94000DA7
:102A900060E570E080E090E00E940B1DCF5FE0CF2A
:102AA00061E080E00E94000D61E081E00E94000D85
:102AB00068EC70E080E090E00E940B1D60E080E038
:102AC0000E94000D60E081E00E94000D68EC70E063
:102AD00080E090E00E940B1DC0E0C4CF90916201A5
:102AE000992339F04AE050E0682F8DE196E00C948C
:102AF000AA2008950F931F93CF93DF9310E0812FA7
:102B00000E945509853070F089E193E00E944605E6
:102B10008EE193E00E94E901812F0E946E158EE202
:102B200093E039C003E0812F0E94550961E0680FEE
:102B3000812F0E945D0964E170E080E090E00E94D6
:102B40000B1D812F0E94260FEC0162E370E080E0F4
:102B500090E00E940B1D812F0E9455096FEF680FB6
:102B6000812F0E945D0964E170E080E090E00E94A6
:102B70000B1DC938D34198F00150A9F689E193E0C3
:102B80000E9446058EE193E00E94E901812F0E9498
:102B90006E158FE393E00E94E9010E9462051F5FBA
:102BA000153009F0ACCFDF91CF911F910F910895AF
:102BB0000F931F93CF93DF9310E0812F0E9465093D
:102BC000853070F089E193E00E9446058EE493E041
:102BD0000E94E901812F0E946E158EE293E039C0B8
:102BE00003E0812F0E94650961E0680F812F0E9438
:102BF0006D0964E170E080E090E00E940B1D812F80
:102C00000E94DB0CEC0162E370E080E090E00E9447
:102C10000B1D812F0E9465096FEF680F812F0E94A5
:102C20006D0964E170E080E090E00E940B1DC1310D
:102C3000D74298F00150A9F689E193E00E94460539
:102C40008EE493E00E94E901812F0E946E158FE3CC
:102C500093E00E94E9010E9462051F5F153009F0B0
:102C6000ACCFDF91CF911F910F9108950E947A15FB
:102C70000C94D815CF9384B78093530514BE88E184
:102C80000FB6F89480936000109260000FBE60EA67
:102C90007FE080E090E00E940B1D29E288E190E057
:102CA0000FB6F894A895809360000FBE2093600043
:102CB000A89540E051EE60E070E08DE196E00E9462
:102CC000701FC8E061E080E00E94000D64E670E0E3
:102CD00080E090E00E940B1D61E081E00E94000D09
:102CE00064E670E080E090E00E940B1D60E080E010
:102CF0000E94000D64E670E080E090E00E940B1DF1
:102D000060E081E00E94000D64E670E080E090E009
:102D10000E940B1DC150B1F6A8950E942F08811189
:102D200030C00E94D7090E94230DC0E161E080E01D
:102D30000E94000D64E170E080E090E00E940B1DB5
:102D400061E081E00E94000D64E170E080E090E0CD
:102D50000E940B1D60E080E00E94000D64E170E0C5
:102D600080E090E00E940B1D60E081E00E94000D79
:102D700064E170E080E090E00E940B1DC150B1F66C
:102D800002C00E94230D8AE294E00E94FC0D8AE2B8
:102D900094E00E94CE080E948B08A895809153056C
:102DA000857011F00E9436160E945E141092610127
:102DB00010922E0483E894E00E94510C8FE794E077
:102DC0000E94510C1092520510924E0510924F0520
:102DD0001092500510925105A895CF910895AB011E
:102DE000BC0180916201882331F02AE030E08DE15E
:102DF00096E00C949D200895CF92DF92EF92FF927F
:102E00001F93CF93DF93EC018AE593E00E94460580
:102E100010E0CE010E947F09181760F48CE292E066
:102E20000E94E901612FCE010E9485090E94EF16E0
:102E30001F5FEFCF0E946205CE010E947F098230A2
:102E400008F445C082E693E00E94460511E0E12EB9
:102E5000F12CCE010E947F09853028F4CE010E941A
:102E60007F0990E002C084E090E0E816F906CCF417
:102E7000612FCE010E9485096B017C016FEF610F0C
:102E8000CE010E948509C61AD70AE80AF90A8CE21F
:102E900092E00E94E901C701B6010E94EF161F5F90
:102EA000D6CF63E0CE010E94DB14683C710581053A
:102EB000910520F489E693E00E94E901DF91CF912A
:102EC0001F91FF90EF90DF90CF900C946205DF91FF
:102ED000CF911F91FF90EF90DF90CF9008950F93C7
:102EE0001F93CF93DF93809161010E94F60D882399
:102EF00091F083E894E00E94510C8091610127E2F7
:102F0000829FC001112489579B4F0E94F3018FEFCC
:102F1000809361012DC040E355E760E070E083E8F5
:102F200094E00E94710C882319F107E814E0C0E0D6
:102F3000D0E0C8010E9420018823A1F083E894E03A
:102F40000E94510CC8010E94F301CE01880F991F05
:102F50008C0F9D1F815F9B4FDF91CF911F910F9130
:102F60000C94FC162196095D1F4FC530D10509F759
:102F7000DF91CF911F910F9108952091620122233B
:102F800039F04AE050E0BC018DE196E00C94B120AC
:102F9000089590916201992329F0682F8DE196E0C0
:102FA0000C94AB1F0895AB01BC0180916201882392
:102FB00031F022E030E08DE196E00C94CA210895D2
:102FC0000F931F93CF93DF93CDB7DEB72F970FB635
:102FD000F894DEBF0FBECDBFCE0101960E94760EE3
:102FE0008CE693E00E944605CE0101960E944A13AA
:102FF0000E94620562E370E080E090E00E940B1D99
:10300000CE0109960E94110E8FE693E00E944605BC
:10301000CE0109960E94AC128DE196E00E94B21F8B
:1030200062E370E080E090E00E940B1D8CE892E08B
:103030000E9446050E941C0F0E94BD1710E080E20E
:103040000E94C917812F0E94260F0E94BD171F5F83
:103050001530A9F70E94620562E370E080E090E01D
:103060000E940B1D84E793E00E94460510E0812F2B
:103070000E94DB0C0E94BD1780E20E94C9171F5FEF
:103080001530A9F70E94620562E370E080E090E0ED
:103090000E940B1D87E793E00E9446050E94D30D16
:1030A0000E94D31780E20E94C9170E94C60D0E9499
:1030B000D3170E94620562E370E080E090E00E9416
:1030C0000B1D8BE793E00E94460510E0812F0E94C4
:1030D0000C090E94BD1780E20E94C9171F5F1530BE
:1030E000A9F70E94620562E370E080E090E00E9430
:1030F0000B1D81E893E00E94460510E0812F0E949D
:10310000B40890916201992341F0682F70E04AE081
:1031100050E08DE196E00E946B2080E20E94C9178A
:103120001F5F153059F70E94620562E370E080E08E
:1031300090E00E940B1D8CEB92E00E94460507E890
:1031400014E0C8010E943001811103C089E893E0B6
:1031500007C0813019F48DE893E002C083E993E061
:103160000E94E901095D1F4F84E0053D180749F7FA
:103170000E9462052F960FB6F894DEBF0FBECDBF3A
:10318000DF91CF911F910F910895CF93C0E08DE112
:1031900096E00E94B91E181619069CF5C03F88F5E6
:1031A0008DE196E00E94C91EE0912E0491E09E0FF1
:1031B00090932E04F0E0E15DFB4F8083CF5F90356C
:1031C00060F010922E048DE196E00E94B91E181650
:1031D0001906ECF6C03F69F4DACF8A30C1F6E92F60
:1031E000F0E0E15DFB4F108210922E040E94EA1382
:1031F000CECF8DE196E00E94C91E0A9741F2CF5FC3
:10320000E2CFCF910895CF93DF9380915205811142
:1032100002C00E946F17C7E8D4E0CE010E941304D9
:10322000A79685E0CA34D807C1F7A8950E94C518AB
:1032300040E355E760E070E08FE794E00E94710C96
:10324000882339F08FE794E00E94510CA8950E94E2
:10325000E01780915205882371F040914E055091FE
:103260004F0560915005709151058AE495E00E94E8
:10327000710C811117C080E00E94190D80915205D8
:10328000882339F080E00E940A0D682F81E00E94B7
:10329000000DA89568EC70E080E090E0DF91CF91A0
:1032A0000C940B1D0E9423158091840590E02091C1
:1032B0008505821B910908952091850580918405DB
:1032C000281750F4E22FF0E0EA57FA4F808190E09F
:1032D0002F5F2093850508958FEF9FEF0895E0916C
:1032E000850580918405E81730F4F0E0EA57FA4F3D
:1032F000808190E008958FEF9FEF08950895CF9219
:10330000DF92EF92FF920F931F93CF93DF937C0195
:10331000CB018A0120916005222389F0EB016B012A
:10332000C40ED51ECC15DD0569F06991D701ED916C
:10333000FC910190F081E02DC7010995F3CF642F36
:103340000E943C1BC801DF91CF911F910F91FF900C
:10335000EF90DF90CF900895CF93DF931F92CDB77A
:10336000DEB76983209160052223D1F020916105A9
:10337000203240F021E030E0FC013383228380E002
:1033800090E015C080916205E82FF0E0ED59FA4F0A
:10339000998190838F5F809362058093610505C05A
:1033A00061E0CE0101960E943C1B81E090E00F900D
:1033B000DF91CF910895FC011382128248EE53E011
:1033C00060E070E0448355836683778383EE93E007
:1033D0009183808308951092850510928405109240
:1033E0006205109261050C947F1A81E0809360055C
:1033F00060938305109262051092610508950C9404
:10340000F5190F93062F21E04091610563E675E001
:10341000809183050E94E51A109262051092610561
:10342000109260050F9108958F929F92AF92BF9274
:10343000CF92DF92EF92FF920F931F93CF93DF9380
:10344000EC01F62ED42E48015901EE2019F10E940C
:10345000F5191E2D143008F013E01150B8F0E88172
:10346000F98128E0129FB0011124A501940104C044
:1034700056954795379527956A95D2F7CA01B901B0
:103480000190F081E02DCE010995E7CF60E0CE01FB
:103490000E94011A4D2D413208F040E22C2D66E8C1
:1034A00075E08F2D0E949D1A1092850580938405EA
:1034B000DF91CF911F910F91FF90EF90DF90CF9010
:1034C000BF90AF909F908F900895CF92EF920F93FF
:1034D0001F93C22EE12C00E010E098010E94141A04
:1034E0001F910F91EF90CF90089521E00C94651AF1
:1034F00061E00C94011A84E595E00C94DB191092BC
:10350000130681E0809311061092100661E082E0BC
:103510000E94301E61E083E00E94301EE9EBF0E083
:1035200080818E7F808380818D7F808388E48093FB
:10353000B80085E48093BC000895413208F043C090
:10354000909113069111FCCF91E090931306209374
:1035500011062FEF2093A6051092EB05240F209360
:10356000EA059093120690911206880F892B80939A
:10357000120680911006813061F41092100680913D
:1035800012068093BB008091BC0083FDF8CF85ECD0
:1035900001C085EE8093BC00809113068130E1F379
:1035A0008091EB05841710F44091EB052CEE35E08B
:1035B000FB01D9018A2F821B841718F48D91819306
:1035C000F9CF842F089580E008950F93413208F0D9
:1035D0004AC0909113069111FCCF92E0909313068C
:1035E000009311069FEF9093A6051092EB05409370
:1035F000EA05FB016CEE75E0DB019A2F961B941730
:1036000018F491919D93F9CF1092120690911206A1
:10361000880F892B8093120680911006813061F407
:1036200010921006809112068093BB008091BC001E
:1036300083FDF8CF85EC01C085EE8093BC0022238A
:1036400021F0809113068230E1F38091A6058F3F2F
:1036500061F08091A605803251F08091A6058033FB
:1036600041F483E007C081E005C080E003C082E050
:1036700001C084E00F910895613298F420911306FF
:10368000243089F46093C805FC018AEC95E0DC01E4
:103690002A2F281B261718F421912D93F9CF80E0AB
:1036A000089581E0089582E0089585ED8093BC003F
:1036B0008091BC0084FDFCCF10921306089585EC28
:1036C0008093BC001092130608951F920F920FB6BC
:1036D0000F9211242F933F934F935F936F937F9398
:1036E0008F939F93AF93BF93EF93FF938091B90014
:1036F000887F803609F49EC078F5883209F45DC071
:1037000090F4803109F456C038F4882309F4F5C0E8
:10371000883009F44FC0F5C0883109F44EC08032BA
:1037200009F45FC0EEC0803409F46AC058F48033F5
:1037300009F457C0883309F0E4C08093A6050E94BD
:103740005F1BDFC0803509F44FC0883509F45DC0C8
:10375000883409F0D6C0D3C0883909F4C4C0A8F4AD
:10376000883709F467C038F4883609F463C08037B5
:1037700009F460C0C6C0883809F4B5C0803909F4BE
:103780005FC0803809F0BDC05BC0803B09F483C0D6
:1037900038F4803A09F466C0883A09F47CC0B1C0B4
:1037A000803C09F4A4C0883C09F4A1C0883B09F41A
:1037B00087C0A7C08091120610C09091EB05809140
:1037C000EA05981770F5E091EB0581E08E0F809384
:1037D000EB05F0E0E451FA4F80818093BB0085EC6B
:1037E00083C08093A6058BC0E091EB0581E08E0F2E
:1037F0008093EB058091BB00F0E0E451FA4F8083A9
:103800009091EB058091EA056BC0E091EB0581E0BA
:103810008E0F8093EB058091BB00F0E0E451FA4FEE
:1038200080838091110681116AC081E08093100627
:1038300084EA5EC083E0809313061092A705CFCF81
:103840008091A705803208F04EC0E091A70581E085
:103850008E0F8093A7058091BB00F0E0E855FA4FEA
:103860008083BDCF0E945F1B8091A705803230F41A
:10387000E091A705F0E0E855FA4F10826091A705A6
:1038800070E0E0910C06F0910D0688EA95E009954C
:103890001092A70536C084E0809313061092C905E4
:1038A0001092C805E0910E06F0910F0609958091DF
:1038B000C805811105C081E08093C8051092CA0532
:1038C000E091C90581E08E0F8093C905F0E0E653D1
:1038D000FA4F80818093BB009091C9058091C80503
:1038E000981708F47CCF85E88093BC000AC085EC6B
:1038F0008093BC001092130604C01092A6050E948B
:10390000551BFF91EF91BF91AF919F918F917F9147
:103910006F915F914F913F912F910F900FBE0F903C
:103920001F9018951F920F920FB60F9211242F938C
:103930003F938F939F93AF93BF9380911506909180
:103940001606A0911706B09118063091140623E0D0
:10395000230F2D3720F40196A11DB11D05C026E8C7
:10396000230F0296A11DB11D209314068093150606
:1039700090931606A0931706B09318068091190627
:1039800090911A06A0911B06B0911C060196A11DEC
:10399000B11D8093190690931A06A0931B06B0934D
:1039A0001C06BF91AF919F918F913F912F910F90E6
:1039B0000FBE0F901F9018952FB7F89460911506C1
:1039C0007091160680911706909118062FBF0895E2
:1039D0003FB7F8948091190690911A06A0911B06A2
:1039E000B0911C0626B5A89B05C02F3F19F0019683
:1039F000A11DB11D3FBF6627782F892F9A2F620F17
:103A0000711D811D911D42E0660F771F881F991F50
:103A10004A95D1F70895CF92DF92EF92FF92CF931C
:103A2000DF936B017C010E94E81CEB01C114D104FF
:103A3000E104F10489F00E9420260E94E81C6C1B1E
:103A40007D0B683E734090F381E0C81AD108E1080D
:103A5000F108C851DC4FEACFDF91CF91FF90EF9092
:103A6000DF90CF900895789484B5826084BD84B54A
:103A7000816084BD85B5826085BD85B5816085BD69
:103A8000EEE6F0E0808181608083E1E8F0E0108282
:103A9000808182608083808181608083E0E8F0E0C3
:103AA000808181608083E1E9F0E0808182608083B1
:103AB000808181608083E0E9F0E0808181608083A3
:103AC000E1ECF0E08081846080838081826080838B
:103AD000808181608083E3ECF0E08081816080837D
:103AE000E0ECF0E0808182608083E2ECF0E08081B5
:103AF00081608083EAE7F0E0808184608083808158
:103B000082608083808181608083808180688083FF
:103B10000895823108F08251E82FF0E0E653FF4F1C
:103B2000E49180917B00E3FB222720F930E095E0CF
:103B3000220F331F9A95E1F78F7D822B80937B00B4
:103B4000E7708091630120E4829FC0011124E82B7B
:103B5000E0937C0080917A00806480937A00809169
:103B60007A0086FDFCCF809178002091790090E06A
:103B7000922B089590E0FC013197EF30F105B0F5FC
:103B8000EA5AFF4F0C941D29809180008F7703C063
:103B9000809180008F7D80938000089580918000C7
:103BA000877FF9CF84B58F7702C084B58F7D84BDC0
:103BB0000895809190008F7707C0809190008F7D4D
:103BC00003C080919000877F80939000089580913A
:103BD000C0008F7703C08091C0008F7D8093C000AC
:103BE00008958091C200877F8093C2000895CF938B
:103BF000DF9390E0FC01EB50FF4F2491FC01EC5E61
:103C0000FE4F8491882349F190E0880F991FFC01B1
:103C1000E15BFE4FA591B4918F5B9E4FFC01C59176
:103C2000D4919FB7611108C0F8948C91209582239C
:103C30008C93888182230AC0623051F4F8948C916D
:103C4000322F309583238C938881822B888304C004
:103C5000F8948C91822B8C939FBFDF91CF91089524
:103C60000F931F93CF93DF931F92CDB7DEB7282F0B
:103C700030E0F901EA52FF4F8491F901EB50FF4F18
:103C80001491F901EC5EFE4F04910023C9F08823E2
:103C900021F069830E94BA1D6981E02FF0E0EE0FE8
:103CA000FF1FEF5BFE4FA591B4919FB7F8948C91E5
:103CB000611103C01095812301C0812B8C939FBF9C
:103CC0000F90DF91CF911F910F910895CF93DF93C4
:103CD000282F30E0F901EA52FF4F8491F901EB50AF
:103CE000FF4FD491F901EC5EFE4FC491CC2391F0CB
:103CF00081110E94BA1DEC2FF0E0EE0FFF1FED5C6A
:103D0000FE4FA591B4912C912D2381E090E021F4F8
:103D100080E002C080E090E0DF91CF910895CF93E2
:103D2000DF931F92CDB7DEB76983DC01ED91FC9183
:103D30000280F381E02D41E050E0BE016F5F7F4FD4
:103D400009950F90DF91CF910895CF93DF93EC0108
:103D50008C859D8597FF05C082E00E94EF229D879C
:103D60008C878C859D85DF91CF91089583E00C949D
:103D70006A25FC018485958597FD06C082E00E9436
:103D8000972290E00196089582E00E94972290E0A9
:103D90000895FC018485958597FD05C02FEF3FEFC1
:103DA00035872487089582E00C94EF22CF93DF9328
:103DB000EC0180916F01882331F083E00E94202381
:103DC0001816190634F081E090E09B838A8380E026
:103DD00090E0DF91CF910895FC0120812E5F208338
:103DE00042E450E06DE571E080E80C94BB23FC01F7
:103DF00021818081813A59F4213209F05CC047E089
:103E000050E068E671E080E00E94BB2367C0813229
:103E100009F051C0233289F4838190E0982F8827DC
:103E20003281832BA0E0B0E0809364019093650120
:103E3000A0936601B09367010FC0203239F467E0A8
:103E400070E088E691E00E94EC230AC0223221F45F
:103E5000828180936F0104C02D7F203209F03EC023
:103E60008091680190916901A0916A01B0916B0104
:103E7000803B9440A105B10501F580916F0180FD63
:103E80001CC080910008909101089093FF0A8093D4
:103E9000FE0A87E797E790930108809300082BE0DC
:103EA00088E190E00FB6F894A895809360000FBE6B
:103EB0002093600013C080E0089588E10FB6F89465
:103EC00080936000109260000FBEA8958091FE0A5A
:103ED0009091FF0A909301088093000881E0089573
:103EE0002FEF3FEFFC0135872487089510922006BD
:103EF00010921F0688EE93E0A0E0B0E080932106C8
:103F000090932206A0932306B093240683EF93E0B8
:103F100090931E0680931D068FEF9FEF90932A06C5
:103F20008093290608956115710581F0DB010D90DC
:103F30000020E9F7AD0141505109461B570BDC0148
:103F4000ED91FC910280F381E02D099480E090E0F6
:103F500008950C94931FDC01ED91FC910190F08188
:103F6000E02D09946FEF73E00C94931F0F931F9350
:103F7000CF93DF93EC010E94931F8C01CE010E942E
:103F8000B21F800F911FDF91CF911F910F91089564
:103F90008F929F92AF92BF92CF92DF92EF92FF9259
:103FA0000F931F93CF93DF93CDB7DEB7A1970FB6D3
:103FB000F894DEBF0FBECDBF7C01C42EE52FCB0130
:103FC000D22E19A221E02D1510F02AE0D22E8E015A
:103FD0000F5D1F4F8D2C912CA12CB12C6C2D7E2FA1
:103FE000A50194010E94FB288C2DD29E80191124DA
:103FF000015011098A3014F4805D01C0895CF80118
:104000008083211531054105510521F0C22EE32F92
:10401000CA01E4CFB801C7010E94931FA1960FB651
:10402000F894DEBF0FBECDBFDF91CF911F910F91EE
:10403000FF90EF90DF90CF90BF90AF909F908F90C8
:104040000895CF92DF92EF92FF920F931F93CF9339
:10405000DF93EC016A017B012115310579F4E881D8
:10406000F9810190F081E02D642FDF91CF911F91B4
:104070000F91FF90EF90DF90CF9009942A30310597
:10408000E9F477FF1AC06DE20E94AB1F8C01442750
:104090005527BA014C195D096E097F092AE0CE0146
:1040A0000E94C81F800F911FDF91CF911F910F9128
:1040B000FF90EF90DF90CF9008952AE0B701A6011E
:1040C000CE01DF91CF911F910F91FF90EF90DF9084
:1040D000CF900C94C81F9A01AB01662757FD6095DD
:1040E000762F0C9421200F931F93CF93DF93EC0135
:1040F0009A01AB01662757FD6095762F0E9421201B
:104100008C01CE010E94B21F800F911FDF91CF91D1
:104110001F910F9108950F931F93CF93DF93EC019D
:104120000E9421208C01CE010E94B21F800F911F9E
:10413000DF91CF911F910F9108952115310541F421
:10414000DC01ED91FC910190F081E02D642F099448
:104150000C94C81F9A01462F50E060E070E00C9468
:104160009D209A01AB0160E070E00C949D200F93BC
:104170001F93CF93DF93EC019A01AB0160E070E0F5
:104180000E949D208C01CE010E94B21F800F911FC2
:10419000DF91CF911F910F9108950F931F93CF93AC
:1041A000DF93EC010E949D208C01CE010E94B21F82
:1041B000800F911FDF91CF911F910F9108954F9222
:1041C0005F926F927F928F929F92AF92BF92CF92A7
:1041D000DF92EF92FF920F931F93CF93DF93EC0147
:1041E0006A017B01B22E9A01AB01C701B6010E94A0
:1041F000D728882319F062E074E027C02601370130
:10420000E89477F82FEF3FEF4FE75FE7C301B20184
:104210000E94D72881110DC02FEF3FEF4FE75FE7D6
:10422000C301B2010E94212718161CF466E074E055
:104230000CC02FEF3FEF4FE75FE4C701B6010E94CC
:1042400070281816ACF46AE074E0CE01DF91CF91CB
:104250001F910F91FF90EF90DF90CF90BF90AF90A4
:104260009F908F907F906F905F904F900C94931FD2
:104270002FEF3FEF4FE75FECC701B6010E94212708
:1042800087FDE1CF20E030E0A901C701B6010E941F
:10429000212787FF0AC06DE2CE010E94AB1F8C016F
:1042A000F7FAF094F7F8F09402C000E010E0A12CC7
:1042B00060E070E080E09FE3AB1441F020E030E08C
:1042C00040E251E40E942527A394F6CF9B01AC0164
:1042D000C701B6010E94BD266B017C010E94922796
:1042E0002B013C010E94BE279B01AC01C701B60116
:1042F0000E94BC266B017C012AE0B301A201CE0121
:104300000E94C81F080F191FBB2039F06CE473E02E
:10431000CE010E94931F080F191F7B2C772041F1BB
:1043200020E030E040E251E4C701B6010E94742869
:104330006B017C010E948D274B01AA2497FCA0945D
:10434000BA2C2AE030E0B501A401CE010E94212060
:10435000080F191FC501B4010E94C0279B01AC01C1
:10436000C701B6010E94BC266B017C017A94D6CFAE
:10437000C801DF91CF911F910F91FF90EF90DF90D7
:10438000CF90BF90AF909F908F907F906F905F90F5
:104390004F9008950C94DF200F931F93CF93DF93DA
:1043A000EC010E94DF208C01CE010E94B21F800F21
:1043B000911FDF91CF911F910F910895615030F0BF
:1043C0002091F100FC0120830196F8CF289A84E621
:1043D000809376060895409171065091720620915F
:1043E0006F063091700642175307B4F49091E800BD
:1043F0009570E1F39091E80092FD19C08093F1006F
:10440000809171069091720601968F739927892B7E
:1044100019F48EEF8093E8008091710690917206F6
:104420000196909372068093710681E0089580E072
:104430000895CF92DF92EF92FF920F931F93CF9345
:10444000DF931F92CDB7DEB7082F162FF42E862FDD
:10445000880F8E5F99830E94EB2183E00E94EB21FD
:10446000E02EC02E9981D92E8C2D8E19811798F4AB
:10447000F601F7FE02C0849101C080810E94EB2109
:10448000082F80E00E94EB218023FFEFCF1ADF0A84
:104490008111EACF01C081E00F90DF91CF911F9190
:1044A0000F91FF90EF90DF90CF9008958091D7000B
:1044B00081608093D70080EA8093D80089B58061BD
:1044C00089BD89B5826089BD09B400FEFDCF61E078
:1044D00070E080E090E00E940B1D8091D8008F7CFE
:1044E00080618093D8008091E000807F8093E0001D
:1044F0000895CF93DF931F92CDB7DEB71982CE0117
:1045000001960E94EC1E0E94A826BE016F5F7F4F9D
:104510000E94212689810F90DF91CF9108952FB7B6
:10452000FC012083F89467706093E9000895CF93AD
:10453000DF931F92CDB7DEB7682FCE0101960E94A0
:104540008F228091F20099819FBF0F90DF91CF91D0
:104550000895FF920F931F93CF93DF9300D0CDB7B1
:10456000DEB7F62E8A0190917506992311F057FF58
:1045700003C08FEF9FEF2BC0682FCE0101967A8387
:104580000E948F228091F20090E0A8017A8180172A
:1045900091070CF4AC01EF2DF72FF40E84E6FE1614
:1045A00039F0289A809376069091F1009193F7CF95
:1045B0004115510521F08091F200882321F0898175
:1045C0008FBFCA0104C08BE68093E800F8CF0F903C
:1045D0000F90DF91CF911F910F91FF900895CF938E
:1045E000DF931F92CDB7DEB741E050E0BE016F5FB1
:1045F0007F4F0E94A922019719F4898190E002C09F
:104600008FEF9FEF0F90DF91CF910895CF93DF93BE
:104610001F92CDB7DEB7682FCE0101960E948F2280
:104620009091E800892F807295FF04C09091F2006C
:1046300080E4891B99819FBF0F90DF91CF910895EE
:104640006F927F928F929F92AF92BF92CF92DF92A2
:10465000EF92FF920F931F93CF93DF931F92CDB7EB
:10466000DEB7782E7B01C42EB52E80917506882387
:1046700069F0042F152F8AEFD82E872D8072982E7F
:104680009AE3A92E872D8074882E11C08FEF9FEF9B
:1046900057C0872D0E940623682E81110CC0DA9422
:1046A000A9F361E070E080E090E00E940B1D01152D
:1046B000110579F73BC0282F30E0021713070CF4DF
:1046C000602E672DCE0101960E948F228091E80016
:1046D00085FF29C0262D30E0021B130B992039F0ED
:1046E0006A948FEF6816B1F01092F100F9CFF701DC
:1046F000862D77FE07C0815058F094919093F10079
:104700003196F9CF815020F091919093F100FACF3A
:10471000E20EF31E8091E80085FF0FC00115110520
:1047200011F481100AC089818FBFC1CF5D9A84E6E0
:10473000809377068C2D9B2D03C0A092E800F3CFC9
:104740000F90DF91CF911F910F91FF90EF90DF902D
:10475000CF90BF90AF909F908F907F906F90089573
:104760001092E900109272061092710690937006F2
:1047700080936F060895CF92DF92FF920F931F935D
:10478000CF93DF9300D0CDB7DEB7F82E8A016B014F
:1047900001151105B1F0F601F7FE02C0849101C0C8
:1047A000808149835A830E94EB2101501109FFEF58
:1047B000CF1ADF0A49815A818111EACF8FEF9FEF2B
:1047C00001C0CA010F900F90DF91CF911F910F91FF
:1047D000FF90DF90CF9008951F93CF93DF931F92A8
:1047E000CDB7DEB7162F2091E80022FFFCCF612F56
:1047F00079830E94DE218BEF8093E800812F7981FD
:10480000972F0F90DF91CF911F9108951F920F92D4
:104810000FB60F921124DF92EF92FF920F931F9326
:104820002F933F934F935F936F937F938F939F93B8
:10483000AF93BF93EF93FF93CF93DF93CDB7DEB7E3
:104840006C97DEBFCDBF1092E9008091E80083FF36
:1048500023C168E0CE0145960E94DE2182EF80935D
:10486000E8003D8937FF05C08091E80080FFFCCF5C
:1048700003C08EEF8093E800832F807609F0F0C0AC
:104880002E894F89D88C21110CC0303829F48091A1
:1048900074068093F10002C01092F1001092F100B2
:1048A000F4C0842F90E09D29213049F43111EDC0EE
:1048B000019709F0EAC0809174068D7F0AC0233009
:1048C00059F43111E2C0019709F0DFC080917406FC
:1048D000826080937406D9C0253041F48091E8004D
:1048E00080FFFCCF40684093E300CFC0263009F042
:1048F0008DC0EB8CFC8C22E0D2122CC080E090E0CA
:104900000E94B0230E94792299E08E010F5F1F4F11
:10491000F801292F11922A95E9F79983DA8291E01B
:104920009E8390EA98879AEF99872091710630913B
:104930007206275F3F4F3C832B838D83C7010E9404
:10494000B02349E050E0B80180E00E94BB230E9400
:1049500079229BC0C7010E94B0230E94A826BE01F5
:104960006B5E7F4F0E944A26009719F00CF08DC0B5
:1049700090C081E0D8120EC08B8D9C8D089719F4E1
:1049800081E080936E0680916E0681112FC061EBED
:1049900071E031C0E3E0DE127CC08F89882349F1E9
:1049A000823029F440E86DE08FEC91E01CC081304A
:1049B00029F440E86BE083EC91E015C0833009F006
:1049C00068C00E94A8268E010F5F1F4FB8010E9489
:1049D0006926F80101900020E9F73197E01BF10BFF
:1049E00040E06E2FC8010E9419224DC06FE971E0AE
:1049F00002C06DED71E06115710509F44AC0FB015B
:104A0000449150E080E80E94BB233FC0273009F466
:104A100040C0283021F481E08093F10036C0293075
:104A2000A1F53370B1F5E1E7F1E081E021E036E393
:104A30009081992361F08093E9002093EB0091919C
:104A40009093EC003093ED008F5F873089F78EE70D
:104A50008093EA001092EA008F898093750615C052
:104A60008B8D9C8D0E94B023898D811105C0CE0154
:104A700045960E94F71E07C00E94A826BE016B5EE5
:104A80007F4F0E948826882321F08EEF8093E800D4
:104A900003C081E28093EB006C960FB6F894DEBF02
:104AA0000FBECDBFDF91CF91FF91EF91BF91AF913D
:104AB0009F918F917F916F915F914F913F912F9136
:104AC0001F910F91FF90EF90DF900F900FBE0F900E
:104AD0001F9018958093E9008091F200882319F0C7
:104AE0008AE38093E80008951F920F920FB60F9209
:104AF00011242F933F934F935F936F937F938F93E3
:104B00009F93AF93BF93CF93EF93FF93C091E10037
:104B10008091E100837F8093E1008093E100C3FFF7
:104B20000FC01092E90081E08093EB001092EC003E
:104B300082E38093ED001092750688E08093F00088
:104B4000C2FF19C083E00E946A25809177068823FE
:104B500039F080917706815080937706882389F118
:104B600080917606882339F0809176068150809373
:104B70007606882341F1C4FF10C08091E2008E7E4A
:104B800081608093E2008091E1008F7E8093E1005C
:104B9000809173068E7E806111C0C0FF16C0809127
:104BA000E2008E7E80618093E2008091E1008E7E43
:104BB0008093E100809173068E7E816080937306FE
:104BC00004C05D98CDCF2898D6CFFF91EF91CF91BB
:104BD000BF91AF919F918F917F916F915F914F9115
:104BE0003F912F910F900FBE0F901F90189510922C
:104BF000750610927406109273060E945622E1EE1A
:104C0000F0E080818E7E80838DE08093E200559A73
:104C1000209A5D982898089508950E94331D0E9457
:104C20000C268DE696E00E94F7250E943A16C0E019
:104C3000D0E00E9403192097E1F30E940000F9CF11
:104C40000895EF92FF920F931F93CF93DF937B0111
:104C5000FC01C281D38100E010E0209781F0E8815F
:104C6000F9810280F381E02DB701CE01099597FD0E
:104C700008C0080F191F0884D985C02DEECFC801C0
:104C800002C08FEF9FEFDF91CF911F910F91FF90A7
:104C9000EF9008950F931F93CF93DF938B01FC0147
:104CA000C281D381209771F0E881F9810480F58178
:104CB000E02DB801CE010995009731F40884D9851B
:104CC000C02DF0CF80E090E0DF91CF911F910F9148
:104CD00008950F931F93CF93DF938B01FC01C28143
:104CE000D381209771F0E881F9810680F781E02D6A
:104CF000B801CE010995080F111D0884D985C02D72
:104D0000F0CFF8011082DF91CF911F910F9108959C
:104D10000F931F93CF93DF938B01FC01C281D3814B
:104D2000209771F0E881F9810190F081E02DB801C0
:104D3000CE010995811106C00884D985C02DF0CF18
:104D400080E001C081E0DF91CF911F910F91089524
:104D500080917C0681110DC082E08093780684E00A
:104D60008093790610927B0610927A0681E08093F8
:104D70007C0688E796E008955058BB27AA270ED0F6
:104D800075C166D130F06BD120F031F49F3F11F442
:104D90001EF45BC10EF4E095E7FB51C1E92F77D11A
:104DA00080F3BA17620773078407950718F071F448
:104DB0009EF58FC10EF4E0950B2EBA2FA02D0B019E
:104DC000B90190010C01CA01A0011124FF27591B50
:104DD00099F0593F50F4503E68F11A16F040A22F56
:104DE000232F342F4427585FF3CF469537952795C7
:104DF000A795F0405395C9F77EF41F16BA0B620BC6
:104E0000730B840BBAF09150A1F0FF0FBB1F661F0C
:104E1000771F881FC2F70EC0BA0F621F731F841F4F
:104E200048F4879577956795B795F7959E3F08F075
:104E3000B3CF9395880F08F09927EE0F9795879534
:104E40000895D9D008F481E008950CD00FC107D19E
:104E500040F0FED030F021F45F3F19F0F0C0511166
:104E600039C1F3C014D198F39923C9F35523B1F391
:104E7000951B550BBB27AA2762177307840738F0C9
:104E80009F5F5F4F220F331F441FAA1FA9F333D028
:104E90000E2E3AF0E0E830D091505040E695001CDC
:104EA000CAF729D0FE2F27D0660F771F881FBB1F98
:104EB000261737074807AB07B0E809F0BB0B802D72
:104EC000BF01FF2793585F4F2AF09E3F510568F0BE
:104ED000B6C000C15F3FECF3983EDCF38695779552
:104EE0006795B795F7959F5FC9F7880F911D9695C0
:104EF000879597F90895E1E0660F771F881FBB1F1C
:104F0000621773078407BA0720F0621B730B840BC8
:104F1000BA0BEE1F88F7E095089504D06894B1119C
:104F2000D9C00895BCD088F09F5790F0B92F992729
:104F3000B751A0F0D1F0660F771F881F991F1AF0A4
:104F4000BA95C9F712C0B13081F0C3D0B1E008956D
:104F5000C0C0672F782F8827B85F39F0B93FCCF3EE
:104F6000869577956795B395D9F73EF4909580959A
:104F7000709561957F4F8F4F9F4F0895E89409C0BA
:104F800097FB3EF490958095709561957F4F8F4F7C
:104F90009F4F9923A9F0F92F96E9BB279395F69592
:104FA000879577956795B795F111F8CFFAF4BB0F10
:104FB00011F460FF1BC06F5F7F4F8F4F9F4F16C074
:104FC000882311F096E911C0772321F09EE8872FFE
:104FD000762F05C0662371F096E8862F70E060E0BA
:104FE0002AF09A95660F771F881FDAF7880F969533
:104FF000879597F90895990F0008550FAA0BE0E8D7
:10500000FEEF16161706E807F907C0F0121613068A
:10501000E407F50798F0621B730B840B950B39F4CA
:105020000A2661F0232B242B252B21F408950A2630
:1050300009F4A140A6958FEF811D811D089597F970
:105040009F6780E870E060E008959FEF80EC08952E
:1050500000240A9416161706180609060895002457
:105060000A9412161306140605060895092E0394D1
:10507000000C11F4882352F0BB0F40F4BF2B11F445
:1050800060FF04C06F5F7F4F8F4F9F4F089557FDA4
:105090009058440F551F59F05F3F71F04795880FA6
:1050A00097FB991F61F09F3F79F08795089512163D
:1050B00013061406551FF2CF4695F1DF08C01616E9
:1050C00017061806991FF1CF86957105610508949A
:1050D0000895E894BB2766277727CB0197F90895B1
:1050E0008ADF08F48FEF08950BD0C0CFB1DF28F02E
:1050F000B6DF18F0952309F0A2CFA7CF1124EACF8D
:10510000C6DFA0F3959FD1F3950F50E0551F629F26
:10511000F001729FBB27F00DB11D639FAA27F00D10
:10512000B11DAA1F649F6627B00DA11D661F829F37
:105130002227B00DA11D621F739FB00DA11D621F1C
:10514000839FA00D611D221F749F3327A00D611D39
:10515000231F849F600D211D822F762F6A2F11241B
:105160009F5750408AF0E1F088234AF0EE0FFF1F6E
:10517000BB1F661F771F881F91505040A9F79E3FA5
:10518000510570F05CCFA6CF5F3FECF3983EDCF3A7
:10519000869577956795B795F795E7959F5FC1F7E2
:1051A000FE2B880F911D9695879597F9089523DF1B
:1051B000880B990B0895991B79E004C0991F9617E5
:1051C00008F0961B881F7A95C9F78095089597FB7C
:1051D000072E16F4009407D077FD09D00E944C29C1
:1051E00007FC05D03EF4909581959F4F08957095EA
:1051F00061957F4F0895A1E21A2EAA1BBB1BFD01EA
:105200000DC0AA1FBB1FEE1FFF1FA217B307E407A5
:10521000F50720F0A21BB30BE40BF50B661F771FFD
:10522000881F991F1A9469F76095709580959095DD
:105230009B01AC01BD01CF010895EE0FFF1F05904A
:10524000F491E02D0994A29FB001B39FC001A39FE8
:10525000700D811D1124911DB29F700D811D1124AF
:10526000911D08950E942329B7FF0895821B930B77
:1052700008950E942329A59F900DB49F900DA49F8F
:10528000800D911D11240895B7FF0C9439290E94B7
:105290003929821B930B0895AA1BBB1B51E107C040
:1052A000AA1FBB1FA617B70710F0A61BB70B881FB6
:1052B000991F5A95A9F780959095BC01CD01089545
:1052C000FC0188279927E89421912032E9F32930BD
:1052D00010F02E30C8F32B3241F02D3239F468949F
:1052E00004C00E949729820F911D219120532A30DA
:1052F000C0F31EF4909581959F4F0895803209F078
:10530000911133C080528F55E0F7089591112DC04F
:10531000803219F089508550D0F70895FB01DC01E7
:105320008D91019080190110D9F3990B08957AE0BD
:10533000979F902D879F802D910D11240895F999A5
:10534000FECF92BD81BDF89A992780B50895262F8A
:10535000F999FECF1FBA92BD81BD20BD0FB6F8945A
:10536000FA9AF99A0FBE0196089599278827089509
:04537000F894FFCFDF
:105374000197017A10960364109C039610CB03D80E
:10538400106C0373138C02390F89025D0F77039934
:105394000FA10390117403870F6F03F512A4036E1A
:1053A40012AB036611AE03750FB103BB0FB403F266
:1053B40011BB030E12C30326115E030711C9036058
:1053C40010D103E30FD703FF0FDB032A1200000001
:1053D40000FF0101FFFFFFFF00E1000000000000EB
:1053E40000C180810000007072696D617279007380
:1053F40065636F6E64617279007374617274696E4F
:1054040067200073746F7070696E67006B696C6CF1
:10541400696E67007374617274696E672074696D74
:10542400656F75740063757272656E74206E6F7249
:105434006D616C0063757272656E74206C6F7700B9
:1054440063757272656E742068696768006375724B
:1054540072656E7420737472657373656400686535
:10546400617274626561742074696D656F7574002E
:10547400756E6D616E6167656420737769746368C6
:105484000073746F702074696D656F75740068655E
:1054940061727462656174006C6F673A2000A1AD3B
:1054A400A1AD1F1C1F1E1F1E1F1F1E1F1E1F011527
:1054B40062686A636B00000102030507160B170498
:1054C40006080A0C0D0974656D7065726174757255
:1054D40065200068756D69646974792000687720B7
:1054E400006B6572200074696D6520006769742023
:1054F4000035353536006F6E0068620063750057FD
:1055040044524600424F52460045585452460050B9
:105514004F5246007365742073640073657420658C
:105524006D6D6300696E76616C6964206D65646994
:1055340061003F00696E76616C6964206D6F64651B
:10554400003C3C3C2D207369643D00696E76616CBF
:10555400696420636F6D6D616E64002D3E3E3E0094
:1055640030006E6300676E00637300783100783238
:10557400006261636B6F6666006261636B696E678C
:10558400206F6666206F662000706F737400637509
:105594007272656E742073656E736F72200020746E
:1055A4006F6F206D616E79206661756C7473002075
:1055B4006F7574206F662072616E67652E00746863
:1055C40065726D6973746F722000626F6F746C6FB3
:1055D4006700626F6F746474002021006964006462
:1055E40061746500746800656E76006661696C7349
:1055F40000656E61626C65640073642000656D6DA6
:105604006320003F200073746172740073746F70C0
:1056140000627300656564756D70006266006663A0
:1056240000757000656E61626C6500646973616227
:105634006C65007761746368006565726573657491
:1056440000626F6F74730076657200626C660000AE
:10565400000000AC197F1954195C196F197E1900E8
:105664000000008F1ED61EB91EC91EA51EB61E0D33
:0E5674000A006E616E00696E66006F76660059
:00000001FF
