:100000000C94F6000C941E010C941E010C941E011D
:100010000C941E010C941E010C941E010C941E01E4
:100020000C941E010C941E010C9453230C94E52196
:100030000C941E010C941E010C941E010C941E01C4
:100040000C941E010C941E010C941E010C941E01B4
:100050000C94350C0C941E010C941E010C949B1AEC
:100060000C941E010C941E010C941E010C941E0194
:100070000C941E010C941E010C941E010C941E0184
:100080000C941E010C941E010C941E010C941E0174
:100090000C946E190C941E010C941E010C941E01FC
:1000A0000C941E010C941E010C941E01DB1BDE1B24
:1000B000CD1BD11BD71BFF1BFF1BFF1BE21BE61B2E
:1000C000EA1BF01BF41BFF1BFA1B070605040100CB
:1000D000080A0B0C0D090000000200090F000003C4
:1000E0000401000C000000000000000000000000FF
:1000F0000000000000040802011040804010204071
:10010000804080080204018040201002011080100D
:1001100020404020040404040403040502020202F7
:100120000403020202020606060606060404020290
:10013000020404000000002300260029002C002FE8
:100140000000000000250028002B002E00310000D8
:10015000000000240027002A002D003000080B00BA
:10016000020202010009040000010202000005244D
:1001700000100105240101010424020605240600E3
:10018000010705810310004009040100020A000074
:10019000000705020240000007058302400000122C
:1001A000010002EF020140412337800001010203F8
:1001B00001120100020000004041233780000101CC
:1001C00002030141726475696E6F204C4C4300411B
:1001D000726475696E6F204D6963726F0004030964
:1001E0000400AF05330A890D84187F1D11241FBE3A
:1001F000CFEFDAE0DEBFCDBF13E0A0E0B1E0E4E294
:10020000FFE402C005900D92A43CB107D9F726E0A7
:10021000A4ECB3E001C01D92AE31B207E1F711E0EA
:10022000CCEED1E004C02297FE010E94FE26C23E21
:10023000D107C9F70E94EC230C9490270C9400007E
:10024000FC012285213039F4478D50A161A172A1B2
:1002500043960C940F0C80E008954B960C94FB0B86
:10026000CF93DF93EC018E81882311F08F8113C02F
:100270008B85882341F08A810E94B008837099277A
:10028000039741F405C08A810E94770880FF02C06D
:100290008D8101C08C81DF91CF9108951F93CF9301
:1002A000DF93EC018A810E941D0E8F3F2FEF920792
:1002B000C9F08837910548F08C3221E0920738F078
:1002C0008235934030F411E005C012E003C010E025
:1002D00001C013E08E85181729F0CE010F960E94F9
:1002E000EF0B1E87DF91CF911F9108950F931F93FE
:1002F000CF93DF931F92CDB7DEB78C01439669830E
:100300000E94EF0BC80147960E94EF0BC8014B9665
:100310000E94EF0BC8010F960E94EF0B6981F80154
:1003200062870F90DF91CF911F910F910895CF9326
:10033000DF93EC011E821F8282E08E871F8E18A23F
:1003400019A21AA28A810E945808882311F061E03C
:1003500001C060E0CE01DF91CF910C947601CF9384
:10036000DF93EC0161E08A810E944F0861E0CE01D9
:100370000E94760180E0DF91CF910895CF93DF93C3
:10038000EC018A8181110FC040E65AEE60E070E016
:10039000CE0143960E940F0C882329F0CE01DF91F5
:1003A000CF910C94AF01DF91CF9108952091590125
:1003B000222329F0BC0187EB95E00C94B21D08952F
:1003C000FF920F931F93CF93DF9300D000D0CDB750
:1003D000DEB78C01FC018285813009F068C0828122
:1003E0000E94B00821E04E9708F020E0F801238732
:1003F000C8010E943001F82EF8011682682F83810F
:100400000E94610DF801808191810E94010580E8C0
:1004100091E00E94D601F8018481F81203C08EE6B3
:1004200091E002C086E791E00E94D6010E941D057E
:10043000F80182810E94A508CE0101960E947D0DDF
:1004400049815A816B817C81F801228130E0C901A8
:10045000880F991F820F931F8B539C4F0E94ED09A9
:1004600062E0F80182810E94F1086AE070E080E0B9
:1004700090E00E94141B61E0F80182810E94230D2C
:1004800064EF71E080E090E00E94141B61E0F801ED
:1004900082810E94F1086AE070E080E090E00E94B2
:1004A000141B63E0C8010E94760180E001C081E076
:1004B0000F900F900F900F90DF91CF911F910F91A0
:1004C000FF900895CF93DF93EC018A85833081F408
:1004D000888199810E9401058AE891E00E94D601F5
:1004E0000E941D0564E0CE010E94760180E001C0FB
:1004F00081E0DF91CF910895CF93DF93EC018A855E
:10050000882371F1888199810E94010583E991E036
:100510000E94D6010E941D0563E08A810E94F108B5
:100520006AE070E080E090E00E94141B60E08A8145
:100530000E94230D64EF71E080E090E00E94141BA4
:1005400060E08A810E94F1086AE070E080E090E05B
:100550000E94141B61E0CE010E94760180E001C080
:1005600081E0DF91CF910895CF93DF93EC018A81F1
:10057000882319F060E00E944F08CE010E947C029F
:100580008A81882321F060E0CE010E94760180E01C
:10059000DF91CF910895CF93DF93EC0140EE53E9C3
:1005A00064E070E043960E940F0C882391F08881EC
:1005B00099810E9401058BE991E00E94D6010E9479
:1005C0001D058A810E94DE08CE01DF91CF910C9437
:1005D0007C02DF91CF9108950F931F93CF93DF9308
:1005E000EC018885882351F040EE53E964E070E027
:1005F000CE014B960E940F0C811111C08985882372
:1006000009F444C08E01015F1F4F40E157E260E0F2
:1006100070E0C8010E940F0C811115C037C088819D
:1006200099810E94010585EE91E00E94D6010E9409
:100630001D058A810E94DE08CE01DF91CF911F91B6
:100640000F910C946202888199810E9401058E8528
:10065000813069F484ED91E00E94D6010E941D056D
:10066000C801DF91CF911F910F910C94EF0B813056
:1006700018F48CEA91E0F0CF823019F48BEB91E022
:10068000EBCF833059F787EC91E0E6CFDF91CF9144
:100690001F910F9108950F931F93CF93DF93EC0158
:1006A0008C01095E1F4F40E157E260E070E0C80135
:1006B0000E940F0C882369F0C8010E94EF0B88810B
:1006C00099810E9401058AE891E00E94D6010E946A
:1006D0001D0540E65AEE60E070E0CE0143960E94B0
:1006E0000F0C882389F0888199810E94010587EF8A
:1006F00091E00E94D6010E941D05CE01DF91CF91AD
:100700001F910F910C947C02DF91CF911F910F915B
:100710000895FC012285223059F018F4222331F08B
:100720000895233039F0243039F008950C94BE0137
:100730000C94CB020C94EC020C944B03CF93DF93FC
:10074000EC014B960E94EF0B888199810E94010574
:1007500084E092E00E94D6010E941D058A858823CC
:1007600041F0833058F463E0CE01DF91CF910C94D7
:100770007601CE01DF91CF910C94B402DF91CF913D
:100780000895DC011296EC91F0E0EC52FC4F2081D0
:10079000283018F010820C949E030895CF93DF93B5
:1007A000EC010E94C103CE010E944E01CE01DF91F7
:1007B000CF910C9489030C949E03DC01ED91FC9184
:1007C0000190F081E02D0994089508950F931F93EF
:1007D000CB01A0E0B0E0BA2FA92F982F8827842B57
:1007E000E7E1F0E040E050E868E970E08C019D014D
:1007F0000E2E04C036952795179507950A94D2F7C3
:1008000000FF04C084279527A627B727769567950C
:10081000579547953197E730F10541F71F910F91B3
:100820000895EF92FF920F931F93CF93DF938C0164
:1008300060E470E08EEE94E00E94081865EF70E0CE
:100840008EEE94E00E94DD038EEE94E00E9481180B
:1008500067E370E080E090E00E94141B43E050E00A
:1008600060E470E08EEE94E00E947E18F12C8EEE33
:1008700094E00E945D170397BCF18EEE94E00E9415
:100880006517E82E8EEE94E00E946517F82E8EEE26
:1008900094E00E946517DE2D90E0C92FCF29482FE4
:1008A000BE01C8010E94E603811119C0BE016C7F20
:1008B00080E090E00E949D2520E030E040E857E392
:1008C0000E94532620E030E04AEF52E40E94532673
:1008D00020E030E040EC50E40E949B2413C060E034
:1008E00070EC89E794E40EC065E070E080E090E091
:1008F0000E94141BF39484E6F812B9CF60E070E80C
:1009000089E794E4DF91CF911F910F91FF90EF90D1
:100910000895EF92FF920F931F93CF93DF937C0183
:1009200060E470E08EEE94E00E94081863EF70E0DF
:100930008EEE94E00E94DD038EEE94E00E9481181A
:1009400067E370E080E090E00E94141B43E050E019
:1009500060E470E08EEE94E00E947E1805E610E000
:100960008EEE94E00E945D17039774F461E070E0EE
:1009700080E090E00E94141B0150110989F760E0AB
:1009800070E889E794E436C08EEE94E00E94651723
:10099000082F8EEE94E00E946517182F8EEE94E0DB
:1009A0000E946517D02F90E0C92FC12B482FBE01A0
:1009B000C7010E94E603811119C0BE016C7F80E06F
:1009C00090E00E949D2520E030E040E857E30E943F
:1009D000532622E538EB4FE253E40E94532626E6E5
:1009E00036E64BE352E40E949B2404C060E070ECC6
:1009F00089E794E4DF91CF911F910F91FF90EF90E1
:100A00000895CF93DF93EC0180915901882391F0F1
:100A10006EE072E087EB95E00E94B21DBE0187EBAD
:100A200095E00E94B21D60E287EB95E0DF91CF91E7
:100A30000C94B41DDF91CF910895809159018823C2
:100A400021F087EB95E00C94BB1D0895FC0161112A
:100A500003C0411107C004C0623061F44230C1F4E8
:100A600088E61DC0423011F489E619C04130C1F456
:100A70008AE615C06130A1F4411102C08CE60FC0B6
:100A8000423011F48DE60BC0413051F48EE607C0C0
:100A9000411102C08BE603C0413011F48FE6808320
:100AA00008950F931F93CF93DF93EC01142F1868D1
:100AB00020E2629FC0011124182B0AE068818EEEAB
:100AC00094E00E94FE17612F8EEE94E00E94B5170D
:100AD0008EEE94E00E948118882311F0015071F786
:100AE000DF91CF911F910F9108950F931F93CF9393
:100AF000DF938C0160E570E080E090E00E94141BC1
:100B0000F801608170E043E050E08EEE94E00E94D6
:100B10007E188EEE94E00E945D170397D4F38EEE5C
:100B200094E00E946517082F8EEE94E00E946517EE
:100B3000182F8EEE94E00E946517D02FF0E0CF2F93
:100B4000CE01812BDF91CF911F910F910895982FA6
:100B500092959F702AEF929F800D112408958EEE3A
:100B600094E00C94F4171F93CF93DF93EC016FE69E
:100B700070E08EEE94E00E94081860E08EEE94E043
:100B80000E94B51760E08EEE94E00E94B5172981AF
:100B90001AE0822F612F0E94BA26682F660F680F15
:100BA000660F620F8EEE94E00E94B5172A81822FA5
:100BB000612F0E94BA26682F660F680F660F620FBA
:100BC0008EEE94E00E94B5178B818860682F70E0EC
:100BD0008EEE94E00E94DD032C81822F612F0E9413
:100BE000BA26682F660F680F660F620F8EEE94E0CC
:100BF0000E94B5172D81822F612F0E94BA26682F7F
:100C0000660F680F660F620F8EEE94E00E94B517B4
:100C10002E812E51822F612F0E94BA26682F660FD7
:100C2000680F660F620F8EEE94E00E94B5178EEE8D
:100C300094E00E9481186FE670E08EEE94E00E94CE
:100C4000081860E08EEE94E00E94B5172881822F8C
:100C5000612F0E94BA26682F660F680F660F620F19
:100C6000606870E08EEE94E00E94DD038EEE94E00A
:100C7000DF91CF911F910C948118CF93DF93CDB763
:100C8000DEB727970FB6F894DEBF0FBECDBFAE011B
:100C90004F5F5F4F0E945D0ACE0101960E94B3052F
:100CA00027960FB6F894DEBF0FBECDBFDF91CF9170
:100CB0000895CF93DF93EC016FE670E08EEE94E041
:100CC0000E94081860E08EEE94E00E94B5178EEE48
:100CD00094E00E94811881113EC047E050E06FE629
:100CE00070E08EEE94E00E947E188EEE94E00E94FA
:100CF00065178F770E94A70588838EEE94E00E9487
:100D000065170E94A70589838EEE94E00E946517FF
:100D10008F7B0E94A7058A838EEE94E00E94651760
:100D2000877C8B838EEE94E00E9465170E94A70556
:100D30008C838EEE94E00E9465178F7D0E94A7053C
:100D40008D838EEE94E00E9465170E94A705825E57
:100D50008E8381E001C080E0DF91CF910895CF9331
:100D6000DF93CDB7DEB727970FB6F894DEBF0FBE7F
:100D7000CDBFCE0101960E945906882329F0CE01ED
:100D800001960E94340B03C060E070E0CB0127960F
:100D90000FB6F894DEBF0FBECDBFDF91CF9108959F
:100DA0000F931F93CF93DF938B0167E570E08EEE77
:100DB00094E00E94081860EF70E08EEE94E00E94CC
:100DC000DD038EEE94E00E94811848E050E067E574
:100DD00070E08EEE94E00E947E18E80118E08EEE3E
:100DE00094E00E94651789931150C9F7DF91CF9164
:100DF0001F910F9108950C947F270C947727CF9221
:100E0000DF92EF92FF920F931F93CF93DF9300D067
:100E1000CDB7DEB76C018B017C0184E0E80EF11CDC
:100E2000C60169837A830E947727F80181938F0135
:100E3000FFEFCF1ADF0A69817A81CE14DF0481F7D0
:100E4000CB010F900F90DF91CF911F910F91FF90E9
:100E5000EF90DF90CF9008950F931F93CF93DF9380
:100E60008C01EB010E9477278883C80101960E94BC
:100E700077278983CE01DF91CF911F910F9108953C
:100E8000EF92FF920F931F93CF93DF931F92CDB7F3
:100E9000DEB77C01FC0100811181C80169830E94D9
:100EA00077276981681719F0C8010E947F27C70159
:100EB0000F90DF91CF911F910F91FF90EF900895C8
:100EC000BF92CF92DF92EF92FF920F931F93CF9337
:100ED000DF9300D01F92CDB7DEB78C01B62EE62E81
:100EE000F72E6C0184E0C80ED11CF70161917F01DF
:100EF0001A830983CE0101967B830E9440070F5F0E
:100F00001F4F7B810C151D0581F78B2D972F0F909F
:100F10000F900F90DF91CF911F910F91FF90EF9065
:100F2000DF90CF90BF900895EF92FF920F931F93A1
:100F3000CF93DF9300D0CDB7DEB77C018B01FB01EF
:100F400060819A838983CE0101960E944007F8014F
:100F50006181FFEFEF1AFF0AFA82E982CE01019662
:100F60000E944007C8010F900F90DF91CF911F9111
:100F70000F91FF90EF900895EF92FF920F931F93C0
:100F8000CF93DF9300D0CDB7DEB77C018B01FB019F
:100F900060819A838983CE0101960E944007F801FF
:100FA0006181FFEFEF1AFF0AFA82E982CE01019612
:100FB0000E944007C8010F900F90DF91CF911F91C1
:100FC0000F91FF90EF900895CF93DF9300D000D062
:100FD000CDB7DEB7BE016F5F7F4F80E090E00E942B
:100FE000FF0681E049815A816B817C81413A5D4AEB
:100FF000614A7D4A09F080E00F900F900F900F90AA
:10100000DF91CF910895CF93DF9300D000D0CDB77B
:10101000DEB719821A821B821C82BE016F5F7F4F6E
:1010200080E090E00E9460070F900F900F900F906B
:10103000DF91CF910895BC0184E090E00C94940777
:10104000BC0186E090E00C949407BC0188E090E03D
:101050000C94FF06BC0188E090E00C946007CF93ED
:10106000DF9300D000D0CDB7DEB7CE0101960E944D
:10107000250889819A81AB81BC810196A11DB11D92
:1010800089839A83AB83BC83CE0101960E942A0890
:101090000F900F900F900F90DF91CF91089590E0F7
:1010A00002969695982F8827979587950C94FB061E
:1010B000CF93C82F0E94770D982F882381F0CC23DF
:1010C00071F08C2F90E002969695982F882797952F
:1010D00087950E94FD0691E0811101C090E0892F63
:1010E000CF910895BC018CE090E00C946007CF9301
:1010F000DF9300D0CDB7DEB720E8829FC001112476
:10110000BE016F5F7F4F895F9E4F0E942C078981D0
:101110009A810F900F90DF91CF910895CF93DF9335
:1011200000D0CDB7DEB77A83698320E8829FC00103
:101130001124BE016F5F7F4F895F9E4F0E94BC07E5
:101140000F900F90DF91CF910895CF93C82F0E94F9
:101150007708BC016F5F7F4F8C2FCF910C948E0866
:10116000CF93DF9300D0CDB7DEB720E8829FC001D8
:101170001124BE016F5F7F4F855F9E4F0E942C0739
:1011800089819A810F900F90DF91CF910895CF932D
:10119000DF9300D0CDB7DEB77A83698320E8829FE2
:1011A000C0011124BE016F5F7F4F855F9E4F0E947B
:1011B000BC070F900F90DF91CF910895CF93C82F68
:1011C0000E94B008BC016F5F7F4F8C2FCF910C94B1
:1011D000C70820E8829FC00111248A5D9E4F0C94AD
:1011E000FD0620E8829FC00111248A5D9E4F0C9469
:1011F000FB0620E8829FC00111248C5E9E4F0C9458
:10120000FD0620E8829FC00111248C5E9E4F0C9445
:10121000FB0620E8829FC0011124815F9E4F0C9441
:10122000FD0620E8829FC0011124815F9E4F0C942F
:10123000FB06FC01808191810C94FD06FC018081FC
:1012400091810C94FB06FC018081918101960C94A4
:10125000FD06FF920F931F93CF93DF9300D000D032
:101260001F92CDB7DEB78C016D830E941909F82E4D
:10127000C8010E9423096D816817E8F4F8012081F4
:1012800031812E5F3F4F862F90E08F0D911D62813F
:1012900070E00E94C626880F991F880F991FBE0113
:1012A0006F5F7F4F820F931F0E94FF0669817A81D3
:1012B0008B819C8103C060E070E0CB010F900F90A8
:1012C0000F900F900F90DF91CF911F910F91FF9092
:1012D0000895FC018081918101960C94FB06CF93C7
:1012E000DF93EC0160E00E941E0960E0CE01DF9117
:1012F000CF910C946909FF920F931F93CF93DF93C3
:1013000000D000D0CDB7DEB719821A821B821C82B2
:10131000CE0101960E942A0819821A821B821C8221
:10132000CE0101960E94720883E0898311E01A833E
:10133000CE0101960E941B0819831A82CE010196E4
:101340000E94200805EC13E0F12C60E070E08F2D86
:101350000E948E0860E070E08F2D0E94C70860E058
:101360008F2D0E94F10860E08F2D0E94010960E03E
:101370008F2D0E941109C8010E946F09F3940D5F1F
:101380001F4F85E0F812E1CF61E080E091E00E941C
:10139000FB0661E080E891E00E94FB0661E080E0EE
:1013A00092E00E94FB0660E080E892E00E94FB066B
:1013B00060E080E093E00E94FB0664E172E080E080
:1013C00090E00E9460070F900F900F900F90DF91B8
:1013D000CF911F910F91FF900895EF92FF920F937D
:1013E0001F93CF93DF9300D000D0CDB7DEB78C0131
:1013F00049835A836B837C830E941909E82EC801B4
:101400000E942309F82EF801208131812E5F3F4F81
:1014100090E08E0D911D628170E00E94C626880FBB
:10142000991F880F991FBE016F5F7F4F820F931F17
:101430000E946007F801828161E0F81205C06E0D1C
:10144000C8010E941E0904C06F0DC8010E946909ED
:101450000F900F900F900F90DF91CF911F910F91F0
:10146000FF90EF90089528E02093C70380E491E077
:101470009093C6038093C5032093CA0380EC91E048
:101480009093C9038093C8032093CD0380E492E036
:101490009093CC038093CB032093D00380EC92E015
:1014A0009093CF038093CE032093D30380E493E003
:1014B0009093D2038093D10308956F927F928F927D
:1014C0009F92AF92BF92CF92DF92EF92FF920F93D3
:1014D0001F93CF93DF93EA012CE3C22ED12CE12C92
:1014E000F12CA70196010E94DA266883CA01B9018E
:1014F000A70196010E94DA266983CA01B90128E191
:1015000030E040E050E00E94DA2649015A016A8347
:10151000CA01B9016C5F7F4F8F4F9F4F27E030E0CA
:1015200040E050E00E94DA266F5F6B8300E010E03D
:10153000980140E054E6652E712C60E9C62EDD244A
:10154000D394E42FF0E0EE54F84F7F0183E0E822DB
:10155000FF24E114F10489F4CF01B3010E94C626EF
:10156000892B29F08EE691E0A0E0B0E00AC0CF011F
:10157000B6010E94C626892BA9F38DE691E0A0E072
:10158000B0E0080F191F2A1F3B1FD901C801AA2765
:10159000BB2788169906AA06BB0610F04F5FD1CF6D
:1015A0004E83E114F10499F4CF0164E670E00E94E7
:1015B000C626892B29F08EE691E0A0E0B0E00BC0B2
:1015C000CF0160E971E00E94C626892BA1F38DE668
:1015D00091E0A0E0B0E0081B190B2A0B3B0B801A2E
:1015E000910AA20AB30ACF0164E670E00E94C626FF
:1015F0009C01CF0160E971E00E94C626E8E1F2E0BB
:10160000A0E0A13059F4E114F10451F421153105A1
:1016100011F04DE106C00097E1F302C0408101C026
:101620004CE150E060E070E084169506A606B7062F
:1016300040F0841A950AA60AB70AAF5F3196AC301B
:1016400001F7AF5FAD8383948C82DF91CF911F91BF
:101650000F91FF90EF90DF90CF90BF90AF909F9051
:101660008F907F906F9008956F927F928F929F924C
:10167000AF92BF92CF92DF92EF92FF920F931F93A0
:10168000CF93DF93FC01C680AC2DB0E020E833E3BC
:1016900041EE51E00E9411274B015C0122EB37E043
:1016A0006D01C4E6D0E000E911E0C901825B97401A
:1016B0008C159D05DCF4C90183709927892B99F459
:1016C000C901BE010E94C626892B31F4C901B801A7
:1016D0000E94C626892B39F480E8880E81E5981E81
:1016E00081E0A81EB11C2F5F3F4FDFCF6580712CBA
:1016F0008EE4C81A88EFD80AC60164E670E00E943A
:10170000C6268C01C60160E971E00E94C6267C01F4
:10171000C1E0D0E083E0C822DD24C615D7052CF552
:10172000C230D10589F4C114D10471F40115110539
:1017300019F4E114F10441F480E8880E8BE3981E5B
:1017400086E2A81EB11C0FC0DE01A95EBD4FAC91A0
:10175000B0E020E831E541E050E00E941127860E1C
:10176000971EA81EB91E2196D8CF4181228130E054
:10177000A0E1BEE00E9402276B017C01242F30E033
:10178000ACE3B0E00E940227C60ED71EE81EF91E89
:101790008081C80ED11CE11CF11CA481B0E011971E
:1017A00020E831E541E050E00E941C27C60ED71E1C
:1017B000E81EF91EC80CD91CEA1CFB1CC701B601A7
:1017C000DF91CF911F910F91FF90EF90DF90CF901D
:1017D000BF90AF909F908F907F906F900895CF9320
:1017E000DF93EC010E94E51A688379838A839B83E7
:1017F000DF91CF9108950F931F93CF93DF93EC0167
:101800000E94E51A088119812A813B81601B710BB6
:10181000820B930BDF91CF911F910F910895CF927F
:10182000DF92EF92FF920F931F93CF93DF93EC0120
:101830006A017B010E94E51A088119812A813B8196
:10184000601B710B820B930B21E0C616D706E806CE
:10185000F90608F020E0822FDF91CF911F910F91C0
:10186000FF90EF90DF90CF9008951F920F920FB6E8
:101870000F9211240F931F932F933F934F935F93D6
:101880006F937F938F939F93AF93BF93CF93DF9388
:10189000EF93FF9300E312E0C0E0D0E0F801819104
:1018A0008F010E946F1CFE01E752FC4F90818083E4
:1018B000981731F0FE01EC52FC4F80818F5F8083DE
:1018C0002196C530D10551F7FF91EF91DF91CF916E
:1018D000BF91AF919F918F917F916F915F914F9148
:1018E0003F912F911F910F910F900FBE0F901F905E
:1018F00018958530C8F4811103C082E10C94921BC5
:10190000E82FF0E0E55DFD4F40E060818EED93E073
:101910000E9451058EED93E00E94750525E0969595
:1019200087952A95E1F7089580E090E00895823048
:1019300038F4E82FF0E0E65CFD4F80810C94391C10
:101940000895823050F4E82FF0E0E65CFD4F80818E
:101950000E946F1C21E0019709F020E0822F08957A
:10196000CF93C82F0E94A10C61E068278C2FCF91E4
:101970000C94970CEF92FF920F931F93CF93DF93EA
:1019800061E08DE00E94001C61E089E00E94001C83
:1019900035E3E32E32E0F32E00E312E0C0E0D0E0C6
:1019A00061E0F70181917F010E94001C60E0F80175
:1019B00081918F010E94001CFE01EC52FC4F1082AD
:1019C0002196C530D10561F761E081E00E94001CDD
:1019D00061E085E10E94001C61E080E00E94001C43
:1019E0008EEE94E00E94F41768EC70E080E090E0E6
:1019F0000E94141B41E061E08EED93E00E942605F9
:101A000068EC70E080E090E00E94141B8FED93E0A2
:101A10000E94E50368EC70E080E090E00E94141BF7
:101A2000F894109280001092810081E080936F0002
:101A300083E0809381007894DF91CF911F910F9183
:101A4000FF90EF900895CF93C62F853080F58111D8
:101A500020C060E00E94391C62E370E080E090E00A
:101A60000E94141B6C2F84E00E94391C62E370E01A
:101A700080E090E00E94141B61E080E00E94391C2D
:101A800062E370E080E090E00E94141B60E080E080
:101A900005C0E82FF0E0EB5CFD4F80810E94391C0F
:101AA00062E370E080E090E0CF910C94141BCF9142
:101AB00008958FED93E00C9411048FED93E00C9456
:101AC0008904823098F4662319F0613039F0089562
:101AD000E82FF0E0EC5DFD4F60E005C0E82FF0E09E
:101AE000EC5DFD4F61E080810C94391C089591E01C
:101AF000853008F090E0892F0895CF93DF93EC01B3
:101B00000E94AF06688379838A839B83DF91CF919C
:101B100008958FED93E00C94E403CF92DF92EF925F
:101B2000FF920F931F93CF93DF93D82E5AE0F52E99
:101B3000082F10E06D2D8EEE94E00E94FE1765E0F8
:101B400070E080E090E00E94141BE091EE04F091C0
:101B5000EF040190F081E02D60E08EEE94E00995B5
:101B600065E070E080E090E00E94141B60E08EEE83
:101B700094E00E940A18811126C065E070E080E0C0
:101B800090E00E94141B43E050E0B8018EEE94E018
:101B90000E947E188330B9F465E070E080E090E048
:101BA0000E94141BE12C8EEE94E00E945D170397B7
:101BB00084F465E070E080E090E00E94141BE39400
:101BC00084E6E812F0CFFA9409F0B4CFCFEFDFEF5C
:101BD00027C08EEE94E00E9465178EEE94E00E947E
:101BE0006517E82E8EEE94E00E946517C82E61E01E
:101BF0008EEE94E00E940A188111E5CF65E070E056
:101C000080E090E00E94141BE0FAEE24E0F8DE2D64
:101C100080E0C82FCC2944E0CC0FDD1F4A95E1F7C6
:101C2000CE01DF91CF911F910F91FF90EF90DF9048
:101C3000CF90089580E60C948D0D853038F4E82F10
:101C4000F0E0EA5DFD4F80810C948D0D80E090E026
:101C5000089581E08093EC0480E00895EF92FF9274
:101C60000F931F93CF93DF93CDB7DEB728970FB6AF
:101C7000F894DEBF0FBECDBFBE016F5F7F4F84EC17
:101C800093E00E94D0068E010F5F1F4F7E0189E016
:101C9000E80EF11CF80161918F016F7070E040E176
:101CA00050E087EB95E00E94741E40E150E060E058
:101CB00070E087EB95E00E94741E0E151F0551F72A
:101CC00087EB95E00E94BB1D80E028960FB6F89444
:101CD000DEBF0FBECDBFDF91CF911F910F91FF905F
:101CE000EF900895CF930E941A0E4AE050E0BC0195
:101CF00087EB95E00E94901EC0E060E287EB95E0E4
:101D00000E94B41D8C2F0E941D0EBC014AE050E0C1
:101D100087EB95E00E94901ECF5FC53071F787EB8F
:101D200095E00E94BB1D80E0CF910895CF93DF9393
:101D3000CDE3D4E0CE010E942D01AB01BC012AE02D
:101D400030E087EB95E00E94AC1EA39684E0CC3E89
:101D5000D80781F780E0DF91CF910895CF93C0E05D
:101D60008C2F0E94B008BC014AE050E087EB95E060
:101D70000E94961ECF5FC53099F780E0CF910895FD
:101D8000CF93C0E08C2F0E94790CBC014AE050E058
:101D900087EB95E00E94961ECF5FC53099F780E0F3
:101DA000CF9108956CE372E087EB95E00E94B21D3D
:101DB0000E945D0DAB01BC0122E030E087EB95E0B5
:101DC0000E94AB1F69E472E087EB95E00E94B21DB0
:101DD0000E94590DAB01BC0122E030E087EB95E099
:101DE0000E94AB1F80E00895CF93DF9300D000D016
:101DF000CDB7DEB7CE0101960E947D0D49815A8193
:101E00006B817C818091E0039091E103A091E203DA
:101E1000B091E303481B590B6A0B7B0B2AE030E0BF
:101E200087EB95E00E94AC1E80E00F900F900F9022
:101E30000F90DF91CF9108950E94030880E00895EC
:101E4000CF93823081F4FB01828193810E943827F5
:101E5000C82F0E94770D882321F0C093580180E09D
:101E600003C083E001C082E0CF910895CF93823018
:101E7000B1F4FB01828193810E943827C82F0E9410
:101E8000770D882351F0F3E2CF9FC0011124835CCA
:101E90009B4F0E94DB0380E003C083E001C082E02F
:101EA000CF910895CF938230B1F4FB018281938169
:101EB0000E943827C82F0E94770D882351F0F3E243
:101EC000CF9FC0011124835C9B4F0E94620280E07F
:101ED00003C083E001C082E0CF910895CF938230A8
:101EE000B1F4FB01828193810E943827C82F0E94A0
:101EF000770D882351F0F3E2CF9FC0011124835C5A
:101F00009B4F0E947C0280E003C083E001C082E01E
:101F1000CF9108950F931F93CF93DF93CDB7DEB783
:101F200027970FB6F894DEBF0FBECDBF8B0181306F
:101F300079F1873009F07CC0FB01828193810E9496
:101F40003827825B8F83F801848195810E9438272E
:101F50008E83F801868197810E9438278D83F8014E
:101F6000808591850E9438278B83F801828593852F
:101F70000E9438278A83F801848595850E94382736
:101F80008983CE0101960E94340B0E943D064EC00B
:101F9000CE0101960E9459066F8170E06E54784F11
:101FA0004AE050E087EB95E00E94741E60E287EB08
:101FB00095E00E94B41D4AE050E06E8187EB95E009
:101FC0000E94891E60E287EB95E00E94B41D4AE002
:101FD00050E06D8187EB95E00E94891E60E287EBFF
:101FE00095E00E94B41D4AE050E06B8187EB95E0DC
:101FF0000E94891E60E287EB95E00E94B41D4AE0D2
:1020000050E06A8187EB95E00E94891E60E287EBD1
:1020100095E00E94B41D4AE050E0698187EB95E0AD
:102020000E94891E87EB95E00E94BB1D80E001C0E5
:1020300082E027960FB6F894DEBF0FBECDBFDF91CA
:10204000CF911F910F910895CF93DF938230B9F410
:10205000FB01C281D38163E572E0CE010E94662755
:10206000892B21F481E08093590109C063EC72E06F
:10207000CE010E946627892B11F41092590180E04D
:10208000DF91CF9108950F931F93CF93DF93EB01CF
:10209000843099F58A819B810E943827182F0E94ED
:1020A000770D882351F16CE072E08E819F810E9450
:1020B000662701E0892B09F000E00C80DD81C02D4E
:1020C00066E572E0CE010E946627892B41F483E227
:1020D000189FF0011124E35CFB4F00870EC069E5F7
:1020E00072E0CE010E946627892B39F083E2189FA7
:1020F000F0011124E35CFB4F018780E0DF91CF9179
:102100001F910F9108958091ED0483FF06C06CE547
:1021100072E087EB95E00E94BF1D8091ED0482FF85
:1021200006C061E672E087EB95E00E94BF1D8091DA
:10213000ED0481FF06C066E672E087EB95E00E9441
:10214000BF1D8091ED0480FF06C06CE672E087EB56
:1021500095E00E94BF1D80E008950F931F93CF93D9
:10216000DF93082FEB018EEF800F823008F051C013
:102170008A819B810E943827182F0E94770D88231F
:1021800009F445C0033061F50C80DD81C02D65E7A1
:1021900072E0CE010E946627892B61F423E2129F30
:1021A000F0011124E35CFB4F81E08683178261E735
:1021B00072E027C06CE772E0CE010E946627892B8F
:1021C00061F483E2189FF0011124E35CFB4F81E08E
:1021D0008683878368E772E014C061E872E011C00B
:1021E00023E2129FC0011124835C9B4F0E943001A7
:1021F000811103C065E772E004C0813071F76CE7BC
:1022000072E087EB95E00E94BF1D80E003C083E091
:1022100001C082E0DF91CF911F910F910895CF937C
:102220008230B1F4FB01828193810E943827C82F4C
:102230000E94770D882351F0F3E2CF9FC001112453
:10224000835C9B4F0E94AF0180E003C083E001C02C
:1022500082E0CF910895CF938230B1F4FB01828167
:1022600093810E943827C82F0E94770D882351F050
:10227000F3E2CF9FC0011124835C9B4F0E94B40204
:1022800080E003C083E001C082E0CF9108951F93F6
:10229000CF93DF93C0E0D0E0CE010E947727182FC4
:1022A000682F62956F7070E040E150E087EB95E039
:1022B0000E94741E1F70612F70E040E150E087EBB8
:1022C00095E00E94741E60E287EB95E00E94B41DC9
:1022D000CE0183709927039729F460E287EB95E09C
:1022E0000E94B41DCE018F7199274F9721F487EB7F
:1022F00095E00E94BB1D2196C11584E0D80761F6C8
:1023000080E0DF91CF911F910895CF92DF92EF92FD
:10231000FF920F931F93CF93DF937C01C62E8A0108
:10232000D12CF4E0DF9EE0011124C050DF4F888102
:102330009981009769F0F801608171810E94662798
:10234000892B21F40A80DB81C02D04C0D394E9CF0E
:10235000C0E0D0E06FE872E087EB95E00E94B21D2C
:10236000B70187EB95E00E94B21D60E287EB95E034
:102370000E94B41DF8016081718187EB95E00E9495
:10238000BF1D209729F0B8018C2DFE01099506C0CC
:1023900069E972E087EB95E00E94BF1D69EA72E08F
:1023A00087EB95E0DF91CF911F910F91FF90EF9018
:1023B000DF90CF900C94BF1DBF92CF92DF92EF922F
:1023C000FF920F931F93CF93DF93CDB7DEB7609744
:1023D0000FB6F894DEBF0FBECDBFB12C85EE93E0F3
:1023E0007C0187012FEFE21AF20AF801C080DD2498
:1023F000C7FCD094C6010E945E27892B91F7C601C5
:102400000E945627892BD1F0DD24D394DB0CFE01EA
:102410003196EB0DF11DEB0DF11D11830083780159
:102420008701FFEFEF1AFF0AF8018081992787FDE6
:1024300090950E945627892B99F7BD2CF801808131
:10244000882399F0C80101961082F7E0FB1540F649
:1024500089819A81FC012081203451F46FEF6B0D4A
:10246000AE014D5F5F4F019609C0BB2049F0F0CF30
:10247000AE014F5F5F4F6B2D8EEA92E00E94851197
:1024800060960FB6F894DEBF0FBECDBFDF91CF913F
:102490001F910F91FF90EF90DF90CF90BF90089524
:1024A0001F93CF93DF9380EB92E090933E04809351
:1024B0003D0410923F04109240041092410421E028
:1024C00020934204209345042093460483EB92E03A
:1024D00090936104809360042093620420936304CA
:1024E0001092640420936504209368042093690487
:1024F00086EB92E0909384048093830482E080933F
:102500008504109287042093880410928B04109203
:102510008C0489EB92E09093A7048093A60483E057
:102520008093A8041092AE041092AF048CEB92E05A
:102530009093CA048093C90484E08093CB041092E2
:10254000D1041092D204CDE3D4E0CE010E949701D1
:10255000A39684E0CC3ED807C1F7CDE3D4E010E0E9
:10256000812F0E94E9088250823078F460E0812F48
:102570000E94F1088091ED04857021F0CE010E9447
:10258000B40203C0CE010E947C021F5FA3961530E7
:1025900039F7DF91CF911F9108958F929F92AF925B
:1025A000BF92CF92DF92EF92FF920F931F93CF9340
:1025B000DF93EC01062F0E942309081720F0CE01BB
:1025C0000E942309082F11E0C12CD12C760110178D
:1025D000A8F4612FCE010E9429094B015C016FEF25
:1025E000610FCE010E942909861A970AA80AB90A22
:1025F000C80CD91CEA1CFB1C1F5FE9CF202F30E060
:1026000040E050E0C701B6010E94DA26CA01B901D4
:10261000DF91CF911F910F91FF90EF90DF90CF90BE
:10262000BF90AF909F908F90089529E288E190E04D
:102630000FB6F894A895809360000FBE20936000B9
:10264000A895C0E0C530F0F461E080E00E94970CEE
:1026500061E081E00E94970C60E570E080E090E02E
:102660000E94141B60E080E00E94970C60E081E013
:102670000E94970C60E570E080E090E00E94141BDF
:10268000CF5FE0CF61E080E00E94970C61E081E0E5
:102690000E94970C68EC70E080E090E00E94141BB0
:1026A00060E080E00E94970C60E081E00E94970C5F
:1026B00068EC70E080E090E00E94141BC0E0C4CFA2
:1026C00090915901992339F04AE050E0682F87EB47
:1026D00095E00C94891E08950F931F93CF93DF9379
:1026E00010E0812F0E94F908853070F087ED92E0AC
:1026F0000E9401058CED92E00E94D601812F0E947C
:1027000060138CEE92E039C003E0812F0E94F9083B
:1027100061E0680F812F0E94010964E170E080E0B0
:1027200090E00E94141B812F0E941D0EEC0162E3B9
:1027300070E080E090E00E94141B812F0E94F90855
:102740006FEF680F812F0E94010964E170E080E063
:1027500090E00E94141BC938D34198F00150A9F6AB
:1027600087ED92E00E9401058CED92E00E94D60177
:10277000812F0E9460138DEF92E00E94D6010E948B
:102780001D051F5F153009F0ACCFDF91CF911F9170
:102790000F9108950F931F93CF93DF9310E0812F34
:1027A0000E940909853070F087ED92E00E940105D2
:1027B0008CE093E00E94D601812F0E9460138CEE82
:1027C00092E039C003E0812F0E94090961E0680F9F
:1027D000812F0E94110964E170E080E090E00E9486
:1027E000141B812F0E94790CEC0162E370E080E001
:1027F00090E00E94141B812F0E9409096FEF680F5F
:10280000812F0E94110964E170E080E090E00E9455
:10281000141BC131D74298F00150A9F687ED92E020
:102820000E9401058CE093E00E94D601812F0E9456
:1028300060138DEF92E00E94D6010E941D051F5F7C
:10284000153009F0ACCFDF91CF911F910F91089512
:102850000E946C130C94CA13CF9384B78093ED0439
:1028600014BE29E288E190E00FB6F894A895809311
:1028700060000FBE20936000A89540E051EE60E03C
:1028800070E087EB95E00E94791DC8E061E080E090
:102890000E94970C64E670E080E090E00E94141BB8
:1028A00061E081E00E94970C64E670E080E090E0D7
:1028B0000E94141B60E080E00E94970C64E670E0C8
:1028C00080E090E00E94141B60E081E00E94970C81
:1028D00064E670E080E090E00E94141BC150B1F605
:1028E000A8950E94BA0CA8950E94E407882389F055
:1028F00080EE93E00E947D0D80EE93E00E947208CE
:102900000E942F088091ED04857089F10E9428149F
:102910002EC00E947B09C0E161E080E00E94970C1C
:1029200064E170E080E090E00E94141B61E081E0CF
:102930000E94970C64E170E080E090E00E94141B1C
:1029400060E080E00E94970C64E170E080E090E03D
:102950000E94141B60E081E00E94970C64E170E02B
:1029600080E090E00E94141BC150B1F6C1CF0E94DC
:102970005012109258011092EC041092E40389E373
:1029800094E00E94EF0B85E394E0CF910C94EF0B61
:10299000AB01BC0180915901882331F02AE030E07D
:1029A00087EB95E00C947C1E0895CF92DF92EF9216
:1029B000FF921F93CF93DF93EC0188E193E00E9495
:1029C000010510E0CE010E942309181760F482E18E
:1029D00092E00E94D601612FCE010E9429090E9437
:1029E000C8141F5FEFCF0E941D05CE010E9423096E
:1029F000823008F445C080E293E00E94010511E0B6
:102A0000E12EF12CCE010E942309853028F4CE015D
:102A10000E94230990E002C084E090E0E816F906E5
:102A2000CCF4612FCE010E9429096B017C016FEF6C
:102A3000610FCE010E942909C61AD70AE80AF90ACD
:102A400082E192E00E94D601C701B6010E94C8143B
:102A50001F5FD6CF63E0CE010E94CD12683C7105A6
:102A60008105910520F487E293E00E94D601DF9171
:102A7000CF911F91FF90EF90DF90CF900C941D05A8
:102A8000DF91CF911F91FF90EF90DF90CF9008954D
:102A90000F931F93CF93DF93809158010E94770D7E
:102AA000882391F089E394E00E94EF0B8091580114
:102AB00023E2829FC0011124835C9B4F0E94E001AE
:102AC0008FEF809358012DC040E355E760E070E040
:102AD00089E394E00E940F0C882319F10DE314E0C0
:102AE000C0E0D0E0C8010E9420018823A1F089E362
:102AF00094E00E94EF0BC8010E94E001CE01880F14
:102B0000991F8C0F9D1F8B539C4FDF91CF911F916D
:102B10000F910C94D51421960D5D1F4FC530D10532
:102B200009F7DF91CF911F910F91089520915901DD
:102B3000222339F040E150E0BC0187EB95E00C9492
:102B4000741E089590915901992329F0682F87EBFD
:102B500095E00C94B41D089520915901222339F079
:102B60004AE050E0BC0187EB95E00C94901E08957C
:102B7000AB01BC0180915901882331F022E030E0A3
:102B800087EB95E00C94A91F0895EF92FF920F93A5
:102B90001F93CF93DF93CDB7DEB72F970FB6F8947F
:102BA000DEBF0FBECDBFBE016F5F7F4F84EC93E0F1
:102BB0000E94D0068AE293E00E9401058E010F5F19
:102BC0001F4F7E0189E0E80EF11CF80181918F0111
:102BD0008F7090E00E94961580E090E00E9496151C
:102BE0000E151F0591F70E941D0562E370E080E05D
:102BF00090E00E94141BC8010E9459068DE293E0E8
:102C00000E9401056F8580915901882349F070E089
:102C10006E54784F4AE050E087EB95E00E94741EB6
:102C200080E20E94A2158E850E94601380E20E94BD
:102C3000A2158D850E94601380E20E94A2158B85EB
:102C40000E94601380E20E94A2158A850E94601390
:102C500080E20E94A21589850E9460130E941D05D2
:102C600062E370E080E090E00E94141B89E592E04E
:102C70000E9401050E941A0E0E94AC1510E080E22D
:102C80000E94A215812F0E941D0E0E94AC151F5F8D
:102C90001530A9F70E941D0562E370E080E090E026
:102CA0000E94141B82E393E00E94010510E0812F33
:102CB0000E94790C0E94AC1580E20E94A2151F5F51
:102CC0001530A9F70E941D0562E370E080E090E0F6
:102CD0000E94141B85E393E00E9401050E945D0D94
:102CE0000E94B81580E20E94A2150E94590D0E9410
:102CF000B8150E941D0562E370E080E090E00E943C
:102D0000141B89E393E00E94010510E0812F0E94CB
:102D1000B0080E94AC1580E20E94A2151F5F15301A
:102D2000A9F70E941D0562E370E080E090E00E9438
:102D3000141B8FE393E00E94010510E0812F0E9495
:102D4000580890915901992341F0682F70E04AE0AA
:102D500050E087EB95E00E94741E80E20E94A2156D
:102D60001F5F153059F70E941D0562E370E080E097
:102D700090E00E94141B89E892E00E9401050DE397
:102D800014E0C8010E943001811103C087E493E080
:102D900007C0813019F48BE493E002C081E593E031
:102DA0000E94D6010D5D1F4FF4E003381F0749F75D
:102DB0000E941D052F960FB6F894DEBF0FBECDBF43
:102DC000DF91CF911F910F91FF90EF900895CF93D6
:102DD000C0E087EB95E00E94C21C181619069CF50E
:102DE000C03F88F587EB95E00E94D21CE091E40398
:102DF00091E09E0F9093E403F0E0EB51FC4F808351
:102E0000CF5F903560F01092E40387EB95E00E946D
:102E1000C21C18161906ECF6C03F69F4DACF8A30E6
:102E2000C1F6E92FF0E0EB51FC4F10821092E40361
:102E30000E94DC11CECF87EB95E00E94D21C0A974E
:102E400041F2CF5FE2CFCF910895CF93DF9329E294
:102E500088E190E00FB6F894A895809360000FBECB
:102E600020936000A8950E944815CDE3D4E0CE01E0
:102E70000E94CE03A39684E0CC3ED807C1F7A89564
:102E80000E94E71640E355E760E070E085E394E0D8
:102E90000E940F0C882339F085E394E00E94EF0B29
:102EA000A8950E94C5158091EC0481110E9415130C
:102EB00080E0DF91CF910C94B00C80911E0590E0E2
:102EC00020911F05821B9109089520911F05809173
:102ED0001E05281750F4E22FF0E0E05EFA4F8081E3
:102EE00090E02F5F20931F0508958FEF9FEF0895C7
:102EF000E0911F0580911E05E81730F4F0E0E05ED8
:102F0000FA4F808190E008958FEF9FEF0895089524
:102F1000CF92DF92EF92FF920F931F93CF93DF93A5
:102F20007C01CB018A012091FA04222389F0EB0174
:102F30006B01C40ED51ECC15DD0569F06991D70172
:102F4000ED91FC910190F081E02DC7010995F3CF3F
:102F5000642F0E944519C801DF91CF911F910F91F5
:102F6000FF90EF90DF90CF900895CF93DF931F9263
:102F7000CDB7DEB769832091FA042223D1F02091E6
:102F8000FB04203240F021E030E0FC013383228357
:102F900080E090E015C08091FC04E82FF0E0E35061
:102FA000FB4F998190838F5F8093FC048093FB0497
:102FB00005C061E0CE0101960E94451981E090E0D4
:102FC0000F90DF91CF910895FC011382128248EE99
:102FD00053E060E070E0448355836683778389E93A
:102FE00093E091838083089510921F0510921E052F
:102FF0001092FC041092FB040C94881881E08093DA
:10300000FA0460931D051092FC041092FB040895CD
:103010000C94FE170F93062F21E04091FB046DEFF7
:1030200074E080911D050E94EE181092FC0410922D
:10303000FB041092FA040F9108958F929F92AF9221
:10304000BF92CF92DF92EF92FF920F931F93CF9395
:10305000DF93EC01F62ED42E48015901EE2019F130
:103060000E94FE171E2D143008F013E01150B8F026
:10307000E881F98128E0129FB0011124A501940193
:1030800004C056954795379527956A95D2F7CA019A
:10309000B9010190F081E02DCE010995E7CF60E004
:1030A000CE010E940A184D2D413208F040E22C2D2D
:1030B00060E275E08F2D0E94A61810921F05809384
:1030C0001E05DF91CF911F910F91FF90EF90DF9040
:1030D000CF90BF90AF909F908F900895CF92EF9236
:1030E0000F931F93C22EE12C00E010E098010E9484
:1030F0001D181F910F91EF90CF90089521E00C942F
:103100006E1861E00C940A188EEE94E00C94E417AB
:103110001092AD0581E08093AB051092AA0561E0A5
:1031200082E00E94391C61E083E00E94391CE9EBD7
:10313000F0E080818E7F808380818D7F808388E432
:103140008093B80085E48093BC000895413208F074
:1031500043C09091AD059111FCCF91E09093AD05E6
:103160002093AB052FEF2093400510928505240F87
:10317000209384059093AC059091AC05880F892B22
:103180008093AC058091AA05813061F41092AA0564
:103190008091AC058093BB008091BC0083FDF8CF8B
:1031A00085EC01C085EE8093BC008091AD05813037
:1031B000E1F380918505841710F44091850526E898
:1031C00035E0FB01D9018A2F821B841718F48D91F9
:1031D0008193F9CF842F089580E008950F934132B1
:1031E00008F04AC09091AD059111FCCF92E0909308
:1031F000AD050093AB059FEF9093400510928505B8
:1032000040938405FB0166E875E0DB019A2F961B6D
:10321000941718F491919D93F9CF1092AC05909169
:10322000AC05880F892B8093AC058091AA0581306D
:1032300061F41092AA058091AC058093BB00809147
:10324000BC0083FDF8CF85EC01C085EE8093BC0007
:10325000222321F08091AD058230E1F38091400579
:103260008F3F61F080914005803251F080914005A0
:10327000803341F483E007C081E005C080E003C0F3
:1032800082E001C084E00F910895613298F42091AA
:10329000AD05243089F460936205FC0184E695E075
:1032A000DC012A2F281B261718F421912D93F9CF22
:1032B00080E0089581E0089582E0089585ED80938F
:1032C000BC008091BC0084FDFCCF1092AD05089538
:1032D00085EC8093BC001092AD0508951F920F926B
:1032E0000FB60F9211242F933F934F935F936F93D9
:1032F0007F938F939F93AF93BF93EF93FF938091AF
:10330000B900887F803609F49EC078F5883209F4C8
:103310005DC090F4803109F456C038F4882309F474
:10332000F5C0883009F44FC0F5C0883109F44EC0AB
:10333000803209F45FC0EEC0803409F46AC058F4EA
:10334000803309F457C0883309F0E4C08093400506
:103350000E946819DFC0803509F44FC0883509F430
:103360005DC0883409F0D6C0D3C0883909F4C4C020
:10337000A8F4883709F467C038F4883609F463C0C4
:10338000803709F460C0C6C0883809F4B5C08039F8
:1033900009F45FC0803809F0BDC05BC0803B09F410
:1033A00083C038F4803A09F466C0883A09F47CC0D6
:1033B000B1C0803C09F4A4C0883C09F4A1C0883B9A
:1033C00009F487C0A7C08091AC0510C09091850515
:1033D00080918405981770F5E091850581E08E0F46
:1033E00080938505F0E0EA57FA4F80818093BB0017
:1033F00085EC83C0809340058BC0E091850581E01A
:103400008E0F809385058091BB00F0E0EA57FA4F5C
:10341000808390918505809184056BC0E09185053E
:1034200081E08E0F809385058091BB00F0E0EA5724
:10343000FA4F80838091AB0581116AC081E080934F
:10344000AA0584EA5EC083E08093AD051092410531
:10345000CFCF80914105803208F04EC0E091410508
:1034600081E08E0F809341058091BB00F0E0EE5B20
:10347000FA4F8083BDCF0E94681980914105803248
:1034800030F4E0914105F0E0EE5BFA4F108260917C
:10349000410570E0E091A605F091A70582E495E072
:1034A00009951092410536C084E08093AD051092D5
:1034B000630510926205E091A805F091A9050995B0
:1034C00080916205811105C081E0809362051092B0
:1034D0006405E091630581E08E0F80936305F0E061
:1034E000EC59FA4F80818093BB00909163058091E5
:1034F0006205981708F47CCF85E88093BC000AC069
:1035000085EC8093BC001092AD0504C0109240057C
:103510000E945E19FF91EF91BF91AF919F918F91A2
:103520007F916F915F914F913F912F910F900FBEBF
:103530000F901F9018951F920F920FB60F921124A3
:103540002F933F938F939F93AF93BF938091AF053A
:103550009091B005A091B105B091B2053091AE0542
:1035600023E0230F2D3720F40196A11DB11D05C0C6
:1035700026E8230F0296A11DB11D2093AE0580936E
:10358000AF059093B005A093B105B093B2058091BB
:10359000B3059091B405A091B505B091B60501961B
:1035A000A11DB11D8093B3059093B405A093B505FB
:1035B000B093B605BF91AF919F918F913F912F919D
:1035C0000F900FBE0F901F9018952FB7F894609131
:1035D000AF057091B0058091B1059091B2052FBFF4
:1035E00008953FB7F8948091B3059091B405A091E8
:1035F000B505B091B60526B5A89B05C02F3F19F0BB
:103600000196A11DB11D3FBF6627782F892F9A2FE4
:10361000620F711D811D911D42E0660F771F881F8B
:10362000991F4A95D1F70895CF92DF92EF92FF92BA
:10363000CF93DF936B017C010E94F11AEB01C1145F
:10364000D104E104F10489F00E94FF230E94F11AE1
:103650006C1B7D0B683E734090F381E0C81AD10863
:10366000E108F108C851DC4FEACFDF91CF91FF901C
:10367000EF90DF90CF900895789484B5826084BDF8
:1036800084B5816084BD85B5826085BD85B5816066
:1036900085BDEEE6F0E0808181608083E1E8F0E0C6
:1036A0001082808182608083808181608083E0E8F5
:1036B000F0E0808181608083E1E9F0E080818260D8
:1036C0008083808181608083E0E9F0E08081816097
:1036D0008083E1ECF0E0808184608083808182607F
:1036E0008083808181608083E3ECF0E08081816071
:1036F0008083E0ECF0E0808182608083E2ECF0E0A7
:10370000808181608083EAE7F0E08081846080834B
:1037100080818260808380818160808380818068F5
:1037200080830895823108F08251E82FF0E0E6535B
:10373000FF4FE49180917B00E3FB222720F930E0EA
:1037400095E0220F331F9A95E1F78F7D822B8093AE
:103750007B00E77080915A0120E4829FC001112410
:10376000E82BE0937C0080917A00806480937A005B
:1037700080917A0086FDFCCF8091780020917900BD
:1037800090E0922B089590E0FC013197EF30F10525
:10379000B0F5EA5AFF4F0C94FC26809180008F7799
:1037A00003C0809180008F7D809380000895809178
:1037B0008000877FF9CF84B58F7702C084B58F7D75
:1037C00084BD0895809190008F7707C0809190000C
:1037D0008F7D03C080919000877F80939000089533
:1037E0008091C0008F7703C08091C0008F7D80934F
:1037F000C00008958091C200877F8093C200089521
:10380000CF93DF9390E0FC01EB50FF4F2491FC013C
:10381000EC5EFE4F8491882349F190E0880F991F58
:10382000FC01E15BFE4FA591B4918F5B9E4FFC01C3
:10383000C591D4919FB7611108C0F8948C912095DF
:1038400082238C93888182230AC0623051F4F894D9
:103850008C91322F309583238C938881822B88839F
:1038600004C0F8948C91822B8C939FBFDF91CF91F1
:1038700008950F931F93CF93DF931F92CDB7DEB7B9
:10388000282F30E0F901EA52FF4F8491F901EB5003
:10389000FF4F1491F901EC5EFE4F04910023C9F033
:1038A000882321F069830E94C31B6981E02FF0E027
:1038B000EE0FFF1FEF5BFE4FA591B4919FB7F894F9
:1038C0008C91611103C01095812301C0812B8C93D1
:1038D0009FBF0F90DF91CF911F910F910895CF93CC
:1038E000DF93282F30E0F901EA52FF4F8491F9016C
:1038F000EB50FF4FD491F901EC5EFE4FC491CC2305
:1039000091F081110E94C31BEC2FF0E0EE0FFF1F1E
:10391000ED5CFE4FA591B4912C912D2381E090E0B8
:1039200021F480E002C080E090E0DF91CF91089523
:10393000CF93DF931F92CDB7DEB76983DC01ED91A2
:10394000FC910280F381E02D41E050E0BE016F5F09
:103950007F4F09950F90DF91CF910895CF93DF931B
:10396000EC018C859D8597FF05C082E00E94CE20EA
:103970009D878C878C859D85DF91CF91089583E00D
:103980000C944923FC018485958597FD06C082E04F
:103990000E94762090E00196089582E00E947620B1
:1039A00090E00895FC018485958597FD05C02FEF73
:1039B0003FEF35872487089582E00C94CE20CF9383
:1039C000DF93EC0180916601882331F083E00E944F
:1039D000FF201816190634F081E090E09B838A835B
:1039E00080E090E0DF91CF910895FC0120812E5F6F
:1039F000208342E450E06DE571E080E80C949A2168
:103A0000FC0121818081813A59F4213209F05CC0A6
:103A100047E050E06FE571E080E00E949A2167C0C6
:103A2000813209F051C0233289F4838190E0982FCC
:103A300088273281832BA0E0B0E080935B019093D4
:103A40005C01A0935D01B0935E010FC0203239F498
:103A500067E070E08FE591E00E94CB210AC022323E
:103A600021F482818093660104C02D7F203209F009
:103A70003EC080915F0190916001A0916101B09181
:103A80006201803B9440A105B10501F5809166017A
:103A900080FD1CC080910008909101089093FF0A5E
:103AA0008093FE0A87E797E79093010880930008C8
:103AB0002BE088E190E00FB6F894A8958093600021
:103AC0000FBE2093600013C080E0089588E10FB618
:103AD000F89480936000109260000FBEA8958091CA
:103AE000FE0A9091FF0A909301088093000881E0FC
:103AF00008952FEF3FEFFC0135872487089510923A
:103B0000BA051092B90588EE93E0A0E0B0E080938A
:103B1000BB059093BC05A093BD05B093BE0589EA93
:103B200093E09093B8058093B7058FEF9FEF909344
:103B3000C4058093C30508956115710581F0DB010B
:103B40000D900020E9F7AD0141505109461B570B7C
:103B5000DC01ED91FC910280F381E02D099480E07D
:103B600090E008950C949C1DDC01ED91FC91019076
:103B7000F081E02D099465EB73E00C949C1D0F938C
:103B80001F93CF93DF93EC010E949C1D8C01CE010B
:103B90000E94BB1D800F911FDF91CF911F910F914C
:103BA00008958F929F92AF92BF92CF92DF92EF9241
:103BB000FF920F931F93CF93DF93CDB7DEB7A197FB
:103BC0000FB6F894DEBF0FBECDBF7C01C42EE52F2B
:103BD000CB01D22E19A221E02D1510F02AE0D22E11
:103BE0008E010F5D1F4F8D2C912CA12CB12C6C2DB3
:103BF0007E2FA50194010E94DA268C2DD29E801979
:103C00001124015011098A3014F4805D01C0895CCF
:103C1000F8018083211531054105510521F0C22E9F
:103C2000E32FCA01E4CFB801C7010E949C1DA196F1
:103C30000FB6F894DEBF0FBECDBFDF91CF911F91BD
:103C40000F91FF90EF90DF90CF90BF90AF909F903B
:103C50008F900895CF92DF92EF92FF920F931F9370
:103C6000CF93DF93EC016A017B012115310579F4D3
:103C7000E881F9810190F081E02D642FDF91CF91EF
:103C80001F910F91FF90EF90DF90CF9009942A3011
:103C90003105E9F477FF1AC06DE20E94B41D8C0172
:103CA00044275527BA014C195D096E097F092AE09E
:103CB000CE010E94D11D800F911FDF91CF911F91E6
:103CC0000F91FF90EF90DF90CF9008952AE0B70119
:103CD000A601CE01DF91CF911F910F91FF90EF9040
:103CE000DF90CF900C94D11D9A01AB01662757FD50
:103CF0006095762F0C942A1E2115310541F4DC01C4
:103D0000ED91FC910190F081E02D642F09940C94C9
:103D1000D11D9A01462F50E060E070E00C947C1EAB
:103D20009A01AB0160E070E00C947C1E0F931F932E
:103D3000CF93DF93EC019A01AB0160E070E00E9449
:103D40007C1E8C01CE010E94BB1D800F911FDF9154
:103D5000CF911F910F9108950F931F93CF93DF93EE
:103D6000EC010E947C1E8C01CE010E94BB1D800FC5
:103D7000911FDF91CF911F910F9108954F925F9204
:103D80006F927F928F929F92AF92BF92CF92DF926B
:103D9000EF92FF920F931F93CF93DF93EC016A0191
:103DA0007B01B22E9A01AB01C701B6010E94B62673
:103DB000882319F068EB73E027C026013701E894E7
:103DC00077F82FEF3FEF4FE75FE7C301B2010E94A3
:103DD000B62681110DC02FEF3FEF4FE75FE7C3011C
:103DE000B2010E94002518161CF46CEB73E00CC0A5
:103DF0002FEF3FEF4FE75FE4C701B6010E944F2668
:103E00001816ACF460EC73E0CE01DF91CF911F91F6
:103E10000F91FF90EF90DF90CF90BF90AF909F9069
:103E20008F907F906F905F904F900C949C1D2FEF20
:103E30003FEF4FE75FECC701B6010E94002587FD09
:103E4000E1CF20E030E0A901C701B6010E940025C2
:103E500087FF0AC06DE2CE010E94B41D8C01F7FA03
:103E6000F094F7F8F09402C000E010E0A12C60E0BC
:103E700070E080E09FE3AB1441F020E030E040E2EE
:103E800051E40E940425A394F6CF9B01AC01C70125
:103E9000B6010E949C246B017C010E9471252B01BC
:103EA0003C010E949D259B01AC01C701B6010E9407
:103EB0009B246B017C012AE0B301A201CE010E9488
:103EC000D11D080F191FBB2039F06AE073E0CE0145
:103ED0000E949C1D080F191F7B2C772041F120E0C8
:103EE00030E040E251E4C701B6010E9453266B0165
:103EF0007C010E946C254B01AA2497FCA094BA2C4B
:103F00002AE030E0B501A401CE010E942A1E080F6C
:103F1000191FC501B4010E949F259B01AC01C70177
:103F2000B6010E949B246B017C017A94D6CFC80114
:103F3000DF91CF911F910F91FF90EF90DF90CF9085
:103F4000BF90AF909F908F907F906F905F904F90B9
:103F500008950C94BE1E0F931F93CF93DF93EC0133
:103F60000E94BE1E8C01CE010E94BB1D800F911FBE
:103F7000DF91CF911F910F910895615030F0209102
:103F8000F100FC0120830196F8CF289A84E6809303
:103F90001006089540910B0650910C0620910906D9
:103FA00030910A0642175307B4F49091E8009570D7
:103FB000E1F39091E80092FD19C08093F1008091A7
:103FC0000B0690910C0601968F739927892B19F493
:103FD0008EEF8093E80080910B0690910C0601967D
:103FE00090930C0680930B0681E0089580E008957D
:103FF000CF92DF92EF92FF920F931F93CF93DF93B5
:104000001F92CDB7DEB7082F162FF42E862F880FFC
:104010008E5F99830E94CA1F83E00E94CA1FE02E10
:10402000C02E9981D92E8C2D8E19811798F4F60106
:10403000F7FE02C0849101C080810E94CA1F082F30
:1040400080E00E94CA1F8023FFEFCF1ADF0A811190
:10405000EACF01C081E00F90DF91CF911F910F91C6
:10406000FF90EF90DF90CF9008958091D70081600E
:104070008093D70080EA8093D80089B5806189BD9C
:1040800089B5826089BD09B400FEFDCF61E070E0B2
:1040900080E090E00E94141B8091D8008F7C8061AA
:1040A0008093D8008091E000807F8093E0000895A5
:1040B000CF93DF931F92CDB7DEB71982CE01019661
:1040C0000E94F51C0E948724BE016F5F7F4F0E94F3
:1040D000002489810F90DF91CF9108952FB7FC01C3
:1040E0002083F89467706093E9000895CF93DF937D
:1040F0001F92CDB7DEB7682FCE0101960E946E20C9
:104100008091F20099819FBF0F90DF91CF91089528
:10411000FF920F931F93CF93DF9300D0CDB7DEB7FD
:10412000F62E8A0190910F06992311F057FF03C0D4
:104130008FEF9FEF2BC0682FCE0101967A830E94EC
:104140006E208091F20090E0A8017A81801791079B
:104150000CF4AC01EF2DF72FF40E84E6FE1639F0C7
:10416000289A809310069091F1009193F7CF411512
:10417000510521F08091F200882321F089818FBFC1
:10418000CA0104C08BE68093E800F8CF0F900F902F
:10419000DF91CF911F910F91FF900895CF93DF93FF
:1041A0001F92CDB7DEB741E050E0BE016F5F7F4F99
:1041B0000E948820019719F4898190E002C08FEF56
:1041C0009FEF0F90DF91CF910895CF93DF931F92D0
:1041D000CDB7DEB7682FCE0101960E946E20909178
:1041E000E800892F807295FF04C09091F20080E46E
:1041F000891B99819FBF0F90DF91CF9108956F9296
:104200007F928F929F92AF92BF92CF92DF92EF9266
:10421000FF920F931F93CF93DF931F92CDB7DEB71B
:10422000782E7B01C42EB52E80910F06882369F06D
:10423000042F152F8AEFD82E872D8072982E9AE39F
:10424000A92E872D8074882E11C08FEF9FEF57C045
:10425000872D0E94E520682E81110CC0DA94A9F305
:1042600061E070E080E090E00E94141B01151105F0
:1042700079F73BC0282F30E0021713070CF4602EAB
:10428000672DCE0101960E946E208091E80085FF87
:1042900029C0262D30E0021B130B992039F06A94B7
:1042A0008FEF6816B1F01092F100F9CFF701862D6B
:1042B00077FE07C0815058F094919093F1003196A9
:1042C000F9CF815020F091919093F100FACFE20E56
:1042D000F31E8091E80085FF0FC00115110511F450
:1042E00081100AC089818FBFC1CF5D9A84E6809317
:1042F00011068C2D9B2D03C0A092E800F3CF0F90E8
:10430000DF91CF911F910F91FF90EF90DF90CF90B1
:10431000BF90AF909F908F907F906F900895109274
:10432000E90010920C0610920B0690930A068093F7
:1043300009060895CF92DF92FF920F931F93CF93B8
:10434000DF9300D0CDB7DEB7F82E8A016B010115DF
:104350001105B1F0F601F7FE02C0849101C0808121
:1043600049835A830E94CA1F01501109FFEFCF1AD7
:10437000DF0A49815A818111EACF8FEF9FEF01C097
:10438000CA010F900F90DF91CF911F910F91FF9075
:10439000DF90CF9008951F93CF93DF931F92CDB7F7
:1043A000DEB7162F2091E80022FFFCCF612F798322
:1043B0000E94BD1F8BEF8093E800812F7981972F9A
:1043C0000F90DF91CF911F9108951F920F920FB61A
:1043D0000F921124DF92EF92FF920F931F932F936E
:1043E0003F934F935F936F937F938F939F93AF937D
:1043F000BF93EF93FF93CF93DF93CDB7DEB76C9767
:10440000DEBFCDBF1092E9008091E80083FF23C199
:1044100068E0CE0145960E94BD1F82EF8093E800C0
:104420003D8937FF05C08091E80080FFFCCF03C0C5
:104430008EEF8093E800832F807609F0F0C02E89FC
:104440004F89D88C21110CC0303829F480910E0688
:104450008093F10002C01092F1001092F100F4C0BC
:10446000842F90E09D29213049F43111EDC001974E
:1044700009F0EAC080910E068D7F0AC0233059F4FE
:104480003111E2C0019709F0DFC080910E06826011
:1044900080930E06D9C0253041F48091E80080FF5A
:1044A000FCCF40684093E300CFC0263009F08DC0B8
:1044B000EB8CFC8C22E0D2122CC080E090E00E94B9
:1044C0008F210E94582099E08E010F5F1F4FF80145
:1044D000292F11922A95E9F79983DA8291E09E8338
:1044E00090EA98879AEF998720910B0630910C06F5
:1044F000275F3F4F3C832B838D83C7010E948F2111
:1045000049E050E0B80180E00E949A210E945820C2
:104510009BC0C7010E948F210E948724BE016B5E51
:104520007F4F0E942924009719F00CF08DC090C095
:1045300081E0D8120EC08B8D9C8D089719F481E014
:10454000809308068091080681112FC061EB71E00D
:1045500031C0E3E0DE127CC08F89882349F18230CC
:1045600029F440E86DE08FEC91E01CC0813029F423
:1045700040E86BE083EC91E015C0833009F068C03F
:104580000E9487248E010F5F1F4FB8010E944824AC
:10459000F80101900020E9F73197E01BF10B40E0B2
:1045A0006E2FC8010E94F81F4DC06FE971E002C074
:1045B0006DED71E06115710509F44AC0FB0144918C
:1045C00050E080E80E949A213FC0273009F440C0A3
:1045D000283021F481E08093F10036C02930A1F524
:1045E0003370B1F5E8E6F1E081E021E036E3908157
:1045F000992361F08093E9002093EB0091919093CF
:10460000EC003093ED008F5F873089F78EE7809361
:10461000EA001092EA008F8980930F0615C08B8DF7
:104620009C8D0E948F21898D811105C0CE014596F8
:104630000E94001D07C00E948724BE016B5E7F4F51
:104640000E946724882321F08EEF8093E80003C046
:1046500081E28093EB006C960FB6F894DEBF0FBE3C
:10466000CDBFDF91CF91FF91EF91BF91AF919F911E
:104670008F917F916F915F914F913F912F911F91FA
:104680000F91FF90EF90DF900F900FBE0F901F9053
:1046900018958093E9008091F200882319F08AE34D
:1046A0008093E80008951F920F920FB60F92112485
:1046B0002F933F934F935F936F937F938F939F932A
:1046C000AF93BF93CF93EF93FF93C091E10080919D
:1046D000E100837F8093E1008093E100C3FF0FC07E
:1046E0001092E90081E08093EB001092EC0082E3ED
:1046F0008093ED0010920F0688E08093F000C2FFD7
:1047000019C083E00E94492380911106882339F063
:1047100080911106815080931106882389F1809140
:104720001006882339F0809110068150809310067E
:10473000882341F1C4FF10C08091E2008E7E816029
:104740008093E2008091E1008F7E8093E100809170
:104750000D068E7E806111C0C0FF16C08091E20000
:104760008E7E80618093E2008091E1008E7E809356
:10477000E10080910D068E7E816080930D0604C05D
:104780005D98CDCF2898D6CFFF91EF91CF91BF9173
:10479000AF919F918F917F916F915F914F913F91D9
:1047A0002F910F900FBE0F901F90189510920F062B
:1047B00010920E0610920D060E943520E1EEF0E0F8
:1047C00080818E7E80838DE08093E200559A209ACE
:1047D0005D982898089508950E943C1B0E94EB2341
:1047E00087E096E00E94D6230E942C14C0E0D0E01F
:1047F0000E9425172097E1F30E940000F9CF089549
:10480000EF92FF920F931F93CF93DF937B01FC01F5
:10481000C281D38100E010E0209781F0E881F98126
:104820000280F381E02DB701CE01099597FD08C004
:10483000080F191F0884D985C02DEECFC80102C00A
:104840008FEF9FEFDF91CF911F910F91FF90EF902E
:1048500008950F931F93CF93DF938B01FC01C281C7
:10486000D381209771F0E881F9810480F581E02DF2
:10487000B801CE010995009731F40884D985C02D7F
:10488000F0CF80E090E0DF91CF911F910F910895DC
:104890000F931F93CF93DF938B01FC01C281D381D0
:1048A000209771F0E881F9810680F781E02DB80149
:1048B000CE010995080F111D0884D985C02DF0CFB0
:1048C000F8011082DF91CF911F910F9108950F93FE
:1048D0001F93CF93DF938B01FC01C281D38120977B
:1048E00071F0E881F9810190F081E02DB801CE01ED
:1048F0000995811106C00884D985C02DF0CF80E0CC
:1049000001C081E0DF91CF911F910F9108958091B7
:10491000160681110DC082E08093120684E0809318
:104920001306109215061092140681E08093160665
:1049300082E196E008955058BB27AA270ED075C192
:1049400066D130F06BD120F031F49F3F11F41EF4AA
:104950005BC10EF4E095E7FB51C1E92F77D180F3FD
:10496000BA17620773078407950718F071F49EF56C
:104970008FC10EF4E0950B2EBA2FA02D0B01B901BB
:1049800090010C01CA01A0011124FF27591B99F0C5
:10499000593F50F4503E68F11A16F040A22F232FD1
:1049A000342F4427585FF3CF469537952795A79521
:1049B000F0405395C9F77EF41F16BA0B620B730BC8
:1049C000840BBAF09150A1F0FF0FBB1F661F771F39
:1049D000881FC2F70EC0BA0F621F731F841F48F4EE
:1049E000879577956795B795F7959E3F08F0B3CF74
:1049F0009395880F08F09927EE0F9795879508955E
:104A0000D9D008F481E008950CD00FC107D140F04F
:104A1000FED030F021F45F3F19F0F0C0511139C1E0
:104A2000F3C014D198F39923C9F35523B1F3951B1F
:104A3000550BBB27AA2762177307840738F09F5FBF
:104A40005F4F220F331F441FAA1FA9F333D00E2E2E
:104A50003AF0E0E830D091505040E695001CCAF79B
:104A600029D0FE2F27D0660F771F881FBB1F261760
:104A700037074807AB07B0E809F0BB0B802DBF0133
:104A8000FF2793585F4F2AF09E3F510568F0B6C04C
:104A900000C15F3FECF3983EDCF386957795679510
:104AA000B795F7959F5FC9F7880F911D96958795E4
:104AB00097F90895E1E0660F771F881FBB1F621703
:104AC00073078407BA0720F0621B730B840BBA0BC1
:104AD000EE1F88F7E095089504D06894B111D9C00D
:104AE0000895BCD088F09F5790F0B92F9927B751FF
:104AF000A0F0D1F0660F771F881F991F1AF0BA95A2
:104B0000C9F712C0B13081F0C3D0B1E00895C0C080
:104B1000672F782F8827B85F39F0B93FCCF3869597
:104B200077956795B395D9F73EF4909580957095F4
:104B300061957F4F8F4F9F4F0895E89409C097FB71
:104B40003EF490958095709561957F4F8F4F9F4F64
:104B50009923A9F0F92F96E9BB279395F6958795A8
:104B600077956795B795F111F8CFFAF4BB0F11F46B
:104B700060FF1BC06F5F7F4F8F4F9F4F16C0882312
:104B800011F096E911C0772321F09EE8872F762F48
:104B900005C0662371F096E8862F70E060E02AF089
:104BA0009A95660F771F881FDAF7880F9695879575
:104BB00097F90895990F0008550FAA0BE0E8FEEF4A
:104BC00016161706E807F907C0F012161306E407D1
:104BD000F50798F0621B730B840B950B39F40A26CA
:104BE00061F0232B242B252B21F408950A2609F4A8
:104BF000A140A6958FEF811D811D089597F99F67AC
:104C000080E870E060E008959FEF80EC0895002454
:104C10000A941616170618060906089500240A9421
:104C200012161306140605060895092E0394000CA7
:104C300011F4882352F0BB0F40F4BF2B11F460FF36
:104C400004C06F5F7F4F8F4F9F4F089557FD90585F
:104C5000440F551F59F05F3F71F04795880F97FB40
:104C6000991F61F09F3F79F08795089512161306FA
:104C70001406551FF2CF4695F1DF08C01616170629
:104C80001806991FF1CF869571056105089408955E
:104C9000E894BB2766277727CB0197F908958ADF29
:104CA00008F48FEF08950BD0C0CFB1DF28F0B6DF46
:104CB00018F0952309F0A2CFA7CF1124EACFC6DFC1
:104CC000A0F3959FD1F3950F50E0551F629FF0011F
:104CD000729FBB27F00DB11D639FAA27F00DB11D78
:104CE000AA1F649F6627B00DA11D661F829F222701
:104CF000B00DA11D621F739FB00DA11D621F839F88
:104D0000A00D611D221F749F3327A00D611D231F5D
:104D1000849F600D211D822F762F6A2F11249F57AB
:104D200050408AF0E1F088234AF0EE0FFF1FBB1FCE
:104D3000661F771F881F91505040A9F79E3F51056D
:104D400070F05CCFA6CF5F3FECF3983EDCF3869526
:104D500077956795B795F795E7959F5FC1F7FE2B18
:104D6000880F911D9695879597F9089523DF880BF5
:104D7000990B0895991B79E004C0991F961708F0C4
:104D8000961B881F7A95C9F78095089597FB072E83
:104D900016F4009407D077FD09D00E94242707FC61
:104DA00005D03EF4909581959F4F0895709561953B
:104DB0007F4F0895A1E21A2EAA1BBB1BFD010DC057
:104DC000AA1FBB1FEE1FFF1FA217B307E407F507BB
:104DD00020F0A21BB30BE40BF50B661F771F881F97
:104DE000991F1A9469F760957095809590959B012D
:104DF000AC01BD01CF010895EE0FFF1F0590F491A6
:104E0000E02D0994A29FB001B39FC001A39F700D34
:104E1000811D1124911DB29F700D811D1124911DC2
:104E200008950E940227A59F900DB49F900DA49F06
:104E3000800D911D11240895B7FF0C9411270E9435
:104E40001127821B930B0895AA1BBB1B51E107C0BE
:104E5000AA1FBB1FA617B70710F0A61BB70B881F0A
:104E6000991F5A95A9F780959095BC01CD01089599
:104E7000FC0188279927E89421912032E9F3293011
:104E800010F02E30C8F32B3241F02D3239F46894F3
:104E900004C00E946F27820F911D219120532A3058
:104EA000C0F31EF4909581959F4F0895803209F0CC
:104EB000911133C080528F55E0F7089591112DC0A4
:104EC000803219F089508550D0F70895FB01DC013C
:104ED0008D91019080190110D9F3990B08957AE012
:104EE000979F902D879F802D910D11240895F999FA
:104EF000FECF92BD81BDF89A992780B50895262FDF
:104F0000F999FECF1FBA92BD81BD20BD0FB6F894AE
:104F1000FA9AF99A0FBE019608959927882708955D
:044F2000F894FFCF33
:104F24008E01360F5403200F5A03520F5F036E0F86
:104F34008F03290E2A032E0E5902720E5602960E64
:104F44003503D20E6503AD103203C00E2D038A0F54
:104F5400680347116F0383107203AE0E7503F40EDA
:104F640078030F117F032B11870343101C032410B4
:104F74008D031C0F00000000FF0101FFFFFFFF0075
:104F8400E100000000000000C18081000000707298
:104F9400696D617279007365636F6E646172790023
:104FA4007374617274696E67200073746F707069D2
:104FB4006E67006B696C6C696E6700737461727400
:104FC400696E672074696D656F75740063757272BC
:104FD400656E74206E6F726D616C006375727265BC
:104FE4006E74206C6F770063757272656E742068DE
:104FF4006967680063757272656E74207374726594
:1050040073736564006865617274626561742074A9
:10501400696D656F75740073746F702074696D6564
:105024006F757400686561727462656174006C6F99
:10503400673A2000A1ADA1AD1F1C1F1E1F1E1F1F1C
:105044001E1F1E1F011562686A636B0000010203C4
:105054000507160B170406080A0C0D0974656D7014
:1050640065726174757265200068756D6964697430
:105074007920006F6E0068620063750057445246E1
:1050840000424F524600455854524600504F524633
:10509400007365742073640073657420656D6D63BB
:1050A40000696E76616C6964206D65646961003CB9
:1050B4003C3C2D207369643D00696E76616C6964C3
:1050C40020636F6D6D616E64002D3E3E3E003000C6
:1050D4006E6300676E00637300783100783200629B
:1050E40061636B6F6666006261636B696E67206FF4
:1050F4006666206F662000706F7374006375727249
:10510400656E742073656E736F72200020746F6F08
:10511400206D616E79206661756C747300206F7503
:1051240074206F662072616E67652E007468657204
:105134006D6973746F722000626F6F746C6F6700B7
:10514400626F6F7464740020210069640064617488
:105154006500746800656E76006661696C7300654D
:105164006E61626C65640073642000656D6D63201C
:10517400003F200073746172740073746F70007365
:10518400746F702100627300656564756D700062F0
:105194006600666300757000656E61626C6500642C
:1051A400697361626C650077617463680065657238
:1051B400657365740000000000B51788175D1765F6
:1051C400177817871700000000981CDF1CC21CD238
:1051D4001CAE1CBF1C0D0A006E616E00696E660079
:0451E4006F7666007C
:00000001FF
