:100000000C94F6000C941E010C941E010C941E011D
:100010000C941E010C941E010C941E010C941E01E4
:100020000C941E010C941E010C945B250C94ED2382
:100030000C941E010C941E010C941E010C941E01C4
:100040000C941E010C941E010C941E010C941E01B4
:100050000C94A40C0C941E010C941E010C94791C9D
:100060000C941E010C941E010C941E010C941E0194
:100070000C941E010C941E010C941E010C941E0184
:100080000C941E010C941E010C941E010C941E0174
:100090000C944C1B0C941E010C941E010C941E011C
:1000A0000C941E010C941E010C941E01B91DBC1D64
:1000B000AB1DAF1DB51DDD1DDD1DDD1DC01DC41D2E
:1000C000C81DCE1DD21DDD1DD81D0706050401006B
:1000D000080A0B0C0D090000000200090F000003C4
:1000E0000401000C000000000000000000000000FF
:1000F0000000000000040802011040804010204071
:10010000804080080204018040201002011080100D
:1001100020404020040404040403040502020202F7
:100120000403020202020606060606060404020290
:10013000020404000000002300260029002C002FE8
:100140000000000000250028002B002E00310000D8
:10015000000000240027002A002D003000080B00BA
:10016000020202010009040000010202000005244D
:1001700000100105240101010424020605240600E3
:10018000010705810310004009040100020A000074
:10019000000705020240000007058302400000122C
:1001A000010002EF020140412337800001010203F8
:1001B00001120100020000004041233780000101CC
:1001C00002030141726475696E6F204C4C4300411B
:1001D000726475696E6F204D6963726F0004030964
:1001E0000400FD05A20A930E621A5D1F11241FBEB2
:1001F000CFEFDAE0DEBFCDBF14E0A0E0B1E0E2E493
:10020000F3E502C005900D92A430B107D9F726E0BE
:10021000A4E0B4E001C01D92AA37B207E1F711E0F3
:10022000CCEED1E004C02297FE010E940629C23E16
:10023000D107C9F70E94F4250C949F290C94000063
:10024000FC012285213039F4478D50A161A172A1B2
:1002500043960C947E0C80E008954B960C946A0CA7
:10026000CF93DF93EC018885882311F0898513C033
:100270008B85882341F08A810E9419098370992710
:10028000039741F405C08A810E94E00880FF02C004
:100290008D8101C08C81DF91CF910895FC0181E0B7
:1002A0008087618783810C94ED0DFC0143A354A3E7
:1002B00065A376A308951F93CF93DF93EC018A8102
:1002C0000E94330F8F3F2FEF9207C9F088379105B7
:1002D00048F08C3221E0920738F08235934030F4B8
:1002E00011E005C012E003C010E001C013E08E85EC
:1002F000181729F0CE010F960E945E0C1E87DF9121
:10030000CF911F9108950F931F93CF93DF931F9267
:10031000CDB7DEB78C01439669830E945E0CC8019D
:1003200047960E945E0CC8014B960E945E0CC80165
:100330000F960E945E0C6981F80162870F90DF9131
:10034000CF911F910F910895CF93DF93EC01188601
:10035000198682E08E871F8E18A219A21AA240E683
:100360005AEE60E070E04BA35CA36DA37EA38A818C
:100370000E94C108882311F061E001C060E0CE0155
:10038000DF91CF910C948301CF93DF93EC0161E077
:100390008A810E94B80861E0CE010E94830180E05A
:1003A000DF91CF910895CF93DF93EC018A81811182
:1003B0000FC040E65AEE60E070E0CE0143960E9426
:1003C0007E0C882329F0CE01DF91CF910C94C401DB
:1003D000DF91CF91089520915E01222329F0BC0185
:1003E00083E196E00C94901F0895FF920F931F9362
:1003F000CF93DF9300D000D0CDB7DEB78C01FC01E6
:100400008285813009F068C082810E94190921E04B
:100410004E9708F020E0F8012387C8010E943001C0
:10042000F82EF8011086682F83810E94ED0DF801E7
:10043000808191810E94490585E891E00E94EB014D
:10044000F8018481F81203C083E791E002C08BE7D2
:1004500091E00E94EB010E946505F80182810E94F3
:100460000E09CE0101960E94090E49815A816B81C5
:100470007C81F801228130E0C901880F991F820F29
:10048000931F8B5F9B4F0E945C0A62E0F8018281A0
:100490000E945A096AE070E080E090E00E94F21C3D
:1004A00061E0F80182810E949D0D64EF71E080E0BF
:1004B00090E00E94F21C61E0F80182810E945A09DA
:1004C0006AE070E080E090E00E94F21C63E0C80106
:1004D0000E94830180E001C081E00F900F900F9097
:1004E0000F90DF91CF911F910F91FF900895CF93BF
:1004F000DF93EC018A85833081F4888199810E94A1
:1005000049058FE891E00E94EB010E94650564E0D7
:10051000CE010E94830180E001C081E0DF91CF9194
:100520000895CF93DF93EC018A85882371F1888148
:1005300099810E94490588E991E00E94EB010E949F
:10054000650563E08A810E945A096AE070E080E0F4
:1005500090E00E94F21C60E08A810E949D0D64EF91
:1005600071E080E090E00E94F21C60E08A810E94CD
:100570005A096AE070E080E090E00E94F21C61E0BD
:10058000CE010E94830180E001C081E0DF91CF9124
:100590000895CF93DF93EC018A81882319F060E0FE
:1005A0000E94B808CE010E9491028A81882321F01E
:1005B00060E0CE010E94830180E0DF91CF91089539
:1005C000CF93DF93EC0140EE53E964E070E0439693
:1005D0000E947E0C882391F0888199810E944905B0
:1005E00080EA91E00E94EB010E9465058A810E94E9
:1005F0004709CE01DF91CF910C949102DF91CF9109
:1006000008950F931F93CF93DF93EC018E8188237E
:1006100051F040EE53E964E070E0CE014B960E9449
:100620007E0C811111C08F81882309F441C08E0195
:10063000015F1F4F40E157E260E070E0C8010E9497
:100640007E0C811112C034C0888199810E944905B5
:100650008AEE91E00E94EB010E9465058A810E946A
:100660004709CE010E947702DECF888199810E94DE
:1006700049058E85813069F489ED91E00E94EB0196
:100680000E946505C801DF91CF911F910F910C94D5
:100690005E0C813018F481EB91E0F0CF823019F4D8
:1006A00080EC91E0EBCF833059F78CEC91E0E6CF12
:1006B000DF91CF911F910F910895CF93DF93EC01BC
:1006C00040E05AEB6BED70E043960E947E0C88236D
:1006D000C1F0888199810E9449058CEF91E00E94C8
:1006E000EB010E946505CE010E94300161E081119D
:1006F00060E0CE010E944E01CE01DF91CF910C94BB
:100700007702DF91CF910895FC01238521110C948C
:1007100001030C945D030F931F93CF93DF93EC01C0
:100720008C01095E1F4F40E157E260E070E0C801B4
:100730000E947E0C882369F0C8010E945E0C8881AB
:1007400099810E9449058FE891E00E94EB010E9487
:1007500065054BA15CA16DA17EA1CE0143960E94CF
:100760007E0C8823C9F040E65AEE60E070E04BA3AF
:100770005CA36DA37EA3888199810E9449058DE0C9
:1007800092E00E94EB010E946505CE01DF91CF91BE
:100790001F910F910C949102DF91CF911F910F91B6
:1007A0000895FC012285223059F018F4222331F0FB
:1007B0000895233039F0243039F008950C94D30192
:1007C0000C94E0020C9484030C948B03CF93DF937E
:1007D000EC014B960E945E0C888199810E9449052C
:1007E0008AE192E00E94EB010E9465058A858823D8
:1007F00041F0833058F463E0CE01DF91CF910C9447
:100800008301CE01DF91CF910C94C902DF91CF918A
:100810000895DC011296EC91F0E0EC5EFB4F208134
:10082000283018F010820C94E6030895CF93DF93DC
:10083000EC010E940904CE010E945B01CE01DF9110
:10084000CF910C94D1030C94E603DC01ED91FC9163
:100850000190F081E02D0994089508950F931F935E
:10086000CB01A0E0B0E0BA2FA92F982F8827842BC6
:10087000E7E1F0E040E050E868E970E08C019D01BC
:100880000E2E04C036952795179507950A94D2F732
:1008900000FF04C084279527A627B727769567957C
:1008A000579547953197E730F10541F71F910F9123
:1008B0000895EF92FF920F931F93CF93DF938C01D4
:1008C00060E470E08AE495E00E94E61965EF70E06C
:1008D0008AE495E00E9425048AE495E00E945F1A6C
:1008E00067E370E080E090E00E94F21C43E050E09B
:1008F00060E470E08AE495E00E945C1AF12C8AE4DE
:1009000095E00E943B190397BCF18AE495E00E94B0
:100910004319E82E8AE495E00E944319F82E8AE4F0
:1009200095E00E944319DE2D90E0C92FCF29482F72
:10093000BE01C8010E942E04811119C0BE016C7F46
:1009400080E090E00E94A52720E030E040E857E3F7
:100950000E945B2820E030E04AEF52E40E945B28CE
:1009600020E030E040EC50E40E94A32613C060E099
:1009700070EC89E794E40EC065E070E080E090E000
:100980000E94F21CF39484E6F812B9CF60E070E89C
:1009900089E794E4DF91CF911F910F91FF90EF9041
:1009A0000895EF92FF920F931F93CF93DF937C01F3
:1009B00060E470E08AE495E00E94E61963EF70E07D
:1009C0008AE495E00E9425048AE495E00E945F1A7B
:1009D00067E370E080E090E00E94F21C43E050E0AA
:1009E00060E470E08AE495E00E945C1A05E610E09D
:1009F0008AE495E00E943B19039774F461E070E08B
:100A000080E090E00E94F21C0150110989F760E03B
:100A100070E889E794E436C08AE495E00E944319BF
:100A2000082F8AE495E00E944319182F8AE495E084
:100A30000E944319D02F90E0C92FC12B482FBE012F
:100A4000C7010E942E04811119C0BE016C7F80E095
:100A500090E00E94A52720E030E040E857E30E94A4
:100A60005B2822E538EB4FE253E40E945B2826E640
:100A700036E64BE352E40E94A32604C060E070EC2B
:100A800089E794E4DF91CF911F910F91FF90EF9050
:100A90000895CF93DF93EC0180915E01882391F05C
:100AA00064E272E083E196E00E94901FBE0183E160
:100AB00096E00E94901F60E283E196E0DF91CF9183
:100AC0000C94921FDF91CF91089580915E0188234D
:100AD00021F083E196E00C94991F0895FC016111C7
:100AE00003C0411107C004C0623061F44230C1F458
:100AF00088E61DC0423011F489E619C04130C1F4C6
:100B00008AE615C06130A1F4411102C08CE60FC025
:100B1000423011F48DE60BC0413051F48EE607C02F
:100B2000411102C08BE603C0413011F48FE680838F
:100B300008950F931F93CF93DF93EC01142F186840
:100B400020E2629FC0011124182B0AE068818AE428
:100B500095E00E94DC19612F8AE495E00E949319C8
:100B60008AE495E00E945F1A882311F0015071F722
:100B7000DF91CF911F910F9108950F931F93CF9302
:100B8000DF938C0160E570E080E090E00E94F21C51
:100B9000F801608170E043E050E08AE495E00E9453
:100BA0005C1A1AE08AE495E00E943B1903972CF442
:100BB0001150C1F7CFEFDFEF12C08AE495E00E9439
:100BC0004319082F8AE495E00E944319182F8AE4FC
:100BD00095E00E944319D02FF0E0CF2FC12BCE011A
:100BE000DF91CF911F910F910895982F92959F704B
:100BF0002AEF929F800D112408958AE495E00C94C9
:100C0000D2191F93CF93DF93EC016FE670E08AE473
:100C100095E00E94E61960E08AE495E00E9493194D
:100C200060E08AE495E00E94931929811AE0822FFE
:100C3000612F0E94C228682F660F680F660F620F2F
:100C40008AE495E00E9493192A81822F612F0E94E5
:100C5000C228682F660F680F660F620F8AE495E05E
:100C60000E9493198B818860682F70E08AE495E078
:100C70000E9425042C81822F612F0E94C228682F98
:100C8000660F680F660F620F8AE495E00E94931961
:100C90002D81822F612F0E94C228682F660F680F56
:100CA000660F620F8AE495E00E9493192E812E51FF
:100CB000822F612F0E94C228682F660F680F660F6F
:100CC000620F8AE495E00E9493198AE495E00E94FD
:100CD0005F1A6FE670E08AE495E00E94E61960E032
:100CE0008AE495E00E9493192881822F612F0E9447
:100CF000C228682F660F680F660F620F606870E089
:100D00008AE495E00E9425048AE495E0DF91CF9182
:100D10001F910C945F1ACF93DF93CDB7DEB727975F
:100D20000FB6F894DEBF0FBECDBFAE014F5F5F4F71
:100D30000E94CC0ACE0101960E94010627960FB6AA
:100D4000F894DEBF0FBECDBFDF91CF910895CF9352
:100D5000DF93EC016FE670E08AE495E00E94E6190B
:100D600060E08AE495E00E9493198AE495E00E948D
:100D70005F1A81113EC047E050E06FE670E08AE400
:100D800095E00E945C1A8AE495E00E9443198F77EF
:100D90000E94F50588838AE495E00E9443190E9429
:100DA000F50589838AE495E00E9443198F7B0E94B0
:100DB000F5058A838AE495E00E944319877C8B833A
:100DC0008AE495E00E9443190E94F5058C838AE429
:100DD00095E00E9443198F7D0E94F5058D838AE47A
:100DE00095E00E9443190E94F505825E8E8381E0A2
:100DF00001C080E0DF91CF910895CF93DF93CDB70D
:100E0000DEB727970FB6F894DEBF0FBECDBFCE0179
:100E100001960E94A706882329F0CE0101960E9420
:100E2000A30B03C060E070E0CB0127960FB6F894E7
:100E3000DEBF0FBECDBFDF91CF9108950F931F93FB
:100E4000CF93DF938B0167E570E08AE495E00E9421
:100E5000E61960EF70E08AE495E00E9425048AE4D8
:100E600095E00E945F1A48E050E067E570E08AE490
:100E700095E00E945C1AE80118E08AE495E00E947F
:100E8000431989931150C9F7DF91CF911F910F91A9
:100E900008950C948E290C948629CF92DF92EF92BC
:100EA000FF920F931F93CF93DF9300D0CDB7DEB7A0
:100EB0006C018B017C0184E0E80EF11CC6016983A2
:100EC0007A830E948629F80181938F01FFEFCF1A60
:100ED000DF0A69817A81CE14DF0481F7CB010F909C
:100EE0000F90DF91CF911F910F91FF90EF90DF90C6
:100EF000CF9008950F931F93CF93DF938C01EB0155
:100F00000E9486298883C80101960E9486298983C8
:100F1000CE01DF91CF911F910F910895EF92FF9233
:100F20000F931F93CF93DF931F92CDB7DEB77C0152
:100F3000FC0100811181C80169830E9486296981B1
:100F4000681719F0C8010E948E29C7010F90DF9120
:100F5000CF911F910F91FF90EF900895BF92CF9284
:100F6000DF92EF92FF920F931F93CF93DF9300D006
:100F70001F92CDB7DEB78C01B62EE62EF72E6C0190
:100F800084E0C80ED11CF70161917F011A830983A7
:100F9000CE0101967B830E948E070F5F1F4F7B81DE
:100FA0000C151D0581F78B2D972F0F900F900F902B
:100FB000DF91CF911F910F91FF90EF90DF90CF9035
:100FC000BF900895EF92FF920F931F93CF93DF93FB
:100FD00000D0CDB7DEB77C018B01FB0160819A8325
:100FE0008983CE0101960E948E07F8016181FFEF8F
:100FF000EF1AFF0AFA82E982CE0101960E948E075B
:10100000C8010F900F90DF91CF911F910F91FF902A
:10101000EF900895EF92FF920F931F93CF93DF937A
:1010200000D0CDB7DEB77C018B01FB0160819A83D4
:101030008983CE0101960E948E07F8016181FFEF3E
:10104000EF1AFF0AFA82E982CE0101960E948E070A
:10105000C8010F900F90DF91CF911F910F91FF90DA
:10106000EF900895CF93DF9300D000D0CDB7DEB7D7
:10107000BE016F5F7F4F80E090E00E944D0781E0EE
:1010800049815A816B817C81413A5D4A614A7D4A3E
:1010900009F080E00F900F900F900F90DF91CF91AB
:1010A0000895CF93DF9300D000D0CDB7DEB719827B
:1010B0001A821B821C82BE016F5F7F4F80E090E02E
:1010C0000E94AE070F900F900F900F90DF91CF917D
:1010D000089580E290E00E944B0791E0811101C0E9
:1010E00090E0892F0895682F80E290E00C944907E2
:1010F00080E490E00C944B07833008F081E0682F87
:1011000080E490E00C944907BC0184E090E00C94EA
:10111000E207BC0186E090E00C94E207BC0188E0A5
:1011200090E00C944D07BC0188E090E00C94AE0771
:10113000CF93DF9300D000D0CDB7DEB7CE010196BC
:101140000E948E0889819A81AB81BC810196A11D84
:10115000B11D89839A83AB83BC83CE0101960E9423
:1011600093080F900F900F900F90DF91CF910895FB
:1011700090E002969695982F8827979587950C94DE
:101180004907CF93C82F0E94030E982F882381F020
:10119000CC2371F08C2F90E002969695982F88279B
:1011A000979587950E944B0791E0811101C090E0CF
:1011B000892FCF910895BC018CE090E00C94AE078C
:1011C000CF93DF9300D0CDB7DEB720E8829FC00178
:1011D0001124BE016F5F7F4F895F9E4F0E947A0787
:1011E00089819A810F900F90DF91CF910895CF93CD
:1011F000DF9300D0CDB7DEB77A83698320E8829F82
:10120000C0011124BE016F5F7F4F895F9E4F0E9416
:101210000A080F900F90DF91CF910895CF93C82FB8
:101220000E94E008BC016F5F7F4F8C2FCF910C9420
:10123000F708CF93DF9300D0CDB7DEB720E8829FC9
:10124000C0011124BE016F5F7F4F855F9E4F0E94DA
:101250007A0789819A810F900F90DF91CF9108953D
:10126000CF93DF9300D0CDB7DEB77A83698320E8D0
:10127000829FC0011124BE016F5F7F4F855F9E4F2B
:101280000E940A080F900F90DF91CF910895CF939D
:10129000C82F0E941909BC016F5F7F4F8C2FCF911F
:1012A0000C94300920E8829FC00111248A5D9E4F72
:1012B0000C944B0720E8829FC00111248A5D9E4F49
:1012C0000C94490720E8829FC00111248C5E9E4F38
:1012D0000C944B0720E8829FC00111248C5E9E4F26
:1012E0000C94490720E8829FC0011124815F9E4F22
:1012F0000C944B0720E8829FC0011124815F9E4F10
:101300000C944907FC01808191810C944B07FC01EE
:10131000808191810C944907FC0180819181019623
:101320000C944B07FF920F931F93CF93DF9300D042
:1013300000D01F92CDB7DEB78C016D830E94820969
:10134000F82EC8010E948C096D816817E8F4F80135
:10135000208131812E5F3F4F862F90E08F0D911DB0
:10136000628170E00E94CE28880F991F880F991F14
:10137000BE016F5F7F4F820F931F0E944D076981EF
:101380007A818B819C8103C060E070E0CB010F907B
:101390000F900F900F900F90DF91CF911F910F91B1
:1013A000FF900895FC018081918101960C9449077A
:1013B000CF93DF93EC0160E00E94870960E0CE01EB
:1013C000DF91CF910C94D209FF920F931F93CF938B
:1013D000DF9300D000D0CDB7DEB719821A821B820E
:1013E0001C82CE0101960E94930819821A821B82E8
:1013F0001C82CE0101960E94DB0883E0898311E004
:101400001A83CE0101960E94840819831A82CE01A4
:1014100001960E94890881E00E94730805E014E0AB
:10142000F12C60E070E08F2D0E94F70860E070E022
:101430008F2D0E94300960E08F2D0E945A0960E0D4
:101440008F2D0E946A0960E08F2D0E947A09C801E1
:101450000E94D809F3940D5F1F4F85E0F812E1CF89
:1014600061E080E091E00E94490761E080E891E05E
:101470000E94490761E080E092E00E94490760E035
:1014800080E892E00E94490760E080E093E00E94DB
:10149000490780E00E947C086AE272E080E090E008
:1014A0000E94AE070F900F900F900F90DF91CF9199
:1014B0001F910F91FF900895EF92FF920F931F934A
:1014C000CF93DF9300D000D0CDB7DEB78C01498336
:1014D0005A836B837C830E948209E82EC8010E9494
:1014E0008C09F82EF801208131812E5F3F4F90E06A
:1014F0008E0D911D628170E00E94CE28880F991F89
:10150000880F991FBE016F5F7F4F820F931F0E944C
:10151000AE07F801828161E0F81205C06E0DC801C6
:101520000E94870904C06F0DC8010E94D2090F9064
:101530000F900F900F90DF91CF911F910F91FF901F
:10154000EF90089528E02093070480E491E09093C1
:1015500006048093050420930A0480EC91E09093A4
:1015600009048093080420930D0480E492E0909392
:101570000C0480930B042093100480EC92E0909371
:101580000F0480930E042093130480E493E090935F
:1015900012048093110408956F927F928F929F920C
:1015A000AF92BF92CF92DF92EF92FF920F931F9371
:1015B000CF93DF93EA012CE3C22ED12CE12CF12C46
:1015C000A70196010E94E2286883CA01B901A70118
:1015D00096010E94E2286983CA01B90128E130E03E
:1015E00040E050E00E94E22849015A016A83CA01A2
:1015F000B9016C5F7F4F8F4F9F4F27E030E040E095
:1016000050E00E94E2286F5F6B8300E010E09801D9
:1016100040E054E6652E712C60E9C62EDD24D3949B
:10162000E42FF0E0EE54F84F7F0183E0E822FF243E
:10163000E114F10489F4CF01B3010E94CE28892B73
:1016400029F08EE691E0A0E0B0E00AC0CF01B6013B
:101650000E94CE28892BA9F38DE691E0A0E0B0E0AE
:10166000080F191F2A1F3B1FD901C801AA27BB2732
:1016700088169906AA06BB0610F04F5FD1CF4E839D
:10168000E114F10499F4CF0164E670E00E94CE28E1
:10169000892B29F08EE691E0A0E0B0E00BC0CF01ED
:1016A00060E971E00E94CE28892BA1F38DE691E0DC
:1016B000A0E0B0E0081B190B2A0B3B0B801A910A23
:1016C000A20AB30ACF0164E670E00E94CE289C0112
:1016D000CF0160E971E00E94CE28EEE2F2E0A0E0E6
:1016E000A13059F4E114F10451F42115310511F040
:1016F0004DE106C00097E1F302C0408101C04CE11A
:1017000050E060E070E084169506A606B70640F04B
:10171000841A950AA60AB70AAF5F3196AC3001F772
:10172000AF5FAD8383948C82DF91CF911F910F9136
:10173000FF90EF90DF90CF90BF90AF909F908F90F1
:101740007F906F9008956F927F928F929F92AF9249
:10175000BF92CF92DF92EF92FF920F931F93CF939E
:10176000DF93FC01C680AC2DB0E020E833E341EE0E
:1017700051E00E9420294B015C0122EB37E06D0112
:10178000C4E6D0E000E911E0C901825B97408C1506
:101790009D05DCF4C90183709927892B99F4C9014F
:1017A000BE010E94CE28892B31F4C901B8010E94E4
:1017B000CE28892B39F480E8880E81E5981E81E0D7
:1017C000A81EB11C2F5F3F4FDFCF6580712C8EE4C8
:1017D000C81A88EFD80AC60164E670E00E94CE28D5
:1017E0008C01C60160E971E00E94CE287C01C1E055
:1017F000D0E083E0C822DD24C615D7052CF5C23021
:10180000D10589F4C114D10471F40115110519F43D
:10181000E114F10441F480E8880E8BE3981E86E21F
:10182000A81EB11C0FC0DE01A35DBD4FAC91B0E09E
:1018300020E831E541E050E00E942029860E971E05
:10184000A81EB91E2196D8CF4181228130E0A0E1A7
:10185000BEE00E940A296B017C01242F30E0ACE33A
:10186000B0E00E940A29C60ED71EE81EF91E80812C
:10187000C80ED11CE11CF11CA481B0E0119720E836
:1018800031E541E050E00E942B29C60ED71EE81E2C
:10189000F91EC80CD91CEA1CFB1CC701B601DF915C
:1018A000CF911F910F91FF90EF90DF90CF90BF905D
:1018B000AF909F908F907F906F900895CF93DF931C
:1018C000EC010E94C31C688379838A839B83DF9128
:1018D000CF9108950F931F93CF93DF93EC010E9454
:1018E000C31C088119812A813B81601B710B820B0B
:1018F000930BDF91CF911F910F910895CF92DF92BB
:10190000EF92FF920F931F93CF93DF93EC016A0145
:101910007B010E94C31C088119812A813B81601BC5
:10192000710B820B930B21E0C616D706E806F90669
:1019300008F020E0822FDF91CF911F910F91FF904F
:10194000EF90DF90CF9008951F920F920FB60F92F5
:1019500011240F931F932F933F934F935F936F9394
:101960007F938F939F93AF93BF93CF93DF93EF9327
:10197000FF9306E412E0C0E0D0E0F80181918F010E
:101980000E944D1EFE01E75EFB4F9081981731F0DB
:10199000DE01AC5EBB4F9C919F5F9C938083219640
:1019A000C530D10551F7FF91EF91DF91CF91BF91F4
:1019B000AF919F918F917F916F915F914F913F91E7
:1019C0002F911F910F910F900FBE0F901F901895A0
:1019D000909100019923D9F08530E0F4811103C082
:1019E00082E10C94701DE82FF0E0EF5BFD4F40E0CA
:1019F00060818EE194E00E9499058EE194E00E945E
:101A0000BD0525E0969587952A95E1F708958FEF16
:101A10009FEF089580E090E00895823038F4E82F39
:101A2000F0E0E05BFD4F80810C94171E089582303A
:101A300050F4E82FF0E0E05BFD4F80810E944D1EE6
:101A400021E0019709F020E0822F0895CF93C82F5D
:101A50000E94170D61E068278C2FCF910C940D0D1B
:101A6000EF92FF920F931F93CF93DF9361E08DE08E
:101A70000E94DE1D61E089E00E94DE1D3BE4E32E52
:101A800032E0F32E06E412E0C0E0D0E061E0F701BE
:101A900081917F010E94DE1D62E0F80181918F013A
:101AA0000E94DE1DFE01EC5EFB4F10822196C530C8
:101AB000D10561F761E081E00E94DE1D61E085E112
:101AC0000E94DE1D61E080E00E94DE1D0E94690828
:101AD000809300018AE495E00E94D21968EC70E0DE
:101AE00080E090E00E94F21C41E061E08EE194E031
:101AF0000E946E0568EC70E080E090E00E94F21CAD
:101B00008FE194E00E942D0468EC70E080E090E0AA
:101B10000E94F21CF894109280001092810081E0E3
:101B200080936F0083E0809381007894DF91CF9160
:101B30001F910F91FF90EF900895CF93C62F85309E
:101B400080F5811120C060E00E94171E62E370E002
:101B500080E090E00E94F21C6C2F84E00E94171E2F
:101B600062E370E080E090E00E94F21C61E080E0BF
:101B70000E94171E62E370E080E090E00E94F21C79
:101B800060E080E005C0E82FF0E0E55BFD4F80817C
:101B90000E94171E62E370E080E090E0CF910C9409
:101BA000F21CCF91089580910001882321F08FE1EC
:101BB00094E00C94590460E070E080EC9FE7089595
:101BC00080910001882321F08FE194E00C94D104EE
:101BD00060E070E080EC9FE70895823098F466231F
:101BE00019F0613039F00895E82FF0E0E65CFD4F20
:101BF00060E005C0E82FF0E0E65CFD4F61E0808129
:101C00000C94171E089591E0853008F090E0892F1C
:101C10000895CF93DF93EC0180910001882339F080
:101C20000E94FD06688379838A839B8304C018829F
:101C300019821A821B82DF91CF9108950F931F930F
:101C4000CF93DF93CDB7DEB727970FB6F894DEBFFB
:101C50000FBECDBF8C01809100018823B1F0CE0171
:101C600001960E94A7068F8190E08E54984FF8014C
:101C7000918380838E8182838D8183838B81848312
:101C80008A8185838981868308C0F8011182108248
:101C90001282138214821582168227960FB6F89448
:101CA000DEBF0FBECDBFDF91CF911F910F91089581
:101CB000CF93DF93CDB7DEB727970FB6F894DEBF8B
:101CC0000FBECDBFFC0180910001882399F0808177
:101CD000825B8F8382818E8383818D8384818B83DA
:101CE00085818A8386818983CE0101960E94A30B18
:101CF0000E948B0627960FB6F894DEBF0FBECDBFAD
:101D0000DF91CF91089520910001222329F0BC0199
:101D100084E094E00C941E07FC0188E09FEF91930F
:101D20008150E9F708958FE194E00C942C04CF9250
:101D3000DF92EF92FF920F931F93CF93DF93D82EF2
:101D400080910001882309F450C05AE0F52E0D2D32
:101D500010E06D2D8AE495E00E94DC1965E070E0EA
:101D600080E090E00E94F21CE0914A05F0914B0562
:101D70000190F081E02D60E08AE495E0099565E04E
:101D800070E080E090E00E94F21C60E08AE495E060
:101D90000E94E819811126C065E070E080E090E0C3
:101DA0000E94F21C43E050E0B8018AE495E00E94F2
:101DB0005C1A8330B9F465E070E080E090E00E9446
:101DC000F21CE12C8AE495E00E943B19039784F40D
:101DD00065E070E080E090E00E94F21CE39484E60D
:101DE000E812F0CFFA9409F0B4CFCFEFDFEF27C0BD
:101DF0008AE495E00E9443198AE495E00E94431921
:101E0000E82E8AE495E00E944319C82E61E08AE436
:101E100095E00E94E8198111E5CF65E070E080E06F
:101E200090E00E94F21CE0FAEE24E0F8DE2D80E063
:101E3000C82FCC2944E0CC0FDD1F4A95E1F7CE0135
:101E4000DF91CF911F910F91FF90EF90DF90CF9096
:101E5000089580910001882319F080E60C94970E74
:101E60008FEF9FEF089590910001992349F08530FD
:101E700050F4E82FF0E0E45CFD4F80810C94970E65
:101E80008FEF9FEF089580E090E00895CF930E9438
:101E9000290F4AE050E0BC0183E196E00E949820BF
:101EA000C0E060E283E196E00E94921F8C2F0E94C6
:101EB000330FBC014AE050E083E196E00E94982095
:101EC000CF5FC53071F783E196E00E94991F80E0F3
:101ED000CF910895CF93DF93CDE7D4E0CE010E9458
:101EE0002D01AB01BC012AE030E083E196E00E94C5
:101EF000B420A79685E0C034D80781F780E0DF9151
:101F0000CF910895CF93C0E08C2F0E941909BC0196
:101F10004AE050E083E196E00E949E20CF5FC5300A
:101F200099F780E0CF910895CF93C0E08C2F0E9465
:101F3000E80CBC014AE050E083E196E00E949E205C
:101F4000CF5FC53099F780E0CF91089562E572E0E8
:101F500083E196E00E94901F0E94E00DAB01BC015E
:101F600022E030E083E196E00E94B3216FE572E069
:101F700083E196E00E94901F0E94D30DAB01BC014B
:101F800022E030E083E196E00E94B32180E00895F2
:101F9000CF93DF9300D000D0CDB7DEB7CE0101964E
:101FA0000E94090E49815A816B817C8180912004B5
:101FB00090912104A0912204B0912304481B590B55
:101FC0006A0B7B0B2AE030E083E196E00E94B420AC
:101FD00080E00F900F900F900F90DF91CF910895B8
:101FE000EF92FF920F931F93CF93DF93F82EEB01A5
:101FF000229611E087E2E82E1F1590F489919991BD
:102000000E944729082F0E94030E882339F00E9D55
:10201000C001112483589B4F0E94C4011F5FECCF65
:1020200080E0DF91CF911F910F91FF90EF90089585
:10203000EF92FF920F931F93CF93DF93F82EEB0154
:10204000229611E097E2E92E1F1590F4899199915B
:102050000E944729082F0E94030E882339F00E9D05
:10206000C001112483589B4F0E94C9021F5FECCF0F
:1020700080E0DF91CF911F910F91FF90EF90089535
:10208000CF93DF9300D000D0CDB7DEB7CE0101965D
:102090000E948E0849815A816B817C812AE030E060
:1020A00083E196E00E94B42080E00F900F900F90A3
:1020B0000F90DF91CF91089569E672E083E196E099
:1020C0000E94901F4AE050E061E070E083E196E0FA
:1020D0000E9452206EE283E196E00E94921F4AE045
:1020E00050E061E070E083E196E00E945A206DE6E6
:1020F00072E083E196E00E94901F4AE050E061E0C8
:1021000070E083E196E00E9452206EE283E196E067
:102110000E94921F4AE050E060E070E083E196E0A8
:102120000E9452206EE283E196E00E94921F4AE0F4
:1021300050E061E070E083E196E00E945A2062E79F
:1021400072E083E196E00E94901F2AE030E04FEBBE
:102150005AEA60E478E583E196E00E94722068E73D
:1021600072E083E196E00E94901F6DE772E083E1E8
:1021700096E00E949D1F80E008950E94510880E033
:102180000895CF93823081F4FB01828193810E9474
:102190004729C82F0E94030E882321F0C0935D01B8
:1021A00080E003C083E001C082E0CF910895CF9327
:1021B0008230B1F4FB01828193810E944729C82FAC
:1021C0000E94030E882351F0F7E2CF9FC001112433
:1021D00083589B4F0E94230480E003C083E001C02A
:1021E00082E0CF9108950F931F93CF93DF93182F21
:1021F000EB018230A0F18A819B810E944729082F40
:102200000E94030E882339F1123059F427E2029F0D
:10221000E0011124C358DB4F40E65AEE60E070E065
:1022200013C01330D1F48C819D810E94472927E28D
:10223000029FE0011124C358DB4F28EE33E0DC019C
:102240000E941929AB01BC01CE010E945501CE01AB
:102250000E94770202C083E003C080E001C082E0F8
:10226000DF91CF911F910F9108951F93CF93DF932B
:10227000182FEB0181E08093480580E495E00E94EF
:102280005E0C113049F410924405109245051092ED
:1022900046051092470513C0123089F48A819B814C
:1022A0000E94472928EE33E0DC010E94192960933F
:1022B000440570934505809346059093470580E05B
:1022C000DF91CF911F910895CF93DF938230B9F4BE
:1022D000FB01C281D38162E872E0CE010E947529C0
:1022E000892B21F481E080935E0109C061E073E0F5
:1022F000CE010E947529892B11F410925E0180E0B5
:10230000DF91CF9108950F931F93CF93DF93EB014C
:10231000843099F58A819B810E944729182F0E9459
:10232000030E882351F162E272E08E819F810E9448
:10233000752901E0892B09F000E00C80DD81C02DBA
:1023400065E872E0CE010E947529892B41F487E28D
:10235000189FF0011124E358FB4F06830EC068E874
:1023600072E0CE010E947529892B39F087E2189F0F
:10237000F0011124E358FB4F078380E0DF91CF91F8
:102380001F910F9108958091490583FF06C06BE866
:1023900072E083E196E00E949D1F8091490582FFD3
:1023A00006C060E972E083E196E00E949D1F809183
:1023B000490581FF06C065E972E083E196E00E946D
:1023C0009D1F8091490580FF06C06BE972E083E1A3
:1023D00096E00E949D1F80E008950F931F93CF9376
:1023E000DF93082FEB018EEF800F823008F051C091
:1023F0008A819B810E944729182F0E94030E8823FF
:1024000009F445C0033061F50C80DD81C02D64EA1C
:1024100072E0CE010E947529892B61F427E2129F98
:10242000C001112460E083589B4F0E944E0160EA76
:1024300072E027C06BEA72E0CE010E947529892BF9
:1024400061F427E2129FC001112461E083589B4F81
:102450000E944E0167EA72E014C060EB72E011C0A6
:1024600027E2129FC001112483589B4F0E94300124
:10247000811103C064EA72E004C0813071F76BEA35
:1024800072E083E196E00E949D1F80E003C083E03C
:1024900001C082E0DF91CF911F910F910895CF93FA
:1024A000DF938130A1F40E947808811103C061E0BC
:1024B00073E031C0813019F464EA72E02CC08230DC
:1024C00019F46BEA72E027C06EEB72E024C0823030
:1024D00031F5FB01C281D38161E073E0CE010E943E
:1024E0007529892B11F480E011C064EA72E0CE01F5
:1024F0000E947529892B11F481E008C06BEA72E013
:10250000CE010E947529892B21F482E00E947C086B
:1025100006C060EC72E083E196E00E949D1F80E0BF
:10252000DF91CF910895CF93DF93EC01688179819A
:102530004AE050E083E196E00E94982060E283E167
:1025400096E00E94921F4AE050E06A8183E196E0A3
:102550000E94912060E283E196E00E94921F4AE08F
:1025600050E06B8183E196E00E94912060E283E17C
:1025700096E00E94921F4AE050E06C8183E196E071
:102580000E94912060E283E196E00E94921F4AE05F
:1025900050E06D8183E196E00E94912060E283E14A
:1025A00096E00E94921F4AE050E06E8183E196E03F
:1025B000DF91CF910C9491200F931F93CF93DF93D2
:1025C000CDB7DEB727970FB6F894DEBF0FBECDBFED
:1025D0008B01813061F18730C1F5FB0182819381EC
:1025E0000E9447299A838983F801848195810E94FA
:1025F00047298B83F801868197810E9447298C8324
:10260000F801808591850E9447298D83F801828594
:1026100093850E9447298E83F801848595850E94C1
:1026200047298F83CE0101960E94580E0CC0CE011F
:1026300001960E941E0ECE0101960E94931283E124
:1026400096E00E94991F80E001C082E027960FB6B5
:10265000F894DEBF0FBECDBFDF91CF911F910F91D8
:102660000895FF920F931F93CF93DF93EC01F12C0A
:102670008E0169916F7070E040E150E083E196E077
:102680000E945220F801608170E024E07595679502
:102690002A95E1F740E150E083E196E00E94522064
:1026A000F394F8E0FF12E4CFDF91CF911F910F91E7
:1026B000FF900895CF93DF93CDB7DEB728970FB67D
:1026C000F894DEBF0FBECDBFCE0101960E94830EEF
:1026D000CE0101960E94311383E196E00E94991F7A
:1026E00080E028960FB6F894DEBF0FBECDBFDF9115
:1026F000CF910895CF92DF92EF92FF920F931F93A5
:10270000CF93DF937C01C62E8A01D12CF4E0DF9EAB
:10271000E0011124CF5FDE4F88819981009769F035
:10272000F801608171810E947529892B21F40A804A
:10273000DB81C02D04C0D394E9CFC0E0D0E06DECC4
:1027400072E083E196E00E94901FB70183E196E07A
:102750000E94901F60E283E196E00E94921FF801C0
:102760006081718183E196E00E949D1F209729F08E
:10277000B8018C2DFE01099506C067ED72E083E17A
:1027800096E00E949D1F67EE72E083E196E0DF9184
:10279000CF911F910F91FF90EF90DF90CF900C940D
:1027A0009D1FBF92CF92DF92EF92FF920F931F93E4
:1027B000CF93DF93CDB7DEB760970FB6F894DEBF47
:1027C0000FBECDBFB12C85E294E07C0187012FEFD5
:1027D000E21AF20AF801C080DD24C7FCD094C601D9
:1027E0000E946D29892B91F7C6010E946529892BCA
:1027F000D1F0DD24D394DB0CFE013196EB0DF11DFD
:10280000EB0DF11D1183008378018701FFEFEF1AB3
:10281000FF0AF8018081992787FD90950E9465291C
:10282000892B99F7BD2CF8018081882399F0C80184
:1028300001961082F7E0FB1540F689819A81FC0130
:102840002081203451F46FEF6B0DAE014D5F5F4F6F
:10285000019609C0BB2049F0F0CFAE014F5F5F4F3A
:102860006B2D8CEE92E00E947A1360960FB6F8946E
:10287000DEBF0FBECDBFDF91CF911F910F91FF90B3
:10288000EF90DF90CF90BF9008951F93CF93DF9389
:102890008EEE92E090937E0480937D0410927F04EC
:1028A000109280041092810421E0209382042093EE
:1028B00083042093840481EF92E09093A504809395
:1028C000A4042093A6042093A7041092A8042093A4
:1028D000A9042093AA042093AB0484EF92E0909380
:1028E000CC048093CB0482E08093CD041092CF047B
:1028F0002093D0041092D1041092D20487EF92E07A
:102900009093F3048093F20483E08093F404109294
:10291000F8041092F9048AEF92E090931A058093DC
:10292000190584E080931B0510921F051092200565
:10293000CDE7D4E0CE010E94A401A79685E0C03483
:10294000D807C1F7CDE7D4E010E0812F0E945209EB
:102950008250823078F460E0812F0E945A09809181
:102960004905857021F0CE010E94C90203C0CE0145
:102970000E9491021F5FA796153039F7DF91CF9122
:102980001F9108958F929F92AF92BF92CF92DF9244
:10299000EF92FF920F931F93CF93DF93EC01062FDB
:1029A0000E948C09081720F0CE010E948C09082F84
:1029B00011E0C12CD12C76011017A8F4612FCE01A3
:1029C0000E9492094B015C016FEF610FCE010E94E2
:1029D0009209861A970AA80AB90AC80CD91CEA1CD7
:1029E000FB1C1F5FE9CF202F30E040E050E0C70123
:1029F000B6010E94E228CA01B901DF91CF911F916F
:102A00000F91FF90EF90DF90CF90BF90AF909F908D
:102A10008F90089529E288E190E00FB6F894A89588
:102A2000809360000FBE20936000A895C0E0C53081
:102A3000F0F461E080E00E940D0D61E081E00E9411
:102A40000D0D60E570E080E090E00E94F21C60E017
:102A500080E00E940D0D60E081E00E940D0D60E5B8
:102A600070E080E090E00E94F21CCF5FE0CF61E078
:102A700080E00E940D0D61E081E00E940D0D68EC88
:102A800070E080E090E00E94F21C60E080E00E9434
:102A90000D0D60E081E00E940D0D68EC70E080E0BB
:102AA00090E00E94F21CC0E0C4CF90915E01992397
:102AB00039F04AE050E0682F83E196E00C949120D1
:102AC00008950F931F93CF93DF9310E0812F0E94FF
:102AD0006209853070F085E193E00E9449058AE142
:102AE00093E00E94EB01812F0E9455158AE293E04A
:102AF00039C003E0812F0E94620961E0680F812FD5
:102B00000E946A0964E170E080E090E00E94F21C9B
:102B1000812F0E94330FEC0162E370E080E090E0CF
:102B20000E94F21C812F0E9462096FEF680F812FB3
:102B30000E946A0964E170E080E090E00E94F21C6B
:102B4000C938D34198F00150A9F685E193E00E947D
:102B500049058AE193E00E94EB01812F0E945515FF
:102B60008BE393E00E94EB010E9465051F5F153027
:102B700009F0ACCFDF91CF911F910F9108950F9382
:102B80001F93CF93DF9310E0812F0E94720985304D
:102B900070F085E193E00E9449058AE493E00E9489
:102BA000EB01812F0E9455158AE293E039C003E0C2
:102BB000812F0E94720961E0680F812F0E947A09BB
:102BC00064E170E080E090E00E94F21C812F0E949E
:102BD000E80CEC0162E370E080E090E00E94F21CFF
:102BE000812F0E9472096FEF680F812F0E947A096E
:102BF00064E170E080E090E00E94F21CC131D742B5
:102C000098F00150A9F685E193E00E9449058AE415
:102C100093E00E94EB01812F0E9455158BE393E016
:102C20000E94EB010E9465051F5F153009F0ACCFD3
:102C3000DF91CF911F910F9108950E9461150C941F
:102C4000BF15CF9384B78093490514BE88E10FB6B2
:102C5000F89480936000109260000FBE60EA7FE0FD
:102C600080E090E00E94F21C29E288E190E00FB63B
:102C7000F894A895809360000FBE20936000A895FB
:102C800040E051EE60E070E083E196E00E94571F63
:102C9000C8E061E080E00E940D0D64E670E080E035
:102CA00090E00E94F21C61E081E00E940D0D64E65C
:102CB00070E080E090E00E94F21C60E080E00E9402
:102CC0000D0D64E670E080E090E00E94F21C60E090
:102CD00081E00E940D0D64E670E080E090E00E94CB
:102CE000F21CC150B1F6A8950E943208811130C083
:102CF0000E94E4090E94300DC0E161E080E00E9482
:102D00000D0D64E170E080E090E00E94F21C61E053
:102D100081E00E940D0D64E170E080E090E00E948F
:102D2000F21C60E080E00E940D0D64E170E080E044
:102D300090E00E94F21C60E081E00E940D0D64E1D1
:102D400070E080E090E00E94F21CC150B1F602C039
:102D50000E94300D80E294E00E94090E80E294E02F
:102D60000E94DB080E949808A8958091490585700B
:102D700011F00E941D160E94451410925D011092E0
:102D8000240489E794E00E945E0C85E794E00E94A9
:102D90005E0C109248051092440510924505109261
:102DA000460510924705A895CF910895AB01BC0147
:102DB00080915E01882331F02AE030E083E196E0E3
:102DC0000C9484200895CF92DF92EF92FF921F938C
:102DD000CF93DF93EC0186E593E00E94490510E074
:102DE000CE010E948C09181760F488E292E00E94DC
:102DF000EB01612FCE010E9492090E94D6161F5F3F
:102E0000EFCF0E946505CE010E948C09823008F444
:102E100045C08EE593E00E94490511E0E12EF12CBA
:102E2000CE010E948C09853028F4CE010E948C09C5
:102E300090E002C084E090E0E816F906CCF4612F3F
:102E4000CE010E9492096B017C016FEF610FCE01F0
:102E50000E949209C61AD70AE80AF90A88E292E0A3
:102E60000E94EB01C701B6010E94D6161F5FD6CFA4
:102E700063E0CE010E94C214683C71058105910592
:102E800020F485E693E00E94EB01DF91CF911F9142
:102E9000FF90EF90DF90CF900C946505DF91CF917C
:102EA0001F91FF90EF90DF90CF9008950F931F93A5
:102EB000CF93DF9380915D010E94030E882391F0F0
:102EC00089E794E00E945E0C80915D0127E2829F79
:102ED000C001112483589B4F0E94F5018FEF80930E
:102EE0005D012DC040E355E760E070E089E794E0C4
:102EF0000E947E0C882319F10DE714E0C0E0D0E0B9
:102F0000C8010E9420018823A1F089E794E00E9473
:102F10005E0CC8010E94F501CE01880F991F8C0F2D
:102F20009D1F8B5F9B4FDF91CF911F910F910C9451
:102F3000E3162196095D1F4FC530D10509F7DF91D2
:102F4000CF911F910F91089520915E01222339F0B6
:102F50004AE050E0BC0183E196E00C94982008958B
:102F600090915E01992329F0682F83E196E00C94FB
:102F7000921F0895AB01BC0180915E01882331F05E
:102F800022E030E083E196E00C94B12108950F93A4
:102F90001F93CF93DF93CDB7DEB72F970FB6F8947B
:102FA000DEBF0FBECDBFCE0101960E94830E88E624
:102FB00093E00E944905CE0101960E9431130E94C0
:102FC000650562E370E080E090E00E94F21CCE01B3
:102FD00009960E941E0E8BE693E00E944905CE01E1
:102FE00009960E94931283E196E00E94991F62E382
:102FF00070E080E090E00E94F21C88E892E00E947D
:1030000049050E94290F0E94A41710E080E20E9447
:10301000B017812F0E94330F0E94A4171F5F153035
:10302000A9F70E94650562E370E080E090E00E94ED
:10303000F21C80E793E00E94490510E0812F0E9476
:10304000E80C0E94A41780E20E94B0171F5F1530A1
:10305000A9F70E94650562E370E080E090E00E94BD
:10306000F21C83E793E00E9449050E94E00D0E9454
:10307000BA1780E20E94B0170E94D30D0E94BA17BF
:103080000E94650562E370E080E090E00E94F21C1F
:1030900087E793E00E94490510E0812F0E941909FB
:1030A0000E94A41780E20E94B0171F5F1530A9F795
:1030B0000E94650562E370E080E090E00E94F21CEF
:1030C0008DE793E00E94490510E0812F0E94C1081E
:1030D00090915E01992341F0682F70E04AE050E042
:1030E00083E196E00E94522080E20E94B0171F5FA9
:1030F000153059F70E94650562E370E080E090E0CA
:103100000E94F21C88EB92E00E9449050DE714E052
:10311000C8010E943001811103C085E893E007C017
:10312000813019F489E893E002C08FE893E00E94AF
:10313000EB01095D1F4F84E00B3C180749F70E9423
:1031400065052F960FB6F894DEBF0FBECDBFDF9199
:10315000CF911F910F910895CF93C0E083E196E046
:103160000E94A01E181619069CF5C03F88F583E141
:1031700096E00E94B01EE091240491E09E0F90938F
:103180002404F0E0EB5DFB4F8083CF5F903560F06F
:103190001092240483E196E00E94A01E18161906DE
:1031A000ECF6C03F69F4DACF8A30C1F6E92FF0E0DF
:1031B000EB5DFB4F1082109224040E94D113CECFFE
:1031C00083E196E00E94B01E0A9741F2CF5FE2CF02
:1031D000CF910895CF93DF9380914805811102C06C
:1031E0000E945617CDE7D4E0CE010E941604A796A0
:1031F00085E0C034D807C1F7A8950E94AC1840E319
:1032000055E760E070E085E794E00E947E0C88233B
:1032100039F085E794E00E945E0CA8950E94C717DC
:1032200080914805882371F04091440550914505EF
:10323000609146057091470580E495E00E947E0C00
:10324000811117C080E00E94260D809148058823D7
:1032500039F080E00E94170D682F81E00E940D0D6B
:10326000A89568EC70E080E090E0DF91CF910C943D
:10327000F21C0E940A1580917A0590E020917B054E
:10328000821B9109089520917B0580917A0528176A
:1032900050F4E22FF0E0E458FA4F808190E02F5F85
:1032A00020937B0508958FEF9FEF0895E0917B05B4
:1032B00080917A05E81730F4F0E0E458FA4F808105
:1032C00090E008958FEF9FEF08950895CF92DF92D9
:1032D000EF92FF920F931F93CF93DF937C01CB016B
:1032E0008A0120915605222389F0EB016B01C40E5F
:1032F000D51ECC15DD0569F06991D701ED91FC91E2
:103300000190F081E02DC7010995F3CF642F0E9451
:10331000231BC801DF91CF911F910F91FF90EF9078
:10332000DF90CF900895CF93DF931F92CDB7DEB794
:103330006983209156052223D1F020915705203230
:1033400040F021E030E0FC013383228380E090E014
:1033500015C080915805E82FF0E0E75AFA4F99819F
:1033600090838F5F809358058093570505C061E077
:10337000CE0101960E94231B81E090E00F90DF9127
:10338000CF910895FC011382128248EE53E060E071
:1033900070E0448355836683778388ED93E091835F
:1033A0008083089510927B0510927A05109258053B
:1033B000109257050C94661A81E08093560560932D
:1033C0007905109258051092570508950C94DC1950
:1033D0000F93062F21E04091570569E575E0809134
:1033E00079050E94CC1A1092580510925705109238
:1033F00056050F9108958F929F92AF92BF92CF92F0
:10340000DF92EF92FF920F931F93CF93DF93EC0124
:10341000F62ED42E48015901EE2019F10E94DC1934
:103420001E2D143008F013E01150B8F0E881F98136
:1034300028E0129FB0011124A501940104C0569503
:103440004795379527956A95D2F7CA01B90101903A
:10345000F081E02DCE010995E7CF60E0CE010E941A
:10346000E8194D2D413208F040E22C2D6CE775E053
:103470008F2D0E94841A10927B0580937A05DF912C
:10348000CF911F910F91FF90EF90DF90CF90BF9061
:10349000AF909F908F900895CF92EF920F931F93CC
:1034A000C22EE12C00E010E098010E94FB191F9150
:1034B0000F91EF90CF90089521E00C944C1A61E0A9
:1034C0000C94E8198AE495E00C94C219109209064C
:1034D00081E0809307061092060661E082E00E9478
:1034E000171E61E083E00E94171EE9EBF0E0808187
:1034F0008E7F808380818D7F808388E48093B80075
:1035000085E48093BC000895413208F043C0909157
:1035100009069111FCCF91E09093090620930706CC
:103520002FEF20939C051092E105240F2093E005D6
:103530009093080690910806880F892B80930806BF
:1035400080910606813061F410920606809108068B
:103550008093BB008091BC0083FDF8CF85EC01C057
:1035600085EE8093BC00809109068130E1F3809163
:10357000E105841710F44091E10522EE35E0FB01EE
:10358000D9018A2F821B841718F48D918193F9CF6A
:10359000842F089580E008950F93413208F04AC0C7
:1035A000909109069111FCCF92E090930906009347
:1035B00007069FEF90939C051092E1054093E0056C
:1035C000FB0162EE75E0DB019A2F961B941718F44D
:1035D00091919D93F9CF1092080690910806880F5B
:1035E000892B8093080680910606813061F4109241
:1035F0000606809108068093BB008091BC0083FD85
:10360000F8CF85EC01C085EE8093BC00222321F029
:10361000809109068230E1F380919C058F3F61F033
:1036200080919C05803251F080919C05803341F45B
:1036300083E007C081E005C080E003C082E001C0F4
:1036400084E00F910895613298F4209109062430A6
:1036500089F46093BE05FC0180EC95E0DC012A2F23
:10366000281B261718F421912D93F9CF80E0089597
:1036700081E0089582E0089585ED8093BC008091FB
:10368000BC0084FDFCCF10920906089585EC809360
:10369000BC001092090608951F920F920FB60F9268
:1036A00011242F933F934F935F936F937F938F9347
:1036B0009F93AF93BF93EF93FF938091B900887F5F
:1036C000803609F49EC078F5883209F45DC090F424
:1036D000803109F456C038F4882309F4F5C08830E5
:1036E00009F44FC0F5C0883109F44EC0803209F4A6
:1036F0005FC0EEC0803409F46AC058F4803309F426
:1037000057C0883309F0E4C080939C050E94461B93
:10371000DFC0803509F44FC0883509F45DC08834B6
:1037200009F0D6C0D3C0883909F4C4C0A8F48837DA
:1037300009F467C038F4883609F463C0803709F4A7
:1037400060C0C6C0883809F4B5C0803909F45FC0CC
:10375000803809F0BDC05BC0803B09F483C038F4F9
:10376000803A09F466C0883A09F47CC0B1C0803C54
:1037700009F4A4C0883C09F4A1C0883B09F487C0BF
:10378000A7C08091080610C09091E1058091E005E6
:10379000981770F5E091E10581E08E0F8093E105C7
:1037A000F0E0EE51FA4F80818093BB0085EC83C03E
:1037B00080939C058BC0E091E10581E08E0F8093A2
:1037C000E1058091BB00F0E0EE51FA4F80839091CB
:1037D000E1058091E0056BC0E091E10581E08E0F8D
:1037E0008093E1058091BB00F0E0EE51FA4F8083B9
:1037F0008091070681116AC081E08093060684EA01
:103800005EC083E08093090610929D05CFCF809122
:103810009D05803208F04EC0E0919D0581E08E0F3D
:1038200080939D058091BB00F0E0E256FA4F8083C3
:10383000BDCF0E94461B80919D05803230F4E091FF
:103840009D05F0E0E256FA4F108260919D0570E010
:10385000E0910206F09103068EE995E00995109239
:103860009D0536C084E0809309061092BF05109232
:10387000BE05E0910406F091050609958091BE050C
:10388000811105C081E08093BE051092C005E091D2
:10389000BF0581E08E0F8093BF05F0E0E054FA4F42
:1038A00080818093BB009091BF058091BE059817E1
:1038B00008F47CCF85E88093BC000AC085EC809337
:1038C000BC001092090604C010929C050E943C1B8B
:1038D000FF91EF91BF91AF919F918F917F916F91E8
:1038E0005F914F913F912F910F900FBE0F901F90BE
:1038F00018951F920F920FB60F9211242F933F939A
:103900008F939F93AF93BF9380910B0690910C067A
:10391000A0910D06B0910E0630910A0623E0230F08
:103920002D3720F40196A11DB11D05C026E8230FF7
:103930000296A11DB11D20930A0680930B06909359
:103940000C06A0930D06B0930E0680910F06909181
:103950001006A0911106B09112060196A11DB11D8D
:1039600080930F0690931006A0931106B093120651
:10397000BF91AF919F918F913F912F910F900FBE6B
:103980000F901F9018952FB7F89460910B067091C7
:103990000C0680910D0690910E062FBF08953FB73B
:1039A000F89480910F0690911006A0911106B091A5
:1039B000120626B5A89B05C02F3F19F00196A11D40
:1039C000B11D3FBF6627782F892F9A2F620F711D77
:1039D000811D911D42E0660F771F881F991F4A9530
:1039E000D1F70895CF92DF92EF92FF92CF93DF93BA
:1039F0006B017C010E94CF1CEB01C114D104E104D6
:103A0000F10489F00E9407260E94CF1C6C1B7D0BDD
:103A1000683E734090F381E0C81AD108E108F108CC
:103A2000C851DC4FEACFDF91CF91FF90EF90DF904C
:103A3000CF900895789484B5826084BD84B5816008
:103A400084BD85B5826085BD85B5816085BDEEE6A6
:103A5000F0E0808181608083E1E8F0E01082808185
:103A600082608083808181608083E0E8F0E08081F3
:103A700081608083E1E9F0E08081826080838081E1
:103A800081608083E0E9F0E0808181608083E1EC07
:103A9000F0E0808184608083808182608083808187
:103AA00081608083E3ECF0E0808181608083E0ECE2
:103AB000F0E0808182608083E2ECF0E080818160D0
:103AC0008083EAE7F0E08081846080838081826087
:103AD0008083808181608083808180688083089575
:103AE000823108F08251E82FF0E0E653FF4FE49175
:103AF00080917B00E3FB222720F930E095E0220F44
:103B0000331F9A95E1F78F7D822B80937B00E770BE
:103B100080915F0120E4829FC0011124E82BE09393
:103B20007C0080917A00806480937A0080917A0092
:103B300086FDFCCF809178002091790090E0922B57
:103B4000089590E0FC013197EF30F105B0F5EA5AA5
:103B5000FF4F0C940429809180008F7703C08091DF
:103B600080008F7D80938000089580918000877F02
:103B7000F9CF84B58F7702C084B58F7D84BD089559
:103B8000809190008F7707C0809190008F7D03C057
:103B900080919000877F8093900008958091C0006D
:103BA0008F7703C08091C0008F7D8093C0000895FF
:103BB0008091C200877F8093C2000895CF93DF93E6
:103BC00090E0FC01EB50FF4F2491FC01EC5EFE4FB6
:103BD0008491882349F190E0880F991FFC01E15BF3
:103BE000FE4FA591B4918F5B9E4FFC01C591D4917E
:103BF0009FB7611108C0F8948C91209582238C9313
:103C0000888182230AC0623051F4F8948C91322F5B
:103C1000309583238C938881822B888304C0F89409
:103C20008C91822B8C939FBFDF91CF9108950F933E
:103C30001F93CF93DF931F92CDB7DEB7282F30E0CD
:103C4000F901EA52FF4F8491F901EB50FF4F1491B3
:103C5000F901EC5EFE4F04910023C9F0882321F0A6
:103C600069830E94A11D6981E02FF0E0EE0FFF1F24
:103C7000EF5BFE4FA591B4919FB7F8948C916111C1
:103C800003C01095812301C0812B8C939FBF0F909F
:103C9000DF91CF911F910F910895CF93DF93282F3C
:103CA00030E0F901EA52FF4F8491F901EB50FF4FE8
:103CB000D491F901EC5EFE4FC491CC2391F08111B7
:103CC0000E94A11DEC2FF0E0EE0FFF1FED5CFE4FF8
:103CD000A591B4912C912D2381E090E021F480E016
:103CE00002C080E090E0DF91CF910895CF93DF9301
:103CF0001F92CDB7DEB76983DC01ED91FC910280A4
:103D0000F381E02D41E050E0BE016F5F7F4F0995E8
:103D10000F90DF91CF910895CF93DF93EC018C85C5
:103D20009D8597FF05C082E00E94D6229D878C87E3
:103D30008C859D85DF91CF91089583E00C9451256A
:103D4000FC018485958597FD06C082E00E947E2255
:103D500090E00196089582E00E947E2290E008950E
:103D6000FC018485958597FD05C02FEF3FEF3587D2
:103D70002487089582E00C94D622CF93DF93EC0140
:103D800080916B01882331F083E00E94072318168D
:103D9000190634F081E090E09B838A8380E090E014
:103DA000DF91CF910895FC0120812E5F208342E4B2
:103DB00050E06DE571E080E80C94A223FC012181C4
:103DC0008081813A59F4213209F05CC047E050E02B
:103DD00064E671E080E00E94A22367C0813209F0AE
:103DE00051C0233289F4838190E0982F8827328153
:103DF000832BA0E0B0E08093600190936101A093D9
:103E00006201B09363010FC0203239F467E070E0C3
:103E100084E691E00E94D3230AC0223221F48281F9
:103E200080936B0104C02D7F203209F03EC0809149
:103E3000640190916501A0916601B0916701803B9A
:103E40009440A105B10501F580916B0180FD1CC076
:103E500080910008909101089093FF0A8093FE0AD8
:103E600087E797E790930108809300082BE088E1AB
:103E700090E00FB6F894A895809360000FBE209351
:103E8000600013C080E0089588E10FB6F894809335
:103E90006000109260000FBEA8958091FE0A90917C
:103EA000FF0A909301088093000881E008952FEFA6
:103EB0003FEFFC0135872487089510921606109273
:103EC000150688EE93E0A0E0B0E08093170690938B
:103ED0001806A0931906B0931A0688EE93E0909303
:103EE0001406809313068FEF9FEF90932006809324
:103EF0001F0608956115710581F0DB010D9000200A
:103F0000E9F7AD0141505109461B570BDC01ED911A
:103F1000FC910280F381E02D099480E090E0089507
:103F20000C947A1FDC01ED91FC910190F081E02D61
:103F3000099464EF73E00C947A1F0F931F93CF934F
:103F4000DF93EC010E947A1F8C01CE010E94991F21
:103F5000800F911FDF91CF911F910F9108958F9244
:103F60009F92AF92BF92CF92DF92EF92FF920F9308
:103F70001F93CF93DF93CDB7DEB7A1970FB6F89419
:103F8000DEBF0FBECDBF7C01C42EE52FCB01D22EEC
:103F900019A221E02D1510F02AE0D22E8E010F5D1E
:103FA0001F4F8D2C912CA12CB12C6C2D7E2FA50197
:103FB00094010E94E2288C2DD29E80191124015078
:103FC00011098A3014F4805D01C0895CF801808396
:103FD000211531054105510521F0C22EE32FCA01FB
:103FE000E4CFB801C7010E947A1FA1960FB6F894DA
:103FF000DEBF0FBECDBFDF91CF911F910F91FF901C
:10400000EF90DF90CF90BF90AF909F908F900895EA
:10401000CF92DF92EF92FF920F931F93CF93DF9394
:10402000EC016A017B012115310579F4E881F98100
:104030000190F081E02D642FDF91CF911F910F91BE
:10404000FF90EF90DF90CF9009942A303105E9F48A
:1040500077FF1AC06DE20E94921F8C0144275527FA
:10406000BA014C195D096E097F092AE0CE010E9450
:10407000AF1F800F911FDF91CF911F910F91FF9084
:10408000EF90DF90CF9008952AE0B701A601CE010E
:10409000DF91CF911F910F91FF90EF90DF90CF9024
:1040A0000C94AF1F9A01AB01662757FD6095762FE0
:1040B0000C9408200F931F93CF93DF93EC019A0188
:1040C000AB01662757FD6095762F0E9408208C0172
:1040D000CE010E94991F800F911FDF91CF911F91F8
:1040E0000F9108950F931F93CF93DF93EC010E94DC
:1040F00008208C01CE010E94991F800F911FDF9133
:10410000CF911F910F9108952115310541F4DC01E4
:10411000ED91FC910190F081E02D642F09940C94B5
:10412000AF1F9A01462F50E060E070E00C948420AD
:104130009A01AB0160E070E00C9484200F931F9310
:10414000CF93DF93EC019A01AB0160E070E00E9435
:1041500084208C01CE010E94991F800F911FDF9156
:10416000CF911F910F9108950F931F93CF93DF93DA
:10417000EC010E9484208C01CE010E94991F800FC7
:10418000911FDF91CF911F910F9108954F925F92F0
:104190006F927F928F929F92AF92BF92CF92DF9257
:1041A000EF92FF920F931F93CF93DF93EC016A017D
:1041B0007B01B22E9A01AB01C701B6010E94BE2855
:1041C000882319F067EF73E027C026013701E894D0
:1041D00077F82FEF3FEF4FE75FE7C301B2010E948F
:1041E000BE2881110DC02FEF3FEF4FE75FE7C301FE
:1041F000B2010E94082718161CF46BEF73E00CC084
:104200002FEF3FEF4FE75FE4C701B6010E94572849
:104210001816ACF46FEF73E0CE01DF91CF911F91D0
:104220000F91FF90EF90DF90CF90BF90AF909F9055
:104230008F907F906F905F904F900C947A1F2FEF2C
:104240003FEF4FE75FECC701B6010E94082787FDEB
:10425000E1CF20E030E0A901C701B6010E940827A4
:1042600087FF0AC06DE2CE010E94921F8C01F7FA0F
:10427000F094F7F8F09402C000E010E0A12C60E0A8
:1042800070E080E09FE3AB1441F020E030E040E2DA
:1042900051E40E940C27A394F6CF9B01AC01C70107
:1042A000B6010E94A4266B017C010E9479272B0194
:1042B0003C010E94A5279B01AC01C701B6010E94E9
:1042C000A3266B017C012AE0B301A201CE010E946A
:1042D000AF1F080F191FBB2039F068E473E0CE014F
:1042E0000E947A1F080F191F7B2C772041F120E0D4
:1042F00030E040E251E4C701B6010E945B286B0147
:104300007C010E9474274B01AA2497FCA094BA2C2C
:104310002AE030E0B501A401CE010E940820080F78
:10432000191FC501B4010E94A7279B01AC01C70159
:10433000B6010E94A3266B017C017A94D6CFC801F6
:10434000DF91CF911F910F91FF90EF90DF90CF9071
:10435000BF90AF909F908F907F906F905F904F90A5
:1043600008950C94C6200F931F93CF93DF93EC0115
:104370000E94C6208C01CE010E94991F800F911FC0
:10438000DF91CF911F910F910895615030F02091EE
:10439000F100FC0120830196F8CF289A84E68093EF
:1043A0006C06089540916706509168062091650655
:1043B0003091660642175307B4F49091E800957067
:1043C000E1F39091E80092FD19C08093F100809193
:1043D00067069091680601968F739927892B19F4C7
:1043E0008EEF8093E80080916706909168060196B1
:1043F000909368068093670681E0089580E00895B1
:10440000CF92DF92EF92FF920F931F93CF93DF93A0
:104410001F92CDB7DEB7082F162FF42E862F880FE8
:104420008E5F99830E94D22183E00E94D221E02EE8
:10443000C02E9981D92E8C2D8E19811798F4F601F2
:10444000F7FE02C0849101C080810E94D221082F12
:1044500080E00E94D2218023FFEFCF1ADF0A811172
:10446000EACF01C081E00F90DF91CF911F910F91B2
:10447000FF90EF90DF90CF9008958091D7008160FA
:104480008093D70080EA8093D80089B5806189BD88
:1044900089B5826089BD09B400FEFDCF61E070E09E
:1044A00080E090E00E94F21C8091D8008F7C8061B7
:1044B0008093D8008091E000807F8093E000089591
:1044C000CF93DF931F92CDB7DEB71982CE0101964D
:1044D0000E94D31E0E948F26BE016F5F7F4F0E94F5
:1044E000082689810F90DF91CF9108952FB7FC01A5
:1044F0002083F89467706093E9000895CF93DF9369
:104500001F92CDB7DEB7682FCE0101960E947622AA
:104510008091F20099819FBF0F90DF91CF91089514
:10452000FF920F931F93CF93DF9300D0CDB7DEB7E9
:10453000F62E8A0190916B06992311F057FF03C064
:104540008FEF9FEF2BC0682FCE0101967A830E94D8
:1045500076228091F20090E0A8017A81801791077D
:104560000CF4AC01EF2DF72FF40E84E6FE1639F0B3
:10457000289A80936C069091F1009193F7CF4115A2
:10458000510521F08091F200882321F089818FBFAD
:10459000CA0104C08BE68093E800F8CF0F900F901B
:1045A000DF91CF911F910F91FF900895CF93DF93EB
:1045B0001F92CDB7DEB741E050E0BE016F5F7F4F85
:1045C0000E949022019719F4898190E002C08FEF38
:1045D0009FEF0F90DF91CF910895CF93DF931F92BC
:1045E000CDB7DEB7682FCE0101960E94762290915A
:1045F000E800892F807295FF04C09091F20080E45A
:10460000891B99819FBF0F90DF91CF9108956F9281
:104610007F928F929F92AF92BF92CF92DF92EF9252
:10462000FF920F931F93CF93DF931F92CDB7DEB707
:10463000782E7B01C42EB52E80916B06882369F0FD
:10464000042F152F8AEFD82E872D8072982E9AE38B
:10465000A92E872D8074882E11C08FEF9FEF57C031
:10466000872D0E94ED22682E81110CC0DA94A9F3E7
:1046700061E070E080E090E00E94F21C01151105FD
:1046800079F73BC0282F30E0021713070CF4602E97
:10469000672DCE0101960E9476228091E80085FF69
:1046A00029C0262D30E0021B130B992039F06A94A3
:1046B0008FEF6816B1F01092F100F9CFF701862D57
:1046C00077FE07C0815058F094919093F100319695
:1046D000F9CF815020F091919093F100FACFE20E42
:1046E000F31E8091E80085FF0FC00115110511F43C
:1046F00081100AC089818FBFC1CF5D9A84E6809303
:104700006D068C2D9B2D03C0A092E800F3CF0F9077
:10471000DF91CF911F910F91FF90EF90DF90CF909D
:10472000BF90AF909F908F907F906F900895109260
:10473000E9001092680610926706909366068093CF
:1047400065060895CF92DF92FF920F931F93CF9348
:10475000DF9300D0CDB7DEB7F82E8A016B010115CB
:104760001105B1F0F601F7FE02C0849101C080810D
:1047700049835A830E94D22101501109FFEFCF1AB9
:10478000DF0A49815A818111EACF8FEF9FEF01C083
:10479000CA010F900F90DF91CF911F910F91FF9061
:1047A000DF90CF9008951F93CF93DF931F92CDB7E3
:1047B000DEB7162F2091E80022FFFCCF612F79830E
:1047C0000E94C5218BEF8093E800812F7981972F7C
:1047D0000F90DF91CF911F9108951F920F920FB606
:1047E0000F921124DF92EF92FF920F931F932F935A
:1047F0003F934F935F936F937F938F939F93AF9369
:10480000BF93EF93FF93CF93DF93CDB7DEB76C9752
:10481000DEBFCDBF1092E9008091E80083FF23C185
:1048200068E0CE0145960E94C52182EF8093E800A2
:104830003D8937FF05C08091E80080FFFCCF03C0B1
:104840008EEF8093E800832F807609F0F0C02E89E8
:104850004F89D88C21110CC0303829F480916A0618
:104860008093F10002C01092F1001092F100F4C0A8
:10487000842F90E09D29213049F43111EDC001973A
:1048800009F0EAC080916A068D7F0AC0233059F48E
:104890003111E2C0019709F0DFC080916A068260A1
:1048A00080936A06D9C0253041F48091E80080FFEA
:1048B000FCCF40684093E300CFC0263009F08DC0A4
:1048C000EB8CFC8C22E0D2122CC080E090E00E94A5
:1048D00097230E94602299E08E010F5F1F4FF8011D
:1048E000292F11922A95E9F79983DA8291E09E8324
:1048F00090EA98879AEF9987209167063091680629
:10490000275F3F4F3C832B838D83C7010E949723F2
:1049100049E050E0B80180E00E94A2230E9460229A
:104920009BC0C7010E9497230E948F26BE016B5E29
:104930007F4F0E943126009719F00CF08DC090C077
:1049400081E0D8120EC08B8D9C8D089719F481E000
:10495000809364068091640681112FC061EB71E041
:1049600031C0E3E0DE127CC08F89882349F18230B8
:1049700029F440E86DE08FEC91E01CC0813029F40F
:1049800040E86BE083EC91E015C0833009F068C02B
:104990000E948F268E010F5F1F4FB8010E94502684
:1049A000F80101900020E9F73197E01BF10B40E09E
:1049B0006E2FC8010E9400224DC06FE971E002C055
:1049C0006DED71E06115710509F44AC0FB01449178
:1049D00050E080E80E94A2233FC0273009F440C085
:1049E000283021F481E08093F10036C02930A1F510
:1049F0003370B1F5EDE6F1E081E021E036E390813E
:104A0000992361F08093E9002093EB0091919093BA
:104A1000EC003093ED008F5F873089F78EE780934D
:104A2000EA001092EA008F8980936B0615C08B8D87
:104A30009C8D0E949723898D811105C0CE014596DA
:104A40000E94DE1E07C00E948F26BE016B5E7F4F54
:104A50000E946F26882321F08EEF8093E80003C028
:104A600081E28093EB006C960FB6F894DEBF0FBE28
:104A7000CDBFDF91CF91FF91EF91BF91AF919F910A
:104A80008F917F916F915F914F913F912F911F91E6
:104A90000F91FF90EF90DF900F900FBE0F901F903F
:104AA00018958093E9008091F200882319F08AE339
:104AB0008093E80008951F920F920FB60F92112471
:104AC0002F933F934F935F936F937F938F939F9316
:104AD000AF93BF93CF93EF93FF93C091E100809189
:104AE000E100837F8093E1008093E100C3FF0FC06A
:104AF0001092E90081E08093EB001092EC0082E3D9
:104B00008093ED0010926B0688E08093F000C2FF66
:104B100019C083E00E94512580916D06882339F0E9
:104B200080916D06815080936D06882389F1809174
:104B30006C06882339F080916C06815080936C0656
:104B4000882341F1C4FF10C08091E2008E7E816015
:104B50008093E2008091E1008F7E8093E10080915C
:104B600069068E7E806111C0C0FF16C08091E20090
:104B70008E7E80618093E2008091E1008E7E809342
:104B8000E100809169068E7E81608093690604C091
:104B90005D98CDCF2898D6CFFF91EF91CF91BF915F
:104BA000AF919F918F917F916F915F914F913F91C5
:104BB0002F910F900FBE0F901F90189510926B06BB
:104BC00010926A06109269060E943D22E1EEF0E022
:104BD00080818E7E80838DE08093E200559A209ABA
:104BE0005D982898089508950E941A1D0E94F32543
:104BF00083E696E00E94DE250E942116C0E0D0E008
:104C00000E94EA182097E1F30E940000F9CF08956E
:104C1000EF92FF920F931F93CF93DF937B01FC01E1
:104C2000C281D38100E010E0209781F0E881F98112
:104C30000280F381E02DB701CE01099597FD08C0F0
:104C4000080F191F0884D985C02DEECFC80102C0F6
:104C50008FEF9FEFDF91CF911F910F91FF90EF901A
:104C600008950F931F93CF93DF938B01FC01C281B3
:104C7000D381209771F0E881F9810480F581E02DDE
:104C8000B801CE010995009731F40884D985C02D6B
:104C9000F0CF80E090E0DF91CF911F910F910895C8
:104CA0000F931F93CF93DF938B01FC01C281D381BC
:104CB000209771F0E881F9810680F781E02DB80135
:104CC000CE010995080F111D0884D985C02DF0CF9C
:104CD000F8011082DF91CF911F910F9108950F93EA
:104CE0001F93CF93DF938B01FC01C281D381209767
:104CF00071F0E881F9810190F081E02DB801CE01D9
:104D00000995811106C00884D985C02DF0CF80E0B7
:104D100001C081E0DF91CF911F910F9108958091A3
:104D2000720681110DC082E080936E0684E080934C
:104D30006F06109271061092700681E080937206E1
:104D40008EE696E008955058BB27AA270ED075C16D
:104D500066D130F06BD120F031F49F3F11F41EF496
:104D60005BC10EF4E095E7FB51C1E92F77D180F3E9
:104D7000BA17620773078407950718F071F49EF558
:104D80008FC10EF4E0950B2EBA2FA02D0B01B901A7
:104D900090010C01CA01A0011124FF27591B99F0B1
:104DA000593F50F4503E68F11A16F040A22F232FBD
:104DB000342F4427585FF3CF469537952795A7950D
:104DC000F0405395C9F77EF41F16BA0B620B730BB4
:104DD000840BBAF09150A1F0FF0FBB1F661F771F25
:104DE000881FC2F70EC0BA0F621F731F841F48F4DA
:104DF000879577956795B795F7959E3F08F0B3CF60
:104E00009395880F08F09927EE0F97958795089549
:104E1000D9D008F481E008950CD00FC107D140F03B
:104E2000FED030F021F45F3F19F0F0C0511139C1CC
:104E3000F3C014D198F39923C9F35523B1F3951B0B
:104E4000550BBB27AA2762177307840738F09F5FAB
:104E50005F4F220F331F441FAA1FA9F333D00E2E1A
:104E60003AF0E0E830D091505040E695001CCAF787
:104E700029D0FE2F27D0660F771F881FBB1F26174C
:104E800037074807AB07B0E809F0BB0B802DBF011F
:104E9000FF2793585F4F2AF09E3F510568F0B6C038
:104EA00000C15F3FECF3983EDCF3869577956795FC
:104EB000B795F7959F5FC9F7880F911D96958795D0
:104EC00097F90895E1E0660F771F881FBB1F6217EF
:104ED00073078407BA0720F0621B730B840BBA0BAD
:104EE000EE1F88F7E095089504D06894B111D9C0F9
:104EF0000895BCD088F09F5790F0B92F9927B751EB
:104F0000A0F0D1F0660F771F881F991F1AF0BA958D
:104F1000C9F712C0B13081F0C3D0B1E00895C0C06C
:104F2000672F782F8827B85F39F0B93FCCF3869583
:104F300077956795B395D9F73EF4909580957095E0
:104F400061957F4F8F4F9F4F0895E89409C097FB5D
:104F50003EF490958095709561957F4F8F4F9F4F50
:104F60009923A9F0F92F96E9BB279395F695879594
:104F700077956795B795F111F8CFFAF4BB0F11F457
:104F800060FF1BC06F5F7F4F8F4F9F4F16C08823FE
:104F900011F096E911C0772321F09EE8872F762F34
:104FA00005C0662371F096E8862F70E060E02AF075
:104FB0009A95660F771F881FDAF7880F9695879561
:104FC00097F90895990F0008550FAA0BE0E8FEEF36
:104FD00016161706E807F907C0F012161306E407BD
:104FE000F50798F0621B730B840B950B39F40A26B6
:104FF00061F0232B242B252B21F408950A2609F494
:10500000A140A6958FEF811D811D089597F99F6797
:1050100080E870E060E008959FEF80EC0895002440
:105020000A941616170618060906089500240A940D
:1050300012161306140605060895092E0394000C93
:1050400011F4882352F0BB0F40F4BF2B11F460FF22
:1050500004C06F5F7F4F8F4F9F4F089557FD90584B
:10506000440F551F59F05F3F71F04795880F97FB2C
:10507000991F61F09F3F79F08795089512161306E6
:105080001406551FF2CF4695F1DF08C01616170615
:105090001806991FF1CF869571056105089408954A
:1050A000E894BB2766277727CB0197F908958ADF15
:1050B00008F48FEF08950BD0C0CFB1DF28F0B6DF32
:1050C00018F0952309F0A2CFA7CF1124EACFC6DFAD
:1050D000A0F3959FD1F3950F50E0551F629FF0010B
:1050E000729FBB27F00DB11D639FAA27F00DB11D64
:1050F000AA1F649F6627B00DA11D661F829F2227ED
:10510000B00DA11D621F739FB00DA11D621F839F73
:10511000A00D611D221F749F3327A00D611D231F49
:10512000849F600D211D822F762F6A2F11249F5797
:1051300050408AF0E1F088234AF0EE0FFF1FBB1FBA
:10514000661F771F881F91505040A9F79E3F510559
:1051500070F05CCFA6CF5F3FECF3983EDCF3869512
:1051600077956795B795F795E7959F5FC1F7FE2B04
:10517000880F911D9695879597F9089523DF880BE1
:10518000990B0895991B79E004C0991F961708F0B0
:10519000961B881F7A95C9F78095089597FB072E6F
:1051A00016F4009407D077FD09D00E94332907FC3C
:1051B00005D03EF4909581959F4F08957095619527
:1051C0007F4F0895A1E21A2EAA1BBB1BFD010DC043
:1051D000AA1FBB1FEE1FFF1FA217B307E407F507A7
:1051E00020F0A21BB30BE40BF50B661F771F881F83
:1051F000991F1A9469F760957095809590959B0119
:10520000AC01BD01CF010895EE0FFF1F0590F49191
:10521000E02D0994A29FB001B39FC001A39F700D20
:10522000811D1124911DB29F700D811D1124911DAE
:1052300008950E940A29B7FF0895821B930B0895D1
:105240000E940A29A59F900DB49F900DA49F800DE8
:10525000911D11240895B7FF0C9420290E94202944
:10526000821B930B0895AA1BBB1B51E107C0AA1F09
:10527000BB1FA617B70710F0A61BB70B881F991FF7
:105280005A95A9F780959095BC01CD010895FC0130
:1052900088279927E89421912032E9F3293010F0EA
:1052A0002E30C8F32B3241F02D3239F4689404C00B
:1052B0000E947E29820F911D219120532A30C0F334
:1052C0001EF4909581959F4F0895803209F09111B9
:1052D00033C080528F55E0F7089591112DC0803270
:1052E00019F089508550D0F70895FB01DC018D91AC
:1052F000019080190110D9F3990B08957AE0979FD6
:10530000902D879F802D910D11240895F999FECF3E
:1053100092BD81BDF89A992780B50895262FF999F5
:10532000FECF1FBA92BD81BD20BD0FB6F894FA9A88
:10533000F99A0FBE01960895992788270895F89441
:02534000FFCF9D
:10534200019301D7109203C1109803F310C00335E3
:105352001168035A138802460F85026A0F7303A667
:105362000F9D03ED117003940F6B03DC12A003C3B6
:1053720011A303820FA603C80FA903F00FB00318ED
:1053820010B80383115A036411BE03BD10C6034053
:1053920010CC035C10D0034F1200000000FF01018B
:1053A200FFFFFFFF00E100000000000000C180815C
:1053B2000000007072696D617279007365636F6ECF
:1053C20064617279007374617274696E672000732C
:1053D200746F7070696E67006B696C6C696E6700E0
:1053E2007374617274696E672074696D656F757428
:1053F2000063757272656E74206E6F726D616C00FF
:1054020063757272656E74206C6F77006375727269
:10541200656E7420686967680063757272656E7480
:105422002073747265737365640068656172746277
:105432006561742074696D656F757400756E6D6158
:105442006E61676564207377697463680073746F53
:10545200702074696D656F7574006865617274623D
:10546200656174006C6F673A2000A1ADA1AD1F1C8D
:105472001F1E1F1E1F1F1E1F1E1F011562686A634B
:105482006B00000102030507160B170406080A0C3D
:105492000D0974656D70657261747572653D0068A1
:1054A200756D69646974793D00687720006B657277
:1054B200200074696D6520006769742000343838F3
:1054C20031006F6E006862006375005744524600F7
:1054D200424F524600455854524600504F524600E1
:1054E2007365742073640073657420656D6D630069
:1054F200696E76616C6964206D65646961003F0064
:10550200696E76616C6964206D6F6465003C3C3C39
:105512002D207369643D00696E76616C6964206355
:105522006F6D6D616E64002D3E3E3E0030006E6315
:1055320000676E0063730078310078320062616345
:105542006B6F6666006261636B696E67206F666689
:10555200206F662000706F73740063757272656EDF
:10556200742073656E736F72200020746F6F206DEC
:10557200616E79206661756C747300206F7574209A
:105582006F662072616E67652E00746865726D6960
:1055920073746F722000626F6F746C6F6700626F5A
:1055A2006F74647400202100696400646174650092
:1055B200746800656E76006661696C7300656E6181
:1055C200626C65640073642000656D6D6320003F4A
:1055D200200073746172740073746F7000627300E0
:1055E200626600666300757000656E61626C6500DC
:1055F20064697361626C65007761746368006565F4
:10560200726573657400626F6F7473007665720001
:10561200626C660000000000931966193B19431979
:105622005619651900000000761EBD1EA01EB01E90
:105632008C1E9D1E0D0A006E616E00696E66006F03
:045642007666000088
:00000001FF
