:100000000C94F6000C941E010C941E010C941E011D
:100010000C941E010C941E010C941E010C941E01E4
:100020000C941E010C941E010C9485250C9417242D
:100030000C941E010C941E010C941E010C941E01C4
:100040000C941E010C941E010C941E010C941E01B4
:100050000C94A80C0C941E010C941E010C94A31C6F
:100060000C941E010C941E010C941E010C941E0194
:100070000C941E010C941E010C941E010C941E0184
:100080000C941E010C941E010C941E010C941E0174
:100090000C94761B0C941E010C941E010C941E01F2
:1000A0000C941E010C941E010C941E01E31DE61D10
:1000B000D51DD91DDF1D071E071E071EEA1DEE1DDB
:1000C000F21DF81DFC1D071E021E07060504010097
:1000D000080A0B0C0D090000000200090F000003C4
:1000E0000401000C000000000000000000000000FF
:1000F0000000000000040802011040804010204071
:10010000804080080204018040201002011080100D
:1001100020404020040404040403040502020202F7
:100120000403020202020606060606060404020290
:10013000020404000000002300260029002C002FE8
:100140000000000000250028002B002E00310000D8
:10015000000000240027002A002D003000080B00BA
:10016000020202010009040000010202000005244D
:1001700000100105240101010424020605240600E3
:10018000010705810310004009040100020A000074
:10019000000705020240000007058302400000122C
:1001A000010002EF020140412337800001010203F8
:1001B00001120100020000004041233780000101CC
:1001C00002030141726475696E6F204C4C4300411B
:1001D000726475696E6F204D6963726F0004030964
:1001E00004000106A60A970E8C1A871F11241FBE51
:1001F000CFEFDAE0DEBFCDBF14E0A0E0B1E0E6E98A
:10020000F3E502C005900D92AC30B107D9F726E0B6
:10021000ACE0B4E001C01D92A238B207E1F711E0F2
:10022000CCEED1E004C02297FE010E943029C23EEC
:10023000D107C9F70E941E260C94C9290C9400000E
:10024000FC012285213039F4478D50A161A172A1B2
:1002500043960C94820C80E008954B960C946E0C9F
:10026000CF93DF93EC018885882311F0898513C033
:100270008B85882341F08A810E941D09837099270C
:10028000039741F405C08A810E94E40880FF02C000
:100290008D8101C08C81DF91CF910895FC0181E0B7
:1002A0008087618783810C94F10DFC0143A354A3E3
:1002B00065A376A308951F93CF93DF93EC018A8102
:1002C0000E94370F8F3F2FEF9207C9F088379105B3
:1002D00048F08C3221E0920738F08235934030F4B8
:1002E00011E005C012E003C010E001C013E08E85EC
:1002F000181729F0CE010F960E94620C1E87DF911D
:10030000CF911F9108950F931F93CF93DF931F9267
:10031000CDB7DEB78C01439669830E94620CC80199
:1003200047960E94620CC8014B960E94620CC8015D
:100330000F960E94620C6981F80162870F90DF912D
:10034000CF911F910F910895CF93DF93EC01188601
:10035000198682E08E871F8E18A219A21AA240E683
:100360005AEE60E070E04BA35CA36DA37EA38A818C
:100370000E94C508882311F061E001C060E0CE0151
:10038000DF91CF910C948301CF93DF93EC0161E077
:100390008A810E94BC0861E0CE010E94830180E056
:1003A000DF91CF910895CF93DF93EC018A81811182
:1003B0000FC040E65AEE60E070E0CE0143960E9426
:1003C000820C882329F0CE01DF91CF910C94C401D7
:1003D000DF91CF91089520916201222329F0BC0181
:1003E0008BE196E00C94BA1F0895FF920F931F9330
:1003F000CF93DF9300D000D0CDB7DEB78C01FC01E6
:100400008285813009F068C082810E941D0921E047
:100410004E9708F020E0F8012387C8010E943001C0
:10042000F82EF8011086682F83810E94F10DF801E3
:10043000808191810E944D0589E891E00E94EB0145
:10044000F8018481F81203C087E791E002C08FE7CA
:1004500091E00E94EB010E946905F80182810E94EF
:100460001209CE0101960E940D0E49815A816B81BD
:100470007C81F801228130E0C901880F991F820F29
:10048000931F835F9B4F0E94600A62E0F8018281A4
:100490000E945E096AE070E080E090E00E941C1D0E
:1004A00061E0F80182810E94A10D64EF71E080E0BB
:1004B00090E00E941C1D61E0F80182810E945E09AB
:1004C0006AE070E080E090E00E941C1D63E0C801DB
:1004D0000E94830180E001C081E00F900F900F9097
:1004E0000F90DF91CF911F910F91FF900895CF93BF
:1004F000DF93EC018A85833081F4888199810E94A1
:100500004D0583E991E00E94EB010E94690564E0DA
:10051000CE010E94830180E001C081E0DF91CF9194
:100520000895CF93DF93EC018A85882391F1888128
:1005300099810E944D058CE991E00E94EB010E9497
:10054000690563E08A810E945E096AE070E080E0EC
:1005500090E00E941C1D60E08A810E94A10D64EF62
:1005600071E080E090E00E941C1D60E08A810E94A2
:100570005E096AE070E080E090E00E941C1D61E08E
:10058000CE010E94830181E894E00E94620C80E029
:1005900001C081E0DF91CF910895CF93DF93EC010B
:1005A0008A81882319F060E00E94BC08CE010E9475
:1005B00091028A81882321F060E0CE010E948301AC
:1005C00080E0DF91CF910895CF93DF93EC0140EE6F
:1005D00053E964E070E043960E94820C882391F016
:1005E000888199810E944D0584EA91E00E94EB0187
:1005F0000E9469058A810E944B09CE01DF91CF914B
:100600000C949102DF91CF9108950F931F93CF9394
:10061000DF93EC018E81882351F040EE53E964E0D2
:1006200070E0CE014B960E94820C811111C08F8127
:10063000882309F441C08E01015F1F4F40E157E25A
:1006400060E070E0C8010E94820C811112C034C0C9
:10065000888199810E944D058EEE91E00E94EB0108
:100660000E9469058A810E944B09CE010E9477028F
:10067000DECF888199810E944D058E85813069F495
:100680008DED91E00E94EB010E946905C801DF91A8
:10069000CF911F910F910C94620C813018F485EB6F
:1006A00091E0F0CF823019F484EC91E0EBCF83300D
:1006B00059F780ED91E0E6CFDF91CF911F910F9137
:1006C0000895CF93DF93EC0140E05AEB6BED70E0BF
:1006D00043960E94820C8823C1F0888199810E94F0
:1006E0004D0580E092E00E94EB010E946905CE0179
:1006F0000E94300161E0811160E0CE010E944E0154
:10070000CE01DF91CF910C947702DF91CF910895C4
:10071000FC01238521110C9405030C9461030F93B4
:100720001F93CF93DF93EC018C01095E1F4F40E1D3
:1007300057E260E070E0C8010E94820C882369F0F3
:10074000C8010E94620C888199810E944D0583E94D
:1007500091E00E94EB010E9469054BA15CA16DA193
:100760007EA1CE0143960E94820C8823C9F040E608
:100770005AEE60E070E04BA35CA36DA37EA388817A
:1007800099810E944D0581E192E00E94EB010E9457
:100790006905CE01DF91CF911F910F910C949102C9
:1007A000DF91CF911F910F910895FC012285223096
:1007B00059F018F4222331F00895233039F0243011
:1007C00039F008950C94D3010C94E4020C9488033E
:1007D0000C948F03CF93DF93EC014B960E94620C35
:1007E000888199810E944D058EE192E00E94EB0183
:1007F0000E9469058A85882341F0833058F463E0BC
:10080000CE01DF91CF910C948301CE01DF91CF9186
:100810000C94CD02DF91CF910895DC011296EC91FA
:10082000F0E0E45EFB4F2081283018F010820C9439
:10083000EA030895CF93DF93EC010E940D04CE01EB
:100840000E945B01CE01DF91CF910C94D5030C94F3
:10085000EA03DC01ED91FC910190F081E02D099417
:10086000089508950F931F93CB01A0E0B0E0BA2F35
:10087000A92F982F8827842BE7E1F0E040E050E88B
:1008800068E970E08C019D010E2E04C03695279515
:10089000179507950A94D2F700FF04C0842795277F
:1008A000A627B72776956795579547953197E730EF
:1008B000F10541F71F910F910895EF92FF920F9369
:1008C0001F93CF93DF938C0160E470E082E595E0A5
:1008D0000E94101A65EF70E082E595E00E942904FD
:1008E00082E595E00E94891A67E370E080E090E07D
:1008F0000E941C1D43E050E060E470E082E595E05A
:100900000E94861AF12C82E595E00E9465190397F2
:10091000BCF182E595E00E946D19E82E82E595E034
:100920000E946D19F82E82E595E00E946D19DE2D6A
:1009300090E0C92FCF29482FBE01C8010E94320480
:10094000811119C0BE016C7F80E090E00E94CF272A
:1009500020E030E040E857E30E94852820E030E0C6
:100960004AEF52E40E94852820E030E040EC50E459
:100970000E94CD2613C060E070EC89E794E40EC0BD
:1009800065E070E080E090E00E941C1DF39484E636
:10099000F812B9CF60E070E889E794E4DF91CF9175
:1009A0001F910F91FF90EF900895EF92FF920F9398
:1009B0001F93CF93DF937C0160E470E082E595E0C4
:1009C0000E94101A63EF70E082E595E00E9429040E
:1009D00082E595E00E94891A67E370E080E090E08C
:1009E0000E941C1D43E050E060E470E082E595E069
:1009F0000E94861A05E610E082E595E00E946519DE
:100A0000039774F461E070E080E090E00E941C1DA8
:100A10000150110989F760E070E889E794E436C075
:100A200082E595E00E946D19082F82E595E00E940D
:100A30006D19182F82E595E00E946D19D02F90E076
:100A4000C92FC12B482FBE01C7010E94320481115A
:100A500019C0BE016C7F80E090E00E94CF2720E0AB
:100A600030E040E857E30E94852822E538EB4FE26A
:100A700053E40E94852826E636E64BE352E40E94C2
:100A8000CD2604C060E070EC89E794E4DF91CF915B
:100A90001F910F91FF90EF900895CF93DF93EC019A
:100AA00080916201882391F068E272E08BE196E028
:100AB0000E94BA1FBE018BE196E00E94BA1F60E25D
:100AC0008BE196E0DF91CF910C94BC1FDF91CF9129
:100AD000089580916201882321F08BE196E00C94C7
:100AE000C31F0895FC01611103C0411107C004C078
:100AF000623061F44230C1F488E61DC0423011F426
:100B000089E619C04130C1F48AE615C06130A1F40C
:100B1000411102C08CE60FC0423011F48DE60BC0CB
:100B2000413051F48EE607C0411102C08BE603C08C
:100B3000413011F48FE6808308950F931F93CF9374
:100B4000DF93EC01142F186820E2629FC00111248A
:100B5000182B0AE0688182E595E00E94061A612F51
:100B600082E595E00E94BD1982E595E00E94891A10
:100B7000882311F0015071F7DF91CF911F910F91F0
:100B800008950F931F93CF93DF938C0160E570E07E
:100B900080E090E00E941C1DF801608170E043E05D
:100BA00050E082E595E00E94861A1AE082E595E021
:100BB0000E94651903972CF41150C1F7CFEFDFEFB6
:100BC00012C082E595E00E946D19082F82E595E03C
:100BD0000E946D19182F82E595E00E946D19D02FA3
:100BE000F0E0CF2FC12BCE01DF91CF911F910F915C
:100BF0000895982F92959F702AEF929F800D11244F
:100C0000089582E595E00C94FC191F93CF93DF9330
:100C1000EC016FE670E082E595E00E94101A60E05A
:100C200082E595E00E94BD1960E082E595E00E94B2
:100C3000BD1929811AE0822F612F0E94EC28682FAC
:100C4000660F680F660F620F82E595E00E94BD197E
:100C50002A81822F612F0E94EC28682F660F680F6F
:100C6000660F620F82E595E00E94BD198B81886056
:100C7000682F70E082E595E00E9429042C81822F84
:100C8000612F0E94EC28682F660F680F660F620FB5
:100C900082E595E00E94BD192D81822F612F0E946F
:100CA000EC28682F660F680F660F620F82E595E0EB
:100CB0000E94BD192E812E51822F612F0E94EC2897
:100CC000682F660F680F660F620F82E595E00E943D
:100CD000BD1982E595E00E94891A6FE670E082E511
:100CE00095E00E94101A60E082E595E00E94BD192F
:100CF0002881822F612F0E94EC28682F660F680FD1
:100D0000660F620F606870E082E595E00E9429043A
:100D100082E595E0DF91CF911F910C94891ACF93D2
:100D2000DF93CDB7DEB727970FB6F894DEBF0FBEBF
:100D3000CDBFAE014F5F5F4F0E94D00ACE0101963A
:100D40000E94050627960FB6F894DEBF0FBECDBFF2
:100D5000DF91CF910895CF93DF93EC016FE670E0C0
:100D600082E595E00E94101A60E082E595E00E941D
:100D7000BD1982E595E00E94891A81113EC047E0C5
:100D800050E06FE670E082E595E00E94861A82E509
:100D900095E00E946D198F770E94F905888382E59E
:100DA00095E00E946D190E94F905898382E595E01E
:100DB0000E946D198F7B0E94F9058A8382E595E078
:100DC0000E946D19877C8B8382E595E00E946D19E6
:100DD0000E94F9058C8382E595E00E946D198F7D54
:100DE0000E94F9058D8382E595E00E946D190E94AD
:100DF000F905825E8E8381E001C080E0DF91CF91B2
:100E00000895CF93DF93CDB7DEB727970FB6F89449
:100E1000DEBF0FBECDBFCE0101960E94AB06882378
:100E200029F0CE0101960E94A70B03C060E070E09C
:100E3000CB0127960FB6F894DEBF0FBECDBFDF9172
:100E4000CF9108950F931F93CF93DF938B0167E5A5
:100E500070E082E595E00E94101A60EF70E082E594
:100E600095E00E94290482E595E00E94891A48E0F5
:100E700050E067E570E082E595E00E94861AE8019F
:100E800018E082E595E00E946D1989931150C9F729
:100E9000DF91CF911F910F9108950C94B8290C9474
:100EA000B029CF92DF92EF92FF920F931F93CF93CF
:100EB000DF9300D0CDB7DEB76C018B017C0184E0FD
:100EC000E80EF11CC60169837A830E94B029F801FB
:100ED00081938F01FFEFCF1ADF0A69817A81CE14E7
:100EE000DF0481F7CB010F900F90DF91CF911F911D
:100EF0000F91FF90EF90DF90CF9008950F931F9385
:100F0000CF93DF938C01EB010E94B0298883C80145
:100F100001960E94B0298983CE01DF91CF911F9164
:100F20000F910895EF92FF920F931F93CF93DF934A
:100F30001F92CDB7DEB77C01FC0100811181C80191
:100F400069830E94B0296981681719F0C8010E945D
:100F5000B829C7010F90DF91CF911F910F91FF909A
:100F6000EF900895BF92CF92DF92EF92FF920F938E
:100F70001F93CF93DF9300D01F92CDB7DEB78C01C4
:100F8000B62EE62EF72E6C0184E0C80ED11CF701B8
:100F900061917F011A830983CE0101967B830E94B0
:100FA00092070F5F1F4F7B810C151D0581F78B2D5D
:100FB000972F0F900F900F90DF91CF911F910F916E
:100FC000FF90EF90DF90CF90BF900895EF92FF9247
:100FD0000F931F93CF93DF9300D0CDB7DEB77C0183
:100FE0008B01FB0160819A838983CE0101960E9467
:100FF0009207F8016181FFEFEF1AFF0AFA82E98296
:10100000CE0101960E949207C8010F900F90DF91C8
:10101000CF911F910F91FF90EF900895EF92FF9263
:101020000F931F93CF93DF9300D0CDB7DEB77C0132
:101030008B01FB0160819A838983CE0101960E9416
:101040009207F8016181FFEFEF1AFF0AFA82E98245
:10105000CE0101960E949207C8010F900F90DF9178
:10106000CF911F910F91FF90EF900895CF93DF9351
:1010700000D000D0CDB7DEB7BE016F5F7F4F80E0FC
:1010800090E00E94510781E049815A816B817C8107
:10109000413A5D4A614A7D4A09F080E00F900F9025
:1010A0000F900F90DF91CF910895CF93DF9300D0F1
:1010B00000D0CDB7DEB719821A821B821C82BE0116
:1010C0006F5F7F4F80E090E00E94B2070F900F901B
:1010D0000F900F90DF91CF91089580E290E00E94F1
:1010E0004F0791E0811101C090E0892F0895682F8A
:1010F00080E290E00C944D0780E490E00C944F0760
:10110000833008F081E0682F80E490E00C944D0774
:10111000BC0184E090E00C94E607BC0186E090E01E
:101120000C94E607BC0188E090E00C945107BC01E8
:1011300088E090E00C94B207CF93DF9300D000D00A
:10114000CDB7DEB7CE0101960E94920889819A81BF
:10115000AB81BC810196A11DB11D89839A83AB83AC
:10116000BC83CE0101960E9497080F900F900F90BC
:101170000F90DF91CF91089590E002969695982F69
:101180008827979587950C944D07CF93C82F0E9479
:10119000070E982F882381F0CC2371F08C2F90E0DC
:1011A00002969695982F8827979587950E944F07C6
:1011B00091E0811101C090E0892FCF910895BC0189
:1011C0008CE090E00C94B207CF93DF9300D0CDB7C2
:1011D000DEB720E8829FC0011124BE016F5F7F4F00
:1011E000895F9E4F0E947E0789819A810F900F90A0
:1011F000DF91CF910895CF93DF9300D0CDB7DEB7C5
:101200007A83698320E8829FC0011124BE016F5F49
:101210007F4F895F9E4F0E940E080F900F90DF91C5
:10122000CF910895CF93C82F0E94E408BC016F5F4F
:101230007F4F8C2FCF910C94FB08CF93DF9300D07E
:10124000CDB7DEB720E8829FC0011124BE016F5FD9
:101250007F4F855F9E4F0E947E0789819A810F9004
:101260000F90DF91CF910895CF93DF9300D0CDB74A
:10127000DEB77A83698320E8829FC0011124BE0112
:101280006F5F7F4F855F9E4F0E940E080F900F90FB
:10129000DF91CF910895CF93C82F0E941D09BC0103
:1012A0006F5F7F4F8C2FCF910C94340920E8829F81
:1012B000C00111248A5D9E4F0C944F0720E8829F45
:1012C000C00111248A5D9E4F0C944D0720E8829F37
:1012D000C00111248C5E9E4F0C944F0720E8829F22
:1012E000C00111248C5E9E4F0C944D0720E8829F14
:1012F000C0011124815F9E4F0C944F0720E8829F0C
:10130000C0011124815F9E4F0C944D07FC01808128
:1013100091810C944F07FC01808191810C944D07C1
:10132000FC018081918101960C944F07FF920F93ED
:101330001F93CF93DF9300D000D01F92CDB7DEB7BD
:101340008C016D830E948609F82EC8010E949009C5
:101350006D816817E8F4F801208131812E5F3F4FDD
:10136000862F90E08F0D911D628170E00E94F82819
:10137000880F991F880F991FBE016F5F7F4F820FE3
:10138000931F0E94510769817A818B819C8103C0E0
:1013900060E070E0CB010F900F900F900F900F90D6
:1013A000DF91CF911F910F91FF900895FC018081F3
:1013B000918101960C944D07CF93DF93EC0160E08F
:1013C0000E948B0960E0CE01DF91CF910C94D60989
:1013D000FF920F931F93CF93DF9300D000D0CDB730
:1013E000DEB719821A821B821C82CE0101960E94EE
:1013F000970819821A821B821C82CE0101960E94D4
:10140000DF0883E0898311E01A83CE0101960E94F0
:10141000880819831A82CE0101960E948D0881E006
:101420000E9477080DE014E0F12C60E070E08F2D51
:101430000E94FB0860E070E08F2D0E94340960E09C
:101440008F2D0E945E0960E08F2D0E946E0960E082
:101450008F2D0E947E09C8010E94DC09F3940D5F64
:101460001F4F85E0F812E1CF61E080E091E00E943B
:101470004D0761E080E891E00E944D0761E080E067
:1014800092E00E944D0760E080E892E00E944D07E4
:1014900060E080E093E00E944D0780E00E948008B9
:1014A0006EE272E080E090E00E94B2070F900F9031
:1014B0000F900F90DF91CF911F910F91FF900895A2
:1014C000EF92FF920F931F93CF93DF9300D000D042
:1014D000CDB7DEB78C0149835A836B837C830E942E
:1014E0008609E82EC8010E949009F82EF801208193
:1014F00031812E5F3F4F90E08E0D911D628170E033
:101500000E94F828880F991F880F991FBE016F5FEE
:101510007F4F820F931F0E94B207F801828161E022
:10152000F81205C06E0DC8010E948B0904C06F0D32
:10153000C8010E94D6090F900F900F900F90DF9175
:10154000CF911F910F91FF90EF90089528E0209385
:101550000F0480E491E090930E0480930D04209397
:10156000120480EC91E09093110480931004209376
:10157000150480E492E09093140480931304209364
:10158000180480EC92E09093170480931604209343
:101590001B0480E493E090931A0480931904089547
:1015A0006F927F928F929F92AF92BF92CF92DF9273
:1015B000EF92FF920F931F93CF93DF93EA012CE3F7
:1015C000C22ED12CE12CF12CA70196010E940C29EE
:1015D0006883CA01B901A70196010E940C29698399
:1015E000CA01B90128E130E040E050E00E940C2936
:1015F00049015A016A83CA01B9016C5F7F4F8F4F5D
:101600009F4F27E030E040E050E00E940C296F5FE0
:101610006B8300E010E0980140E054E6652E712CE9
:1016200060E9C62EDD24D394E42FF0E0EE54F84FA9
:101630007F0183E0E822FF24E114F10489F4CF0163
:10164000B3010E94F828892B29F08EE691E0A0E0F2
:10165000B0E00AC0CF01B6010E94F828892BA9F397
:101660008DE691E0A0E0B0E0080F191F2A1F3B1F94
:10167000D901C801AA27BB2788169906AA06BB0666
:1016800010F04F5FD1CF4E83E114F10499F4CF01F4
:1016900064E670E00E94F828892B29F08EE691E03C
:1016A000A0E0B0E00BC0CF0160E971E00E94F82833
:1016B000892BA1F38DE691E0A0E0B0E0081B190BA7
:1016C0002A0B3B0B801A910AA20AB30ACF0164E6E7
:1016D00070E00E94F8289C01CF0160E971E00E944F
:1016E000F828E2E3F2E0A0E0A13059F4E114F104BB
:1016F00051F42115310511F04DE106C00097E1F3D9
:1017000002C0408101C04CE150E060E070E084160E
:101710009506A606B70640F0841A950AA60AB70AE7
:10172000AF5F3196AC3001F7AF5FAD8383948C82AD
:10173000DF91CF911F910F91FF90EF90DF90CF90AD
:10174000BF90AF909F908F907F906F9008956F9211
:101750007F928F929F92AF92BF92CF92DF92EF9241
:10176000FF920F931F93CF93DF93FC01C680AC2DA4
:10177000B0E020E833E341EE51E00E944A294B01FA
:101780005C0122EB37E06D01C4E6D0E000E911E036
:10179000C901825B97408C159D05DCF4C9018370FB
:1017A0009927892B99F4C901BE010E94F828892B39
:1017B00031F4C901B8010E94F828892B39F480E876
:1017C000880E81E5981E81E0A81EB11C2F5F3F4F57
:1017D000DFCF6580712C8EE4C81A88EFD80AC60165
:1017E00064E670E00E94F8288C01C60160E971E0AF
:1017F0000E94F8287C01C1E0D0E083E0C822DD240B
:10180000C615D7052CF5C230D10589F4C114D10411
:1018100071F40115110519F4E114F10441F480E8A3
:10182000880E8BE3981E86E2A81EB11C0FC0DE0155
:10183000AF5CBD4FAC91B0E020E831E541E050E055
:101840000E944A29860E971EA81EB91E2196D8CF3F
:101850004181228130E0A0E1BEE00E9434296B0189
:101860007C01242F30E0ACE3B0E00E943429C60EA6
:10187000D71EE81EF91E8081C80ED11CE11CF11C88
:10188000A481B0E0119720E831E541E050E00E94EA
:101890005529C60ED71EE81EF91EC80CD91CEA1C15
:1018A000FB1CC701B601DF91CF911F910F91FF90F3
:1018B000EF90DF90CF90BF90AF909F908F907F90F0
:1018C0006F900895CF93DF93EC010E94ED1C688325
:1018D00079838A839B83DF91CF9108950F931F9320
:1018E000CF93DF93EC010E94ED1C088119812A81BE
:1018F0003B81601B710B820B930BDF91CF911F918A
:101900000F910895CF92DF92EF92FF920F931F9362
:10191000CF93DF93EC016A017B010E94ED1C0881EB
:1019200019812A813B81601B710B820B930B21E093
:10193000C616D706E806F90608F020E0822FDF91E8
:10194000CF911F910F91FF90EF90DF90CF9008956E
:101950001F920F920FB60F9211240F931F932F9384
:101960003F934F935F936F937F938F939F93AF9327
:10197000BF93CF93DF93EF93FF930AE412E0C0E0AD
:10198000D0E0F80181918F010E94771EFE01EF5D8A
:10199000FB4F9081981731F0DE01A45EBB4F9C9104
:1019A0009F5F9C9380832196C530D10551F7FF91AD
:1019B000EF91DF91CF91BF91AF919F918F917F91E7
:1019C0006F915F914F913F912F911F910F910F90C8
:1019D0000FBE0F901F901895909100019923D9F098
:1019E0008530E0F4811103C082E10C949A1DE82F48
:1019F000F0E0EB5BFD4F40E0608186E294E00E9406
:101A00009D0586E294E00E94C10525E096958795A4
:101A10002A95E1F708958FEF9FEF089580E090E019
:101A20000895823038F4E82FF0E0EC5AFD4F8081C1
:101A30000C94411E0895823050F4E82FF0E0EC5AE7
:101A4000FD4F80810E94771E21E0019709F020E080
:101A5000822F0895CF93C82F0E941B0D61E0682745
:101A60008C2FCF910C94110DEF92FF920F931F9337
:101A7000CF93DF9361E08DE00E94081E61E089E072
:101A80000E94081E3FE4E32E32E0F32E0AE412E047
:101A9000C0E0D0E061E0F70181917F010E94081E63
:101AA00062E0F80181918F010E94081EFE01E45E50
:101AB000FB4F10822196C530D10561F761E081E0CE
:101AC0000E94081E61E085E10E94081E61E080E03E
:101AD0000E94081E0E946D088093000182E595E037
:101AE0000E94FC1968EC70E080E090E00E941C1DF0
:101AF00041E061E086E294E00E94720568EC70E0EB
:101B000080E090E00E941C1D87E294E00E94310476
:101B100068EC70E080E090E00E941C1DF894109248
:101B200080001092810081E080936F0083E08093B9
:101B300081007894DF91CF911F910F91FF90EF90EA
:101B40000895CF93C62F853080F5811120C060E0C5
:101B50000E94411E62E370E080E090E00E941C1D44
:101B60006C2F84E00E94411E62E370E080E090E010
:101B70000E941C1D61E080E00E94411E62E370E053
:101B800080E090E00E941C1D60E080E005C0E82F2E
:101B9000F0E0E15BFD4F80810E94411E62E370E056
:101BA00080E090E0CF910C941C1DCF91089580911E
:101BB0000001882321F087E294E00C945D0460E04A
:101BC00070E080EC9FE7089580910001882321F068
:101BD00087E294E00C94D50460E070E080EC9FE72D
:101BE0000895823098F4662319F0613039F0089531
:101BF000E82FF0E0E25CFD4F60E005C0E82FF0E088
:101C0000E25CFD4F61E080810C94411E089591E0FB
:101C1000853008F090E0892F0895CF93DF93EC0191
:101C200080910001882339F00E940107688379833D
:101C30008A839B8304C0188219821A821B82DF91D7
:101C4000CF9108950F931F93CF93DF93CDB7DEB756
:101C500027970FB6F894DEBF0FBECDBF8C018091E1
:101C600000018823B1F0CE0101960E94AB068F815E
:101C700090E08E54984FF801918380838E81828307
:101C80008D8183838B8184838A8185838981868307
:101C900008C0F80111821082128213821482158208
:101CA000168227960FB6F894DEBF0FBECDBFDF9128
:101CB000CF911F910F910895CF93DF93CDB7DEB7EA
:101CC00027970FB6F894DEBF0FBECDBFFC01809101
:101CD0000001882399F08081825B8F8382818E83CB
:101CE00083818D8384818B8385818A8386818983A7
:101CF000CE0101960E94A70B0E948F0627960FB671
:101D0000F894DEBF0FBECDBFDF91CF910895209133
:101D10000001222329F0BC018CE094E00C942207FE
:101D2000FC0188E09FEF91938150E9F7089587E2E5
:101D300094E00C943004CF92DF92EF92FF920F93D5
:101D40001F93CF93DF93D82E80910001882309F44D
:101D500050C05AE0F52E0D2D10E06D2D82E595E076
:101D60000E94061A65E070E080E090E00E941C1D71
:101D7000E0915205F09153050190F081E02D60E073
:101D800082E595E0099565E070E080E090E00E94D2
:101D90001C1D60E082E595E00E94121A811126C0A8
:101DA00065E070E080E090E00E941C1D43E050E0A0
:101DB000B80182E595E00E94861A8330B9F465E0A7
:101DC00070E080E090E00E941C1DE12C82E595E02F
:101DD0000E946519039784F465E070E080E090E06C
:101DE0000E941C1DE39484E6E812F0CFFA9409F0F7
:101DF000B4CFCFEFDFEF27C082E595E00E946D19E9
:101E000082E595E00E946D19E82E82E595E00E943A
:101E10006D19C82E61E082E595E00E94121A8111C9
:101E2000E5CF65E070E080E090E00E941C1DE0FAE4
:101E3000EE24E0F8DE2D80E0C82FCC2944E0CC0F62
:101E4000DD1F4A95E1F7CE01DF91CF911F910F91F0
:101E5000FF90EF90DF90CF9008958091000188234C
:101E600019F080E60C949B0E8FEF9FEF08959091F0
:101E70000001992349F0853050F4E82FF0E0E05C50
:101E8000FD4F80810C949B0E8FEF9FEF089580E0B3
:101E900090E008950E940107AB01BC012AE030E008
:101EA0008BE196E00E94DE2080E00895CF930E94AF
:101EB0002D0F4AE050E0BC018BE196E00E94C22069
:101EC000C0E060E28BE196E00E94BC1F8C2F0E9474
:101ED000370FBC014AE050E08BE196E00E94C2203F
:101EE000CF5FC53071F78BE196E00E94C31F80E0A1
:101EF000CF910895CF93DF93C5E8D4E0CE010E943F
:101F00002D01AB01BC012AE030E08BE196E00E949C
:101F1000DE20A79685E0C834D80781F780E0DF91FE
:101F2000CF910895CF93C0E08C2F0E941D09BC0172
:101F30004AE050E08BE196E00E94C820CF5FC530B8
:101F400099F780E0CF910895CF93C0E08C2F0E9445
:101F5000EC0CBC014AE050E08BE196E00E94C82006
:101F6000CF5FC53099F780E0CF91089566E572E0C4
:101F70008BE196E00E94BA1F0E94E40DAB01BC0108
:101F800022E030E08BE196E00E94DD2163E672E022
:101F90008BE196E00E94BA1F0E94D70DAB01BC01F5
:101FA00022E030E08BE196E00E94DD2180E00895A0
:101FB000CF93DF9300D000D0CDB7DEB7CE0101962E
:101FC0000E940D0E49815A816B817C818091280489
:101FD00090912904A0912A04B0912B04481B590B1D
:101FE0006A0B7B0B2AE030E08BE196E00E94DE205A
:101FF00080E00F900F900F900F90DF91CF91089598
:10200000EF92FF920F931F93CF93DF93F82EEB0184
:10201000229611E087E2E82E1F1590F4899199919C
:102020000E947129082F0E94070E882339F00E9D07
:10203000C00111248B579B4F0E94C4011F5FECCF3E
:1020400080E0DF91CF911F910F91FF90EF90089565
:10205000EF92FF920F931F93CF93DF93F82EEB0134
:10206000229611E097E2E92E1F1590F4899199913B
:102070000E947129082F0E94070E882339F00E9DB7
:10208000C00111248B579B4F0E94CD021F5FECCFE4
:1020900080E0DF91CF911F910F91FF90EF90089515
:1020A000CF93DF9300D000D0CDB7DEB7CE0101963D
:1020B0000E94920849815A816B817C812AE030E03C
:1020C0008BE196E00E94DE2080E00F900F900F9051
:1020D0000F90DF91CF9108956DE672E08BE196E06D
:1020E0000E94BA1F4AE050E063E070E08BE196E0A6
:1020F0000E947C206EE28BE196E00E94BC1F4AE0C9
:1021000050E061E070E08BE196E00E94842061E79E
:1021100072E08BE196E00E94BA1F4AE050E061E075
:1021200070E08BE196E00E947C206EE28BE196E00D
:102130000E94BC1F4AE050E060E070E08BE196E056
:102140000E947C206EE28BE196E00E94BC1F4AE078
:1021500050E064E070E08BE196E00E94842066E746
:1021600072E08BE196E00E94BA1F2AE030E04BE07B
:1021700057EE65E478E58BE196E00E949C206CE7E1
:1021800072E08BE196E00E94BA1F61E872E08BE199
:1021900096E00E94C71F80E008950E94550880E0E5
:1021A0000895CF93823081F4FB01828193810E9454
:1021B0007129C82F0E94070E882321F0C093610166
:1021C00080E003C083E001C082E0CF910895CF9307
:1021D0008230B1F4FB01828193810E947129C82F62
:1021E0000E94070E882351F0F7E2CF9FC00111240F
:1021F0008B579B4F0E94270480E003C083E001C0FF
:1022000082E0CF9108950F931F93CF93DF93182F00
:10221000EB018230A0F18A819B810E947129082FF5
:102220000E94070E882339F1123059F427E2029FE9
:10223000E0011124CB57DB4F40E65AEE60E070E03E
:1022400013C01330D1F48C819D810E94712927E243
:10225000029FE0011124CB57DB4F28EE33E0DC0175
:102260000E944329AB01BC01CE010E945501CE0161
:102270000E94770202C083E003C080E001C082E0D8
:10228000DF91CF911F910F9108951F93CF93DF930B
:10229000182FEB0181E08093500588E495E00E94BF
:1022A000620C113049F410924C0510924D051092B9
:1022B0004E0510924F0513C0123089F48A819B811C
:1022C0000E94712928EE33E0DC010E9443296093CB
:1022D0004C0570934D0580934E0590934F0580E01B
:1022E000DF91CF911F910895CF93DF938230B9F49E
:1022F000FB01C281D38166E872E0CE010E949F2972
:10230000892B21F481E08093620109C065E073E0CC
:10231000CE010E949F29892B11F41092620180E066
:10232000DF91CF9108950F931F93CF93DF93EB012C
:10233000843099F58A819B810E947129182F0E940F
:10234000070E882351F166E272E08E819F810E9420
:102350009F2901E0892B09F000E00C80DD81C02D70
:1023600069E872E0CE010E949F29892B41F487E23F
:10237000189FF0011124EB57FB4F06830EC06CE849
:1023800072E0CE010E949F29892B39F087E2189FC5
:10239000F0011124EB57FB4F078380E0DF91CF91D1
:1023A0001F910F9108958091510583FF06C06FE83A
:1023B00072E08BE196E00E94C71F8091510582FF79
:1023C00006C064E972E08BE196E00E94C71F80912D
:1023D000510581FF06C069E972E08BE196E00E9439
:1023E000C71F8091510580FF06C06FE972E08BE145
:1023F00096E00E94C71F80E008950F931F93CF932C
:10240000DF93082FEB018EEF800F823008F051C070
:102410008A819B810E947129182F0E94070E8823B0
:1024200009F445C0033061F50C80DD81C02D68EAF8
:1024300072E0CE010E949F29892B61F427E2129F4E
:10244000C001112460E08B579B4F0E944E0164EA4B
:1024500072E027C06FEA72E0CE010E949F29892BAB
:1024600061F427E2129FC001112461E08B579B4F5A
:102470000E944E016BEA72E014C064EB72E011C07E
:1024800027E2129FC00111248B579B4F0E943001FD
:10249000811103C068EA72E004C0813071F76FEA0D
:1024A00072E08BE196E00E94C71F80E003C083E0EA
:1024B00001C082E0DF91CF911F910F910895CF93DA
:1024C000DF938130A1F40E947C08811103C065E094
:1024D00073E031C0813019F468EA72E02CC08230B8
:1024E00019F46FEA72E027C062EC72E024C0823017
:1024F00031F5FB01C281D38165E073E0CE010E941A
:102500009F29892B11F480E011C068EA72E0CE01A6
:102510000E949F29892B11F481E008C06FEA72E0C4
:10252000CE010E949F29892B21F482E00E9480081D
:1025300006C064EC72E08BE196E00E94C71F80E069
:10254000DF91CF910895CF93DF93EC01688179817A
:102550004AE050E08BE196E00E94C22060E28BE10D
:1025600096E00E94BC1F4AE050E06A818BE196E051
:102570000E94BB2060E28BE196E00E94BC1F4AE013
:1025800050E06B818BE196E00E94BB2060E28BE122
:1025900096E00E94BC1F4AE050E06C818BE196E01F
:1025A0000E94BB2060E28BE196E00E94BC1F4AE0E3
:1025B00050E06D818BE196E00E94BB2060E28BE1F0
:1025C00096E00E94BC1F4AE050E06E818BE196E0ED
:1025D000DF91CF910C94BB200F931F93CF93DF9388
:1025E000CDB7DEB727970FB6F894DEBF0FBECDBFCD
:1025F0008B01813061F18730C1F5FB0182819381CC
:102600000E9471299A838983F801848195810E94AF
:1026100071298B83F801868197810E9471298C83AF
:10262000F801808591850E9471298D83F80182854A
:1026300093850E9471298E83F801848595850E9477
:1026400071298F83CE0101960E945C0E0CC0CE01D1
:1026500001960E94220ECE0101960E94A3128BE1E8
:1026600096E00E94C31F80E001C082E027960FB66B
:10267000F894DEBF0FBECDBFDF91CF911F910F91B8
:102680000895EF92FF920F931F93CF93DF931F92C2
:10269000CDB7DEB702967C0122E08701F701619198
:1026A0007F0170E034E0759567953A95E1F740E178
:1026B00050E08BE196E029830E947C20F801608144
:1026C0006F7070E040E150E08BE196E00E947C206A
:1026D00029812F5F283009F70F90DF91CF911F914B
:1026E0000F91FF90EF900895CF93DF93CDB7DEB7B2
:1026F00028970FB6F894DEBF0FBECDBFCE0101966E
:102700000E94870ECE0101960E9441138BE196E054
:102710000E94C31F80E028960FB6F894DEBF0FBE5C
:10272000CDBFDF91CF910895CF92DF92EF92FF92CC
:102730000F931F93CF93DF937C01C62E8A01D12C78
:10274000F4E0DF9EE0011124CF5FDE4F88819981A4
:10275000009769F0F801608171810E949F29892B9F
:1027600021F40A80DB81C02D04C0D394E9CFC0E0FE
:10277000D0E061ED72E08BE196E00E94BA1FB701F4
:102780008BE196E00E94BA1F60E28BE196E00E9426
:10279000BC1FF801608171818BE196E00E94C71F28
:1027A000209729F0B8018C2DFE01099506C06BED2C
:1027B00072E08BE196E00E94C71F6BEE72E08BE146
:1027C00096E0DF91CF911F910F91FF90EF90DF90F6
:1027D000CF900C94C71FBF92CF92DF92EF92FF92DF
:1027E0000F931F93CF93DF93CDB7DEB760970FB6EC
:1027F000F894DEBF0FBECDBFB12C8DE294E07C011A
:1028000087012FEFE21AF20AF801C080DD24C7FC2D
:10281000D094C6010E949729892B91F7C6010E9486
:102820008F29892BD1F0DD24D394DB0CFE01319666
:10283000EB0DF11DEB0DF11D118300837801870174
:10284000FFEFEF1AFF0AF8018081992787FD909525
:102850000E948F29892B99F7BD2CF801808188234C
:1028600099F0C80101961082F7E0FB1540F68981C6
:102870009A81FC012081203451F46FEF6B0DAE0181
:102880004D5F5F4F019609C0BB2049F0F0CFAE010C
:102890004F5F5F4F6B2D80EF92E00E949413609624
:1028A0000FB6F894DEBF0FBECDBFDF91CF911F9161
:1028B0000F91FF90EF90DF90CF90BF9008951F93FE
:1028C000CF93DF9382EF92E0909386048093850408
:1028D00010928704109288041092890421E02093BA
:1028E0008A0420938B0410928C0485EF92E09093DD
:1028F000AD048093AC042093AE042093AF041092F7
:10290000B0042093B1042093B2041092B30488EF72
:1029100092E09093D4048093D30482E08093D50412
:102920001092D7042093D8042093D9041092DA048B
:102930008BEF92E09093FB048093FA0483E0809302
:10294000FC0410920005109201058EEF92E0909326
:1029500022058093210584E08093230510922705AA
:1029600010922805C5E8D4E0CE010E94A401A796E4
:1029700085E0C834D807C1F7C5E8D4E010E0812F5E
:102980000E9456098250823078F460E0812F0E94C4
:102990005E0980915105857021F0CE010E94CD0223
:1029A00003C0CE010E9491021F5FA796153039F730
:1029B000DF91CF911F9108958F929F92AF92BF9216
:1029C000CF92DF92EF92FF920F931F93CF93DF93FB
:1029D000EC01062F0E949009081720F0CE010E94FA
:1029E0009009082F11E0C12CD12C76011017A8F402
:1029F000612FCE010E9496094B015C016FEF610FC0
:102A0000CE010E949609861A970AA80AB90AC80C2C
:102A1000D91CEA1CFB1C1F5FE9CF202F30E040E0EF
:102A200050E0C701B6010E940C29CA01B901DF912B
:102A3000CF911F910F91FF90EF90DF90CF90BF90BB
:102A4000AF909F908F90089529E288E190E00FB6B3
:102A5000F894A895809360000FBE20936000A8951D
:102A6000C0E0C530F0F461E080E00E94110D61E04B
:102A700081E00E94110D60E570E080E090E00E942E
:102A80001C1D60E080E00E94110D60E081E00E946A
:102A9000110D60E570E080E090E00E941C1DCF5FAA
:102AA000E0CF61E080E00E94110D61E081E00E94D2
:102AB000110D68EC70E080E090E00E941C1D60E069
:102AC00080E00E94110D60E081E00E94110D68EC31
:102AD00070E080E090E00E941C1DC0E0C4CF9091A7
:102AE0006201992339F04AE050E0682F8BE196E0CB
:102AF0000C94BB2008950F931F93CF93DF9310E0A6
:102B0000812F0E946609853070F089E193E00E9470
:102B10004D058EE193E00E94EB01812F0E946F151D
:102B20008EE293E039C003E0812F0E94660961E0E4
:102B3000680F812F0E946E0964E170E080E090E0F0
:102B40000E941C1D812F0E94370FEC0162E370E090
:102B500080E090E00E941C1D812F0E9466096FEFAB
:102B6000680F812F0E946E0964E170E080E090E0C0
:102B70000E941C1DC938D34198F00150A9F689E183
:102B800093E00E944D058EE193E00E94EB01812FBE
:102B90000E946F158FE393E00E94EB010E9469058C
:102BA0001F5F153009F0ACCFDF91CF911F910F91CE
:102BB00008950F931F93CF93DF9310E0812F0E940E
:102BC0007609853070F089E193E00E944D058EE42E
:102BD00093E00E94EB01812F0E946F158EE293E03B
:102BE00039C003E0812F0E94760961E0680F812FD0
:102BF0000E947E0964E170E080E090E00E941C1D6C
:102C0000812F0E94EC0CEC0162E370E080E090E028
:102C10000E941C1D812F0E9476096FEF680F812F83
:102C20000E947E0964E170E080E090E00E941C1D3B
:102C3000C131D74298F00150A9F689E193E00E9492
:102C40004D058EE493E00E94EB01812F0E946F15E9
:102C50008FE393E00E94EB010E9469051F5F15302E
:102C600009F0ACCFDF91CF911F910F9108950E9491
:102C70007B150C94D915CF9314BE88E10FB6F89448
:102C800080936000109260000FBE81E490E00E948B
:102C9000B0298093510560EA7FE080E090E00E94D7
:102CA0001C1D29E288E190E00FB6F894A895809366
:102CB00060000FBE20936000A89540E051EE60E0F8
:102CC00070E08BE196E00E94811FC8E061E080E047
:102CD0000E94110D64E670E080E090E00E941C1DEF
:102CE00061E081E00E94110D64E670E080E090E018
:102CF0000E941C1D60E080E00E94110D64E670E0FF
:102D000080E090E00E941C1D60E081E00E94110DB7
:102D100064E670E080E090E00E941C1DC150B1F6B6
:102D2000A8950E943608811130C00E94E8090E94CF
:102D3000340DC0E161E080E00E94110D64E170E0BB
:102D400080E090E00E941C1D61E081E00E94110D76
:102D500064E170E080E090E00E941C1D60E080E093
:102D60000E94110D64E170E080E090E00E941C1D63
:102D700060E081E00E94110D64E170E080E090E08D
:102D80000E941C1DC150B1F602C00E94340D88E2A1
:102D900094E00E940D0E88E294E00E94DF080E94F9
:102DA0009C08A89580915105857011F00E943716F6
:102DB0000E945F141092610110922C0481E894E04B
:102DC0000E94620C8DE794E00E94620C1092500504
:102DD00010924C0510924D0510924E0510924F0521
:102DE0000E9401076B30774E8544984530F46BE0C4
:102DF00077EE85E498E50E948F06A895CF91089517
:102E0000AB01BC0180916201882331F02AE030E0FF
:102E10008BE196E00C94AE200895CF92DF92EF9272
:102E2000FF921F93CF93DF93EC018AE593E00E941A
:102E30004D0510E0CE010E949009181760F48CE255
:102E400092E00E94EB01612FCE010E9496090E9440
:102E500000171F5FEFCF0E946905CE010E94900905
:102E6000823008F445C082E693E00E944D0511E0EF
:102E7000E12EF12CCE010E949009853028F4CE017C
:102E80000E94900990E002C084E090E0E816F90604
:102E9000CCF4612FCE010E9496096B017C016FEF8B
:102EA000610FCE010E949609C61AD70AE80AF90AEC
:102EB0008CE292E00E94EB01C701B6010E9400176C
:102EC0001F5FD6CF63E0CE010E94DC14683C710521
:102ED0008105910520F489E693E00E94EB01DF91E2
:102EE000CF911F91FF90EF90DF90CF900C946905E8
:102EF000DF91CF911F91FF90EF90DF90CF900895D9
:102F00000F931F93CF93DF93809161010E94070E6F
:102F1000882391F081E894E00E94620C8091610125
:102F200027E2829FC00111248B579B4F0E94F5011D
:102F30008FEF809361012DC040E65AEE60E070E0B3
:102F400081E894E00E94820C882319F105E814E0DE
:102F5000C0E0D0E0C8010E9420018823A1F081E8F0
:102F600094E00E94620CC8010E94F501CE01880F16
:102F7000991F8C0F9D1F835F9B4FDF91CF911F91F6
:102F80000F910C940D172196095D1F4FC530D10587
:102F900009F7DF91CF911F910F9108952091620160
:102FA000222339F04AE050E0BC018BE196E00C941A
:102FB000C220089590916201992329F0682F8BE136
:102FC00096E00C94BC1F0895AB01BC018091620196
:102FD000882331F022E030E08BE196E00C94DB2195
:102FE00008950F931F93CF93DF93CDB7DEB72F973D
:102FF0000FB6F894DEBF0FBECDBFCE0101960E9482
:10300000870E8CE693E00E944D05CE0101960E944A
:1030100041130E94690562E370E080E090E00E9445
:103020001C1DCE0109960E94220E8FE693E00E949D
:103030004D05CE0109960E94A3128BE196E00E94F5
:10304000C31F62E370E080E090E00E941C1D8CE8EA
:1030500092E00E944D050E942D0F0E94CE1710E0B5
:1030600080E20E94DA17812F0E94370F0E94CE174C
:103070001F5F1530A9F70E94690562E370E080E0E8
:1030800090E00E941C1D84E793E00E944D0510E033
:10309000812F0E94EC0C0E94CE1780E20E94DA176A
:1030A0001F5F1530A9F70E94690562E370E080E0B8
:1030B00090E00E941C1D87E793E00E944D050E944E
:1030C000E40D0E94E41780E20E94DA170E94D70DF7
:1030D0000E94E4170E94690562E370E080E090E0DE
:1030E0000E941C1D8BE793E00E944D0510E0812F8C
:1030F0000E941D090E94CE1780E20E94DA171F5F0E
:103100001530A9F70E94690562E370E080E090E065
:103110000E941C1D81E893E00E944D0510E0812F64
:103120000E94C50890916201992341F0682F70E0D8
:103130004AE050E08BE196E00E947C2080E20E9411
:10314000DA171F5F153059F70E94690562E370E0D6
:1031500080E090E00E941C1D8CEB92E00E944D05E7
:1031600005E814E0C8010E943001811103C089E81C
:1031700093E007C0813019F48DE893E002C083E941
:1031800093E00E94EB01095D1F4F84E0033D1807A7
:1031900049F70E9469052F960FB6F894DEBF0FBE5F
:1031A000CDBFDF91CF911F910F910895CF93C0E0D4
:1031B0008BE196E00E94CA1E181619069CF5C03FC6
:1031C00088F58BE196E00E94DA1EE0912C0491E0F4
:1031D0009E0F90932C04F0E0E35DFB4F8083CF5F64
:1031E000903560F010922C048BE196E00E94CA1E8C
:1031F00018161906ECF6C03F69F4DACF8A30C1F62A
:10320000E92FF0E0E35DFB4F108210922C040E9446
:10321000EB13CECF8BE196E00E94DA1E0A9741F2C3
:10322000CF5FE2CFCF910895CF93DF938091500588
:10323000811102C00E948017C5E8D4E0CE010E942F
:103240001A04A895A79685E0C834D807B9F70E9454
:10325000D61840E65AEE60E070E08DE794E00E94F8
:10326000820C882339F08DE794E00E94620CA895C7
:103270000E94F11780915005882371F040914C0510
:1032800050914D0560914E0570914F0588E495E091
:103290000E94820C811117C080E00E942A0D80914B
:1032A0005005882339F080E00E941B0D682F81E0D3
:1032B0000E94110DA89568EC70E080E090E0DF912D
:1032C000CF910C941C1D0E9424158091820590E0E2
:1032D00020918305821B9109089520918305809197
:1032E0008205281750F4E22FF0E0EC57FA4F808166
:1032F00090E02F5F2093830508958FEF9FEF08954F
:10330000E091830580918205E81730F4F0E0EC57F6
:10331000FA4F808190E008958FEF9FEF0895089510
:10332000CF92DF92EF92FF920F931F93CF93DF9391
:103330007C01CB018A0120915E05222389F0EB01FB
:103340006B01C40ED51ECC15DD0569F06991D7015E
:10335000ED91FC910190F081E02DC7010995F3CF2B
:10336000642F0E944D1BC801DF91CF911F910F91D7
:10337000FF90EF90DF90CF900895CF93DF931F924F
:10338000CDB7DEB7698320915E052223D1F020916D
:103390005F05203240F021E030E0FC0133832283DE
:1033A00080E090E015C080916005E82FF0E0EF59D3
:1033B000FA4F998190838F5F8093600580935F05BA
:1033C00005C061E0CE0101960E944D1B81E090E0B6
:1033D0000F90DF91CF910895FC011382128248EE85
:1033E00053E060E070E0448355836683778380EE2A
:1033F00093E0918380830895109283051092820553
:103400001092600510925F050C94901A81E08093F1
:103410005E05609381051092600510925F05089526
:103420000C94061A0F93062F21E040915F0561E688
:1034300075E0809181050E94F61A10926005109245
:103440005F0510925E050F9108958F929F92AF9243
:10345000BF92CF92DF92EF92FF920F931F93CF9381
:10346000DF93EC01F62ED42E48015901EE2019F11C
:103470000E94061A1E2D143008F013E01150B8F007
:10348000E881F98128E0129FB0011124A50194017F
:1034900004C056954795379527956A95D2F7CA0186
:1034A000B9010190F081E02DCE010995E7CF60E0F0
:1034B000CE010E94121A4D2D413208F040E22C2D0F
:1034C00064E875E08F2D0E94AE1A109283058093F8
:1034D0008205DF91CF911F910F91FF90EF90DF90C8
:1034E000CF90BF90AF909F908F900895CF92EF9222
:1034F0000F931F93C22EE12C00E010E098010E9470
:10350000251A1F910F91EF90CF90089521E00C9410
:10351000761A61E00C94121A82E595E00C94EC198D
:103520001092110681E080930F0610920E0661E062
:1035300082E00E94411E61E083E00E94411EE9EBAF
:10354000F0E080818E7F808380818D7F808388E41E
:103550008093B80085E48093BC000895413208F060
:1035600043C0909111069111FCCF91E09093110608
:1035700020930F062FEF2093A4051092E905240F46
:103580002093E8059093100690911006880F892BE0
:103590008093100680910E06813061F410920E0621
:1035A000809110068093BB008091BC0083FDF8CF12
:1035B00085EC01C085EE8093BC00809111068130BE
:1035C000E1F38091E905841710F44091E9052AEEB2
:1035D00035E0FB01D9018A2F821B841718F48D91E5
:1035E0008193F9CF842F089580E008950F9341329D
:1035F00008F04AC0909111069111FCCF92E090938F
:10360000110600930F069FEF9093A4051092E90511
:103610004093E805FB016AEE75E0DB019A2F961BEB
:10362000941718F491919D93F9CF109210069091F0
:103630001006880F892B8093100680910E0681302A
:1036400061F410920E06809110068093BB00809169
:10365000BC0083FDF8CF85EC01C085EE8093BC00F3
:10366000222321F0809111068230E1F38091A4059C
:103670008F3F61F08091A405803251F08091A405C4
:10368000803341F483E007C081E005C080E003C0DF
:1036900082E001C084E00F910895613298F4209196
:1036A0001106243089F46093C605FC0188EC95E08E
:1036B000DC012A2F281B261718F421912D93F9CF0E
:1036C00080E0089581E0089582E0089585ED80937B
:1036D000BC008091BC0084FDFCCF109211060895BF
:1036E00085EC8093BC001092110608951F920F92F2
:1036F0000FB60F9211242F933F934F935F936F93C5
:103700007F938F939F93AF93BF93EF93FF9380919A
:10371000B900887F803609F49EC078F5883209F4B4
:103720005DC090F4803109F456C038F4882309F460
:10373000F5C0883009F44FC0F5C0883109F44EC097
:10374000803209F45FC0EEC0803409F46AC058F4D6
:10375000803309F457C0883309F0E4C08093A4058E
:103760000E94701BDFC0803509F44FC0883509F412
:103770005DC0883409F0D6C0D3C0883909F4C4C00C
:10378000A8F4883709F467C038F4883609F463C0B0
:10379000803709F460C0C6C0883809F4B5C08039E4
:1037A00009F45FC0803809F0BDC05BC0803B09F4FC
:1037B00083C038F4803A09F466C0883A09F47CC0C2
:1037C000B1C0803C09F4A4C0883C09F4A1C0883B86
:1037D00009F487C0A7C08091100610C09091E90538
:1037E0008091E805981770F5E091E90581E08E0F6A
:1037F0008093E905F0E0E651FA4F80818093BB00A9
:1038000085EC83C08093A4058BC0E091E90581E03D
:103810008E0F8093E9058091BB00F0E0E651FA4FEE
:1038200080839091E9058091E8056BC0E091E905FE
:1038300081E08E0F8093E9058091BB00F0E0E651B6
:10384000FA4F808380910F0681116AC081E08093D6
:103850000E0684EA5EC083E0809311061092A505EF
:10386000CFCF8091A505803208F04EC0E091A5052C
:1038700081E08E0F8093A5058091BB00F0E0EA55B2
:10388000FA4F8083BDCF0E94701B8091A5058032C6
:1038900030F4E091A505F0E0EA55FA4F108260910E
:1038A000A50570E0E0910A06F0910B0686EA95E026
:1038B00009951092A50536C084E0809311061092F8
:1038C000C7051092C605E0910C06F0910D0609950A
:1038D0008091C605811105C081E08093C6051092D4
:1038E000C805E091C70581E08E0F8093C705F0E021
:1038F000E853FA4F80818093BB009091C705809177
:10390000C605981708F47CCF85E88093BC000AC0F0
:1039100085EC8093BC001092110604C01092A4059F
:103920000E94661BFF91EF91BF91AF919F918F9184
:103930007F916F915F914F913F912F910F900FBEAB
:103940000F901F9018951F920F920FB60F9211248F
:103950002F933F938F939F93AF93BF9380911306C1
:1039600090911406A0911506B0911606309112069A
:1039700023E0230F2D3720F40196A11DB11D05C0B2
:1039800026E8230F0296A11DB11D209312068093F5
:10399000130690931406A0931506B0931606809113
:1039A000170690911806A0911906B0911A06019673
:1039B000A11DB11D8093170690931806A0931906B8
:1039C000B0931A06BF91AF919F918F913F912F9124
:1039D0000F900FBE0F901F9018952FB7F89460911D
:1039E00013067091140680911506909116062FBF4C
:1039F00008953FB7F8948091170690911806A0910A
:103A00001906B0911A0626B5A89B05C02F3F19F0DC
:103A10000196A11DB11D3FBF6627782F892F9A2FD0
:103A2000620F711D811D911D42E0660F771F881F77
:103A3000991F4A95D1F70895CF92DF92EF92FF92A6
:103A4000CF93DF936B017C010E94F91CEB01C11441
:103A5000D104E104F10489F00E9431260E94F91C8E
:103A60006C1B7D0B683E734090F381E0C81AD1084F
:103A7000E108F108C851DC4FEACFDF91CF91FF9008
:103A8000EF90DF90CF900895789484B5826084BDE4
:103A900084B5816084BD85B5826085BD85B5816052
:103AA00085BDEEE6F0E0808181608083E1E8F0E0B2
:103AB0001082808182608083808181608083E0E8E1
:103AC000F0E0808181608083E1E9F0E080818260C4
:103AD0008083808181608083E0E9F0E08081816083
:103AE0008083E1ECF0E0808184608083808182606B
:103AF0008083808181608083E3ECF0E0808181605D
:103B00008083E0ECF0E0808182608083E2ECF0E092
:103B1000808181608083EAE7F0E080818460808337
:103B200080818260808380818160808380818068E1
:103B300080830895823108F08251E82FF0E0E65347
:103B4000FF4FE49180917B00E3FB222720F930E0D6
:103B500095E0220F331F9A95E1F78F7D822B80939A
:103B60007B00E7708091630120E4829FC0011124F3
:103B7000E82BE0937C0080917A00806480937A0047
:103B800080917A0086FDFCCF8091780020917900A9
:103B900090E0922B089590E0FC013197EF30F10511
:103BA000B0F5EA5AFF4F0C942E29809180008F7750
:103BB00003C0809180008F7D809380000895809164
:103BC0008000877FF9CF84B58F7702C084B58F7D61
:103BD00084BD0895809190008F7707C080919000F8
:103BE0008F7D03C080919000877F8093900008951F
:103BF0008091C0008F7703C08091C0008F7D80933B
:103C0000C00008958091C200877F8093C20008950C
:103C1000CF93DF9390E0FC01EB50FF4F2491FC0128
:103C2000EC5EFE4F8491882349F190E0880F991F44
:103C3000FC01E15BFE4FA591B4918F5B9E4FFC01AF
:103C4000C591D4919FB7611108C0F8948C912095CB
:103C500082238C93888182230AC0623051F4F894C5
:103C60008C91322F309583238C938881822B88838B
:103C700004C0F8948C91822B8C939FBFDF91CF91DD
:103C800008950F931F93CF93DF931F92CDB7DEB7A5
:103C9000282F30E0F901EA52FF4F8491F901EB50EF
:103CA000FF4F1491F901EC5EFE4F04910023C9F01F
:103CB000882321F069830E94CB1D6981E02FF0E009
:103CC000EE0FFF1FEF5BFE4FA591B4919FB7F894E5
:103CD0008C91611103C01095812301C0812B8C93BD
:103CE0009FBF0F90DF91CF911F910F910895CF93B8
:103CF000DF93282F30E0F901EA52FF4F8491F90158
:103D0000EB50FF4FD491F901EC5EFE4FC491CC23F0
:103D100091F081110E94CB1DEC2FF0E0EE0FFF1F00
:103D2000ED5CFE4FA591B4912C912D2381E090E0A4
:103D300021F480E002C080E090E0DF91CF9108950F
:103D4000CF93DF931F92CDB7DEB76983DC01ED918E
:103D5000FC910280F381E02D41E050E0BE016F5FF5
:103D60007F4F09950F90DF91CF910895CF93DF9307
:103D7000EC018C859D8597FF05C082E00E940023A1
:103D80009D878C878C859D85DF91CF91089583E0F9
:103D90000C947B25FC018485958597FD06C082E007
:103DA0000E94A82290E00196089582E00E94A82235
:103DB00090E00895FC018485958597FD05C02FEF5F
:103DC0003FEF35872487089582E00C940023CF933A
:103DD000DF93EC0180916F01882331F083E00E9432
:103DE00031231816190634F081E090E09B838A8312
:103DF00080E090E0DF91CF910895FC0120812E5F5B
:103E0000208342E450E06DE571E080E80C94CC231F
:103E1000FC0121818081813A59F4213209F05CC092
:103E200047E050E068E671E080E00E94CC2367C084
:103E3000813209F051C0233289F4838190E0982FB8
:103E400088273281832BA0E0B0E0809364019093B7
:103E50006501A0936601B09367010FC0203239F469
:103E600067E070E088E691E00E94FD230AC02232FC
:103E700021F4828180936F0104C02D7F203209F0EC
:103E80003EC08091680190916901A0916A01B09152
:103E90006B01803B9440A105B10501F580916F0154
:103EA00080FD1CC080910008909101089093FF0A4A
:103EB0008093FE0A87E797E79093010880930008B4
:103EC0002BE088E190E00FB6F894A895809360000D
:103ED0000FBE2093600013C080E0089588E10FB604
:103EE000F89480936000109260000FBEA8958091B6
:103EF000FE0A9091FF0A909301088093000881E0E8
:103F000008952FEF3FEFFC01358724870895109225
:103F10001E0610921D0688EE93E0A0E0B0E08093AC
:103F20001F0690932006A0932106B093220680EFEF
:103F300093E090931C0680931B068FEF9FEF909366
:103F400028068093270608956115710581F0DB012D
:103F50000D900020E9F7AD0141505109461B570B68
:103F6000DC01ED91FC910280F381E02D099480E069
:103F700090E008950C94A41FDC01ED91FC91019058
:103F8000F081E02D09946CEF73E00C94A41F0F9363
:103F90001F93CF93DF93EC010E94A41F8C01CE01ED
:103FA0000E94C31F800F911FDF91CF911F910F912E
:103FB00008958F929F92AF92BF92CF92DF92EF922D
:103FC000FF920F931F93CF93DF93CDB7DEB7A197E7
:103FD0000FB6F894DEBF0FBECDBF7C01C42EE52F17
:103FE000CB01D22E19A221E02D1510F02AE0D22EFD
:103FF0008E010F5D1F4F8D2C912CA12CB12C6C2D9F
:104000007E2FA50194010E940C298C2DD29E80192F
:104010001124015011098A3014F4805D01C0895CBB
:10402000F8018083211531054105510521F0C22E8B
:10403000E32FCA01E4CFB801C7010E94A41FA196D3
:104040000FB6F894DEBF0FBECDBFDF91CF911F91A9
:104050000F91FF90EF90DF90CF90BF90AF909F9027
:104060008F900895CF92DF92EF92FF920F931F935C
:10407000CF93DF93EC016A017B012115310579F4BF
:10408000E881F9810190F081E02D642FDF91CF91DB
:104090001F910F91FF90EF90DF90CF9009942A30FD
:1040A0003105E9F477FF1AC06DE20E94BC1F8C0154
:1040B00044275527BA014C195D096E097F092AE08A
:1040C000CE010E94D91F800F911FDF91CF911F91C8
:1040D0000F91FF90EF90DF90CF9008952AE0B70105
:1040E000A601CE01DF91CF911F910F91FF90EF902C
:1040F000DF90CF900C94D91F9A01AB01662757FD32
:104100006095762F0C9432200F931F93CF93DF93FB
:10411000EC019A01AB01662757FD6095762F0E944E
:1041200032208C01CE010E94C31F800F911FDF91AE
:10413000CF911F910F9108950F931F93CF93DF930A
:10414000EC010E9432208C01CE010E94C31F800F1F
:10415000911FDF91CF911F910F9108952115310586
:1041600041F4DC01ED91FC910190F081E02D642F90
:1041700009940C94D91F9A01462F50E060E070E03A
:104180000C94AE209A01AB0160E070E00C94AE207C
:104190000F931F93CF93DF93EC019A01AB0160E083
:1041A00070E00E94AE208C01CE010E94C31F800FE0
:1041B000911FDF91CF911F910F9108950F931F933E
:1041C000CF93DF93EC010E94AE208C01CE010E94C0
:1041D000C31F800F911FDF91CF911F910F91089501
:1041E0004F925F926F927F928F929F92AF92BF9207
:1041F000CF92DF92EF92FF920F931F93CF93DF93B3
:10420000EC016A017B01B22E9A01AB01C701B60134
:104210000E94E828882319F06FEF73E027C0260179
:104220003701E89477F82FEF3FEF4FE75FE7C301DF
:10423000B2010E94E82881110DC02FEF3FEF4FE738
:104240005FE7C301B2010E94322718161CF463E035
:1042500074E00CC02FEF3FEF4FE75FE4C701B601FA
:104260000E9481281816ACF467E074E0CE01DF915B
:10427000CF911F910F91FF90EF90DF90CF90BF9063
:10428000AF909F908F907F906F905F904F900C9425
:10429000A41F2FEF3FEF4FE75FECC701B6010E946D
:1042A000322787FDE1CF20E030E0A901C701B60148
:1042B0000E94322787FF0AC06DE2CE010E94BC1F18
:1042C0008C01F7FAF094F7F8F09402C000E010E0E7
:1042D000A12C60E070E080E09FE3AB1441F020E0AF
:1042E00030E040E251E40E943627A394F6CF9B01D0
:1042F000AC01C701B6010E94CE266B017C010E9471
:10430000A3272B013C010E94CF279B01AC01C701D1
:10431000B6010E94CD266B017C012AE0B301A20107
:10432000CE010E94D91F080F191FBB2039F06CE481
:1043300073E0CE010E94A41F080F191F7B2C772069
:1043400041F120E030E040E251E4C701B6010E94B3
:1043500085286B017C010E949E274B01AA2497FCB3
:10436000A094BA2C2AE030E0B501A401CE010E944D
:104370003220080F191FC501B4010E94D1279B01EB
:10438000AC01C701B6010E94CD266B017C017A9475
:10439000D6CFC801DF91CF911F910F91FF90EF9081
:1043A000DF90CF90BF90AF909F908F907F906F9055
:1043B0005F904F9008950C94F0200F931F93CF932C
:1043C000DF93EC010E94F0208C01CE010E94C31FFC
:1043D000800F911FDF91CF911F910F910895615030
:1043E00030F02091F100FC0120830196F8CF289A4B
:1043F00084E680937406089540916F06509170068C
:1044000020916D0630916E0642175307B4F49091D7
:10441000E8009570E1F39091E80092FD19C0809357
:10442000F10080916F069091700601968F73992725
:10443000892B19F48EEF8093E80080916F0690919C
:10444000700601969093700680936F0681E0089540
:1044500080E00895CF92DF92EF92FF920F931F9327
:10446000CF93DF931F92CDB7DEB7082F162FF42E10
:10447000862F880F8E5F99830E94FC2183E00E9423
:10448000FC21E02EC02E9981D92E8C2D8E198117FA
:1044900098F4F601F7FE02C0849101C080810E9469
:1044A000FC21082F80E00E94FC218023FFEFCF1A1F
:1044B000DF0A8111EACF01C081E00F90DF91CF9137
:1044C0001F910F91FF90EF90DF90CF900895809112
:1044D000D70081608093D70080EA8093D80089B5A7
:1044E000806189BD89B5826089BD09B400FEFDCFB8
:1044F00061E070E080E090E00E941C1D8091D80097
:104500008F7C80618093D8008091E000807F8093D1
:10451000E0000895CF93DF931F92CDB7DEB71982E5
:10452000CE0101960E94FD1E0E94B926BE016F5F5A
:104530007F4F0E94322689810F90DF91CF9108959D
:104540002FB7FC012083F89467706093E900089509
:10455000CF93DF931F92CDB7DEB7682FCE010196C0
:104560000E94A0228091F20099819FBF0F90DF915D
:10457000CF910895FF920F931F93CF93DF9300D0B5
:10458000CDB7DEB7F62E8A0190917306992311F00C
:1045900057FF03C08FEF9FEF2BC0682FCE0101960E
:1045A0007A830E94A0228091F20090E0A8017A8193
:1045B000801791070CF4AC01EF2DF72FF40E84E671
:1045C000FE1639F0289A809374069091F100919329
:1045D000F7CF4115510521F08091F200882321F099
:1045E00089818FBFCA0104C08BE68093E800F8CFB1
:1045F0000F900F90DF91CF911F910F91FF90089531
:10460000CF93DF931F92CDB7DEB741E050E0BE01FC
:104610006F5F7F4F0E94BA22019719F4898190E061
:1046200002C08FEF9FEF0F90DF91CF910895CF934E
:10463000DF931F92CDB7DEB7682FCE0101960E949F
:10464000A0229091E800892F807295FF04C090917C
:10465000F20080E4891B99819FBF0F90DF91CF9179
:1046600008956F927F928F929F92AF92BF92CF9256
:10467000DF92EF92FF920F931F93CF93DF931F92DE
:10468000CDB7DEB7782E7B01C42EB52E8091730690
:10469000882369F0042F152F8AEFD82E872D80727A
:1046A000982E9AE3A92E872D8074882E11C08FEF43
:1046B0009FEF57C0872D0E941723682E81110CC0D1
:1046C000DA94A9F361E070E080E090E00E941C1DA4
:1046D0000115110579F73BC0282F30E002171307A9
:1046E0000CF4602E672DCE0101960E94A0228091CD
:1046F000E80085FF29C0262D30E0021B130B99200E
:1047000039F06A948FEF6816B1F01092F100F9CF8A
:10471000F701862D77FE07C0815058F09491909351
:10472000F1003196F9CF815020F091919093F100F2
:10473000FACFE20EF31E8091E80085FF0FC001154D
:10474000110511F481100AC089818FBFC1CF5D9A14
:1047500084E6809375068C2D9B2D03C0A092E80003
:10476000F3CF0F90DF91CF911F910F91FF90EF90BA
:10477000DF90CF90BF90AF909F908F907F906F9081
:1047800008951092E9001092700610926F069093AF
:104790006E0680936D060895CF92DF92FF920F937D
:1047A0001F93CF93DF9300D0CDB7DEB7F82E8A01E9
:1047B0006B0101151105B1F0F601F7FE02C08491FD
:1047C00001C0808149835A830E94FC210150110954
:1047D000FFEFCF1ADF0A49815A818111EACF8FEFAB
:1047E0009FEF01C0CA010F900F90DF91CF911F91F1
:1047F0000F91FF90DF90CF9008951F93CF93DF9399
:104800001F92CDB7DEB7162F2091E80022FFFCCF14
:10481000612F79830E94EF218BEF8093E800812F35
:104820007981972F0F90DF91CF911F9108951F925B
:104830000F920FB60F921124DF92EF92FF920F9317
:104840001F932F933F934F935F936F937F938F9318
:104850009F93AF93BF93EF93FF93CF93DF93CDB726
:10486000DEB76C97DEBFCDBF1092E9008091E80003
:1048700083FF23C168E0CE0145960E94EF2182EFBD
:104880008093E8003D8937FF05C08091E80080FFF4
:10489000FCCF03C08EEF8093E800832F807609F071
:1048A000F0C02E894F89D88C21110CC0303829F4E2
:1048B000809172068093F10002C01092F100109274
:1048C000F100F4C0842F90E09D29213049F431118A
:1048D000EDC0019709F0EAC0809172068D7F0AC091
:1048E000233059F43111E2C0019709F0DFC0809103
:1048F0007206826080937206D9C0253041F480919F
:10490000E80080FFFCCF40684093E300CFC0263032
:1049100009F08DC0EB8CFC8C22E0D2122CC080E020
:1049200090E00E94C1230E948A2299E08E010F5FCD
:104930001F4FF801292F11922A95E9F79983DA82FE
:1049400091E09E8390EA98879AEF998720916F066D
:1049500030917006275F3F4F3C832B838D83C701C7
:104960000E94C12349E050E0B80180E00E94CC23BE
:104970000E948A229BC0C7010E94C1230E94B926BF
:10498000BE016B5E7F4F0E945B26009719F00CF012
:104990008DC090C081E0D8120EC08B8D9C8D089781
:1049A00019F481E080936C0680916C0681112FC010
:1049B00061EB71E031C0E3E0DE127CC08F898823B7
:1049C00049F1823029F440E86DE08FEC91E01CC0A1
:1049D000813029F440E86BE083EC91E015C083302E
:1049E00009F068C00E94B9268E010F5F1F4FB80101
:1049F0000E947A26F80101900020E9F73197E01B28
:104A0000F10B40E06E2FC8010E942A224DC06FE9D1
:104A100071E002C06DED71E06115710509F44AC0E5
:104A2000FB01449150E080E80E94CC233FC0273036
:104A300009F440C0283021F481E08093F10036C0B1
:104A40002930A1F53370B1F5E1E7F1E081E021E033
:104A500036E39081992361F08093E9002093EB0085
:104A600091919093EC003093ED008F5F873089F740
:104A70008EE78093EA001092EA008F898093730694
:104A800015C08B8D9C8D0E94C123898D811105C01D
:104A9000CE0145960E94081F07C00E94B926BE019C
:104AA0006B5E7F4F0E949926882321F08EEF8093C2
:104AB000E80003C081E28093EB006C960FB6F89497
:104AC000DEBF0FBECDBFDF91CF91FF91EF91BF91C0
:104AD000AF919F918F917F916F915F914F913F9196
:104AE0002F911F910F91FF90EF90DF900F900FBECD
:104AF0000F901F9018958093E9008091F200882311
:104B000019F08AE38093E80008951F920F920FB680
:104B10000F9211242F933F934F935F936F937F9343
:104B20008F939F93AF93BF93CF93EF93FF93C091D6
:104B3000E1008091E100837F8093E1008093E100B8
:104B4000C3FF0FC01092E90081E08093EB00109248
:104B5000EC0082E38093ED001092730688E080936E
:104B6000F000C2FF19C083E00E947B25809175068A
:104B7000882339F0809175068150809375068823CB
:104B800089F180917406882339F0809174068150F0
:104B900080937406882341F1C4FF10C08091E20025
:104BA0008E7E81608093E2008091E1008F7E809311
:104BB000E100809171068E7E806111C0C0FF16C039
:104BC0008091E2008E7E80618093E2008091E1001E
:104BD0008E7E8093E100809171068E7E816080934D
:104BE000710604C05D98CDCF2898D6CFFF91EF9184
:104BF000CF91BF91AF919F918F917F916F915F9175
:104C00004F913F912F910F900FBE0F901F901895CD
:104C10001092730610927206109271060E9467221B
:104C2000E1EEF0E080818E7E80838DE08093E20073
:104C3000559A209A5D982898089508950E94441DD9
:104C40000E941D268BE696E00E9408260E943B16D5
:104C5000C0E0D0E00E9414192097E1F30E94000008
:104C6000F9CF0895EF92FF920F931F93CF93DF93A5
:104C70007B01FC01C281D38100E010E0209781F02C
:104C8000E881F9810280F381E02DB701CE01099519
:104C900097FD08C0080F191F0884D985C02DEECFD5
:104CA000C80102C08FEF9FEFDF91CF911F910F914D
:104CB000FF90EF9008950F931F93CF93DF938B0195
:104CC000FC01C281D381209771F0E881F9810480D1
:104CD000F581E02DB801CE010995009731F40884E3
:104CE000D985C02DF0CF80E090E0DF91CF911F916A
:104CF0000F9108950F931F93CF93DF938B01FC01C6
:104D0000C281D381209771F0E881F9810680F78113
:104D1000E02DB801CE010995080F111D0884D98531
:104D2000C02DF0CFF8011082DF91CF911F910F912C
:104D300008950F931F93CF93DF938B01FC01C281E2
:104D4000D381209771F0E881F9810190F081E02D05
:104D5000B801CE010995811106C00884D985C02DFE
:104D6000F0CF80E001C081E0DF91CF911F910F91E2
:104D7000089580917A0681110DC082E080937606B5
:104D800084E080937706109279061092780681E08D
:104D900080937A0686E796E008955058BB27AA27A5
:104DA0000ED075C166D130F06BD120F031F49F3F49
:104DB00011F41EF45BC10EF4E095E7FB51C1E92F3D
:104DC00077D180F3BA17620773078407950718F045
:104DD00071F49EF58FC10EF4E0950B2EBA2FA02D25
:104DE0000B01B90190010C01CA01A0011124FF2798
:104DF000591B99F0593F50F4503E68F11A16F04093
:104E0000A22F232F342F4427585FF3CF4695379591
:104E10002795A795F0405395C9F77EF41F16BA0B56
:104E2000620B730B840BBAF09150A1F0FF0FBB1F04
:104E3000661F771F881FC2F70EC0BA0F621F731F4D
:104E4000841F48F4879577956795B795F7959E3FAA
:104E500008F0B3CF9395880F08F09927EE0F979538
:104E600087950895D9D008F481E008950CD00FC13A
:104E700007D140F0FED030F021F45F3F19F0F0C0D0
:104E8000511139C1F3C014D198F39923C9F35523B3
:104E9000B1F3951B550BBB27AA276217730784072D
:104EA00038F09F5F5F4F220F331F441FAA1FA9F3E3
:104EB00033D00E2E3AF0E0E830D091505040E695D5
:104EC000001CCAF729D0FE2F27D0660F771F881F36
:104ED000BB1F261737074807AB07B0E809F0BB0B25
:104EE000802DBF01FF2793585F4F2AF09E3F510549
:104EF00068F0B6C000C15F3FECF3983EDCF38695E6
:104F000077956795B795F7959F5FC9F7880F911DBE
:104F10009695879597F90895E1E0660F771F881FAA
:104F2000BB1F621773078407BA0720F0621B730B5D
:104F3000840BBA0BEE1F88F7E095089504D06894AF
:104F4000B111D9C00895BCD088F09F5790F0B92F07
:104F50009927B751A0F0D1F0660F771F881F991FCE
:104F60001AF0BA95C9F712C0B13081F0C3D0B1E0E0
:104F70000895C0C0672F782F8827B85F39F0B93FF0
:104F8000CCF3869577956795B395D9F73EF49095D0
:104F90008095709561957F4F8F4F9F4F0895E8944E
:104FA00009C097FB3EF490958095709561957F4F71
:104FB0008F4F9F4F9923A9F0F92F96E9BB2793951F
:104FC000F695879577956795B795F111F8CFFAF42F
:104FD000BB0F11F460FF1BC06F5F7F4F8F4F9F4F60
:104FE00016C0882311F096E911C0772321F09EE8BE
:104FF000872F762F05C0662371F096E8862F70E024
:1050000060E02AF09A95660F771F881FDAF7880FFD
:105010009695879597F90895990F0008550FAA0B53
:10502000E0E8FEEF16161706E807F907C0F01216BB
:105030001306E407F50798F0621B730B840B950BBE
:1050400039F40A2661F0232B242B252B21F4089513
:105050000A2609F4A140A6958FEF811D811D0895B0
:1050600097F99F6780E870E060E008959FEF80EC1B
:10507000089500240A9416161706180609060895BE
:1050800000240A9412161306140605060895092E24
:105090000394000C11F4882352F0BB0F40F4BF2B93
:1050A00011F460FF04C06F5F7F4F8F4F9F4F0895D3
:1050B00057FD9058440F551F59F05F3F71F04795C9
:1050C000880F97FB991F61F09F3F79F087950895AE
:1050D000121613061406551FF2CF4695F1DF08C0CD
:1050E000161617061806991FF1CF869571056105EA
:1050F00008940895E894BB2766277727CB0197F992
:1051000008958ADF08F48FEF08950BD0C0CFB1DF88
:1051100028F0B6DF18F0952309F0A2CFA7CF11240D
:10512000EACFC6DFA0F3959FD1F3950F50E0551F4E
:10513000629FF001729FBB27F00DB11D639FAA27EC
:10514000F00DB11DAA1F649F6627B00DA11D661F3B
:10515000829F2227B00DA11D621F739FB00DA11D5C
:10516000621F839FA00D611D221F749F3327A00D16
:10517000611D231F849F600D211D822F762F6A2FB2
:1051800011249F5750408AF0E1F088234AF0EE0F37
:10519000FF1FBB1F661F771F881F91505040A9F744
:1051A0009E3F510570F05CCFA6CF5F3FECF3983E79
:1051B000DCF3869577956795B795F795E7959F5FAB
:1051C000C1F7FE2B880F911D9695879597F9089545
:1051D00023DF880B990B0895991B79E004C0991F70
:1051E000961708F0961B881F7A95C9F78095089541
:1051F00097FB072E16F4009407D077FD09D00E9484
:105200005D2907FC05D03EF4909581959F4F089548
:10521000709561957F4F0895A1E21A2EAA1BBB1BC2
:10522000FD010DC0AA1FBB1FEE1FFF1FA217B30772
:10523000E407F50720F0A21BB30BE40BF50B661F88
:10524000771F881F991F1A9469F76095709580954C
:1052500090959B01AC01BD01CF010895EE0FFF1F9A
:105260000590F491E02D0994A29FB001B39FC00175
:10527000A39F700D811D1124911DB29F700D811D82
:105280001124911D08950E943429B7FF0895821BAF
:10529000930B08950E943429A59F900DB49F900D03
:1052A000A49F800D911D11240895B7FF0C944A29E5
:1052B0000E944A29821B930B0895AA1BBB1B51E134
:1052C00007C0AA1FBB1FA617B70710F0A61BB70B76
:1052D000881F991F5A95A9F780959095BC01CD011B
:1052E0000895FC0188279927E89421912032E9F359
:1052F000293010F02E30C8F32B3241F02D3239F422
:10530000689404C00E94A829820F911D2191205306
:105310002A30C0F31EF4909581959F4F08958032F6
:1053200009F0911133C080528F55E0F70895911123
:105330002DC0803219F089508550D0F70895FB01B7
:10534000DC018D91019080190110D9F3990B08951A
:105350007AE0979F902D879F802D910D11240895BD
:10536000F999FECF92BD81BDF89A992780B508952D
:10537000262FF999FECF1FBA92BD81BD20BD0FB671
:10538000F894FA9AF99A0FBE0196089599278827FA
:065390000895F894FFCF20
:105396000196034A0F9701E7109A03D110A0030361
:1053A60011C80345116C0374138C02560F89027AD7
:1053B6000F7703B60FA503FD117403A40F6F03EC5B
:1053C60012A803D311AB03920FAE03D80FB103009B
:1053D60010B8032810C00393115E037411C603CDE1
:1053E60010CE035010D4036C10D8035F12000000D7
:1053F60000FF0101FFFFFFFF00E1000000000000C9
:1054060000C180810000007072696D61727900735D
:1054160065636F6E64617279007374617274696E2C
:1054260067200073746F7070696E67006B696C6CCF
:10543600696E67007374617274696E672074696D52
:10544600656F75740063757272656E74206E6F7227
:105456006D616C0063757272656E74206C6F770097
:1054660063757272656E7420686967680063757229
:1054760072656E7420737472657373656400686513
:10548600617274626561742074696D656F7574000C
:10549600756E6D616E6167656420737769746368A4
:1054A6000073746F702074696D656F75740068653C
:1054B60061727462656174006C6F673A2000A1AD19
:1054C600A1AD1F1C1F1E1F1E1F1F1E1F1E1F011505
:1054D60062686A636B00000102030507160B170476
:1054E60006080A0C0D0974656D7065726174757233
:1054F600653D0068756D69646974793D006877205B
:10550600006B6572200074696D6520006769742000
:105516000063396164006F6E00686200637500574E
:1055260044524600424F5246004558545246005097
:105536004F5246007365742073640073657420656A
:105546006D6D6300696E76616C6964206D65646972
:1055560061003F00696E76616C6964206D6F6465F9
:10556600003C3C3C2D207369643D00696E76616C9D
:10557600696420636F6D6D616E64002D3E3E3E0072
:1055860030006E6300676E00637300783100783216
:10559600006261636B6F6666006261636B696E676A
:1055A600206F6666206F662000706F7374006375E7
:1055B6007272656E742073656E736F72200020744C
:1055C6006F6F206D616E79206661756C7473002053
:1055D6006F7574206F662072616E67652E00746841
:1055E60065726D6973746F722000626F6F746C6F91
:1055F6006700626F6F746474002021006964006440
:1056060061746500746800656E76006661696C7326
:1056160000656E61626C65640073642000656D6D83
:105626006320003F2000727463007374617274001B
:1056360073746F7000627300626600666300757053
:1056460000656E61626C650064697361626C650019
:105656007761746368006565726573657400626F6F
:105666006F74730076657200626C6600000000005D
:10567600BD19901965196D1980198F190000000060
:10568600A01EE71ECA1EDA1EB61EC71E0D0A006E33
:0C569600616E00696E66006F76660000B1
:00000001FF
