:100000000C94F6000C941E010C941E010C941E011D
:100010000C941E010C941E010C941E010C941E01E4
:100020000C941E010C941E010C9462250C94F42374
:100030000C941E010C941E010C941E010C941E01C4
:100040000C941E010C941E010C941E010C941E01B4
:100050000C94A80C0C941E010C941E010C94801C92
:100060000C941E010C941E010C941E010C941E0194
:100070000C941E010C941E010C941E010C941E0184
:100080000C941E010C941E010C941E010C941E0174
:100090000C94531B0C941E010C941E010C941E0115
:1000A0000C941E010C941E010C941E01C01DC31D56
:1000B000B21DB61DBC1DE41DE41DE41DC71DCB1DF6
:1000C000CF1DD51DD91DE41DDF1D07060504010048
:1000D000080A0B0C0D090000000200090F000003C4
:1000E0000401000C000000000000000000000000FF
:1000F0000000000000040802011040804010204071
:10010000804080080204018040201002011080100D
:1001100020404020040404040403040502020202F7
:100120000403020202020606060606060404020290
:10013000020404000000002300260029002C002FE8
:100140000000000000250028002B002E00310000D8
:10015000000000240027002A002D003000080B00BA
:10016000020202010009040000010202000005244D
:1001700000100105240101010424020605240600E3
:10018000010705810310004009040100020A000074
:10019000000705020240000007058302400000122C
:1001A000010002EF020140412337800001010203F8
:1001B00001120100020000004041233780000101CC
:1001C00002030141726475696E6F204C4C4300411B
:1001D000726475696E6F204D6963726F0004030964
:1001E00004000106A60A970E691A641F11241FBE97
:1001F000CFEFDAE0DEBFCDBF14E0A0E0B1E0E0E594
:10020000F3E502C005900D92A430B107D9F726E0BE
:10021000A4E0B4E001C01D92AA37B207E1F711E0F3
:10022000CCEED1E004C02297FE010E940D29C23E0F
:10023000D107C9F70E94FB250C94A6290C94000055
:10024000FC012285213039F4478D50A161A172A1B2
:1002500043960C94820C80E008954B960C946E0C9F
:10026000CF93DF93EC018885882311F0898513C033
:100270008B85882341F08A810E941D09837099270C
:10028000039741F405C08A810E94E40880FF02C000
:100290008D8101C08C81DF91CF910895FC0181E0B7
:1002A0008087618783810C94F10DFC0143A354A3E3
:1002B00065A376A308951F93CF93DF93EC018A8102
:1002C0000E94370F8F3F2FEF9207C9F088379105B3
:1002D00048F08C3221E0920738F08235934030F4B8
:1002E00011E005C012E003C010E001C013E08E85EC
:1002F000181729F0CE010F960E94620C1E87DF911D
:10030000CF911F9108950F931F93CF93DF931F9267
:10031000CDB7DEB78C01439669830E94620CC80199
:1003200047960E94620CC8014B960E94620CC8015D
:100330000F960E94620C6981F80162870F90DF912D
:10034000CF911F910F910895CF93DF93EC01188601
:10035000198682E08E871F8E18A219A21AA240E683
:100360005AEE60E070E04BA35CA36DA37EA38A818C
:100370000E94C508882311F061E001C060E0CE0151
:10038000DF91CF910C948301CF93DF93EC0161E077
:100390008A810E94BC0861E0CE010E94830180E056
:1003A000DF91CF910895CF93DF93EC018A81811182
:1003B0000FC040E65AEE60E070E0CE0143960E9426
:1003C000820C882329F0CE01DF91CF910C94C401D7
:1003D000DF91CF91089520915E01222329F0BC0185
:1003E00083E196E00C94971F0895FF920F931F935B
:1003F000CF93DF9300D000D0CDB7DEB78C01FC01E6
:100400008285813009F068C082810E941D0921E047
:100410004E9708F020E0F8012387C8010E943001C0
:10042000F82EF8011086682F83810E94F10DF801E3
:10043000808191810E944D0585E891E00E94EB0149
:10044000F8018481F81203C083E791E002C08BE7D2
:1004500091E00E94EB010E946905F80182810E94EF
:100460001209CE0101960E940D0E49815A816B81BD
:100470007C81F801228130E0C901880F991F820F29
:10048000931F8B5F9B4F0E94600A62E0F80182819C
:100490000E945E096AE070E080E090E00E94F91C32
:1004A00061E0F80182810E94A10D64EF71E080E0BB
:1004B00090E00E94F91C61E0F80182810E945E09CF
:1004C0006AE070E080E090E00E94F91C63E0C801FF
:1004D0000E94830180E001C081E00F900F900F9097
:1004E0000F90DF91CF911F910F91FF900895CF93BF
:1004F000DF93EC018A85833081F4888199810E94A1
:100500004D058FE891E00E94EB010E94690564E0CF
:10051000CE010E94830180E001C081E0DF91CF9194
:100520000895CF93DF93EC018A85882391F1888128
:1005300099810E944D0588E991E00E94EB010E949B
:10054000690563E08A810E945E096AE070E080E0EC
:1005500090E00E94F91C60E08A810E94A10D64EF86
:1005600071E080E090E00E94F91C60E08A810E94C6
:100570005E096AE070E080E090E00E94F91C61E0B2
:10058000CE010E94830189E794E00E94620C80E022
:1005900001C081E0DF91CF910895CF93DF93EC010B
:1005A0008A81882319F060E00E94BC08CE010E9475
:1005B00091028A81882321F060E0CE010E948301AC
:1005C00080E0DF91CF910895CF93DF93EC0140EE6F
:1005D00053E964E070E043960E94820C882391F016
:1005E000888199810E944D0580EA91E00E94EB018B
:1005F0000E9469058A810E944B09CE01DF91CF914B
:100600000C949102DF91CF9108950F931F93CF9394
:10061000DF93EC018E81882351F040EE53E964E0D2
:1006200070E0CE014B960E94820C811111C08F8127
:10063000882309F441C08E01015F1F4F40E157E25A
:1006400060E070E0C8010E94820C811112C034C0C9
:10065000888199810E944D058AEE91E00E94EB010C
:100660000E9469058A810E944B09CE010E9477028F
:10067000DECF888199810E944D058E85813069F495
:1006800089ED91E00E94EB010E946905C801DF91AC
:10069000CF911F910F910C94620C813018F481EB73
:1006A00091E0F0CF823019F480EC91E0EBCF833011
:1006B00059F78CEC91E0E6CFDF91CF911F910F912C
:1006C0000895CF93DF93EC0140E05AEB6BED70E0BF
:1006D00043960E94820C8823C1F0888199810E94F0
:1006E0004D058CEF91E00E94EB010E946905CE015F
:1006F0000E94300161E0811160E0CE010E944E0154
:10070000CE01DF91CF910C947702DF91CF910895C4
:10071000FC01238521110C9405030C9461030F93B4
:100720001F93CF93DF93EC018C01095E1F4F40E1D3
:1007300057E260E070E0C8010E94820C882369F0F3
:10074000C8010E94620C888199810E944D058FE842
:1007500091E00E94EB010E9469054BA15CA16DA193
:100760007EA1CE0143960E94820C8823C9F040E608
:100770005AEE60E070E04BA35CA36DA37EA388817A
:1007800099810E944D058DE092E00E94EB010E944C
:100790006905CE01DF91CF911F910F910C949102C9
:1007A000DF91CF911F910F910895FC012285223096
:1007B00059F018F4222331F00895233039F0243011
:1007C00039F008950C94D3010C94E4020C9488033E
:1007D0000C948F03CF93DF93EC014B960E94620C35
:1007E000888199810E944D058AE192E00E94EB0187
:1007F0000E9469058A85882341F0833058F463E0BC
:10080000CE01DF91CF910C948301CE01DF91CF9186
:100810000C94CD02DF91CF910895DC011296EC91FA
:10082000F0E0EC5EFB4F2081283018F010820C9431
:10083000EA030895CF93DF93EC010E940D04CE01EB
:100840000E945B01CE01DF91CF910C94D5030C94F3
:10085000EA03DC01ED91FC910190F081E02D099417
:10086000089508950F931F93CB01A0E0B0E0BA2F35
:10087000A92F982F8827842BE7E1F0E040E050E88B
:1008800068E970E08C019D010E2E04C03695279515
:10089000179507950A94D2F700FF04C0842795277F
:1008A000A627B72776956795579547953197E730EF
:1008B000F10541F71F910F910895EF92FF920F9369
:1008C0001F93CF93DF938C0160E470E08AE495E09E
:1008D0000E94ED1965EF70E08AE495E00E9429041A
:1008E0008AE495E00E94661A67E370E080E090E099
:1008F0000E94F91C43E050E060E470E08AE495E077
:100900000E94631AF12C8AE495E00E944219039731
:10091000BCF18AE495E00E944A19E82E8AE495E049
:100920000E944A19F82E8AE495E00E944A19DE2DA9
:1009300090E0C92FCF29482FBE01C8010E94320480
:10094000811119C0BE016C7F80E090E00E94AC274D
:1009500020E030E040E857E30E94622820E030E0E9
:100960004AEF52E40E94622820E030E040EC50E47C
:100970000E94AA2613C060E070EC89E794E40EC0E0
:1009800065E070E080E090E00E94F91CF39484E65A
:10099000F812B9CF60E070E889E794E4DF91CF9175
:1009A0001F910F91FF90EF900895EF92FF920F9398
:1009B0001F93CF93DF937C0160E470E08AE495E0BD
:1009C0000E94ED1963EF70E08AE495E00E9429042B
:1009D0008AE495E00E94661A67E370E080E090E0A8
:1009E0000E94F91C43E050E060E470E08AE495E086
:1009F0000E94631A05E610E08AE495E00E9442191D
:100A0000039774F461E070E080E090E00E94F91CCC
:100A10000150110989F760E070E889E794E436C075
:100A20008AE495E00E944A19082F8AE495E00E9422
:100A30004A19182F8AE495E00E944A19D02F90E0B5
:100A4000C92FC12B482FBE01C7010E94320481115A
:100A500019C0BE016C7F80E090E00E94AC2720E0CE
:100A600030E040E857E30E94622822E538EB4FE28D
:100A700053E40E94622826E636E64BE352E40E94E5
:100A8000AA2604C060E070EC89E794E4DF91CF917E
:100A90001F910F91FF90EF900895CF93DF93EC019A
:100AA00080915E01882391F064E272E083E196E038
:100AB0000E94971FBE0183E196E00E94971F60E2AB
:100AC00083E196E0DF91CF910C94991FDF91CF9154
:100AD000089580915E01882321F083E196E00C94D3
:100AE000A01F0895FC01611103C0411107C004C09B
:100AF000623061F44230C1F488E61DC0423011F426
:100B000089E619C04130C1F48AE615C06130A1F40C
:100B1000411102C08CE60FC0423011F48DE60BC0CB
:100B2000413051F48EE607C0411102C08BE603C08C
:100B3000413011F48FE6808308950F931F93CF9374
:100B4000DF93EC01142F186820E2629FC00111248A
:100B5000182B0AE068818AE495E00E94E319612F6E
:100B60008AE495E00E949A198AE495E00E94661A48
:100B7000882311F0015071F7DF91CF911F910F91F0
:100B800008950F931F93CF93DF938C0160E570E07E
:100B900080E090E00E94F91CF801608170E043E081
:100BA00050E08AE495E00E94631A1AE08AE495E036
:100BB0000E94421903972CF41150C1F7CFEFDFEFD9
:100BC00012C08AE495E00E944A19082F8AE495E051
:100BD0000E944A19182F8AE495E00E944A19D02FE2
:100BE000F0E0CF2FC12BCE01DF91CF911F910F915C
:100BF0000895982F92959F702AEF929F800D11244F
:100C000008958AE495E00C94D9191F93CF93DF934C
:100C1000EC016FE670E08AE495E00E94ED1960E077
:100C20008AE495E00E949A1960E08AE495E00E94C7
:100C30009A1929811AE0822F612F0E94C928682FF2
:100C4000660F680F660F620F8AE495E00E949A199A
:100C50002A81822F612F0E94C928682F660F680F92
:100C6000660F620F8AE495E00E949A198B81886072
:100C7000682F70E08AE495E00E9429042C81822F7D
:100C8000612F0E94C928682F660F680F660F620FD8
:100C90008AE495E00E949A192D81822F612F0E948B
:100CA000C928682F660F680F660F620F8AE495E007
:100CB0000E949A192E812E51822F612F0E94C928DD
:100CC000682F660F680F660F620F8AE495E00E9436
:100CD0009A198AE495E00E94661A6FE670E08AE449
:100CE00095E00E94ED1960E08AE495E00E949A196F
:100CF0002881822F612F0E94C928682F660F680FF4
:100D0000660F620F606870E08AE495E00E94290433
:100D10008AE495E0DF91CF911F910C94661ACF93EE
:100D2000DF93CDB7DEB727970FB6F894DEBF0FBEBF
:100D3000CDBFAE014F5F5F4F0E94D00ACE0101963A
:100D40000E94050627960FB6F894DEBF0FBECDBFF2
:100D5000DF91CF910895CF93DF93EC016FE670E0C0
:100D60008AE495E00E94ED1960E08AE495E00E9433
:100D70009A198AE495E00E94661A81113EC047E004
:100D800050E06FE670E08AE495E00E94631A8AE41E
:100D900095E00E944A198F770E94F90588838AE4BA
:100DA00095E00E944A190E94F90589838AE495E03A
:100DB0000E944A198F7B0E94F9058A838AE495E094
:100DC0000E944A19877C8B838AE495E00E944A1925
:100DD0000E94F9058C838AE495E00E944A198F7D70
:100DE0000E94F9058D838AE495E00E944A190E94C9
:100DF000F905825E8E8381E001C080E0DF91CF91B2
:100E00000895CF93DF93CDB7DEB727970FB6F89449
:100E1000DEBF0FBECDBFCE0101960E94AB06882378
:100E200029F0CE0101960E94A70B03C060E070E09C
:100E3000CB0127960FB6F894DEBF0FBECDBFDF9172
:100E4000CF9108950F931F93CF93DF938B0167E5A5
:100E500070E08AE495E00E94ED1960EF70E08AE4AA
:100E600095E00E9429048AE495E00E94661A48E011
:100E700050E067E570E08AE495E00E94631AE801BB
:100E800018E08AE495E00E944A1989931150C9F745
:100E9000DF91CF911F910F9108950C9495290C9497
:100EA0008D29CF92DF92EF92FF920F931F93CF93F2
:100EB000DF9300D0CDB7DEB76C018B017C0184E0FD
:100EC000E80EF11CC60169837A830E948D29F8011E
:100ED00081938F01FFEFCF1ADF0A69817A81CE14E7
:100EE000DF0481F7CB010F900F90DF91CF911F911D
:100EF0000F91FF90EF90DF90CF9008950F931F9385
:100F0000CF93DF938C01EB010E948D298883C80168
:100F100001960E948D298983CE01DF91CF911F9187
:100F20000F910895EF92FF920F931F93CF93DF934A
:100F30001F92CDB7DEB77C01FC0100811181C80191
:100F400069830E948D296981681719F0C8010E9480
:100F50009529C7010F90DF91CF911F910F91FF90BD
:100F6000EF900895BF92CF92DF92EF92FF920F938E
:100F70001F93CF93DF9300D01F92CDB7DEB78C01C4
:100F8000B62EE62EF72E6C0184E0C80ED11CF701B8
:100F900061917F011A830983CE0101967B830E94B0
:100FA00092070F5F1F4F7B810C151D0581F78B2D5D
:100FB000972F0F900F900F90DF91CF911F910F916E
:100FC000FF90EF90DF90CF90BF900895EF92FF9247
:100FD0000F931F93CF93DF9300D0CDB7DEB77C0183
:100FE0008B01FB0160819A838983CE0101960E9467
:100FF0009207F8016181FFEFEF1AFF0AFA82E98296
:10100000CE0101960E949207C8010F900F90DF91C8
:10101000CF911F910F91FF90EF900895EF92FF9263
:101020000F931F93CF93DF9300D0CDB7DEB77C0132
:101030008B01FB0160819A838983CE0101960E9416
:101040009207F8016181FFEFEF1AFF0AFA82E98245
:10105000CE0101960E949207C8010F900F90DF9178
:10106000CF911F910F91FF90EF900895CF93DF9351
:1010700000D000D0CDB7DEB7BE016F5F7F4F80E0FC
:1010800090E00E94510781E049815A816B817C8107
:10109000413A5D4A614A7D4A09F080E00F900F9025
:1010A0000F900F90DF91CF910895CF93DF9300D0F1
:1010B00000D0CDB7DEB719821A821B821C82BE0116
:1010C0006F5F7F4F80E090E00E94B2070F900F901B
:1010D0000F900F90DF91CF91089580E290E00E94F1
:1010E0004F0791E0811101C090E0892F0895682F8A
:1010F00080E290E00C944D0780E490E00C944F0760
:10110000833008F081E0682F80E490E00C944D0774
:10111000BC0184E090E00C94E607BC0186E090E01E
:101120000C94E607BC0188E090E00C945107BC01E8
:1011300088E090E00C94B207CF93DF9300D000D00A
:10114000CDB7DEB7CE0101960E94920889819A81BF
:10115000AB81BC810196A11DB11D89839A83AB83AC
:10116000BC83CE0101960E9497080F900F900F90BC
:101170000F90DF91CF91089590E002969695982F69
:101180008827979587950C944D07CF93C82F0E9479
:10119000070E982F882381F0CC2371F08C2F90E0DC
:1011A00002969695982F8827979587950E944F07C6
:1011B00091E0811101C090E0892FCF910895BC0189
:1011C0008CE090E00C94B207CF93DF9300D0CDB7C2
:1011D000DEB720E8829FC0011124BE016F5F7F4F00
:1011E000895F9E4F0E947E0789819A810F900F90A0
:1011F000DF91CF910895CF93DF9300D0CDB7DEB7C5
:101200007A83698320E8829FC0011124BE016F5F49
:101210007F4F895F9E4F0E940E080F900F90DF91C5
:10122000CF910895CF93C82F0E94E408BC016F5F4F
:101230007F4F8C2FCF910C94FB08CF93DF9300D07E
:10124000CDB7DEB720E8829FC0011124BE016F5FD9
:101250007F4F855F9E4F0E947E0789819A810F9004
:101260000F90DF91CF910895CF93DF9300D0CDB74A
:10127000DEB77A83698320E8829FC0011124BE0112
:101280006F5F7F4F855F9E4F0E940E080F900F90FB
:10129000DF91CF910895CF93C82F0E941D09BC0103
:1012A0006F5F7F4F8C2FCF910C94340920E8829F81
:1012B000C00111248A5D9E4F0C944F0720E8829F45
:1012C000C00111248A5D9E4F0C944D0720E8829F37
:1012D000C00111248C5E9E4F0C944F0720E8829F22
:1012E000C00111248C5E9E4F0C944D0720E8829F14
:1012F000C0011124815F9E4F0C944F0720E8829F0C
:10130000C0011124815F9E4F0C944D07FC01808128
:1013100091810C944F07FC01808191810C944D07C1
:10132000FC018081918101960C944F07FF920F93ED
:101330001F93CF93DF9300D000D01F92CDB7DEB7BD
:101340008C016D830E948609F82EC8010E949009C5
:101350006D816817E8F4F801208131812E5F3F4FDD
:10136000862F90E08F0D911D628170E00E94D5283C
:10137000880F991F880F991FBE016F5F7F4F820FE3
:10138000931F0E94510769817A818B819C8103C0E0
:1013900060E070E0CB010F900F900F900F900F90D6
:1013A000DF91CF911F910F91FF900895FC018081F3
:1013B000918101960C944D07CF93DF93EC0160E08F
:1013C0000E948B0960E0CE01DF91CF910C94D60989
:1013D000FF920F931F93CF93DF9300D000D0CDB730
:1013E000DEB719821A821B821C82CE0101960E94EE
:1013F000970819821A821B821C82CE0101960E94D4
:10140000DF0883E0898311E01A83CE0101960E94F0
:10141000880819831A82CE0101960E948D0881E006
:101420000E94770805E014E0F12C60E070E08F2D59
:101430000E94FB0860E070E08F2D0E94340960E09C
:101440008F2D0E945E0960E08F2D0E946E0960E082
:101450008F2D0E947E09C8010E94DC09F3940D5F64
:101460001F4F85E0F812E1CF61E080E091E00E943B
:101470004D0761E080E891E00E944D0761E080E067
:1014800092E00E944D0760E080E892E00E944D07E4
:1014900060E080E093E00E944D0780E00E948008B9
:1014A0006AE272E080E090E00E94B2070F900F9035
:1014B0000F900F90DF91CF911F910F91FF900895A2
:1014C000EF92FF920F931F93CF93DF9300D000D042
:1014D000CDB7DEB78C0149835A836B837C830E942E
:1014E0008609E82EC8010E949009F82EF801208193
:1014F00031812E5F3F4F90E08E0D911D628170E033
:101500000E94D528880F991F880F991FBE016F5F11
:101510007F4F820F931F0E94B207F801828161E022
:10152000F81205C06E0DC8010E948B0904C06F0D32
:10153000C8010E94D6090F900F900F900F90DF9175
:10154000CF911F910F91FF90EF90089528E0209385
:10155000070480E491E090930604809305042093AF
:101560000A0480EC91E0909309048093080420938E
:101570000D0480E492E090930C0480930B0420937C
:10158000100480EC92E090930F0480930E0420935B
:10159000130480E493E0909312048093110408955F
:1015A0006F927F928F929F92AF92BF92CF92DF9273
:1015B000EF92FF920F931F93CF93DF93EA012CE3F7
:1015C000C22ED12CE12CF12CA70196010E94E92812
:1015D0006883CA01B901A70196010E94E9286983BD
:1015E000CA01B90128E130E040E050E00E94E9285A
:1015F00049015A016A83CA01B9016C5F7F4F8F4F5D
:101600009F4F27E030E040E050E00E94E9286F5F04
:101610006B8300E010E0980140E054E6652E712CE9
:1016200060E9C62EDD24D394E42FF0E0EE54F84FA9
:101630007F0183E0E822FF24E114F10489F4CF0163
:10164000B3010E94D528892B29F08EE691E0A0E015
:10165000B0E00AC0CF01B6010E94D528892BA9F3BA
:101660008DE691E0A0E0B0E0080F191F2A1F3B1F94
:10167000D901C801AA27BB2788169906AA06BB0666
:1016800010F04F5FD1CF4E83E114F10499F4CF01F4
:1016900064E670E00E94D528892B29F08EE691E05F
:1016A000A0E0B0E00BC0CF0160E971E00E94D52856
:1016B000892BA1F38DE691E0A0E0B0E0081B190BA7
:1016C0002A0B3B0B801A910AA20AB30ACF0164E6E7
:1016D00070E00E94D5289C01CF0160E971E00E9472
:1016E000D528EEE2F2E0A0E0A13059F4E114F104D3
:1016F00051F42115310511F04DE106C00097E1F3D9
:1017000002C0408101C04CE150E060E070E084160E
:101710009506A606B70640F0841A950AA60AB70AE7
:10172000AF5F3196AC3001F7AF5FAD8383948C82AD
:10173000DF91CF911F910F91FF90EF90DF90CF90AD
:10174000BF90AF909F908F907F906F9008956F9211
:101750007F928F929F92AF92BF92CF92DF92EF9241
:10176000FF920F931F93CF93DF93FC01C680AC2DA4
:10177000B0E020E833E341EE51E00E9427294B011D
:101780005C0122EB37E06D01C4E6D0E000E911E036
:10179000C901825B97408C159D05DCF4C9018370FB
:1017A0009927892B99F4C901BE010E94D528892B5C
:1017B00031F4C901B8010E94D528892B39F480E899
:1017C000880E81E5981E81E0A81EB11C2F5F3F4F57
:1017D000DFCF6580712C8EE4C81A88EFD80AC60165
:1017E00064E670E00E94D5288C01C60160E971E0D2
:1017F0000E94D5287C01C1E0D0E083E0C822DD242E
:10180000C615D7052CF5C230D10589F4C114D10411
:1018100071F40115110519F4E114F10441F480E8A3
:10182000880E8BE3981E86E2A81EB11C0FC0DE0155
:10183000A35DBD4FAC91B0E020E831E541E050E060
:101840000E942729860E971EA81EB91E2196D8CF62
:101850004181228130E0A0E1BEE00E9411296B01AC
:101860007C01242F30E0ACE3B0E00E941129C60EC9
:10187000D71EE81EF91E8081C80ED11CE11CF11C88
:10188000A481B0E0119720E831E541E050E00E94EA
:101890003229C60ED71EE81EF91EC80CD91CEA1C38
:1018A000FB1CC701B601DF91CF911F910F91FF90F3
:1018B000EF90DF90CF90BF90AF909F908F907F90F0
:1018C0006F900895CF93DF93EC010E94CA1C688348
:1018D00079838A839B83DF91CF9108950F931F9320
:1018E000CF93DF93EC010E94CA1C088119812A81E1
:1018F0003B81601B710B820B930BDF91CF911F918A
:101900000F910895CF92DF92EF92FF920F931F9362
:10191000CF93DF93EC016A017B010E94CA1C08810E
:1019200019812A813B81601B710B820B930B21E093
:10193000C616D706E806F90608F020E0822FDF91E8
:10194000CF911F910F91FF90EF90DF90CF9008956E
:101950001F920F920FB60F9211240F931F932F9384
:101960003F934F935F936F937F938F939F93AF9327
:10197000BF93CF93DF93EF93FF9306E412E0C0E0B1
:10198000D0E0F80181918F010E94541EFE01E75EB4
:10199000FB4F9081981731F0DE01AC5EBB4F9C91FC
:1019A0009F5F9C9380832196C530D10551F7FF91AD
:1019B000EF91DF91CF91BF91AF919F918F917F91E7
:1019C0006F915F914F913F912F911F910F910F90C8
:1019D0000FBE0F901F901895909100019923D9F098
:1019E0008530E0F4811103C082E10C94771DE82F6B
:1019F000F0E0EF5BFD4F40E060818EE194E00E94FB
:101A00009D058EE194E00E94C10525E0969587959D
:101A10002A95E1F708958FEF9FEF089580E090E019
:101A20000895823038F4E82FF0E0E05BFD4F8081CC
:101A30000C941E1E0895823050F4E82FF0E0E05B15
:101A4000FD4F80810E94541E21E0019709F020E0A3
:101A5000822F0895CF93C82F0E941B0D61E0682745
:101A60008C2FCF910C94110DEF92FF920F931F9337
:101A7000CF93DF9361E08DE00E94E51D61E089E096
:101A80000E94E51D3BE4E32E32E0F32E06E412E073
:101A9000C0E0D0E061E0F70181917F010E94E51D87
:101AA00062E0F80181918F010E94E51DFE01EC5E6C
:101AB000FB4F10822196C530D10561F761E081E0CE
:101AC0000E94E51D61E085E10E94E51D61E080E086
:101AD0000E94E51D0E946D08809300018AE495E054
:101AE0000E94D91968EC70E080E090E00E94F91C37
:101AF00041E061E08EE194E00E94720568EC70E0E4
:101B000080E090E00E94F91C8FE194E00E94310493
:101B100068EC70E080E090E00E94F91CF89410926C
:101B200080001092810081E080936F0083E08093B9
:101B300081007894DF91CF911F910F91FF90EF90EA
:101B40000895CF93C62F853080F5811120C060E0C5
:101B50000E941E1E62E370E080E090E00E94F91C8B
:101B60006C2F84E00E941E1E62E370E080E090E033
:101B70000E94F91C61E080E00E941E1E62E370E09A
:101B800080E090E00E94F91C60E080E005C0E82F52
:101B9000F0E0E55BFD4F80810E941E1E62E370E075
:101BA00080E090E0CF910C94F91CCF910895809142
:101BB0000001882321F08FE194E00C945D0460E043
:101BC00070E080EC9FE7089580910001882321F068
:101BD0008FE194E00C94D50460E070E080EC9FE726
:101BE0000895823098F4662319F0613039F0089531
:101BF000E82FF0E0E65CFD4F60E005C0E82FF0E084
:101C0000E65CFD4F61E080810C941E1E089591E01A
:101C1000853008F090E0892F0895CF93DF93EC0191
:101C200080910001882339F00E940107688379833D
:101C30008A839B8304C0188219821A821B82DF91D7
:101C4000CF9108950F931F93CF93DF93CDB7DEB756
:101C500027970FB6F894DEBF0FBECDBF8C018091E1
:101C600000018823B1F0CE0101960E94AB068F815E
:101C700090E08E54984FF801918380838E81828307
:101C80008D8183838B8184838A8185838981868307
:101C900008C0F80111821082128213821482158208
:101CA000168227960FB6F894DEBF0FBECDBFDF9128
:101CB000CF911F910F910895CF93DF93CDB7DEB7EA
:101CC00027970FB6F894DEBF0FBECDBFFC01809101
:101CD0000001882399F08081825B8F8382818E83CB
:101CE00083818D8384818B8385818A8386818983A7
:101CF000CE0101960E94A70B0E948F0627960FB671
:101D0000F894DEBF0FBECDBFDF91CF910895209133
:101D10000001222329F0BC0184E094E00C94220706
:101D2000FC0188E09FEF91938150E9F708958FE1DE
:101D300094E00C943004CF92DF92EF92FF920F93D5
:101D40001F93CF93DF93D82E80910001882309F44D
:101D500050C05AE0F52E0D2D10E06D2D8AE495E06F
:101D60000E94E31965E070E080E090E00E94F91CB9
:101D7000E0914A05F0914B050190F081E02D60E083
:101D80008AE495E0099565E070E080E090E00E94CB
:101D9000F91C60E08AE495E00E94EF19811126C0E9
:101DA00065E070E080E090E00E94F91C43E050E0C4
:101DB000B8018AE495E00E94631A8330B9F465E0C3
:101DC00070E080E090E00E94F91CE12C8AE495E04C
:101DD0000E944219039784F465E070E080E090E08F
:101DE0000E94F91CE39484E6E812F0CFFA9409F01B
:101DF000B4CFCFEFDFEF27C08AE495E00E944A1905
:101E00008AE495E00E944A19E82E8AE495E00E944F
:101E10004A19C82E61E08AE495E00E94EF19811109
:101E2000E5CF65E070E080E090E00E94F91CE0FA08
:101E3000EE24E0F8DE2D80E0C82FCC2944E0CC0F62
:101E4000DD1F4A95E1F7CE01DF91CF911F910F91F0
:101E5000FF90EF90DF90CF9008958091000188234C
:101E600019F080E60C949B0E8FEF9FEF08959091F0
:101E70000001992349F0853050F4E82FF0E0E45C4C
:101E8000FD4F80810C949B0E8FEF9FEF089580E0B3
:101E900090E00895CF930E942D0F4AE050E0BC01DE
:101EA00083E196E00E949F20C0E060E283E196E03B
:101EB0000E94991F8C2F0E94370FBC014AE050E00E
:101EC00083E196E00E949F20CF5FC53071F783E1E8
:101ED00096E00E94A01F80E0CF910895CF93DF93FA
:101EE000CDE7D4E0CE010E942D01AB01BC012AE078
:101EF00030E083E196E00E94BB20A79685E0C034E5
:101F0000D80781F780E0DF91CF910895CF93C0E0AB
:101F10008C2F0E941D09BC014AE050E083E196E04D
:101F20000E94A520CF5FC53099F780E0CF9108953A
:101F3000CF93C0E08C2F0E94EC0CBC014AE050E033
:101F400083E196E00E94A520CF5FC53099F780E03D
:101F5000CF91089562E572E083E196E00E94971FB9
:101F60000E94E40DAB01BC0122E030E083E196E089
:101F70000E94BA216FE572E083E196E00E94971F0C
:101F80000E94D70DAB01BC0122E030E083E196E076
:101F90000E94BA2180E00895CF93DF9300D000D053
:101FA000CDB7DEB7CE0101960E940D0E49815A8150
:101FB0006B817C818091200490912104A091220466
:101FC000B0912304481B590B6A0B7B0B2AE030E0CD
:101FD00083E196E00E94BB2080E00F900F900F906D
:101FE0000F90DF91CF910895EF92FF920F931F937F
:101FF000CF93DF93F82EEB01229611E087E2E82ED3
:102000001F1590F4899199910E944E29082F0E94E2
:10201000070E882339F00E9DC001112483589B4F71
:102020000E94C4011F5FECCF80E0DF91CF911F9130
:102030000F91FF90EF900895EF92FF920F931F93EF
:10204000CF93DF93F82EEB01229611E097E2E92E71
:102050001F1590F4899199910E944E29082F0E9492
:10206000070E882339F00E9DC001112483589B4F21
:102070000E94CD021F5FECCF80E0DF91CF911F91D6
:102080000F91FF90EF900895CF93DF9300D000D091
:10209000CDB7DEB7CE0101960E94920849815A81E0
:1020A0006B817C812AE030E083E196E00E94BB20D6
:1020B00080E00F900F900F900F90DF91CF910895D7
:1020C00069E672E083E196E00E94971F4AE050E0E3
:1020D00063E070E083E196E00E9459206EE283E1C4
:1020E00096E00E94991F4AE050E061E070E083E1D1
:1020F00096E00E9461206DE672E083E196E00E9426
:10210000971F4AE050E061E070E083E196E00E94B2
:1021100059206EE283E196E00E94991F4AE050E068
:1021200060E070E083E196E00E9459206EE283E176
:1021300096E00E94991F4AE050E062E070E083E17F
:1021400096E00E94612062E772E083E196E00E94DF
:10215000971F2AE030E04AEF51ED60E478E583E133
:1021600096E00E94792068E772E083E196E00E94A1
:10217000971F6DE772E083E196E00E94A41F80E064
:1021800008950E94550880E00895CF93823081F42D
:10219000FB01828193810E944E29C82F0E94070E65
:1021A000882321F0C0935D0180E003C083E001C07B
:1021B00082E0CF910895CF938230B1F4FB01828108
:1021C00093810E944E29C82F0E94070E882351F048
:1021D000F7E2CF9FC001112483589B4F0E94270430
:1021E00080E003C083E001C082E0CF9108950F93A7
:1021F0001F93CF93DF93182FEB018230A0F18A81D8
:102200009B810E944E29082F0E94070E882339F1D6
:10221000123059F427E2029FE0011124C358DB4F2A
:1022200040E65AEE60E070E013C01330D1F48C81C8
:102230009D810E944E2927E2029FE0011124C3588C
:10224000DB4F28EE33E0DC010E942029AB01BC010A
:10225000CE010E945501CE010E94770202C083E0A8
:1022600003C080E001C082E0DF91CF911F910F9108
:1022700008951F93CF93DF93182FEB0181E0809394
:10228000480580E495E00E94620C113049F41092F8
:10229000440510924505109246051092470513C05B
:1022A000123089F48A819B810E944E2928EE33E006
:1022B000DC010E94202960934405709345058093BA
:1022C00046059093470580E0DF91CF911F910895D7
:1022D000CF93DF938230B9F4FB01C281D38162E8EE
:1022E00072E0CE010E947C29892B21F481E0809349
:1022F0005E0109C061E073E0CE010E947C29892B58
:1023000011F410925E0180E0DF91CF9108950F9358
:102310001F93CF93DF93EB01843099F58A819B81E2
:102320000E944E29182F0E94070E882351F162E265
:1023300072E08E819F810E947C2901E0892B09F047
:1023400000E00C80DD81C02D65E872E0CE010E94C6
:102350007C29892B41F487E2189FF0011124E3586E
:10236000FB4F06830EC068E872E0CE010E947C2914
:10237000892B39F087E2189FF0011124E358FB4FB5
:10238000078380E0DF91CF911F910F910895809195
:10239000490583FF06C06BE872E083E196E00E9486
:1023A000A41F8091490582FF06C060E972E083E1C5
:1023B00096E00E94A41F8091490581FF06C065E94F
:1023C00072E083E196E00E94A41F8091490580FF9E
:1023D00006C06BE972E083E196E00E94A41F80E0F2
:1023E00008950F931F93CF93DF93082FEB018EEF88
:1023F000800F823008F051C08A819B810E944E2953
:10240000182F0E94070E882309F445C0033061F598
:102410000C80DD81C02D64EA72E0CE010E947C292F
:10242000892B61F427E2129FC001112460E08358D8
:102430009B4F0E944E0160EA72E027C06BEA72E097
:10244000CE010E947C29892B61F427E2129FC001F2
:10245000112461E083589B4F0E944E0167EA72E0AD
:1024600014C060EB72E011C027E2129FC00111247A
:1024700083589B4F0E943001811103C064EA72E0CF
:1024800004C0813071F76BEA72E083E196E00E944C
:10249000A41F80E003C083E001C082E0DF91CF9100
:1024A0001F910F910895CF93DF938130A1F40E9483
:1024B0007C08811103C061E073E031C0813019F400
:1024C00064EA72E02CC0823019F46BEA72E027C033
:1024D0006EEB72E024C0823031F5FB01C281D38102
:1024E00061E073E0CE010E947C29892B11F480E029
:1024F00011C064EA72E0CE010E947C29892B11F49C
:1025000081E008C06BEA72E0CE010E947C29892B31
:1025100021F482E00E94800806C060EC72E083E152
:1025200096E00E94A41F80E0DF91CF910895CF93A1
:10253000DF93EC01688179814AE050E083E196E025
:102540000E949F2060E283E196E00E94991F4AE08A
:1025500050E06A8183E196E00E94982060E283E186
:1025600096E00E94991F4AE050E06B8183E196E07B
:102570000E94982060E283E196E00E94991F4AE061
:1025800050E06C8183E196E00E94982060E283E154
:1025900096E00E94991F4AE050E06D8183E196E049
:1025A0000E94982060E283E196E00E94991F4AE031
:1025B00050E06E8183E196E0DF91CF910C949820FA
:1025C0000F931F93CF93DF93CDB7DEB727970FB647
:1025D000F894DEBF0FBECDBF8B01813061F1873033
:1025E000C1F5FB01828193810E944E299A838983E0
:1025F000F801848195810E944E298B83F8018681A0
:1026000097810E944E298C83F801808591850E94D4
:102610004E298D83F801828593850E944E298E83F1
:10262000F801848595850E944E298F83CE010196FD
:102630000E945C0E0CC0CE0101960E94220ECE01BB
:1026400001960E94971283E196E00E94A01F80E00D
:1026500001C082E027960FB6F894DEBF0FBECDBF53
:10266000DF91CF911F910F910895FF920F931F93C8
:10267000CF93DF93EC01F12C8E0169916F7070E0C4
:1026800040E150E083E196E00E945920F80160812A
:1026900070E024E0759567952A95E1F740E150E0F8
:1026A00083E196E00E945920F394F8E0FF12E4CF12
:1026B000DF91CF911F910F91FF900895CF93DF93FA
:1026C000CDB7DEB728970FB6F894DEBF0FBECDBFEB
:1026D000CE0101960E94870ECE0101960E9435130D
:1026E00083E196E00E94A01F80E028960FB6F89440
:1026F000DEBF0FBECDBFDF91CF910895CF92DF92A5
:10270000EF92FF920F931F93CF93DF937C01C62E1E
:102710008A01D12CF4E0DF9EE0011124CF5FDE4F6F
:1027200088819981009769F0F801608171810E9428
:102730007C29892B21F40A80DB81C02D04C0D3942D
:10274000E9CFC0E0D0E06DEC72E083E196E00E945A
:10275000971FB70183E196E00E94971F60E283E133
:1027600096E00E94991FF8016081718183E196E0F3
:102770000E94A41F209729F0B8018C2DFE01099515
:1027800006C067ED72E083E196E00E94A41F67EE49
:1027900072E083E196E0DF91CF911F910F91FF905E
:1027A000EF90DF90CF900C94A41FBF92CF92DF9256
:1027B000EF92FF920F931F93CF93DF93CDB7DEB7C6
:1027C00060970FB6F894DEBF0FBECDBFB12C85E287
:1027D00094E07C0187012FEFE21AF20AF801C08031
:1027E000DD24C7FCD094C6010E947429892B91F77F
:1027F000C6010E946C29892BD1F0DD24D394DB0C17
:10280000FE013196EB0DF11DEB0DF11D11830083DF
:1028100078018701FFEFEF1AFF0AF80180819927FD
:1028200087FD90950E946C29892B99F7BD2CF801A2
:102830008081882399F0C80101961082F7E0FB158A
:1028400040F689819A81FC012081203451F46FEF98
:102850006B0DAE014D5F5F4F019609C0BB2049F083
:10286000F0CFAE014F5F5F4F6B2D8CEE92E00E9478
:102870007E1360960FB6F894DEBF0FBECDBFDF911A
:10288000CF911F910F91FF90EF90DF90CF90BF906D
:1028900008951F93CF93DF938EEE92E090937E0482
:1028A00080937D0410927F04109280041092810422
:1028B00021E020938204209383042093840481EFF9
:1028C00092E09093A5048093A4042093A6042093FF
:1028D000A7041092A8042093A9042093AA0420938B
:1028E000AB0484EF92E09093CC048093CB0482E01D
:1028F0008093CD041092CF042093D0041092D10481
:102900001092D20487EF92E09093F3048093F20444
:1029100083E08093F4041092F8041092F9048AEF93
:1029200092E090931A058093190584E080931B052B
:1029300010921F0510922005CDE7D4E0CE010E9431
:10294000A401A79685E0C034D807C1F7CDE7D4E04D
:1029500010E0812F0E9456098250823078F460E0A6
:10296000812F0E945E0980914905857021F0CE017A
:102970000E94CD0203C0CE010E9491021F5FA79664
:10298000153039F7DF91CF911F9108958F929F9263
:10299000AF92BF92CF92DF92EF92FF920F931F936D
:1029A000CF93DF93EC01062F0E949009081720F0C7
:1029B000CE010E949009082F11E0C12CD12C760184
:1029C0001017A8F4612FCE010E9496094B015C01FB
:1029D0006FEF610FCE010E949609861A970AA80A26
:1029E000B90AC80CD91CEA1CFB1C1F5FE9CF202FB9
:1029F00030E040E050E0C701B6010E94E928CA017A
:102A0000B901DF91CF911F910F91FF90EF90DF906F
:102A1000CF90BF90AF909F908F90089529E288E16A
:102A200090E00FB6F894A895809360000FBE2093B5
:102A30006000A895C0E0C530F0F461E080E00E943D
:102A4000110D61E081E00E94110D60E570E080E011
:102A500090E00E94F91C60E080E00E94110D60E0AF
:102A600081E00E94110D60E570E080E090E00E943E
:102A7000F91CCF5FE0CF61E080E00E94110D61E0C2
:102A800081E00E94110D68EC70E080E090E00E940F
:102A9000F91C60E080E00E94110D60E081E00E947E
:102AA000110D68EC70E080E090E00E94F91CC0E03D
:102AB000C4CF90915E01992339F04AE050E0682F2D
:102AC00083E196E00C94982008950F931F93CF9381
:102AD000DF9310E0812F0E946609853070F085E158
:102AE00093E00E944D058AE193E00E94EB01812F63
:102AF0000E9459158AE293E039C003E0812F0E94B9
:102B0000660961E0680F812F0E946E0964E170E040
:102B100080E090E00E94F91C812F0E94370FEC01A9
:102B200062E370E080E090E00E94F91C812F0E9437
:102B300066096FEF680F812F0E946E0964E170E0F3
:102B400080E090E00E94F91CC938D34198F0015010
:102B5000A9F685E193E00E944D058AE193E00E9489
:102B6000EB01812F0E9459158BE393E00E94EB014A
:102B70000E9469051F5F153009F0ACCFDF91CF913E
:102B80001F910F9108950F931F93CF93DF9310E040
:102B9000812F0E947609853070F085E193E00E94D4
:102BA0004D058AE493E00E94EB01812F0E945915A4
:102BB0008AE293E039C003E0812F0E94760961E048
:102BC000680F812F0E947E0964E170E080E090E050
:102BD0000E94F91C812F0E94EC0CEC0162E370E072
:102BE00080E090E00E94F91C812F0E9476096FEF2F
:102BF000680F812F0E947E0964E170E080E090E020
:102C00000E94F91CC131D74298F00150A9F685E124
:102C100093E00E944D058AE493E00E94EB01812F2E
:102C20000E9459158BE393E00E94EB010E94690515
:102C30001F5F153009F0ACCFDF91CF911F910F913D
:102C400008950E9465150C94C315CF9314BE88E1B6
:102C50000FB6F89480936000109260000FBE81E47C
:102C600090E00E948D298093490560EA7FE080E032
:102C700090E00E94F91C29E288E190E00FB6F894F8
:102C8000A895809360000FBE20936000A89540E057
:102C900051EE60E070E083E196E00E945E1FC8E0C4
:102CA00061E080E00E94110D64E670E080E090E059
:102CB0000E94F91C61E081E00E94110D64E670E061
:102CC00080E090E00E94F91C60E080E00E94110D1D
:102CD00064E670E080E090E00E94F91C60E081E032
:102CE0000E94110D64E670E080E090E00E94F91C03
:102CF000C150B1F6A8950E943608811130C00E94DB
:102D0000E8090E94340DC0E161E080E00E94110DED
:102D100064E170E080E090E00E94F91C61E081E0F5
:102D20000E94110D64E170E080E090E00E94F91CC7
:102D300060E080E00E94110D64E170E080E090E0CE
:102D40000E94F91C60E081E00E94110D64E170E0D6
:102D500080E090E00E94F91CC150B1F602C00E94D0
:102D6000340D80E294E00E940D0E80E294E00E9417
:102D7000DF080E949C08A89580914905857011F094
:102D80000E9421160E94491410925D0110922404A1
:102D900089E794E00E94620C85E794E00E94620C4F
:102DA0001092480510924405109245051092460570
:102DB00010924705A895CF910895AB01BC01809171
:102DC0005E01882331F02AE030E083E196E00C9444
:102DD0008B200895CF92DF92EF92FF921F93CF93B3
:102DE000DF93EC0186E593E00E944D0510E0CE01F3
:102DF0000E949009181760F488E292E00E94EB01AB
:102E0000612FCE010E9496090E94DD161F5FEFCF51
:102E10000E946905CE010E949009823008F445C0E5
:102E20008EE593E00E944D0511E0E12EF12CCE01DC
:102E30000E949009853028F4CE010E94900990E00C
:102E400002C084E090E0E816F906CCF4612FCE01D0
:102E50000E9496096B017C016FEF610FCE010E9409
:102E60009609C61AD70AE80AF90A88E292E00E948F
:102E7000EB01C701B6010E94DD161F5FD6CF63E0EC
:102E8000CE010E94C614683C71058105910520F4AD
:102E900085E693E00E94EB01DF91CF911F91FF90B7
:102EA000EF90DF90CF900C946905DF91CF911F9147
:102EB000FF90EF90DF90CF9008950F931F93CF93E3
:102EC000DF9380915D010E94070E882391F089E7CE
:102ED00094E00E94620C80915D0127E2829FC00114
:102EE000112483589B4F0E94F5018FEF80935D0161
:102EF0002DC040E355E760E070E089E794E00E9470
:102F0000820C882319F10DE714E0C0E0D0E0C8017D
:102F10000E9420018823A1F089E794E00E94620CBE
:102F2000C8010E94F501CE01880F991F8C0F9D1FCB
:102F30008B5F9B4FDF91CF911F910F910C94EA16FD
:102F40002196095D1F4FC530D10509F7DF91CF915B
:102F50001F910F91089520915E01222339F04AE0DC
:102F600050E0BC0183E196E00C949F20089590917D
:102F70005E01992329F0682F83E196E00C94991F54
:102F80000895AB01BC0180915E01882331F022E0FD
:102F900030E083E196E00C94B82108950F931F93DD
:102FA000CF93DF93CDB7DEB72F970FB6F894DEBF80
:102FB0000FBECDBFCE0101960E94870E88E693E03A
:102FC0000E944D05CE0101960E9435130E946905AD
:102FD00062E370E080E090E00E94F91CCE01099667
:102FE0000E94220E8BE693E00E944D05CE010996C9
:102FF0000E94971283E196E00E94A01F62E370E0B6
:1030000080E090E00E94F91C88E892E00E944D0563
:103010000E942D0F0E94AB1710E080E20E94B717AC
:10302000812F0E94370F0E94AB171F5F1530A9F741
:103030000E94690562E370E080E090E00E94F91C64
:1030400080E793E00E944D0510E0812F0E94EC0C78
:103050000E94AB1780E20E94B7171F5F1530A9F7D7
:103060000E94690562E370E080E090E00E94F91C34
:1030700083E793E00E944D050E94E40D0E94C11772
:1030800080E20E94B7170E94D70D0E94C1170E94CC
:10309000690562E370E080E090E00E94F91C87E738
:1030A00093E00E944D0510E0812F0E941D090E94AF
:1030B000AB1780E20E94B7171F5F1530A9F70E9477
:1030C000690562E370E080E090E00E94F91C8DE702
:1030D00093E00E944D0510E0812F0E94C508909159
:1030E0005E01992341F0682F70E04AE050E083E1EF
:1030F00096E00E94592080E20E94B7171F5F1530AA
:1031000059F70E94690562E370E080E090E00E9458
:10311000F91C88EB92E00E944D050DE714E0C80110
:103120000E943001811103C085E893E007C081301F
:1031300019F489E893E002C08FE893E00E94EB0164
:10314000095D1F4F84E00B3C180749F70E94690591
:103150002F960FB6F894DEBF0FBECDBFDF91CF9193
:103160001F910F910895CF93C0E083E196E00E94F4
:10317000A71E181619069CF5C03F88F583E196E056
:103180000E94B71EE091240491E09E0F90932404C6
:10319000F0E0EB5DFB4F8083CF5F903560F01092E5
:1031A000240483E196E00E94A71E18161906ECF687
:1031B000C03F69F4DACF8A30C1F6E92FF0E0EB5D69
:1031C000FB4F1082109224040E94D513CECF83E1CE
:1031D00096E00E94B71E0A9741F2CF5FE2CFCF91EF
:1031E0000895CF93DF9380914805811102C00E941A
:1031F0005D17CDE7D4E0CE010E941A04A895A796EA
:1032000085E0C034D807B9F70E94B31840E65AEEFB
:1032100060E070E085E794E00E94820C882339F03A
:1032200085E794E00E94620CA8950E94CE178091D9
:103230004805882371F040914405509145056091FF
:1032400046057091470580E495E00E94820C81114B
:1032500017C080E00E942A0D80914805882339F02C
:1032600080E00E941B0D682F81E00E94110DA8953F
:1032700068EC70E080E090E0DF91CF910C94F91C55
:103280000E940E1580917A0590E020917B05821BAB
:103290009109089520917B0580917A05281750F4B3
:1032A000E22FF0E0E458FA4F808190E02F5F209306
:1032B0007B0508958FEF9FEF0895E0917B05809146
:1032C0007A05E81730F4F0E0E458FA4F808190E096
:1032D00008958FEF9FEF08950895CF92DF92EF92B8
:1032E000FF920F931F93CF93DF937C01CB018A0151
:1032F00020915605222389F0EB016B01C40ED51EE7
:10330000CC15DD0569F06991D701ED91FC91019033
:10331000F081E02DC7010995F3CF642F0E942A1B8D
:10332000C801DF91CF911F910F91FF90EF90DF9037
:10333000CF900895CF93DF931F92CDB7DEB7698307
:10334000209156052223D1F020915705203240F0DC
:1033500021E030E0FC013383228380E090E015C05F
:1033600080915805E82FF0E0E75AFA4F9981908351
:103370008F5F809358058093570505C061E0CE01AB
:1033800001960E942A1B81E090E00F90DF91CF917F
:103390000895FC011382128248EE53E060E070E071
:1033A000448355836683778388ED93E0918380839C
:1033B000089510927B0510927A051092580510928C
:1033C00057050C946D1A81E080935605609379053A
:1033D000109258051092570508950C94E3190F9315
:1033E000062F21E04091570569E575E08091790548
:1033F0000E94D31A10925805109257051092560544
:103400000F9108958F929F92AF92BF92CF92DF92C9
:10341000EF92FF920F931F93CF93DF93EC01F62E61
:10342000D42E48015901EE2019F10E94E3191E2DF6
:10343000143008F013E01150B8F0E881F98128E069
:10344000129FB0011124A501940104C0569547951F
:10345000379527956A95D2F7CA01B9010190F08195
:10346000E02DCE010995E7CF60E0CE010E94EF1973
:103470004D2D413208F040E22C2D6CE775E08F2D88
:103480000E948B1A10927B0580937A05DF91CF9171
:103490001F910F91FF90EF90DF90CF90BF90AF9072
:1034A0009F908F900895CF92EF920F931F93C22E0B
:1034B000E12C00E010E098010E94021A1F910F9188
:1034C000EF90CF90089521E00C94531A61E00C9492
:1034D000EF198AE495E00C94C9191092090681E06D
:1034E000809307061092060661E082E00E941E1E8D
:1034F00061E083E00E941E1EE9EBF0E080818E7F98
:10350000808380818D7F808388E48093B80085E408
:103510008093BC000895413208F043C090910906A1
:103520009111FCCF91E090930906209307062FEFAD
:1035300020939C051092E105240F2093E0059093C1
:10354000080690910806880F892B809308068091C1
:103550000606813061F41092060680910806809379
:10356000BB008091BC0083FDF8CF85EC01C085EEE7
:103570008093BC00809109068130E1F38091E105E0
:10358000841710F44091E10522EE35E0FB01D901EA
:103590008A2F821B841718F48D918193F9CF842F81
:1035A000089580E008950F93413208F04AC0909149
:1035B00009069111FCCF92E090930906009307064B
:1035C0009FEF90939C051092E1054093E005FB016D
:1035D00062EE75E0DB019A2F961B941718F4919117
:1035E0009D93F9CF1092080690910806880F892BB9
:1035F0008093080680910606813061F410920606D9
:10360000809108068093BB008091BC0083FDF8CFB9
:1036100085EC01C085EE8093BC00222321F08091CF
:1036200009068230E1F380919C058F3F61F0809123
:103630009C05803251F080919C05803341F483E0F9
:1036400007C081E005C080E003C082E001C084E0E3
:103650000F910895613298F420910906243089F47D
:103660006093BE05FC0180EC95E0DC012A2F281B4D
:10367000261718F421912D93F9CF80E0089581E069
:10368000089582E0089585ED8093BC008091BC0090
:1036900084FDFCCF10920906089585EC8093BC0050
:1036A0001092090608951F920F920FB60F921124DF
:1036B0002F933F934F935F936F937F938F939F933A
:1036C000AF93BF93EF93FF938091B900887F8036CB
:1036D00009F49EC078F5883209F45DC090F4803119
:1036E00009F456C038F4882309F4F5C0883009F489
:1036F0004FC0F5C0883109F44EC0803209F45FC074
:10370000EEC0803409F46AC058F4803309F457C01D
:10371000883309F0E4C080939C050E944D1BDFC0F4
:10372000803509F44FC0883509F45DC0883409F04C
:10373000D6C0D3C0883909F4C4C0A8F4883709F4C6
:1037400067C038F4883609F463C0803709F460C074
:10375000C6C0883809F4B5C0803909F45FC0803824
:1037600009F0BDC05BC0803B09F483C038F4803AE7
:1037700009F466C0883A09F47CC0B1C0803C09F401
:10378000A4C0883C09F4A1C0883B09F487C0A7C045
:103790008091080610C09091E1058091E00598178E
:1037A00070F5E091E10581E08E0F8093E105F0E096
:1037B000EE51FA4F80818093BB0085EC83C08093EB
:1037C0009C058BC0E091E10581E08E0F8093E105BF
:1037D0008091BB00F0E0EE51FA4F80839091E105BB
:1037E0008091E0056BC0E091E10581E08E0F809350
:1037F000E1058091BB00F0E0EE51FA4F80838091AB
:10380000070681116AC081E08093060684EA5EC0E3
:1038100083E08093090610929D05CFCF80919D058E
:10382000803208F04EC0E0919D0581E08E0F8093BC
:103830009D058091BB00F0E0E256FA4F8083BDCF3A
:103840000E944D1B80919D05803230F4E0919D05D2
:10385000F0E0E256FA4F108260919D0570E0E09131
:103860000206F09103068EE995E0099510929D05F8
:1038700036C084E0809309061092BF051092BE0501
:10388000E0910406F091050609958091BE0581112D
:1038900005C081E08093BE051092C005E091BF0590
:1038A00081E08E0F8093BF05F0E0E054FA4F8081F5
:1038B0008093BB009091BF058091BE05981708F4D6
:1038C0007CCF85E88093BC000AC085EC8093BC0067
:1038D0001092090604C010929C050E94431BFF91A0
:1038E000EF91BF91AF919F918F917F916F915F9178
:1038F0004F913F912F910F900FBE0F901F901895F1
:103900001F920F920FB60F9211242F933F938F9314
:103910009F93AF93BF9380910B0690910C06A0915B
:103920000D06B0910E0630910A0623E0230F2D37C5
:1039300020F40196A11DB11D05C026E8230F0296B3
:10394000A11DB11D20930A0680930B0690930C06CF
:10395000A0930D06B0930E0680910F06909110066D
:10396000A0911106B09112060196A11DB11D809380
:103970000F0690931006A0931106B0931206BF9104
:10398000AF919F918F913F912F910F900FBE0F900C
:103990001F9018952FB7F89460910B0670910C0644
:1039A00080910D0690910E062FBF08953FB7F894B1
:1039B00080910F0690911006A0911106B091120609
:1039C00026B5A89B05C02F3F19F00196A11DB11D7A
:1039D0003FBF6627782F892F9A2F620F711D811D97
:1039E000911D42E0660F771F881F991F4A95D1F7F6
:1039F0000895CF92DF92EF92FF92CF93DF936B0106
:103A00007C010E94D61CEB01C114D104E104F10435
:103A100089F00E940E260E94D61C6C1B7D0B683E0E
:103A2000734090F381E0C81AD108E108F108C85149
:103A3000DC4FEACFDF91CF91FF90EF90DF90CF90F6
:103A40000895789484B5826084BD84B5816084BD16
:103A500085B5826085BD85B5816085BDEEE6F0E007
:103A6000808181608083E1E8F0E010828081826063
:103A70008083808181608083E0E8F0E080818160E4
:103A80008083E1E9F0E080818260808380818160D1
:103A90008083E0E9F0E0808181608083E1ECF0E008
:103AA0008081846080838081826080838081816066
:103AB0008083E3ECF0E0808181608083E0ECF0E0E3
:103AC000808182608083E2ECF0E08081816080838D
:103AD000EAE7F0E080818460808380818260808377
:103AE00080818160808380818068808308958231B5
:103AF00008F08251E82FF0E0E653FF4FE491809107
:103B00007B00E3FB222720F930E095E0220F331FF2
:103B10009A95E1F78F7D822B80937B00E7708091EF
:103B20005F0120E4829FC0011124E82BE0937C0018
:103B300080917A00806480937A0080917A0086FD7B
:103B4000FCCF809178002091790090E0922B08952D
:103B500090E0FC013197EF30F105B0F5EA5AFF4FE4
:103B60000C940B29809180008F7703C08091800096
:103B70008F7D80938000089580918000877FF9CFAA
:103B800084B58F7702C084B58F7D84BD0895809100
:103B900090008F7707C0809190008F7D03C0809147
:103BA0009000877F8093900008958091C0008F7768
:103BB00003C08091C0008F7D8093C00008958091E4
:103BC000C200877F8093C2000895CF93DF9390E077
:103BD000FC01EB50FF4F2491FC01EC5EFE4F849101
:103BE000882349F190E0880F991FFC01E15BFE4FAB
:103BF000A591B4918F5B9E4FFC01C591D4919FB765
:103C0000611108C0F8948C91209582238C9388814F
:103C100082230AC0623051F4F8948C91322F30958F
:103C200083238C938881822B888304C0F8948C91A1
:103C3000822B8C939FBFDF91CF9108950F931F9399
:103C4000CF93DF931F92CDB7DEB7282F30E0F90175
:103C5000EA52FF4F8491F901EB50FF4F1491F901A3
:103C6000EC5EFE4F04910023C9F0882321F06983A4
:103C70000E94A81D6981E02FF0E0EE0FFF1FEF5BAF
:103C8000FE4FA591B4919FB7F8948C91611103C038
:103C90001095812301C0812B8C939FBF0F90DF91E2
:103CA000CF911F910F910895CF93DF93282F30E08C
:103CB000F901EA52FF4F8491F901EB50FF4FD49183
:103CC000F901EC5EFE4FC491CC2391F081110E946A
:103CD000A81DEC2FF0E0EE0FFF1FED5CFE4FA5914D
:103CE000B4912C912D2381E090E021F480E002C07A
:103CF00080E090E0DF91CF910895CF93DF931F9202
:103D0000CDB7DEB76983DC01ED91FC910280F381D0
:103D1000E02D41E050E0BE016F5F7F4F09950F90AD
:103D2000DF91CF910895CF93DF93EC018C859D8532
:103D300097FF05C082E00E94DD229D878C878C85DD
:103D40009D85DF91CF91089583E00C945825FC0167
:103D50008485958597FD06C082E00E94852290E0CB
:103D60000196089582E00E94852290E00895FC016A
:103D70008485958597FD05C02FEF3FEF3587248714
:103D8000089582E00C94DD22CF93DF93EC018091C3
:103D90006B01882331F083E00E940E231816190668
:103DA00034F081E090E09B838A8380E090E0DF91B3
:103DB000CF910895FC0120812E5F208342E450E0E2
:103DC0006DE571E080E80C94A923FC0121818081DC
:103DD000813A59F4213209F05CC047E050E064E6D2
:103DE00071E080E00E94A92367C0813209F051C0D0
:103DF000233289F4838190E0982F88273281832BA6
:103E0000A0E0B0E08093600190936101A093620113
:103E1000B09363010FC0203239F467E070E084E6AC
:103E200091E00E94DA230AC0223221F48281809339
:103E30006B0104C02D7F203209F03EC080916401E7
:103E400090916501A0916601B0916701803B94401B
:103E5000A105B10501F580916B0180FD1CC0809129
:103E60000008909101089093FF0A8093FE0A87E76B
:103E700097E790930108809300082BE088E190E099
:103E80000FB6F894A895809360000FBE2093600051
:103E900013C080E0089588E10FB6F8948093600025
:103EA000109260000FBEA8958091FE0A9091FF0AC3
:103EB000909301088093000881E008952FEF3FEF71
:103EC000FC01358724870895109216061092150676
:103ED00088EE93E0A0E0B0E0809317069093180678
:103EE000A0931906B0931A0688EE93E090931406F7
:103EF000809313068FEF9FEF9093200680931F0609
:103F000008956115710581F0DB010D900020E9F73E
:103F1000AD0141505109461B570BDC01ED91FC915D
:103F20000280F381E02D099480E090E008950C94E4
:103F3000811FDC01ED91FC910190F081E02D09944D
:103F400064EF73E00C94811F0F931F93CF93DF9363
:103F5000EC010E94811F8C01CE010E94A01F800FE6
:103F6000911FDF91CF911F910F9108958F929F9292
:103F7000AF92BF92CF92DF92EF92FF920F931F9377
:103F8000CF93DF93CDB7DEB7A1970FB6F894DEBF1E
:103F90000FBECDBF7C01C42EE52FCB01D22E19A2BE
:103FA00021E02D1510F02AE0D22E8E010F5D1F4F5B
:103FB0008D2C912CA12CB12C6C2D7E2FA501940160
:103FC0000E94E9288C2DD29E8019112401501109DC
:103FD0008A3014F4805D01C0895CF801808321156A
:103FE00031054105510521F0C22EE32FCA01E4CF6E
:103FF000B801C7010E94811FA1960FB6F894DEBFD9
:104000000FBECDBFDF91CF911F910F91FF90EF9029
:10401000DF90CF90BF90AF909F908F900895CF92F8
:10402000DF92EF92FF920F931F93CF93DF93EC01F8
:104030006A017B012115310579F4E881F98101904C
:10404000F081E02D642FDF91CF911F910F91FF90B0
:10405000EF90DF90CF9009942A303105E9F477FF93
:104060001AC06DE20E94991F8C0144275527BA019E
:104070004C195D096E097F092AE0CE010E94B61F26
:10408000800F911FDF91CF911F910F91FF90EF90C3
:10409000DF90CF9008952AE0B701A601CE01DF910D
:1040A000CF911F910F91FF90EF90DF90CF900C94E4
:1040B000B61F9A01AB01662757FD6095762F0C94C9
:1040C0000F200F931F93CF93DF93EC019A01AB0165
:1040D000662757FD6095762F0E940F208C01CE0138
:1040E0000E94A01F800F911FDF91CF911F910F9110
:1040F00008950F931F93CF93DF93EC010E940F203D
:104100008C01CE010E94A01F800F911FDF91CF91E3
:104110001F910F9108952115310541F4DC01ED91B6
:10412000FC910190F081E02D642F09940C94B61F4E
:104130009A01462F50E060E070E00C948B209A01C9
:10414000AB0160E070E00C948B200F931F93CF9332
:10415000DF93EC019A01AB0160E070E00E948B20DC
:104160008C01CE010E94A01F800F911FDF91CF9183
:104170001F910F9108950F931F93CF93DF93EC013D
:104180000E948B208C01CE010E94A01F800F911FE6
:10419000DF91CF911F910F9108954F925F926F928F
:1041A0007F928F929F92AF92BF92CF92DF92EF92C7
:1041B000FF920F931F93CF93DF93EC016A017B0172
:1041C000B22E9A01AB01C701B6010E94C52888230F
:1041D00019F067EF73E027C026013701E89477F8FC
:1041E0002FEF3FEF4FE75FE7C301B2010E94C52801
:1041F00081110DC02FEF3FEF4FE75FE7C301B20121
:104200000E940F2718161CF46BEF73E00CC02FEF01
:104210003FEF4FE75FE4C701B6010E945E28181622
:10422000ACF46FEF73E0CE01DF91CF911F910F914E
:10423000FF90EF90DF90CF90BF90AF909F908F90C6
:104240007F906F905F904F900C94811F2FEF3FEF06
:104250004FE75FECC701B6010E940F2787FDE1CF52
:1042600020E030E0A901C701B6010E940F2787FFB7
:104270000AC06DE2CE010E94991F8C01F7FAF094FA
:10428000F7F8F09402C000E010E0A12C60E070E0CC
:1042900080E09FE3AB1441F020E030E040E251E4E5
:1042A0000E941327A394F6CF9B01AC01C701B6016E
:1042B0000E94AB266B017C010E9480272B013C01F0
:1042C0000E94AC279B01AC01C701B6010E94AA263F
:1042D0006B017C012AE0B301A201CE010E94B61F4E
:1042E000080F191FBB2039F068E473E0CE010E946B
:1042F000811F080F191F7B2C772041F120E030E04F
:1043000040E251E4C701B6010E9462286B017C01C2
:104310000E947B274B01AA2497FCA094BA2C2AE088
:1043200030E0B501A401CE010E940F20080F191F33
:10433000C501B4010E94AE279B01AC01C701B601C3
:104340000E94AA266B017C017A94D6CFC801DF9126
:10435000CF911F910F91FF90EF90DF90CF90BF9082
:10436000AF909F908F907F906F905F904F90089547
:104370000C94CD200F931F93CF93DF93EC010E94F9
:10438000CD208C01CE010E94A01F800F911FDF91D4
:10439000CF911F910F910895615030F02091F1005D
:1043A000FC0120830196F8CF289A84E680936C065E
:1043B00008954091670650916806209165063091F6
:1043C000660642175307B4F49091E8009570E1F344
:1043D0009091E80092FD19C08093F10080916706EA
:1043E0009091680601968F739927892B19F48EEFA7
:1043F0008093E800809167069091680601969093FB
:1044000068068093670681E0089580E00895CF9262
:10441000DF92EF92FF920F931F93CF93DF931F9240
:10442000CDB7DEB7082F162FF42E862F880F8E5F9C
:1044300099830E94D92183E00E94D921E02EC02EC9
:104440009981D92E8C2D8E19811798F4F601F7FEDB
:1044500002C0849101C080810E94D921082F80E090
:104460000E94D9218023FFEFCF1ADF0A8111EACF02
:1044700001C081E00F90DF91CF911F910F91FF90CC
:10448000EF90DF90CF9008958091D7008160809366
:10449000D70080EA8093D80089B5806189BD89B54D
:1044A000826089BD09B400FEFDCF61E070E080E06C
:1044B00090E00E94F91C8091D8008F7C80618093ED
:1044C000D8008091E000807F8093E0000895CF9332
:1044D000DF931F92CDB7DEB71982CE0101960E94FD
:1044E000DA1E0E949626BE016F5F7F4F0E940F2644
:1044F00089810F90DF91CF9108952FB7FC01208320
:10450000F89467706093E9000895CF93DF931F924A
:10451000CDB7DEB7682FCE0101960E947D22809133
:10452000F20099819FBF0F90DF91CF910895FF9284
:104530000F931F93CF93DF9300D0CDB7DEB7F62E46
:104540008A0190916B06992311F057FF03C08FEFFA
:104550009FEF2BC0682FCE0101967A830E947D22A7
:104560008091F20090E0A8017A81801791070CF405
:10457000AC01EF2DF72FF40E84E6FE1639F0289AE1
:1045800080936C069091F1009193F7CF41155105FE
:1045900021F08091F200882321F089818FBFCA0128
:1045A00004C08BE68093E800F8CF0F900F90DF9166
:1045B000CF911F910F91FF900895CF93DF931F929A
:1045C000CDB7DEB741E050E0BE016F5F7F4F0E9484
:1045D0009722019719F4898190E002C08FEF9FEF35
:1045E0000F90DF91CF910895CF93DF931F92CDB7B6
:1045F000DEB7682FCE0101960E947D229091E800DF
:10460000892F807295FF04C09091F20080E4891B8D
:1046100099819FBF0F90DF91CF9108956F927F9204
:104620008F929F92AF92BF92CF92DF92EF92FF92C2
:104630000F931F93CF93DF931F92CDB7DEB7782EE2
:104640007B01C42EB52E80916B06882369F0042F60
:10465000152F8AEFD82E872D8072982E9AE3A92ED7
:10466000872D8074882E11C08FEF9FEF57C0872D44
:104670000E94F422682E81110CC0DA94A9F361E043
:1046800070E080E090E00E94F91C0115110579F7B7
:104690003BC0282F30E0021713070CF4602E672D63
:1046A000CE0101960E947D228091E80085FF29C0FD
:1046B000262D30E0021B130B992039F06A948FEFFE
:1046C0006816B1F01092F100F9CFF701862D77FE50
:1046D00007C0815058F094919093F1003196F9CF32
:1046E000815020F091919093F100FACFE20EF31EE9
:1046F0008091E80085FF0FC00115110511F48110AC
:104700000AC089818FBFC1CF5D9A84E680936D0610
:104710008C2D9B2D03C0A092E800F3CF0F90DF916A
:10472000CF911F910F91FF90EF90DF90CF90BF90AE
:10473000AF909F908F907F906F9008951092E900B6
:10474000109268061092670690936606809365063D
:104750000895CF92DF92FF920F931F93CF93DF9331
:1047600000D0CDB7DEB7F82E8A016B010115110517
:10477000B1F0F601F7FE02C0849101C08081498347
:104780005A830E94D92101501109FFEFCF1ADF0A85
:1047900049815A818111EACF8FEF9FEF01C0CA0191
:1047A0000F900F90DF91CF911F910F91FF90DF90AD
:1047B000CF9008951F93CF93DF931F92CDB7DEB7AD
:1047C000162F2091E80022FFFCCF612F79830E94F1
:1047D000CC218BEF8093E800812F7981972F0F9068
:1047E000DF91CF911F9108951F920F920FB60F92F4
:1047F0001124DF92EF92FF920F931F932F933F9319
:104800004F935F936F937F938F939F93AF93BF93D8
:10481000EF93FF93CF93DF93CDB7DEB76C97DEBFF7
:10482000CDBF1092E9008091E80083FF23C168E0CA
:10483000CE0145960E94CC2182EF8093E8003D890D
:1048400037FF05C08091E80080FFFCCF03C08EEFEA
:104850008093E800832F807609F0F0C02E894F897D
:10486000D88C21110CC0303829F480916A068093CD
:10487000F10002C01092F1001092F100F4C0842FF8
:1048800090E09D29213049F43111EDC0019709F0E4
:10489000EAC080916A068D7F0AC0233059F4311135
:1048A000E2C0019709F0DFC080916A0682608093C0
:1048B0006A06D9C0253041F48091E80080FFFCCF22
:1048C00040684093E300CFC0263009F08DC0EB8CE8
:1048D000FC8C22E0D2122CC080E090E00E949E234B
:1048E0000E94672299E08E010F5F1F4FF801292F68
:1048F00011922A95E9F79983DA8291E09E8390EAF2
:1049000098879AEF99872091670630916806275F0C
:104910003F4F3C832B838D83C7010E949E2349E038
:1049200050E0B80180E00E94A9230E9467229BC04A
:10493000C7010E949E230E949626BE016B5E7F4F98
:104940000E943826009719F00CF08DC090C081E0CD
:10495000D8120EC08B8D9C8D089719F481E080933E
:1049600064068091640681112FC061EB71E031C053
:10497000E3E0DE127CC08F89882349F1823029F47C
:1049800040E86DE08FEC91E01CC0813029F440E8F4
:104990006BE083EC91E015C0833009F068C00E94A1
:1049A00096268E010F5F1F4FB8010E945726F8010F
:1049B00001900020E9F73197E01BF10B40E06E2FEA
:1049C000C8010E9407224DC06FE971E002C06DED81
:1049D00071E06115710509F44AC0FB01449150E092
:1049E00080E80E94A9233FC0273009F440C0283046
:1049F00021F481E08093F10036C02930A1F53370B5
:104A0000B1F5EDE6F1E081E021E036E39081992314
:104A100061F08093E9002093EB0091919093EC007A
:104A20003093ED008F5F873089F78EE78093EA003F
:104A30001092EA008F8980936B0615C08B8D9C8D38
:104A40000E949E23898D811105C0CE0145960E944A
:104A5000E51E07C00E949626BE016B5E7F4F0E9436
:104A60007626882321F08EEF8093E80003C081E250
:104A70008093EB006C960FB6F894DEBF0FBECDBFEF
:104A8000DF91CF91FF91EF91BF91AF919F918F9166
:104A90007F916F915F914F913F912F911F910F9156
:104AA000FF90EF90DF900F900FBE0F901F90189522
:104AB0008093E9008091F200882319F08AE38093C3
:104AC000E80008951F920F920FB60F9211242F93B2
:104AD0003F934F935F936F937F938F939F93AF9386
:104AE000BF93CF93EF93FF93C091E1008091E100DA
:104AF000837F8093E1008093E100C3FF0FC0109299
:104B0000E90081E08093EB001092EC0082E3809357
:104B1000ED0010926B0688E08093F000C2FF19C090
:104B200083E00E94582580916D06882339F080919A
:104B30006D06815080936D06882389F180916C0603
:104B4000882339F080916C06815080936C0688230D
:104B500041F1C4FF10C08091E2008E7E816080939D
:104B6000E2008091E1008F7E8093E10080916906F0
:104B70008E7E806111C0C0FF16C08091E2008E7EE3
:104B800080618093E2008091E1008E7E8093E1005D
:104B9000809169068E7E81608093690604C05D986D
:104BA000CDCF2898D6CFFF91EF91CF91BF91AF9104
:104BB0009F918F917F916F915F914F913F912F9135
:104BC0000F900FBE0F901F90189510926B061092C9
:104BD0006A06109269060E944422E1EEF0E08081AC
:104BE0008E7E80838DE08093E200559A209A5D98B6
:104BF0002898089508950E94211D0E94FA2583E6B1
:104C000096E00E94E5250E942516C0E0D0E00E94B3
:104C1000F1182097E1F30E940000F9CF0895EF9278
:104C2000FF920F931F93CF93DF937B01FC01C2810F
:104C3000D38100E010E0209781F0E881F9810280C3
:104C4000F381E02DB701CE01099597FD08C0080F4B
:104C5000191F0884D985C02DEECFC80102C08FEF7F
:104C60009FEFDF91CF911F910F91FF90EF900895EB
:104C70000F931F93CF93DF938B01FC01C281D381EC
:104C8000209771F0E881F9810480F581E02DB80169
:104C9000CE010995009731F40884D985C02DF0CF55
:104CA00080E090E0DF91CF911F910F9108950F93D5
:104CB0001F93CF93DF938B01FC01C281D381209797
:104CC00071F0E881F9810680F781E02DB801CE010D
:104CD0000995080F111D0884D985C02DF0CFF80162
:104CE0001082DF91CF911F910F9108950F931F9321
:104CF000CF93DF938B01FC01C281D381209771F0A8
:104D0000E881F9810190F081E02DB801CE0109958B
:104D1000811106C00884D985C02DF0CF80E001C084
:104D200081E0DF91CF911F910F91089580917206DC
:104D300081110DC082E080936E0684E080936F063F
:104D4000109271061092700681E0809372068EE6D2
:104D500096E008955058BB27AA270ED075C166D19A
:104D600030F06BD120F031F49F3F11F41EF45BC1A1
:104D70000EF4E095E7FB51C1E92F77D180F3BA1724
:104D8000620773078407950718F071F49EF58FC1C9
:104D90000EF4E0950B2EBA2FA02D0B01B901900156
:104DA0000C01CA01A0011124FF27591B99F0593F9A
:104DB00050F4503E68F11A16F040A22F232F342FE2
:104DC0004427585FF3CF469537952795A795F04030
:104DD0005395C9F77EF41F16BA0B620B730B840B45
:104DE000BAF09150A1F0FF0FBB1F661F771F881FFD
:104DF000C2F70EC0BA0F621F731F841F48F4879555
:104E000077956795B795F7959E3F08F0B3CF939543
:104E1000880F08F09927EE0F979587950895D9D0B8
:104E200008F481E008950CD00FC107D140F0FED006
:104E300030F021F45F3F19F0F0C0511139C1F3C0D7
:104E400014D198F39923C9F35523B1F3951B550B4E
:104E5000BB27AA2762177307840738F09F5F5F4F4D
:104E6000220F331F441FAA1FA9F333D00E2E3AF08E
:104E7000E0E830D091505040E695001CCAF729D0A8
:104E8000FE2F27D0660F771F881FBB1F26173707F7
:104E90004807AB07B0E809F0BB0B802DBF01FF2727
:104EA00093585F4F2AF09E3F510568F0B6C000C18D
:104EB0005F3FECF3983EDCF3869577956795B79561
:104EC000F7959F5FC9F7880F911D9695879597F97C
:104ED0000895E1E0660F771F881FBB1F62177307F5
:104EE0008407BA0720F0621B730B840BBA0BEE1F0A
:104EF00088F7E095089504D06894B111D9C0089559
:104F0000BCD088F09F5790F0B92F9927B751A0F0E7
:104F1000D1F0660F771F881F991F1AF0BA95C9F74D
:104F200012C0B13081F0C3D0B1E00895C0C0672F86
:104F3000782F8827B85F39F0B93FCCF386957795FD
:104F40006795B395D9F73EF49095809570956195E6
:104F50007F4F8F4F9F4F0895E89409C097FB3EF411
:104F600090958095709561957F4F8F4F9F4F9923B6
:104F7000A9F0F92F96E9BB279395F6958795779534
:104F80006795B795F111F8CFFAF4BB0F11F460FFF4
:104F90001BC06F5F7F4F8F4F9F4F16C0882311F04C
:104FA00096E911C0772321F09EE8872F762F05C060
:104FB000662371F096E8862F70E060E02AF09A95FB
:104FC000660F771F881FDAF7880F9695879597F9F0
:104FD0000895990F0008550FAA0BE0E8FEEF16168A
:104FE0001706E807F907C0F012161306E407F507DD
:104FF00098F0621B730B840B950B39F40A2661F051
:10500000232B242B252B21F408950A2609F4A140F3
:10501000A6958FEF811D811D089597F99F6780E800
:1050200070E060E008959FEF80EC089500240A94FA
:105030001616170618060906089500240A94121673
:105040001306140605060895092E0394000C11F4A6
:10505000882352F0BB0F40F4BF2B11F460FF04C053
:105060006F5F7F4F8F4F9F4F089557FD9058440FAC
:10507000551F59F05F3F71F04795880F97FB991FB7
:1050800061F09F3F79F08795089512161306140674
:10509000551FF2CF4695F1DF08C016161706180601
:1050A000991FF1CF86957105610508940895E894DC
:1050B000BB2766277727CB0197F908958ADF08F485
:1050C0008FEF08950BD0C0CFB1DF28F0B6DF18F016
:1050D000952309F0A2CFA7CF1124EACFC6DFA0F312
:1050E000959FD1F3950F50E0551F629FF001729F7D
:1050F000BB27F00DB11D639FAA27F00DB11DAA1F9C
:10510000649F6627B00DA11D661F829F2227B00DE8
:10511000A11D621F739FB00DA11D621F839FA00D73
:10512000611D221F749F3327A00D611D231F849FC3
:10513000600D211D822F762F6A2F11249F5750401A
:105140008AF0E1F088234AF0EE0FFF1FBB1F661FB5
:10515000771F881F91505040A9F79E3F510570F06E
:105160005CCFA6CF5F3FECF3983EDCF38695779556
:105170006795B795F795E7959F5FC1F7FE2B880F69
:10518000911D9695879597F9089523DF880B990BC4
:105190000895991B79E004C0991F961708F0961B93
:1051A000881F7A95C9F78095089597FB072E16F406
:1051B000009407D077FD09D00E943A2907FC05D05A
:1051C0003EF4909581959F4F0895709561957F4F1E
:1051D0000895A1E21A2EAA1BBB1BFD010DC0AA1F38
:1051E000BB1FEE1FFF1FA217B307E407F50720F050
:1051F000A21BB30BE40BF50B661F771F881F991FCB
:105200001A9469F760957095809590959B01AC0113
:10521000BD01CF010895EE0FFF1F0590F491E02D21
:105220000994A29FB001B39FC001A39F700D811D7F
:105230001124911DB29F700D811D1124911D08959F
:105240000E941129B7FF0895821B930B08950E94B5
:105250001129A59F900DB49F900DA49F800D911DC5
:1052600011240895B7FF0C9427290E942729821B37
:10527000930B0895AA1BBB1B51E107C0AA1FBB1FBC
:10528000A617B70710F0A61BB70B881F991F5A95D2
:10529000A9F780959095BC01CD010895FC01882760
:1052A0009927E89421912032E9F3293010F02E302B
:1052B000C8F32B3241F02D3239F4689404C00E94B7
:1052C0008529820F911D219120532A30C0F31EF4AD
:1052D000909581959F4F0895803209F0911133C0C8
:1052E00080528F55E0F7089591112DC0803219F04A
:1052F00089508550D0F70895FB01DC018D91019014
:1053000080190110D9F3990B08957AE0979F902D99
:10531000879F802D910D11240895F999FECF92BD9C
:1053200081BDF89A992780B50895262FF999FECF67
:105330001FBA92BD81BD20BD0FB6F894FA9AF99AB2
:105340000FBE01960895992788270895F894FFCFF6
:10535000019301DB109203C5109803F710C00339C5
:105360001168035E1388024A0F85026E0F7303AA49
:105370000F9D03F1117003980F6B03E012A003C798
:1053800011A303860FA603CC0FA903F40FB0031CCF
:1053900010B80387115A036811BE03C110C6034435
:1053A00010CC036010D003531200000000FF010175
:1053B000FFFFFFFF00E100000000000000C180814E
:1053C0000000007072696D617279007365636F6EC1
:1053D00064617279007374617274696E672000731E
:1053E000746F7070696E67006B696C6C696E6700D2
:1053F0007374617274696E672074696D656F75741A
:105400000063757272656E74206E6F726D616C00F0
:1054100063757272656E74206C6F7700637572725B
:10542000656E7420686967680063757272656E7472
:105430002073747265737365640068656172746269
:105440006561742074696D656F757400756E6D614A
:105450006E61676564207377697463680073746F45
:10546000702074696D656F7574006865617274622F
:10547000656174006C6F673A2000A1ADA1AD1F1C7F
:105480001F1E1F1E1F1F1E1F1E1F011562686A633D
:105490006B00000102030507160B170406080A0C2F
:1054A0000D0974656D70657261747572653D006893
:1054B000756D69646974793D00687720006B657269
:1054C000200074696D65200067697420006362665E
:1054D00031006F6E006862006375005744524600E9
:1054E000424F524600455854524600504F524600D3
:1054F0007365742073640073657420656D6D63005B
:10550000696E76616C6964206D65646961003F0055
:10551000696E76616C6964206D6F6465003C3C3C2B
:105520002D207369643D00696E76616C6964206347
:105530006F6D6D616E64002D3E3E3E0030006E6307
:1055400000676E0063730078310078320062616337
:105550006B6F6666006261636B696E67206F66667B
:10556000206F662000706F73740063757272656ED1
:10557000742073656E736F72200020746F6F206DDE
:10558000616E79206661756C747300206F7574208C
:105590006F662072616E67652E00746865726D6952
:1055A00073746F722000626F6F746C6F6700626F4C
:1055B0006F74647400202100696400646174650084
:1055C000746800656E76006661696C7300656E6173
:1055D000626C65640073642000656D6D6320003F3C
:1055E000200073746172740073746F7000627300D2
:1055F000626600666300757000656E61626C6500CE
:1056000064697361626C65007761746368006565E5
:10561000726573657400626F6F74730076657200F3
:10562000626C6600000000009A196D1942194A194F
:105630005D196C19000000007D1EC41EA71EB71E58
:10564000931EA41E0D0A006E616E00696E66006FE7
:04565000766600007A
:00000001FF
