:100000000C94F6000C941E010C941E010C941E011D
:100010000C941E010C941E010C941E010C941E01E4
:100020000C941E010C941E010C9478250C940A2447
:100030000C941E010C941E010C941E010C941E01C4
:100040000C941E010C941E010C941E010C941E01B4
:100050000C949B0C0C941E010C941E010C94961C89
:100060000C941E010C941E010C941E010C941E0194
:100070000C941E010C941E010C941E010C941E0184
:100080000C941E010C941E010C941E010C941E0174
:100090000C94691B0C941E010C941E010C941E01FF
:1000A0000C941E010C941E010C941E01D61DD91D2A
:1000B000C81DCC1DD21DFA1DFA1DFA1DDD1DE11D46
:1000C000E51DEB1DEF1DFA1DF51D070605040100DA
:1000D000080A0B0C0D090000000200090F000003C4
:1000E0000401000C000000000000000000000000FF
:1000F0000000000000040802011040804010204071
:10010000804080080204018040201002011080100D
:1001100020404020040404040403040502020202F7
:100120000403020202020606060606060404020290
:10013000020404000000002300260029002C002FE8
:100140000000000000250028002B002E00310000D8
:10015000000000240027002A002D003000080B00BA
:10016000020202010009040000010202000005244D
:1001700000100105240101010424020605240600E3
:10018000010705810310004009040100020A000074
:10019000000705020240000007058302400000122C
:1001A000010002EF020140412337800001010203F8
:1001B00001120100020000004041233780000101CC
:1001C00002030141726475696E6F204C4C4300411B
:1001D000726475696E6F204D6963726F0004030964
:1001E0000400DD05990A8A0E7F1A7A1F11241FBEAA
:1001F000CFEFDAE0DEBFCDBF14E0A0E0B1E0ECE786
:10020000F3E502C005900D92AA30B107D9F726E0B8
:10021000AAE0B4E001C01D92A038B207E1F711E0F6
:10022000CCEED1E004C02297FE010E942329C23EF9
:10023000D107C9F70E9411260C94BC290C94000028
:10024000FC012285213039F4478D50A161A172A1B2
:1002500043960C94750C80E008954B960C94610CB9
:10026000CF93DF93EC018885882311F0898513C033
:100270008B85882341F08A810E9410098370992719
:10028000039741F405C08A810E94D70880FF02C00D
:100290008D8101C08C81DF91CF910895FC0181E0B7
:1002A0008087618783810C94E40DFC0143A354A3F0
:1002B00065A376A308951F93CF93DF93EC018A8102
:1002C0000E942A0F8F3F2FEF9207C9F088379105C0
:1002D00048F08C3221E0920738F08235934030F4B8
:1002E00011E005C012E003C010E001C013E08E85EC
:1002F000181729F0CE010F960E94550C1E87DF912A
:10030000CF911F9108950F931F93CF93DF931F9267
:10031000CDB7DEB78C01439669830E94550CC801A6
:1003200047960E94550CC8014B960E94550CC80177
:100330000F960E94550C6981F80162870F90DF913A
:10034000CF911F910F910895CF93DF93EC01188601
:10035000198682E08E871F8E18A219A21AA240E683
:100360005AEE60E070E04BA35CA36DA37EA38A818C
:100370000E94B808882311F061E001C060E0CE015E
:10038000DF91CF910C948301CF93DF93EC0161E077
:100390008A810E94AF0861E0CE010E94830180E063
:1003A000DF91CF910895CF93DF93EC018A81811182
:1003B0000FC040E65AEE60E070E0CE0143960E9426
:1003C000750C882329F0CE01DF91CF910C94C401E4
:1003D000DF91CF91089520916201222329F0BC0181
:1003E00089E196E00C94AD1F0895FF920F931F933F
:1003F000CF93DF9300D000D0CDB7DEB78C01FC01E6
:100400008285813009F068C082810E94100921E054
:100410004E9708F020E0F8012387C8010E943001C0
:10042000F82EF8011086682F83810E94E40DF801F0
:10043000808191810E94290589E891E00E94EB0169
:10044000F8018481F81203C087E791E002C08FE7CA
:1004500091E00E94EB010E944505F80182810E9413
:100460000509CE0101960E94000E49815A816B81D7
:100470007C81F801228130E0C901880F991F820F29
:10048000931F855F9B4F0E94530A62E0F8018281AF
:100490000E9451096AE070E080E090E00E940F1D28
:1004A00061E0F80182810E94940D64EF71E080E0C8
:1004B00090E00E940F1D61E0F80182810E945109C5
:1004C0006AE070E080E090E00E940F1D63E0C801E8
:1004D0000E94830180E001C081E00F900F900F9097
:1004E0000F90DF91CF911F910F91FF900895CF93BF
:1004F000DF93EC018A85833081F4888199810E94A1
:10050000290583E991E00E94EB010E94450564E022
:10051000CE010E94830180E001C081E0DF91CF9194
:100520000895CF93DF93EC018A85882391F1888128
:1005300099810E9429058CE991E00E94EB010E94BB
:10054000450563E08A810E9451096AE070E080E01D
:1005500090E00E940F1D60E08A810E94940D64EF7C
:1005600071E080E090E00E940F1D60E08A810E94AF
:1005700051096AE070E080E090E00E940F1D61E0A8
:10058000CE010E9483018FE794E00E94550C80E029
:1005900001C081E0DF91CF910895CF93DF93EC010B
:1005A0008A81882319F060E00E94AF08CE010E9482
:1005B00091028A81882321F060E0CE010E948301AC
:1005C00080E0DF91CF910895CF93DF93EC0140EE6F
:1005D00053E964E070E043960E94750C882391F023
:1005E000888199810E94290584EA91E00E94EB01AB
:1005F0000E9445058A810E943E09CE01DF91CF917C
:100600000C949102DF91CF9108950F931F93CF9394
:10061000DF93EC018E81882351F040EE53E964E0D2
:1006200070E0CE014B960E94750C811111C08F8134
:10063000882309F441C08E01015F1F4F40E157E25A
:1006400060E070E0C8010E94750C811112C034C0D6
:10065000888199810E9429058EEE91E00E94EB012C
:100660000E9445058A810E943E09CE010E947702C0
:10067000DECF888199810E9429058E85813069F4B9
:100680008DED91E00E94EB010E944505C801DF91CC
:10069000CF911F910F910C94550C813018F485EB7C
:1006A00091E0F0CF823019F484EC91E0EBCF83300D
:1006B00059F780ED91E0E6CFDF91CF911F910F9137
:1006C0000895CF93DF93EC0140E05AEB6BED70E0BF
:1006D00043960E94750C8823C1F0888199810E94FD
:1006E000290580E092E00E94EB010E944505CE01C1
:1006F0000E94300161E0811160E0CE010E944E0154
:10070000CE01DF91CF910C947702DF91CF910895C4
:10071000FC01238521110C9405030C9461030F93B4
:100720001F93CF93DF93EC018C01095E1F4F40E1D3
:1007300057E260E070E0C8010E94750C882369F000
:10074000C8010E94550C888199810E94290583E97E
:1007500091E00E94EB010E9445054BA15CA16DA1B7
:100760007EA1CE0143960E94750C8823C9F040E615
:100770005AEE60E070E04BA35CA36DA37EA388817A
:1007800099810E94290581E192E00E94EB010E947B
:100790004505CE01DF91CF911F910F910C949102ED
:1007A000DF91CF911F910F910895FC012285223096
:1007B00059F018F4222331F00895233039F0243011
:1007C00039F008950C94D3010C94E4020C9488033E
:1007D0000C948F03CF93DF93EC014B960E94550C42
:1007E000888199810E9429058EE192E00E94EB01A7
:1007F0000E9445058A85882341F0833058F463E0E0
:10080000CE01DF91CF910C948301CE01DF91CF9186
:100810000C94CD02DF91CF910895DC011296EC91FA
:10082000F0E0E65EFB4F2081283018F010820C9437
:10083000EA030895CF93DF93EC010E940D04CE01EB
:100840000E945B01CE01DF91CF910C94D5030C94F3
:10085000EA03DC01ED91FC910190F081E02D099417
:10086000089508950F931F93CB01A0E0B0E0BA2F35
:10087000A92F982F8827842BE7E1F0E040E050E88B
:1008800068E970E08C019D010E2E04C03695279515
:10089000179507950A94D2F700FF04C0842795277F
:1008A000A627B72776956795579547953197E730EF
:1008B000F10541F71F910F910895EF92FF920F9369
:1008C0001F93CF93DF938C0160E470E080E595E0A7
:1008D0000E94031A65EF70E080E595E00E9429040C
:1008E00080E595E00E947C1A67E370E080E090E08C
:1008F0000E940F1D43E050E060E470E080E595E069
:100900000E94791AF12C80E595E00E94581903970E
:100910002CF180E595E00E946019E82E80E595E0D5
:100920000E946019F82E80E595E00E946019DE2D86
:1009300090E0C92FCF29482FBE01C8010E94320480
:10094000811107C0BE016C7F80E090E00E94C22749
:1009500013C060E070EC89E794E40EC065E070E0DD
:1009600080E090E00E940F1DF39484E6F812CBCF54
:1009700060E070E889E794E4DF91CF911F910F91D7
:10098000FF90EF900895EF92FF920F931F93CF93F4
:10099000DF937C0160E470E080E595E00E94031A3B
:1009A00063EF70E080E595E00E94290480E595E022
:1009B0000E947C1A67E370E080E090E00E940F1DC7
:1009C00043E050E060E470E080E595E00E94791A31
:1009D00005E610E080E595E00E945819039774F44D
:1009E00061E070E080E090E00E940F1D015011096D
:1009F00089F760E070E889E794E424C080E595E039
:100A00000E946019082F80E595E00E946019182F58
:100A100080E595E00E946019D02F90E0C92FC12B8E
:100A2000482FBE01C7010E943204811107C0BE01D8
:100A30006C7F80E090E00E94C22704C060E070EC10
:100A400089E794E4DF91CF911F910F91FF90EF9090
:100A50000895CF93DF93EC0180916201882391F098
:100A600068E272E089E196E00E94AD1FBE0189E173
:100A700096E00E94AD1F60E289E196E0DF91CF91A0
:100A80000C94AF1FDF91CF9108958091620188236C
:100A900021F089E196E00C94B61F0895FC016111E4
:100AA00003C0411107C004C0623061F44230C1F498
:100AB00088E61DC0423011F489E619C04130C1F406
:100AC0008AE615C06130A1F4411102C08CE60FC066
:100AD000423011F48DE60BC0413051F48EE607C070
:100AE000411102C08BE603C0413011F48FE68083D0
:100AF00008950F931F93CF93DF93EC01142F186881
:100B000020E2629FC0011124182B0AE0688180E571
:100B100095E00E94F919612F80E595E00E94B019D7
:100B200080E595E00E947C1A882311F0015071F74E
:100B3000DF91CF911F910F9108950F931F93CF9342
:100B4000DF938C0160E570E080E090E00E940F1D73
:100B5000F801608170E043E050E080E595E00E949C
:100B6000791A1AE080E595E00E94581903972CF451
:100B70001150C1F7CFEFDFEF12C080E595E00E9482
:100B80006019082F80E595E00E946019182F80E514
:100B900095E00E946019D02FF0E0CF2FC12BCE013D
:100BA000DF91CF911F910F910895982F92959F708B
:100BB0002AEF929F800D1124089580E595E00C9412
:100BC000EF191F93CF93DF93EC016FE670E080E5A0
:100BD00095E00E94031A60E080E595E00E94B0195C
:100BE00060E080E595E00E94B01929811AE0822F2B
:100BF000612F0E94DF28682F660F680F660F620F53
:100C000080E595E00E94B0192A81822F612F0E9411
:100C1000DF28682F660F680F660F620F80E595E08A
:100C20000E94B0198B818860682F70E080E595E0A4
:100C30000E9429042C81822F612F0E94DF28682FB7
:100C4000660F680F660F620F80E595E00E94B0198D
:100C50002D81822F612F0E94DF28682F660F680F79
:100C6000660F620F80E595E00E94B0192E812E512B
:100C7000822F612F0E94DF28682F660F680F660F92
:100C8000620F80E595E00E94B01980E595E00E9432
:100C90007C1A6FE670E080E595E00E94031A60E040
:100CA00080E595E00E94B0192881822F612F0E9473
:100CB000DF28682F660F680F660F620F606870E0AC
:100CC00080E595E00E94290480E595E0DF91CF91D1
:100CD0001F910C947C1ACF93DF93CDB7DEB7279783
:100CE0000FB6F894DEBF0FBECDBFAE014F5F5F4FB2
:100CF0000E94C30ACE0101960E94E10527960FB615
:100D0000F894DEBF0FBECDBFDF91CF910895CF9392
:100D1000DF93EC016FE670E080E595E00E94031A36
:100D200060E080E595E00E94B01980E595E00E94C2
:100D30007C1A81113EC047E050E06FE670E080E52C
:100D400095E00E94791A80E595E00E9460198F77FE
:100D50000E94D505888380E595E00E9460190E9475
:100D6000D505898380E595E00E9460198F7B0E94FC
:100D7000D5058A8380E595E00E946019877C8B8386
:100D800080E595E00E9460190E94D5058C8380E57E
:100D900095E00E9460198F7D0E94D5058D8380E5C6
:100DA00095E00E9460190E94D505825E8E8381E0E5
:100DB00001C080E0DF91CF910895CF93DF93CDB74D
:100DC000DEB727970FB6F894DEBF0FBECDBFCE01BA
:100DD00001960E948706882329F0CE0101960E9481
:100DE0009A0B03C060E070E0CB0127960FB6F89431
:100DF000DEBF0FBECDBFDF91CF9108950F931F933C
:100E0000CF93DF938B0167E570E080E595E00E946A
:100E1000031A60EF70E080E595E00E94290480E508
:100E200095E00E947C1A48E050E067E570E080E5BC
:100E300095E00E94791AE80118E080E595E00E94AB
:100E4000601989931150C9F7DF91CF911F910F91CC
:100E500008950C94AB290C94A329CF92DF92EF92C2
:100E6000FF920F931F93CF93DF9300D0CDB7DEB7E0
:100E70006C018B017C0184E0E80EF11CC6016983E2
:100E80007A830E94A329F80181938F01FFEFCF1A83
:100E9000DF0A69817A81CE14DF0481F7CB010F90DC
:100EA0000F90DF91CF911F910F91FF90EF90DF9006
:100EB000CF9008950F931F93CF93DF938C01EB0195
:100EC0000E94A3298883C80101960E94A3298983CF
:100ED000CE01DF91CF911F910F910895EF92FF9274
:100EE0000F931F93CF93DF931F92CDB7DEB77C0193
:100EF000FC0100811181C80169830E94A3296981D5
:100F0000681719F0C8010E94AB29C7010F90DF9143
:100F1000CF911F910F91FF90EF900895BF92CF92C4
:100F2000DF92EF92FF920F931F93CF93DF9300D046
:100F30001F92CDB7DEB78C01B62EE62EF72E6C01D0
:100F400084E0C80ED11CF70161917F011A830983E7
:100F5000CE0101967B830E946E070F5F1F4F7B813E
:100F60000C151D0581F78B2D972F0F900F900F906B
:100F7000DF91CF911F910F91FF90EF90DF90CF9075
:100F8000BF900895EF92FF920F931F93CF93DF933B
:100F900000D0CDB7DEB77C018B01FB0160819A8365
:100FA0008983CE0101960E946E07F8016181FFEFEF
:100FB000EF1AFF0AFA82E982CE0101960E946E07BB
:100FC000C8010F900F90DF91CF911F910F91FF906B
:100FD000EF900895EF92FF920F931F93CF93DF93BB
:100FE00000D0CDB7DEB77C018B01FB0160819A8315
:100FF0008983CE0101960E946E07F8016181FFEF9F
:10100000EF1AFF0AFA82E982CE0101960E946E076A
:10101000C8010F900F90DF91CF911F910F91FF901A
:10102000EF900895CF93DF9300D000D0CDB7DEB717
:10103000BE016F5F7F4F80E090E00E942D0781E04E
:1010400049815A816B817C81413A5D4A614A7D4A7E
:1010500009F080E00F900F900F900F90DF91CF91EB
:101060000895EF92FF920F931F93CF93DF9300D0D9
:1010700000D000D0CDB7DEB719821A821B821C8245
:10108000CE0101967C0100E010E0F70161917F0143
:101090001E830D83CE0105960E946E070F5F1F4FC2
:1010A0000430110591F726960FB6F894DEBF0FBEF7
:1010B000CDBFDF91CF911F910F91FF90EF900895D9
:1010C00080E290E00E942B0791E0811101C090E046
:1010D000892F0895682F80E290E00C94290780E41E
:1010E00090E00C942B07833008F081E0682F80E4B7
:1010F00090E00C942907BC0184E090E00C94C207B6
:10110000BC0186E090E00C94C207BC0188E090E04E
:101110000C942D07BC0188E090E00C948E07CF93CF
:10112000DF9300D000D0CDB7DEB7CE0101960E948C
:10113000850889819A81AB81BC810196A11DB11D71
:1011400089839A83AB83BC83CE0101960E948A086F
:101150000F900F900F900F90DF91CF91089590E036
:1011600002969695982F8827979587950C9429072E
:10117000CF93C82F0E94FA0D982F882381F0CC239B
:1011800071F08C2F90E002969695982F882797956E
:1011900087950E942B0791E0811101C090E0892F73
:1011A000CF910895BC018CE090E00C948E07CF9312
:1011B000DF9300D0CDB7DEB720E8829FC0011124B5
:1011C000BE016F5F7F4F895F9E4F0E945A078981E2
:1011D0009A810F900F90DF91CF910895CF93DF9375
:1011E00000D0CDB7DEB77A83698320E8829FC00143
:1011F0001124BE016F5F7F4F895F9E4F0E94EA07F7
:101200000F900F90DF91CF910895CF93C82F0E9438
:10121000D708BC016F5F7F4F8C2FCF910C94EE08E5
:10122000CF93DF9300D0CDB7DEB720E8829FC00117
:101230001124BE016F5F7F4F855F9E4F0E945A074A
:1012400089819A810F900F90DF91CF910895CF936C
:10125000DF9300D0CDB7DEB77A83698320E8829F21
:10126000C0011124BE016F5F7F4F855F9E4F0E94BA
:10127000EA070F900F90DF91CF910895CF93C82F79
:101280000E941009BC016F5F7F4F8C2FCF910C948F
:10129000270920E8829FC00111248A5D9E4F0C948B
:1012A0002B0720E8829FC00111248A5D9E4F0C9479
:1012B000290720E8829FC00111248C5E9E4F0C9468
:1012C0002B0720E8829FC00111248C5E9E4F0C9456
:1012D000290720E8829FC0011124815F9E4F0C9452
:1012E0002B0720E8829FC0011124815F9E4F0C9440
:1012F0002907FC01808191810C942B07FC018081DE
:1013000091810C942907FC018081918101960C94B4
:101310002B07FF920F931F93CF93DF9300D000D042
:101320001F92CDB7DEB78C016D830E947909F82E2C
:10133000C8010E9483096D816817E8F4F8012081D3
:1013400031812E5F3F4F862F90E08F0D911D62817E
:1013500070E00E94EB28880F991F880F991FBE012B
:101360006F5F7F4F820F931F0E942D0769817A81E3
:101370008B819C8103C060E070E0CB010F900F90E7
:101380000F900F900F90DF91CF911F910F91FF90D1
:101390000895FC018081918101960C942907CF93D7
:1013A000DF93EC0160E00E947E0960E0CE01DF91F6
:1013B000CF910C94C909FF920F931F93CF93DF93A2
:1013C00000D000D0CDB7DEB719821A821B821C82F2
:1013D000CE0101960E948A0819821A821B821C8201
:1013E000CE0101960E94D20883E0898311E01A831E
:1013F000CE0101960E947B0819831A82CE010196C4
:101400000E94800881E00E946A080BE014E0F12C41
:1014100060E070E08F2D0E94EE0860E070E08F2D9C
:101420000E94270960E08F2D0E94510960E08F2DF6
:101430000E94610960E08F2D0E947109C8010E941D
:10144000CF09F3940D5F1F4F85E0F812E1CF61E003
:1014500080E091E00E94290761E080E891E00E942D
:10146000290761E080E092E00E94290760E080E8BF
:1014700092E00E94290760E080E093E00E94290743
:1014800080E00E9473086EE272E080E090E00E94CB
:101490008E070F900F900F900F90DF91CF911F91BB
:1014A0000F91FF900895EF92FF920F931F93CF93A8
:1014B000DF9300D000D0CDB7DEB78C0149835A83CB
:1014C0006B837C830E947909E82EC8010E948309FE
:1014D000F82EF801208131812E5F3F4F90E08E0D74
:1014E000911D628170E00E94EB28880F991F880F80
:1014F000991FBE016F5F7F4F820F931F0E948E075F
:10150000F801828161E0F81205C06E0DC8010E94E9
:101510007E0904C06F0DC8010E94C9090F900F9089
:101520000F900F90DF91CF911F910F91FF90EF904F
:10153000089528E020930D0480E491E090930C043A
:1015400080930B042093100480EC91E090930F049F
:1015500080930E042093130480E492E0909312048D
:10156000809311042093160480EC92E0909315046C
:10157000809314042093190480E493E0909318045A
:101580008093170408956F927F928F929F92AF92EB
:10159000BF92CF92DF92EF92FF920F931F93CF9360
:1015A000DF93EA012CE3C22ED12CE12CF12CA70110
:1015B00096010E94FF286883CA01B901A70196011C
:1015C0000E94FF286983CA01B90128E130E040E0A8
:1015D00050E00E94FF2849015A016A83CA01B901FB
:1015E0006C5F7F4F8F4F9F4F27E030E040E050E02F
:1015F0000E94FF286F5F6B8300E010E0980140E0DD
:1016000054E6652E712C60E9C62EDD24D394E42FB8
:10161000F0E0EE54F84F7F0183E0E822FF24E1146C
:10162000F10489F4CF01B3010E94EB28892B29F042
:101630008EE691E0A0E0B0E00AC0CF01B6010E94C2
:10164000EB28892BA9F38DE691E0A0E0B0E0080F2C
:10165000191F2A1F3B1FD901C801AA27BB278816BB
:101660009906AA06BB0610F04F5FD1CF4E83E11456
:10167000F10499F4CF0164E670E00E94EB28892B15
:1016800029F08EE691E0A0E0B0E00BC0CF0160E968
:1016900071E00E94EB28892BA1F38DE691E0A0E098
:1016A000B0E0081B190B2A0B3B0B801A910AA20A07
:1016B000B30ACF0164E670E00E94EB289C01CF01E1
:1016C00060E971E00E94EB28E2E3F2E0A0E0A130E3
:1016D00059F4E114F10451F42115310511F04DE1F3
:1016E00006C00097E1F302C0408101C04CE150E028
:1016F00060E070E084169506A606B70640F0841AEE
:10170000950AA60AB70AAF5F3196AC3001F7AF5F12
:10171000AD8383948C82DF91CF911F910F91FF90C5
:10172000EF90DF90CF90BF90AF909F908F907F9081
:101730006F9008956F927F928F929F92AF92BF9217
:10174000CF92DF92EF92FF920F931F93CF93DF938D
:10175000FC01C680AC2DB0E020E833E341EE51E05F
:101760000E943D294B015C0122EB37E06D01C4E68C
:10177000D0E000E911E0C901825B97408C159D051E
:10178000DCF4C90183709927892B99F4C901BE0142
:101790000E94EB28892B31F4C901B8010E94EB2883
:1017A000892B39F480E8880E81E5981E81E0A81E17
:1017B000B11C2F5F3F4FDFCF6580712C8EE4C81ABC
:1017C00088EFD80AC60164E670E00E94EB288C011D
:1017D000C60160E971E00E94EB287C01C1E0D0E025
:1017E00083E0C822DD24C615D7052CF5C230D1050B
:1017F00089F4C114D10471F40115110519F4E1142F
:10180000F10441F480E8880E8BE3981E86E2A81E5E
:10181000B11C0FC0DE01AF5CBD4FAC91B0E020E861
:1018200031E541E050E00E943D29860E971EA81E3A
:10183000B91E2196D8CF4181228130E0A0E1BEE0DF
:101840000E9427296B017C01242F30E0ACE3B0E03B
:101850000E942729C60ED71EE81EF91E8081C80ED9
:10186000D11CE11CF11CA481B0E0119720E831E506
:1018700041E050E00E944829C60ED71EE81EF91E1E
:10188000C80CD91CEA1CFB1CC701B601DF91CF9123
:101890001F910F91FF90EF90DF90CF90BF90AF908E
:1018A0009F908F907F906F900895CF93DF93EC017E
:1018B0000E94E01C688379838A839B83DF91CF91A8
:1018C00008950F931F93CF93DF93EC010E94E01CC8
:1018D000088119812A813B81601B710B820B930B5C
:1018E000DF91CF911F910F910895CF92DF92EF92E8
:1018F000FF920F931F93CF93DF93EC016A017B015B
:101900000E94E01C088119812A813B81601B710BB8
:10191000820B930B21E0C616D706E806F90608F0FD
:1019200020E0822FDF91CF911F910F91FF90EF90D8
:10193000DF90CF9008951F920F920FB60F9211244F
:101940000F931F932F933F934F935F936F937F93C7
:101950008F939F93AF93BF93CF93DF93EF93FF93B7
:101960000AE412E0C0E0D0E0F80181918F010E940A
:101970006A1EFE01E15EFB4F9081981731F0DE0197
:10198000A65EBB4F9C919F5F9C9380832196C53040
:10199000D10551F7FF91EF91DF91CF91BF91AF91B9
:1019A0009F918F917F916F915F914F913F912F9177
:1019B0001F910F910F900FBE0F901F90189590914F
:1019C00000019923D9F08530E0F4811103C082E150
:1019D0000C948D1DE82FF0E0EB5BFD4F40E0608143
:1019E00084E294E00E94790584E294E00E949D05DF
:1019F00025E0969587952A95E1F708958FEF9FEF5B
:101A0000089580E090E00895823038F4E82FF0E007
:101A1000EC5AFD4F80810C94341E0895823050F4AE
:101A2000E82FF0E0EC5AFD4F80810E946A1E21E011
:101A3000019709F020E0822F0895CF93C82F0E94CC
:101A40000E0D61E068278C2FCF910C94040DEF925E
:101A5000FF920F931F93CF93DF9361E08DE00E947D
:101A6000FB1D61E089E00E94FB1D3FE4E32E32E0B4
:101A7000F32E0AE412E0C0E0D0E061E0F7018191CA
:101A80007F010E94FB1D62E0F80181918F010E949D
:101A9000FB1DFE01E65EFB4F10822196C530D1058D
:101AA00061F761E081E00E94FB1D61E085E10E9439
:101AB000FB1D61E080E00E94FB1D0E946008809396
:101AC000000180E595E00E94EF1968EC70E080E08D
:101AD00090E00E940F1D41E061E084E294E00E94EA
:101AE0004E0568EC70E080E090E00E940F1D85E2FA
:101AF00094E00E94310468EC70E080E090E00E9485
:101B00000F1DF894109280001092810081E0809364
:101B10006F0083E0809381007894DF91CF911F91D3
:101B20000F91FF90EF900895CF93C62F853080F5E9
:101B3000811120C060E00E94341E62E370E080E00A
:101B400090E00E940F1D6C2F84E00E94341E62E31F
:101B500070E080E090E00E940F1D61E080E00E9454
:101B6000341E62E370E080E090E00E940F1D60E0B0
:101B700080E005C0E82FF0E0E15BFD4F80810E942E
:101B8000341E62E370E080E090E0CF910C940F1D72
:101B9000CF91089580910001882321F085E294E09F
:101BA0000C945D0460E070E080EC9FE70895809104
:101BB0000001882321F085E294E00C94C30460E0E6
:101BC00070E080EC9FE70895823098F4662319F066
:101BD000613039F00895E82FF0E0E25CFD4F60E0FD
:101BE00005C0E82FF0E0E25CFD4F61E080810C94DD
:101BF000341E089591E0853008F090E0892F089513
:101C0000CF93DF93EC0180910001882339F00E948B
:101C1000DD06688379838A839B8304C018821982D6
:101C20001A821B82DF91CF9108950F931F93CF9358
:101C3000DF93CDB7DEB727970FB6F894DEBF0FBEA0
:101C4000CDBF8C01809100018823B1F0CE010196B7
:101C50000E9487068F8190E08E54984FF8019183FF
:101C600080838E8182838D8183838B8184838A812B
:101C700085838981868308C0F801118210821282CF
:101C8000138214821582168227960FB6F894DEBF4F
:101C90000FBECDBFDF91CF911F910F910895CF93CC
:101CA000DF93CDB7DEB727970FB6F894DEBF0FBE30
:101CB000CDBFFC0180910001882399F08081825B77
:101CC0008F8382818E8383818D8384818B838581C1
:101CD0008A8386818983CE0101960E949A0B0E9495
:101CE0006B0627960FB6F894DEBF0FBECDBFDF910F
:101CF000CF91089520910001222329F0BC018AE0B0
:101D000094E00C94FE06FC0188E09FEF91938150D3
:101D1000E9F7089585E294E00C943004CF92DF92C5
:101D2000EF92FF920F931F93CF93DF93D82E809162
:101D30000001882309F450C05AE0F52E0D2D10E063
:101D40006D2D80E595E00E94F91965E070E080E076
:101D500090E00E940F1DE0915005F0915105019017
:101D6000F081E02D60E080E595E0099565E070E0A8
:101D700080E090E00E940F1D60E080E595E00E9409
:101D8000051A811126C065E070E080E090E00E94B5
:101D90000F1D43E050E0B80180E595E00E94791AFC
:101DA0008330B9F465E070E080E090E00E940F1DA0
:101DB000E12C80E595E00E945819039784F465E0D2
:101DC00070E080E090E00E940F1DE39484E6E8124A
:101DD000F0CFFA9409F0B4CFCFEFDFEF27C080E562
:101DE00095E00E94601980E595E00E946019E82E58
:101DF00080E595E00E946019C82E61E080E595E0DD
:101E00000E94051A8111E5CF65E070E080E090E066
:101E10000E940F1DE0FAEE24E0F8DE2D80E0C82FCE
:101E2000CC2944E0CC0FDD1F4A95E1F7CE01DF91CC
:101E3000CF911F910F91FF90EF90DF90CF90089579
:101E400080910001882319F080E60C948E0E8FEFAC
:101E50009FEF089590910001992349F0853050F447
:101E6000E82FF0E0E05CFD4F80810C948E0E8FEF48
:101E70009FEF089580E090E008950E94DD06AB0199
:101E8000BC012AE030E089E196E00E94D12080E0A8
:101E90000895CF930E94200F4AE050E0BC0189E1F1
:101EA00096E00E94B520C0E060E289E196E00E94E1
:101EB000AF1F8C2F0E942A0FBC014AE050E089E13D
:101EC00096E00E94B520CF5FC53071F789E196E0BA
:101ED0000E94B61F80E0CF910895CF93DF93C3E8AF
:101EE000D4E0CE010E942D01AB01BC012AE030E01C
:101EF00089E196E00E94D120A79685E0C634D807F4
:101F000081F780E0DF91CF910895CF93C0E08C2FCF
:101F10000E941009BC014AE050E089E196E00E946D
:101F2000BB20CF5FC53099F780E0CF910895CF9364
:101F3000C0E08C2F0E94DF0CBC014AE050E089E138
:101F400096E00E94BB20CF5FC53099F780E0CF912B
:101F5000089566E572E089E196E00E94AD1F0E9457
:101F6000D70DAB01BC0122E030E089E196E00E9490
:101F7000D02163E672E089E196E00E94AD1F0E94E5
:101F8000CA0DAB01BC0122E030E089E196E00E947D
:101F9000D02180E00895CF93DF9300D000D0CDB75B
:101FA000DEB7CE0101960E94000E49815A816B81F5
:101FB0007C818091260490912704A0912804B091FF
:101FC0002904481B590B6A0B7B0B2AE030E089E19E
:101FD00096E00E94D12080E00F900F900F900F901C
:101FE000DF91CF910895EF92FF920F931F93CF93BC
:101FF000DF93F82EEB01229611E087E2E82E1F1501
:1020000090F4899199910E946429082F0E94FA0DF9
:10201000882339F00E9DC00111248D579B4F0E94DB
:10202000C4011F5FECCF80E0DF91CF911F910F9132
:10203000FF90EF900895EF92FF920F931F93CF932D
:10204000DF93F82EEB01229611E097E2E92E1F159F
:1020500090F4899199910E946429082F0E94FA0DA9
:10206000882339F00E9DC00111248D579B4F0E948B
:10207000CD021F5FECCF80E0DF91CF911F910F91D8
:10208000FF90EF900895CF93DF9300D000D0CDB7AD
:10209000DEB7CE0101960E94850849815A816B8185
:1020A0007C812AE030E089E196E00E94D12080E046
:1020B0000F900F900F900F90DF91CF9108956DE6E4
:1020C00072E089E196E00E94AD1F4AE050E063E0D3
:1020D00070E089E196E00E946F206EE289E196E06F
:1020E0000E94AF1F4AE050E061E070E089E196E0B5
:1020F0000E94772061E772E089E196E00E94AD1FBF
:102100004AE050E061E070E089E196E00E946F20D3
:102110006EE289E196E00E94AF1F4AE050E060E085
:1021200070E089E196E00E946F206EE289E196E01E
:102130000E94AF1F4AE050E064E070E089E196E061
:102140000E94772066E772E089E196E00E94AD1F69
:102150002AE030E046E855E86FEC7AE589E196E060
:102160000E948F206CE772E089E196E00E94AD1F2B
:1021700061E872E089E196E00E94BA1F80E008956C
:102180000E94310880E00895CF93823081F4FB01F2
:10219000828193810E946429C82F0E94FA0D8823AE
:1021A00021F0C093610180E003C083E001C082E0C0
:1021B000CF910895CF938230B1F4FB018281938156
:1021C0000E946429C82F0E94FA0D882351F0F7E27B
:1021D000CF9FC00111248D579B4F0E94270480E0A0
:1021E00003C083E001C082E0CF9108950F931F9355
:1021F000CF93DF93182FEB018230A0F18A819B816E
:102200000E946429082F0E94FA0D882339F11230A8
:1022100059F427E2029FE0011124CD57DB4F40E63D
:102220005AEE60E070E013C01330D1F48C819D81D0
:102230000E94642927E2029FE0011124CD57DB4F61
:1022400028EE33E0DC010E943629AB01BC01CE014F
:102250000E945501CE010E94770202C083E003C0B4
:1022600080E001C082E0DF91CF911F910F9108952E
:102270001F93CF93DF93182FEB0181E080934E05DE
:1022800086E495E00E94550C113049F410924A05FD
:1022900010924B0510924C0510924D0513C0123050
:1022A00089F48A819B810E94642928EE33E0DC0155
:1022B0000E94362960934A0570934B0580934C0524
:1022C00090934D0580E0DF91CF911F910895CF93BA
:1022D000DF938230B9F4FB01C281D38166E872E0FA
:1022E000CE010E949229892B21F481E08093620122
:1022F00009C063E073E0CE010E949229892B11F49A
:102300001092620180E0DF91CF9108950F931F93A7
:10231000CF93DF93EB01843099F58A819B810E94F2
:102320006429182F0E94FA0D882351F166E272E0A9
:102330008E819F810E94922901E0892B09F000E0A3
:102340000C80DD81C02D69E872E0CE010E949229E7
:10235000892B41F487E2189FF0011124ED57FB4FC0
:1023600006830EC06CE872E0CE010E949229892B90
:1023700039F087E2189FF0011124ED57FB4F0783D6
:1023800080E0DF91CF911F910F91089580914F05CB
:1023900083FF06C06FE872E089E196E00E94BA1FF1
:1023A00080914F0582FF06C064E972E089E196E002
:1023B0000E94BA1F80914F0581FF06C069E972E053
:1023C00089E196E00E94BA1F80914F0580FF06C008
:1023D0006FE972E089E196E00E94BA1F80E00895FB
:1023E0000F931F93CF93DF93082FEB018EEF800F96
:1023F000823008F051C08A819B810E946429182F85
:102400000E94FA0D882309F445C0033061F50C8061
:10241000DD81C02D68EA72E0CE010E949229892BED
:1024200061F427E2129FC001112460E08D579B4F99
:102430000E944E0164EA72E027C06FEA72E0CE01AA
:102440000E949229892B61F427E2129FC001112476
:1024500061E08D579B4F0E944E016BEA72E014C001
:1024600064EB72E011C027E2129FC00111248D5766
:102470009B4F0E943001811103C068EA72E004C0E2
:10248000813071F76FEA72E089E196E00E94BA1F2D
:1024900080E003C083E001C082E0DF91CF911F9113
:1024A0000F910895CF93DF938130A1F40E946F08BC
:1024B000811103C063E073E031C0813019F468EA30
:1024C00072E02CC0823019F46FEA72E027C062EC2F
:1024D00072E024C0823031F5FB01C281D38163E018
:1024E00073E0CE010E949229892B11F480E011C083
:1024F00068EA72E0CE010E949229892B11F481E0F2
:1025000008C06FEA72E0CE010E949229892B21F463
:1025100082E00E94730806C064EC72E089E196E0F4
:102520000E94BA1F80E0DF91CF910895CF93DF938F
:10253000EC01688179814AE050E089E196E00E94EF
:10254000B52060E289E196E00E94AF1F4AE050E0CA
:102550006A8189E196E00E94AE2060E289E196E01E
:102560000E94AF1F4AE050E06B8189E196E00E9433
:10257000AE2060E289E196E00E94AF1F4AE050E0A1
:102580006C8189E196E00E94AE2060E289E196E0EC
:102590000E94AF1F4AE050E06D8189E196E00E9401
:1025A000AE2060E289E196E00E94AF1F4AE050E071
:1025B0006E8189E196E0DF91CF910C94AE200F936C
:1025C0001F93CF93DF93CDB7DEB727970FB6F8945D
:1025D000DEBF0FBECDBF8B01813061F18730C1F509
:1025E000FB01828193810E9464299A838983F80187
:1025F000848195810E9464298B83F801868197816B
:102600000E9464298C83F801808591850E94642949
:102610008D83F801828593850E9464298E83F80159
:10262000848595850E9464298F83CE0101960E943E
:102630004F0E0CC0CE0101960E94150ECE010196E0
:102640000E94961289E196E00E94B61F80E001C0C8
:1026500082E027960FB6F894DEBF0FBECDBFDF91A4
:10266000CF911F910F910895EF92FF920F931F93B7
:10267000CF93DF931F92CDB7DEB702967C0122E0A5
:102680008701F70161917F0170E034E075956795EE
:102690003A95E1F740E150E089E196E029830E9414
:1026A0006F20F80160816F7070E040E150E089E1D7
:1026B00096E00E946F2029812F5F283009F70F9044
:1026C000DF91CF911F910F91FF90EF900895CF93DD
:1026D000DF93CDB7DEB728970FB6F894DEBF0FBEF5
:1026E000CDBFCE0101960E947A0ECE0101960E94C6
:1026F000341389E196E00E94B61F80E028960FB659
:10270000F894DEBF0FBECDBFDF91CF910895CF9279
:10271000DF92EF92FF920F931F93CF93DF937C0191
:10272000C62E8A01D12CF4E0DF9EE0011124CF5F98
:10273000DE4F88819981009769F0F801608171818D
:102740000E949229892B21F40A80DB81C02D04C0CC
:10275000D394E9CFC0E0D0E061ED72E089E196E08A
:102760000E94AD1FB70189E196E00E94AD1F60E2B3
:1027700089E196E00E94AF1FF8016081718189E1D3
:1027800096E00E94BA1F209729F0B8018C2DFE0117
:10279000099506C06BED72E089E196E00E94BA1FD0
:1027A0006BEE72E089E196E0DF91CF911F910F917E
:1027B000FF90EF90DF90CF900C94BA1FBF92CF9212
:1027C000DF92EF92FF920F931F93CF93DF93CDB7DA
:1027D000DEB760970FB6F894DEBF0FBECDBFB12C49
:1027E0008BE294E07C0187012FEFE21AF20AF801F4
:1027F000C080DD24C7FCD094C6010E948A29892BA1
:1028000091F7C6010E948229892BD1F0DD24D3944F
:10281000DB0CFE013196EB0DF11DEB0DF11D11836B
:10282000008378018701FFEFEF1AFF0AF80180812A
:10283000992787FD90950E948229892B99F7BD2CB5
:10284000F8018081882399F0C80101961082F7E091
:10285000FB1540F689819A81FC012081203451F4D6
:102860006FEF6B0DAE014D5F5F4F019609C0BB204E
:1028700049F0F0CFAE014F5F5F4F6B2D84E892E0DF
:102880000E94871360960FB6F894DEBF0FBECDBFCF
:10289000DF91CF911F910F91FF90EF90DF90CF903C
:1028A000BF9008951F93CF93DF9380EF92E09093B2
:1028B00084048093830410928504109286041092FD
:1028C000870421E0209388042093890410928A04CD
:1028D00083EF92E09093AB048093AA042093AC041E
:1028E0002093AD041092AE042093AF042093B00463
:1028F0001092B10486EF92E09093D2048093D104B9
:1029000082E08093D3041092D5042093D6042093C0
:10291000D7041092D80489EF92E09093F904809341
:10292000F80483E08093FA041092FE041092FF04EE
:102930008CEF92E09093200580931F0584E08093B4
:1029400021051092250510922605C3E8D4E0CE019A
:102950000E94A401A79685E0C634D807C1F7C3E852
:10296000D4E010E0812F0E9449098250823078F42F
:1029700060E0812F0E94510980914F05857021F000
:10298000CE010E94CD0203C0CE010E9491021F5FC2
:10299000A796153039F7DF91CF911F9108958F9247
:1029A0009F92AF92BF92CF92DF92EF92FF920F93DE
:1029B0001F93CF93DF93EC01062F0E948309081722
:1029C00020F0CE010E948309082F11E0C12CD12CE8
:1029D00076011017A8F4612FCE010E9489094B01DE
:1029E0005C016FEF610FCE010E948909861A970A78
:1029F000A80AB90AC80CD91CEA1CFB1C1F5FE9CF46
:102A0000202F30E040E050E0C701B6010E94FF28CF
:102A1000CA01B901DF91CF911F910F91FF90EF9003
:102A2000DF90CF90BF90AF909F908F90089529E254
:102A300088E190E00FB6F894A895809360000FBEEF
:102A400020936000A895C0E0C530F0F461E080E01C
:102A50000E94040D61E081E00E94040D60E570E0D9
:102A600080E090E00E940F1D60E080E00E94040D75
:102A700060E081E00E94040D60E570E080E090E09D
:102A80000E940F1DCF5FE0CF61E080E00E94040D47
:102A900061E081E00E94040D68EC70E080E090E06D
:102AA0000E940F1D60E080E00E94040D60E081E064
:102AB0000E94040D68EC70E080E090E00E940F1D21
:102AC000C0E0C4CF90916201992339F04AE050E010
:102AD000682F89E196E00C94AE2008950F931F9320
:102AE000CF93DF9310E0812F0E945909853070F059
:102AF00087E193E00E9429058CE193E00E94EB01BD
:102B0000812F0E9462158CE293E039C003E0812F8F
:102B10000E94590961E0680F812F0E94610964E1F8
:102B200070E080E090E00E940F1D812F0E942A0F2C
:102B3000EC0162E370E080E090E00E940F1D812FC5
:102B40000E9459096FEF680F812F0E94610964E1AB
:102B500070E080E090E00E940F1DC938D34198F0EA
:102B60000150A9F687E193E00E9429058CE193E0EA
:102B70000E94EB01812F0E9462158DE393E00E9479
:102B8000EB010E9445051F5F153009F0ACCFDF91C6
:102B9000CF911F910F9108950F931F93CF93DF93C0
:102BA00010E0812F0E946909853070F087E193E081
:102BB0000E9429058CE493E00E94EB01812F0E9482
:102BC00062158CE293E039C003E0812F0E9469090D
:102BD00061E0680F812F0E94710964E170E080E07C
:102BE00090E00E940F1D812F0E94DF0CEC0162E338
:102BF00070E080E090E00E940F1D812F0E94690923
:102C00006FEF680F812F0E94710964E170E080E02E
:102C100090E00E940F1DC131D74298F00150A9F6F3
:102C200087E193E00E9429058CE493E00E94EB0188
:102C3000812F0E9462158DE393E00E94EB010E94B8
:102C400045051F5F153009F0ACCFDF91CF911F9183
:102C50000F9108950E946E150C94CC15CF9314BE5D
:102C600088E10FB6F89480936000109260000FBE68
:102C700081E490E00E94A32980934F0560EA7FE001
:102C800080E090E00E940F1D29E288E190E00FB6FD
:102C9000F894A895809360000FBE20936000A895DB
:102CA00040E051EE60E070E089E196E00E94741F20
:102CB000C8E061E080E00E94040D64E670E080E01E
:102CC00090E00E940F1D61E081E00E94040D64E627
:102CD00070E080E090E00E940F1D60E080E00E94C4
:102CE000040D64E670E080E090E00E940F1D60E05B
:102CF00081E00E94040D64E670E080E090E00E94B4
:102D00000F1DC150B1F6A8950E941208811130C064
:102D10000E94DB090E94270DC0E161E080E00E9473
:102D2000040D64E170E080E090E00E940F1D61E01E
:102D300081E00E94040D64E170E080E090E00E9478
:102D40000F1D60E080E00E94040D64E170E080E00F
:102D500090E00E940F1D60E081E00E94040D64E19C
:102D600070E080E090E00E940F1DC150B1F602C0FB
:102D70000E94270D86E294E00E94000E86E294E015
:102D80000E94D2080E948F08A89580914F058570F7
:102D900011F00E942A160E945214109261011092A2
:102DA0002A048FE794E00E94550C8BE794E00E9480
:102DB000550C10924E0510924A0510924B05109238
:102DC0004C0510924D050E94DD06663875488F4C03
:102DD0009A4530F466E875E88FEC9AE50E946B0638
:102DE000A895CF910895AB01BC0180916201882321
:102DF00031F02AE030E089E196E00C94A1200895BA
:102E0000CF92DF92EF92FF921F93CF93DF93EC016B
:102E100088E593E00E94290510E0CE010E94830915
:102E2000181760F48CE292E00E94EB01612FCE0152
:102E30000E9489090E94F3161F5FEFCF0E9445058B
:102E4000CE010E948309823008F445C080E693E0F9
:102E50000E94290511E0E12EF12CCE010E94830988
:102E6000853028F4CE010E94830990E002C084E0FE
:102E700090E0E816F906CCF4612FCE010E94890992
:102E80006B017C016FEF610FCE010E948909C61AA8
:102E9000D70AE80AF90A8CE292E00E94EB01C70126
:102EA000B6010E94F3161F5FD6CF63E0CE010E94E9
:102EB000CF14683C71058105910520F487E693E005
:102EC0000E94EB01DF91CF911F91FF90EF90DF9077
:102ED000CF900C944505DF91CF911F91FF90EF901B
:102EE000DF90CF9008950F931F93CF93DF9380913E
:102EF00061010E94FA0D882391F08FE794E00E940F
:102F0000550C8091610127E2829FC00111248D57E9
:102F10009B4F0E94F5018FEF809361012DC040E629
:102F20005AEE60E070E08FE794E00E94750C882311
:102F300019F103E814E0C0E0D0E0C8010E942001CC
:102F40008823A1F08FE794E00E94550CC8010E94ED
:102F5000F501CE01880F991F8C0F9D1F855F9B4F38
:102F6000DF91CF911F910F910C9400172196095D6D
:102F70001F4FC530D10509F7DF91CF911F910F91F8
:102F8000089520916201222339F04AE050E0BC010B
:102F900089E196E00C94B5200895909162019923FF
:102FA00029F0682F89E196E00C94AF1F0895AB01DA
:102FB000BC0180916201882331F022E030E089E198
:102FC00096E00C94CE2108950F931F93CF93DF9337
:102FD000CDB7DEB72F970FB6F894DEBF0FBECDBFCB
:102FE000CE0101960E947A0E8AE693E00E9429059E
:102FF000CE0101960E9434130E94450562E370E001
:1030000080E090E00E940F1DCE0109960E94150EEF
:103010008DE693E00E942905CE0109960E94961242
:1030200089E196E00E94B61F62E370E080E090E0E4
:103030000E940F1D8CE892E00E9429050E94200F3B
:103040000E94C11710E080E20E94CD17812F0E94DC
:103050002A0F0E94C1171F5F1530A9F70E9445056E
:1030600062E370E080E090E00E940F1D82E793E051
:103070000E94290510E0812F0E94DF0C0E94C117D9
:1030800080E20E94CD171F5F1530A9F70E94450509
:1030900062E370E080E090E00E940F1D85E793E01E
:1030A0000E9429050E94D70D0E94D71780E20E9436
:1030B000CD170E94CA0D0E94D7170E94450562E3F2
:1030C00070E080E090E00E940F1D89E793E00E948D
:1030D000290510E0812F0E9410090E94C11780E28B
:1030E0000E94CD171F5F1530A9F70E94450562E3C6
:1030F00070E080E090E00E940F1D8FE793E00E9457
:10310000290510E0812F0E94B8089091620199234F
:1031100041F0682F70E04AE050E089E196E00E94BB
:103120006F2080E20E94CD171F5F153059F70E9473
:10313000450562E370E080E090E00E940F1D8CEB9B
:1031400092E00E94290503E814E0C8010E943001C2
:10315000811103C087E893E007C0813019F48BE840
:1031600093E002C081E993E00E94EB01095D1F4FEB
:1031700084E0013D180749F70E9445052F960FB6D8
:10318000F894DEBF0FBECDBFDF91CF911F910F919D
:103190000895CF93C0E089E196E00E94BD1E181605
:1031A00019069CF5C03F88F589E196E00E94CD1E86
:1031B000E0912A0491E09E0F90932A04F0E0E55DEF
:1031C000FB4F8083CF5F903560F010922A0489E135
:1031D00096E00E94BD1E18161906ECF6C03F69F471
:1031E000DACF8A30C1F6E92FF0E0E55DFB4F1082BF
:1031F00010922A040E94DE13CECF89E196E00E944D
:10320000CD1E0A9741F2CF5FE2CFCF910895CF93C1
:10321000DF9380914E05811102C00E947317C3E8AD
:10322000D4E0CE010E941A04A895A79685E0C63482
:10323000D807B9F70E94C91840E65AEE60E070E07E
:103240008BE794E00E94750C882339F08BE794E0BB
:103250000E94550CA8950E94E41780914E05882382
:1032600071F040914A0550914B0560914C05709169
:103270004D0586E495E00E94750C811117C080E031
:103280000E941D0D80914E05882339F080E00E9438
:103290000E0D682F81E00E94040DA89568EC70E087
:1032A00080E090E0DF91CF910C940F1D0E941715E4
:1032B0008091800590E020918105821B91090895FD
:1032C0002091810580918005281750F4E22FF0E0CD
:1032D000EE57FA4F808190E02F5F2093810508958B
:1032E0008FEF9FEF0895E091810580918005E817A9
:1032F00030F4F0E0EE57FA4F808190E008958FEFC0
:103300009FEF08950895CF92DF92EF92FF920F936F
:103310001F93CF93DF937C01CB018A0120915C0541
:10332000222389F0EB016B01C40ED51ECC15DD05FF
:1033300069F06991D701ED91FC910190F081E02D48
:10334000C7010995F3CF642F0E94401BC801DF918C
:10335000CF911F910F91FF90EF90DF90CF90089544
:10336000CF93DF931F92CDB7DEB7698320915C05C1
:103370002223D1F020915D05203240F021E030E0A1
:10338000FC013383228380E090E015C080915E05CC
:10339000E82FF0E0E15AFA4F998190838F5F809394
:1033A0005E0580935D0505C061E0CE0101960E9437
:1033B000401B81E090E00F90DF91CF910895FC01D8
:1033C0001382128248EE53E060E070E0448355833C
:1033D000668377838EED93E09183808308951092C6
:1033E00081051092800510925E0510925D050C9487
:1033F000831A81E080935C0560937F0510925E05DF
:1034000010925D0508950C94F9190F93062F21E091
:1034100040915D056FE575E080917F050E94E91A96
:1034200010925E0510925D0510925C050F91089553
:103430008F929F92AF92BF92CF92DF92EF92FF92C4
:103440000F931F93CF93DF93EC01F62ED42E4801F8
:103450005901EE2019F10E94F9191E2D143008F0BF
:1034600013E01150B8F0E881F98128E0129FB00113
:103470001124A501940104C05695479537952795C9
:103480006A95D2F7CA01B9010190F081E02DCE0111
:103490000995E7CF60E0CE010E94051A4D2D41321B
:1034A00008F040E22C2D62E875E08F2D0E94A11AF1
:1034B0001092810580938005DF91CF911F910F912C
:1034C000FF90EF90DF90CF90BF90AF909F908F9044
:1034D0000895CF92EF920F931F93C22EE12C00E03C
:1034E00010E098010E94181A1F910F91EF90CF9051
:1034F000089521E00C94691A61E00C94051A80E5A6
:1035000095E00C94DF1910920F0681E080930D0670
:1035100010920C0661E082E00E94341E61E083E0BC
:103520000E94341EE9EBF0E080818E7F80838081F1
:103530008D7F808388E48093B80085E48093BC000D
:103540000895413208F043C090910F069111FCCFCD
:1035500091E090930F0620930D062FEF2093A20584
:103560001092E705240F2093E60590930E069091A4
:103570000E06880F892B80930E0680910C068130F1
:1035800061F410920C0680910E068093BB0080912E
:10359000BC0083FDF8CF85EC01C085EE8093BC00B4
:1035A00080910F068130E1F38091E705841710F4D4
:1035B0004091E70528EE35E0FB01D9018A2F821BF7
:1035C000841718F48D918193F9CF842F089580E0AA
:1035D00008950F93413208F04AC090910F0691115F
:1035E000FCCF92E090930F0600930D069FEF90930F
:1035F000A2051092E7054093E605FB0168EE75E031
:10360000DB019A2F961B941718F491919D93F9CF93
:1036100010920E0690910E06880F892B80930E064D
:1036200080910C06813061F410920C0680910E0698
:103630008093BB008091BC0083FDF8CF85EC01C076
:1036400085EE8093BC00222321F080910F0682300A
:10365000E1F38091A2058F3F61F08091A205803255
:1036600051F08091A205803341F483E007C081E0EE
:1036700005C080E003C082E001C084E00F9108959E
:10368000613298F420910F06243089F46093C405C8
:10369000FC0186EC95E0DC012A2F281B261718F484
:1036A00021912D93F9CF80E0089581E0089582E083
:1036B000089585ED8093BC008091BC0084FDFCCF13
:1036C00010920F06089585EC8093BC0010920F06AF
:1036D00008951F920F920FB60F9211242F933F93CC
:1036E0004F935F936F937F938F939F93AF93BF930A
:1036F000EF93FF938091B900887F803609F49EC0D4
:1037000078F5883209F45DC090F4803109F456C030
:1037100038F4882309F4F5C0883009F44FC0F5C0A7
:10372000883109F44EC0803209F45FC0EEC08034A5
:1037300009F46AC058F4803309F457C0883309F09B
:10374000E4C08093A2050E94631BDFC0803509F4AA
:103750004FC0883509F45DC0883409F0D6C0D3C0A5
:10376000883909F4C4C0A8F4883709F467C038F46C
:10377000883609F463C0803709F460C0C6C0883851
:1037800009F4B5C0803909F45FC0803809F0BDC0C4
:103790005BC0803B09F483C038F4803A09F466C00A
:1037A000883A09F47CC0B1C0803C09F4A4C0883CCC
:1037B00009F4A1C0883B09F487C0A7C080910E0618
:1037C00010C09091E7058091E605981770F5E0919B
:1037D000E70581E08E0F8093E705F0E0E851FA4FAE
:1037E00080818093BB0085EC83C08093A2058BC051
:1037F000E091E70581E08E0F8093E7058091BB00A3
:10380000F0E0E851FA4F80839091E7058091E6055A
:103810006BC0E091E70581E08E0F8093E705809112
:10382000BB00F0E0E851FA4F808380910D068111D2
:103830006AC081E080930C0684EA5EC083E08093D6
:103840000F061092A305CFCF8091A305803208F018
:103850004EC0E091A30581E08E0F8093A305809177
:10386000BB00F0E0EC55FA4F8083BDCF0E94631B94
:103870008091A305803230F4E091A305F0E0EC558F
:10388000FA4F10826091A30570E0E0910806F09174
:10389000090684EA95E009951092A30536C084E0F4
:1038A00080930F061092C5051092C405E0910A0698
:1038B000F0910B0609958091C405811105C081E046
:1038C0008093C4051092C605E091C50581E08E0F76
:1038D0008093C505F0E0EA53FA4F80818093BB00E6
:1038E0009091C5058091C405981708F47CCF85E8B0
:1038F0008093BC000AC085EC8093BC0010920F0638
:1039000004C01092A2050E94591BFF91EF91BF9134
:10391000AF919F918F917F916F915F914F913F9167
:103920002F910F900FBE0F901F9018951F920F921E
:103930000FB60F9211242F933F938F939F93AF93C2
:10394000BF938091110690911206A0911306B09139
:1039500014063091100623E0230F2D3720F4019632
:10396000A11DB11D05C026E8230F0296A11DB11DA2
:10397000209310068093110690931206A0931306CD
:10398000B09314068091150690911606A091170623
:10399000B09118060196A11DB11D80931506909354
:1039A0001606A0931706B0931806BF91AF919F918A
:1039B0008F913F912F910F900FBE0F901F901895F0
:1039C0002FB7F8946091110670911206809113063A
:1039D000909114062FBF08953FB7F8948091150673
:1039E00090911606A0911706B091180626B5A89BCF
:1039F00005C02F3F19F00196A11DB11D3FBF6627DD
:103A0000782F892F9A2F620F711D811D911D42E021
:103A1000660F771F881F991F4A95D1F70895CF9297
:103A2000DF92EF92FF92CF93DF936B017C010E94B4
:103A3000EC1CEB01C114D104E104F10489F00E94F3
:103A400024260E94EC1C6C1B7D0B683E734090F397
:103A500081E0C81AD108E108F108C851DC4FEACF6B
:103A6000DF91CF91FF90EF90DF90CF900895789401
:103A700084B5826084BD84B5816084BD85B5826073
:103A800085BD85B5816085BDEEE6F0E08081816011
:103A90008083E1E8F0E01082808182608083808111
:103AA00081608083E0E8F0E0808181608083E1E9EB
:103AB000F0E0808182608083808181608083E0E9A2
:103AC000F0E0808181608083E1ECF0E080818460BF
:103AD0008083808182608083808181608083E3EC49
:103AE000F0E0808181608083E0ECF0E080818260A2
:103AF0008083E2ECF0E0808181608083EAE7F0E09F
:103B00008081846080838081826080838081816005
:103B100080838081806880830895823108F082519B
:103B2000E82FF0E0E653FF4FE49180917B00E3FB48
:103B3000222720F930E095E0220F331F9A95E1F714
:103B40008F7D822B80937B00E7708091630120E45E
:103B5000829FC0011124E82BE0937C0080917A00C1
:103B6000806480937A0080917A0086FDFCCF8091FA
:103B700078002091790090E0922B089590E0FC016C
:103B80003197EF30F105B0F5EA5AFF4F0C94212937
:103B9000809180008F7703C0809180008F7D80931B
:103BA0008000089580918000877FF9CF84B58F775A
:103BB00002C084B58F7D84BD0895809190008F7779
:103BC00007C0809190008F7D03C080919000877F17
:103BD0008093900008958091C0008F7703C08091FA
:103BE000C0008F7D8093C00008958091C200877FC0
:103BF0008093C2000895CF93DF9390E0FC01EB50D7
:103C0000FF4F2491FC01EC5EFE4F8491882349F123
:103C100090E0880F991FFC01E15BFE4FA591B491E4
:103C20008F5B9E4FFC01C591D4919FB7611108C075
:103C3000F8948C91209582238C93888182230AC0EA
:103C4000623051F4F8948C91322F309583238C9309
:103C50008881822B888304C0F8948C91822B8C936A
:103C60009FBFDF91CF9108950F931F93CF93DF9361
:103C70001F92CDB7DEB7282F30E0F901EA52FF4F8F
:103C80008491F901EB50FF4F1491F901EC5EFE4F66
:103C900004910023C9F0882321F069830E94BE1D8E
:103CA0006981E02FF0E0EE0FFF1FEF5BFE4FA59163
:103CB000B4919FB7F8948C91611103C01095812342
:103CC00001C0812B8C939FBF0F90DF91CF911F91EB
:103CD0000F910895CF93DF93282F30E0F901EA5236
:103CE000FF4F8491F901EB50FF4FD491F901EC5E45
:103CF000FE4FC491CC2391F081110E94BE1DEC2F88
:103D0000F0E0EE0FFF1FED5CFE4FA591B4912C91FA
:103D10002D2381E090E021F480E002C080E090E07B
:103D2000DF91CF910895CF93DF931F92CDB7DEB788
:103D30006983DC01ED91FC910280F381E02D41E08B
:103D400050E0BE016F5F7F4F09950F90DF91CF91DB
:103D50000895CF93DF93EC018C859D8597FF05C077
:103D600082E00E94F3229D878C878C859D85DF9160
:103D7000CF91089583E00C946E25FC018485958590
:103D800097FD06C082E00E949B2290E00196089574
:103D900082E00E949B2290E00895FC018485958535
:103DA00097FD05C02FEF3FEF35872487089582E008
:103DB0000C94F322CF93DF93EC0180916F01882361
:103DC00031F083E00E9424231816190634F081E0B4
:103DD00090E09B838A8380E090E0DF91CF9108950B
:103DE000FC0120812E5F208342E450E06DE571E00C
:103DF00080E80C94BF23FC0121818081813A59F431
:103E0000213209F05CC047E050E068E671E080E0F4
:103E10000E94BF2367C0813209F051C0233289F468
:103E2000838190E0982F88273281832BA0E0B0E037
:103E30008093640190936501A0936601B09367013C
:103E40000FC0203239F467E070E088E691E00E940C
:103E5000F0230AC0223221F4828180936F0104C0D2
:103E60002D7F203209F03EC0809168019091690158
:103E7000A0916A01B0916B01803B9440A105B1050E
:103E800001F580916F0180FD1CC080910008909128
:103E900001089093FF0A8093FE0A87E797E79093C3
:103EA0000108809300082BE088E190E00FB6F894B9
:103EB000A895809360000FBE2093600013C080E03F
:103EC000089588E10FB6F894809360001092600026
:103ED0000FBEA8958091FE0A9091FF0A9093010869
:103EE0008093000881E008952FEF3FEFFC013587B4
:103EF0002487089510921C0610921B0688EE93E00A
:103F0000A0E0B0E080931D0690931E06A0931F06CC
:103F1000B09320068EEE93E090931A0680931906D4
:103F20008FEF9FEF909326068093250608956115E5
:103F3000710581F0DB010D900020E9F7AD014150E2
:103F40005109461B570BDC01ED91FC910280F38176
:103F5000E02D099480E090E008950C94971FDC0117
:103F6000ED91FC910190F081E02D09946AEF73E0EE
:103F70000C94971F0F931F93CF93DF93EC010E9434
:103F8000971F8C01CE010E94B61F800F911FDF91F9
:103F9000CF911F910F9108958F929F92AF92BF92F0
:103FA000CF92DF92EF92FF920F931F93CF93DF9305
:103FB000CDB7DEB7A1970FB6F894DEBF0FBECDBF69
:103FC0007C01C42EE52FCB01D22E19A221E02D15A4
:103FD00010F02AE0D22E8E010F5D1F4F8D2C912CF8
:103FE000A12CB12C6C2D7E2FA50194010E94FF28DD
:103FF0008C2DD29E80191124015011098A3014F49D
:10400000805D01C0895CF80180832115310541057F
:10401000510521F0C22EE32FCA01E4CFB801C70138
:104020000E94971FA1960FB6F894DEBF0FBECDBFBA
:10403000DF91CF911F910F91FF90EF90DF90CF9084
:10404000BF90AF909F908F900895CF92DF92EF92A4
:10405000FF920F931F93CF93DF93EC016A017B01D3
:104060002115310579F4E881F9810190F081E02D85
:10407000642FDF91CF911F910F91FF90EF90DF9010
:10408000CF9009942A303105E9F477FF1AC06DE228
:104090000E94AF1F8C0144275527BA014C195D09B6
:1040A0006E097F092AE0CE010E94CC1F800F911F6C
:1040B000DF91CF911F910F91FF90EF90DF90CF9004
:1040C00008952AE0B701A601CE01DF91CF911F919B
:1040D0000F91FF90EF90DF90CF900C94CC1F9A013E
:1040E000AB01662757FD6095762F0C9425200F9322
:1040F0001F93CF93DF93EC019A01AB01662757FD25
:104100006095762F0E9425208C01CE010E94B61F5B
:10411000800F911FDF91CF911F910F9108950F9301
:104120001F93CF93DF93EC010E9425208C01CE01D9
:104130000E94B61F800F911FDF91CF911F910F91A9
:1041400008952115310541F4DC01ED91FC910190B8
:10415000F081E02D642F09940C94CC1F9A01462F16
:1041600050E060E070E00C94A1209A01AB0160E0A7
:1041700070E00C94A1200F931F93CF93DF93EC0179
:104180009A01AB0160E070E00E94A1208C01CE0199
:104190000E94B61F800F911FDF91CF911F910F9149
:1041A00008950F931F93CF93DF93EC010E94A120FA
:1041B0008C01CE010E94B61F800F911FDF91CF911D
:1041C0001F910F9108954F925F926F927F928F92FD
:1041D0009F92AF92BF92CF92DF92EF92FF920F9396
:1041E0001F93CF93DF93EC016A017B01B22E9A01FA
:1041F000AB01C701B6010E94DB28882319F06DEFDF
:1042000073E027C026013701E89477F82FEF3FEFDE
:104210004FE75FE7C301B2010E94DB2881110DC0A7
:104220002FEF3FEF4FE75FE7C301B2010E94252761
:1042300018161CF461E074E00CC02FEF3FEF4FE75D
:104240005FE4C701B6010E9474281816ACF465E05B
:1042500074E0CE01DF91CF911F910F91FF90EF900D
:10426000DF90CF90BF90AF909F908F907F906F9096
:104270005F904F900C94971F2FEF3FEF4FE75FEC4D
:10428000C701B6010E94252787FDE1CF20E030E07D
:10429000A901C701B6010E94252787FF0AC06DE268
:1042A000CE010E94AF1F8C01F7FAF094F7F8F0945A
:1042B00002C000E010E0A12C60E070E080E09FE32D
:1042C000AB1441F020E030E040E251E40E942927A5
:1042D000A394F6CF9B01AC01C701B6010E94C12691
:1042E0006B017C010E9496272B013C010E94C22792
:1042F0009B01AC01C701B6010E94C0266B017C0185
:104300002AE0B301A201CE010E94CC1F080F191FA1
:10431000BB2039F06AE473E0CE010E94971F080FBA
:10432000191F7B2C772041F120E030E040E251E47E
:10433000C701B6010E9478286B017C010E94912779
:104340004B01AA2497FCA094BA2C2AE030E0B501D6
:10435000A401CE010E942520080F191FC501B40138
:104360000E94C4279B01AC01C701B6010E94C02670
:104370006B017C017A94D6CFC801DF91CF911F9158
:104380000F91FF90EF90DF90CF90BF90AF909F90F4
:104390008F907F906F905F904F9008950C94E320E2
:1043A0000F931F93CF93DF93EC010E94E3208C01C6
:1043B000CE010E94B61F800F911FDF91CF911F91F8
:1043C0000F910895615030F02091F100FC0120839D
:1043D0000196F8CF289A84E680937206089540915A
:1043E0006D0650916E0620916B0630916C06421757
:1043F0005307B4F49091E8009570E1F39091E800D0
:1044000092FD19C08093F10080916D0690916E0627
:1044100001968F739927892B19F48EEF8093E8000A
:1044200080916D0690916E06019690936E06809332
:104430006D0681E0089580E00895CF92DF92EF92BB
:10444000FF920F931F93CF93DF931F92CDB7DEB7E9
:10445000082F162FF42E862F880F8E5F99830E94C7
:10446000EF2183E00E94EF21E02EC02E9981D92E0A
:104470008C2D8E19811798F4F601F7FE02C08491F5
:1044800001C080810E94EF21082F80E00E94EF216F
:104490008023FFEFCF1ADF0A8111EACF01C081E04C
:1044A0000F90DF91CF911F910F91FF90EF90DF90D0
:1044B000CF9008958091D70081608093D70080EAE3
:1044C0008093D80089B5806189BD89B5826089BD36
:1044D00009B400FEFDCF61E070E080E090E00E9452
:1044E0000F1D8091D8008F7C80618093D8008091CF
:1044F000E000807F8093E0000895CF93DF931F92C8
:10450000CDB7DEB71982CE0101960E94F01E0E943F
:10451000AC26BE016F5F7F4F0E94252689810F90D8
:10452000DF91CF9108952FB7FC012083F894677035
:104530006093E9000895CF93DF931F92CDB7DEB764
:10454000682FCE0101960E9493228091F2009981FA
:104550009FBF0F90DF91CF910895FF920F931F930C
:10456000CF93DF9300D0CDB7DEB7F62E8A019091BE
:104570007106992311F057FF03C08FEF9FEF2BC0F7
:10458000682FCE0101967A830E9493228091F200D7
:1045900090E0A8017A81801791070CF4AC01EF2D0F
:1045A000F72FF40E84E6FE1639F0289A80937206EF
:1045B0009091F1009193F7CF4115510521F0809131
:1045C000F200882321F089818FBFCA0104C08BE6E5
:1045D0008093E800F8CF0F900F90DF91CF911F915B
:1045E0000F91FF900895CF93DF931F92CDB7DEB761
:1045F00041E050E0BE016F5F7F4F0E94AD22019706
:1046000019F4898190E002C08FEF9FEF0F90DF9146
:10461000CF910895CF93DF931F92CDB7DEB7682F68
:10462000CE0101960E9493229091E800892F80721A
:1046300095FF04C09091F20080E4891B99819FBF8F
:104640000F90DF91CF9108956F927F928F929F92FA
:10465000AF92BF92CF92DF92EF92FF920F931F9390
:10466000CF93DF931F92CDB7DEB7782E7B01C42E98
:10467000B52E80917106882369F0042F152F8AEFDB
:10468000D82E872D8072982E9AE3A92E872D8074BC
:10469000882E11C08FEF9FEF57C0872D0E940A23ED
:1046A000682E81110CC0DA94A9F361E070E080E01B
:1046B00090E00E940F1D0115110579F73BC0282FCE
:1046C00030E0021713070CF4602E672DCE0101961F
:1046D0000E9493228091E80085FF29C0262D30E0BA
:1046E000021B130B992039F06A948FEF6816B1F012
:1046F0001092F100F9CFF701862D77FE07C08150A7
:1047000058F094919093F1003196F9CF815020F0B8
:1047100091919093F100FACFE20EF31E8091E800A0
:1047200085FF0FC00115110511F481100AC08981A0
:104730008FBFC1CF5D9A84E6809373068C2D9B2D2D
:1047400003C0A092E800F3CF0F90DF91CF911F91AB
:104750000F91FF90EF90DF90CF90BF90AF909F9020
:104760008F907F906F9008951092E90010926E06DE
:1047700010926D0690936C0680936B060895CF920D
:10478000DF92FF920F931F93CF93DF9300D0CDB7AB
:10479000DEB7F82E8A016B0101151105B1F0F601A3
:1047A000F7FE02C0849101C0808149835A830E9430
:1047B000EF2101501109FFEFCF1ADF0A49815A8119
:1047C0008111EACF8FEF9FEF01C0CA010F900F90C8
:1047D000DF91CF911F910F91FF90DF90CF900895BF
:1047E0001F93CF93DF931F92CDB7DEB7162F209183
:1047F000E80022FFFCCF612F79830E94E2218BEF3A
:104800008093E800812F7981972F0F90DF91CF91CE
:104810001F9108951F920F920FB60F921124DF92ED
:10482000EF92FF920F931F932F933F934F935F93BA
:104830006F937F938F939F93AF93BF93EF93FF9368
:10484000CF93DF93CDB7DEB76C97DEBFCDBF1092AD
:10485000E9008091E80083FF23C168E0CE0145961E
:104860000E94E22182EF8093E8003D8937FF05C076
:104870008091E80080FFFCCF03C08EEF8093E800BA
:10488000832F807609F0F0C02E894F89D88C2111B2
:104890000CC0303829F4809170068093F10002C07A
:1048A0001092F1001092F100F4C0842F90E09D2945
:1048B000213049F43111EDC0019709F0EAC080912F
:1048C00070068D7F0AC0233059F43111E2C0019780
:1048D00009F0DFC080917006826080937006D9C0B5
:1048E000253041F48091E80080FFFCCF4068409380
:1048F000E300CFC0263009F08DC0EB8CFC8C22E0A9
:10490000D2122CC080E090E00E94B4230E947D224D
:1049100099E08E010F5F1F4FF801292F11922A9500
:10492000E9F79983DA8291E09E8390EA98879AEF7B
:10493000998720916D0630916E06275F3F4F3C832B
:104940002B838D83C7010E94B42349E050E0B80156
:1049500080E00E94BF230E947D229BC0C7010E946D
:10496000B4230E94AC26BE016B5E7F4F0E944E2690
:10497000009719F00CF08DC090C081E0D8120EC0E5
:104980008B8D9C8D089719F481E080936A06809145
:104990006A0681112FC061EB71E031C0E3E0DE12E5
:1049A0007CC08F89882349F1823029F440E86DE08A
:1049B0008FEC91E01CC0813029F440E86BE083EC7F
:1049C00091E015C0833009F068C00E94AC268E01CA
:1049D0000F5F1F4FB8010E946D26F8010190002063
:1049E000E9F73197E01BF10B40E06E2FC8010E9400
:1049F0001D224DC06FE971E002C06DED71E06115DF
:104A0000710509F44AC0FB01449150E080E80E941E
:104A1000BF233FC0273009F440C0283021F481E093
:104A20008093F10036C02930A1F53370B1F5E1E78C
:104A3000F1E081E021E036E39081992361F08093F9
:104A4000E9002093EB0091919093EC003093ED00FE
:104A50008F5F873089F78EE78093EA001092EA0033
:104A60008F898093710615C08B8D9C8D0E94B42315
:104A7000898D811105C0CE0145960E94FB1E07C09D
:104A80000E94AC26BE016B5E7F4F0E948C2688235D
:104A900021F08EEF8093E80003C081E28093EB0069
:104AA0006C960FB6F894DEBF0FBECDBFDF91CF91ED
:104AB000FF91EF91BF91AF919F918F917F916F91F6
:104AC0005F914F913F912F911F910F91FF90EF9028
:104AD000DF900F900FBE0F901F9018958093E90004
:104AE0008091F200882319F08AE38093E80008950A
:104AF0001F920F920FB60F9211242F933F934F9353
:104B00005F936F937F938F939F93AF93BF93CF9355
:104B1000EF93FF93C091E1008091E100837F809348
:104B2000E1008093E100C3FF0FC01092E90081E033
:104B30008093EB001092EC0082E38093ED001092E2
:104B4000710688E08093F000C2FF19C083E00E94E4
:104B50006E2580917306882339F080917306815009
:104B600080937306882389F180917206882339F037
:104B700080917206815080937206882341F1C4FFB0
:104B800010C08091E2008E7E81608093E20080916F
:104B9000E1008F7E8093E10080916F068E7E8061C0
:104BA00011C0C0FF16C08091E2008E7E80618093AC
:104BB000E2008091E1008E7E8093E10080916F069B
:104BC0008E7E816080936F0604C05D98CDCF28985B
:104BD000D6CFFF91EF91CF91BF91AF919F918F91E0
:104BE0007F916F915F914F913F912F910F900FBEE9
:104BF0000F901F90189510927106109270061092E7
:104C00006F060E945A22E1EEF0E080818E7E808362
:104C10008DE08093E200559A209A5D982898089537
:104C200008950E94371D0E94102689E696E00E9492
:104C3000FB250E942E16C0E0D0E00E9407192097A5
:104C4000E1F30E940000F9CF0895EF92FF920F93D5
:104C50001F93CF93DF937B01FC01C281D38100E0DE
:104C600010E0209781F0E881F9810280F381E02D46
:104C7000B701CE01099597FD08C0080F191F0884D8
:104C8000D985C02DEECFC80102C08FEF9FEFDF9115
:104C9000CF911F910F91FF90EF9008950F931F9365
:104CA000CF93DF938B01FC01C281D381209771F0F8
:104CB000E881F9810480F581E02DB801CE010995E4
:104CC000009731F40884D985C02DF0CF80E090E0C2
:104CD000DF91CF911F910F9108950F931F93CF9361
:104CE000DF938B01FC01C281D381209771F0E881B1
:104CF000F9810680F781E02DB801CE010995080FF2
:104D0000111D0884D985C02DF0CFF8011082DF91E4
:104D1000CF911F910F9108950F931F93CF93DF931E
:104D20008B01FC01C281D381209771F0E881F98168
:104D30000190F081E02DB801CE010995811106C0E6
:104D40000884D985C02DF0CF80E001C081E0DF91DB
:104D5000CF911F910F9108958091780681110DC018
:104D600082E08093740684E0809375061092770643
:104D70001092760681E08093780684E796E00895A5
:104D80005058BB27AA270ED075C166D130F06BD121
:104D900020F031F49F3F11F41EF45BC10EF4E09556
:104DA000E7FB51C1E92F77D180F3BA176207730788
:104DB0008407950718F071F49EF58FC10EF4E09505
:104DC0000B2EBA2FA02D0B01B90190010C01CA01C5
:104DD000A0011124FF27591B99F0593F50F4503E70
:104DE00068F11A16F040A22F232F342F4427585F62
:104DF000F3CF469537952795A795F0405395C9F77A
:104E00007EF41F16BA0B620B730B840BBAF0915031
:104E1000A1F0FF0FBB1F661F771F881FC2F70EC0D0
:104E2000BA0F621F731F841F48F4879577956795A3
:104E3000B795F7959E3F08F0B3CF9395880F08F08C
:104E40009927EE0F979587950895D9D008F481E0BA
:104E500008950CD00FC107D140F0FED030F021F4FE
:104E60005F3F19F0F0C0511139C1F3C014D198F36C
:104E70009923C9F35523B1F3951B550BBB27AA27DB
:104E800062177307840738F09F5F5F4F220F331F4D
:104E9000441FAA1FA9F333D00E2E3AF0E0E830D019
:104EA00091505040E695001CCAF729D0FE2F27D01C
:104EB000660F771F881FBB1F261737074807AB07EA
:104EC000B0E809F0BB0B802DBF01FF2793585F4F5F
:104ED0002AF09E3F510568F0B6C000C15F3FECF379
:104EE000983EDCF3869577956795B795F7959F5F24
:104EF000C9F7880F911D9695879597F90895E1E078
:104F0000660F771F881FBB1F621773078407BA07D6
:104F100020F0621B730B840BBA0BEE1F88F7E09531
:104F2000089504D06894B111D9C00895BCD088F018
:104F30009F5790F0B92F9927B751A0F0D1F0660F85
:104F4000771F881F991F1AF0BA95C9F712C0B130A0
:104F500081F0C3D0B1E00895C0C0672F782F8827B3
:104F6000B85F39F0B93FCCF3869577956795B395DF
:104F7000D9F73EF490958095709561957F4F8F4F4E
:104F80009F4F0895E89409C097FB3EF49095809553
:104F9000709561957F4F8F4F9F4F9923A9F0F92FFF
:104FA00096E9BB279395F695879577956795B7957D
:104FB000F111F8CFFAF4BB0F11F460FF1BC06F5F63
:104FC0007F4F8F4F9F4F16C0882311F096E911C075
:104FD000772321F09EE8872F762F05C0662371F096
:104FE00096E8862F70E060E02AF09A95660F771FAA
:104FF000881FDAF7880F9695879597F90895990F86
:105000000008550FAA0BE0E8FEEF16161706E80792
:10501000F907C0F012161306E407F50798F0621BB3
:10502000730B840B950B39F40A2661F0232B242B88
:10503000252B21F408950A2609F4A140A6958FEFA7
:10504000811D811D089597F99F6780E870E060E0F9
:1050500008959FEF80EC089500240A941616170611
:1050600018060906089500240A9412161306140659
:1050700005060895092E0394000C11F4882352F0BC
:10508000BB0F40F4BF2B11F460FF04C06F5F7F4F74
:105090008F4F9F4F089557FD9058440F551F59F05B
:1050A0005F3F71F04795880F97FB991F61F09F3F15
:1050B00079F087950895121613061406551FF2CF3E
:1050C0004695F1DF08C0161617061806991FF1CF8E
:1050D00086957105610508940895E894BB276627B5
:1050E0007727CB0197F908958ADF08F48FEF0895A9
:1050F0000BD0C0CFB1DF28F0B6DF18F0952309F050
:10510000A2CFA7CF1124EACFC6DFA0F3959FD1F39A
:10511000950F50E0551F629FF001729FBB27F00D65
:10512000B11D639FAA27F00DB11DAA1F649F6627BA
:10513000B00DA11D661F829F2227B00DA11D621F09
:10514000739FB00DA11D621F839FA00D611D221FC3
:10515000749F3327A00D611D231F849F600D211DA7
:10516000822F762F6A2F11249F5750408AF0E1F04A
:1051700088234AF0EE0FFF1FBB1F661F771F881F93
:1051800091505040A9F79E3F510570F05CCFA6CFDB
:105190005F3FECF3983EDCF3869577956795B7957E
:1051A000F795E7959F5FC1F7FE2B880F911D9695A8
:1051B000879597F9089523DF880B990B0895991B1C
:1051C00079E004C0991F961708F0961B881F7A95FE
:1051D000C9F78095089597FB072E16F4009407D021
:1051E00077FD09D00E94502907FC05D03EF4909528
:1051F00081959F4F0895709561957F4F0895A1E225
:105200001A2EAA1BBB1BFD010DC0AA1FBB1FEE1F40
:10521000FF1FA217B307E407F50720F0A21BB30B8B
:10522000E40BF50B661F771F881F991F1A9469F707
:1052300060957095809590959B01AC01BD01CF0163
:105240000895EE0FFF1F0590F491E02D0994A29FA1
:10525000B001B39FC001A39F700D811D1124911D4A
:10526000B29F700D811D1124911D08950E94272960
:10527000B7FF0895821B930B08950E942729A59FCD
:10528000900DB49F900DA49F800D911D1124089541
:10529000B7FF0C943D290E943D29821B930B089572
:1052A000AA1BBB1B51E107C0AA1FBB1FA617B7074C
:1052B00010F0A61BB70B881F991F5A95A9F7809568
:1052C0009095BC01CD010895FC0188279927E894A9
:1052D00021912032E9F3293010F02E30C8F32B321F
:1052E00041F02D3239F4689404C00E949B29820F4A
:1052F000911D219120532A30C0F31EF49095819581
:105300009F4F0895803209F0911133C080528F551C
:10531000E0F7089591112DC0803219F08950855021
:10532000D0F70895FB01DC018D91019080190110E7
:10533000D9F3990B08957AE0979F902D879F802D40
:10534000910D11240895F999FECF92BD81BDF89A6F
:10535000992780B50895262FF999FECF1FBA92BDDF
:1053600081BD20BD0FB6F894FA9AF99A0FBE019646
:0C5370000895992788270895F894FFCF2E
:10537C000194033D0F9701DA109803C4109E03F6B5
:10538C0010C60338116A0367138C02490F89026D2A
:10539C000F7503A90FA303F0117203970F6D03DFB1
:1053AC0012A603C611A903850FAC03CB0FAF03F3F1
:1053BC000FB6031B10BE0386115C036711C403C038
:1053CC0010CC034310D2035F10D60352120000001E
:1053DC0000FF0101FFFFFFFF00E1000000000000E3
:1053EC0000C180810000007072696D617279007378
:1053FC0065636F6E64617279007374617274696E47
:10540C0067200073746F7070696E67006B696C6CE9
:10541C00696E67007374617274696E672074696D6C
:10542C00656F75740063757272656E74206E6F7241
:10543C006D616C0063757272656E74206C6F7700B1
:10544C0063757272656E7420686967680063757243
:10545C0072656E742073747265737365640068652D
:10546C00617274626561742074696D656F75740026
:10547C00756E6D616E6167656420737769746368BE
:10548C000073746F702074696D656F757400686556
:10549C0061727462656174006C6F673A2000A1AD33
:1054AC00A1AD1F1C1F1E1F1E1F1F1E1F1E1F01151F
:1054BC0062686A636B00000102030507160B170490
:1054CC0006080A0C0D0974656D706572617475724D
:1054DC00653D0068756D69646974793D0068772075
:1054EC00006B6572200074696D652000676974201B
:1054FC000036376230006F6E0068620063750057CB
:10550C0044524600424F52460045585452460050B1
:10551C004F52460073657420736400736574206584
:10552C006D6D6300696E76616C6964206D6564698C
:10553C0061003F00696E76616C6964206D6F646513
:10554C00003C3C3C2D207369643D00696E76616CB7
:10555C00696420636F6D6D616E64002D3E3E3E008C
:10556C006E6300676E0063730078310078320062FE
:10557C0061636B6F6666006261636B696E67206F57
:10558C006666206F662000706F73740063757272AC
:10559C00656E742073656E736F72200020746F6F6C
:1055AC00206D616E79206661756C747300206F7567
:1055BC0074206F662072616E67652E007468657268
:1055CC006D6973746F722000626F6F746C6F67001B
:1055DC00626F6F74647400202100696400646174EC
:1055EC006500746800656E76006661696C730065B1
:1055FC006E61626C65640073642000656D6D632080
:10560C00003F2000727463007374617274007374D1
:10561C006F700062730062660066630075700065EF
:10562C006E61626C650064697361626C65007761C0
:10563C00746368006565726573657400626F6F747E
:10564C00730076657200626C660000000000B01991
:10565C008319581960197319821900000000931EE0
:10566C00DA1EBD1ECD1EA91EBA1E0D0A006E616E7D
:0A567C0000696E66006F766600009C
:00000001FF
