:100000000C94DA000C9402010C9402010C9402018D
:100010000C9402010C9402010C9402010C94020154
:100020000C9402010C9402010C947A150C94E915BD
:100030000C9402010C9402010C9402010C94020134
:100040000C9402010C9402010C9402010C94020124
:100050000C9484190C9402010C9402010C941B184A
:100060000C9402010C9402010C9402010C94020104
:100070000C9402010C9402010C9402010C940201F4
:100080000C9402010C9402010C9402010C940201E4
:100090000C9465180C9402010C9402010C9402015A
:1000A0000C9402010C9402010C9402010706050451
:1000B0000100080A0B0C0D090000000024002700B5
:1000C0002A002D00300000000000250028002B0031
:1000D0002E003100000000002300260029002C0023
:1000E0002F000404040404030405020202020403B2
:1000F00002020202060606060606040402020204C2
:100100000404080201104080401020408040800814
:100110000204018040201002011080102040402085
:100120000000000200090F0000030401000C0000A1
:1001300000000000000000000000000000000008B7
:100140000B0002020201000904000001020200008B
:1001500005240010010524010101042402060524E0
:100160000600010705810310004009040100020A8E
:10017000000000070502024000000705830240005E
:10018000000403090412010002EF02014041233779
:100190008000010102030141726475696E6F204C99
:1001A0004C430041726475696E6F204D6963726FD4
:1001B0000000C81911241FBECFEFDAE0DEBFCDBFAB
:1001C00014E0A0E0B1E0EEEDF9E402C005900D927C
:1001D000AE31B107D9F726E0AEE1B4E001C01D921F
:1001E000A139B207E1F710E0CAEDD0E004C02197D1
:1001F000FE010E948C24C93DD107C9F70E94061A4E
:100200000C94ED240C94000091E0909325068093CB
:10021000240610922306109222060895982F20910A
:10022000220681E0213208F043C08091010681114D
:10023000FCCF8091240632E03093010690930006B3
:100240009FEF9093FF051092FE052093FD05A2E01D
:10025000B6E0EDEDF5E090E0291331C01092DC0539
:100260009091DC05880F892B8093DC058091DB055C
:10027000813049F51092DB058091DC058093BB004D
:100280008091BC0083FDF8CF85EC8093BC00809109
:1002900001068230E1F38091FF058F3FB1F080913C
:1002A000FF058032A1F08091FF05803391F084E05A
:1002B00010922306109222061092250608953D9171
:1002C00031939F5FC9CF85EEE0CF80E0F1CF82E030
:1002D000EFCF83E0EDCF9091BA058091B9052FEF74
:1002E0003FEF981748F4E92FF0E0E554FA4F2081EA
:1002F00030E09F5F9093BA05C90108959091BA05C7
:100300008091B9052FEF3FEF981748F4E92FF0E0FF
:10031000E554FA4F208130E09F5F9093BA05C90100
:10032000089581E00C940E018091B9059091BA0571
:10033000891B990B089508950895FC018091B405D7
:10034000882311F13FB7F89482E08093E90020916F
:10035000F200822F90E01816190614F481E090E064
:10036000882339F0289A44E64093B3054091F10080
:100370004083222339F02091F200211103C02BE6A3
:100380002093E8003FBF08958FEF9FEF08952FB7A8
:10039000F89483E08093E9009091E800892F8072BF
:1003A00095FF04C09091F20080E4891B2FBF08954F
:1003B0008091AB0581110DC082E08093A70584E098
:1003C0008093A8051092AA051092A90581E0809358
:1003D000AB0587EA95E0089540917204509173044B
:1003E000209170043091710442175307B4F4909136
:1003F000E8009570E1F39091E80092FD19C08093B8
:10040000F100809172049091730401968F73992783
:10041000892B19F48EEF8093E800809172049091FB
:1004200073040196909373048093720481E008959D
:1004300080E00895EF92FF920F931F93CF93DF9385
:10044000F82E192FE62E042F81E0860F880F0E94C8
:10045000EC0183E00E94EC01CF2DD12FEC0EFD2E9C
:10046000F11CCE15DF05B9F007FF13C0FE01849122
:100470000E94EC01182F80E00E94EC01812321965C
:100480008111EFCFDF91CF911F910F91FF90EF90EE
:1004900008958881EDCF81E0F5CFDF92EF92FF9252
:1004A0000F931F93CF93DF93D82E8A01EB017B012B
:1004B000E40EF51ECE15DF0559F0D7FE12C0FE0181
:1004C00084910E94EC0121968111F4CF0FEF1FEF70
:1004D000C801DF91CF911F910F91FF90EF90DF90B6
:1004E00008958881EECF0F931F93CF93DF931F92D0
:1004F000CDB7DEB782E0898342E450E06FE371E07C
:1005000080E80E944D020E94D801DC0112960D91F4
:100510001C910115110589F0D801ED91FC91028023
:10052000F381E02DBE016F5F7F4FC801099597FDF4
:1005300004C0F80100851185ECCF89810F90DF910F
:10054000CF911F910F910895615030F02091F100EB
:10055000FC0120830196F8CF289A84E68093B305A6
:100560000895CF93DF931F92CDB7DEB76983DC0187
:10057000ED91FC910280F381E02D41E050E0BE015D
:100580006F5F7F4F09950F90DF91CF910895682F8E
:1005900086E296E00C94B10280910E01882319F056
:1005A00080E20C94C702089583E08093E900809173
:1005B000F200882319F08AE38093E80008950E94EE
:1005C000C70190E00895CF93DF931F92CDB7DEB7B8
:1005D000FC018485958597FD08C02FEF3FEF358797
:1005E00024870F90DF91CF910895CE0101960E944C
:1005F0009D01019719F4898190E0F3CF8FEF9FEF70
:10060000F0CF0F931F93CF93DF931F92CDB7DEB739
:100610008C01FC018485958597FF0BC0CE01019666
:100620000E949D01019771F4898190E0F8019587FE
:100630008487F801848595850F90DF91CF911F9174
:100640000F9108958FEF9FEFF1CFFC018485958581
:1006500097FD0BC09FB7F89482E08093E9008091EA
:10066000F2009FBF90E0019608959FB7F89482E052
:100670008093E9008091F2009FBF90E0089581503F
:100680008F3008F047C0E82FF0E0E75BFC4F0C9498
:100690008C2466036A0358035E0362038A038A0399
:1006A0008A036D03730377037B0381038A03850346
:1006B000809180008F7780938000089580918000E2
:1006C0008F7DF9CF80918000877FF5CF84B58F77BC
:1006D00084BD089584B58F7DFBCF809190008F7786
:1006E000809390000895809190008F7DF9CF809144
:1006F0009000877FF5CF8091C0008F778093C000F6
:1007000008958091C0008F7DF9CF8091C200877FCE
:100710008093C2000895CF93DF93282F30E0F90132
:10072000E05EFE4F8491F901EF5FFE4FD491F90135
:10073000EE51FF4FC491CC23A1F081110E943F03E1
:10074000EC2FF0E0EE0FFF1FEC52FF4FA591B4919C
:10075000EC91ED2381E090E009F480E0DF91CF910E
:10076000089580E090E0FACF1F93CF93DF93282F76
:1007700030E0F901E05EFE4F8491F901EF5FFE4F3A
:10078000D491F901EE51FF4FC491CC23A9F0162F5B
:1007900081110E943F03EC2FF0E0EE0FFF1FEA53A0
:1007A000FF4FA591B4918FB7F894EC91111108C047
:1007B000D095DE23DC938FBFDF91CF911F910895F9
:1007C000DE2BF8CF1092BA051092B90510922306CD
:1007D000109222061092010681E08093000610928A
:1007E000DB0561E082E00E94B40361E083E00E94E7
:1007F000B403E9EBF0E080818E7F808380818D7F80
:10080000808388E48093B80085E48093BC008BE902
:1008100091E09093B8058093B7058CE991E09093AF
:10082000B6058093B5050895CF93DF9390E0FC0162
:10083000EF5FFE4F24918E519F4FFC0184918823DE
:10084000D1F090E0880F991FFC01E854FF4FA5916B
:10085000B491FC01EA53FF4FC591D491623071F419
:100860009FB7F8943C91822F809583238C93E881E5
:100870002E2B28839FBFDF91CF9108958FB7F894D7
:10088000EC912E2B2C938FBFF6CF3FB7F89480912D
:100890006C0490916D04A0916E04B0916F0426B524
:1008A000A89B05C02F3F19F00196A11DB11D3FBFA8
:1008B000BA2FA92F982F8827BC01CD01620F711D77
:1008C000811D911D42E0660F771F881F991F4A9571
:1008D000D1F708958F929F92AF92BF92CF92DF92FD
:1008E000EF92FF924B015C010E9445046B017C0179
:1008F0000E9445046C197D098E099F09683E73406A
:1009000081059105A8F321E0821A9108A108B10898
:1009100088EEC80E83E0D81EE11CF11C81149104FE
:10092000A104B10429F7FF90EF90DF90CF90BF9022
:10093000AF909F908F9008958F929F92AF92BF92A9
:10094000CF92DF92EF92FF920F931F93CF93DF939B
:100950006C017B018A0180910B01882309F45CC042
:100960008091B405882309F457C08091760480FFF4
:1009700005C08091E00082608093E000E801B12C26
:100980008AEFA82E93E0892E2AE3922E209711F465
:10099000BB20D9F10E94C70181110AC0AA94AA20E4
:1009A000D9F161E070E080E090E00E946A04EECF4F
:1009B0008C171D0611F00CF08C2F9FB7F8948092C5
:1009C000E9002091E80025FD02C09FBFDFCF282F5E
:1009D00030E0C21BD30BF701815020F041914093CE
:1009E000F100FACFE20EF31EBB2021F09092E80056
:1009F000B12CEBCF8091E80085FDE7CF9092E80025
:100A0000BB24B394209709F3F3CF5D9A84E68093D7
:100A10007504101611063CF081E090E0F601938316
:100A2000828310E000E0C801DF91CF911F910F9108
:100A3000FF90EF90DF90CF90BF90AF909F908F90FE
:100A4000089585ED8093BC008091BC0084FDFCCFAF
:100A500010920106089520914404260F3327331F76
:100A600021323105ECF420910106FC0190E080E098
:100A7000243069F082E00895A09144042191AC01F2
:100A80004C5D5B4FA40FB52FB11D2C9301968617BB
:100A900098F380914404680F6093440480E00895C3
:100AA00081E008950895E091BA058091B905E817AD
:100AB00030F4F0E0E554FA4F808190E008958FEF34
:100AC0009FEF0895CF92DF92EF92FF920F931F93C3
:100AD000CF93DF937C01CB018A012091250622234D
:100AE00089F0EB016B01C40ED51ECC15DD0569F054
:100AF0006991D701ED91FC910190F081E02DC70142
:100B00000995F3CF642F0E942B05C801DF91CF9187
:100B10001F910F91FF90EF90DF90CF900895CF93AA
:100B2000DF931F92CDB7DEB769832091250622237C
:100B3000F9F020912206203258F021E030E0FC014B
:100B40003383228390E080E00F90DF91CF9108956E
:100B500080912306E82FF0E0EE5FF94F99819083B2
:100B60008F5F809323068093220681E090E0ECCF94
:100B700061E0CE0101960E942B05F7CF682F85E832
:100B800096E00C948F0590E080E00895E82FF0E067
:100B9000E456FE4F80810C94B403823098F46623AF
:100BA00019F0613049F00895E82FF0E0E15DFE4F63
:100BB00060E080810C94B403E82FF0E0E15DFE4F2B
:100BC00061E0F7CF0895CF93853088F5C62F811166
:100BD00028C060E00E94B40362E370E080E090E02F
:100BE0000E946A046C2F84E00E94B40362E370E008
:100BF00080E090E00E946A0461E080E00E94B4031B
:100C000062E370E080E090E00E946A0460E080E0CF
:100C10000E94B40362E370E080E090E0CF910C9416
:100C20006A04E82FF0E0EB5DFE4F8081F1CFCF91B9
:100C300008950F931F93EFB7F894009168041091F3
:100C4000690420916A0430916B04EFBFFC0180813C
:100C50009181A281B381081B190B2A0B3B0B81E008
:100C6000401751076207730708F080E01F910F914A
:100C700008952FB7F89440916804509169046091E9
:100C80006A0470916B042FBFFC014083518362831F
:100C9000738308954F925F926F927F928F929F928B
:100CA000AF92BF92CF92DF92EF92FF920F931F937A
:100CB000CF93DF93FC011681A12FB0E020E833E34E
:100CC00041EE51E00E94A8244B015C01C2EBD7E049
:100CD0009D0104E610E080E9E82EFF24F394CE01A4
:100CE000825B9740821793079CF14580512C2E54CC
:100CF000384FC90164E670E00E9456247C01C901A6
:100D000060E971E00E9456246C010FE011E0C1E03F
:100D1000D0E0390183E068227724C415D5050CF0B2
:100D200040C0C230D10571F56114710459F5E11468
:100D3000F10419F4C114D10429F5B0E88B0EBBE31A
:100D40009B1EB6E2AB1EB11C21960F5F1F4FE5CF75
:100D5000CE0183709927892B99F4CE01B8010E94A6
:100D60005624892B31F4CE01B7010E945624892BD9
:100D700039F4A0E88A0EA1E59A1EA1E0AA1EB11CD2
:100D80002196ADCFD8018C91A82FB0E020E831E5B5
:100D900041E050E00E94A824860E971EA81EB91EAE
:100DA000D3CF228130E0A0E1BEE00E9492246B010B
:100DB0007C01218130E0ACE3B0E00E949224C60EB9
:100DC000D71EE81EF91E8081C80ED11CE11CF11C43
:100DD000A481A150BB0B20E831E541E050E00E9426
:100DE000B3246C0D7D1D8E1D9F1D680D791D8A1D00
:100DF0009B1DDF91CF911F910F91FF90EF90DF909E
:100E0000CF90BF90AF909F908F907F906F905F90AA
:100E10004F9008956F927F928F929F92AF92BF9260
:100E2000CF92DF92EF92FF920F931F93CF93DF93B6
:100E30006B017C01EA018CE3882E912CA12CB12C52
:100E4000C701A50194010E946A246883CA01B901FF
:100E5000A50194010E946A246983C701B60120E1BB
:100E60003EE040E050E00E946A24CA01B90128E156
:100E700030E040E050E00E946A246A83C701B60176
:100E800020E831E541E050E00E946A2469017A01DE
:100E9000CA01B9016C5F7F4F8F4F9F4F27E030E051
:100EA00040E050E00E946A246F5F6B83812C912C9C
:100EB000540140E094E6692E712C00E911E0242FE2
:100EC00030E02E54384FF901E370FF273097F9F4E2
:100ED000C901B3010E945624892B31F4C901B8011C
:100EE0000E945624892B99F48EE691E0A0E0B0E0B0
:100EF000880E991EAA1EBB1ED501C401AA27BB27B6
:100F0000C816D906EA06FB0638F04F5FD8CF8DE643
:100F100091E0A0E0B0E0ECCF4E83C90164E670E060
:100F20000E9456248C01C90160E971E00E94562498
:100F3000309729F401151105E1F40097D1F04DE641
:100F400051E060E070E0841A950AA60AB70AC81852
:100F5000D908EA08FB08AFE0B1E020E0213071F4E5
:100F6000309791F50115110511F4009769F54DE1E0
:100F700006C04EE651E060E070E0E5CF4C9150E0F5
:100F800070E060E031E0320FC416D506E606F706E1
:100F900040F0C41AD50AE60AF70A1196232F3C300E
:100FA000E9F62F5F2D83C394CC82DF91CF911F91FF
:100FB0000F91FF90EF90DF90CF90BF90AF909F90F8
:100FC0008F907F906F9008954CE1D9CF282F30E01B
:100FD00094E0359527959A95E1F7922F990F990FFF
:100FE000291B220F820F08951F93CF93DF93EC01EB
:100FF0008FE60E94040160E085E896E00E948F057C
:1010000060E085E896E00E948F0529811AE0822F32
:10101000612F0E944A24682F660F680F660F620FC7
:1010200085E896E00E948F052A81822F612F0E9419
:101030004A24682F660F680F660F620F85E896E0F6
:101040000E948F058B81886090E00E94BE052C81F4
:10105000822F612F0E944A24682F660F680F660F47
:10106000620F85E896E00E948F052D81822F612F07
:101070000E944A24682F660F680F660F620F85E88A
:1010800096E00E948F052E812E51822F612F0E94A3
:101090004A24682F660F680F660F620F85E896E096
:1010A0000E948F050E9491018FE60E94040160E07A
:1010B00085E896E00E948F052881822F612F0E948B
:1010C0004A24982F880F890F880F820F806890E03C
:1010D0000E94BE05DF91CF911F910C9491011F9347
:1010E000CF93DF93EC01162F43960E943906CE0171
:1010F00047960E943906CE014B960E943906CE01D2
:101100000F960E9439061A87DF91CF911F9108959B
:10111000909101069111FCCF262F91E0909301064A
:10112000909300063FEF3093FF051092FE05360FB7
:101130003093FD059093DC059091DC05880F892B99
:101140008093DC058091DB05813019F51092DB0579
:101150008091DC058093BB008091BC0083FDF8CFBB
:1011600085EC8093BC00809101068130E1F3809191
:10117000FE05861710F42091FE05ADEDB5E0EBEB12
:10118000F5E080E0821307C01092BA058093B9059C
:10119000089585EEE6CF9D9191938F5FF3CF8F9267
:1011A0009F92AF92BF92CF92DF92EF92FF920F93F6
:1011B0001F9380E40E94040185EF90E00E94BE0529
:1011C0000E94910167E370E080E090E00E946A0471
:1011D00063E070E080E490E00E94880814E680916B
:1011E000B9059091BA05891B990B0397E4F465E062
:1011F00070E080E090E00E946A04115081F760E0A6
:1012000070E889E794E41F910F91FF90EF90DF90D1
:10121000CF90BF90AF909F908F90089560E070EC5A
:1012200089E794E4F0CF0E947E01082F0E947E019E
:10123000182F0E947E0160E0702F612B8B0130E03F
:1012400020E0322F212F102F00276801C82AD90152
:10125000C60127E130E0C12C40E8D42E48E9E42E55
:10126000F12C4C015D01022E04C0B694A794979412
:1012700087940A94D2F780FE04C08C259D25AE2564
:10128000BF25F694E794D794C794215031092730AD
:10129000310539F78111C2CF6C7F90E080E00E9468
:1012A0002123B1CF8F929F92AF92BF92CF92DF92C4
:1012B000EF92FF920F931F93CF93DF9380E40E94EE
:1012C000040183EF90E00E94BE050E94910167E354
:1012D00070E080E090E00E946A0463E070E080E4E7
:1012E00090E00E948808C5E6D0E08091B905909111
:1012F000BA05891B990B03976CF461E070E080E0FC
:1013000090E00E946A04219781F760E070E889E725
:1013100094E43FC00E947E01D82F0E947E01C82F16
:101320000E947E0120E03D2F2C2BA90170E060E09F
:10133000762F652F542F44277A01E82ADB01C70155
:1013400047E150E0C12CF0E8DF2EF8E9EF2EF12C58
:101350004C015D01042E04C0B694A7949794879421
:101360000A94D2F780FE04C08C259D25AE25BF25AA
:10137000F694E794D794C7944150510947305105EA
:1013800039F7811113C02C7FB90190E080E00E94F1
:101390002123DF91CF911F910F91FF90EF90DF906C
:1013A000CF90BF90AF909F908F90089560E070ECC9
:1013B00089E794E4EECFCF92DF92EF92FF920F9302
:1013C0001F93CF93DF93D82EDAE0E82EF12C8D2DEA
:1013D0000E94040165E070E080E090E00E946A04F1
:1013E00090E080E00E94BE0565E070E080E090E063
:1013F0000E946A0480E00E940E01811124C065E011
:1014000070E080E090E00E946A0463E070E0C70151
:101410000E9488088330B9F465E070E080E090E0D5
:101420000E946A04C4E68091B9059091BA05891BAF
:10143000990B039774F465E070E080E090E00E94FF
:101440006A04C15081F7D15009F0C1CF8FEF9FEFEF
:101450001DC00E947E010E947E01C82E0E947E0156
:10146000C82F81E00E940E018111EDCF65E070E090
:1014700080E090E00E946A040C2D01702C2F302F28
:10148000C90124E0880F991F2A95E1F7DF91CF91D8
:101490001F910F91FF90EF90DF90CF900895809172
:1014A0000D01882319F080E60C94DB098FEF9FEF84
:1014B000089590910D01992349F0853050F4E82F5B
:1014C000F0E0E65DFE4F80810C94DB098FEF9FEF2B
:1014D000089590E080E008950F931F93CF93DF93DA
:1014E00020910D018C01085F1F4FEC018FEF22232B
:1014F000D1F087E50E94040180EF90E00E94BE05D4
:101500000E94910168E070E087E590E00E94880801
:101510000E947E0189930C171D07D1F7DF91CF91AF
:101520001F910F9108958993C017D107E1F7F6CF66
:10153000CF93DF9390910D01992309F464C0853016
:1015400009F464C0811124C0ECEAF0E0E4919091C8
:101550007B008E2F880F880F80729F7D892B809350
:101560007B00E770E064E0937C0080917A00806407
:1015700080937A0080917A0086FDFCCF909178006C
:1015800080917900892798278927DF91CF91089545
:10159000E82FF0E0E55EFE4F608180E2689FE001A9
:1015A0001124C868DAE0809123040E9404016C2FA2
:1015B00085E896E00E948F050E949101882311F032
:1015C000D15089F760E570E080E090E00E946A0405
:1015D0008091230463E070E090E00E9488082091ED
:1015E000B9058091BA05281B330B8AE023303105F9
:1015F00084F48150D9F78FEF9FEF25E0969587957A
:101600002A95E1F7C2CF8FEF9FEFBFCF90E080E048
:10161000BCCF0E947E01D82F0E947E01C82F0E945D
:101620007E0180E09D2F8C2BE8CFCF93DF93EC01E0
:101630008FE60E94040160E085E896E00E948F0535
:101640000E949101811130C067E070E08FE690E068
:101650000E9488080E947E018F770E94E607888397
:101660000E947E010E94E60789830E947E018F7B93
:101670000E94E6078A830E947E01877C8B830E94FA
:101680007E010E94E6078C830E947E018F7D0E946E
:10169000E6078D830E947E010E94E607825E8E83AC
:1016A00081E0DF91CF91089580E0FBCF0F931F93EE
:1016B000CF93DF9300D000D000D01F92CDB7DEB71C
:1016C0008C01CE0101960E94150B8F8190E08E5403
:1016D000984FF801918380838E8182838D818383EB
:1016E0008B8184838A8185838981868327960FB63F
:1016F000F894DEBF0FBECDBFDF91CF911F910F9148
:101700000895CF93DF9300D000D000D01F92CDB7C3
:10171000DEB7CE0101960E94150B882369F0CE0139
:1017200001960E944A0627960FB6F894DEBF0FBEB8
:10173000CDBFDF91CF91089560E070E0CB01F3CF92
:10174000CF93DF9320910D01222351F0EC010E94F1
:10175000810B688379838A839B83DF91CF9108957E
:10176000FC011082118212821382F7CFFC010190DA
:101770000020E9F73197AF01481B590BBC0186E205
:1017800096E00C949C048F929F92AF92BF920F931D
:101790001F93CF93DF93CDB7DEB7A1970FB6F89421
:1017A000DEBF0FBECDBF19A2423008F44AE08E0161
:1017B0000F5D1F4F842E912CB12CA12CA5019401FB
:1017C0000E946A24E62FB901CA01EA30F4F4E05D10
:1017D000D801EE938D01232B242B252B79F790E054
:1017E00080E0109719F0CD010E94B60BA1960FB6BC
:1017F000F894DEBF0FBECDBFDF91CF911F910F9147
:10180000BF90AF909F908F900895E95CE1CFBC01AD
:1018100090E080E04AE00C94C30B20910E0121116E
:101820000C94070C0895AB01BC01990F880B990B20
:101830004A30510509F44AE00C94C30B0F931F93EF
:10184000CF93DF93EC018C010A5F1F4F8A8190E0F8
:1018500060E170E024E0969587952A95E1F70E9473
:10186000130C8A818F7060E170E090E00E94130C8D
:101870002196C017D10751F7DF91CF911F910F919A
:101880000895682F70E090E080E04AE00C94C30B6C
:1018900090910E0191110C94410C0895CF93DF9318
:1018A000EC01888199810E94070C80E20E94C702A6
:1018B0008A810E94410C80E20E94C7028B810E94B3
:1018C000410C80E20E94C7028C810E94410C80E2A0
:1018D0000E94C7028D810E94410C80E20E94C702D3
:1018E0008E81DF91CF910C94410C009711F00C94F4
:1018F000B60B90E080E00895CF93DF9320910E0126
:10190000222369F0EC0182EC91E00E94750CCE017B
:101910000E94750C80E2DF91CF910C94C702DF9199
:10192000CF91089520910E0121110C94750C08950A
:1019300088EC91E00C94B60BCF93DF934AE00E94C1
:10194000C30BEC010E94980C8C0F9D1FDF91CF916F
:1019500008950F931F93CF93DF9300D000D0CDB79E
:10196000DEB7CE0101960E94A00B69817A818B813E
:101970009C81009178041091790420917A0430912F
:101980007B04601B710B820B930B0E949C0C80E00C
:101990000F900F900F900F90DF91CF911F910F91AB
:1019A0000895CF92DF92EF92FF920F931F93CF9300
:1019B000DF93C3EED4E006EA15E02FB7F894609108
:1019C00068047091690480916A0490916B042FBF40
:1019D000CB8CDC8CED8CFE8C6C197D098E099F09FB
:1019E0000E949C0CA7960C171D0739F780E0DF9129
:1019F000CF911F910F91FF90EF90DF90CF900895BE
:101A00000E94810B0E949C0C80E00895CF93C0E05F
:101A10008C2F0E94980A0E94070C0E94980CCF5F9E
:101A2000C530B1F780E0CF910895CF930E944F0A5F
:101A30000E94070CC0E080E20E94C7028C2F0E9427
:101A4000590A0E94070CCF5FC530A9F70E94980C75
:101A500080E0CF910895CF93DF93CDB7DEB728977D
:101A60000FB6F894DEBF0FBECDBFCE0101960E9427
:101A70006C0ACE0101960E941E0C0E94980C80E018
:101A800028960FB6F894DEBF0FBECDBFDF91CF9181
:101A9000089580910E0181110C94980C0895CF93B4
:101AA000DF93FC012285233099F4EC018081918140
:101AB0000E947C0C8BEC91E00E94920C0E94490DDC
:101AC00064E0CE010E946F0880E0DF91CF9108951D
:101AD00081E0FBCF4F925F926F927F928F929F92A5
:101AE000AF92BF92CF92DF92EF92FF920F931F932C
:101AF000CF936B017C01742EAC019B010E944524A5
:101B0000882399F084ED91E0CF911F910F91FF9080
:101B1000EF90DF90CF90BF90AF909F908F907F908D
:101B20006F905F904F900C94B60B46015701E8946C
:101B3000B7F82FEF3FEF4FE75FE7C501B4010E9411
:101B4000452481110DC02FEF3FEF4FE75FE7C5013F
:101B5000B4010E947B2218161CF488ED91E0D4CFCA
:101B60002FEF3FEF4FE75FE4C701B6010E94D32399
:101B700018161CF48CED91E0C7CF2FEF3FEF4FE725
:101B80005FECC701B6010E947B2287FDF3CF20E006
:101B900030E0A901C701B6010E947B2210E000E0FD
:101BA00087FF08C08DE20E94C7028C01F7FAF0940B
:101BB000F7F8F094C0E060E070E080E09FE37C160E
:101BC00041F020E030E040E251E40E948022CF5F0B
:101BD000F6CFA70196010E940F222B013C010E9423
:101BE000F2224B015C014AE00E94C30B7C01E00E33
:101BF000F11ECC2399F1C501B4010E9421239B0160
:101C0000AC01C301B2010E940E224B015C018EE2C5
:101C10000E94C702E80EF91EC15000F120E030E03A
:101C200040E251E4C501B4010E94D8232B013C01DC
:101C30000E94F2224B01CB010E94070CE80EF91E14
:101C4000B40190E080E00E9421239B01AC01C3011C
:101C5000B2010E940E224B015C01DECFC701CF9181
:101C60001F910F91FF90EF90DF90CF90BF90AF90BA
:101C70009F908F907F906F905F904F90089580EE2F
:101C800091E00E94750C80910D018823C1F00E94A3
:101C9000520942E00E946A0D0E94980C8DEE91E07C
:101CA0000E94750C80910D01882371F00E94CF086D
:101CB00042E00E946A0D0E94980C80E0089560E066
:101CC00070E080EC9FE7E5CF60E070E080EC9FE79C
:101CD000EFCFCF93DF93D0E0C0E0009719F00E94E0
:101CE000B60BEC010E94980C8C0F9D1FDF91CF91D9
:101CF000089587EF91E00E94750C6AE070E083E040
:101D000090E00E94130C8EE20E94C7026AE070E02D
:101D100081E090E00E94130C0E94980C8BEF91E000
:101D20000E94750C6AE070E081E090E00E94130C64
:101D30008EE20E94C7026AE070E090E080E00E94BC
:101D4000130C8EE20E94C7026AE070E084E090E02B
:101D50000E94130C0E94980C80E092E00E94750C87
:101D60004AE06EE974EB8DEC9DE50E94C30B0E9486
:101D7000980C86E092E00E94750C8BE092E00E9445
:101D8000690E80E00895CF93C0917C04C3FF04C026
:101D900084E392E00E94690EC2FF04C089E392E0EE
:101DA0000E94690EC1FF04C08EE392E00E94690E9A
:101DB000C0FF04C084E492E00E94690E80E0CF91ED
:101DC00008950C94F821EF92FF920F931F93CF93F5
:101DD000DF9361E08DE00E94140461E089E00E94DD
:101DE000140485E2E82E81E0F82E00E211E0D0E054
:101DF000C0E061E0F70181917F010E94140462E07C
:101E0000F80181918F010E941404FE01EF57FB4FEE
:101E100010822196C530D10561F761E081E00E9412
:101E2000140461E085E10E94140461E080E00E94F6
:101E3000140480E290E00E94E10E91E0811101C063
:101E400090E090930D010E94E20368EC70E080E066
:101E500090E00E946A048EE68093230468EC70E0B0
:101E600080E090E00E946A0468EC70E080E090E01E
:101E70000E946A04F894109280001092810081E020
:101E800080936F0083E0809381007894DF91CF91FD
:101E90001F910F91FF90EF900895FC018081918137
:101EA00001960C94E10E853078F491E0882369F076
:101EB00090E002969695982F8827979587950E948F
:101EC000E10E91E0811101C090E0892F08950F93F8
:101ED0001F93CF93DF938C01EB010E94F82188833D
:101EE000C80101960E94F8218983CE01DF91CF912C
:101EF0001F910F910895CF93DF9300D0CDB7DEB738
:101F000020E8829FC0011124BE016F5F7F4F855F73
:101F10009E4F0E94670F89819A810F900F90DF91E9
:101F2000CF910895CF93C0E08C2F0E947B0F0E9429
:101F3000070C0E94980CCF5FC530B1F780E0CF91BD
:101F400008950F931F93CF93DF9300D0CDB7DEB7E3
:101F5000FC012085222341F081850F900F90DF91B5
:101F6000CF911F910F9108958C01FC01828193857F
:101F7000992349F00E947B0F83709927F8010397FA
:101F800089F48581EACFF0E88F9FC0011124BE015A
:101F90006F5F7F4F895F9E4F0E94670F8981F801B5
:101FA00080FDEFCF8481D9CFCF92DF92EF92FF9265
:101FB0000F931F93CF93DF93EB017B0124E0E20E9D
:101FC000F11C8B016C01C61AD70AC601800F911F44
:101FD0000E94F821F80181938F01EE15FF05A9F702
:101FE000CE01DF91CF911F910F91FF90EF90DF9085
:101FF000CF900895CF93DF9300D000D0CDB7DEB758
:10200000BE016F5F7F4F88E090E00E94D40F69812E
:102010007A818B819C810E949C0C80E00F900F90B4
:102020000F900F90DF91CF910895CF92DF92EF92B2
:10203000FF920F931F93CF93DF9300D000D0CDB7C3
:10204000DEB76C01E62EFC0100811181C8010E94FF
:10205000E10EF82EC6010E944D0FE81640F52F2D17
:102060002E0D3327331FC901F601628170E00E94F3
:102070005624880F991F880F991F0E5F1F4FBE01AE
:102080006F5F7F4F800F911F0E94D40F69817A810B
:102090008B819C810F900F900F900F90DF91CF91CB
:1020A0001F910F91FF90EF90DF90CF90089560E027
:1020B00070E0CB01EFCFCF92DF92EF92FF920F93C0
:1020C0001F93CF93DF936C01E62E8A01F12C84E0FD
:1020D000F89EE0011124CF5CDE4F88819981009742
:1020E00069F1F801608171810E94E124892B21F559
:1020F0000A80DB81C02D89E492E00E94750CC60144
:102100000E94750C80E20E94C702F80180819181D3
:102110000E94690E2097A9F0B8018E2DFE01099545
:1021200083E692E0DF91CF911F910F91FF90EF90A6
:10213000DF90CF900C94690EF394C9CFD0E0C0E04B
:10214000DACF83E592E00E94690EEACFCF93DF9366
:10215000823069F4FB01C281D38168E672E0CE016E
:102160000E94E124892B39F481E080930E0180E004
:10217000DF91CF9108956BE672E0CE010E94E124D9
:10218000892BA9F710920E01F2CF0F931F93CF93D3
:10219000DF93843029F58B01FB01828193810E94BA
:1021A000D221C82F8530E0F462EB72E0F80186811D
:1021B00097810E94E124D1E0892B09F0D0E0F80159
:1021C000048115816FE672E0C8010E94E124892B29
:1021D00069F487E2C89FF0011124ED51FB4FD683CB
:1021E00080E0DF91CF911F910F91089562E772E037
:1021F000C8010E94E124892B99F387E2C89FF0016E
:102200001124ED51FB4FD783EBCF0F931F93CF9347
:10221000DF939EEF980FC2E0923008F053C08B011D
:10222000D82FFB01828193810E94D221C82F853053
:1022300008F053C0D330B9F5F8010481158169E77E
:1022400072E0C8010E94E124892B99F427E2C29F21
:10225000F0011124ED51FB4F81E08087118660E091
:1022600083810E94CD0585E792E00E94690EC0E05F
:1022700029C060E872E0C8010E94E124892B81F442
:1022800087E2C89FF0011124ED51FB4F81E0808768
:10229000818761E083810E94CD058CE792E0E5CFE4
:1022A00085E892E0E2CFE7E28E9FC00111248D51D4
:1022B0009B4F0E94A10FC82F81110AC089E792E0AD
:1022C0000E94690E8C2FDF91CF911F910F9108957D
:1022D000813031F780E892E0C8CFC3E0F3CFBF92FE
:1022E000CF92DF92EF92FF920F931F93CF93DF93E2
:1022F000CDB7DEB72E970FB6F894DEBF0FBECDBFB9
:102300008B01813021F0873049F182E00FC080914C
:102310000D018823D9F0CE0101960E94560BCE0103
:1023200001960E944E0C0E94980C80E02E960FB6EB
:10233000F894DEBF0FBECDBFDF91CF911F910F91FB
:10234000FF90EF90DF90CF90BF9008951A8219828E
:102350001B821C821D821E821F82E1CFFB018281B3
:1023600093810E94D221F82EF801848195810E94E8
:10237000D221B82EF801868197810E94D221C82EE1
:10238000F801808591850E94D221D82EF80182859E
:1023900093850E94D221E82EF801848595850E94BC
:1023A000D22190910D01992309F4BFCF9EE49F0D96
:1023B0009E87BD86CC86DA86E9868887CE01089618
:1023C0000E944A06AE014F5F5F4F0E940A07CE018E
:1023D00001960E94F407A9CF0F931F93CF93C82FA4
:1023E0008B0181E08093A60587ED94E00E94390679
:1023F000C13069F41092DB041092DC041092DD0409
:102400001092DE0480E0CF911F910F910895C230A9
:10241000C9F7F801828193810E94D22128EE33E02E
:10242000DC010E94A1246093DB047093DC048093A0
:10243000DD049093DE04E6CF0F931F93CF93DF93D9
:102440008230D0F18B01C82FFB01828193810E94E1
:10245000D2218530B8F5C23099F4F7E28F9FC001E0
:1024600011248D519B4F40E65AEE60E070E0FC0174
:1024700043A354A365A376A30E944F0D80E01DC023
:10248000C330E1F7EC01DD27F801848195810E94DA
:10249000D22127E22C9FF0012D9FF00D1124ED5148
:1024A000FB4F28EE33E0DC010E94A12463A374A358
:1024B00085A396A3CF01E0CF82E0DF91CF911F915A
:1024C0000F91089583E0F9CF823059F4FB018281A6
:1024D00093810E94D221853030F480930C0180E0FA
:1024E000089582E0089583E008950C940022CF932C
:1024F000DF938130C1F480E490E00E94E10E81110D
:1025000005C08BE692E00E94690E2EC0813019F45E
:1025100089E792E0F8CF823019F480E892E0F3CFB7
:1025200083E992E0F0CF8230F9F4FB01C281D381DC
:102530006BE672E0CE010E94E12460E0892B81F01D
:1025400069E772E0CE010E94E12461E0892B41F04D
:1025500060E872E0CE010E94E124892B49F462E038
:1025600080E490E00E94751280E0DF91CF910895A1
:1025700085E992E0C8CF20E8829FC00111248A5DDE
:102580009E4F0C947512CF93DF93FC01228522237A
:10259000A9F1EC01808191810E947C0C82EA92E099
:1025A0000E94920C0E94490D63E08A810E94BB1236
:1025B0006AE070E080E090E00E946A0460E08A8156
:1025C0000E94E30564EF71E080E090E00E946A04FD
:1025D00060E08A810E94BB126AE070E080E090E0D7
:1025E0000E946A0461E0CE010E946F088DE794E0CA
:1025F0000E94390680E0DF91CF91089581E0FBCF02
:10260000CF93DF93EC018A81882351F090E002960A
:1026100060E09695982F8827979587950E94751268
:10262000CE010E94C3128A81882321F060E0CE018E
:102630000E946F0880E0DF91CF910895FF920F9381
:102640001F93CF93DF93082FEB01229611E087E2CF
:10265000F82E101778F4899199910E94D221853033
:1026600038F48F9DC00111248D519B4F0E9400139F
:102670001F5FEFCF80E0DF91CF911F910F91FF900F
:102680000895CF93DF93EC014B960E943906888121
:1026900099810E947C0C8AEA92E00E94920C0E942E
:1026A000490D8A85882341F0833058F463E0CE01D8
:1026B000DF91CF910C946F08CE01DF91CF910C94F4
:1026C0000013DF91CF910895823089F4FB0182815C
:1026D00093810E94D221853060F4F7E28F9FC00180
:1026E00011248D519B4F0E94411380E0089582E098
:1026F000089583E00895CF93DF93EC018A8190E001
:10270000029661E09695982F8827979587950E9465
:10271000751261E0CE010E946F0880E0DF91CF91D9
:102720000895FF920F931F93CF93DF93082FEB0130
:10273000229611E087E2F82E101778F4899199918A
:102740000E94D221853038F48F9DC00111248D5113
:102750009B4F0E947B131F5FEFCF80E0DF91CF91F3
:102760001F910F91FF900895FF920F931F93CF93A6
:10277000DF93EC01F62E08811981C8010E94F8212F
:10278000F81621F06F2DC8010E940022CE01DF91C2
:10279000CF911F910F91FF900895EF92FF920F93A9
:1027A0001F93CF93DF9300D000D000D0CDB7DEB71A
:1027B00019821A821B821C82CE0101967C0110E0D4
:1027C00000E01E830D83F70161917F01CE01059624
:1027D0000E94B4130F5F1F4F0430110591F780E082
:1027E00026960FB6F894DEBF0FBECDBFDF91CF9116
:1027F0001F910F91FF90EF900895EF92FF920F932A
:102800001F93CF93DF9300D0CDB7DEB78C017B0150
:102810009A838983FB016081CE0101960E94B413E3
:102820000F5F1F4F1A830983F7016181CE01019663
:102830000E94B413C7010F900F90DF91CF911F91A9
:102840000F91FF90EF9008951F93CF93DF9300D0E7
:10285000CDB7DEB7182F0E947B0F01969A8389832C
:1028600020E8129FC0011124BE016F5F7F4F855F7A
:102870009E4F0E94FD130F900F90DF91CF911F91FB
:102880000895EF92FF920F931F93CF93DF9300D0A1
:10289000CDB7DEB78C017B019A838983FB01608110
:1028A000CE0101960E94B4130F5F1F4F1A83098354
:1028B000F7016181CE0101960E94B413C7010F9008
:1028C0000F90DF91CF911F910F91FF90EF9008959E
:1028D000AF92BF92CF92DF92EF92FF920F931F932E
:1028E000CF93DF9300D0CDB7DEB78B016B0124E02F
:1028F000C20ED11C7B015C01A61AB70AC5018E0D60
:102900009F1D9A838983F70161917F01CE01019612
:102910000E94B413EC14FD0489F7C8010F900F90C6
:10292000DF91CF911F910F91FF90EF90DF90CF90AB
:10293000BF90AF900895AF92BF92CF92DF92EF9287
:10294000FF920F931F93CF93DF93CDB7DEB72A97F4
:102950000FB6F894DEBF0FBECDBF8C01FC018281A3
:102960000E947B0F21E08115944008F020E0F801DF
:102970002387C8010E94A10FF82EF8011086682F46
:1029800083810E94CD05F801808191810E947C0C99
:1029900086EC92E00E94920CF8018481F81609F40A
:1029A000A3C08CEB92E00E94920C0E94490DF801AA
:1029B000E280F0E8EF9E700111249701295F3E4FFD
:1029C0007901BE016F5F7F4FC9010E94670F898146
:1029D0009A8101969A878987BE01675F7F4FC701F9
:1029E0000E94FD13CE0105960E94A00BF801D28033
:1029F0008D2D90E04D815E816F81788549835A836A
:102A00006B837C837C01EE0CFF1CE80EF91E9701A2
:102A10002A58394F7901F901A080B180C5010E947F
:102A2000E10EC82EF3E0DF9EC00111248A58994FB1
:102A30000E944D0FD82E2C2D280F3327331FC9018C
:102A4000F701628170E00E945624880F991F880F59
:102A5000991FF2E0AF0EB11CBE016F5F7F4F8A0D70
:102A60009B1D0E946814F70122818081918161E0A1
:102A7000D2123DC06C0D0E94751262E0F801828195
:102A80000E94BB126AE070E080E090E00E946A045D
:102A900061E0F80182810E94E30564EF71E080E06B
:102AA00090E00E946A0461E0F80182810E94BB12FA
:102AB0006AE070E080E090E00E946A0463E0C80190
:102AC0000E946F0880E02A960FB6F894DEBF0FBE12
:102AD000CDBFDF91CF911F910F91FF90EF90DF90CD
:102AE000CF90BF90AF90089584EB92E05CCF6D0DD6
:102AF0000196C1CF1F920F920FB60F9211248F93A0
:102B00009F938091E1009091E100937F9093E10089
:102B100083FF0FC01092E90091E09093EB001092B8
:102B2000EC0092E39093ED001092B40598E090933E
:102B3000F00082FF22C093E09093E9009091F200B0
:102B4000992319F09AE39093E800909175049923E2
:102B500041F090917504915090937504911101C0CA
:102B60005D989091B305992341F09091B3059150F0
:102B70009093B305911101C0289884FF18C08091EB
:102B8000E2008E7E81608093E2008091E1008F7E82
:102B90008093E100809176048E7E8061809376043C
:102BA0009F918F910F900FBE0F901F90189580FFEF
:102BB000F7CF8091E2008E7E80618093E200809169
:102BC000E1008E7E8093E100809176048E7E8160AC
:102BD000E5CF1F920F920FB60F921124CF92DF9282
:102BE000EF92FF920F931F932F933F934F935F9317
:102BF0006F937F938F939F93AF93BF93EF93FF93C5
:102C0000CF93DF93CDB7DEB76C97DEBFCDBF109209
:102C1000E9008091E80083FF25C068E0CE01459679
:102C20000E94A40282EF8093E8008D8987FF39C05B
:102C30009091E80090FFFCCF982F907609F034C176
:102C40009E894F89588D2F89F88C911131C0803819
:102C500061F5809177048093F1001092F1008EEF7E
:102C60008093E8006C960FB6F894DEBF0FBECDBF20
:102C7000DF91CF91FF91EF91BF91AF919F918F9194
:102C80007F916F915F914F913F912F911F910F9184
:102C9000FF90EF90DF90CF900F900FBE0F901F909E
:102CA00018959EEF9093E800C7CF1092F100D5CF12
:102CB000913059F48111D3CF4130510581F6809183
:102CC00077048D7F80937704CACF933049F48111C4
:102CD000C6CF4130510519F6809177048260F2CF5A
:102CE000953041F48091E80080FFFCCF206820936C
:102CF000E300B5CF963009F0A9C00B8D1C8D22E002
:102D00001092E9001092730410927204F2122EC015
:102D100010927104109270040E9473021F8299E055
:102D20009983FA8291E09E8390EA98879AEF998737
:102D30002091720430917304275F3F4F3C832B83B3
:102D40008D831092E9001092730410927204109314
:102D500071040093700449E050E0BE016F5F7F4F43
:102D600080E00E944D020E94730279CF109371049B
:102D7000009370040E94D801DC0112960D911C9101
:102D80000115110509F451C1D801ED91FC910480A0
:102D9000F581E02DBE016B5E7F4FC801099500975C
:102DA00009F03EC1F80100851185EACFF3E0FF127A
:102DB0000EC08F89882309F440C0823061F440E856
:102DC0006DE083EA91E00E941A02811148CF81E20E
:102DD0008093EB0047CF813029F440E86BE087E92E
:102DE00091E0F1CF833099F70E94D801DC0112966F
:102DF000ED90FC908E010F5F1F4F6801E114F1040C
:102E000079F0D701ED91FC910680F781E02DB801B2
:102E1000C7010995080F111DF701E084F184EECF79
:102E2000D8011C92F60101900020E9F73197BF010B
:102E30006C197D0940E0C601C6CF61E871E0FB0175
:102E4000449150E080E80E944D0209CF973009F488
:102E5000BECF983021F481E08093F10000CF99300B
:102E600009F0FDCE837009F0B2CFE2E9F1E081E034
:102E700031E096E32191222371F08093E9003093B1
:102E8000EB00DF0111972C912093EC009093ED0063
:102E90008F5F873079F78EE78093EA001092EA001F
:102EA0008F898093B405DBCE8B8D9C8D1092E900C9
:102EB00010927304109272049093710480937004C2
:102EC000898D811192C08E899D89913A49F4813210
:102ED00009F07DCF47E050E064E071E080E0B3CFDF
:102EE000913209F074CF833269F48F89988DB0E004
:102EF000A0E08093000190930101A0930201B093A0
:102F00000301ADCE803269F48091E80082FFFCCFEE
:102F100067E084E091E00E94A4028BEF8093E800D8
:102F20009ECE823209F09BCE8F8980930B01EEEF0B
:102F3000FFE7859194918B3F9C4D51F1E0E0F8E0E3
:102F40008091040190910501A0910601B0910701C3
:102F5000803B9440A105B105F1F480910B0180FD07
:102F60001AC0EE3F8AE0F80789F587E797E7918373
:102F70008083809160008093740488E19BE00FB6A9
:102F8000F894A895809360000FBE9093600067CE80
:102F9000EEEFFAE0D5CF808191818737974709F02E
:102FA0005ECEA895809160008861809360008091DA
:102FB000740480936000EE3F2AE0F20789F080916C
:102FC000FE0A9091FF0A9183808349CE808191818E
:102FD0008737980751F29093FF0A8093FE0AC5CF76
:102FE0001092FF0A1092FE0A3ACE0E94D801DC012C
:102FF00012960D911C910115110509F4E8CED80126
:10300000ED91FC910190F081E02DBE016B5E7F4F50
:10301000C8010995811123CEF80100851185EBCFF8
:10302000181619060CF41BCED2CEF1E0FF12BECE5C
:1030300065E871E004CF1F920F920FB60F92112432
:103040002F933F938F939F93AF93BF938091680487
:1030500090916904A0916A04B0916B043091670467
:1030600023E0230F2D3758F50196A11DB11D2093A4
:1030700067048093680490936904A0936A04B093F2
:103080006B0480916C0490916D04A0916E04B091DA
:103090006F040196A11DB11D80936C0490936D0483
:1030A000A0936E04B0936F04BF91AF919F918F91E5
:1030B0003F912F910F900FBE0F901F90189526E80B
:1030C000230F0296A11DB11DD2CF1F920F920FB6F2
:1030D0000F9211242F933F934F935F936F937F939E
:1030E0008F939F93AF93BF93EF93FF938091B9001A
:1030F000887F803609F44AC0F0F5883209F4A7C009
:1031000018F5803109F49BC0B8F4882309F4F9C09C
:10311000883009F494C0FF91EF91BF91AF919F91D6
:103120008F917F916F915F914F913F912F910F9070
:103130000FBE0F901F901895883109F488C0803217
:1031400051F78093FF0514C0803409F49DC040F40A
:103150008033B9F38833F9F68093FF0585ECB0C06E
:10316000803509F485C0883509F496C0883499F60D
:103170000E942105D0CF883909F48CC038F58837F2
:1031800029F050F4883611F0803729F683E08093D7
:1031900001061092660457C0883809F47BC0803954
:1031A00019F0803809F0B7CF80916604803208F0BA
:1031B00071C0E091660481E08E0F80936604809177
:1031C000BB00F0E0EA5BFB4F80833DC0803B39F001
:1031D000E0F4803A09F479C0883A09F09CCF84E0A1
:1031E000809301061092450410924404E091B705C3
:1031F000F091B80509958091440481110FC081E0D8
:10320000809344041092240409C0803C09F4A6CFA2
:10321000883C09F4A3CF883B09F07DCFE0914504B9
:1032200081E08E0F80934504F0E0EC5DFB4F8081E0
:103230008093BB00909145048091440429C0809103
:10324000DC058093BB0085EC8093BC0064CF90913B
:10325000FE058091FD05981758F5E091FE0581E087
:103260008E0F8093FE05F0E0E352FA4F8081E9CFA4
:10327000E091FE0581E08E0F8093FE058091BB00FA
:10328000F0E0E352FA4F80839091FE058091FD05B6
:103290009817C8F285E8D8CFE091FE0581E08E0F3F
:1032A0008093FE058091BB00F0E0E352FA4F8083EB
:1032B0008091000681115CCF81E08093DB0584EA78
:1032C0008093BC001092010626CF85EC8093BC0051
:1032D0001092010680916604803230F4E091660419
:1032E000F0E0EA5BFB4F10826091660470E0E091D1
:1032F000B505F091B60586E494E009951092660450
:103300000ACF1092FF0534CF1F920F920FB60F9283
:1033100011240F931F932F933F934F935F936F93BA
:103320007F938F939F93AF93BF93CF93DF93EF934D
:10333000FF9300E211E0D0E0C0E0F80181918F013D
:103340000E948B03FE01E25EFB4F9081981731F0E3
:10335000DE01AF57BB4F9C919F5F9C93808321966A
:10336000C530D10551F7FF91EF91DF91CF91BF911A
:10337000AF919F918F917F916F915F914F913F910D
:103380002F911F910F910F900FBE0F901F901895C6
:10339000E6E2F6E01382128288EE93E0A0E0B0E06D
:1033A00084839583A683B78322EA31E03183208327
:1033B0002FEF3FEF35872487E5E8F6E0138212828E
:1033C00084839583A683B78384EB91E09183808384
:1033D000E6E7F6E088E0828320E431E03183208371
:1033E000858320EC31E034832383808720E432E03E
:1033F00037832683838720EC32E0328721878687D4
:1034000080E493E0958784870C94E203CF93DF9365
:10341000CDB7DEB76B970FB6F894DEBF0FBECDBF4A
:10342000789484B5826084BD84B5816084BD85B59F
:10343000826085BD85B5816085BD80916E008160AB
:1034400080936E0010928100809181008260809351
:103450008100809181008160809381008091800053
:1034600081608093800080919100826080939100C0
:1034700080919100816080939100809190008160A3
:10348000809390008091C10084608093C1008091FE
:10349000C10082608093C1008091C10081608093EF
:1034A000C1008091C30081608093C3008091C000FF
:1034B00082608093C0008091C20081608093C200CE
:1034C00080917A00846080937A0080917A00826093
:1034D00080937A0080917A00816080937A00809155
:1034E0007A00806880937A001092B4051092770475
:1034F000109276048091D70081608093D70080EA93
:103500008093D80089B5806189BD89B5826089BD05
:1035100009B400FEFDCF61E070E080E090E00E9421
:103520006A048091D8008F7C80618093D80080915C
:10353000E000807F8093E0008091E1008E7E8093A8
:10354000E1008DE08093E200559A209A5D982898DA
:1035500014BE0FB6F894A89580916000886180939E
:103560006000109260000FBE81E490E00E94E10EC6
:1035700080937C0460EA7FE080E090E00E946A042F
:1035800088E199E20FB6F894A895809360000FBE89
:1035900090936000A8958FEF9FEF909333068093F0
:1035A000320618E061E080E00E94C60564E670E043
:1035B00080E090E00E946A0461E081E00E94C6051C
:1035C00064E670E080E090E00E946A0460E080E0E1
:1035D0000E94C60564E670E080E090E00E946A0404
:1035E00060E081E00E94C60564E670E080E090E063
:1035F0000E946A041150B1F6A895BE016F5F7F4F1B
:1036000090E080E00E94D40F89819A81AB81BC81D7
:10361000813A9D4AA14ABD4A09F488C219821A8298
:103620001B821C82BE016F5F7F4F88E090E00E948A
:10363000681419821A821B821C82BE016F5F7F4F41
:103640008CE090E00E94681483E0898311E01A8383
:10365000BE016F5F7F4F84E090E00E9441141983A8
:103660001A82BE016F5F7F4F86E090E00E94411496
:1036700061E080E290E00E94751226E7C22E26E00B
:10368000D22E07E011E0F12C198E188EBE01685E73
:103690007F4FC8010E94FD131B8E1A8EBE01665E0D
:1036A0007F4FC80104960E94FD1360E08F2D0E9499
:1036B000BB1260E0C8010D960E94751260E0C8015F
:1036C00008960E94751260E0D6018D919C910E942F
:1036D0007512F6018081918160E001960E94751259
:1036E000F39400581F4FF3E0CF0ED11C25E0F212E7
:1036F000CBCF61E080E091E00E94751261E080E84C
:1037000091E00E94751261E080E092E00E947512E3
:1037100060E080E892E00E94751260E080E093E053
:103720000E94751260E080E490E00E94751268E9E2
:1037300071E090E080E00E9468140E94E30E10E1C6
:1037400061E080E00E94C60564E170E080E090E006
:103750000E946A0461E081E00E94C60564E170E0B5
:1037600080E090E00E946A0460E080E00E94C6056C
:1037700064E170E080E090E00E946A0460E081E033
:103780000E94C60564E170E080E090E00E946A0457
:103790001150B1F688E794E00E94A00B68E774E04E
:1037A0008CE090E00E946814BE016F5F7F4F88E05C
:1037B00090E00E94D40F89819A81AB81BC810196EF
:1037C000A11DB11D89839A83AB83BC83BE016F5F4A
:1037D0007F4F88E090E00E946814A89580917C0457
:1037E000857009F442C004E111E0F12CC8010E9487
:1037F000E10E93E0E92E853008F49BC180ED92E064
:103800000E947C0C85ED92E00E94920C8F2D0E940C
:10381000480C85EE92E00E94920C0E94490DF394B0
:1038200000581F4F95E0F912E1CF0FE011E0F12CA5
:10383000C8010E94E10E853008F4B8C180ED92E025
:103840000E947C0C86EF92E00E94920C8F2D0E94C9
:10385000480C85EE92E00E94920C0E94490DF39470
:1038600000581F4FB5E0FB12E3CF82E093E0909346
:10387000E4048093E3041092E5041092E6041092AD
:10388000E70481E08093E8048093E9041092EA045D
:1038900025E033E030930B0520930A0580930C0557
:1038A00080930D0510920E0580930F0580931005EF
:1038B0001092110528E033E0309332052093310552
:1038C00092E09093330510923505809336058093EE
:1038D0003705109238058BE093E09093590580935B
:1038E000580583E080935A0510925E0510925F059B
:1038F0008EE093E09093800580937F0584E0809331
:103900008105109285051092860506EA15E0F3EE12
:10391000EF2EF4E0FF2EA2E0DA2EB0E68B2EBAEE08
:103920009B2EA12CB12CF70110861186D686178EFE
:1039300010A211A212A283A294A2A5A2B6A2828171
:103940000E94530F61E0811101C060E0C7010E9435
:103950006F08F7E2EF0EF11C0E151F0521F773EE4D
:10396000C72E74E0D72EE6E2AE2EBB24B39410E04F
:10397000C5010E94E10E8250823060F460E0812F28
:103980000E94BB1280917C04857009F44EC1C6016F
:103990000E9400131F5F20E8A20EB11C87E2C80E30
:1039A000D11C153029F710920C011092D6048DE726
:1039B00094E00E9439068FED94E00E94390610923F
:1039C000A6051092DB041092DC041092DD04109224
:1039D000DE040E94810B6E39744B8D4C9D4568F45A
:1039E000AE014F5F5F4F6EE974EB8DEC9DE50E9479
:1039F0000A07CE0101960E94F407A89560E0262EE2
:103A000060E0362E8091A605811118C010910C013E
:103A1000153008F00EC18DE794E00E94390687E268
:103A2000819FF0011124ED51FB4F9285913019F4E3
:103A3000CF010E949B148FEF80930C0103EE14E0E2
:103A4000BB24B394D8011296EC91F0E0EF57FB4FF2
:103A50008081883020F01082C8010E944113F80153
:103A600082810E94590A8F3F9807E1F022E0D22E0E
:103A70008837910560F0D12C8C3221E0920738F024
:103A8000DD24D3948235934010F093E0D92EF801D1
:103A900086858D1539F0C8010F960E943906D80128
:103AA0001E96DC92F8018285823009F4E9C108F0A3
:103AB00092C1882309F4D2C1A895095D1F4FE01671
:103AC000F10609F0BFCF612C86E296E00E94250343
:103AD000181619060CF0DBC2FFEEF61508F4D7C273
:103AE00086E296E00E94E302A091D604E1E0EA0FAC
:103AF000E093D604B0E0AA57BB4F8C936394E035B3
:103B000008F462C21092D60486E296E00E94250371
:103B100018161906CCF620EF6216B1F286E296E08E
:103B20000E94E3020A9781F26394EECF0E94E30EB3
:103B300031CEC8010E94E10E61E0680FC8010E9409
:103B4000751264E170E080E090E00E946A048F2DBD
:103B50000E94590A6C0162E370E080E090E00E94EC
:103B60006A04C8010E94E10E6FEF680FC8010E944D
:103B7000751264E170E080E090E00E946A0489E8D8
:103B8000C81683E1D80608F44ACEEA94E110D1CFF2
:103B900080ED92E00E947C0C85ED92E00E94920CF8
:103BA0008F2D0E94480C89EC93E035CE83E0E82EFF
:103BB000C8010E94E10E61E0680FC8010E94751201
:103BC00064E170E080E090E00E946A048F2D0E9422
:103BD000980A6C0162E370E080E090E00E946A0461
:103BE000C8010E94E10E6FEF680FC8010E947512B4
:103BF00064E170E080E090E00E946A04A1E1CA16EE
:103C0000A7E2DA0608F42BCEEA94E110D1CF80EDDA
:103C100092E00E947C0C86EF92E00E94920C8F2D25
:103C20000E94480C89EC93E016CEC6010E94C31294
:103C3000B1CE40E65AEE60E070E08DE794E00E947D
:103C40001906882309F4FACE53EEC52E54E0D52E7A
:103C500010E000E0F6018285813009F0B2C0C601B3
:103C6000835E94405C01478D50A161A172A1C601A1
:103C700043960E941906882309F4A3C08DE794E0B7
:103C80000E94390687E2809FF001819FF00D112488
:103C9000ED51FB4F8285813029F4C5018D519B4F39
:103CA0000E949B14C801880F991F080F191F0A58FA
:103CB000194F81E193E00E947C0CD12CC8010E9435
:103CC0004D0FD81688F486EC91E00E94920C6D2D71
:103CD000C8010E94151020910E01222319F04AE01C
:103CE0000E94C30BD394EACF0E94490DC8010E94E1
:103CF0004D0F823008F4A2CE89E193E00E947C0C43
:103D0000DD24D394C8010E944D0F982F853008F010
:103D100094E0D91600F56D2DC8010E9415104B01D5
:103D20005C016FEF6D0DC8010E9415102B013C0165
:103D300086EC91E00E94920C80910E01882349F05C
:103D4000C501B40164197509860997094AE00E9402
:103D5000C30BD394D7CFC82E93E0981710F433E059
:103D6000C32EDD24D394812C912C5401DC14A8F4AF
:103D70006D2DC8010E9415102B013C016FEF6D0DD8
:103D8000C8010E941510461A570A680A790A840C5D
:103D9000951CA61CB71CD394E9CF2C2D30E050E025
:103DA00040E0C501B4010E946A24283C3105410568
:103DB000510520F480E293E00E94920C0E94490D8C
:103DC0003DCE0F5F1F4FA7E2CA0ED11CEC14FD04BD
:103DD00009F040CF33CE833009F471C0843009F04C
:103DE0006BCE6801B7E1CB0ED11C40E157E260E039
:103DF00070E0C6010E941906882371F0C6010E9476
:103E00003906F801808191810E947C0C8BEC91E055
:103E10000E94920C0E94490DD80193964D915D919C
:103E20006D917C919697C80143960E94190688234C
:103E300009F442CE80E69AEEA0E0B0E0F80183A358
:103E400094A3A5A3B6A3808191810E947C0C80E9F4
:103E500093E00E94920C0E94490D2DC08281811135
:103E60002BCE40E65AEE60E070E0C80143960E9417
:103E70001906882309F420CEC8010E947B131CCEAA
:103E800040EE53E964E070E0C80143960E941906D1
:103E9000882309F411CEF801808191810E947C0C65
:103EA00083E293E00E94920C0E94490DD801129681
:103EB0008C910E942414C8010E94C312FDCD8385F9
:103EC000882309F456C086818823E1F040EE53E947
:103ED00064E070E0C8014B960E941906882391F0B7
:103EE000D8018D919C910E947C0C84E393E00E9408
:103EF000920C0E94490DF80182810E942414C8018D
:103F00000E944F0DD80117968C91882309F4D4CDC7
:103F10006801BFE0CB0ED11C40E157E260E070E0E9
:103F2000C6010E941906882309F4C6CDF8018081D4
:103F300091810E947C0CD8011E968C918130B1F049
:103F400050F0823069F0833071F00E94490DC60153
:103F50000E943906B1CD86E493E00E94920CF5CF21
:103F600085E593E0FACF81E693E0F7CF8EE693E024
:103F7000F4CF40E05AEB6BED70E0C80143960E942D
:103F80001906882309F498CDF801808191810E9457
:103F90007C0C8FE793E00E94920C0E94490DC801AF
:103FA0000E94A10F61E0811160E0D8011896BC92D7
:103FB000189719966C93199713968C910E94CD05BA
:103FC000C8010E944F0D78CD8A3009F07DCDF0E018
:103FD000EA57FB4F10821092D60406E814E0712CC9
:103FE000680148018FEF881A980AD801AC900A2C12
:103FF000000CBB08C5010E94D824892BD9F5C50146
:104000000E94CF24892BE1F0BB24B394B70CE72D99
:10401000F0E0EE0FFF1F81E090E08C0F9D1FE80F96
:10402000F91F1183008368010F5F1F4FD6018C9128
:10403000082E000C990B0E94CF24892BA1F77B2C12
:10404000F60180818823C1F086010F5F1F4F108227
:10405000F8E07F12C5CF89819A81DC012C91203450
:1040600079F46FEF670DAE014D5F5F4F01960E94CF
:104070005B102ACD8401B4CF772009F425CDEBCF96
:10408000AE014F5F5F4F672D8DE993E0F0CF40E6C3
:104090005AEE60E070E08FED94E00E9419068823EC
:1040A00009F4E1C08FED94E00E943906A895CE0195
:1040B00001960E946C0A8FE993E00E947C0CCE016D
:1040C00001960E941E0C0E94490D62E370E080E0A0
:1040D00090E00E946A0480910D01882309F41EC1BA
:1040E000CE0141960E94560B82EA93E00E947C0C1E
:1040F000CE0141960E944E0C0E94980C62E370E043
:1041000080E090E00E946A0482E792E00E947C0CCA
:104110000E944F0A0E940D0C10E00E94CC02812FD9
:104120000E94590A0E940D0C1F5F1530B1F70E94C2
:10413000490D62E370E080E090E00E946A0487EA43
:1041400093E00E947C0C10E0812F0E94980A0E944C
:104150000D0C0E94CC021F5F1530B1F70E94490D73
:1041600062E370E080E090E00E946A048AEA93E0F3
:104170000E947C0C80910D01882309F4D7C00E9415
:10418000520920910E01222319F042E00E946A0D8B
:104190000E94CC0280910D01882309F4CCC00E94BA
:1041A000CF0820910E01222319F042E00E946A0DEF
:1041B0000E94490D62E370E080E090E00E946A0492
:1041C0008EEA93E00E947C0C10E0812F0E947B0F0E
:1041D0000E940D0C0E94CC021F5F1530B1F70E94A7
:1041E000490D62E370E080E090E00E946A0484EB95
:1041F00093E00E947C0C10E0812F0E94530F90915D
:104200000E01992329F06AE070E090E00E94130CFF
:104210000E94CC021F5F153079F70E94490D62E3BE
:1042200070E080E090E00E946A048DE892E00E94D5
:104230007C0C83EE94E00E94A10F882309F483C0D4
:10424000813009F47DC08CEB93E00E94920C8AE0EF
:1042500095E00E94A10F811179C085EC93E00E9446
:10426000920C0E94490D1091A605112309F476C005
:104270004091DB045091DC046091DD047091DE0418
:1042800087ED94E00E941906882309F467C088E14D
:1042900099E20FB6F894A895809360000FBE9093B2
:1042A0006000A89515E061E080E00E94C60561E02D
:1042B00081E00E94C60560E570E080E090E00E9429
:1042C0006A0460E080E00E94C60560E081E00E9430
:1042D000C60560E570E080E090E00E946A0411503D
:1042E00011F761E080E00E94C60561E081E00E9474
:1042F000C60568EC70E080E090E00E946A0460E02F
:1043000080E00E94C60560E081E00E94C60568EC7E
:1043100070E080E090E00E946A04C4CF1A8A198A93
:104320001B8A1C8A1D8A1E8A1F8ADECE60E070E00E
:1043300080EC9FE726CF60E070E080EC9FE731CF14
:104340008FEB93E082CF85EC93E07FCF813019F43F
:104350008FEB93E084CF8CEB93E081CF8DE00E94D4
:104360008B0361E0019709F460E080E00E94C605DC
:10437000112351F08DE00E948B0361E0019709F059
:1043800060E081E00E94C605A89568EC70E080E0DE
:1043900090E00E946A042114310409F433CB0E9496
:1043A000000030CBFC0188279927E8942191203226
:1043B000E9F3293010F02E30C8F32B3241F02D32C2
:1043C00039F4689404C00E94F021820F911D21915C
:1043D00020532A30C0F31EF4909581959F4F089585
:1043E0007AE0979F902D879F802D910D112408953D
:1043F000F999FECF92BD81BDF89A992780B50895AD
:10440000262FF999FECF1FBA92BD81BD20BD0FB6F0
:10441000F894FA9AF99A0FBE019608955058BB275E
:10442000AA270E9426220C9499230E948B2338F0FD
:104430000E94922320F039F49F3F19F426F40C9443
:1044400088230EF4E095E7FB0C948223E92F0E9469
:10445000AA2358F3BA17620773078407950720F059
:1044600079F4A6F50C94CC230EF4E0950B2EBA2F1C
:10447000A02D0B01B90190010C01CA01A00111246A
:10448000FF27591B99F0593F50F4503E68F11A1616
:10449000F040A22F232F342F4427585FF3CF4695A7
:1044A00037952795A795F0405395C9F77EF41F16C9
:1044B000BA0B620B730B840BBAF09150A1F0FF0F93
:1044C000BB1F661F771F881FC2F70EC0BA0F621F7F
:1044D000731F841F48F4879577956795B795F7956F
:1044E0009E3F08F0B0CF9395880F08F09927EE0F04
:1044F0009795879508950E945E2308F481E00895BA
:104500000E9494220C9499230E94922358F00E94B6
:104510008B2340F029F45F3F29F00C948223511142
:104520000C94CD230C9488230E94AA2368F399232A
:10453000B1F3552391F3951B550BBB27AA2762179F
:104540007307840738F09F5F5F4F220F331F441FAC
:10455000AA1FA9F335D00E2E3AF0E0E832D09150E0
:104560005040E695001CCAF72BD0FE2F29D0660FCD
:10457000771F881FBB1F261737074807AB07B0E810
:1045800009F0BB0B802DBF01FF2793585F4F3AF016
:104590009E3F510578F00C9482230C94CD235F3F0D
:1045A000E4F3983ED4F3869577956795B795F7959C
:1045B0009F5FC9F7880F911D9695879597F9089584
:1045C000E1E0660F771F881FBB1F62177307840720
:1045D000BA0720F0621B730B840BBA0BEE1F88F72F
:1045E000E09508950E94B22388F09F5798F0B92F64
:1045F0009927B751B0F0E1F0660F771F881F991F18
:104600001AF0BA95C9F714C0B13091F00E94CC23CA
:10461000B1E008950C94CC23672F782F8827B85FDA
:1046200039F0B93FCCF3869577956795B395D9F76F
:104630003EF490958095709561957F4F8F4F9F4F79
:104640000895E89409C097FB3EF490958095709585
:1046500061957F4F8F4F9F4F9923A9F0F92F96E9CE
:10466000BB279395F695879577956795B795F11143
:10467000F8CFFAF4BB0F11F460FF1BC06F5F7F4FE0
:104680008F4F9F4F16C0882311F096E911C07723F2
:1046900021F09EE8872F762F05C0662371F096E8FB
:1046A000862F70E060E02AF09A95660F771F881FCA
:1046B000DAF7880F9695879597F90895990F00086E
:1046C000550FAA0BE0E8FEEF16161706E807F907E4
:1046D000C0F012161306E407F50798F0621B730B7F
:1046E000840B950B39F40A2661F0232B242B252B00
:1046F00021F408950A2609F4A140A6958FEF811DA3
:10470000811D089597F99F6780E870E060E0089543
:104710009FEF80EC089500240A94161617061806D9
:104720000906089500240A941216130614060506B5
:104730000895092E0394000C11F4882352F0BB0F46
:1047400040F4BF2B11F460FF04C06F5F7F4F8F4FA9
:104750009F4F089557FD9058440F551F59F05F3FE4
:1047600071F04795880F97FB991F61F09F3F79F093
:1047700087950895121613061406551FF2CF469515
:10478000F1DF08C0161617061806991FF1CF869597
:104790007105610508940895E894BB27662777277B
:1047A000CB0197F908950E945E2308F48FEF0895D6
:1047B0000E94EB230C9499230E948B2338F00E94D3
:1047C000922320F0952311F00C9482230C948823DB
:1047D00011240C94CD230E94AA2370F3959FC1F35A
:1047E000950F50E0551F629FF001729FBB27F00D9F
:1047F000B11D639FAA27F00DB11DAA1F649F6627F4
:10480000B00DA11D661F829F2227B00DA11D621F42
:10481000739FB00DA11D621F839FA00D611D221FFC
:10482000749F3327A00D611D231F849F600D211DE0
:10483000822F762F6A2F11249F5750409AF0F1F063
:1048400088234AF0EE0FFF1FBB1F661F771F881FCC
:1048500091505040A9F79E3F510580F00C9482235F
:104860000C94CD235F3FE4F3983ED4F3869577957F
:104870006795B795F795E7959F5FC1F7FE2B880F72
:10488000911D9695879597F908950E945E23880B50
:10489000990B0895991B79E004C0991F961708F0A9
:1048A000961B881F7A95C9F78095089597FB072E68
:1048B00016F4009407D077FD09D00E94BB2407FCB2
:1048C00005D03EF4909581959F4F08957095619520
:1048D0007F4F0895A1E21A2EAA1BBB1BFD010DC03C
:1048E000AA1FBB1FEE1FFF1FA217B307E407F507A0
:1048F00020F0A21BB30BE40BF50B661F771F881F7C
:10490000991F1A9469F760957095809590959B0111
:10491000AC01BD01CF010895EE0FFF1F0590F4918A
:10492000E02D0994A29FB001B39FC001A39F700D19
:10493000811D1124911DB29F700D811D1124911DA7
:1049400008950E949224B7FF0895821B930B089547
:104950000E949224A59F900DB49F900DA49F800D5E
:10496000911D11240895B7FF0C94A8240E94A82437
:10497000821B930B0895AA1BBB1B51E107C0AA1F02
:10498000BB1FA617B70710F0A61BB70B881F991FF0
:104990005A95A9F780959095BC01CD010895803274
:1049A00009F091110C94EA2480528F55D8F708959C
:1049B00091110C94EA24803219F089508550C8F77F
:1049C0000895FB01DC018D91019080190110D9F34C
:0E49D000990B0895992788270895F894FFCF32
:1049DE00FFFFFFFF00E1000000000000FF01011FCC
:1049EE001C1F1E1F1E1F1F1E1F1E1F000001020365
:1049FE000507160B170406080A0C62686A636B013A
:104A0E0015D803000DCF016413DC036412E2031CFE
:104A1E00120A04EC119F032B0D7202150D6F02D1B9
:104A2E000CAA033F0EE7030511A703060DA2036FA1
:104A3E0011EA03C30EED03920FF003A90CF30391D9
:104A4E0013FA031E130204C5101503A6100804CD95
:104A5E00131004FA0F1604790E1A047712000000D0
:104A6E000000C18081000000A1ADA1AD0D090000C4
:104A7E000000B1029C04DF02D4022503E30201030D
:104A8E00000000008F056205C305520594016B01FD
:104A9E0053056C6F673A20000D0A0073746F7070C7
:104AAE00696E67006E616E00696E66006F766600F5
:104ABE0074656D70657261747572653D0068756DB3
:104ACE0069646974793D00687720006B6572200017
:104ADE0074696D652000676974200062383533652E
:104AEE006537363839623936316365613630383874
:104AFE0033646132386639636236663530656437E1
:104B0E00333132005744524600424F524600455808
:104B1E0054524600504F5246003C3C3C2D20736987
:104B2E00643D00696E76616C696420636F6D6D61C2
:104B3E006E64002D3E3E3E006F6E006F666600682E
:104B4E00620063750073657420736400736574206E
:104B5E00656D6D6300696E76616C6964206D656468
:104B6E006961003F00696E76616C6964206D6F64E7
:104B7E0065006B696C6C696E670068656172746262
:104B8E00656174007072696D617279007365636F2F
:104B9E006E64617279007374617274696E6720005D
:104BAE00706F73740063757272656E742073656EC8
:104BBE00736F72200020746F6F206D616E792066A6
:104BCE0061756C747300746865726D6973746F725D
:104BDE0020006E6300676E006373007831007832D8
:104BEE0000626F6F746C6F6700626F6F7464740035
:104BFE002021007374617274696E672074696D652B
:104C0E006F75740068656172746265617420746991
:104C1E006D656F75740063757272656E74206E6F5C
:104C2E00726D616C0063757272656E74206C6F7755
:104C3E000063757272656E742068696768006375CB
:104C4E007272656E74207374726573736564007529
:104C5E006E6D616E61676564207377697463680059
:104C6E0073746F702074696D656F757400300069B0
:104C7E0064006461746500746800656E7600666138
:104C8E00696C7300656E61626C6564003F2000653F
:104C9E006D6D63200073642000206F7574206F6645
:104CAE002072616E67652E00727463007374617298
:104CBE00740073746F700062730062660066630046
:104CCE00757000656E61626C650064697361626C1B
:104CDE00650077617463680065657265736574005D
:0E4CEE00626F6F74730076657200626C660010
:00000001FF
