:100000000C94DA000C9402010C9402010C9402018D
:100010000C9402010C9402010C9402010C94020154
:100020000C9402010C9402010C949F130C940E1476
:100030000C9402010C9402010C9402010C94020134
:100040000C9402010C9402010C9402010C94020124
:100050000C94A9170C9402010C9402010C94401604
:100060000C9402010C9402010C9402010C94020104
:100070000C9402010C9402010C9402010C940201F4
:100080000C9402010C9402010C9402010C940201E4
:100090000C948A160C9402010C9402010C94020137
:1000A0000C9402010C9402010C9402010706050451
:1000B0000100080A0B0C0D090000000024002700B5
:1000C0002A002D00300000000000250028002B0031
:1000D0002E003100000000002300260029002C0023
:1000E0002F000404040404030405020202020403B2
:1000F00002020202060606060606040402020204C2
:100100000404080201104080401020408040800814
:100110000204018040201002011080102040402085
:100120000000000200090F0000030401000C0000A1
:1001300000000000000000000000000000000008B7
:100140000B0002020201000904000001020200008B
:1001500005240010010524010101042402060524E0
:100160000600010705810310004009040100020A8E
:10017000000000070502024000000705830240005E
:10018000000403090412010002EF02014041233779
:100190008000010102030141726475696E6F204C99
:1001A0004C430041726475696E6F204D6963726FD4
:1001B0000000ED1711241FBECFEFDAE0DEBFCDBF88
:1001C00014E0A0E0B1E0E8E5F7E402C005900D928C
:1001D000A031B107D9F726E0A0E1B4E001C01D923B
:1001E000AB3BB207E1F710E0CAEDD0E004C02197C5
:1001F000FE010E946723C93DD107C9F70E943F183D
:100200000C94AA230C940000982F2091C60581E03D
:10021000213208F043C08091A2058111FCCF80916A
:10022000C50532E03093A2059093A1059FEF90930E
:10023000A00510929F0520939E05A5EAB5E0EEE784
:10024000F5E090E0291331C010927D0590917D0575
:10025000880F892B80937D0580917C05813049F53D
:1002600010927C0580917D058093BB008091BC003D
:1002700083FDF8CF85EC8093BC008091A20582308D
:10028000E1F38091A0058F3FB1F08091A00580320D
:10029000A1F08091A005803391F084E01092A40534
:1002A0001092C6051092A30508953D9131939F5F6A
:1002B000C9CF85EEE0CF80E0F1CF82E0EFCF83E0E1
:1002C000EDCF9091A2059111FCCF91E09093A20502
:1002D0009093A1052FEF2093A00510929F05260F64
:1002E00020939E0590937D0590917D05880F892B25
:1002F00080937D0580917C058130F9F410927C0516
:1003000080917D058093BB008091BC0083FDF8CF78
:1003100085EC8093BC008091A2058130E1F380914F
:100320009F05861710F460919F05AEE7B5E0ECE5F8
:10033000F5E080E0861303C0089585EEEACF9D9135
:1003400091938F5FF7CF90915B0580915A052FEFC6
:100350003FEF981748F4E92FF0E0E45AFA4F208174
:1003600030E09F5F90935B05C901089590915B0514
:1003700080915A052FEF3FEF981748F4E92FF0E0EE
:10038000E45AFA4F208130E09F5F90935B05C901EA
:10039000089581E00C940401089508952FB7F8940E
:1003A00083E08093E9009091E800892F807295FFA7
:1003B00004C09091F20080E4891B2FBF0895FC01D6
:1003C00080915505882311F13FB7F89482E080931E
:1003D000E9002091F200822F90E01816190614F41B
:1003E00081E090E0882339F0289A44E64093540550
:1003F0004091F1004083222339F02091F200211135
:1004000003C02BE62093E8003FBF08958FEF9FEFD6
:10041000089580914C0581110DC082E080934805BC
:1004200084E08093490510924B0510924A0581E0C3
:1004300080934C0588E495E00895409160045091C4
:10044000610420915E0430915F0442175307B4F4B5
:100450009091E8009570E1F39091E80092FD19C049
:100460008093F100809160049091610401968F73F4
:100470009927892B19F48EEF8093E800809160040E
:10048000909161040196909361048093600481E0EF
:10049000089580E00895EF92FF920F931F93CF93FA
:1004A000DF93F82E192FE62E042F81E0860F880F98
:1004B0000E941D0283E00E941D02CF2DD12FEC0E61
:1004C000FD2EF11CCE15DF05B9F007FF13C0FE01AC
:1004D00084910E941D02182F80E00E941D0281233A
:1004E00021968111EFCFDF91CF911F910F91FF9056
:1004F000EF9008958881EDCF81E0F5CFDF92EF9204
:10050000FF920F931F93CF93DF93D82E8A01EB01B5
:100510007B01E40EF51ECE15DF0559F0D7FE12C0A3
:10052000FE0184910E941D0221968111F4CF0FEFEC
:100530001FEFC801DF91CF911F910F91FF90EF90B6
:10054000DF9008958881EECF0F931F93CF93DF93B1
:100550001F92CDB7DEB782E0898342E450E06FE3BB
:1005600071E080E80E947E020E940902DC0112967E
:100570000D911C910115110589F0D801ED91FC91A7
:100580000280F381E02DBE016F5F7F4FC8010995A6
:1005900097FD04C0F80100851185ECCF89810F908B
:1005A000DF91CF911F910F910895615030F020910C
:1005B000F100FC0120830196F8CF289A84E680930D
:1005C00054050895CF93DF931F92CDB7DEB76983AB
:1005D000DC01ED91FC910280F381E02D41E050E0DF
:1005E000BE016F5F7F4F09950F90DF91CF91089506
:1005F00083E08093E9008091F200882319F08AE378
:100600008093E80008950E94CE0190E00895CF9372
:10061000DF931F92CDB7DEB7FC018485958597FDEA
:1006200008C02FEF3FEF358724870F90DF91CF91E0
:100630000895CE0101960E94DF01019719F4898186
:1006400090E0F3CF8FEF9FEFF0CF0F931F93CF93F7
:10065000DF931F92CDB7DEB78C01FC0184859585B1
:1006600097FF0BC0CE0101960E94DF01019771F444
:10067000898190E0F80195878487F80184859585C4
:100680000F90DF91CF911F910F9108958FEF9FEF02
:10069000F1CFFC018485958597FD0BC09FB7F89439
:1006A00082E08093E9008091F2009FBF90E0019684
:1006B00008959FB7F89482E08093E9008091F2005A
:1006C0009FBF90E0089581508F3008F047C0E82F19
:1006D000F0E0E359FC4F0C9467238A038E037C03FC
:1006E00082038603AE03AE03AE03910397039B031D
:1006F0009F03A503AE03A903809180008F778093A9
:1007000080000895809180008F7DF9CF80918000D6
:10071000877FF5CF84B58F7784BD089584B58F7DAD
:10072000FBCF809190008F77809390000895809107
:1007300090008F7DF9CF80919000877FF5CF8091D9
:10074000C0008F778093C00008958091C0008F7D96
:10075000F9CF8091C200877F8093C2000895CF9324
:10076000DF93282F30E0F901E05EFE4F8491F9011C
:10077000EF5FFE4FD491F901EE51FF4FC491CC23AE
:10078000A1F081110E946303EC2FF0E0EE0FFF1F38
:10079000EC52FF4FA591B491EC91ED2381E090E0F4
:1007A00009F480E0DF91CF91089580E090E0FACFE6
:1007B0001F93CF93DF93282F30E0F901E05EFE4FC7
:1007C0008491F901EF5FFE4FD491F901EE51FF4F93
:1007D000C491CC23A9F0162F81110E946303EC2F42
:1007E000F0E0EE0FFF1FEA53FF4FA591B4918FB7D2
:1007F000F894EC91111108C0D095DE23DC938FBFE3
:10080000DF91CF911F910895DE2BF8CF10925B05F9
:1008100010925A051092A4051092C6051092A205D6
:1008200081E08093A10510927C0561E082E00E9446
:10083000D80361E083E00E94D803E9EBF0E0808117
:100840008E7F808380818D7F808388E48093B80051
:1008500085E48093BC008CEC91E0909359058093E3
:1008600058058DEC91E090935705809356050895B7
:10087000CF93DF9390E0FC01EF5FFE4F24918E5108
:100880009F4FFC0184918823D1F090E0880F991F3D
:10089000FC01E854FF4FA591B491FC01EA53FF4FCE
:1008A000C591D491623071F49FB7F8943C91822F36
:1008B000809583238C93E8812E2B28839FBFDF9123
:1008C000CF9108958FB7F894EC912E2B2C938FBF76
:1008D000F6CF3FB7F89480915A0490915B04A091B1
:1008E0005C04B0915D0426B5A89B05C02F3F19F0AC
:1008F0000196A11DB11D3FBFBA2FA92F982F8827A0
:10090000BC01CD01620F711D811D911D42E0660F7A
:10091000771F881F991F4A95D1F708958F929F924C
:10092000AF92BF92CF92DF92EF92FF924B015C01A8
:100930000E9469046B017C010E9469046C197D09A5
:100940008E099F09683E734081059105A8F321E057
:10095000821A9108A108B10888EEC80E83E0D81E5B
:10096000E11CF11C81149104A104B10429F7FF904A
:10097000EF90DF90CF90BF90AF909F908F900895B1
:100980008F929F92AF92BF92CF92DF92EF92FF929F
:100990000F931F93CF93DF936C017B018A018091AA
:1009A0000B01882309F45CC080915505882309F464
:1009B00057C08091640480FF05C08091E000826090
:1009C0008093E000E801B12C8AEFA82E93E0892EF5
:1009D0002AE3922E209711F4BB20D9F10E94CE0178
:1009E00081110AC0AA94AA20D9F161E070E080E0E8
:1009F00090E00E948E04EECF8C171D0611F00CF0D3
:100A00008C2F9FB7F8948092E9002091E80025FD93
:100A100002C09FBFDFCF282F30E0C21BD30BF701EE
:100A2000815020F041914093F100FACFE20EF31E85
:100A3000BB2021F09092E800B12CEBCF8091E80030
:100A400085FDE7CF9092E800BB24B394209709F38B
:100A5000F3CF5D9A84E680936304101611063CF090
:100A600081E090E0F6019383828310E000E0C8010A
:100A7000DF91CF911F910F91FF90EF90DF90CF907A
:100A8000BF90AF909F908F90089585ED8093BC00AC
:100A90008091BC0084FDFCCF1092A20508952091A6
:100AA0003604260F3327331F21323105ECF4209111
:100AB000A205FC0190E080E0243069F082E0089516
:100AC000A09136042191AC014A5E5B4FA40FB52F73
:100AD000B11D2C930196861798F380913604680F08
:100AE0006093360480E0089581E008950895E091D0
:100AF0005B0580915A05E81730F4F0E0E45AFA4FAC
:100B0000808190E008958FEF9FEF089580915A05BE
:100B100090915B05891B990B0895CF92DF92EF921C
:100B2000FF920F931F93CF93DF937C01CB018A0138
:100B30002091A305222389F0EB016B01C40ED51E81
:100B4000CC15DD0569F06991D701ED91FC9101901B
:100B5000F081E02DC7010995F3CF642F0E944F0566
:100B6000C801DF91CF911F910F91FF90EF90DF901F
:100B7000CF900895CF93DF931F92CDB7DEB76983EF
:100B80002091A3052223F9F02091C605203258F0C8
:100B900021E030E0FC013383228390E080E00F907D
:100BA000DF91CF9108958091A405E82FF0E0EB55F7
:100BB000FA4F998190838F5F8093A4058093C60537
:100BC00081E090E0ECCF61E0CE0101960E944F05FC
:100BD000F7CF682F8FEA96E00C94BA0590E080E09A
:100BE00008950F931F93CF93DF93EC018A018881BF
:100BF0009981DC01ED91FC910190F081E02D099546
:100C00000817190711F081E08A83DF91CF911F91B6
:100C10000F910895FC018FEB860F8A31C0F08FE9A8
:100C2000860F8A3118F489EB860F089580ED860FC0
:100C30008A3010F484E0F8CF6B3231F06F3231F04B
:100C400081E0808380E008958EE308958FE3089526
:100C5000EF92FF920F931F93CF93DF93FC01838555
:100C6000811144C0C781D0852097E1F081859285AC
:100C70008C1B9D0B7F0124E0E20EF11C30E020E094
:100C8000281739075CF487010C0F1D1FD8011C9130
:100C9000D7011D937D012F5F3F4FF2CF1086178242
:100CA00092878187DB0190E080E084179507D4F478
:100CB00021853285233031054CF021E02387DF91F7
:100CC000CF911F910F91FF90EF9008950196B90178
:100CD0006F5F7F4F728761876D912E0F3F1FE90114
:100CE0006C83E3CF4817590751F3E7CF90E080E0DA
:100CF000E6CF02970C942806CF93DF93FC018385FF
:100D0000811122C021853285878190852817390776
:100D1000C9F0DB0190E080E084179507BCF42781DF
:100D20003085618572852617370784F4B9016F5FB6
:100D30007F4F7087678301962E0F3F1FE9012C813B
:100D40002D93EACF81E0838790E080E0DF91CF911F
:100D50000895EF92FF920F931F93CF93DF93DC01DF
:100D60007C0188E4E80EF11CF701808181112DC01F
:100D70008D010A5B1F4FED01CC5BDF4FF801208135
:100D800031818881998128173907E1F07B0190E052
:100D900080E084179507DCF428813981F8016081AF
:100DA0007181261737079CF4B9016F5F7F4F7983F4
:100DB000688301962A0F3B1FF9012481F7012193D3
:100DC0007F01E7CF81E0F701808390E080E0DF9151
:100DD000CF911F910F91FF90EF9008958F929F9266
:100DE000AF92BF92CF92DF92EF92FF920F931F9339
:100DF000CF93DF939C014C0188E8880E911CE4019D
:100E00008881811158C06901D4E8CD0ED11CF6014A
:100E10000081118101151105F1F07901F6E8EF0E5D
:100E2000F11CE70188819981801B910BD9011496EF
:100E3000F0E0E0E0E817F90744F45D01A00EB11E10
:100E4000E501B880BD923196F5CFF601118210828E
:100E5000E70199838883FB0190E080E0D901AA57DC
:100E6000BF4F841795071CF56D917C9111976038E1
:100E7000710584F021E0F4012083DF91CF911F916F
:100E80000F91FF90EF90DF90CF90BF90AF909F9029
:100E90008F90089501968B010F5F1F4F11961C9341
:100EA0000E931191620F731FEB011C83DACF481769
:100EB000590719F3DFCF90E080E0DFCF02970C9461
:100EC000EE06EF92FF920F931F93CF93DF93DC0117
:100ED0007C0188E8E80EF11CF701808181112DC0AA
:100EE0008D010A571F4FED01CC57DF4FF8012081CC
:100EF00031818881998128173907E1F07B0190E0E1
:100F000080E084179507DCF428813981F80160813D
:100F10007181261737079CF4B9016F5F7F4F798382
:100F2000688301962A0F3B1FF9012481F701219361
:100F30007F01E7CF81E0F701808390E080E0DF91DF
:100F4000CF911F910F91FF90EF9008958F929F92F4
:100F5000AF92BF92CF92DF92EF92FF920F931F93C7
:100F6000CF93DF939C014C0188E4880E911CE4012F
:100F70008881811158C06901D4E4CD0ED11CF601DD
:100F80000081118101151105F1F07901F6E4EF0EF0
:100F9000F11CE70188819981801B910BD90114967E
:100FA000F0E0E0E0E817F90744F45D01A00EB11E9F
:100FB000E501B880BD923196F5CFF601118210821D
:100FC000E70199838883FB0190E080E0D901AA5B67
:100FD000BF4F841795071CF56D917C911197603474
:100FE000710584F021E0F4012083DF91CF911F91FE
:100FF0000F91FF90EF90DF90CF90BF90AF909F90B8
:101000008F90089501968B010F5F1F4F11961C93CF
:101010000E931191620F731FEB011C83DACF4817F7
:10102000590719F3DFCF90E080E0DFCF02970C94EF
:10103000A6070F931F93CF93DF938B01EA010E94C2
:10104000CE01482F50E0C417D5070CF4AE01B8010B
:1010500087EC95E0DF91CF911F910F910C94C00424
:101060000F931F93CF93DF93EC018B018A819B81B8
:10107000DC01ED91FC910190F081E02D09959C013E
:101080009C81D801AD01401B510B421753073CF422
:10109000ED91E927F0E0E359FE4F9081F3CF9C8377
:1010A000C901DF91CF911F910F910895CF93DF93E5
:1010B000DC0114968C911497EB019E01261B370BD3
:1010C000241735073CF4E991E827F0E0E359FE4F97
:1010D0008081F3CF14968C93149712968D919C91E6
:1010E000DC01ED91FC910190F081E02DDF91CF9139
:1010F0000994CF93DF93EC0189859A85813091051E
:10110000D9F481E48B878C878DE38D878E878C81E2
:101110009D81BE01655F7F4FDC01ED91FC910190E7
:10112000F081E02D44E050E00995049711F081E052
:101130008F871A86198647C082309105E9F48F811E
:1011400090E0982F882721E42B87DC01AB2FBB2769
:10115000A295AF70A45DBE4F2C912C87DC0166E098
:10116000B695A7956A95E1F7AF73BB27A45DBE4F0F
:101170008C918D878DE3CACF039719F58F81988560
:1011800098278927982721E42B87DC01AB2FBB27E1
:10119000A295AF70A45DBE4F2C912C87DC0136E088
:1011A000B695A7953A95E1F7AF73BB27A45DBE4FFF
:1011B0002C912D878F739927DC01A45DBE4F8C91F4
:1011C000A5CF81E08F87DF91CF910895CF92DF92F5
:1011D000EF92FF920F931F93CF93DF93EC016B017C
:1011E0008A018F8581111CC07B01C7018C199D0963
:1011F00080179107BCF489859A859C012F5F3F4F2A
:101200003A872987F70141917F018C0F9D1FFC01CF
:1012100046832330310549F7CE010E947908E5CF96
:1012200010E000E0C801DF91CF911F910F91FF9076
:10123000EF90DF90CF900895FC012785211107C022
:10124000218532851216130614F40C94790808953A
:1012500002970C941C09CF93DF931F92CDB7DEB792
:101260006983DC01ED91FC910190F081E02D41E07A
:1012700050E0BE016F5F7F4F09950F90DF91CF91D6
:1012800008952F923F924F925F926F927F928F922A
:101290009F92AF92BF92CF92DF92EF92FF920F9305
:1012A0001F93CF93DF9300D01F92CDB7DEB78C0191
:1012B0003A016A837B83912C812C1C0124E0220E4D
:1012C000311C7C0184E1E80EF11C5801AAE0AA0E51
:1012D000B11C2801B8E04B0E511C861497040CF089
:1012E000B9C0F80121893289878590892817390783
:1012F00001F582819381DC01ED91FC910190F081F7
:10130000E02D44E050E0B1010995F801E80FF91F24
:10131000181619064CF49C0121503109319744816B
:101320004D3309F5C901F4CF009781F521E0F801AB
:10133000248BF801848981118BC041E050E0BE010B
:101340006F5F7F4FC2010E947C068981AA81BB81A9
:101350008D93BB83AA83F801848981117CC0FFEF40
:101360008F1A9F0ABACF8130910581F4D801149663
:101370006C91C7010E940A0660E0C5010E942B091A
:10138000D80153968C918111D1CFD3CF8230910562
:1013900049F4F8016481C7010E940A06D801159634
:1013A0006C91E7CF8330910519F5F8016481C7018D
:1013B0000E940A06D80115966C91C7010E940A0680
:1013C000D82EF8016681C7010E940A06C82E60E087
:1013D000C5010E942B098D2D90E0982F88279295AA
:1013E000907FF0E4CF9E60011124D92A6D2DC5CFE6
:1013F000049731F6D80114966C91C7010E940A0631
:10140000F8016581C7010E940A06C82ED801169608
:101410006C91C7010E940A06D12CDC2CCC24D294FA
:1014200090EFD922B0E48B9FC0011124C82AD92A99
:10143000F8016781C7010E940A06C82A60E0C50159
:101440000E942B096D2DC5010E942B096C2D95CF93
:1014500080E07CCF4301C4010F900F900F90DF918B
:10146000CF911F910F91FF90EF90DF90CF90BF90A1
:10147000AF909F908F907F906F905F904F903F9034
:101480002F900895E82FF0E0E054FD4F80810C94F8
:10149000D803823098F4662319F0613049F008953A
:1014A000E82FF0E0E65DFE4F60E080810C94D80309
:1014B000E82FF0E0E65DFE4F61E0F7CF0895CF93AF
:1014C000853088F5C62F811128C060E00E94D803BE
:1014D00062E370E080E090E00E948E046C2F84E074
:1014E0000E94D80362E370E080E090E00E948E04E6
:1014F00061E080E00E94D80362E370E080E090E069
:101500000E948E0460E080E00E94D80362E370E0F5
:1015100080E090E0CF910C948E04E82FF0E0E05E44
:10152000FE4F8081F1CFCF9108950F931F93EFB7B6
:10153000F894009174041091750420917604309110
:101540007704EFBFFC0180819181A281B381081BE8
:10155000190B2A0B3B0B81E04017510762077307F9
:1015600008F080E01F910F9108952FB7F8944091F3
:1015700074045091750460917604709177042FBFC4
:10158000FC0140835183628373830895282F30E0E8
:1015900094E0359527959A95E1F7922F990F990F39
:1015A000291B220F820F08951F93CF93DF93EC0125
:1015B000162F43960E94B50ACE0147960E94B50A9F
:1015C000CE014B960E94B50ACE010F960E94B50A35
:1015D0001A87DF91CF911F910895DF92EF92FF92CA
:1015E0000F931F93CF93DF93182FDAE001E000935E
:1015F000A3051093C5051092A4051092C60565E0D9
:1016000070E080E090E00E948E0490E080E00E9414
:10161000E90565E070E080E090E00E948E0480E0E3
:101620000E94040181113CC065E070E080E090E020
:101630000E948E0463E0812F0E94610110925B057D
:1016400080935A05833061F565E070E080E090E0BA
:101650000E948E040E94B6010E94B601D82E0E94FC
:10166000B601C82F81E00E940401811119C065E014
:1016700070E080E090E00E948E04D0FAEE24E0F862
:101680002C2F3E2DC90124E0880F991F2A95E1F7E0
:10169000DF91CF911F910F91FF90EF90DF90089510
:1016A000D15009F0A4CF8FEF9FEFF2CF80910C01C2
:1016B000882319F080E60C94ED0A8FEF9FEF0895D0
:1016C00090910C01992349F0853050F4E82FF0E017
:1016D000EB5DFE4F80810C94ED0A8FEF9FEF089534
:1016E00090E080E008950E94610110925B05809374
:1016F0005A0508951F93CF93DF9390910C0199237E
:1017000009F46CC0853008F06CC0811125C0ECEA8A
:10171000F0E0E49190917B008E2F880F880F80720B
:101720009F7D892B80937B00E770E064E0937C00D1
:1017300080917A00806480937A0080917A0086FD9F
:10174000FCCF90917800809179008927982789278C
:10175000DF91CF911F910895E82FF0E0EA5EFE4FF0
:10176000608180E2689FE0011124C868DAE011E03E
:10177000809115041093A3058093C5051092A405CC
:101780001092C6056C2F8FEA96E00E94BA050E945F
:10179000C901882311F0D15059F760E570E080E06D
:1017A00090E00E948E048091150463E070E090E068
:1017B0000E94730B20915A0580915B05281B330B07
:1017C0008AE02330310584F48150D9F78FEF9FEF01
:1017D00025E0969587952A95E1F7BACF8FEF9FEF91
:1017E000B7CF90E080E0B4CF0E94B601D82F0E941E
:1017F000B601C82F0E94B60180E09D2F8C2BE8CF48
:101800002F923F924F925F926F927F928F929F9210
:10181000AF92BF92CF92DF92EF92FF920F931F93FE
:10182000CF93DF9381E08093A3058FE68093C50576
:101830001092A4051092C60560E08FEA96E00E941F
:10184000BA050E94C9018111D5C067E070E08FE63A
:1018500090E00E94730B0E94B6018F770E94C60A27
:10186000382E0E94B6010E94C60A482E0E94B60178
:101870008F7B0E94C60A582E0E94B6010E94B601B4
:101880000E94C60A282E0E94B6018F7D0E94C60AB9
:10189000682E0E94B6010E94C60ACEE1C80FAC2F86
:1018A000B0E020E833E341EE51E00E9483234B0196
:1018B0005C01E2EBF7E09D01C4E6D0E000E911E055
:1018C000CF01825B97408217930784F12E54384FE3
:1018D000C90164E670E00E9431237C01C90160E91E
:1018E00071E00E9431236C010EE712E0C1E0D0E00C
:1018F000712CF901E370FF27C615D7050CF03FC026
:10190000C230D10569F5309759F5E114F10419F4A5
:10191000C114D10429F590E8890E9BE3991E96E243
:10192000A91EB11C21960F5F1F4FE6CFCF01837018
:101930009927892B99F4CF01BE010E943123892B6D
:1019400031F4CF01B8010E943123892B39F480E8AA
:10195000880E81E5981E81E0A81EB11C3196B0CF9B
:10196000D8018C91A82FB0E020E831E541E050E0AB
:101970000E948323860E971EA81EB91ED3CF252D45
:1019800030E0A0E1BEE00E946D236B017C01242DBC
:1019900030E0ACE3B0E00E946D23C60ED71EE81E17
:1019A000F91EC30CD11CE11CF11C822D8150990B36
:1019B000DC0120E831E541E050E00E948E236C0D0F
:1019C0007D1D8E1D9F1D680D791D8A1D9B1DDF913C
:1019D000CF911F910F91FF90EF90DF90CF90BF902C
:1019E000AF909F908F907F906F905F904F903F90BF
:1019F0002F90089560E070E0CB01E9CFFC010190E9
:101A00000020E9F73197AF01481B590BBC0187EC67
:101A100095E00C94C0048F929F92AF92BF920F9367
:101A20001F93CF93DF93CDB7DEB7A1970FB6F8948E
:101A3000DEBF0FBECDBF19A2423008F44AE08E01CE
:101A40000F5D1F4F842E912CB12CA12CA501940168
:101A50000E944523E62FB901CA01EA30F4F4E05DA3
:101A6000D801EE938D01232B242B252B79F790E0C1
:101A700080E0109719F0CD010E94FE0CA1960FB6E0
:101A8000F894DEBF0FBECDBFDF91CF911F910F91B4
:101A9000BF90AF909F908F900895E95CE1CF682F41
:101AA00070E090E080E04AE00C940B0D84EF92E04F
:101AB0000C94FE0C009711F00C94FE0C0895CF933B
:101AC000DF93EC0187EF92E00E94FE0C209719F063
:101AD000CE010E94FE0C60E287EC95E0DF91CF9191
:101AE0000C94E202CF93DF93FC012285233099F41A
:101AF000EC01808191810E945F0D8DEF92E00E9448
:101B00005A0D0E94560D64E0CE010E94D40A80E076
:101B1000DF91CF91089581E0FBCF0C940F23EF92DA
:101B2000FF920F931F93CF93DF9361E08DE00E94AC
:101B3000380461E089E00E94380480E2E82E81E008
:101B4000F82E0BE111E0D0E0C0E061E0F7018191F7
:101B50007F010E94380462E0F80181918F010E94A8
:101B60003804FE01E159FB4F10822196C530D105A2
:101B700061F761E081E00E94380461E085E10E9444
:101B8000380461E080E00E94380480E290E00E9426
:101B90008D0D91E0811101C090E090930C010E94A5
:101BA000060468EC70E080E090E00E948E048EE60F
:101BB0008093150468EC70E080E090E00E948E0451
:101BC00068EC70E080E090E00E948E04F89410923F
:101BD00080001092810081E080936F0083E0809309
:101BE00081007894DF91CF911F910F91FF90EF903A
:101BF0000895FC018081918101960C948D0D0F93C5
:101C00001F93CF93DF938C01EB010E940F238883F6
:101C1000C80101960E940F238983CE01DF91CF91E5
:101C20001F910F910895CF93DF9300D0CDB7DEB70A
:101C300020E8829FC0011124BE016F5F7F4F855F46
:101C40009E4F0E94FF0D89819A810F900F90DF9126
:101C5000CF9108950F931F93CF93DF9300D0CDB70B
:101C6000DEB7FC012085222341F081850F900F9083
:101C7000DF91CF911F910F9108958C01FC0182811A
:101C80009385992349F00E94130E83709927F801D8
:101C9000039789F48581EACFF0E88F9FC001112472
:101CA000BE016F5F7F4F895F9E4F0E94FF0D89814C
:101CB000F80180FDEFCF8481D9CFCF92DF92EF92F0
:101CC000FF920F931F93CF93DF93EB017B0124E0EF
:101CD000E20EF11C8B016C01C61AD70AC601800FF7
:101CE000911F0E940F23F80181938F01EE15FF05CC
:101CF000A9F7CE01DF91CF911F910F91FF90EF9047
:101D0000DF90CF900895CF92DF92EF92FF920F93E2
:101D10001F93CF93DF9300D000D0CDB7DEB76C0117
:101D2000E62EFC0100811181C8010E948D0DF82E64
:101D3000C6010E94F90DE81640F52F2D2E0D332710
:101D4000331FC901F601628170E00E943123880FC0
:101D5000991F880F991F0E5F1F4FBE016F5F7F4F46
:101D6000800F911F0E945D0E69817A818B819C8119
:101D70000F900F900F900F90DF91CF911F910F91C7
:101D8000FF90EF90DF90CF90089560E070E0CB017E
:101D9000EFCFAF92BF92CF92DF92EF92FF920F936D
:101DA0001F93CF93DF93CDB7DEB75C017B01CDB638
:101DB000DEB6DC0112968C91129781113EC0EDB710
:101DC000FEB7E61BF70B0FB6F894FEBF0FBEEDBFD4
:101DD0000DB71EB70F5F1F4F8D919C91DC01ED91E8
:101DE000FC910190F081E02DAB01B8010995E81656
:101DF000F90619F081E0F5018283D50112968C91E4
:101E000081111BC0F801E00EF11E80E02191422FEC
:101E1000582FCA01EE15FF05C9F70FB6F894DEBEBC
:101E20000FBECDBEDF91CF911F910F91FF90EF902C
:101E3000DF90CF90BF90AF90089590E080E0EDCF1D
:101E4000EF92FF920F931F93CF93DF9300D01F92D7
:101E5000CDB7DEB77C0129E5E20EF11CF701208148
:101E6000222369F010E000E0C8010F900F900F905E
:101E7000DF91CF911F910F91FF90EF9008950E96F3
:101E80009A8389831B8261E070E0CE0101960E94F3
:101E9000C90E8630910501F140F461E070E00497CD
:101EA00059F081E0F70180830CC088309105B9F0CA
:101EB00064E070E00A97A9F7CE0101960E94C90E6E
:101EC0008C018B81882319F081E0F7018083F70171
:101ED0008081882349F2C6CF62E070E0EDCF63E0F5
:101EE00070E0EACF0F931F93CF93DF93CDB7DEB7A8
:101EF0000DB71EB7FC01228121111CC02DB73EB7C2
:101F0000241B350B0FB6F8943EBF0FBE2DBF2F5FBD
:101F10003F4FF901E40FF51F6293672F70E0E2175E
:101F2000F307D1F7BF010E94F1050FB6F8941EBF69
:101F30000FBE0DBF0FB6F8941EBF0FBE0DBFDF91D1
:101F4000CF911F910F9108958F929F92AF92BF9260
:101F5000CF92DF92EF92FF920F931F93CF93DF9375
:101F6000CDB7DEB728970FB6F894DEBF0FBECDBF52
:101F70007C0129E5E20EF11CF701208121119FC0AF
:101F80008C015C01F7E5AF0EB11CF50180819181F8
:101F900021E732E03A8329839C838B831D82CE0123
:101FA00001969F838E8318866801F4E5CF0ED11CBD
:101FB000480122E5820E911CF60160817181F401D5
:101FC00080819181681B790B42E050E0CE0106963A
:101FD0000E94720FF8016081718144E050E0CE01EF
:101FE00006960E94720FF8016481758142E050E00C
:101FF000CE0106960E94720FF8016681778141E05A
:1020000050E0CE0106960E94720FF801608571853E
:1020100041E050E0CE0106960E94720FF801628501
:10202000738542E050E0CE0106960E94720FF801DF
:102030006485758541E050E0CE0106960E94720FDE
:10204000888581110FC0F60140815181F4018081A2
:102050009181481B590BB8016E5E7F4FCE010696E9
:102060000E94F105F40111821082F60111821082A2
:10207000F801EA5AFF4F10826D81F501808191814C
:102080000E942B098885882319F081E0F70180835D
:10209000F701808191E0892728960FB6F894DEBF7A
:1020A0000FBECDBFDF91CF911F910F91FF90EF90A9
:1020B000DF90CF90BF90AF909F908F90089580E079
:1020C000EBCFCF92DF92EF92FF920F931F93CF93BC
:1020D000DF93CDB7DEB7C556D1090FB6F894DEBF92
:1020E0000FBECDBF7C0180910C01811182C08FEFAA
:1020F0006C968FAF6C976D968FAF6D976E968FAF16
:102100006E976F968FAF6F97A0968FAFA097A1969F
:102110008FAFA197A2968FAFA297A3968FAFA397E9
:1021200082EA92E0988B8F878AEA92E09A8B898B79
:1021300065961FAE1EAE659767961FAE1EAE67977B
:1021400068961FAE68976A96FFAEEEAE6A976B967A
:102150001FAE6B9719821A821B821C8218861F82FF
:102160001E861D868AE19FEF9E838D8381E090E02D
:102170009A8789879C878B87CE014196A5969FAFCA
:102180008EAFA597A6961FAEA69741E050E061E8F6
:1021900070E08E5A9F4F0E94720F42E050E068E05C
:1021A00070E0CE018D599F4F0E94720FA6968FADA1
:1021B000A69781110AC048E050E0BE01655A7F4FE2
:1021C000CE018D599F4F0E94F105CE0101960E94CC
:1021D000A40FCB59DF4F0FB6F894DEBF0FBECDBFB3
:1021E000DF91CF911F910F91FF90EF90DF90CF90F3
:1021F000089581E08093A30587E58093C50510923B
:10220000A4051092C60580EF90E00E94E9050E94A7
:10221000C90168E070E087E590E00E94730B8E01D1
:10222000055A1F4F680188E0C80ED11C0E94B601F4
:10223000F80181938F01EC15FD05C1F771CF0F9364
:102240001F93CF93DF93CDB7DEB7CD55D1090FB62E
:10225000F894DEBF0FBECDBF890122EA32E0388B91
:102260002F872AEA32E03A8B298B65961FAE1EAE85
:10227000659767961FAE1EAE679768961FAE689704
:102280006A969FAF8EAF6A976B961FAE6B97198257
:102290001A821B821C8218861F821E861D867E83E0
:1022A0006D835A87498781E090E09C878B87CE01B8
:1022B00041966D969FAF8EAF6D976E961FAE6E97DF
:1022C00041E050E00F3F110509F0F0F464E070E0E8
:1022D000865B9F4F0E94720F41E050E0B801CE0133
:1022E000855A9F4F0E94720FCE0101960E94A40F43
:1022F000C35ADF4F0FB6F894DEBF0FBECDBFDF91DC
:10230000CF911F910F91089566E070E0CE01855A3C
:102310009F4F0E94720F42E050E0E0CF0C941723D1
:1023200020E8829FC00111248A5D9E4F0C948E117B
:10233000CF93DF93FC0122852223A9F1EC01808158
:1023400091810E945F0D86E093E00E945A0D0E94E9
:10235000560D63E08A810E9490116AE070E080E08F
:1023600090E00E948E0460E08A810E945F0A64EF20
:1023700071E080E090E00E948E0460E08A810E941B
:1023800090116AE070E080E090E00E948E0461E0CD
:10239000CE010E94D40A8BE694E00E94B50A80E048
:1023A000DF91CF91089581E0FBCFCF93DF93EC01D4
:1023B0008A81882351F090E0029660E09695982FEC
:1023C0008827979587950E948E11CE010E949811BB
:1023D0008A81882321F060E0CE010E94D40A80E047
:1023E000DF91CF910895CF93DF93EC018A8190E044
:1023F000029661E09695982F8827979587950E9479
:102400008E1161E0CE010E94D40A80E0DF91CF916D
:102410000895FF920F931F93CF93DF93EC01F62E55
:1024200008811981C8010E940F23F81621F06F2D31
:10243000C8010E941723CE01DF91CF911F910F9108
:10244000FF900895EF92FF920F931F93CF93DF9326
:1024500000D0CDB7DEB78C017B019A838983FB0165
:102460006081CE0101960E9409120F5F1F4F1A83EF
:102470000983F7016181CE0101960E940912C7010B
:102480000F900F90DF91CF911F910F91FF90EF90E0
:1024900008951F93CF93DF9300D0CDB7DEB7182FE9
:1024A0000E94130E01969A83898320E8129FC0012F
:1024B0001124BE016F5F7F4F855F9E4F0E942212E5
:1024C0000F900F90DF91CF911F910895EF92FF929F
:1024D0000F931F93CF93DF9300D0CDB7DEB78C015E
:1024E0007B019A838983FB016081CE0101960E9462
:1024F00009120F5F1F4F1A830983F7016181CE0113
:1025000001960E940912C7010F900F90DF91CF91A1
:102510001F910F91FF90EF900895AF92BF92CF92CD
:10252000DF92EF92FF920F931F93CF93DF9300D030
:10253000CDB7DEB78B016B0124E0C20ED11C7B014D
:102540005C01A61AB70AC5018E0D9F1D9A83898367
:10255000F70161917F01CE0101960E940912EC14EE
:10256000FD0489F7C8010F900F90DF91CF911F9163
:102570000F91FF90EF90DF90CF90BF90AF900895B4
:10258000AF92BF92CF92DF92EF92FF920F931F9381
:10259000CF93DF9300D000D000D0CDB7DEB78C0151
:1025A000FC0182810E94130E21E08115944008F005
:1025B00020E0F8012387C8010E942A0EF82EF801B6
:1025C0001086682F83810E94490AF80180819181D9
:1025D0000E945F0D80E293E00E945A0DF801848111
:1025E000F81609F4A2C086E193E00E945A0D0E94F9
:1025F000560DF801E280F0E8EF9E7001112497017A
:10260000295F3E4F7901BE016F5F7F4FC9010E9474
:10261000FF0D89819A8101969E838D83BE016B5F38
:102620007F4FC7010E94221280910C01882309F478
:102630007FC00E94000CF801D2802D2D30E069830C
:102640007A838B839C837901EE0CFF1CE20EF31ED0
:1026500097012056394F7901F901A080B180C50159
:102660000E948D0DC82EF3E0DF9EC001112480561C
:10267000994F0E94F90DD82E2C2D280F3327331F88
:10268000C901F701628170E00E943123880F991F10
:10269000880F991FF2E0AF0EB11CBE016F5F7F4F34
:1026A0008A0D9B1D0E948D12F701228180819181EC
:1026B00061E0D21241C06C0D0E948E1162E0F801FF
:1026C00082810E9490116AE070E080E090E00E94B8
:1026D0008E0461E0F80182810E945F0A64EF71E07C
:1026E00080E090E00E948E0461E0F80182810E9407
:1026F00090116AE070E080E090E00E948E0463E058
:10270000C8010E94D40A80E026960FB6F894DEBF76
:102710000FBECDBFDF91CF911F910F91FF90EF9032
:10272000DF90CF90BF90AF9008958EE093E05DCFA3
:1027300060E070E0CB017FCF6D0D0196BDCF1F92A1
:102740000F920FB60F9211248F939F938091E10007
:102750009091E100937F9093E10083FF0FC010926E
:10276000E90091E09093EB001092EC0092E39093DB
:10277000ED001092550598E09093F00082FF22C082
:1027800093E09093E9009091F200992319F09AE375
:102790009093E80090916304992341F09091630431
:1027A000915090936304911101C05D9890915405EC
:1027B000992341F0909154059150909354059111B3
:1027C00001C0289884FF18C08091E2008E7E81604D
:1027D0008093E2008091E1008F7E8093E100809100
:1027E00064048E7E8061809364049F918F910F902A
:1027F0000FBE0F901F90189580FFF7CF8091E200D9
:102800008E7E80618093E2008091E1008E7E8093D5
:10281000E100809164048E7E8160E5CF1F920F926B
:102820000FB60F921124CF92DF92EF92FF920F9387
:102830001F932F933F934F935F936F937F938F9348
:102840009F93AF93BF93EF93FF93CF93DF93CDB756
:10285000DEB76C97DEBFCDBF1092E9008091E80033
:1028600083FF25C068E0CE0145960E94D50282EF25
:102870008093E8008D8987FF39C09091E80090FF30
:10288000FCCF982F907609F034C19E894F89588DDE
:102890002F89F88C911131C0803861F580916504E1
:1028A0008093F1001092F1008EEF8093E8006C9617
:1028B0000FB6F894DEBF0FBECDBFDF91CF91FF9171
:1028C000EF91BF91AF919F918F917F916F915F91A8
:1028D0004F913F912F911F910F91FF90EF90DF90BB
:1028E000CF900F900FBE0F901F9018959EEF909372
:1028F000E800C7CF1092F100D5CF913059F4811183
:10290000D3CF4130510581F6809165048D7F80934E
:102910006504CACF933049F48111C6CF41305105C7
:1029200019F6809165048260F2CF953041F4809170
:10293000E80080FFFCCF20682093E300B5CF9630FD
:1029400009F0A9C00B8D1C8D22E01092E9001092B5
:10295000610410926004F2122EC010925F04109273
:102960005E040E94A4021F8299E09983FA8291E09A
:102970009E8390EA98879AEF99872091600430911E
:102980006104275F3F4F3C832B838D831092E900C6
:10299000109261041092600410935F0400935E042F
:1029A00049E050E0BE016F5F7F4F80E00E947E02F1
:1029B0000E94A40279CF10935F0400935E040E94EA
:1029C0000902DC0112960D911C910115110509F403
:1029D00051C1D801ED91FC910480F581E02DBE013B
:1029E0006B5E7F4FC8010995009709F03EC1F80161
:1029F00000851185EACFF3E0FF120EC08F8988238E
:102A000009F440C0823061F440E86DE083EA91E06F
:102A10000E944B02811148CF81E28093EB0047CFA7
:102A2000813029F440E86BE087E991E0F1CF833011
:102A300099F70E940902DC011296ED90FC908E013C
:102A40000F5F1F4F6801E114F10479F0D701ED9198
:102A5000FC910680F781E02DB801C7010995080FA8
:102A6000111DF701E084F184EECFD8011C92F6012C
:102A700001900020E9F73197BF016C197D0940E012
:102A8000C601C6CF61E871E0FB01449150E080E8E7
:102A90000E947E0209CF973009F4BECF983021F40E
:102AA00081E08093F10000CF993009F0FDCE837072
:102AB00009F0B2CFE4E7F2E081E031E096E3219162
:102AC000222371F08093E9003093EB00DF0111972E
:102AD0002C912093EC009093ED008F5F873079F775
:102AE0008EE78093EA001092EA008F898093550563
:102AF000DBCE8B8D9C8D1092E900109261041092B8
:102B0000600490935F0480935E04898D811192C06C
:102B10008E899D89913A49F4813209F07DCF47E051
:102B200050E064E071E080E0B3CF913209F074CFFF
:102B3000833269F48F89988DB0E0A0E08093000122
:102B400090930101A0930201B0930301ADCE8032B6
:102B500069F48091E80082FFFCCF67E084E091E0B7
:102B60000E94D5028BEF8093E8009ECE823209F05E
:102B70009BCE8F8980930B01EEEFFFE785919491B7
:102B80008B3F9C4D51F1E0E0F8E080910401909181
:102B90000501A0910601B0910701803B9440A10579
:102BA000B105F1F480910B0180FD1AC0EE3F8AE07F
:102BB000F80789F587E797E7918380838091600024
:102BC0008093620488E19BE00FB6F894A895809307
:102BD00060000FBE9093600067CEEEEFFAE0D5CFB5
:102BE000808191818737974709F05ECEA8958091C3
:102BF000600088618093600080916204809360002F
:102C0000EE3F2AE0F20789F08091FE0A9091FF0AD8
:102C10009183808349CE808191818737980751F2D3
:102C20009093FF0A8093FE0AC5CF1092FF0A10927C
:102C3000FE0A3ACE0E940902DC0112960D911C9107
:102C40000115110509F4E8CED801ED91FC91019030
:102C5000F081E02DBE016B5E7F4FC80109958111A7
:102C600023CEF80100851185EBCF181619060CF458
:102C70001BCED2CEF1E0FF12BECE65E871E004CFEC
:102C80001F920F920FB60F9211242F933F938F93A1
:102C90009F93AF93BF938091740490917504A0911A
:102CA0007604B09177043091590423E0230F2D3737
:102CB00058F50196A11DB11D209359048093740409
:102CC00090937504A0937604B093770480915A048E
:102CD00090915B04A0915C04B0915D040196A11DEC
:102CE000B11D80935A0490935B04A0935C04B0934D
:102CF0005D04BF91AF919F918F913F912F910F9064
:102D00000FBE0F901F90189526E8230F0296A11D65
:102D1000B11DD2CF1F920F920FB60F9211242F9395
:102D20003F934F935F936F937F938F939F93AF9353
:102D3000BF93EF93FF938091B900887F803609F4A9
:102D40004AC0F0F5883209F4A7C018F5803109F4BB
:102D50009BC0B8F4882309F4F9C0883009F494C002
:102D6000FF91EF91BF91AF919F918F917F916F9163
:102D70005F914F913F912F910F900FBE0F901F9039
:102D80001895883109F488C0803251F78093A005E6
:102D900014C0803409F49DC040F48033B9F3883303
:102DA000F9F68093A00585ECB0C0803509F485C0A4
:102DB000883509F496C0883499F60E944505D0CF2D
:102DC000883909F48CC038F5883729F050F48836F2
:102DD00011F0803729F683E08093A2051092580401
:102DE00057C0883809F47BC0803919F0803809F061
:102DF000B7CF80915804803208F071C0E091580438
:102E000081E08E0F809358048091BB00F0E0E85C75
:102E1000FB4F80833DC0803B39F0E0F4803A09F4F9
:102E200079C0883A09F09CCF84E08093A205109283
:102E3000370410923604E0915805F0915905099530
:102E40008091360481110FC081E080933604109286
:102E5000160409C0803C09F4A6CF883C09F4A3CF2E
:102E6000883B09F07DCFE091370481E08E0F80939D
:102E70003704F0E0EA5EFB4F80818093BB009091C5
:102E800037048091360429C080917D058093BB0072
:102E900085EC8093BC0064CF90919F0580919E0546
:102EA000981758F5E0919F0581E08E0F80939F055C
:102EB000F0E0E258FA4F8081E9CFE0919F0581E090
:102EC0008E0F80939F058091BB00F0E0E258FA4F8F
:102ED000808390919F0580919E059817C8F285E8A0
:102EE000D8CFE0919F0581E08E0F80939F05809160
:102EF000BB00F0E0E258FA4F80838091A105811178
:102F00005CCF81E080937C0584EA8093BC001092C2
:102F1000A20526CF85EC8093BC001092A20580917B
:102F20005804803230F4E0915804F0E0E85CFB4F44
:102F300010826091580470E0E0915605F0915705B9
:102F400088E394E00995109258040ACF1092A005E6
:102F500034CF1F920F920FB60F9211240F931F932D
:102F60002F933F934F935F936F937F938F939F9391
:102F7000AF93BF93CF93DF93EF93FF930BE111E0F8
:102F8000D0E0C0E0F80181918F010E94AF03FE0103
:102F9000E05FFB4F9081981731F0DE01A159BB4FE4
:102FA0009C919F5F9C9380832196C530D10551F7FA
:102FB000FF91EF91DF91CF91BF91AF919F918F9151
:102FC0007F916F915F914F913F912F911F910F9141
:102FD0000F900FBE0F901F901895E7ECF5E013824D
:102FE000128288EE93E0A0E0B0E084839583A6830C
:102FF000B78326EC32E0318320832FEF3FEF358714
:103000002487EFEAF6E01382128284839583A683F5
:10301000B78388ED92E091838083E7E1F6E08AEE62
:1030200092E09183808382EF92E093838283109277
:103030009C0610929B0610929E0610929D0610927E
:103040009F06E0EAF6E088E0828320E431E0318305
:103050002083858320EC31E034832383808720E440
:1030600032E037832683838720EC32E03287218762
:10307000868780E493E0958784870C940604CF9339
:10308000DF93CDB7DEB7CB5BD1090FB6F894DEBFC7
:103090000FBECDBF789484B5826084BD84B5816055
:1030A00084BD85B5826085BD85B5816085BD809113
:1030B0006E00816080936E0010928100809181008B
:1030C0008260809381008091810081608093810083
:1030D0008091800081608093800080919100826067
:1030E0008093910080919100816080939100809104
:1030F00090008160809390008091C10084608093F3
:10310000C1008091C10082608093C1008091C100A4
:1031100081608093C1008091C30081608093C3006F
:103120008091C00082608093C0008091C200816065
:103130008093C20080917A00846080937A008091AD
:103140007A00826080937A0080917A008160809317
:103150007A0080917A00806880937A0010925505F9
:1031600010926504109264048091D700816080936E
:10317000D70080EA8093D80089B5806189BD89B580
:10318000826089BD09B400FEFDCF61E070E080E09F
:1031900090E00E948E048091D8008F7C80618093A3
:1031A000D8008091E000807F8093E0008091E10072
:1031B0008E7E8093E1008DE08093E200559A209A04
:1031C0005D98289814BE0FB6F894A8958091600079
:1031D000886180936000109260000FBE81E490E0EF
:1031E0000E948D0D80936A0460EA7FE080E090E0A9
:1031F0000E948E0488E199E20FB6F894A895809316
:1032000060000FBE90936000A8958FEF9FEF9093A2
:10321000D4058093D30518E061E080E00E94420A63
:1032200064E670E080E090E00E948E0461E081E05E
:103230000E94420A64E670E080E090E00E948E0402
:1032400060E080E00E94420A64E670E080E090E086
:103250000E948E0460E081E00E94420A64E670E011
:1032600080E090E00E948E041150B1F6A895BE0156
:103270006F5F7F4F90E080E00E945D0E89819A81B0
:10328000AB81BC81813A9D4AA14ABD4A09F442C240
:1032900019821A821B821C82BE016F5F7F4F88E0F9
:1032A00090E00E948D1219821A821B821C82BE013C
:1032B0006F5F7F4F8CE090E00E948D1283E08983E6
:1032C00011E01A83BE016F5F7F4F84E090E00E949F
:1032D000661219831A82BE016F5F7F4F86E090E00D
:1032E0000E94661261E080E290E00E948E1120EA66
:1032F000C22E26E0D22E07E011E0F12CC854DF4F99
:1033000019821882C85BD040BE0168547F4FC80143
:103310000E942212C654DF4F19821882CA5BD04025
:10332000BE0166547F4FC80104960E94221260E0DD
:103330008F2D0E94901160E0C8010D960E948E11A1
:1033400060E0C80108960E948E1160E0D6018D9160
:103350009C910E948E11F6018081918160E001961E
:103360000E948E11F39400581F4FF3E0CF0ED11C32
:1033700025E0F212C3CF61E080E091E00E948E115F
:1033800061E080E891E00E948E1161E080E092E0CF
:103390000E948E1160E080E892E00E948E1160E051
:1033A00080E093E00E948E1160E080E490E00E9453
:1033B0008E116AE772E090E080E00E948D120E9418
:1033C0008F0D10E161E080E00E94420A64E170E04C
:1033D00080E090E00E948E0461E081E00E94420A59
:1033E00064E170E080E090E00E948E0460E080E0A4
:1033F0000E94420A64E170E080E090E00E948E0446
:1034000060E081E00E94420A64E170E080E090E0C8
:103410000E948E041150B1F680910C01882309F4AA
:103420007CC10E94000C60936604709367048093D3
:1034300068049093690466E674E08CE090E00E9472
:103440008D12BE016F5F7F4F88E090E00E945D0E9D
:1034500089819A81AB81BC810196A11DB11D8983AF
:103460009A83AB83BC83BE016F5F7F4F88E090E09F
:103470000E948D12A89580916A04857009F442C05B
:1034800004E111E0F12CC8010E948D0D93E0E92EBA
:10349000853008F44BC18AE293E00E945F0D8FE211
:1034A00093E00E945A0D8F2D0E944F0D8FE393E001
:1034B0000E945A0D0E94560DF39400581F4F45E08C
:1034C000F412E1CF0FE011E0F12CC8010E948D0D44
:1034D000853008F468C18AE293E00E945F0D80E5C0
:1034E00093E00E945A0D8F2D0E944F0D8FE393E0C1
:1034F0000E945A0D0E94560DF39400581F4F95E0FC
:10350000F912E3CF8CE593E09093850480938404D3
:1035100010928604109287041092880481E08093B0
:10352000890480938A0410928B042FE533E0309352
:10353000AC042093AB048093AD048093AE0410924E
:10354000AF048093B0048093B1041092B20422E6D9
:1035500033E03093D3042093D20492E09093D404C8
:103560001092D6048093D7048093D8041092D90483
:1035700085E693E09093FA048093F90483E08093C6
:10358000FB041092FF041092000588E693E09093EC
:1035900021058093200584E0809322051092260562
:1035A0001092270504E814E0A2E0FA2EB0E68B2E74
:1035B000BAEE9B2EA12CB12CD80118961C9218970C
:1035C00019961C9219971E96FC921E97F801178E59
:1035D00010A211A212A293968D929D92AD92BC92CE
:1035E000969712968C91853008F01CC1882361F063
:1035F00090E002969695982F8827979587950E9438
:103600008D0D882309F40EC161E0C8010E94D40A1F
:10361000095D1F4FB5E007341B0771F676E2C72E30
:10362000DD24D394F12CE12CE7E2BE2EC6010E94EA
:103630008D0D8250823090F460E08E2D0E949011AA
:10364000BE9CC001BF9C900D11248C579B4F2091B4
:103650006A04257009F4E8C00E94D511EFEFEE1A54
:10366000FE0AF0E8CF0ED11C25E0E216F104F1F6D7
:1036700010920D018BE694E00E94B50A80E894E078
:103680000E94B50A1092470510927C0410927D04A6
:1036900010927E0410927F040E94000C6D3E704CCC
:1036A0008D4C9D4508F076C1412C512C3201F12CF6
:1036B00054E6C52ED12C60E9A62EBB24B3942F2D41
:1036C00030E02E54384FF901E370FF27309709F0AE
:1036D000AEC0C901B6010E943123892B39F4C9015A
:1036E000B5010E943123892B09F0A1C08EE691E03B
:1036F000A0E0B0E0480E591E6A1E7B1ED301C20135
:10370000AA27BB2787329744A105B10508F094C0CA
:10371000F394D5CF0E948F0D7FCE10926604109245
:103720006704109268041092690485CEC8010E9453
:103730008D0D61E0680FC8010E948E1164E170E098
:1037400080E090E00E948E048F2D0E94600B6C013F
:1037500062E370E080E090E00E948E04C8010E9465
:103760008D0D6FEF680FC8010E948E1164E170E04B
:1037700080E090E00E948E0439E8C31633E1D3065E
:1037800008F49ACEEA94E110D1CF8AE293E00E9445
:103790005F0D8FE293E00E945A0D8F2D0E944F0D16
:1037A00081E094E085CE83E0E82EC8010E948D0D73
:1037B00061E0680FC8010E948E1164E170E080E052
:1037C00090E00E948E048F2D0E947A0B6C0162E3C0
:1037D00070E080E090E00E948E04C8010E948D0D90
:1037E0006FEF680FC8010E948E1164E170E080E005
:1037F00090E00E948E0481E1C81687E2D80608F4A2
:103800007BCEEA94E110D1CF8AE293E00E945F0D73
:1038100080E593E00E945A0D8F2D0E944F0D81E0AC
:1038200094E066CE60E0F1CE0E94981117CF8DE64D
:1038300091E0A0E0B0E05ECFC90164E670E00E94D4
:1038400031236C01C90160E971E00E943123309796
:1038500029F4C114D104F1F40097E1F04DE651E0F0
:1038600060E070E044195509660977094A5D584BD4
:103870006F4F7F4FAEE7B2E030E0313081F43097E8
:1038800009F0DEC0C114D10419F4009709F0D8C0C2
:103890002DE106C04EE651E060E070E0E3CF2C91F0
:1038A000822E912CB12CA12C21E0230F4815590513
:1038B0006A057B0540F0481959096A097B09119688
:1038C000322F2C30D1F6DD24D394D30EEE24E394A2
:1038D000E40ECC24C394C092A3058FE68093C50563
:1038E0001092A4051092C60560E08FEA96E00E944F
:1038F000BA0560E08FEA96E00E94BA0562E08FEABE
:1039000096E00E94BA0561E28FEA96E00E94BA054D
:103910008DE090E00E94E9054AE0B42E8E2D6B2DDB
:103920000E942523682F660F680F660F6E0D8FEAC1
:1039300096E00E94BA058D2D6B2D0E942523682FDD
:10394000660F680F660F6D0D8FEA96E00E94BA054C
:1039500082EEF80E8F2D6B2D0E942523682F660FA7
:10396000680F660F6F0D8FEA96E00E94BA050E94FD
:10397000C901C092A3051092A4051092C60560E08B
:103980008FEA96E00E94BA0587EB90E00E94E90575
:103990000E94C901A8957E0190EBE90EF11C80916F
:1039A0004705811119C0D0900D01A4E0AD1508F4B0
:1039B00049C08BE694E00E94B50A87E28D9DF00134
:1039C0001124EC57FB4F9285913019F4CF010E94DE
:1039D000C0128FEF80930D01A4E8CA2EA4E0DA2E66
:1039E00099249394B0E64B2EBAEE5B2E612C712C89
:1039F000D6011296EC91F0E0E159FB4F80818830BE
:103A000008F4EEC01082C6014B960E94B50AF6017A
:103A1000808191810E945F0D8DE793E00E945A0D95
:103A20000E94560DD6011A968C91882309F4D5C0B0
:103A3000833008F0D5C063E0C6010E94D40AD0C02C
:103A40002CE12ECF40E65AEE60E070E08BE694E089
:103A50000E94950A882309F4BFCF34E8A32E34E0EE
:103A6000B32ED12CC12CF5018285813009F0AAC07A
:103A70009501245834404901478D50A161A172A19C
:103A8000C50143960E94950A882309F49BC08BE6E2
:103A900094E00E94B50A87E28C9DF0018D9DF00DA7
:103AA0001124EC57FB4F8285813029F4C4018C57D7
:103AB0009B4F0E94C012C601880F991FC80ED91EC5
:103AC000C6018056994F6C018BE693E00E945F0D12
:103AD000B12CC6010E94F90DB81668F48BEF92E084
:103AE0000E945A0D6B2DC6010E94830E4AE00E946F
:103AF0000B0DB394EECF0E94560DC6010E94F90D36
:103B0000823008F469CF83E793E00E945F0DAA2416
:103B1000A394C6010E94F90D982F853008F094E017
:103B2000A916D0F46A2DC6010E94830E2B013C0118
:103B30006FEF6A0DC6010E94830E461A570A680A83
:103B4000790A8BEF92E00E945A0D4AE0C301B2015C
:103B50000E940B0DA394DDCF382E93E0981710F43C
:103B600083E0382E22242394812C912C5401231499
:103B7000A8F4622DC6010E94830E2B013C016FEF59
:103B8000620DC6010E94830E461A570A680A790A16
:103B9000840C951CA61CB71C2394E9CF232D30E080
:103BA00050E040E0C501B4010E944523283C3105A6
:103BB0004105510520F48AE793E00E945A0D0E94C6
:103BC000560D0ACFAFEFCA1ADA0AB7E2AB0EB11C34
:103BD0000A151B0509F047CFFFCEC6010E94D5117B
:103BE000F60182810E94600B8F3F9807E1F0F2E0BE
:103BF000BF2E8837910560F0B12C8C3221E09207FE
:103C000038F0BB24B3948235934010F0E3E0BE2E2D
:103C1000D6011E968C918B1531F0C6010F960E942D
:103C2000B50AF601B686D6011A968C911A9782309B
:103C300009F49EC108F04AC1882309F486C1A895F9
:103C4000B7E2CB0ED11C0C151D0509F0D1CE87ECC7
:103C500095E00E9449032C01712C612C6E01EBE967
:103C6000CE0ED11C641475040CF0DBC387EC95E018
:103C70000E9407038A30910509F0CDC38CE992E0D8
:103C8000D60111969C938E9387E196E013969C93B0
:103C90008E9312978EE892E019969C938E931897C4
:103CA00086E992E01B969C938E931A9750961C92ED
:103CB0001E921F9752961C921E92519753961C92D9
:103CC000539754961C9282EA92E0988B8F878AEAE7
:103CD00092E09A8B898B65961FAE1EAE65976796AC
:103CE0001FAE1EAE679768961FAE68976A96DFAEE6
:103CF000CEAE6A976B961FAE6B977EEB272E72E067
:103D0000372E6B968FAD6B97811177C36A968EAD08
:103D10009FAD6A9720EB32E0F701318320839383D4
:103D200082831482CB54DF4FF982E882C55BD04096
:103D3000C954DF4F1882C75BD04062E070E0CE010B
:103D40008B549F4F0E94C90E5C0164E070E0CE016D
:103D50008B549F4F0E94C90EB0E0A0E089839A83E4
:103D6000AB83BC8362E070E0CE018B549F4F0E9416
:103D7000C90E9E838D8361E070E0CE018B549F4F0E
:103D80000E94C90E98878F8361E070E0CE018B544A
:103D90009F4F0E94C90E9A87898762E070E0CE012A
:103DA0008B549F4F0E94C90E9C878B8761E070E007
:103DB000CE018B549F4F0E94C90E9E878D876596BA
:103DC0001FAE1EAE659767961FAE1EAE67976896CC
:103DD0001FAE68971A141B04E4F460E4862E912C3D
:103DE00030E4A316B1040CF44501A401BE01655AE8
:103DF0007F4FC7010E943008AC01BE01655A7F4F5A
:103E0000CE010F960E94A607A818B9088815990533
:103E10000CF7C954DF4F8881C75BD040882321F05D
:103E200081E06B968FAF6B97D7011496BC906A9622
:103E30008EAD9FAD6A97DC01ED91FC910190F08110
:103E4000E02D41E050E0BE01655A7F4F09956C9628
:103E50008FAD6C97B81621F081E06B968FAF6B97A2
:103E60006B968FAD6B978111C8C2E6EBF2E06D9651
:103E7000FFAFEEAF6D976F963FAE2EAE6F978EE0B1
:103E800091E0A1969FAF8EAFA197A6961FAE1EAEF2
:103E9000A697AB961FAEAB97ED81FE81F05CEF303D
:103EA000F10508F00AC1E95AF04E0C946723582036
:103EB00068208220C620AC21A920B620D620E82088
:103EC000E721C22139211B214E216921833009F4C8
:103ED0006DC0843009F0B3CE5601F7E1AF0EB11CCE
:103EE00040E157E260E070E0C5010E94950A882336
:103EF00071F0C5010E94B50AD6018D919C910E9476
:103F00005F0D8DEF92E00E945A0D0E94560DF60152
:103F100043A154A165A176A1C60143960E94950ACA
:103F2000882309F48CCED60193964D925D926D92C2
:103F30007C9296978D919C910E945F0D84EF93E007
:103F40000E945A0D0E94560D2DC0F60182818111EA
:103F500076CE40E65AEE60E070E0C60143960E94DD
:103F6000950A882309F46BCEC6010E94F31167CE2F
:103F700040EE53E964E070E0C60143960E94950A62
:103F8000882309F45CCED6018D919C910E945F0D2F
:103F900087E893E00E945A0D0E94560DF601828137
:103FA0000E944912C6010E94981149CE1B968C911D
:103FB0001B97882309F456C016968C918823E9F044
:103FC00040EE53E964E070E0C6014B960E94950A0A
:103FD000882399F0F601808191810E945F0D88E924
:103FE00093E00E945A0D0E94560DD60112968C91B4
:103FF0000E944912C6010E94720DF6018781882332
:1040000009F41DCE5601FFE0AF0EB11C40E157E2AE
:1040100060E070E0C5010E94950A882309F40FCE84
:10402000D6018D919C910E945F0DF60186858130AD
:10403000B1F050F0823069F0833071F00E94560D7B
:10404000C5010E94B50AFBCD8AEA93E00E945A0D91
:10405000F5CF89EB93E0FACF85EC93E0F7CF82EDD3
:1040600093E0F4CF40E05AEB6BED70E0C60143966D
:104070000E94950A882309F4E2CDD6018D919C9186
:104080000E945F0D83EE93E00E945A0D0E94560D30
:10409000C6010E942A0E61E0811160E0F60190865F
:1040A000618783810E94490AC6010E94720DC7CDB3
:1040B000CE01855A9F4F0E946110CE01855A9F4FB5
:1040C0000E941C096AE08EE091E00E942B0919CE43
:1040D000A984BA84C501019761F40E94560B9C0122
:1040E000A50166E07FEFCE01855A9F4F0E941F1108
:1040F000E4CF8150853018F40E94600BF0CF90E03F
:1041000080E0EDCF49855A85CA01019730E020E073
:104110008530E0F42FB7F894809074049090750483
:10412000A0907604B09077042FBF27E2289FF0017B
:10413000299FF00D1124EC57FB4F838D948DA58D95
:10414000B68D881A990AAA0ABB0A940169E07FEF22
:10415000CACFB70188E090E00E945D0ED7012D9193
:104160003C9141E050E06AE17FEFBDCFB984AA8481
:10417000B4E090E080E0BB1518F08B2D0E94130E88
:104180009C014B2D5A2D65E07FEFADCFB984AA84F9
:10419000E4E090E080E0EB1518F08B2D0E947A0BA4
:1041A0009C014B2D5A2D60E17FEF9DCF49855A85AB
:1041B000CA010197682F21E030E0853010F030E02F
:1041C00020E0653010F480930D016BE07FEF8BCF22
:1041D000CE0101960E94200FDC016B968FAD6B978C
:1041E000A984BA8430E020E0811121C095012150DA
:1041F0003109922F88248394912C253010F0912C32
:10420000812C953098F487E2829FF001839FF00D16
:104210001124EC57FB4F28EE33E00E947C2363A36C
:1042200074A385A396A3CF010E94720D9401A501EA
:104230006AE07FEF58CFA984BA84950121503109F3
:10424000822F88248394912C253010F0912C812C7E
:10425000853050F447E2429FC001439F900D1124E6
:104260008C579B4F0E94F3119401A50160E27FEFF0
:104270003ACF49855A85CA01019730E020E0853060
:1042800050F427E2289FF001299FF00D1124EC57EC
:10429000FB4F228530E06FE17FEF25CFA984BA8400
:1042A0009501215031092230310580F447E2429FC7
:1042B000C001439F900D11248C579B4F0E942A0EE2
:1042C000282F30E0A50161E27FEF0DCF2FEF30E026
:1042D000F9CFCE0101960E94200F6B962FAD6B9700
:1042E00089849A84211135C09401215031092230EA
:1042F000310560F55C010097B9F487E2829FF00117
:10430000839FF00D1124EC57FB4F81E080871186CD
:1043100060E083810E94490AAA24A394B12C9501EC
:10432000A40162E27FEFDFCE019781F487E2829FF2
:10433000F001839FF00D1124EC57FB4F81E0808743
:10434000818761E083810E94490AE9CFB12CA12CC9
:10435000E6CF30E020E0E4CF2FB7F894609174040A
:104360007091750480917604909177042FBF28EEA8
:1043700033E040E050E00E94452341E050E064E13A
:104380007FEFB1CED7011D921D921D921C92139703
:104390004701B12CA12CCB54DF4FB982A882C55B59
:1043A000D040F40161914F01CE018B549F4F0E9488
:1043B0000912FFEFAF1ABF0A24E0A216B10459F7A1
:1043C00021E030E041E050E06AE070EC8CCE81E02A
:1043D0008093470588E794E00E94B50A10927C0418
:1043E00010927D0410927E0410927F0421E030E050
:1043F00041E050E069E070EC76CE10929C0610929D
:104400009B0610929E0610929D0610929F063FEF0B
:10441000631A730A27CC682F89E196E00E942B0962
:10442000F6CF40E65AEE60E070E080E894E00E944B
:10443000950A882309F46EC080E894E00E94B50ACA
:10444000A89586EB92E09A8389838EEB92E09C8319
:104450008B838EE091E09E838D831B861A86188A5B
:10446000CE0101960E946110CC24C394D12C41E06E
:10447000C416D10409F0A9C00E94560B9C01A601E4
:1044800066E07FEFCE0101960E941F118FEFC81AE0
:10449000D80A97E0C916D10451F7CC24C394D12C83
:1044A000A5E090E080E0CA1619F08C2D0E94130E52
:1044B0009C01A60165E07FEFCE0101960E941F11CD
:1044C000BFEFCB1ADB0AE6E0CE16D10449F7CC24C5
:1044D000C394D12CF5E090E080E0CF1619F08C2D3C
:1044E0000E947A0B9C01A60160E17FEFCE0101964C
:1044F0000E941F112FEFC21AD20A36E0C316D10450
:1045000049F7CE0101960E941C096AE08EE091E015
:104510000E942B09D0904705DD2009F45BC0409133
:104520007C0450917D0460917E0470917F0488E743
:1045300094E00E94950A882309F44CC088E199E22E
:104540000FB6F894A895809360000FBE909360001A
:10455000A89515E061E080E00E94420A61E081E0F8
:104560000E94420A60E570E080E090E00E948E04C4
:1045700060E080E00E94420A60E081E00E94420A1E
:1045800060E570E080E090E00E948E04115011F729
:1045900061E080E00E94420A61E081E00E94420AFC
:1045A00068EC70E080E090E00E948E0460E080E0C3
:1045B0000E94420A60E081E00E94420A68EC70E0DA
:1045C00080E090E00E948E04C4CF8EEF8C0D0E949C
:1045D000600B54CF8DE00E94AF0361E0019709F4B6
:1045E00060E080E00E94420ADD2051F08DE00E94F0
:1045F000AF0361E0019709F060E081E00E94420AA8
:10460000A89568EC70E080E090E00E948E0480E065
:1046100090E0892B09F4C3C90E940000C0C9F99930
:10462000FECF92BD81BDF89A992780B50895262FB7
:10463000F999FECF1FBA92BD81BD20BD0FB6F89487
:10464000FA9AF99A0FBE01960895991B79E004C071
:10465000991F961708F0961B881F7A95C9F78095C1
:10466000089597FB072E16F4009407D077FD09D024
:104670000E94962307FC05D03EF4909581959F4FAC
:104680000895709561957F4F0895A1E21A2EAA1B97
:10469000BB1BFD010DC0AA1FBB1FEE1FFF1FA217F2
:1046A000B307E407F50720F0A21BB30BE40BF50BEF
:1046B000661F771F881F991F1A9469F76095709578
:1046C000809590959B01AC01BD01CF010895EE0F3F
:1046D000FF1F0590F491E02D0994A29FB001B39FB4
:1046E000C001A39F700D811D1124911DB29F700DFB
:1046F000811D1124911D08950E946D23B7FF089517
:10470000821B930B08950E946D23A59F900DB49F6B
:10471000900DA49F800D911D11240895B7FF0C9456
:1047200083230E948323821B930B0895AA1BBB1B28
:1047300051E107C0AA1FBB1FA617B70710F0A61BA1
:10474000B70B881F991F5A95A9F780959095BC01C2
:08475000CD010895F894FFCF9C
:10475800FFFFFFFF00E100000000000001FF14015F
:1047680000000000190800000102030507160B17D6
:104778000406080A0C62686A636B011541424344E7
:1047880045464748494A4B4C4D4E4F505152535459
:1047980055565758595A6162636465666768696A0D
:1047A8006B6C6D6E6F707172737475767778797AD9
:1047B800303132333435363738392B2F00005EBC70
:1047C800E2613FDD83C29C7E20A3FD1F419DC32182
:1047D8007FFCA2401E5F01E3BD3E6082DC237D9F1B
:1047E800C1421CFEA0E1BF5D0380DE3C62BEE00268
:1047F8005CDF81633D7C22C09E1D43A1FF4618FA01
:10480800A427799BC584DA3866E5BB5907DB856739
:1048180039BAE406581947A5FB7826C49A653BD9E6
:1048280087045AB8E6A7F91B45C6987A24F8A6441F
:104838001A99C7257B3A6486D85B05E7B98CD230CC
:104848006EEDB3510F4E10F2AC2F7193CD114FADE9
:10485800F3702ECC92D38D6F31B2EC0E50AFF113B2
:104868004DCE90722C6D33D18F0C52B0EE326C8ECF
:10487800D0530DEFB1F0AE4C1291CF2D73CA947690
:1048880028ABF517490856B4EA6937D58B5709EBB1
:10489800B536688AD495CB2977F4AA4816E9B7556E
:1048A8000B88D6346A2B7597C94A14F6A8742AC897
:1048B80096154BA9F7B6E80A54D7896B350000005E
:1048C80000560800C18081000000A1ADA1AD1F1CE9
:1048D8001F1E1F1E1F1F1E1F1E1F000000007C061C
:1048E8002806FEFF000079060000000041090000CC
:1048F8000000A906A607FEFF000016080000000039
:10490800300800000000E6081C09FEFF0000280926
:104918000D0900000000E202C0040303F802490385
:104928000703250300000000BA058D05EE0576058E
:104938008605A3017705000000006107EE06FEFF6B
:1049480000005E070D0A006C6F673A200073746FF1
:104958007070696E67006B696C6C696E6700707265
:10496800696D617279007365636F6E646172790055
:104978007374617274696E672000706F737400637A
:10498800757272656E742073656E736F7220002085
:10499800746F6F206D616E79206661756C74730039
:1049A800746865726D6973746F7220006E63006756
:1049B8006E00637300783100783200626F6F746C38
:1049C8006F6700626F6F746474002021006865610E
:1049D800727462656174007374617274696E6720C1
:1049E80074696D656F75740068656172746265617C
:1049F800742074696D656F75740063757272656E85
:104A080074206E6F726D616C0063757272656E747E
:104A1800206C6F770063757272656E7420686967C1
:104A2800680063757272656E74207374726573734F
:104A3800656400756E6D616E616765642073776982
:104A48007463680073746F702074696D656F757432
:104A580000206F7574206F662072616E67652E0086
:00000001FF
