:100000000C94DA000C9402010C9402010C9402018D
:100010000C9402010C9402010C9402010C94020154
:100020000C9402010C9402010C944E130C94BD1319
:100030000C9402010C9402010C9402010C94020134
:100040000C9402010C9402010C9402010C94020124
:100050000C9458170C9402010C9402010C94EF15A7
:100060000C9402010C9402010C9402010C94020104
:100070000C9402010C9402010C9402010C940201F4
:100080000C9402010C9402010C9402010C940201E4
:100090000C9439160C9402010C9402010C94020188
:1000A0000C9402010C9402010C9402010706050451
:1000B0000100080A0B0C0D090000000024002700B5
:1000C0002A002D00300000000000250028002B0031
:1000D0002E003100000000002300260029002C0023
:1000E0002F000404040404030405020202020403B2
:1000F00002020202060606060606040402020204C2
:100100000404080201104080401020408040800814
:100110000204018040201002011080102040402085
:100120000000000200090F0000030401000C0000A1
:1001300000000000000000000000000000000008B7
:100140000B0002020201000904000001020200008B
:1001500005240010010524010101042402060524E0
:100160000600010705810310004009040100020A8E
:10017000000000070502024000000705830240005E
:10018000000403090412010002EF02014041233779
:100190008000010102030141726475696E6F204C99
:1001A0004C430041726475696E6F204D6963726FD4
:1001B00000009C1711241FBECFEFDAE0DEBFCDBFD9
:1001C00013E0A0E0B1E0E6EEF4E402C005900D9289
:1001D000A630B107D9F725E0A6E0B3E001C01D9233
:1001E000A539B207E1F710E0CAEDD0E004C02197CD
:1001F000FE010E942E22C93DD107C9F70E94EE17C9
:100200000C9471220C940000982F2091BC0481E082
:10021000213208F043C0809198048111FCCF809175
:10022000BB0432E030939804909397049FEF90932F
:1002300096041092950420939404ABE9B4E0E4E7AB
:10024000F4E090E0291331C010927304909173048C
:10025000880F892B8093730480917204813049F553
:1002600010927204809173048093BB008091BC0053
:1002700083FDF8CF85EC8093BC0080919804823098
:10028000E1F3809196048F3FB1F080919604803223
:10029000A1F080919604803391F084E010929A044A
:1002A0001092BC041092990408953D9131939F5F80
:1002B000C9CF85EEE0CF80E0F1CF82E0EFCF83E0E1
:1002C000EDCF909198049111FCCF91E09093980418
:1002D000909397042FEF2093960410929504260F85
:1002E000209394049093730490917304880F892B46
:1002F00080937304809172048130F9F41092720437
:10030000809173048093BB008091BC0083FDF8CF83
:1003100085EC8093BC00809198048130E1F380915A
:100320009504861710F460919504A4E7B4E0E2E523
:10033000F4E080E0861303C0089585EEEACF9D9136
:1003400091938F5FF7CF90915104809150042FEFDC
:100350003FEF981748F4E92FF0E0EE5AFB4F208169
:1003600030E09F5F90935104C9010895909151042A
:10037000809150042FEF3FEF981748F4E92FF0E0F9
:10038000EE5AFB4F208130E09F5F90935104C901EA
:10039000089581E00C940401089508952FB7F8940E
:1003A00083E08093E9009091E800892F807295FFA7
:1003B00004C09091F20080E4891B2FBF0895FC01D6
:1003C00080914B04882311F13FB7F89482E0809329
:1003D000E9002091F200822F90E01816190614F41B
:1003E00081E090E0882339F0289A44E640934A045B
:1003F0004091F1004083222339F02091F200211135
:1004000003C02BE62093E8003FBF08958FEF9FEFD6
:1004100008958091420481110DC082E080933E04D2
:1004200084E080933F04109241041092400481E0E4
:10043000809342048EE394E00895409156035091D6
:100440005703209154033091550342175307B4F4D6
:100450009091E8009570E1F39091E80092FD19C049
:100460008093F100809156039091570301968F730A
:100470009927892B19F48EEF8093E8008091560319
:10048000909157030196909357038093560381E010
:10049000089580E00895EF92FF920F931F93CF93FA
:1004A000DF93F82E192FE62E042F81E0860F880F98
:1004B0000E941D0283E00E941D02CF2DD12FEC0E61
:1004C000FD2EF11CCE15DF05B9F007FF13C0FE01AC
:1004D00084910E941D02182F80E00E941D0281233A
:1004E00021968111EFCFDF91CF911F910F91FF9056
:1004F000EF9008958881EDCF81E0F5CFDF92EF9204
:10050000FF920F931F93CF93DF93D82E8A01EB01B5
:100510007B01E40EF51ECE15DF0559F0D7FE12C0A3
:10052000FE0184910E941D0221968111F4CF0FEFEC
:100530001FEFC801DF91CF911F910F91FF90EF90B6
:10054000DF9008958881EECF0F931F93CF93DF93B1
:100550001F92CDB7DEB782E0898342E450E06FE3BB
:1005600071E080E80E947E020E940902DC0112967E
:100570000D911C910115110589F0D801ED91FC91A7
:100580000280F381E02DBE016F5F7F4FC8010995A6
:1005900097FD04C0F80100851185ECCF89810F908B
:1005A000DF91CF911F910F910895615030F020910C
:1005B000F100FC0120830196F8CF289A84E680930D
:1005C0004A040895CF93DF931F92CDB7DEB76983B6
:1005D000DC01ED91FC910280F381E02D41E050E0DF
:1005E000BE016F5F7F4F09950F90DF91CF91089506
:1005F00083E08093E9008091F200882319F08AE378
:100600008093E80008950E94CE0190E00895CF9372
:10061000DF931F92CDB7DEB7FC018485958597FDEA
:1006200008C02FEF3FEF358724870F90DF91CF91E0
:100630000895CE0101960E94DF01019719F4898186
:1006400090E0F3CF8FEF9FEFF0CF0F931F93CF93F7
:10065000DF931F92CDB7DEB78C01FC0184859585B1
:1006600097FF0BC0CE0101960E94DF01019771F444
:10067000898190E0F80195878487F80184859585C4
:100680000F90DF91CF911F910F9108958FEF9FEF02
:10069000F1CFFC018485958597FD0BC09FB7F89439
:1006A00082E08093E9008091F2009FBF90E0019684
:1006B00008959FB7F89482E08093E9008091F2005A
:1006C0009FBF90E0089581508F3008F047C0E82F19
:1006D000F0E0E359FC4F0C942E228A038E037C0336
:1006E00082038603AE03AE03AE03910397039B031D
:1006F0009F03A503AE03A903809180008F778093A9
:1007000080000895809180008F7DF9CF80918000D6
:10071000877FF5CF84B58F7784BD089584B58F7DAD
:10072000FBCF809190008F77809390000895809107
:1007300090008F7DF9CF80919000877FF5CF8091D9
:10074000C0008F778093C00008958091C0008F7D96
:10075000F9CF8091C200877F8093C2000895CF9324
:10076000DF93282F30E0F901E05EFE4F8491F9011C
:10077000EF5FFE4FD491F901EE51FF4FC491CC23AE
:10078000A1F081110E946303EC2FF0E0EE0FFF1F38
:10079000EC52FF4FA591B491EC91ED2381E090E0F4
:1007A00009F480E0DF91CF91089580E090E0FACFE6
:1007B0001F93CF93DF93282F30E0F901E05EFE4FC7
:1007C0008491F901EF5FFE4FD491F901EE51FF4F93
:1007D000C491CC23A9F0162F81110E946303EC2F42
:1007E000F0E0EE0FFF1FEA53FF4FA591B4918FB7D2
:1007F000F894EC91111108C0D095DE23DC938FBFE3
:10080000DF91CF911F910895DE2BF8CF1092510404
:100810001092500410929A041092BC041092980402
:1008200081E0809397041092720461E082E00E945C
:10083000D80361E083E00E94D803E9EBF0E0808117
:100840008E7F808380818D7F808388E48093B80051
:1008500085E48093BC008CEC91E090934F048093EE
:100860004E048DEC91E090934D0480934C040895D8
:10087000CF93DF9390E0FC01EF5FFE4F24918E5108
:100880009F4FFC0184918823D1F090E0880F991F3D
:10089000FC01E854FF4FA591B491FC01EA53FF4FCE
:1008A000C591D491623071F49FB7F8943C91822F36
:1008B000809583238C93E8812E2B28839FBFDF9123
:1008C000CF9108958FB7F894EC912E2B2C938FBF76
:1008D000F6CF3FB7F8948091500390915103A091C7
:1008E0005203B091530326B5A89B05C02F3F19F0C2
:1008F0000196A11DB11D3FBFBA2FA92F982F8827A0
:10090000BC01CD01620F711D811D911D42E0660F7A
:10091000771F881F991F4A95D1F708958F929F924C
:10092000AF92BF92CF92DF92EF92FF924B015C01A8
:100930000E9469046B017C010E9469046C197D09A5
:100940008E099F09683E734081059105A8F321E057
:10095000821A9108A108B10888EEC80E83E0D81E5B
:10096000E11CF11C81149104A104B10429F7FF904A
:10097000EF90DF90CF90BF90AF909F908F900895B1
:100980008F929F92AF92BF92CF92DF92EF92FF929F
:100990000F931F93CF93DF936C017B018A018091AA
:1009A0000B01882309F45CC080914B04882309F46F
:1009B00057C080915A0380FF05C08091E00082609B
:1009C0008093E000E801B12C8AEFA82E93E0892EF5
:1009D0002AE3922E209711F4BB20D9F10E94CE0178
:1009E00081110AC0AA94AA20D9F161E070E080E0E8
:1009F00090E00E948E04EECF8C171D0611F00CF0D3
:100A00008C2F9FB7F8948092E9002091E80025FD93
:100A100002C09FBFDFCF282F30E0C21BD30BF701EE
:100A2000815020F041914093F100FACFE20EF31E85
:100A3000BB2021F09092E800B12CEBCF8091E80030
:100A400085FDE7CF9092E800BB24B394209709F38B
:100A5000F3CF5D9A84E680935903101611063CF09B
:100A600081E090E0F6019383828310E000E0C8010A
:100A7000DF91CF911F910F91FF90EF90DF90CF907A
:100A8000BF90AF909F908F90089585ED8093BC00AC
:100A90008091BC0084FDFCCF1092980408952091B1
:100AA0002C03260F3327331F21323105ECF420911C
:100AB0009804FC0190E080E0243069F082E0089521
:100AC000A0912C032191AC01445F5C4FA40FB52F82
:100AD000B11D2C930196861798F380912C03680F13
:100AE00060932C0380E0089581E008950895E091DB
:100AF000510480915004E81730F4F0E0EE5AFB4FB7
:100B0000808190E008958FEF9FEF089580915004C9
:100B100090915104891B990B0895CF92DF92EF9227
:100B2000FF920F931F93CF93DF937C01CB018A0138
:100B300020919904222389F0EB016B01C40ED51E8C
:100B4000CC15DD0569F06991D701ED91FC9101901B
:100B5000F081E02DC7010995F3CF642F0E944F0566
:100B6000C801DF91CF911F910F91FF90EF90DF901F
:100B7000CF900895CF93DF931F92CDB7DEB76983EF
:100B8000209199042223F9F02091BC04203258F0DE
:100B900021E030E0FC013383228390E080E00F907D
:100BA000DF91CF91089580919A04E82FF0E0E55607
:100BB000FB4F998190838F5F80939A048093BC044C
:100BC00081E090E0ECCF61E0CE0101960E944F05FC
:100BD000F7CF682F89E895E00C94BA0590E080E0A3
:100BE00008950F931F93CF93DF93EC018A018881BF
:100BF0009981DC01ED91FC910190F081E02D099546
:100C00000817190711F081E08A83DF91CF911F91B6
:100C10000F910895FC018FEB860F8A31C0F08FE9A8
:100C2000860F8A3118F489EB860F089580ED860FC0
:100C30008A3010F484E0F8CF6B3231F06F3231F04B
:100C400081E0808380E008958EE308958FE3089526
:100C5000EF92FF920F931F93CF93DF93FC01838555
:100C6000811144C0C781D0852097E1F081859285AC
:100C70008C1B9D0B7F0124E0E20EF11C30E020E094
:100C8000281739075CF487010C0F1D1FD8011C9130
:100C9000D7011D937D012F5F3F4FF2CF1086178242
:100CA00092878187DB0190E080E084179507D4F478
:100CB00021853285233031054CF021E02387DF91F7
:100CC000CF911F910F91FF90EF9008950196B90178
:100CD0006F5F7F4F728761876D912E0F3F1FE90114
:100CE0006C83E3CF4817590751F3E7CF90E080E0DA
:100CF000E6CF02970C942806CF93DF93FC018385FF
:100D0000811122C021853285878190852817390776
:100D1000C9F0DB0190E080E084179507BCF42781DF
:100D20003085618572852617370784F4B9016F5FB6
:100D30007F4F7087678301962E0F3F1FE9012C813B
:100D40002D93EACF81E0838790E080E0DF91CF911F
:100D50000895EF92FF920F931F93CF93DF93DC01DF
:100D60007C0188E4E80EF11CF701808181112DC01F
:100D70008D010A5B1F4FED01CC5BDF4FF801208135
:100D800031818881998128173907E1F07B0190E052
:100D900080E084179507DCF428813981F8016081AF
:100DA0007181261737079CF4B9016F5F7F4F7983F4
:100DB000688301962A0F3B1FF9012481F7012193D3
:100DC0007F01E7CF81E0F701808390E080E0DF9151
:100DD000CF911F910F91FF90EF9008958F929F9266
:100DE000AF92BF92CF92DF92EF92FF920F931F9339
:100DF000CF93DF939C014C018CE6880E911CE4019B
:100E00008881811158C06901D8E6CD0ED11CF60148
:100E10000081118101151105F1F07901FAE6EF0E5B
:100E2000F11CE70188819981801B910BD9011496EF
:100E3000F0E0E0E0E817F90744F45D01A00EB11E10
:100E4000E501B880BD923196F5CFF601118210828E
:100E5000E70199838883FB0190E080E0D901A659DE
:100E6000BF4F841795071CF56D917C9111976436DF
:100E7000710584F021E0F4012083DF91CF911F916F
:100E80000F91FF90EF90DF90CF90BF90AF909F9029
:100E90008F90089501968B010F5F1F4F11961C9341
:100EA0000E931191620F731FEB011C83DACF481769
:100EB000590719F3DFCF90E080E0DFCF02970C9461
:100EC000EE06EF92FF920F931F93CF93DF93DC0117
:100ED0007C018CE6E80EF11CF701808181112DC0A8
:100EE0008D0106591F4FED01C859DF4FF8012081D0
:100EF00031818881998128173907E1F07B0190E0E1
:100F000080E084179507DCF428813981F80160813D
:100F10007181261737079CF4B9016F5F7F4F798382
:100F2000688301962A0F3B1FF9012481F701219361
:100F30007F01E7CF81E0F701808390E080E0DF91DF
:100F4000CF911F910F91FF90EF9008958F929F92F4
:100F5000AF92BF92CF92DF92EF92FF920F931F93C7
:100F6000CF93DF939C014C0188E4880E911CE4012F
:100F70008881811158C06901D4E4CD0ED11CF601DD
:100F80000081118101151105F1F07901F6E4EF0EF0
:100F9000F11CE70188819981801B910BD90114967E
:100FA000F0E0E0E0E817F90744F45D01A00EB11E9F
:100FB000E501B880BD923196F5CFF601118210821D
:100FC000E70199838883FB0190E080E0D901AA5B67
:100FD000BF4F841795071CF56D917C911197603474
:100FE000710584F021E0F4012083DF91CF911F91FE
:100FF0000F91FF90EF90DF90CF90BF90AF909F90B8
:101000008F90089501968B010F5F1F4F11961C93CF
:101010000E931191620F731FEB011C83DACF4817F7
:10102000590719F3DFCF90E080E0DFCF02970C94EF
:10103000A6070F931F93CF93DF938B01EA010E94C2
:10104000CE01482F50E0C417D5070CF4AE01B8010B
:101050008DEB94E0DF91CF911F910F910C94C00420
:101060000F931F93CF93DF93EC018B018A819B81B8
:10107000DC01ED91FC910190F081E02D09959C013E
:101080009C81D801AD01401B510B421753073CF422
:10109000ED91E927F0E0E359FE4F9081F3CF9C8377
:1010A000C901DF91CF911F910F910895CF93DF93E5
:1010B000DC0114968C911497EB019E01261B370BD3
:1010C000241735073CF4E991E827F0E0E359FE4F97
:1010D0008081F3CF14968C93149712968D919C91E6
:1010E000DC01ED91FC910190F081E02DDF91CF9139
:1010F0000994CF93DF93EC0189859A85813091051E
:10110000D9F481E48B878C878DE38D878E878C81E2
:101110009D81BE01655F7F4FDC01ED91FC910190E7
:10112000F081E02D44E050E00995049711F081E052
:101130008F871A86198647C082309105E9F48F811E
:1011400090E0982F882721E42B87DC01AB2FBB2769
:10115000A295AF70A45DBE4F2C912C87DC0166E098
:10116000B695A7956A95E1F7AF73BB27A45DBE4F0F
:101170008C918D878DE3CACF039719F58F81988560
:1011800098278927982721E42B87DC01AB2FBB27E1
:10119000A295AF70A45DBE4F2C912C87DC0136E088
:1011A000B695A7953A95E1F7AF73BB27A45DBE4FFF
:1011B0002C912D878F739927DC01A45DBE4F8C91F4
:1011C000A5CF81E08F87DF91CF910895CF92DF92F5
:1011D000EF92FF920F931F93CF93DF93EC016B017C
:1011E0008A018F8581111CC07B01C7018C199D0963
:1011F00080179107BCF489859A859C012F5F3F4F2A
:101200003A872987F70141917F018C0F9D1FFC01CF
:1012100046832330310549F7CE010E947908E5CF96
:1012200010E000E0C801DF91CF911F910F91FF9076
:10123000EF90DF90CF900895FC012785211107C022
:10124000218532851216130614F40C94790808953A
:1012500002970C941C09CF93DF931F92CDB7DEB792
:101260006983DC01ED91FC910190F081E02D41E07A
:1012700050E0BE016F5F7F4F09950F90DF91CF91D6
:1012800008952F923F924F925F926F927F928F922A
:101290009F92AF92BF92CF92DF92EF92FF920F9305
:1012A0001F93CF93DF9300D01F92CDB7DEB78C0191
:1012B0003A016A837B83912C812C1C0124E0220E4D
:1012C000311C7C0184E1E80EF11C5801AAE0AA0E51
:1012D000B11C2801B8E04B0E511C861497040CF089
:1012E000B9C0F80121893289878590892817390783
:1012F00001F582819381DC01ED91FC910190F081F7
:10130000E02D44E050E0B1010995F801E80FF91F24
:10131000181619064CF49C0121503109319744816B
:101320004D3309F5C901F4CF009781F521E0F801AB
:10133000248BF801848981118BC041E050E0BE010B
:101340006F5F7F4FC2010E947C068981AA81BB81A9
:101350008D93BB83AA83F801848981117CC0FFEF40
:101360008F1A9F0ABACF8130910581F4D801149663
:101370006C91C7010E940A0660E0C5010E942B091A
:10138000D80153968C918111D1CFD3CF8230910562
:1013900049F4F8016481C7010E940A06D801159634
:1013A0006C91E7CF8330910519F5F8016481C7018D
:1013B0000E940A06D80115966C91C7010E940A0680
:1013C000D82EF8016681C7010E940A06C82E60E087
:1013D000C5010E942B098D2D90E0982F88279295AA
:1013E000907FF0E4CF9E60011124D92A6D2DC5CFE6
:1013F000049731F6D80114966C91C7010E940A0631
:10140000F8016581C7010E940A06C82ED801169608
:101410006C91C7010E940A06D12CDC2CCC24D294FA
:1014200090EFD922B0E48B9FC0011124C82AD92A99
:10143000F8016781C7010E940A06C82A60E0C50159
:101440000E942B096D2DC5010E942B096C2D95CF93
:1014500080E07CCF4301C4010F900F900F90DF918B
:10146000CF911F910F91FF90EF90DF90CF90BF90A1
:10147000AF909F908F907F906F905F904F903F9034
:101480002F900895E82FF0E0E054FD4F80810C94F8
:10149000D803823098F4662319F0613049F008953A
:1014A000E82FF0E0E65DFE4F60E080810C94D80309
:1014B000E82FF0E0E65DFE4F61E0F7CF0895CF93AF
:1014C000853088F5C62F811128C060E00E94D803BE
:1014D00062E370E080E090E00E948E046C2F84E074
:1014E0000E94D80362E370E080E090E00E948E04E6
:1014F00061E080E00E94D80362E370E080E090E069
:101500000E948E0460E080E00E94D80362E370E0F5
:1015100080E090E0CF910C948E04E82FF0E0E05E44
:10152000FE4F8081F1CFCF9108950F931F93EFB7B6
:10153000F89400916A0310916B0320916C03309131
:101540006D03EFBFFC0180819181A281B381081BF3
:10155000190B2A0B3B0B81E04017510762077307F9
:1015600008F080E01F910F9108952FB7F8944091F3
:101570006A0350916B0360916C0370916D032FBFF0
:10158000FC0140835183628373830895282F30E0E8
:1015900094E0359527959A95E1F7922F990F990F39
:1015A000291B220F820F08951F93CF93DF93EC0125
:1015B000162F43960E94B50ACE0147960E94B50A9F
:1015C000CE014B960E94B50ACE010F960E94B50A35
:1015D0001A87DF91CF911F910895DF92EF92FF92CA
:1015E0000F931F93CF93DF93182FDAE001E000935E
:1015F00099041093BB0410929A041092BC0465E005
:1016000070E080E090E00E948E0490E080E00E9414
:10161000E90565E070E080E090E00E948E0480E0E3
:101620000E94040181113CC065E070E080E090E020
:101630000E948E0463E0812F0E9461011092510488
:1016400080935004833061F565E070E080E090E0C5
:101650000E948E040E94B6010E94B601D82E0E94FC
:10166000B601C82F81E00E940401811119C065E014
:1016700070E080E090E00E948E04D0FAEE24E0F862
:101680002C2F3E2DC90124E0880F991F2A95E1F7E0
:10169000DF91CF911F910F91FF90EF90DF90089510
:1016A000D15009F0A4CF8FEF9FEFF2CF80910C01C2
:1016B000882319F080E60C94ED0A8FEF9FEF0895D0
:1016C00090910C01992349F0853050F4E82FF0E017
:1016D000EB5DFE4F80810C94ED0A8FEF9FEF089534
:1016E00090E080E008950E9461011092510480937F
:1016F000500408951F93CF93DF9390910C01992389
:1017000009F46CC0853008F06CC0811125C0ECEA8A
:10171000F0E0E49190917B008E2F880F880F80720B
:101720009F7D892B80937B00E770E064E0937C00D1
:1017300080917A00806480937A0080917A0086FD9F
:10174000FCCF90917800809179008927982789278C
:10175000DF91CF911F910895E82FF0E0EA5EFE4FF0
:10176000608180E2689FE0011124C868DAE011E03E
:1017700080910B03109399048093BB0410929A04F8
:101780001092BC046C2F89E895E00E94BA050E9473
:10179000C901882311F0D15059F760E570E080E06D
:1017A00090E00E948E0480910B0363E070E090E073
:1017B0000E94730B2091500480915104281B330B1D
:1017C0008AE02330310584F48150D9F78FEF9FEF01
:1017D00025E0969587952A95E1F7BACF8FEF9FEF91
:1017E000B7CF90E080E0B4CF0E94B601D82F0E941E
:1017F000B601C82F0E94B60180E09D2F8C2BE8CF48
:101800002F923F924F925F926F927F928F929F9210
:10181000AF92BF92CF92DF92EF92FF920F931F93FE
:10182000CF93DF9381E0809399048FE68093BB048C
:1018300010929A041092BC0460E089E895E00E943E
:10184000BA050E94C9018111D5C067E070E08FE63A
:1018500090E00E94730B0E94B6018F770E94C60A27
:10186000382E0E94B6010E94C60A482E0E94B60178
:101870008F7B0E94C60A582E0E94B6010E94B601B4
:101880000E94C60A282E0E94B6018F7D0E94C60AB9
:10189000682E0E94B6010E94C60ACEE1C80FAC2F86
:1018A000B0E020E833E341EE51E00E944A224B01D0
:1018B0005C01E2EBF7E09D01C4E6D0E000E911E055
:1018C000CF01825B97408217930784F12E54384FE3
:1018D000C90164E670E00E94F8217C01C90160E959
:1018E00071E00E94F8216C010EE712E0C1E0D0E047
:1018F000712CF901E370FF27C615D7050CF03FC026
:10190000C230D10569F5309759F5E114F10419F4A5
:10191000C114D10429F590E8890E9BE3991E96E243
:10192000A91EB11C21960F5F1F4FE6CFCF01837018
:101930009927892B99F4CF01BE010E94F821892BA8
:1019400031F4CF01B8010E94F821892B39F480E8E5
:10195000880E81E5981E81E0A81EB11C3196B0CF9B
:10196000D8018C91A82FB0E020E831E541E050E0AB
:101970000E944A22860E971EA81EB91ED3CF252D7F
:1019800030E0A0E1BEE00E9434226B017C01242DF6
:1019900030E0ACE3B0E00E943422C60ED71EE81E51
:1019A000F91EC30CD11CE11CF11C822D8150990B36
:1019B000DC0120E831E541E050E00E9455226C0D49
:1019C0007D1D8E1D9F1D680D791D8A1D9B1DDF913C
:1019D000CF911F910F91FF90EF90DF90CF90BF902C
:1019E000AF909F908F907F906F905F904F903F90BF
:1019F0002F90089560E070E0CB01E9CFFC010190E9
:101A00000020E9F73197AF01481B590BBC018DEB62
:101A100094E00C94C0048F929F92AF92BF920F9368
:101A20001F93CF93DF93CDB7DEB7A1970FB6F8948E
:101A3000DEBF0FBECDBF19A2423008F44AE08E01CE
:101A40000F5D1F4F842E912CB12CA12CA501940168
:101A50000E940C22E62FB901CA01EA30F4F4E05DDD
:101A6000D801EE938D01232B242B252B79F790E0C1
:101A700080E0109719F0CD010E94FE0CA1960FB6E0
:101A8000F894DEBF0FBECDBFDF91CF911F910F91B4
:101A9000BF90AF909F908F900895E95CE1CF08953B
:101AA000089508950895FC012285233029F464E007
:101AB0000E94D40A80E0089581E008950C94D62114
:101AC000EF92FF920F931F93CF93DF9361E08DE02E
:101AD0000E94380461E089E00E94380480E2E82E28
:101AE00081E0F82E0BE111E0D0E0C0E061E0F70109
:101AF00081917F010E94380462E0F80181918F0199
:101B00000E943804FE01EB59FC4F10822196C5302B
:101B1000D10561F761E081E00E94380461E085E170
:101B20000E94380461E080E00E94380480E290E086
:101B30000E945E0D91E0811101C090E090930C0134
:101B40000E94060468EC70E080E090E00E948E0441
:101B50008EE680930B0368EC70E080E090E00E94DA
:101B60008E0468EC70E080E090E00E948E04F894AF
:101B7000109280001092810081E080936F0083E0DA
:101B8000809381007894DF91CF911F910F91FF9006
:101B9000EF900895FC018081918101960C945E0D77
:101BA0000F931F93CF93DF938C01EB010E94D621FB
:101BB0008883C80101960E94D6218983CE01DF91D6
:101BC000CF911F910F910895CF93DF9300D0CDB7A0
:101BD000DEB720E8829FC0011124BE016F5F7F4FF6
:101BE000855F9E4F0E94D00D89819A810F900F9042
:101BF000DF91CF9108950F931F93CF93DF9300D080
:101C0000CDB7DEB7FC012085222341F081850F90FE
:101C10000F90DF91CF911F910F9108958C01FC01DE
:101C200082819385992349F00E94E40D837099275E
:101C3000F801039789F48581EACFF0E88F9FC0010E
:101C40001124BE016F5F7F4F895F9E4F0E94D00DB0
:101C50008981F80180FDEFCF8481D9CFCF92DF92C7
:101C6000EF92FF920F931F93CF93DF93EB017B01D2
:101C700024E0E20EF11C8B016C01C61AD70AC601E2
:101C8000800F911F0E94D621F80181938F01EE15DC
:101C9000FF05A9F7CE01DF91CF911F910F91FF9022
:101CA000EF90DF90CF900895CF92DF92EF92FF9266
:101CB0000F931F93CF93DF9300D000D0CDB7DEB743
:101CC0006C01E62EFC0100811181C8010E945E0DAD
:101CD000F82EC6010E94CA0DE81640F52F2D2E0DD4
:101CE0003327331FC901F601628170E00E94F82199
:101CF000880F991F880F991F0E5F1F4FBE016F5FDE
:101D00007F4F800F911F0E942E0E69817A818B81F7
:101D10009C810F900F900F900F90DF91CF911F91AA
:101D20000F91FF90EF90DF90CF90089560E070E00A
:101D3000CB01EFCFAF92BF92CF92DF92EF92FF92A3
:101D40000F931F93CF93DF93CDB7DEB75C017B0179
:101D5000CDB6DEB6DC0112968C91129781113EC091
:101D6000EDB7FEB7E61BF70B0FB6F894FEBF0FBE3C
:101D7000EDBF0DB71EB70F5F1F4F8D919C91DC011A
:101D8000ED91FC910190F081E02DAB01B801099536
:101D9000E816F90619F081E0F5018283D501129663
:101DA0008C9181111BC0F801E00EF11E80E02191A1
:101DB000422F582FCA01EE15FF05C9F70FB6F89448
:101DC000DEBE0FBECDBEDF91CF911F910F91FF9070
:101DD000EF90DF90CF90BF90AF90089590E080E0BB
:101DE000EDCFEF92FF920F931F93CF93DF9300D02D
:101DF0001F92CDB7DEB77C0129E5E20EF11CF70199
:101E00002081222369F010E000E0C8010F900F90BC
:101E10000F90DF91CF911F910F91FF90EF90089558
:101E20000E969A8389831B8261E070E0CE01019651
:101E30000E949A0E8630910501F140F461E070E055
:101E4000049759F081E0F70180830CC08830910538
:101E5000B9F064E070E00A97A9F7CE0101960E94FC
:101E60009A0E8C018B81882319F081E0F701808321
:101E7000F7018081882349F2C6CF62E070E0EDCFA0
:101E800063E070E0EACF0F931F93CF93DF93CDB75A
:101E9000DEB70DB71EB7FC01228121111CC02DB782
:101EA0003EB7241B350B0FB6F8943EBF0FBE2DBFB7
:101EB0002F5F3F4FF901E40FF51F6293672F70E02A
:101EC000E217F307D1F7BF010E94F1050FB6F894AE
:101ED0001EBF0FBE0DBF0FB6F8941EBF0FBE0DBFC5
:101EE000DF91CF911F910F9108958F929F92AF92A2
:101EF000BF92CF92DF92EF92FF920F931F93CF93F7
:101F0000DF93CDB7DEB728970FB6F894DEBF0FBECC
:101F1000CDBF7C0129E5E20EF11CF70120812111E2
:101F20009FC08C015C01F7E5AF0EB11CF50180810B
:101F3000918121E732E03A8329839C838B831D8240
:101F4000CE0101969F838E8318866801F4E5CF0E3B
:101F5000D11C480122E5820E911CF601608171813D
:101F6000F40180819181681B790B42E050E0CE0141
:101F700006960E94430FF8016081718144E050E0B1
:101F8000CE0106960E94430FF8016481758142E0FC
:101F900050E0CE0106960E94430FF80166817781DA
:101FA00041E050E0CE0106960E94430FF8016085A3
:101FB000718541E050E0CE0106960E94430FF80182
:101FC0006285738542E050E0CE0106960E94430F81
:101FD000F8016485758541E050E0CE0106960E94C7
:101FE000430F888581110FC0F60140815181F401B2
:101FF00080819181481B590BB8016E5E7F4FCE01E5
:1020000006960E94F105F40111821082F6011182F8
:102010001082F801EA5AFF4F10826D81F50180812C
:1020200091810E942B098885882319F081E0F701AE
:102030008083F701808191E0892728960FB6F89474
:10204000DEBF0FBECDBFDF91CF911F910F91FF90EB
:10205000EF90DF90CF90BF90AF909F908F900895BA
:1020600080E0EBCFCF92DF92EF92FF920F931F931E
:10207000CF93DF93CDB7DEB7C556D1090FB6F8942D
:10208000DEBF0FBECDBF7C0180910C01811182C0EB
:102090008FEF6C968FAF6C976D968FAF6D976E9636
:1020A0008FAF6E976F968FAF6F97A0968FAFA097F9
:1020B000A1968FAFA197A2968FAFA297A3968FAF4D
:1020C000A39782EA92E0988B8F878AEA92E09A8BB4
:1020D000898B65961FAE1EAE659767961FAE1EAEC6
:1020E000679768961FAE68976A96FFAEEEAE6A97DE
:1020F0006B961FAE6B9719821A821B821C82188600
:102100001F821E861D868AE19FEF9E838D8381E05C
:1021100090E09A8789879C878B87CE014196A59608
:102120009FAF8EAFA597A6961FAEA69741E050E051
:1021300061E870E08E5A9F4F0E94430F42E050E0EA
:1021400068E070E0CE018D599F4F0E94430FA69624
:102150008FADA69781110AC048E050E0BE01655AD4
:102160007F4FCE018D599F4F0E94F105CE01019600
:102170000E94750FCB59DF4F0FB6F894DEBF0FBE2C
:10218000CDBFDF91CF911F910F91FF90EF90DF9026
:10219000CF90089581E08093990487E58093BB04F4
:1021A00010929A041092BC0480EF90E00E94E9051E
:1021B0000E94C90168E070E087E590E00E94730B1F
:1021C0008E01055A1F4F680188E0C80ED11C0E947D
:1021D000B601F80181938F01EC15FD05C1F771CFB0
:1021E0000F931F93CF93DF93CDB7DEB7CD55D109B2
:1021F0000FB6F894DEBF0FBECDBF890122EA32E0F0
:10220000388B2F872AEA32E03A8B298B65961FAEEE
:102210001EAE659767961FAE1EAE679768961FAE97
:1022200068976A969FAF8EAF6A976B961FAE6B9753
:1022300019821A821B821C8218861F821E861D86A6
:102240007E836D835A87498781E090E09C878B87E6
:10225000CE0141966D969FAF8EAF6D976E961FAE75
:102260006E9741E050E00F3F110509F0F0F464E093
:1022700070E0865B9F4F0E94430F41E050E0B80141
:10228000CE01855A9F4F0E94430FCE0101960E94B6
:10229000750FC35ADF4F0FB6F894DEBF0FBECDBF28
:1022A000DF91CF911F910F91089566E070E0CE010C
:1022B000855A9F4F0E94430F42E050E0E0CF0C94BC
:1022C000DE2120E8829FC00111248A5D9E4F0C947C
:1022D0005F11CF93DF93FC012285222359F1EC019A
:1022E00063E082810E9461116AE070E080E090E02A
:1022F0000E948E0460E08A810E945F0A64EF71E0B0
:1023000080E090E00E948E0460E08A810E9461116A
:102310006AE070E080E090E00E948E0461E0CE010F
:102320000E94D40A81E693E00E94B50A80E0DF9122
:10233000CF91089581E0FBCFCF93DF93EC018A81A9
:10234000882351F090E0029660E09695982F8827B8
:10235000979587950E945F11CE010E9469118A812D
:10236000882321F060E0CE010E94D40A80E0DF9152
:10237000CF910895CF93DF93EC018A8190E002968C
:1023800061E09695982F8827979587950E945F1111
:1023900061E0CE010E94D40A80E0DF91CF910895E0
:1023A000FF920F931F93CF93DF93EC01F62E0881DA
:1023B0001981C8010E94D621F81621F06F2DC8019D
:1023C0000E94DE21CE01DF91CF911F910F91FF90EE
:1023D0000895EF92FF920F931F93CF93DF9300D056
:1023E000CDB7DEB78C017B019A838983FB016081C5
:1023F000CE0101960E94D0110F5F1F4F1A830983EF
:10240000F7016181CE0101960E94D011C7010F90A2
:102410000F90DF91CF911F910F91FF90EF90089552
:102420001F93CF93DF9300D0CDB7DEB7182F0E9454
:10243000E40D01969A83898320E8129FC00111243C
:10244000BE016F5F7F4F855F9E4F0E94E9110F9025
:102450000F90DF91CF911F910895EF92FF920F930C
:102460001F93CF93DF9300D0CDB7DEB78C017B01F4
:102470009A838983FB016081CE0101960E94D0116D
:102480000F5F1F4F1A830983F7016181CE01019607
:102490000E94D011C7010F900F90DF91CF911F9133
:1024A0000F91FF90EF900895AF92BF92CF92DF927D
:1024B000EF92FF920F931F93CF93DF9300D0CDB78E
:1024C000DEB78B016B0124E0C20ED11C7B015C01E5
:1024D000A61AB70AC5018E0D9F1D9A838983F7013D
:1024E00061917F01CE0101960E94D011EC14FD0490
:1024F00089F7C8010F900F90DF91CF911F910F9135
:10250000FF90EF90DF90CF90BF90AF900895AF9283
:10251000BF92CF92DF92EF92FF920F931F93CF93D0
:10252000DF9300D000D000D0CDB7DEB78C01FC0126
:1025300082810E94E40D21E08115944008F020E0A2
:10254000F8012387C8010E94FB0DF8011086682F4F
:1025500083810E94490AF801E280F0E8EF9E700151
:1025600011249701295F3E4F7901BE016F5F7F4FB4
:10257000C9010E94D00D89819A8101969E838D8325
:10258000BE016B5F7F4FC7010E94E91180910C0172
:10259000882309F47CC00E94000CF801D2802D2D04
:1025A00030E069837A838B839C837901EE0CFF1C76
:1025B000E20EF31E970126583A4F7901F901A080E7
:1025C000B180C5010E945E0DC82EF3E0DF9EC00100
:1025D000112486589A4F0E94CA0DD82E2C2D280FF0
:1025E0003327331FC901F701628170E00E94F8218F
:1025F000880F991F880F991FF2E0AF0EB11CBE0122
:102600006F5F7F4F8A0D9B1D0E945412F70122813C
:102610008081918161E0D2123EC06C0D0E945F11F9
:1026200062E0F80182810E9461116AE070E080E05E
:1026300090E00E948E0461E0F80182810E945F0AAE
:1026400064EF71E080E090E00E948E0461E0F801A8
:1026500082810E9461116AE070E080E090E00E9457
:102660008E0463E0C8010E94D40A80E026960FB66B
:10267000F894DEBF0FBECDBFDF91CF911F910F91B8
:10268000FF90EF90DF90CF90BF90AF90089560E003
:1026900070E0CB0182CF6D0D0196C0CF1F920F92DB
:1026A0000FB60F9211248F939F938091E100909128
:1026B000E100937F9093E10083FF0FC01092E90047
:1026C00091E09093EB001092EC0092E39093ED0078
:1026D00010924B0498E09093F00082FF22C093E0A8
:1026E0009093E9009091F200992319F09AE3909366
:1026F000E80090915903992341F09091590391502A
:1027000090935903911101C05D9890914A049923C7
:1027100041F090914A04915090934A04911101C064
:10272000289884FF18C08091E2008E7E816080939B
:10273000E2008091E1008F7E8093E10080915A0356
:102740008E7E806180935A039F918F910F900FBE70
:102750000F901F90189580FFF7CF8091E2008E7E3A
:1027600080618093E2008091E1008E7E8093E100A1
:1027700080915A038E7E8160E5CF1F920F920FB633
:102780000F921124CF92DF92EF92FF920F931F933B
:102790002F933F934F935F936F937F938F939F9369
:1027A000AF93BF93EF93FF93CF93DF93CDB7DEB794
:1027B0006C97DEBFCDBF1092E9008091E80083FFE7
:1027C00025C068E0CE0145960E94D50282EF809335
:1027D000E8008D8987FF39C09091E80090FFFCCF19
:1027E000982F907609F034C19E894F89588D2F8992
:1027F000F88C911131C0803861F580915B03809332
:10280000F1001092F1008EEF8093E8006C960FB605
:10281000F894DEBF0FBECDBFDF91CF91FF91EF9156
:10282000BF91AF919F918F917F916F915F914F91E8
:102830003F912F911F910F91FF90EF90DF90CF90DC
:102840000F900FBE0F901F9018959EEF9093E80089
:10285000C7CF1092F100D5CF913059F48111D3CF69
:102860004130510581F680915B038D7F80935B033E
:10287000CACF933049F48111C6CF4130510519F6C2
:1028800080915B038260F2CF953041F48091E80043
:1028900080FFFCCF20682093E300B5CF963009F08D
:1028A000A9C00B8D1C8D22E01092E90010925703F5
:1028B00010925603F2122EC0109255031092540338
:1028C0000E94A4021F8299E09983FA8291E09E837C
:1028D00090EA98879AEF9987209156033091570391
:1028E000275F3F4F3C832B838D831092E90010922A
:1028F000570310925603109355030093540349E075
:1029000050E0BE016F5F7F4F80E00E947E020E9418
:10291000A40279CF10935503009354030E94090237
:10292000DC0112960D911C910115110509F451C19C
:10293000D801ED91FC910480F581E02DBE016B5E24
:102940007F4FC8010995009709F03EC1F801008545
:102950001185EACFF3E0FF120EC08F89882309F4B6
:1029600040C0823061F440E86DE083EA91E00E946B
:102970004B02811148CF81E28093EB0047CF813039
:1029800029F440E86BE087E991E0F1CF833099F7D3
:102990000E940902DC011296ED90FC908E010F5FFF
:1029A0001F4F6801E114F10479F0D701ED91FC911A
:1029B0000680F781E02DB801C7010995080F111DA8
:1029C000F701E084F184EECFD8011C92F60101906A
:1029D0000020E9F73197BF016C197D0940E0C6017D
:1029E000C6CF61E871E0FB01449150E080E80E94AD
:1029F0007E0209CF973009F4BECF983021F481E0F0
:102A00008093F10000CF993009F0FDCE837009F07A
:102A1000B2CFE4E7F2E081E031E096E321912223B6
:102A200071F08093E9003093EB00DF0111972C9156
:102A30002093EC009093ED008F5F873079F78EE75D
:102A40008093EA001092EA008F8980934B04DBCEDA
:102A50008B8D9C8D1092E9001092570310925603B3
:102A60009093550380935403898D811192C08E8970
:102A70009D89913A49F4813209F07DCF47E050E0D9
:102A800064E071E080E0B3CF913209F074CF83321B
:102A900069F48F89988DB0E0A0E080930001909355
:102AA0000101A0930201B0930301ADCE803269F41D
:102AB0008091E80082FFFCCF67E084E091E00E9413
:102AC000D5028BEF8093E8009ECE823209F09BCE38
:102AD0008F8980930B01EEEFFFE7859194918B3FF7
:102AE0009C4D51F1E0E0F8E08091040190910501E6
:102AF000A0910601B0910701803B9440A105B1056A
:102B0000F1F480910B0180FD1AC0EE3F8AE0F807D6
:102B100089F587E797E791838083809160008093B0
:102B2000580388E19BE00FB6F894A8958093600065
:102B30000FBE9093600067CEEEEFFAE0D5CF8081B4
:102B400091818737974709F05ECEA8958091600004
:102B50008861809360008091580380936000EE3F0D
:102B60002AE0F20789F08091FE0A9091FF0A918392
:102B7000808349CE808191818737980751F2909365
:102B8000FF0A8093FE0AC5CF1092FF0A1092FE0A38
:102B90003ACE0E940902DC0112960D911C9101159A
:102BA000110509F4E8CED801ED91FC910190F08176
:102BB000E02DBE016B5E7F4FC8010995811123CEC8
:102BC000F80100851185EBCF181619060CF41BCE01
:102BD000D2CEF1E0FF12BECE65E871E004CF1F92C5
:102BE0000F920FB60F9211242F933F938F939F93C1
:102BF000AF93BF9380916A0390916B03A0916C0394
:102C0000B0916D0330914F0323E0230F2D3758F51A
:102C10000196A11DB11D20934F0380936A039093E9
:102C20006B03A0936C03B0936D038091500390915C
:102C30005103A0915203B09153030196A11DB11D00
:102C40008093500390935103A0935203B093530386
:102C5000BF91AF919F918F913F912F910F900FBE98
:102C60000F901F90189526E8230F0296A11DB11D05
:102C7000D2CF1F920F920FB60F9211242F933F9332
:102C80004F935F936F937F938F939F93AF93BF9374
:102C9000EF93FF938091B900887F803609F44AC092
:102CA000F0F5883209F4A7C018F5803109F49BC00B
:102CB000B8F4882309F4F9C0883009F494C0FF916E
:102CC000EF91BF91AF919F918F917F916F915F91A4
:102CD0004F913F912F910F900FBE0F901F9018951D
:102CE000883109F488C0803251F78093960414C06B
:102CF000803409F49DC040F48033B9F38833F9F689
:102D00008093960485ECB0C0803509F485C0883581
:102D100009F496C0883499F60E944505D0CF8839C9
:102D200009F48CC038F5883729F050F4883611F052
:102D3000803729F683E08093980410924E0357C0A1
:102D4000883809F47BC0803919F0803809F0B7CF92
:102D500080914E03803208F071C0E0914E0381E013
:102D60008E0F80934E038091BB00F0E0E25DFC4F3C
:102D700080833DC0803B39F0E0F4803A09F479C0AB
:102D8000883A09F09CCF84E08093980410922D0338
:102D900010922C03E0914E04F0914F04099580911C
:102DA0002C0381110FC081E080932C0310920C033F
:102DB00009C0803C09F4A6CF883C09F4A3CF883B26
:102DC00009F07DCFE0912D0381E08E0F80932D03DC
:102DD000F0E0E45FFC4F80818093BB0090912D0375
:102DE00080912C0329C0809173048093BB0085ECF3
:102DF0008093BC0064CF90919504809194049817BF
:102E000058F5E091950481E08E0F80939504F0E0F1
:102E1000EC58FB4F8081E9CFE091950481E08E0F63
:102E2000809395048091BB00F0E0EC58FB4F8083C9
:102E300090919504809194049817C8F285E8D8CFB2
:102E4000E091950481E08E0F809395048091BB0002
:102E5000F0E0EC58FB4F80838091970481115CCFA8
:102E600081E08093720484EA8093BC0010929804FD
:102E700026CF85EC8093BC001092980480914E037D
:102E8000803230F4E0914E03F0E0E25DFC4F1082BE
:102E900060914E0370E0E0914C04F0914D048EE29D
:102EA00093E0099510924E030ACF1092960434CF06
:102EB0001F920F920FB60F9211240F931F932F930F
:102EC0003F934F935F936F937F938F939F93AF93B2
:102ED000BF93CF93DF93EF93FF930BE111E0D0E02B
:102EE000C0E0F80181918F010E94AF03FE01EA5F0B
:102EF000FC4F9081981731F0DE01AB59BC4F9C918B
:102F00009F5F9C9380832196C530D10551F7FF9137
:102F1000EF91DF91CF91BF91AF919F918F917F9171
:102F20006F915F914F913F912F911F910F910F9052
:102F30000FBE0F901F901895EDEBF4E013821282F4
:102F400088EE93E0A0E0B0E084839583A683B78306
:102F500026EC32E0318320832FEF3FEF3587248743
:102F6000E9E8F5E01382128284839583A683B78310
:102F700088ED92E091838083EDE0F5E08AEE92E0C7
:102F80009183808382EF92E093838283109276050F
:102F900010927505109278051092770510927905B8
:102FA000EAE7F5E088E0828320E431E031832083A2
:102FB000858320EC31E034832383808720E432E072
:102FC00037832683838720EC32E032872187868708
:102FD00080E493E0958784870C940604CF93DF9375
:102FE000CDB7DEB7CB5BD1090FB6F894DEBF0FBE0D
:102FF000CDBF789484B5826084BD84B5816084BD82
:1030000085B5826085BD85B5816085BD80916E0086
:10301000816080936E0010928100809181008260B7
:1030200080938100809181008160809381008091F4
:103030008000816080938000809191008260809305
:103040009100809191008160809391008091900027
:103050008160809390008091C10084608093C10062
:103060008091C10082608093C1008091C100816025
:103070008093C1008091C30081608093C3008091E0
:10308000C00082608093C0008091C2008160809304
:10309000C20080917A00846080937A0080917A00E7
:1030A000826080937A0080917A00816080937A00B8
:1030B00080917A00806880937A0010924B0410927D
:1030C0005B0310925A038091D70081608093D700F0
:1030D00080EA8093D80089B5806189BD89B5826016
:1030E00089BD09B400FEFDCF61E070E080E090E0B2
:1030F0000E948E048091D8008F7C80618093D800DC
:103100008091E000807F8093E0008091E1008E7EDE
:103110008093E1008DE08093E200559A209A5D98BB
:10312000289814BE0FB6F894A89580916000886125
:1031300080936000109260000FBE81E490E00E94D6
:103140005E0D8093600360EA7FE080E090E00E9483
:103150008E0488E199E20FB6F894A89580936000F8
:103160000FBE90936000A8958FEF9FEF9093CA04D5
:103170008093C90418E061E080E00E94420A64E69E
:1031800070E080E090E00E948E0461E081E00E94A7
:10319000420A64E670E080E090E00E948E0460E005
:1031A00080E00E94420A64E670E080E090E00E94C5
:1031B0008E0460E081E00E94420A64E670E080E0F4
:1031C00090E00E948E041150B1F6A895BE016F5F89
:1031D0007F4F90E080E00E942E0E89819A81AB8122
:1031E000BC81813A9D4AA14ABD4A09F479C219823B
:1031F0001A821B821C82BE016F5F7F4F88E090E0C5
:103200000E94541219821A821B821C82BE016F5FB7
:103210007F4F8CE090E00E94541283E0898311E09C
:103220001A83BE016F5F7F4F84E090E00E942D12F1
:1032300019831A82BE016F5F7F4F86E090E00E9483
:103240002D1261E080E290E00E945F112AE7C22E19
:1032500025E0D22E07E011E0F12CC854DF4F19828F
:103260001882C85BD040BE0168547F4FC8010E94DD
:10327000E911C654DF4F19821882CA5BD040BE01E3
:1032800066547F4FC80104960E94E91160E08F2DBB
:103290000E94611160E0C8010D960E945F1160E01C
:1032A000C80108960E945F1160E0D6018D919C9143
:1032B0000E945F11F6018081918160E001960E9479
:1032C0005F11F39400581F4FF3E0CF0ED11C25E09F
:1032D000F212C3CF61E080E091E00E945F1161E0F3
:1032E00080E891E00E945F1161E080E092E00E943E
:1032F0005F1160E080E892E00E945F1160E080E092
:1033000093E00E945F1160E080E490E00E945F1112
:103310006AE772E090E080E00E9454120E94600D23
:1033200010E161E080E00E94420A64E170E080E028
:1033300090E00E948E0461E081E00E94420A64E114
:1033400070E080E090E00E948E0460E080E00E94E7
:10335000420A64E170E080E090E00E948E0460E048
:1033600081E00E94420A64E170E080E090E00E9407
:103370008E041150B1F680910C01882309F4B3C179
:103380000E94000C60935C0370935D0380935E0366
:1033900090935F036CE573E08CE090E00E94541220
:1033A000BE016F5F7F4F88E090E00E942E0E898102
:1033B0009A81AB81BC810196A11DB11D89839A833D
:1033C000AB83BC83BE016F5F7F4F88E090E00E94BB
:1033D0005412A89580916003857009F47CC004E1C3
:1033E00011E0F12CC8010E945E0D853080F593E05C
:1033F000E92EC8010E945E0D61E0680FC8010E94BD
:103400005F1164E170E080E090E00E948E048F2DF7
:103410000E94600B6C0162E370E080E090E00E942B
:103420008E04C8010E945E0D6FEF680FC8010E94F4
:103430005F1164E170E080E090E00E948E0439E862
:10344000C31633E1D30618F0EA94E110D2CFF39417
:1034500000581F4F45E0F412C5CF0FE011E0F12CEA
:10346000C8010E945E0D853080F583E0E82EC8011A
:103470000E945E0D61E0680FC8010E945F1164E167
:1034800070E080E090E00E948E048F2D0E947A0B05
:103490006C0162E370E080E090E00E948E04C8015D
:1034A0000E945E0D6FEF680FC8010E945F1164E11A
:1034B00070E080E090E00E948E0481E1C81687E20F
:1034C000D80618F0EA94E110D2CFF39400581F4FB9
:1034D00095E0F912C5CF84EF92E090937B0380933F
:1034E0007A0310927C0310927D0310927E0381E098
:1034F00080937F03809380031092810327EF32E053
:103500003093A2032093A1038093A3038093A40389
:103510001092A5038093A6038093A7031092A8039B
:103520002AEF32E03093C9032093C80392E09093CE
:10353000CA031092CC038093CD038093CE031092E4
:10354000CF038DEF92E09093F0038093EF0383E03D
:103550008093F1031092F5031092F60380E093E05C
:10356000909317048093160484E0809318041092BB
:103570001C0410921D040AE713E0A2E0FA2EB0E644
:103580008B2EBAEE9B2EA12CB12CD80118961C9232
:10359000189719961C9219971E96FC921E97F8017F
:1035A000178E10A211A212A293968D929D92AD92A7
:1035B000BC92969712968C91853008F09DC0882316
:1035C00061F090E002969695982F882797958795B9
:1035D0000E945E0D882309F48FC061E0C8010E943B
:1035E000D40A095D1F4FB4E00D331B0771F676E274
:1035F000C72EDD24D394F12CE12CE7E2BE2EC601C8
:103600000E945E0D8250823090F460E08E2D0E9408
:103610006111BE9CC001BF9C900D112486589C4F27
:1036200020916003257009F469C00E949C11EFEF9E
:10363000EE1AFE0AF0E8CF0ED11C25E0E216F104E6
:10364000F1F610920D0181E693E00E94B50A86E73B
:1036500093E00E94B50A10923D04109272031092FA
:10366000730310927403109275030E94000C67316B
:10367000784C8D4C9D4508F0F7C0412C512C3201FF
:10368000F12C54E6C52ED12C60E9A62EBB24B394B0
:103690002F2D30E02E54384FF901E370FF2730977B
:1036A00081F5C901B6010E94F821892B31F4C901C5
:1036B000B5010E94F821892B21F58EE691E0A0E06A
:1036C000B0E0480E591E6A1E7B1ED301C201AA2714
:1036D000BB2787329744A105B105C0F4F394D8CF36
:1036E0000E94600D48CE10925C0310925D03109210
:1036F0005E0310925F034ECE60E070CF0E946911AE
:1037000096CF8DE691E0A0E0B0E0DBCFC90164E6A2
:1037100070E00E94F8216C01C90160E971E00E942B
:10372000F821309729F4C114D104F1F40097E1F0A5
:103730004DE651E060E070E04419550966097709EB
:103740004A5D584B6F4F7F4FAEE7B2E030E031300B
:1037500081F4309709F0D1C0C114D10419F4009755
:1037600009F0CBC02DE106C04EE651E060E070E00C
:10377000E3CF2C91822E912CB12CA12C21E0230F90
:10378000481559056A057B0540F0481959096A0929
:103790007B091196322F2C30D1F6DD24D394D30E31
:1037A000EE24E394E40ECC24C394C09299048FE6F3
:1037B0008093BB0410929A041092BC0460E089E8E4
:1037C00095E00E94BA0560E089E895E00E94BA059C
:1037D00063E389E895E00E94BA0561E289E895E033
:1037E0000E94BA058DE090E00E94E9054AE0B42EFF
:1037F0008E2D6B2D0E94EC21682F660F680F660FCF
:103800006E0D89E895E00E94BA058D2D6B2D0E9402
:10381000EC21682F660F680F660F6D0D89E895E043
:103820000E94BA0582EEF80E8F2D6B2D0E94EC21BE
:10383000682F660F680F660F6F0D89E895E00E948C
:10384000BA050E94C901C092990410929A0410927C
:10385000BC0460E089E895E00E94BA0581E990E047
:103860000E94E9050E94C901A8957E0190EBE90E2E
:10387000F11C80913D04811118C0D0900D01A4E08D
:10388000AD15E8F181E693E00E94B50A87E28D9DCF
:10389000F0011124E658FC4F9285913019F4CF01C4
:1038A0000E9487128FEF80930D01AAE7CA2EA3E032
:1038B000DA2E99249394B0E64B2EBAEE5B2E612C4F
:1038C000712CD6011296EC91F0E0EB59FC4F8081FF
:1038D000883008F49EC01082C6014B960E94B50A3B
:1038E000F6018285882309F491C0833008F091C0E5
:1038F00063E0C6010E94D40A8CC02CE13BCF40E6B5
:103900005AEE60E070E081E693E00E94950A882319
:1039100061F23AE7A32E33E0B32ED12CC12CF5018E
:103920008285813009F067C095012A5733404901EB
:10393000478D50A161A172A1C50143960E94950ACD
:10394000882309F458C081E693E00E94B50A87E213
:103950008C9DF0018D9DF00D1124E658FC4F828561
:10396000813029F4C40186589C4F0E948712C601F9
:10397000880F991FC80ED91EC60186589A4F6C0130
:10398000B12CC6010E94CA0DB81630F46B2DC601C9
:103990000E94540EB394F5CF823008F486CFBB2436
:1039A000B394C6010E94CA0D982F853008F094E0A8
:1039B000B91658F46B2DC6010E94540E6FEF6B0DB3
:1039C000C6010E94540EB394ECCFB82E93E0981722
:1039D00010F483E0B82EAA24A394AB1408F065CFAA
:1039E0006A2DC6010E94540E6FEF6A0DC6010E9437
:1039F000540EA394F2CFAFEFCA1ADA0AB7E2AB0EB5
:103A0000B11C0A151B0509F08ACF4FCFC6010E94D1
:103A10009C11D60112968C910E94600B8F3F9807E3
:103A2000E1F0F2E0BF2E8837910560F0B12C8C32C6
:103A3000E1E09E0738F0BB24B3948235934010F048
:103A4000E3E0BE2ED6011E968C918B1531F0C60197
:103A50000F960E94B50AF601B686D6011A968C9189
:103A6000823009F489C108F04AC1882309F471C180
:103A7000A895B7E2CB0ED11C0C151D0509F021CF7E
:103A80008DEB94E00E9449032C01712C612C6E0196
:103A9000EBE9CE0ED11C641475040CF089C38DEBD8
:103AA00094E00E9407038A30910509F07BC38CE9FA
:103AB00092E0D60111969C938E938DE095E013963B
:103AC0009C938E9312978EE892E019969C938E9316
:103AD000189786E992E01B969C938E931A975096BE
:103AE0001C921E921F9752961C921E9251975396AB
:103AF0001C92539754961C9282EA92E0988B8F877F
:103B00008AEA92E09A8B898B65961FAE1EAE659706
:103B100067961FAE1EAE679768961FAE68976A9647
:103B2000DFAECEAE6A976B961FAE6B977EEB272EFD
:103B300072E0372E6B968FAD6B97811125C36A9615
:103B40008EAD9FAD6A9720EB32E0F7013183208381
:103B5000938382831482CB54DF4FF982E882C55B62
:103B6000D040C954DF4F1882C75BD04062E070E09C
:103B7000CE018B549F4F0E949A0E5C0164E070E06E
:103B8000CE018B549F4F0E949A0EB0E0A0E0898333
:103B90009A83AB83BC8362E070E0CE018B549F4F6D
:103BA0000E949A0E9E838D8361E070E0CE018B545B
:103BB0009F4F0E949A0E98878F8361E070E0CE013C
:103BC0008B549F4F0E949A0E9A87898762E070E01B
:103BD000CE018B549F4F0E949A0E9C878B8761E089
:103BE00070E0CE018B549F4F0E949A0E9E878D8766
:103BF00065961FAE1EAE659767961FAE1EAE6797A1
:103C000068961FAE68971A141B04E4F460E4862ECD
:103C1000912C30E4A316B1040CF44501A401BE01BB
:103C2000655A7F4FC7010E943008AC01BE01655A3A
:103C30007F4FCE010F960E94A607A818B9088815D5
:103C400099050CF7C954DF4F8881C75BD0408823A2
:103C500021F081E06B968FAF6B97D7011496BC90E3
:103C60006A968EAD9FAD6A97DC01ED91FC91019053
:103C7000F081E02D41E050E0BE01655A7F4F09958B
:103C80006C968FAD6C97B81621F081E06B968FAF74
:103C90006B976B968FAD6B97811176C2E6EBF2E076
:103CA0006D96FFAFEEAF6D976F963FAE2EAE6F97EE
:103CB0008EE091E0A1969FAF8EAFA197A6961FAE22
:103CC0001EAEA697AB961FAEAB97ED81FE81F05C62
:103CD000EF30F10508F0B9C0E059F14E0C942E22F6
:103CE000201F2F1F491F8D1F7320701F7D1F9D1FB9
:103CF000AF1FAE2089200020E21F15203020833026
:103D000009F44EC0843009F0B3CE5601B7E1AB0ED2
:103D1000B11C40E157E260E070E0C5010E94950AE5
:103D2000882319F0C5010E94B50AF60143A154A1E8
:103D300065A176A1C60143960E94950A882309F4DD
:103D400097CED60193964D925D926D927C92969706
:103D500023C0F601828181118BCE40E65AEE60E0ED
:103D600070E0C60143960E94950A882309F480CE2C
:103D7000C6010E94BA117CCE40EE53E964E070E0C7
:103D8000C60143960E94950A882309F471CED60194
:103D900012968C910E941012C6010E94691168CE81
:103DA000F6018385882361F18681882391F040EEB6
:103DB00053E964E070E0C6014B960E94950A88239F
:103DC00041F0D60112968C910E941012C6010E94F9
:103DD000530DF6018781882309F44ACE5601FFE08E
:103DE000AF0EB11C40E157E260E070E0C5010E94F7
:103DF000950A882309F43CCEC5010E94B50A38CE45
:103E000040E05AEB6BED70E0C60143960E94950AC4
:103E1000882309F42DCEC6010E94FB0D61E08111BB
:103E200060E0D60118969C92189719966C93199792
:103E300013968C910E94490AC6010E94530D18CE18
:103E4000CE01855A9F4F0E943210CE01855A9F4F56
:103E50000E941C0983E093E00E94FE0C6BCEA984B3
:103E6000BA84C501019761F40E94560B9C01A5011B
:103E700066E07FEFCE01855A9F4F0E94F010E5CF9C
:103E80008150853018F40E94600BF0CF90E080E004
:103E9000EDCF49855A85CA01019730E020E0853091
:103EA000E0F42FB7F89480906A0390906B03A09091
:103EB0006C03B0906D032FBF27E2289FF001299F6C
:103EC000F00D1124E658FC4F838D948DA58DB68D91
:103ED000881A990AAA0ABB0A940169E07FEFCACF3F
:103EE000B70188E090E00E942E0ED7012D913C9101
:103EF00041E050E06AE17FEFBDCFB984AA84B4E02D
:103F000090E080E0BB1518F08B2D0E94E40D9C0121
:103F10004B2D5A2D65E07FEFADCFB984AA84E4E044
:103F200090E080E0EB1518F08B2D0E947A0B9C013D
:103F30004B2D5A2D60E17FEF9DCF49855A85CA01EF
:103F40000197682F21E030E0853010F030E020E06C
:103F5000653010F480930D016BE07FEF8BCFCE01C5
:103F600001960E94F10EDC016B968FAD6B97A984D0
:103F7000BA8430E020E0811121C09501215031093F
:103F8000922F88248394912C253010F0912C812C31
:103F9000953098F487E2829FF001839FF00D112401
:103FA000E658FC4F28EE33E00E94432263A374A33B
:103FB00085A396A3CF010E94530D9401A5016AE049
:103FC0007FEF58CFA984BA84950121503109822FFF
:103FD00088248394912C253010F0912C812C8530ED
:103FE00050F447E2429FC001439F900D1124865830
:103FF0009C4F0E94BA119401A50160E27FEF3ACF75
:1040000049855A85CA01019730E020E0853050F497
:1040100027E2289FF001299FF00D1124E658FC4F5C
:10402000228530E06FE17FEF25CFA984BA84950126
:10403000215031092230310580F447E2429FC0010E
:10404000439F900D112486589C4F0E94FB0D282FF2
:1040500030E0A50161E27FEF0DCF2FEF30E0F9CF27
:10406000CE0101960E94F10E6B962FAD6B9789845D
:104070009A84211135C09401215031092230310533
:1040800060F55C010097B9F487E2829FF001839F9D
:10409000F00D1124E658FC4F81E08087118660E026
:1040A00083810E94490AAA24A394B12C9501A401FA
:1040B00062E27FEFDFCE019781F487E2829FF00119
:1040C000839FF00D1124E658FC4F81E080878187A3
:1040D00061E083810E94490AE9CFB12CA12CE6CF8F
:1040E00030E020E0E4CF2FB7F89460916A0370913C
:1040F0006B0380916C0390916D032FBF28EE33E02A
:1041000040E050E00E940C2241E050E064E17FEF8B
:10411000B1CED7011D921D921D921C92139747019B
:10412000B12CA12CCB54DF4FB982A882C55BD04003
:10413000F40161914F01CE018B549F4F0E94D01129
:10414000FFEFAF1ABF0A24E0A216B10459F721E02D
:1041500030E041E050E06AE070EC8CCE81E080938A
:104160003D048EE693E00E94B50A1092720310920D
:104170007303109274031092750321E030E041E064
:1041800050E069E070EC76CE1092760510927505DD
:104190001092780510927705109279053FEF631A17
:1041A000730A79CC682F8FE095E00E942B09F6CF37
:1041B00040E65AEE60E070E086E793E00E94950AE0
:1041C000882309F46EC086E793E00E94B50AA8959B
:1041D00086EB92E09A8389838EEB92E09C838B83BB
:1041E0008EE091E09E838D831B861A86188ACE010D
:1041F00001960E943210CC24C394D12C41E0C41605
:10420000D10409F0A9C00E94560B9C01A60166E0EA
:104210007FEFCE0101960E94F0108FEFC81AD80AE6
:1042200097E0C916D10451F7CC24C394D12CA5E052
:1042300090E080E0CA1619F08C2D0E94E40D9C01DC
:10424000A60165E07FEFCE0101960E94F010BFEF5E
:10425000CB1ADB0AE6E0CE16D10449F7CC24C3948E
:10426000D12CF5E090E080E0CF1619F08C2D0E9463
:104270007A0B9C01A60160E17FEFCE0101960E94BE
:10428000F0102FEFC21AD20A36E0C316D10449F754
:10429000CE0101960E941C096AE08EE091E00E9426
:1042A0002B09D0903D04DD2009F45BC040917203DE
:1042B0005091730360917403709175038EE693E0DF
:1042C0000E94950A882309F44CC088E199E20FB650
:1042D000F894A895809360000FBE90936000A89515
:1042E00015E061E080E00E94420A61E081E00E9406
:1042F000420A60E570E080E090E00E948E0460E099
:1043000080E00E94420A60E081E00E94420A60E58B
:1043100070E080E090E00E948E04115011F761E09F
:1043200080E00E94420A61E081E00E94420A68EC5B
:1043300070E080E090E00E948E0460E080E00E94E7
:10434000420A60E081E00E94420A68EC70E080E08E
:1043500090E00E948E04C4CF8EEF8C0D0E94600B03
:1043600054CF8DE00E94AF0361E0019709F460E053
:1043700080E00E94420ADD2051F08DE00E94AF03F0
:1043800061E0019709F060E081E00E94420AA8958F
:1043900068EC70E080E090E00E948E0480E090E0A5
:1043A000892B09F466CA0E94000063CAF999FECFFE
:1043B00092BD81BDF89A992780B50895262FF99965
:1043C000FECF1FBA92BD81BD20BD0FB6F894FA9AF8
:1043D000F99A0FBE01960895991B79E004C0991FC0
:1043E000961708F0961B881F7A95C9F7809508954F
:1043F00097FB072E16F4009407D077FD09D00E9492
:104400005D2207FC05D03EF4909581959F4F08955D
:10441000709561957F4F0895A1E21A2EAA1BBB1BD0
:10442000FD010DC0AA1FBB1FEE1FFF1FA217B30780
:10443000E407F50720F0A21BB30BE40BF50B661F96
:10444000771F881F991F1A9469F76095709580955A
:1044500090959B01AC01BD01CF010895EE0FFF1FA8
:104460000590F491E02D0994A29FB001B39FC00183
:10447000A39F700D811D1124911DB29F700D811D90
:104480001124911D08950E943422B7FF0895821BC4
:10449000930B08950E943422A59F900DB49F900D18
:1044A000A49F800D911D11240895B7FF0C944A22FA
:1044B0000E944A22821B930B0895AA1BBB1B51E149
:1044C00007C0AA1FBB1FA617B70710F0A61BB70B84
:1044D000881F991F5A95A9F780959095BC01CD0129
:0644E0000895F894FFCFDF
:1044E600FFFFFFFF00E100000000000001FF1401D4
:1044F60000000000190800000102030507160B174B
:104506000406080A0C62686A636B0115414243445B
:1045160045464748494A4B4C4D4E4F5051525354CD
:1045260055565758595A6162636465666768696A81
:104536006B6C6D6E6F707172737475767778797A4D
:10454600303132333435363738392B2F00005EBCE4
:10455600E2613FDD83C29C7E20A3FD1F419DC321F6
:104566007FFCA2401E5F01E3BD3E6082DC237D9F8F
:10457600C1421CFEA0E1BF5D0380DE3C62BEE002DC
:104586005CDF81633D7C22C09E1D43A1FF4618FA75
:10459600A427799BC584DA3866E5BB5907DB8567AE
:1045A60039BAE406581947A5FB7826C49A653BD95B
:1045B60087045AB8E6A7F91B45C6987A24F8A64494
:1045C6001A99C7257B3A6486D85B05E7B98CD23041
:1045D6006EEDB3510F4E10F2AC2F7193CD114FAD5E
:1045E600F3702ECC92D38D6F31B2EC0E50AFF11327
:1045F6004DCE90722C6D33D18F0C52B0EE326C8E44
:10460600D0530DEFB1F0AE4C1291CF2D73CA947604
:1046160028ABF517490856B4EA6937D58B5709EB25
:10462600B536688AD495CB2977F4AA4816E9B755E2
:104636000B88D6346A2B7597C94A14F6A8742AC80B
:1046460096154BA9F7B6E80A54D7896B35000000D2
:1046560000560800C18081000000A1ADA1AD1F1C5D
:104666001F1E1F1E1F1F1E1F1E1F000000007C0690
:104676002806FEFF00007906000000004109000040
:104686000000A906A607FEFF0000160800000000AD
:10469600300800000000E6081C09FEFF000028099B
:1046A6000D0900000000E202C0040303F8024903FA
:1046B6000703250300000000BA058D05EE05760503
:1046C6008605A3017705000000006107EE06FEFFE0
:1046D60000005E076E6300676E006373007831004A
:0646E6007832000D0A000D
:00000001FF
