:100000000C94DA000C9402010C9402010C9402018D
:100010000C9402010C9402010C9402010C94020154
:100020000C9402010C9402010C9493150C9410167C
:100030000C9402010C9402010C9402010C94020134
:100040000C9402010C9402010C9402010C94020124
:100050000C94AB190C9402010C9402010C944218FC
:100060000C9402010C9402010C9402010C94020104
:100070000C9402010C9402010C9402010C940201F4
:100080000C9402010C9402010C9402010C940201E4
:100090000C948C180C9402010C9402010C94020133
:1000A0000C9402010C9402010C9402010706050451
:1000B0000100080A0B0C0D090000000024002700B5
:1000C0002A002D00300000000000250028002B0031
:1000D0002E003100000000002300260029002C0023
:1000E0002F000404040404030405020202020403B2
:1000F00002020202060606060606040402020204C2
:100100000404080201104080401020408040800814
:100110000204018040201002011080102040402085
:100120000000000200090F0000030401000C0000A1
:1001300000000000000000000000000000000008B7
:100140000B0002020201000904000001020200008B
:1001500005240010010524010101042402060524E0
:100160000600010705810310004009040100020A8E
:10017000000000070502024000000705830240005E
:10018000000403090412010002EF02014041233779
:100190008000010102030141726475696E6F204C99
:1001A0004C430041726475696E6F204D6963726FD4
:1001B0000000EF1911241FBECFEFDAE0DEBFCDBF84
:1001C00013E0A0E0B1E0E8E5FAE402C005900D928A
:1001D000A231B107D9F725E0A2E1B3E001C01D9239
:1001E000AD3BB207E1F710E0CAEDD0E004C02197C3
:1001F000FE010E94E724C93DD107C9F70E94411AB8
:100200000C942A250C940000982F2091C80481E0BA
:10021000213208F043C08091A4048111FCCF809169
:10022000C70432E03093A4049093A3049FEF90930B
:10023000A2041092A1042093A004A7EAB4E0E0E88D
:10024000F4E090E0291331C010927F0490917F0474
:10025000880F892B80937F0480917E04813049F53B
:1002600010927E0480917F048093BB008091BC003B
:1002700083FDF8CF85EC8093BC008091A40482308C
:10028000E1F38091A2048F3FB1F08091A20480320B
:10029000A1F08091A204803391F084E01092A60432
:1002A0001092C8041092A50408953D9131939F5F68
:1002B000C9CF85EEE0CF80E0F1CF82E0EFCF83E0E1
:1002C000EDCF9091A4049111FCCF91E09093A40400
:1002D0009093A3042FEF2093A2041092A104260F61
:1002E0002093A00490937F0490917F04880F892B22
:1002F00080937F0480917E048130F9F410927E0413
:1003000080917F048093BB008091BC0083FDF8CF77
:1003100085EC8093BC008091A4048130E1F380914E
:10032000A104861710F46091A104A0E8B4E0EEE502
:10033000F4E080E0861303C0089585EEEACF9D9136
:1003400091938F5FF7CF90915D0480915C042FEFC4
:100350003FEF981748F4E92FF0E0E25AFB4F208175
:1003600030E09F5F90935D04C901089590915D0412
:1003700080915C042FEF3FEF981748F4E92FF0E0ED
:10038000E25AFB4F208130E09F5F90935D04C901EA
:10039000089581E00C940401089508952FB7F8940E
:1003A00083E08093E9009091E800892F807295FFA7
:1003B00004C09091F20080E4891B2FBF0895FC01D6
:1003C00080915704882311F13FB7F89482E080931D
:1003D000E9002091F200822F90E01816190614F41B
:1003E00081E090E0882339F0289A44E6409356044F
:1003F0004091F1004083222339F02091F200211135
:1004000003C02BE62093E8003FBF08958FEF9FEFD6
:10041000089583E08093E9008091F200882319F029
:100420008AE38093E800089580914E0481110DC005
:1004300082E080934A0484E080934B0410924D0440
:1004400010924C0481E080934E048AE494E0089575
:100450000C94090240916203509163032091600360
:100460003091610342175307B4F49091E8009570FE
:10047000E1F39091E80092FD19C08093F100809122
:1004800062039091630301968F739927892B19F466
:100490008EEF8093E8008091620390916303019650
:1004A000909363038093620381E0089580E0089550
:1004B000EF92FF920F931F93CF93DF93F82E192F94
:1004C000E62E042F81E0860F880F0E942A0283E027
:1004D0000E942A02CF2DD12FEC0EFD2EF11CCE153D
:1004E000DF05B9F007FF13C0FE0184910E942A02C4
:1004F000182F80E00E942A02812321968111EFCFDC
:10050000DF91CF911F910F91FF90EF900895888117
:10051000EDCF81E0F5CFDF92EF92FF920F931F9323
:10052000CF93DF93D82E8A01EB017B01E40EF51EF9
:10053000CE15DF0559F0D7FE12C0FE0184910E944E
:100540002A0221968111F4CF0FEF1FEFC801DF912E
:10055000CF911F910F91FF90EF90DF9008958881C8
:10056000EECF0F931F93CF93DF931F92CDB7DEB7DC
:1005700082E0898342E450E06FE371E080E80E940A
:100580008B020E941402DC0112960D911C91011540
:10059000110589F0D801ED91FC910280F381E02DE5
:1005A000BE016F5F7F4FC801099597FD04C0F80138
:1005B00000851185ECCF89810F90DF91CF911F913C
:1005C0000F910895615030F02091F100FC012083DB
:1005D0000196F8CF289A84E6809356040895CF9325
:1005E000DF931F92CDB7DEB76983DC01ED91FC91FB
:1005F0000280F381E02D41E050E0BE016F5F7F4F4C
:1006000009950F90DF91CF9108950E94CE0190E05F
:100610000895CF93DF931F92CDB7DEB7FC01848599
:10062000958597FD08C02FEF3FEF358724870F9002
:10063000DF91CF910895CE0101960E94DF010197CD
:1006400019F4898190E0F3CF8FEF9FEFF0CF0F93F4
:100650001F93CF93DF931F92CDB7DEB78C01FC01C0
:100660008485958597FF0BC0CE0101960E94DF011E
:10067000019771F4898190E0F80195878487F801EA
:10068000848595850F90DF91CF911F910F910895EB
:100690008FEF9FEFF1CFFC018485958597FD0BC00F
:1006A0009FB7F89482E08093E9008091F2009FBFA9
:1006B00090E0019608959FB7F89482E08093E90056
:1006C0008091F2009FBF90E0089581508F3008F034
:1006D00047C0E82FF0E0E159FC4F0C94E7248C036D
:1006E00090037E0384038803B003B003B003930335
:1006F00099039D03A103A703B003AB03809180007E
:100700008F77809380000895809180008F7DF9CF4E
:1007100080918000877FF5CF84B58F7784BD089561
:1007200084B58F7DFBCF809190008F778093900070
:100730000895809190008F7DF9CF80919000877F00
:10074000F5CF8091C0008F778093C000089580918D
:10075000C0008F7DF9CF8091C200877F8093C20057
:100760000895CF93DF93282F30E0F901E05EFE4F2C
:100770008491F901EF5FFE4FD491F901EE51FF4FE3
:10078000C491CC23A1F081110E946503EC2FF0E00D
:10079000EE0FFF1FEC52FF4FA591B491EC91ED23AA
:1007A00081E090E009F480E0DF91CF91089580E04E
:1007B00090E0FACF1F93CF93DF93282F30E0F90119
:1007C000E05EFE4F8491F901EF5FFE4FD491F90195
:1007D000EE51FF4FC491CC23A9F0162F81110E9436
:1007E0006503EC2FF0E0EE0FFF1FEA53FF4FA591DA
:1007F000B4918FB7F894EC91111108C0D095DE2315
:10080000DC938FBFDF91CF911F910895DE2BF8CF3E
:1008100010925D0410925C041092A6041092C80419
:100820001092A40481E08093A30410927E0461E0FE
:1008300082E00E94DA0361E083E00E94DA03E9EBE0
:10084000F0E080818E7F808380818D7F808388E44B
:100850008093B80085E48093BC008CEC91E0909389
:100860005B0480935A048DEC91E09093590480933B
:1008700058040895CF93DF9390E0FC01EF5FFE4FA3
:1008800024918E519F4FFC0184918823D1F090E0F8
:10089000880F991FFC01E854FF4FA591B491FC010A
:1008A000EA53FF4FC591D491623071F49FB7F89429
:1008B0003C91822F809583238C93E8812E2B288373
:1008C0009FBFDF91CF9108958FB7F894EC912E2BB5
:1008D0002C938FBFF6CF3FB7F89480915C03909133
:1008E0005D03A0915E03B0915F0326B5A89B05C090
:1008F0002F3F19F00196A11DB11D3FBFBA2FA92F9F
:10090000982F8827BC01CD01620F711D811D911D9B
:1009100042E0660F771F881F991F4A95D1F7089507
:100920008F929F92AF92BF92CF92DF92EF92FF92FF
:100930004B015C010E946B046B017C010E946B0403
:100940006C197D098E099F09683E734081059105E8
:10095000A8F321E0821A9108A108B10888EEC80E18
:1009600083E0D81EE11CF11C81149104A104B104A0
:1009700029F7FF90EF90DF90CF90BF90AF909F90BE
:100980008F9008958F929F92AF92BF92CF92DF92F5
:10099000EF92FF920F931F93CF93DF936C017B0134
:1009A0008A0180910B01882309F45CC0809157046F
:1009B000882309F457C08091660380FF05C08091A9
:1009C000E00082608093E000E801B12C8AEFA82E5D
:1009D00093E0892E2AE3922E209711F4BB20D9F1BF
:1009E0000E94CE0181110AC0AA94AA20D9F161E027
:1009F00070E080E090E00E949004EECF8C171D061E
:100A000011F00CF08C2F9FB7F8948092E9002091A0
:100A1000E80025FD02C09FBFDFCF282F30E0C21BBA
:100A2000D30BF701815020F041914093F100FACFB0
:100A3000E20EF31EBB2021F09092E800B12CEBCF28
:100A40008091E80085FDE7CF9092E800BB24B39445
:100A5000209709F3F3CF5D9A84E68093650310161F
:100A600011063CF081E090E0F6019383828310E070
:100A700000E0C801DF91CF911F910F91FF90EF909F
:100A8000DF90CF90BF90AF909F908F90089585EDAD
:100A90008093BC008091BC0084FDFCCF1092A40424
:100AA000089520913803260F3327331F2132310553
:100AB000ECF42091A404FC0190E080E0243069F083
:100AC00082E00895A09138032191AC01485E5C4F0B
:100AD000A40FB52FB11D2C930196861798F3809122
:100AE0003803680F6093380380E0089581E008952B
:100AF0000895E0915D0480915C04E81730F4F0E023
:100B0000E25AFB4F808190E008958FEF9FEF0895A8
:100B100080915C0490915D04891B990B0895CF929C
:100B2000DF92EF92FF920F931F93CF93DF937C019D
:100B3000CB018A012091A504222389F0EB016B01EE
:100B4000C40ED51ECC15DD0569F06991D701ED9174
:100B5000FC910190F081E02DC7010995F3CF642F3E
:100B60000E945105C801DF91CF911F910F91FF9015
:100B7000EF90DF90CF900895CF93DF931F92CDB782
:100B8000DEB769832091A5042223F9F02091C804DF
:100B9000203258F021E030E0FC013383228390E0E2
:100BA00080E00F90DF91CF9108958091A604E82F07
:100BB000F0E0E955FB4F998190838F5F8093A60405
:100BC0008093C80481E090E0ECCF61E0CE01019613
:100BD0000E945105F7CF682F81EB95E00C94BC057E
:100BE00090E080E008950F931F93FC018A019B0120
:100BF000CB01BA0161547109810991096A3171050A
:100C00008105910580F0D901CA0181569109A10998
:100C1000B1094A97A105B10548F4C901BA01675461
:100C20007109810991091F910F910895D901CA0194
:100C3000C097A109B1090A97A105B10538F4C90106
:100C4000BA016C5F7F4F8F4F9F4FEDCF6EE370E027
:100C500080E090E00B3211052105310521F36FE3AF
:100C600070E080E090E00F32110521053105D9F2E6
:100C700081E0808360E070E0CB01D5CFEF92FF92FE
:100C80000F931F93CF93DF93FC018385811144C0A1
:100C9000C781D0852097E1F0818592858C1B9D0BC3
:100CA0007F0124E0E20EF11C30E020E02817390734
:100CB0005CF487010C0F1D1FD8011C91D7011D93F7
:100CC0007D012F5F3F4FF2CF108617829287818779
:100CD000DB0190E080E084179507D4F4218532850C
:100CE000233031054CF021E02387DF91CF911F9114
:100CF0000F91FF90EF9008950196B9016F5F7F4FBC
:100D0000728761876D912E0F3F1FE9016C83E3CFDE
:100D10004817590751F3E7CF90E080E0E6CF0297FC
:100D20000C943E06CF93DF93FC018385811122C092
:100D3000218532858781908528173907C9F0DB0125
:100D400090E080E084179507BCF4278130856185A9
:100D500072852617370784F4B9016F5F7F4F70875C
:100D6000678301962E0F3F1FE9012C812D93EACF57
:100D700081E0838790E080E0DF91CF910895EF924A
:100D8000FF920F931F93CF93DF93FC0180A58111F6
:100D900044C0C4A1D5A12097E1F086A197A18C1BE6
:100DA0009D0B7F0124E0E20EF11C30E020E02817CB
:100DB00039075CF487010C0F1D1FD8011C91D70166
:100DC0001D937D012F5F3F4FF2CF15A214A297A371
:100DD00086A3DB0190E080E084179507D4F426A178
:100DE00037A1203231054CF021E020A7DF91CF91CF
:100DF0001F910F91FF90EF9008950196B9016F5FD9
:100E00007F4F77A366A36D912E0F3F1FE9016C837F
:100E1000E3CF4817590751F3E7CF90E080E0E6CFE2
:100E200002970C94BF06CF93DF93FC0180A581113C
:100E300022C026A137A184A195A128173907C9F09E
:100E4000DB0190E080E084179507BCF424A135A174
:100E500066A177A12617370784F4B9016F5F7F4F2A
:100E600075A364A301962E0F3F1FE9012C812D93DA
:100E7000EACF81E080A790E080E0DF91CF910895F4
:100E80008F929F92AF92BF92CF92DF92EF92FF929A
:100E90000F931F93CF93DF939C014C0188E8880E3A
:100EA000911CE4018881811158C06901D4E8CD0EFC
:100EB000D11CF6010081118101151105F1F07901B4
:100EC000F6E8EF0EF11CE70188819981801B910BF8
:100ED000D9011496F0E0E0E0E817F90744F45D0169
:100EE000A00EB11EE501B880BD923196F5CFF60196
:100EF00011821082E70199838883FB0190E080E0F2
:100F0000D901AA57BF4F841795071CF56D917C91A5
:100F100011976038710584F021E0F4012083DF919E
:100F2000CF911F910F91FF90EF90DF90CF90BF90E6
:100F3000AF909F908F90089501968B010F5F1F4F88
:100F400011961C930E931191620F731FEB011C837A
:100F5000DACF4817590719F3DFCF90E080E0DFCFF1
:100F600002970C944007EF92FF920F931F93CF9339
:100F7000DF93DC017C0188E8E80EF11CF701808139
:100F800081112DC08D010A571F4FED01CC57DF4F46
:100F9000F801208131818881998128173907E1F092
:100FA0007B0190E080E084179507DCF4288139818B
:100FB000F80160817181261737079CF4B9016F5FD2
:100FC0007F4F7983688301962A0F3B1FF9012481A3
:100FD000F70121937F01E7CF81E0F701808390E063
:100FE00080E0DF91CF911F910F91FF90EF900895D6
:100FF000EF92FF920F931F93CF93DF93DC017C015D
:1010000088E4E80EF11CF701808181112DC08D016B
:101010000A5B1F4FED01CC5BDF4FF801208131816E
:101020008881998128173907E1F07B0190E080E001
:1010300084179507DCF428813981F801608171817A
:10104000261737079CF4B9016F5F7F4F7983688358
:1010500001962A0F3B1FF9012481F70121937F019B
:10106000E7CF81E0F701808390E080E0DF91CF91CE
:101070001F910F91FF90EF9008958F929F92AF92E2
:10108000BF92CF92DF92EF92FF920F931F93CF9375
:10109000DF939C014C0188E4880E911CE401888157
:1010A000811158C06901D4E4CD0ED11CF601008134
:1010B000118101151105F1F07901F6E4EF0EF11C33
:1010C000E70188819981801B910BD9011496F0E08A
:1010D000E0E0E817F90744F45D01A00EB11EE50158
:1010E000B880BD923196F5CFF60111821082E701EA
:1010F00099838883FB0190E080E0D901AA5BBF4F10
:10110000841795071CF56D917C91119760347105DA
:1011100084F021E0F4012083DF91CF911F910F91A2
:10112000FF90EF90DF90CF90BF90AF909F908F9007
:10113000089501968B010F5F1F4F11961C930E931C
:101140001191620F731FEB011C83DACF4817590707
:1011500019F3DFCF90E080E0DFCF02970C943D08D9
:101160000F931F93CF93DF93DC0112962C912111E3
:1011700010C08A01EC0188819981DC01ED91FC911C
:101180000190F081E02D09950817190711F081E011
:101190008A83DF91CF911F910F9108950F931F9331
:1011A000CF93DF938B01EA010E94CE01482F50E0DC
:1011B000C417D5070CF4AE01B80189EC94E0DF91B7
:1011C000CF911F910F910C94C2040F931F93CF9353
:1011D000DF93EC018B018A819B81DC01ED91FC9115
:1011E0000190F081E02D09959C019C81D801AD0111
:1011F000401B510B421753073CF4ED91E927F0E0F7
:10120000E359FE4F9081F3CF9C83C901DF91CF91C9
:101210001F910F910895CF93DF93DC0114968C9169
:101220001497EB019E01261B370B241735073CF45E
:10123000E991E827F0E0E359FE4F8081F3CF14965F
:101240008C93149712968D919C91DC01ED91FC91F9
:101250000190F081E02DDF91CF9109940F931F93BE
:10126000CF93DF93DC0112962C91211115C08A01D6
:10127000EC0188819981DC01ED91FC910190F08174
:10128000E02D09950817190711F021E02A83DF9155
:10129000CF911F910F91089590E080E0F8CFCF9308
:1012A000DF93EC0189859A8581309105E9F58E817E
:1012B00090E0B0E0A0E0DC0199278827AC01BD01F7
:1012C000E2E17695679557954795EA95D1F7445DA4
:1012D0005E4FFA0120812B87FCE0B695A795979584
:1012E0008795FA95D1F78F739927AA27BB27845D35
:1012F0009E4FDC018C918C878DE38D878E878C814E
:101300009D81BE01655F7F4FDC01ED91FC910190F5
:10131000F081E02D44E050E00995049711F081E060
:101320008F871A8619868BC082309105E1F52E8150
:101330008F8190E0B0E0A0E0BA2FA92F982F8827E6
:10134000A22BAC01BD01E2E17695679557954795D3
:10135000EA95D1F7445D5E4FFA0120812B87AC01FD
:10136000BD01FCE07695679557954795FA95D1F7BD
:101370004F73552766277727445D5E4FFA0120811A
:101380002C8726E0B695A795979587952A95D1F74E
:101390008F739927AA27BB27845D9E4FDC018C9110
:1013A0008D878DE3ABCF039709F047C02E818F81E6
:1013B00090E0B0E0A0E0BA2FA92F982F8827A22BA9
:1013C0002885822BAC01BD01E2E1769567955795A2
:1013D0004795EA95D1F7445D5E4FFA0120812B874E
:1013E000AC01BD01FCE07695679557954795FA9558
:1013F000D1F74F73552766277727445D5E4FFA0173
:1014000020812C87AC01BD0126E076956795579524
:1014100047952A95D1F74F73552766277727445D5F
:101420005E4FFA0120812D878F739927AA27BB274A
:10143000845D9E4FDC018C9161CF81E08F87DF91CD
:10144000CF910895CF92DF92EF92FF920F931F9367
:10145000CF93DF93EC016B018A018F8581111CC052
:101460007B01C7018C199D0980179107BCF4898500
:101470009A859C012F5F3F4F3A872987F701419159
:101480007F018C0F9D1FFC0146832330310549F7F6
:10149000CE010E944F09E5CF10E000E0C801DF91C6
:1014A000CF911F910F91FF90EF90DF90CF90089513
:1014B000FC012785211107C02185328512161306EC
:1014C00014F40C944F09089502970C94580ACF9382
:1014D000DF931F92CDB7DEB76983DC01ED91FC91FC
:1014E0000190F081E02D41E050E0BE016F5F7F4F41
:1014F00009950F90DF91CF9108952F923F924F92CF
:101500005F926F927F928F929F92AF92BF92CF9293
:10151000DF92EF92FF920F931F93CF93DF93CDB79C
:10152000DEB729970FB6F894DEBF0FBECDBF8C0192
:101530004A011B01B12CA12C9C012C5F3F4F3F8322
:101540002E837C0134E1E30EF11C6C014AE0C40EF1
:10155000D11C089699878887A814B9040CF03BC160
:10156000D80151962D913C9152971F968D919C9147
:1015700050972817390711F512968D919C91DC012F
:10158000ED91FC910190F081E02D44E050E06E81FE
:101590007F810995F801E80FF91F181619064CF418
:1015A0009C0121503109319744814D3301F5C90126
:1015B000F4CF0097D9F521E0F801248BF801848954
:1015C000811107C141E050E0BE016F5F7F4F888508
:1015D00099850E9492068981D1018D931D01F801A0
:1015E00084898111F9C0FFEFAF1ABF0AB5CF8130EE
:1015F0009105E1F4D80114964C9150E070E060E060
:10160000C7010E94F30552E1660F771F881F991FDB
:101610005A95D1F7BC0188279927C6010E94670A0D
:10162000D80153968C918111C6CFC8CF82309105D5
:1016300031F5F801448150E070E060E0C7010E949C
:10164000F3052B013C01D80115964C9150E070E058
:1016500060E0C7010E94F30532E1440C551C661C92
:10166000771C3A95D1F74CE0660F771F881F991FBA
:101670004A95D1F76429752986299729CBCF8330DC
:10168000910509F043C0F801448150E070E060E04A
:10169000C7010E94F3052B013C01D80115964C911E
:1016A00050E070E060E0C7010E94F305E2E1440C05
:1016B000551C661C771CEA95D1F7FCE0660F771F76
:1016C000881F991FFA95D1F7462A572A682A792A3E
:1016D000F801468150E070E060E0C7010E94F30528
:1016E000A6E0660F771F881F991FAA95D1F7462A93
:1016F000572A682A792AB30188279927C6010E94A8
:10170000670A9927872D762D652D87CF049709F0D5
:1017100087CFD80114964C9150E070E060E0C7018B
:101720000E94F3052B013C01F801458150E070E077
:1017300060E0C7010E94F30522E1440C551C661CC1
:10174000771C2A95D1F73CE0660F771F881F991FF9
:101750003A95D1F7A3019201262B372B482B592B11
:101760002A833B834C835D83D80116964C9150E0CD
:1017700070E060E0C7010E94F3052B013C01F80115
:10178000478150E070E060E0C7010E94F30546E049
:10179000440C551C661C771C4A95D1F72A813B8165
:1017A0004C815D81622B732B842B952B462A572A03
:1017B000682A792AB30188279927C6010E94670AF7
:1017C0009927872D762D652DC6010E94670A642D05
:1017D00024CF80E001CF5401C50129960FB6F894BB
:1017E000DEBF0FBECDBFDF91CF911F910F91FF9054
:1017F000EF90DF90CF90BF90AF909F908F907F90B1
:101800006F905F904F903F902F900895E82FF0E0F9
:10181000E253FD4F80810C94DA03823098F4662302
:1018200019F0613049F00895E82FF0E0E65DFE4FD1
:1018300060E080810C94DA03E82FF0E0E65DFE4F73
:1018400061E0F7CF0895CF93853088F5C62F8111D9
:1018500028C060E00E94DA0362E370E080E090E07C
:101860000E9490046C2F84E00E94DA0362E370E02F
:1018700080E090E00E94900461E080E00E94DA0342
:1018800062E370E080E090E00E94900460E080E01D
:101890000E94DA0362E370E080E090E0CF910C9464
:1018A0009004E82FF0E0E05EFE4F8081F1CFCF9111
:1018B00008950F931F93EFB7F8940091760310915A
:1018C00077032091780330917903EFBFFC01808189
:1018D0009181A281B381081B190B2A0B3B0B81E07C
:1018E000401751076207730708F080E01F910F91BE
:1018F00008952FB7F8944091760350917703609143
:101900007803709179032FBFFC0140835183628378
:1019100073830895282F30E094E0359527959A95A4
:10192000E1F7922F990F990F291B220F820F08952B
:101930001F93CF93DF93EC01162F43960E94790CEF
:10194000CE0147960E94790CCE014B960E94790CED
:10195000CE010F960E94790C1A87DF91CF911F91CB
:101960000895DF92EF92FF920F931F93CF93DF932F
:10197000182FDAE001E00093A5041093C704109239
:10198000A6041092C80465E070E080E090E00E9438
:10199000900490E080E00E94EB0565E070E080E05C
:1019A00090E00E94900480E00E94040181113CC0FC
:1019B00065E070E080E090E00E94900463E0812F99
:1019C0000E94610110925D0480935C04833061F594
:1019D00065E070E080E090E00E9490040E94B60113
:1019E0000E94B601D82E0E94B601C82F81E00E9445
:1019F0000401811119C065E070E080E090E00E9470
:101A00009004D0FAEE24E0F82C2F3E2DC90124E0FA
:101A1000880F991F2A95E1F7DF91CF911F910F91C0
:101A2000FF90EF90DF900895D15009F0A4CF8FEF91
:101A30009FEFF2CF80910C01882319F080E60C947F
:101A4000B10C8FEF9FEF089590910C01992349F00D
:101A5000853050F4E82FF0E0EB5DFE4F80810C9470
:101A6000B10C8FEF9FEF089590E080E008950E9401
:101A7000610110925D0480935C0408951F93CF93DD
:101A8000DF9390910C01992309F46CC0853008F024
:101A90006CC0811125C0ECEAF0E0E49190917B00EC
:101AA0008E2F880F880F80729F7D892B80937B00FB
:101AB000E770E064E0937C0080917A00806480931A
:101AC0007A0080917A0086FDFCCF90917800809119
:101AD0007900892798278927DF91CF911F91089551
:101AE000E82FF0E0EA5EFE4F608180E2689FE0014F
:101AF0001124C868DAE011E0809117031093A5045F
:101B00008093C7041092A6041092C8046C2F81EB36
:101B100095E00E94BC050E94C901882311F0D150B4
:101B200059F760E570E080E090E00E9490048091B9
:101B3000170363E070E090E00E94370D20915C0491
:101B400080915D04281B330B8AE02330310584F437
:101B50008150D9F78FEF9FEF25E0969587952A95CD
:101B6000E1F7BACF8FEF9FEFB7CF90E080E0B4CF2F
:101B70000E94B601D82F0E94B601C82F0E94B6015C
:101B800080E09D2F8C2BE8CF2F923F924F925F9257
:101B90006F927F928F929F92AF92BF92CF92DF927D
:101BA000EF92FF920F931F93CF93DF9381E0809387
:101BB000A5048FE68093C7041092A6041092C8046F
:101BC00060E081EB95E00E94BC050E94C901811193
:101BD000D5C067E070E08FE690E00E94370D0E946C
:101BE000B6018F770E948A0C382E0E94B6010E949F
:101BF0008A0C482E0E94B6018F7B0E948A0C582EB8
:101C00000E94B6010E94B6010E948A0C282E0E94F2
:101C1000B6018F7D0E948A0C682E0E94B6010E9438
:101C20008A0CCEE1C80FAC2FB0E020E833E341EEE0
:101C300051E00E9403254B015C01E2EBF7E09D01BE
:101C4000C4E6D0E000E911E0CF01825B9740821743
:101C5000930784F12E54384FC90164E670E00E9466
:101C6000B1247C01C90160E971E00E94B1246C01DA
:101C70000EE712E0C1E0D0E0712CF901E370FF271C
:101C8000C615D7050CF03FC0C230D10569F53097B5
:101C900059F5E114F10419F4C114D10429F590E8BF
:101CA000890E9BE3991E96E2A91EB11C21960F5F37
:101CB0001F4FE6CFCF0183709927892B99F4CF016D
:101CC000BE010E94B124892B31F4CF01B8010E94DA
:101CD000B124892B39F480E8880E81E5981E81E0D3
:101CE000A81EB11C3196B0CFD8018C91A82FB0E0BE
:101CF00020E831E541E050E00E940325860E971E62
:101D0000A81EB91ED3CF252D30E0A0E1BEE00E9471
:101D1000ED246B017C01242D30E0ACE3B0E00E94A7
:101D2000ED24C60ED71EE81EF91EC30CD11CE11C03
:101D3000F11C822D8150990BDC0120E831E541E056
:101D400050E00E940E256C0D7D1D8E1D9F1D680D9F
:101D5000791D8A1D9B1DDF91CF911F910F91FF90DF
:101D6000EF90DF90CF90BF90AF909F908F907F903B
:101D70006F905F904F903F902F90089560E070E0DB
:101D8000CB01E9CFFC0101900020E9F73197AF01C9
:101D9000481B590BBC0189EC94E00C94C2048F924F
:101DA0009F92AF92BF920F931F93CF93DF93CDB7C4
:101DB000DEB7A1970FB6F894DEBF0FBECDBF19A254
:101DC000423008F44AE08E010F5D1F4F842E912CA3
:101DD000B12CA12CA50194010E94C524E62FB901C4
:101DE000CA01EA30F4F4E05DD801EE938D01232BB3
:101DF000242B252B79F790E080E0109719F0CD0186
:101E00000E94C20EA1960FB6F894DEBF0FBECDBFE2
:101E1000DF91CF911F910F91BF90AF909F908F90C6
:101E20000895E95CE1CF0895089508950895FC01AF
:101E30002285233029F464E00E94980C80E0089504
:101E400081E00895CF93DF931F92CDB7DEB7FC01F9
:101E50002281211108C0698341E050E0BE016F5F1B
:101E60007F4F0E94B0080F90DF91CF910895CF93DC
:101E7000DF9300D0CDB7DEB7FC012281211109C06C
:101E80006A83798342E050E0BE016F5F7F4F0E941A
:101E9000B0080F900F90DF91CF910895CF92DF920D
:101EA000EF92FF920F931F93CF93DF9300D0CDB7A4
:101EB000DEB78C016B01FC01828181111FC042E001
:101EC00050E0BE016F5F7F4FC8010E942E09F801EC
:101ED0008281811113C089819A8198278927982747
:101EE000F601918380830F900F90DF91CF911F9126
:101EF0000F91FF90EF90DF90CF9008950FB6F89478
:101F0000DEBF0FBECDBFEFCFCF92DF92EF92FF9239
:101F10000F931F93CF93DF931F92CDB7DEB78C0142
:101F20006B01FC018281811119C041E050E0BE01CA
:101F30006F5F7F4FC8010E942E09F80182818111D5
:101F40000DC08981F60180830F90DF91CF911F91A1
:101F50000F91FF90EF90DF90CF9008950FB6F89417
:101F6000DEBF0FBECDBFF0CF8F929F92AF92BF92D8
:101F7000CF92DF92EF92FF920F931F93CF93DF9355
:101F8000CDB7DEB75C018B016A01EDB6FEB6FC0190
:101F90008281811129C08DB79EB7841B950B0FB626
:101FA000F8949EBF0FBE8DBFEDB7FEB731964F01BF
:101FB000BF01C5010E942E09F5018281811114C063
:101FC000F401C80CD91C80E090E0DC012191BA2F0B
:101FD000A92F982F8827822BCE16DF06B9F7F80194
:101FE00080839183A283B3830FB6F894FEBE0FBEA5
:101FF000EDBE0FB6F894FEBE0FBEEDBEDF91CF91E1
:102000001F910F91FF90EF90DF90CF90BF90AF9016
:102010009F908F9008950F931F93CF93DF93CDB729
:10202000DEB728970FB6F894DEBF0FBECDBF8C0188
:102030000A5A1F4FF8012081222371F060E070E0FE
:10204000CB0128960FB6F894DEBF0FBECDBFDF914F
:10205000CF911F910F9108950B969E838D831F82C0
:10206000BE01685F7F4FCE0105960E94840FF80184
:1020700080818111E3CF8885863029F140F441E0E9
:1020800050E0843051F081E0F80180830DC0883049
:10209000E9F044E050E08A30B1F7BE016F5F7F4F56
:1020A000CE0105960E94B40F8F81882319F081E03C
:1020B000F8018083F80180818111C0CF69817A8124
:1020C0008B819C81BECF42E050E0E7CF43E050E0FF
:1020D000E4CF0F931F93CF93DF93CDB7DEB70DB748
:1020E0001EB7DC011296EC91E1111EC0EDB7FEB7F0
:1020F000E21BF30B0FB6F894FEBF0FBEEDBF319697
:10210000DF01A20FB31F4E93452F562F672F77275E
:10211000AE17BF07C1F7A901BD010E94B0080FB6F5
:10212000F8941EBF0FBE0DBF0FB6F8941EBF0FBEB2
:102130000DBFDF91CF911F910F910895CF92DF9244
:10214000EF92FF92CF93DF9300D01F92CDB7DEB70F
:102150006A017B010D969A8389831B828FEFC816D3
:10216000D104E104F10409F0B8F464E0CE01019671
:102170000E94220F21E030E0B701A601CE010196B6
:102180000E9469100F900F900F90DF91CF91FF90F8
:10219000EF90DF90CF900895C114D10481E0E8065C
:1021A000F10440F466E0CE0101960E94220F22E085
:1021B00030E0E2CFC114D104E10481E0F80640F43C
:1021C00068E0CE0101960E94220F23E030E0D4CFD8
:1021D0006AE0CE0101960E94220F24E030E0CCCFCD
:1021E000EF92FF920F931F93CF93DF93CDB7DEB79C
:1021F0002A970FB6F894DEBF0FBECDBFFC0126A90B
:10220000211182C08C0184A995A921E732E03A838B
:1022100029839C838B831D82CE0101969F838E83AD
:10222000188621A932A947A550A9241B350B2A8756
:10223000398742E050E0BE01675F7F4F0E940B0983
:10224000029711F081E088870FB6F894DEBF0FBEC9
:10225000CDBFF801408151816281738124E030E07B
:10226000CE0106960E946910F80164817581CE0145
:1022700006960E94370FF8016681CE0106960E94ED
:10228000220FF8016781CE0106960E94220FF80105
:1022900060857185CE0106960E94370FF801628530
:1022A000CE0106960E94220FF80141A952A987A5E6
:1022B00090A9481B590BB801615F7F4FCE0106966C
:1022C0000E94B008F80110AA17A612AA11AA13AA10
:1022D0006D8184A995A90E94670A8885882319F0D1
:1022E00081E0F80186ABF80186A991E089272A965A
:1022F0000FB6F894DEBF0FBECDBFDF91CF911F9117
:102300000F91FF90EF90089580E0F1CFCF93DF938E
:10231000CDB7DEB7E7970FB6F894DEBF0FBECDBFDF
:10232000E6EBF2E0FD87EC87EEEBF2E0FF87EE876D
:1023300019AA18AA1BAA1AAA1CAA9EAB8DAB1FAA7F
:1023400019821A821B821C821F821B867E836D83E8
:10235000488781E090E09A878987A901330F660B4F
:10236000770BCE0101960E949E10CE0101960E942D
:10237000F010E7960FB6F894DEBF0FBECDBFDF9129
:10238000CF910895CF92DF92EF92FF920F931F9318
:10239000CF93DF93CDB7DEB7C454D1090FB6F8940D
:1023A000DEBF0FBECDBF7C0180910C0181116AC0E0
:1023B0008FEF88AF89AF8AAF8BAF8CAF8DAF8EAF09
:1023C0008FAF86EB92E09D878C878EEB92E09F87A4
:1023D0008E8719AA18AA1BAA1AAA1CAAFEAAEDAAD5
:1023E0001FAA19821A821B821C821F821B868AE105
:1023F0009FEF9E838D8381E0888781E090E09A87BC
:102400008987CE010E9622969FAF8EAF2297239694
:102410001FAE239761E8C2960E94220F23968FADCC
:102420002397811111C088E025968FAF25972496B8
:102430001FAE249742E050E0BE016D5B7F4FCE019E
:10244000805C9F4F0E94B00848E050E0BE01685C8D
:102450007F4FCE01805C9F4F0E94B008CE01019655
:102460000E94F010CC5BDF4F0FB6F894DEBF0FBEBA
:10247000CDBFDF91CF911F910F91FF90EF90DF9033
:10248000CF90089581E08093A50487E58093C704E9
:102490001092A6041092C80480EF90E00E94EB0511
:1024A0000E94C90168E070E087E590E00E94370D66
:1024B0008E01085C1F4F680188E0C80ED11C0E9485
:1024C000B601F80181938F01EC15FD05C1F779CFB5
:1024D0000C948F24EF92FF920F931F93CF93DF936F
:1024E00061E08DE00E943A0461E089E00E943A04D4
:1024F00080E2E82E81E0F82E0BE111E0D0E0C0E0B0
:1025000061E0F70181917F010E943A0462E0F801E5
:1025100081918F010E943A04FE01EF58FC4F108216
:102520002196C530D10561F761E081E00E943A044F
:1025300061E085E10E943A0461E080E00E943A0493
:1025400080E290E00E94681291E0811101C090E069
:1025500090930C010E94080468EC70E080E090E029
:102560000E9490048EE68093170368EC70E080E090
:1025700090E00E94900468EC70E080E090E00E949F
:102580009004F894109280001092810081E0809372
:102590006F0083E0809381007894DF91CF911F9149
:1025A0000F91FF90EF900895FC0180819181019639
:1025B0000C9468120F931F93CF93DF938C01EB0160
:1025C0000E948F248883C80101960E948F248983EA
:1025D000CE01DF91CF911F910F910895CF93DF939B
:1025E00000D0CDB7DEB720E8829FC0011124BE0124
:1025F0006F5F7F4F855F9E4F0E94DA1289819A81BB
:102600000F900F90DF91CF9108950F931F93CF9369
:10261000DF9300D0CDB7DEB7FC012085222341F047
:1026200081850F900F90DF91CF911F910F910895A9
:102630008C01FC0182819385992349F00E94EE125E
:1026400083709927F801039789F48581EACFF0E830
:102650008F9FC0011124BE016F5F7F4F895F9E4F26
:102660000E94DA128981F80180FDEFCF8481D9CFF1
:10267000CF92DF92EF92FF920F931F93CF93DF934E
:10268000EB017B0124E0E20EF11C8B016C01C61A08
:10269000D70AC601800F911F0E948F24F8018193F1
:1026A0008F01EE15FF05A9F7CE01DF91CF911F91A4
:1026B0000F91FF90EF90DF90CF900895CF92DF922F
:1026C000EF92FF920F931F93CF93DF9300D000D030
:1026D000CDB7DEB76C01E62EFC0100811181C80187
:1026E0000E946812F82EC6010E94D412E81640F526
:1026F0002F2D2E0D3327331FC901F601628170E0A3
:102700000E94B124880F991F880F991F0E5F1F4FD9
:10271000BE016F5F7F4F800F911F0E943813698148
:102720007A818B819C810F900F900F900F90DF9199
:10273000CF911F910F91FF90EF90DF90CF90089570
:1027400060E070E0CB01EFCF0C94972420E8829FEB
:10275000C00111248A5D9E4F0C94A413CF93DF9384
:10276000FC012285222359F1EC0163E082810E9461
:10277000A6136AE070E080E090E00E94900460E0C0
:102780008A810E94230C64EF71E080E090E00E9457
:10279000900460E08A810E94A6136AE070E080E005
:1027A00090E00E94900461E0CE010E94980C8DE6BA
:1027B00093E00E94790C80E0DF91CF91089581E051
:1027C000FBCFCF93DF93EC018A81882351F090E017
:1027D000029660E09695982F8827979587950E9496
:1027E000A413CE010E94AE138A81882321F060E0F9
:1027F000CE010E94980C80E0DF91CF910895CF9395
:10280000DF93EC018A8190E0029661E09695982F23
:102810008827979587950E94A41361E0CE010E94B6
:10282000980C80E0DF91CF910895FF920F931F9352
:10283000CF93DF93EC01F62E08811981C8010E9425
:102840008F24F81621F06F2DC8010E949724CE0125
:10285000DF91CF911F910F91FF900895EF92FF921A
:102860000F931F93CF93DF9300D0CDB7DEB78C01CA
:102870007B019A838983FB016081CE0101960E94CE
:1028800015140F5F1F4F1A830983F7016181CE0171
:1028900001960E941514C7010F900F90DF91CF9100
:1028A0001F910F91FF90EF9008951F93CF93DF93A7
:1028B00000D0CDB7DEB7182F0E94EE1201969A8392
:1028C000898320E8129FC0011124BE016F5F7F4FF2
:1028D000855F9E4F0E942E140F900F90DF91CF9135
:1028E0001F910895EF92FF920F931F93CF93DF9361
:1028F00000D0CDB7DEB78C017B019A838983FB01C1
:102900006081CE0101960E9415140F5F1F4F1A833C
:102910000983F7016181CE0101960E941514C70158
:102920000F900F90DF91CF911F910F91FF90EF903B
:102930000895AF92BF92CF92DF92EF92FF920F93E2
:102940001F93CF93DF9300D0CDB7DEB78B016B0120
:1029500024E0C20ED11C7B015C01A61AB70AC50196
:102960008E0D9F1D9A838983F70161917F01CE01AE
:1029700001960E941514EC14FD0489F7C8010F900C
:102980000F90DF91CF911F910F91FF90EF90DF900B
:10299000CF90BF90AF900895AF92BF92CF92DF9249
:1029A000EF92FF920F931F93CF93DF9300D000D04D
:1029B00000D0CDB7DEB78C01FC0182810E94EE12FF
:1029C00021E08115944008F020E0F8012387C80138
:1029D0000E940513F8011086682F83810E940D0C58
:1029E000F801E280F0E8EF9E700111249701295F61
:1029F0003E4F7901BE016F5F7F4FC9010E94DA121D
:102A000089819A8101969E838D83BE016B5F7F4F82
:102A1000C7010E942E1480910C01882309F47CC008
:102A20000E94C40DF801D2802D2D30E069837A8395
:102A30008B839C837901EE0CFF1CE20EF31E970141
:102A40002E553A4F7901F901A080B180C5010E944D
:102A50006812C82EF3E0DF9EC00111248E559A4FF4
:102A60000E94D412D82E2C2D280F3327331FC901D2
:102A7000F701628170E00E94B124880F991F880FCE
:102A8000991FF2E0AF0EB11CBE016F5F7F4F8A0D40
:102A90009B1D0E949914F70122818081918161E040
:102AA000D2123EC06C0D0E94A41362E0F801828134
:102AB0000E94A6136AE070E080E090E00E9490041B
:102AC00061E0F80182810E94230C64EF71E080E0F4
:102AD00090E00E94900461E0F80182810E94A613B8
:102AE0006AE070E080E090E00E94900463E0C8013A
:102AF0000E94980C80E026960FB6F894DEBF0FBEB9
:102B0000CDBFDF91CF911F910F91FF90EF90DF909C
:102B1000CF90BF90AF90089560E070E0CB0182CF7E
:102B20006D0D0196C0CF1F920F920FB60F92112418
:102B30002F933F934F935F936F937F938F939F93C5
:102B4000AF93BF93CF93EF93FF93C091E100809138
:102B5000E100837F8093E100C3FF0FC01092E90082
:102B600081E08093EB001092EC0082E38093ED0013
:102B70001092570488E08093F000C2FF1AC00E94B0
:102B8000090280916503882341F08091650381509B
:102B900080936503811101C05D988091560488235C
:102BA00041F080915604815080935604811101C0F8
:102BB0002898C4FF23C08091E2008E7E81608093BC
:102BC000E2008091E1008F7E8093E10080916603B6
:102BD0008E7E806180936603FF91EF91CF91BF91CC
:102BE000AF919F918F917F916F915F914F913F91A5
:102BF0002F910F900FBE0F901F901895C0FFECCF34
:102C00008091E2008E7E80618093E2008091E100FD
:102C10008E7E8093E100809166038E7E8160DACFA4
:102C20001F920F920FB60F921124CF92DF92EF9264
:102C3000FF920F931F932F933F934F935F936F9345
:102C40007F938F939F93AF93BF93EF93FF93CF9314
:102C5000DF93CDB7DEB76C97DEBFCDBF1092E90032
:102C60008091E80083FF25C068E0CE0145960E9470
:102C7000E20282EF8093E8008D8987FF39C090914E
:102C8000E80090FFFCCF982F907609F034C19E8920
:102C90004F89588D2F89F88C911131C0803861F59A
:102CA000809167038093F1001092F1008EEF809382
:102CB000E8006C960FB6F894DEBF0FBECDBFDF9173
:102CC000CF91FF91EF91BF91AF919F918F917F91A4
:102CD0006F915F914F913F912F911F910F91FF90B5
:102CE000EF90DF90CF900F900FBE0F901F90189530
:102CF0009EEF9093E800C7CF1092F100D5CF9130AE
:102D000059F48111D3CF4130510581F68091670389
:102D10008D7F80936703CACF933049F48111C6CF6A
:102D20004130510519F6809167038260F2CF9530EA
:102D300041F48091E80080FFFCCF20682093E300FD
:102D4000B5CF963009F0A9C00B8D1C8D22E01092F2
:102D5000E9001092630310926203F2122EC01092E7
:102D60006103109260030E94B1021F8299E099836F
:102D7000FA8291E09E8390EA98879AEF9987209152
:102D8000620330916303275F3F4F3C832B838D8326
:102D90001092E90010926303109262031093610392
:102DA0000093600349E050E0BE016F5F7F4F80E019
:102DB0000E948B020E94B10279CF109361030093AD
:102DC00060030E941402DC0112960D911C91011502
:102DD000110509F451C1D801ED91FC910480F581F0
:102DE000E02DBE016B5E7F4FC8010995009709F089
:102DF0003EC1F80100851185EACFF3E0FF120EC055
:102E00008F89882309F440C0823061F440E86DE086
:102E100083EA91E00E945802811148CF81E28093B9
:102E2000EB0047CF813029F440E86BE087E991E07F
:102E3000F1CF833099F70E941402DC011296ED90D5
:102E4000FC908E010F5F1F4F6801E114F10479F0CF
:102E5000D701ED91FC910680F781E02DB801C70103
:102E60000995080F111DF701E084F184EECFD80118
:102E70001C92F60101900020E9F73197BF016C190F
:102E80007D0940E0C601C6CF61E871E0FB014491D5
:102E900050E080E80E948B0209CF973009F4BECF42
:102EA000983021F481E08093F10000CF993009F04F
:102EB000FDCE837009F0B2CFE4E7F2E081E031E0CB
:102EC00096E32191222371F08093E9003093EB0087
:102ED000DF0111972C912093EC009093ED008F5F10
:102EE000873079F78EE78093EA001092EA008F89A5
:102EF00080935704DBCE8B8D9C8D1092E90010924D
:102F00006303109262039093610380936003898D41
:102F1000811192C08E899D89913A49F4813209F0DC
:102F20007DCF47E050E064E071E080E0B3CF9132C4
:102F300009F074CF833269F48F89988DB0E0A0E0F6
:102F40008093000190930101A0930201B0930301CB
:102F5000ADCE803269F48091E80082FFFCCF67E05B
:102F600084E091E00E94E2028BEF8093E8009ECE25
:102F7000823209F09BCE8F8980930B01EEEFFFE741
:102F8000859194918B3F9C4D51F1E0E0F8E0809168
:102F9000040190910501A0910601B0910701803BC9
:102FA0009440A105B105F1F480910B0180FD1AC098
:102FB000EE3F8AE0F80789F587E797E791838083FA
:102FC000809160008093640388E19BE00FB6F894E1
:102FD000A895809360000FBE9093600067CEEEEFDF
:102FE000FAE0D5CF808191818737974709F05ECE8F
:102FF000A89580916000886180936000809164034F
:1030000080936000EE3F2AE0F20789F08091FE0A8B
:103010009091FF0A9183808349CE80819181873787
:10302000980751F29093FF0A8093FE0AC5CF109241
:10303000FF0A1092FE0A3ACE0E941402DC01129698
:103040000D911C910115110509F4E8CED801ED91FF
:10305000FC910190F081E02DBE016B5E7F4FC801B5
:103060000995811123CEF80100851185EBCF181643
:1030700019060CF41BCED2CEF1E0FF12BECE65E8ED
:1030800071E004CF1F920F920FB60F9211242F936D
:103090003F938F939F93AF93BF93809176039091CB
:1030A0007703A0917803B091790330915B0323E01B
:1030B000230F2D3758F50196A11DB11D20935B03F9
:1030C0008093760390937703A0937803B09379036A
:1030D00080915C0390915D03A0915E03B0915F03CA
:1030E0000196A11DB11D80935C0390935D03A09395
:1030F0005E03B0935F03BF91AF919F918F913F911A
:103100002F910F900FBE0F901F90189526E8230F58
:103110000296A11DB11DD2CF1F920F920FB60F9232
:1031200011242F933F934F935F936F937F938F93CC
:103130009F93AF93BF93EF93FF938091B900887FE4
:10314000803609F44AC0F0F5883209F4A7C018F5B2
:10315000803109F49BC0B8F4882309F4F9C08830A1
:1031600009F494C0FF91EF91BF91AF919F918F911E
:103170007F916F915F914F913F912F910F900FBE73
:103180000F901F901895883109F488C0803251F74C
:103190008093A20414C0803409F49DC040F48033AD
:1031A000B9F38833F9F68093A20485ECB0C080357A
:1031B00009F485C0883509F496C0883499F60E94D0
:1031C0004705D0CF883909F48CC038F5883729F005
:1031D00050F4883611F0803729F683E08093A404F8
:1031E00010925A0357C0883809F47BC0803919F00F
:1031F000803809F0B7CF80915A03803208F071C04F
:10320000E0915A0381E08E0F80935A038091BB00B6
:10321000F0E0E65CFC4F80833DC0803B39F0E0F499
:10322000803A09F479C0883A09F09CCF84E0809311
:10323000A4041092390310923803E0915A04F091DB
:103240005B0409958091380381110FC081E0809360
:1032500038031092180309C0803C09F4A6CF883CBB
:1032600009F4A3CF883B09F07DCFE091390381E0D9
:103270008E0F80933903F0E0E85EFC4F80818093ED
:10328000BB00909139038091380329C080917F045D
:103290008093BB0085EC8093BC0064CF9091A10427
:1032A0008091A004981758F5E091A10481E08E0F59
:1032B0008093A104F0E0E058FB4F8081E9CFE091DA
:1032C000A10481E08E0F8093A1048091BB00F0E007
:1032D000E058FB4F80839091A1048091A00498173F
:1032E000C8F285E8D8CFE091A10481E08E0F8093E9
:1032F000A1048091BB00F0E0E058FB4F80838091F7
:10330000A30481115CCF81E080937E0484EA8093E2
:10331000BC001092A40426CF85EC8093BC001092D0
:10332000A40480915A03803230F4E0915A03F0E013
:10333000E65CFC4F108260915A0370E0E091580403
:10334000F09159048AE393E0099510925A030ACF49
:103350001092A20434CF1F920F920FB60F92112435
:103360000F931F932F933F934F935F936F937F938D
:103370008F939F93AF93BF93CF93DF93EF93FF937D
:103380000BE111E0D0E0C0E0F80181918F010E94D3
:10339000B103FE01EE5EFC4F9081981731F0DE0123
:1033A000AF58BC4F9C919F5F9C9380832196C53002
:1033B000D10551F7FF91EF91DF91CF91BF91AF917F
:1033C0009F918F917F916F915F914F913F912F913D
:1033D0001F910F910F900FBE0F901F901895E9EC61
:1033E000F4E01382128288EE93E0A0E0B0E08483E0
:1033F0009583A683B78324ED32E0318320832FEFBA
:103400003FEF35872487E1EBF5E013821282848356
:103410009583A683B78386EE92E091838083E9E16A
:10342000F5E088EF92E09183808380E093E09383DE
:10343000828310929E0510929D051092A005109215
:103440009F051092A105E2EAF5E088E0828320E47E
:1034500031E031832083858320EC31E03483238382
:10346000808720E432E037832683838720EC32E0B4
:1034700032872187868780E493E0958784870C9440
:103480000804CF93DF93CDB7DEB7C45CD1090FB684
:10349000F894DEBF0FBECDBF789484B5826084BD42
:1034A00084B5816084BD85B5826085BD85B5816048
:1034B00085BD80916E00816080936E0010928100C6
:1034C0008091810082608093810080918100816081
:1034D0008093810080918000816080938000809142
:1034E000910082608093910080919100816080932F
:1034F0009100809190008160809390008091C10044
:1035000084608093C1008091C10082608093C1007B
:103510008091C10081608093C1008091C30081606F
:103520008093C3008091C00082608093C00080912E
:10353000C20081608093C20080917A008460809391
:103540007A0080917A00826080937A0080917A007C
:10355000816080937A0080917A00806880937A00FD
:103560001092570410926703109266038091D7005F
:1035700081608093D70080EA8093D80089B580610C
:1035800089BD89B5826089BD89B5282F2170CC534A
:10359000DF4F2883C45CD04080FFF6CF61E070E04D
:1035A00080E090E00E9490048091D8008F7C806140
:1035B0008093D8008091E000807F8093E00080912C
:1035C000E1008E7E8093E1008DE08093E200559AC9
:1035D000209A5D98289814BE0FB6F894A89580910B
:1035E0006000886180936000109260000FBE81E4EB
:1035F00090E00E94681280936C0360EA7FE080E0B4
:1036000090E00E94900488E199E20FB6F894A895A2
:10361000809360000FBE90936000A8958FEF9FEF9E
:103620009093D6048093D50418E061E080E00E9476
:10363000060C64E670E080E090E00E94900461E097
:1036400081E00E94060C64E670E080E090E00E9459
:10365000900460E080E00E94060C64E670E080E088
:1036600090E00E94900460E081E00E94060C64E615
:1036700070E080E090E00E9490041150B1F6A895AF
:10368000BE016F5F7F4F90E080E00E943813898118
:103690009A81AB81BC81813A9D4AA14ABD4A09F415
:1036A0007BC219821A821B821C82BE016F5F7F4F10
:1036B00088E090E00E94991419821A821B821C8271
:1036C000BE016F5F7F4F8CE090E00E94991483E011
:1036D000898311E01A83BE016F5F7F4F84E090E021
:1036E0000E94721419831A82BE016F5F7F4F86E0B9
:1036F00090E00E94721461E080E290E00E94A413C6
:10370000B2EACB2EB5E0DB2E07E011E0F12CC0547D
:10371000DF4F19821882C05CD040BE0160547F4FD9
:10372000C8010E942E14CE53DF4F19821882C25C4A
:10373000D040BE016E537F4FC80104960E942E14E4
:1037400060E08F2D0E94A61360E0C8010D960E94D4
:10375000A41360E0C80108960E94A41360E0D6019B
:103760008D919C910E94A413F6018081918160E06B
:1037700001960E94A413F39400581F4FF3E0CF0E5C
:10378000D11C25E0F212C3CF61E080E091E00E94FD
:10379000A41361E080E891E00E94A41361E080E05E
:1037A00092E00E94A41360E080E892E00E94A413DB
:1037B00060E080E093E00E94A41360E080E490E089
:1037C0000E94A4136AE772E090E080E00E949914DE
:1037D0000E946A1210E161E080E00E94060C64E140
:1037E00070E080E090E00E94900461E081E00E943F
:1037F000060C64E170E080E090E00E94900460E0DC
:1038000080E00E94060C64E170E080E090E00E949D
:10381000900460E081E00E94060C64E170E080E0CA
:1038200090E00E9490041150B1F680910C01882321
:1038300009F4B5C10E94C40D6093680370936903D5
:1038400080936A0390936B0368E673E08CE090E0EA
:103850000E949914BE016F5F7F4F88E090E00E9444
:10386000381389819A81AB81BC810196A11DB11D5C
:1038700089839A83AB83BC83BE016F5F7F4F88E0EF
:1038800090E00E949914A89580916C03857009F4CA
:103890007CC004E111E0F12CC8010E94681285305F
:1038A00080F5A3E0EA2EC8010E94681261E0680F6B
:1038B000C8010E94A41364E170E080E090E00E94DF
:1038C00090048F2D0E94240D6C0162E370E080E073
:1038D00090E00E949004C8010E9468126FEF680F88
:1038E000C8010E94A41364E170E080E090E00E94AF
:1038F000900439E8C31633E1D30618F0EA94E110D6
:10390000D2CFF39400581F4F45E0F412C5CF0FE01B
:1039100011E0F12CC8010E946812853080F5F3E0B7
:10392000EF2EC8010E94681261E0680FC8010E9472
:10393000A41364E170E080E090E00E9490048F2D79
:103940000E943E0D6C0162E370E080E090E00E9416
:103950009004C8010E9468126FEF680FC8010E94AE
:10396000A41364E170E080E090E00E94900451E1D3
:10397000C51657E2D50618F0EA94E110D2CFF394B9
:1039800000581F4F85E0F812C5CF82E093E0909376
:103990008703809386031092880310928903109204
:1039A0008A0381E080938B0380938C0310928D03B4
:1039B00025E033E03093AE032093AD038093AF0353
:1039C0008093B0031092B1038093B2038093B3034A
:1039D0001092B40328E033E03093D5032093D4034E
:1039E00092E09093D6031092D8038093D9038093EA
:1039F000DA031092DB038BE093E09093FC03809357
:103A0000FB0383E08093FD031092010410920204F3
:103A10008EE093E0909323048093220484E08093CB
:103A20002404109228041092290409E414E066E8A2
:103A3000E62E63E0F62E72E0D72EE0E68E2EEAEE5A
:103A40009E2EA12CB12CD70118961C92189719966E
:103A50001C9219971E96DC921E97F701178E10A2E2
:103A600011A212A293968D929D92AD92BC929697BE
:103A700012968C91853008F09BC0882361F090E00D
:103A800002969695982F8827979587950E94681299
:103A9000882309F48DC061E0C7010E94980CB7E249
:103AA000EB0EF11C0E151F0571F636E2C32EDD2458
:103AB000D39410E000E047E2B42EC6010E946812E1
:103AC0008250823090F460E0802F0E94A613B09E56
:103AD000C001B19E900D11248A579C4F20916C0318
:103AE000257009F467C00E94E1130F5F1F4FE0E8E3
:103AF000CE0ED11C0530110501F710920D018DE697
:103B000093E00E94790C82E893E00E94790C109275
:103B1000490410927E0310927F031092800310924A
:103B200081030E94C40D6536764D874E9D4508F091
:103B3000F5C0412C512C320110E094E6C92ED12C55
:103B400020E9A22EBB24B394212F30E02E54384F0D
:103B5000F901E370FF27309781F5C901B6010E9492
:103B6000B124892B31F4C901B5010E94B124892BFC
:103B700021F58EE691E0A0E0B0E0480E591E6A1EE5
:103B80007B1ED301C201AA27BB278B339744A10513
:103B9000B105C0F41F5FD8CF0E946A1246CE1092C2
:103BA00068031092690310926A0310926B034CCE63
:103BB00060E072CF0E94AE1398CF8DE691E0A0E056
:103BC000B0E0DBCFC90164E670E00E94B1246C0173
:103BD000C90160E971E00E94B124309729F4C11451
:103BE000D104F1F40097E1F04DE651E060E070E0BF
:103BF0004419550966097709465C584B6F4F7F4F4A
:103C0000AEE7B2E030E0313081F4309709F0CEC059
:103C1000C114D10419F4009709F0C8C02DE106C001
:103C20004EE651E060E070E0E3CF2C91822E912CC3
:103C3000B12CA12C21E0230F481559056A057B05FD
:103C400040F0481959096A097B091196322F2C3026
:103C5000D1F6DD24D394D30E01E0040FCC24C39419
:103C6000C092A5048FE68093C7041092A604109218
:103C7000C80460E081EB95E00E94BC0560E081EB48
:103C800095E00E94BC0563E581EB95E00E94BC05D0
:103C900065E181EB95E00E94BC058CE090E00E941C
:103CA000EB058AE0B82E802F6B2D0E94A524682F8B
:103CB000660F680F660F600F81EB95E00E94BC05F0
:103CC0008D2D6B2D0E94A524682F660F680F660F3F
:103CD0006D0D81EB95E00E94BC051E51812F6B2D6F
:103CE0000E94A524682F660F680F660F610F81EB95
:103CF00095E00E94BC050E94C901C092A5041092E3
:103D0000A6041092C80460E081EB95E00E94BC0517
:103D100089E890E00E94EB050E94C901A895B8EEE1
:103D20004B2EB3E05B2E612C712C809149048111E4
:103D300017C010910D011530D8F58DE693E00E9463
:103D4000790C87E2819FF0011124EA57FC4F92859C
:103D5000913019F4CF010E94CC148FEF80930D01A4
:103D600006E813E03324339470E6872E7AEE972E1C
:103D7000A12CB12CD8011296EC91F0E0EF58FC4F39
:103D80008081883008F49FC01082C8014B960E9441
:103D9000790CF8018285882309F492C0833008F0F9
:103DA00092C063E0C8010E94980C8DC02CE13ECF08
:103DB00040E65AEE60E070E08DE693E00E94590C18
:103DC000882371F2A6E8CA2EA3E0DA2E10E000E004
:103DD000D6011A968C911A97813009F067C0F601C6
:103DE000E658F3405F015F964D915D916D917C9136
:103DF0009297C60143960E94590C882309F456C035
:103E00008DE693E00E94790C87E2809FF001819F0C
:103E1000F00D1124EA57FC4F8285813029F4C50149
:103E20008A579C4F0E94CC14C801880F991F080F15
:103E3000191F0E551A4FD12CC8010E94D412D81642
:103E400030F46D2DC8010E945E13D394F5CF8230FB
:103E500008F486CFDD24D394C8010E94D412982F91
:103E6000853008F094E0D91658F46D2DC8010E94F1
:103E70005E136FEF6D0DC8010E945E13D394ECCFFB
:103E8000D82EB3E0B81710F4E3E0DE2ECC24C394B0
:103E9000CD1408F065CF6C2DC8010E945E136FEF42
:103EA0006C0DC8010E945E13C394F2CF0F5F1F4FC9
:103EB000E7E2CE0ED11CCE14DF0409F089CF50CF3B
:103EC000C8010E94E113D80112968C910E94240D22
:103ED0008F3F9807E1F062E0D62E8837910560F0B9
:103EE000D12C8C32E1E09E0738F0DD24D39482356A
:103EF000934010F053E0D52ED8011E968C918D156D
:103F000031F0C8010F960E94790CF801D686D801CD
:103F10001A968C91823009F49CC108F05DC1882307
:103F200009F484C1A895095D1F4F0E151F0509F0FE
:103F300021CF89EC94E00E944B031C01B12CA12CF1
:103F40008E0108561F4FA214B3040CF0F2C389EC83
:103F500094E00E9409038A30910509F0E4C38CE9DA
:103F600092E0F8019183808389E195E093838283D5
:103F70008EE892E09187808786E992E09387828736
:103F8000108A1786128A118A138A148A82EA92E0AA
:103F90009D878C878AEA92E09F878E8762961FAE04
:103FA0001EAE629764961FAE1EAE649765961FAEF6
:103FB000659767961FAF0EAF679768961FAE6897B5
:103FC00068968FAD68978111A0C367968EAD9FAD3F
:103FD000679720EB32E0C355DF4F39832883CD5AF2
:103FE000D040C155DF4F99838883CF5AD040CF54FA
:103FF000DF4F1882C15BD0402DEA30E02C0F3D1F0F
:10400000C354DF4F39832883CD5BD040C154DF4F89
:104010001882CF5BD04042E050E0BE01685A7F4F2B
:10402000CE0183549F4F0E942E09C154DF4F8881D7
:10403000CF5BD040811171C16A96CEACDFAC6A977C
:10404000DC24CD24DC2444E050E0BE016F5F7F4FD0
:10405000CE0183549F4F0E94B40FBE016B5F7F4F10
:10406000CE0183549F4F0E944E0FBE01695F7F4F68
:10407000CE0183549F4F0E94840FBE01685F7F4F23
:10408000CE0183549F4F0E94840FBE01675F7F4F14
:10409000CE0183549F4F0E944E0FBE01655F7F4F3C
:1040A000CE0183549F4F0E94840F62961FAE1EAEB6
:1040B000629764961FAE1EAE649765961FAE6597B5
:1040C0001C141D04F4F440E4842E912C30E4C31637
:1040D000D1040CF44601A401BE01685A7F4FCE0101
:1040E00083559F4F0E94E508AC01BE01685A7F4F7F
:1040F000CE010C960E943D08C818D908881599056C
:10410000FCF6C154DF4F8881CF5BD040882321F07B
:1041100081E068968FAF6897CF54DF4FD880C15B3E
:10412000D04067968EAD9FAD6797DC01ED91FC9115
:104130000190F081E02D41E050E0BE01685A7F4FD0
:10414000099569968FAD6997D81621F081E0689638
:104150008FAF689768968FAD68978111D6C284EC4F
:1041600092E0C355DF4F99838883CD5AD0408CECC1
:1041700092E0C155DF4F99838883CF5AD0408EE0BB
:1041800091E0CF54DF4F99838883C15BD040CA54FC
:10419000DF4F19821882C65BD040C454DF4F1882AB
:1041A000CC5BD040ED81FE81F05CEF30F10508F092
:1041B000BCC0E352FF4D0C94E7249021A021BA210A
:1041C000FA21E522E621EC21082218227023492356
:1041D0006E224F2285229F22833009F44EC0843004
:1041E00009F0A0CE6801B7E1CB0ED11C40E157E247
:1041F00060E070E0C6010E94590C882319F0C601E6
:104200000E94790CF80143A154A165A176A1C801CF
:1042100043960E94590C882309F484CED8019396C2
:104220008D929D92AD92BC92969723C0F8018281A7
:10423000811178CE40E65AEE60E070E0C801439606
:104240000E94590C882309F46DCEC8010E94FF1307
:1042500069CE40EE53E964E070E0C80143960E94E5
:10426000590C882309F45ECED80112968C910E94D5
:104270005514C8010E94AE1355CEF80183858823DA
:1042800061F18681882391F040EE53E964E070E0AB
:10429000C8014B960E94590C882341F0D801129610
:1042A0008C910E945514C8010E94170FF801878154
:1042B000882309F437CE6801FFE0CF0ED11C40E11E
:1042C00057E260E070E0C6010E94590C882309F4AF
:1042D00029CEC6010E94790C25CE40E05AEB6BED49
:1042E00070E0C80143960E94590C882309F41ACE45
:1042F000C8010E94051361E0811160E0D8011896A1
:104300003C92189719966C93199713968C910E946A
:104310000D0CC8010E94170F05CED12CC12C93CED5
:10432000CE0183559F4F0E94C211CE0183559F4FEE
:104330000E94580A6AE08EE091E00E94670A40CE2F
:10434000D884B1E0DB120CC00E941A0D9C014D2DE7
:1043500066E07FEFCE0183559F4F0E948611E5CF27
:104360008EEF8D0D853018F40E94240DEFCF90E074
:1043700080E0ECCFD8848FEF8D0D30E020E08530E9
:1043800008F52FB7F8948091760390917703A09168
:104390007803B09179032FBF2D2D2150330BF901F4
:1043A00027E22E9FB0012F9F700D11246A577C4F7A
:1043B000FB01438D548D658D768D841B950BA60B6B
:1043C000B70B9C014D2D69E07FEFC4CF27E030E0B3
:1043D00041E06AE17FEFBECFD884F4E090E080E076
:1043E000FD1518F08D2D0E94EE129C014D2D65E0FB
:1043F0007FEFB0CFD88424E090E080E02D1518F056
:104400008D2D0E943E0D9C014D2D60E17FEFA2CFCE
:1044100048858FEF840F21E030E0853010F030E0E8
:1044200020E0853010F480930D016BE07FEF92CF98
:10443000CE0101960E940B1068962FAD689721114E
:104440002AC098842FEF290DCC24C394D12C253079
:1044500010F0D12CC12C2530C8F4492D4150550BFA
:104460009A01E7E2E29FA001E39F500D1124FA01B7
:10447000EA57FC4FDB0128EE33E00E94FC2463A3E3
:1044800074A385A396A3CF010E94170F9601492D0F
:104490006AE07FEF5FCF30E020E04885F9CF988475
:1044A0008FEF890DCC24C394D12C853010F0D12C02
:1044B000C12C853070F4892D8150990B9C0147E205
:1044C000429FC001439F900D11248A579C4F0E9428
:1044D000FF139601492D60E27FEF3CCF48858FEFB7
:1044E000840F30E020E0853068F4A42FA150BB0B8E
:1044F00027E22A9FF0012B9FF00D1124EA57FC4F71
:10450000228530E06FE17FEF25CFD884ED2DE1509B
:10451000FF0BE230F10580F447E24E9FC0014F9F50
:10452000900D11248A579C4F0E940513282F30E0CC
:104530004D2D61E27FEF0ECF2FEF30E0F9CFCE01AE
:1045400001960E940B1068962FAD6897211139C013
:104550009884292D2150330BA9012230310570F5A3
:104560006B0161157105B9F427E2249FF001259FC5
:10457000F00D1124EA57FC4F81E08087118660E03E
:1045800083810E940D0CCC24C394D12C9601492D1B
:1045900062E27FEFDFCE6130710581F427E2249F74
:1045A000F001259FF00D1124EA57FC4F81E0808730
:1045B000818761E083810E940D0CE8CFD12CC12C52
:1045C000E5CF30E020E04885E3CF2FB7F894609145
:1045D00076037091770380917803909179032FBFD0
:1045E00026EB32E0A5963FAF2EAFA5972EEB32E03B
:1045F000A7963FAF2EAFA797C957DF4F19821882F2
:10460000C758D040C757DF4F19821882C958D040C9
:10461000C557DF4F1882CB58D0404DEA50E04C0FC1
:104620005D1FC457DF4F59834883CC58D040C257D1
:10463000DF4F1882CE58D0406C961CAE1DAE1EAE19
:104640001FAE6C976F961FAE6F97A3961FAEA39782
:1046500024E13FEF6E963FAF2EAF6E9721E0A0961C
:104660002FAFA09721E030E0A2963FAF2EAFA297E8
:10467000A30192010E94C524BA01A901CE01885A62
:104680009F4F0E949E10CE01885A9F4F0E94F010AB
:104690004CCE6C961CAE1DAE1EAE1FAE6C97CE01FE
:1046A000885A9F4F4C01D12CC12CC354DF4FD98263
:1046B000C882CD5BD040D4016D914D01CE018354B1
:1046C0009F4F0E941514BFEFCB1ADB0AE4E0CE1611
:1046D000D10459F721E030E041E06AE070EC3ACED5
:1046E00081E0809349048AE793E00E94790C10925C
:1046F0007E0310927F03109280031092810321E0C9
:1047000030E041E069E070EC25CE10929E051092F9
:104710009D051092A00510929F051092A105FFEF34
:10472000AF1ABF0A10CC682F8BE195E00E94670A90
:10473000F6CF40E65AEE60E070E082E893E00E9437
:10474000590C882309F466C082E893E00E94790C32
:10475000A89584EC92E09A8389838CEC92E09C8308
:104760008B838EE091E09E838D831B861A86188A48
:10477000CE0101960E94C21101E010E00130110546
:1047800009F0A3C00E941A0D9C01402F66E07FEF44
:10479000CE0101960E9486110F5F1F4F0730110551
:1047A00069F7CC53DF4F1881C45CD04090E080E0C3
:1047B000153019F0812F0E94EE129C01412F65E007
:1047C0007FEFCE0101960E9486111F5F163071F7B0
:1047D000CC53DF4F1881C45CD04090E080E01530AE
:1047E00019F0812F0E943E0D9C01412F60E17FEF67
:1047F000CE0101960E9486111F5F163071F7CE011F
:1048000001960E94580A6AE08EE091E00E94670AD1
:104810000E94090210914904112309F45BC04091E0
:104820007E0350917F0360918003709181038AE73A
:1048300093E00E94590C882309F44CC088E199E266
:104840000FB6F894A895809360000FBE9093600017
:10485000A89515E061E080E00E94060C61E081E02F
:104860000E94060C60E570E080E090E00E949004F9
:1048700060E080E00E94060C60E081E00E94060C8F
:1048800060E570E080E090E00E949004115011F724
:1048900061E080E00E94060C61E081E00E94060C6D
:1048A00068EC70E080E090E00E94900460E080E0BE
:1048B0000E94060C60E081E00E94060C68EC70E04B
:1048C00080E090E00E949004C4CF8EEF800F0E94A1
:1048D000240D5ACF8DE00E94B10361E0019709F4E5
:1048E00060E080E00E94060C112351F08DE00E94F0
:1048F000B10361E0019709F060E081E00E94060CDD
:10490000A89568EC70E080E090E00E94900480E060
:1049100090E0892B09F409CA0E94000006CAF9999F
:10492000FECF92BD81BDF89A992780B50895262FB4
:10493000F999FECF1FBA92BD81BD20BD0FB6F89484
:10494000FA9AF99A0FBE01960895991B79E004C06E
:10495000991F961708F0961B881F7A95C9F78095BE
:10496000089597FB072E16F4009407D077FD09D021
:104970000E94162507FC05D03EF4909581959F4F27
:104980000895709561957F4F0895A1E21A2EAA1B94
:10499000BB1BFD010DC0AA1FBB1FEE1FFF1FA217EF
:1049A000B307E407F50720F0A21BB30BE40BF50BEC
:1049B000661F771F881F991F1A9469F76095709575
:1049C000809590959B01AC01BD01CF010895EE0F3C
:1049D000FF1F0590F491E02D0994A29FB001B39FB1
:1049E000C001A39F700D811D1124911DB29F700DF8
:1049F000811D1124911D08950E94ED24B7FF089593
:104A0000821B930B08950E94ED24A59F900DB49FE7
:104A1000900DA49F800D911D11240895B7FF0C9453
:104A200003250E940325821B930B0895AA1BBB1B21
:104A300051E107C0AA1FBB1FA617B70710F0A61B9E
:104A4000B70B881F991F5A95A9F780959095BC01BF
:084A5000CD010895F894FFCF99
:104A5800FFFFFFFF00E100000000000001FF14015C
:104A680000000000CE0800000102030507160B171E
:104A78000406080A0C62686A636B011541424344E4
:104A880045464748494A4B4C4D4E4F505152535456
:104A980055565758595A6162636465666768696A0A
:104AA8006B6C6D6E6F707172737475767778797AD6
:104AB800303132333435363738392B2F00005EBC6D
:104AC800E2613FDD83C29C7E20A3FD1F419DC3217F
:104AD8007FFCA2401E5F01E3BD3E6082DC237D9F18
:104AE800C1421CFEA0E1BF5D0380DE3C62BEE00265
:104AF8005CDF81633D7C22C09E1D43A1FF4618FAFE
:104B0800A427799BC584DA3866E5BB5907DB856736
:104B180039BAE406581947A5FB7826C49A653BD9E3
:104B280087045AB8E6A7F91B45C6987A24F8A6441C
:104B38001A99C7257B3A6486D85B05E7B98CD230C9
:104B48006EEDB3510F4E10F2AC2F7193CD114FADE6
:104B5800F3702ECC92D38D6F31B2EC0E50AFF113AF
:104B68004DCE90722C6D33D18F0C52B0EE326C8ECC
:104B7800D0530DEFB1F0AE4C1291CF2D73CA94768D
:104B880028ABF517490856B4EA6937D58B5709EBAE
:104B9800B536688AD495CB2977F4AA4816E9B7556B
:104BA8000B88D6346A2B7597C94A14F6A8742AC894
:104BB80096154BA9F7B6E80A54D7896B350000005B
:104BC800000B0900C18081000000A1ADA1AD1F1C30
:104BD8001F1E1F1E1F1F1E1F1E1F00000000920603
:104BE8003E06FEFF00008F06000000007D0A000060
:104BF8000000F8073D08FEFF0000AD0800000000B7
:104C0800E508000000001307BF06FEFF00001007BC
:104C180000000000220A580AFEFF0000640A0D097D
:104C280000000000EF02C204050328024B03090339
:104C3800270300000000BC058F05F00578058805EE
:104C4800A301790500000000B3074007FEFF00003C
:104C5800B0076E6300676E006373007831007832C6
:024C680000004A
:00000001FF
