:100000000C94DA000C9402010C9402010C9402018D
:100010000C9402010C9402010C9402010C94020154
:100020000C9402010C9402010C9470150C94ED15C3
:100030000C9402010C9402010C9402010C94020134
:100040000C9402010C9402010C9402010C94020124
:100050000C9488190C9402010C9402010C941F1842
:100060000C9402010C9402010C9402010C94020104
:100070000C9402010C9402010C9402010C940201F4
:100080000C9402010C9402010C9402010C940201E4
:100090000C9469180C9402010C9402010C94020156
:1000A0000C9402010C9402010C9402010706050451
:1000B0000100080A0B0C0D090000000024002700B5
:1000C0002A002D00300000000000250028002B0031
:1000D0002E003100000000002300260029002C0023
:1000E0002F000404040404030405020202020403B2
:1000F00002020202060606060606040402020204C2
:100100000404080201104080401020408040800814
:100110000204018040201002011080102040402085
:100120000000000200090F0000030401000C0000A1
:1001300000000000000000000000000000000008B7
:100140000B0002020201000904000001020200008B
:1001500005240010010524010101042402060524E0
:100160000600010705810310004009040100020A8E
:10017000000000070502024000000705830240005E
:10018000000403090412010002EF02014041233779
:100190008000010102030141726475696E6F204C99
:1001A0004C430041726475696E6F204D6963726FD4
:1001B0000000CC1911241FBECFEFDAE0DEBFCDBFA7
:1001C00013E0A0E0B1E0E6E6F9E402C005900D928C
:1001D000A430B107D9F725E0A4E0B3E001C01D9237
:1001E000AF3AB207E1F710E0CAEDD0E004C02197C2
:1001F000FE010E946E24C93DD107C9F70E941E1A54
:100200000C94B1240C940000982F2091BA0481E042
:10021000213208F043C0809196048111FCCF809177
:10022000B90432E030939604909395049FEF909335
:1002300094041092930420939204A9E9B4E0E2E7B5
:10024000F4E090E0291331C0109271049091710490
:10025000880F892B8093710480917004813049F557
:1002600010927004809171048093BB008091BC0057
:1002700083FDF8CF85EC8093BC008091960482309A
:10028000E1F3809194048F3FB1F080919404803227
:10029000A1F080919404803391F084E0109298044E
:1002A0001092BA041092970408953D9131939F5F84
:1002B000C9CF85EEE0CF80E0F1CF82E0EFCF83E0E1
:1002C000EDCF909196049111FCCF91E0909396041C
:1002D000909395042FEF2093940410929304260F8B
:1002E000209392049093710490917104880F892B4C
:1002F00080937104809170048130F9F4109270043D
:10030000809171048093BB008091BC0083FDF8CF85
:1003100085EC8093BC00809196048130E1F380915C
:100320009304861710F460919304A2E7B4E0E0E52B
:10033000F4E080E0861303C0089585EEEACF9D9136
:1003400091938F5FF7CF90914F0480914E042FEFE0
:100350003FEF981748F4E92FF0E0E05BFB4F208176
:1003600030E09F5F90934F04C901089590914F042E
:1003700080914E042FEF3FEF981748F4E92FF0E0FB
:10038000E05BFB4F208130E09F5F90934F04C901F9
:10039000089581E00C940401089508952FB7F8940E
:1003A00083E08093E9009091E800892F807295FFA7
:1003B00004C09091F20080E4891B2FBF0895FC01D6
:1003C00080914904882311F13FB7F89482E080932B
:1003D000E9002091F200822F90E01816190614F41B
:1003E00081E090E0882339F0289A44E6409348045D
:1003F0004091F1004083222339F02091F200211135
:1004000003C02BE62093E8003FBF08958FEF9FEFD6
:10041000089583E08093E9008091F200882319F029
:100420008AE38093E80008958091400481110DC013
:1004300082E080933C0484E080933D0410923F046A
:1004400010923E0481E0809340048CE394E0089590
:100450000C9409024091540350915503209152038A
:100460003091530342175307B4F49091E80095700C
:10047000E1F39091E80092FD19C08093F100809122
:1004800054039091550301968F739927892B19F482
:100490008EEF8093E800809154039091550301966C
:1004A000909355038093540381E0089580E008956C
:1004B000EF92FF920F931F93CF93DF93F82E192F94
:1004C000E62E042F81E0860F880F0E942A0283E027
:1004D0000E942A02CF2DD12FEC0EFD2EF11CCE153D
:1004E000DF05B9F007FF13C0FE0184910E942A02C4
:1004F000182F80E00E942A02812321968111EFCFDC
:10050000DF91CF911F910F91FF90EF900895888117
:10051000EDCF81E0F5CFDF92EF92FF920F931F9323
:10052000CF93DF93D82E8A01EB017B01E40EF51EF9
:10053000CE15DF0559F0D7FE12C0FE0184910E944E
:100540002A0221968111F4CF0FEF1FEFC801DF912E
:10055000CF911F910F91FF90EF90DF9008958881C8
:10056000EECF0F931F93CF93DF931F92CDB7DEB7DC
:1005700082E0898342E450E06FE371E080E80E940A
:100580008B020E941402DC0112960D911C91011540
:10059000110589F0D801ED91FC910280F381E02DE5
:1005A000BE016F5F7F4FC801099597FD04C0F80138
:1005B00000851185ECCF89810F90DF91CF911F913C
:1005C0000F910895615030F02091F100FC012083DB
:1005D0000196F8CF289A84E6809348040895CF9333
:1005E000DF931F92CDB7DEB76983DC01ED91FC91FB
:1005F0000280F381E02D41E050E0BE016F5F7F4F4C
:1006000009950F90DF91CF9108950E94CE0190E05F
:100610000895CF93DF931F92CDB7DEB7FC01848599
:10062000958597FD08C02FEF3FEF358724870F9002
:10063000DF91CF910895CE0101960E94DF010197CD
:1006400019F4898190E0F3CF8FEF9FEFF0CF0F93F4
:100650001F93CF93DF931F92CDB7DEB78C01FC01C0
:100660008485958597FF0BC0CE0101960E94DF011E
:10067000019771F4898190E0F80195878487F801EA
:10068000848595850F90DF91CF911F910F910895EB
:100690008FEF9FEFF1CFFC018485958597FD0BC00F
:1006A0009FB7F89482E08093E9008091F2009FBFA9
:1006B00090E0019608959FB7F89482E08093E90056
:1006C0008091F2009FBF90E0089581508F3008F034
:1006D00047C0E82FF0E0E159FC4F0C946E248C03E6
:1006E00090037E0384038803B003B003B003930335
:1006F00099039D03A103A703B003AB03809180007E
:100700008F77809380000895809180008F7DF9CF4E
:1007100080918000877FF5CF84B58F7784BD089561
:1007200084B58F7DFBCF809190008F778093900070
:100730000895809190008F7DF9CF80919000877F00
:10074000F5CF8091C0008F778093C000089580918D
:10075000C0008F7DF9CF8091C200877F8093C20057
:100760000895CF93DF93282F30E0F901E05EFE4F2C
:100770008491F901EF5FFE4FD491F901EE51FF4FE3
:10078000C491CC23A1F081110E946503EC2FF0E00D
:10079000EE0FFF1FEC52FF4FA591B491EC91ED23AA
:1007A00081E090E009F480E0DF91CF91089580E04E
:1007B00090E0FACF1F93CF93DF93282F30E0F90119
:1007C000E05EFE4F8491F901EF5FFE4FD491F90195
:1007D000EE51FF4FC491CC23A9F0162F81110E9436
:1007E0006503EC2FF0E0EE0FFF1FEA53FF4FA591DA
:1007F000B4918FB7F894EC91111108C0D095DE2315
:10080000DC938FBFDF91CF911F910895DE2BF8CF3E
:1008100010924F0410924E04109298041092BA0451
:100820001092960481E0809395041092700461E028
:1008300082E00E94DA0361E083E00E94DA03E9EBE0
:10084000F0E080818E7F808380818D7F808388E44B
:100850008093B80085E48093BC008CEC91E0909389
:100860004D0480934C048DEC91E090934B04809365
:100870004A040895CF93DF9390E0FC01EF5FFE4FB1
:1008800024918E519F4FFC0184918823D1F090E0F8
:10089000880F991FFC01E854FF4FA591B491FC010A
:1008A000EA53FF4FC591D491623071F49FB7F89429
:1008B0003C91822F809583238C93E8812E2B288373
:1008C0009FBFDF91CF9108958FB7F894EC912E2BB5
:1008D0002C938FBFF6CF3FB7F89480914E03909141
:1008E0004F03A0915003B091510326B5A89B05C0BA
:1008F0002F3F19F00196A11DB11D3FBFBA2FA92F9F
:10090000982F8827BC01CD01620F711D811D911D9B
:1009100042E0660F771F881F991F4A95D1F7089507
:100920008F929F92AF92BF92CF92DF92EF92FF92FF
:100930004B015C010E946B046B017C010E946B0403
:100940006C197D098E099F09683E734081059105E8
:10095000A8F321E0821A9108A108B10888EEC80E18
:1009600083E0D81EE11CF11C81149104A104B104A0
:1009700029F7FF90EF90DF90CF90BF90AF909F90BE
:100980008F9008958F929F92AF92BF92CF92DF92F5
:10099000EF92FF920F931F93CF93DF936C017B0134
:1009A0008A0180910B01882309F45CC0809149047D
:1009B000882309F457C08091580380FF05C08091B7
:1009C000E00082608093E000E801B12C8AEFA82E5D
:1009D00093E0892E2AE3922E209711F4BB20D9F1BF
:1009E0000E94CE0181110AC0AA94AA20D9F161E027
:1009F00070E080E090E00E949004EECF8C171D061E
:100A000011F00CF08C2F9FB7F8948092E9002091A0
:100A1000E80025FD02C09FBFDFCF282F30E0C21BBA
:100A2000D30BF701815020F041914093F100FACFB0
:100A3000E20EF31EBB2021F09092E800B12CEBCF28
:100A40008091E80085FDE7CF9092E800BB24B39445
:100A5000209709F3F3CF5D9A84E68093570310162D
:100A600011063CF081E090E0F6019383828310E070
:100A700000E0C801DF91CF911F910F91FF90EF909F
:100A8000DF90CF90BF90AF909F908F90089585EDAD
:100A90008093BC008091BC0084FDFCCF1092960432
:100AA000089520912A03260F3327331F2132310561
:100AB000ECF420919604FC0190E080E0243069F091
:100AC00082E00895A0912A032191AC01465F5C4F1A
:100AD000A40FB52FB11D2C930196861798F3809122
:100AE0002A03680F60932A0380E0089581E0089547
:100AF0000895E0914F0480914E04E81730F4F0E03F
:100B0000E05BFB4F808190E008958FEF9FEF0895A9
:100B100080914E0490914F04891B990B0895CF92B8
:100B2000DF92EF92FF920F931F93CF93DF937C019D
:100B3000CB018A0120919704222389F0EB016B01FC
:100B4000C40ED51ECC15DD0569F06991D701ED9174
:100B5000FC910190F081E02DC7010995F3CF642F3E
:100B60000E945105C801DF91CF911F910F91FF9015
:100B7000EF90DF90CF900895CF93DF931F92CDB782
:100B8000DEB76983209197042223F9F02091BA04FB
:100B9000203258F021E030E0FC013383228390E0E2
:100BA00080E00F90DF91CF91089580919804E82F15
:100BB000F0E0E756FB4F998190838F5F8093980414
:100BC0008093BA0481E090E0ECCF61E0CE01019621
:100BD0000E945105F7CF682F83EA95E00C94BC057D
:100BE00090E080E008952FEB260F2A3138F461540D
:100BF000770B072E000C880B990B08952FE9260F11
:100C00002A3118F46754770BF4CF20ED260F2A30E1
:100C100020F470E06C5F7F4FECCF6B3249F06F32A5
:100C200061F021E0FC01208360E070E0CB010895D9
:100C30006EE370E080E090E008956FE370E080E0A4
:100C400090E00895EF92FF920F931F93CF93DF935D
:100C5000FC018385811144C0C781D0852097E1F0D4
:100C6000818592858C1B9D0B7F0124E0E20EF11C97
:100C700030E020E0281739075CF487010C0F1D1FB6
:100C8000D8011C91D7011D937D012F5F3F4FF2CFFB
:100C90001086178292878187DB0190E080E08417BD
:100CA0009507D4F421853285233031054CF021E0BD
:100CB0002387DF91CF911F910F91FF90EF900895BF
:100CC0000196B9016F5F7F4F728761876D912E0F1B
:100CD0003F1FE9016C83E3CF4817590751F3E7CF72
:100CE00090E080E0E6CF02970C942206CF93DF934A
:100CF000FC018385811122C0218532858781908501
:100D000028173907C9F0DB0190E080E084179507C8
:100D1000BCF427813085618572852617370784F4F6
:100D2000B9016F5F7F4F7087678301962E0F3F1F5A
:100D3000E9012C812D93EACF81E0838790E080E068
:100D4000DF91CF910895EF92FF920F931F93CF936E
:100D5000DF93DC017C0188E4E80EF11CF70180815F
:100D600081112DC08D010A5B1F4FED01CC5BDF4F60
:100D7000F801208131818881998128173907E1F0B4
:100D80007B0190E080E084179507DCF428813981AD
:100D9000F80160817181261737079CF4B9016F5FF4
:100DA0007F4F7983688301962A0F3B1FF9012481C5
:100DB000F70121937F01E7CF81E0F701808390E085
:100DC00080E0DF91CF911F910F91FF90EF900895F8
:100DD0008F929F92AF92BF92CF92DF92EF92FF924B
:100DE0000F931F93CF93DF939C014C0188E8880EEB
:100DF000911CE4018881811158C06901D4E8CD0EAD
:100E0000D11CF6010081118101151105F1F0790164
:100E1000F6E8EF0EF11CE70188819981801B910BA8
:100E2000D9011496F0E0E0E0E817F90744F45D0119
:100E3000A00EB11EE501B880BD923196F5CFF60146
:100E400011821082E70199838883FB0190E080E0A2
:100E5000D901AA57BF4F841795071CF56D917C9156
:100E600011976038710584F021E0F4012083DF914F
:100E7000CF911F910F91FF90EF90DF90CF90BF9097
:100E8000AF909F908F90089501968B010F5F1F4F39
:100E900011961C930E931191620F731FEB011C832B
:100EA000DACF4817590719F3DFCF90E080E0DFCFA2
:100EB00002970C94E806EF92FF920F931F93CF9343
:100EC000DF93DC017C0188E8E80EF11CF7018081EA
:100ED00081112DC08D010A571F4FED01CC57DF4FF7
:100EE000F801208131818881998128173907E1F043
:100EF0007B0190E080E084179507DCF4288139813C
:100F0000F80160817181261737079CF4B9016F5F82
:100F10007F4F7983688301962A0F3B1FF901248153
:100F2000F70121937F01E7CF81E0F701808390E013
:100F300080E0DF91CF911F910F91FF90EF90089586
:100F40008F929F92AF92BF92CF92DF92EF92FF92D9
:100F50000F931F93CF93DF939C014C0188E4880E7D
:100F6000911CE4018881811158C06901D4E4CD0E3F
:100F7000D11CF6010081118101151105F1F07901F3
:100F8000F6E4EF0EF11CE70188819981801B910B3B
:100F9000D9011496F0E0E0E0E817F90744F45D01A8
:100FA000A00EB11EE501B880BD923196F5CFF601D5
:100FB00011821082E70199838883FB0190E080E031
:100FC000D901AA5BBF4F841795071CF56D917C91E1
:100FD00011976034710584F021E0F4012083DF91E2
:100FE000CF911F910F91FF90EF90DF90CF90BF9026
:100FF000AF909F908F90089501968B010F5F1F4FC8
:1010000011961C930E931191620F731FEB011C83B9
:10101000DACF4817590719F3DFCF90E080E0DFCF30
:1010200002970C94A0070F931F93CF93DF938B012C
:10103000EA010E94CE01482F50E0C417D5070CF4F6
:10104000AE01B8018BEB94E0DF91CF911F910F912E
:101050000C94C2040F931F93CF93DF93EC018B0189
:101060008A819B81DC01ED91FC910190F081E02D62
:1010700009959C019C81D801AD01401B510B421781
:1010800053073CF4ED91E927F0E0E359FE4F9081DE
:10109000F3CF9C83C901DF91CF911F910F910895E8
:1010A000CF93DF93DC0114968C911497EB019E0192
:1010B000261B370B241735073CF4E991E827F0E0AD
:1010C000E359FE4F8081F3CF14968C9314971296B8
:1010D0008D919C91DC01ED91FC910190F081E02DCE
:1010E000DF91CF9109940F931F93CF93DF93DC018E
:1010F00012962C91211115C08A01EC0188819981E9
:10110000DC01ED91FC910190F081E02D099508172B
:10111000190711F021E02A83DF91CF911F910F91E0
:10112000089590E080E0F8CF0F931F93CF93DF9363
:10113000DC0112962C91211110C08A01EC018881EA
:101140009981DC01ED91FC910190F081E02D0995F0
:101150000817190711F081E08A83DF91CF911F9161
:101160000F910895CF93DF93EC0189859A858130A3
:101170009105D9F481E48B878C878DE38D878E87E9
:101180008C819D81BE01655F7F4FDC01ED91FC91FB
:101190000190F081E02D44E050E00995049711F0B2
:1011A00081E08F871A86198683C082309105D1F538
:1011B0008F8190E0982F8827092E000CAA0BBB0B7B
:1011C000AC01BD01EAE17695679557954795EA959B
:1011D000D1F7445D5E4FFA0120812B87AC01BD0140
:1011E000FCE07695679557954795FA95D1F74F733B
:1011F000552766277727445D5E4FFA0120812C87AB
:1012000026E0B695A795979587952A95D1F78F7380
:101210009927AA27BB27845D9E4FDC018C918D877F
:101220008DE3ADCF039709F041C02F813885322778
:1012300023273227C901032E000CAA0BBB0BAC01DC
:10124000BD01EAE17695679557954795EA95D1F7FF
:10125000445D5E4FFA0140814B87AC01BD01FCE06B
:101260007695679557954795FA95D1F74F7355271A
:1012700066277727445D5E4FFA0140814C8746E040
:10128000B695A795979587954A95D1F78F73992726
:10129000AA27BB27845D9E4FDC018C918D872F731D
:1012A0003327D901A45DBE4F8C9169CF81E08F8730
:1012B000DF91CF910895CF92DF92EF92FF920F933B
:1012C0001F93CF93DF93EC016B018A018F8581110E
:1012D0001CC07B01C7018C199D0980179107BCF4C4
:1012E00089859A859C012F5F3F4F3A872987F701AF
:1012F00041917F018C0F9D1FFC01468323303105F6
:1013000049F7CE010E94B208E5CF10E000E0C80125
:10131000DF91CF911F910F91FF90EF90DF90CF90D1
:101320000895FC012785211107C0218532851216F9
:10133000130614F40C94B208089502970C949109C2
:10134000CF93DF931F92CDB7DEB76983DC01ED91B8
:10135000FC910190F081E02D41E050E0BE016F5F13
:101360007F4F09950F90DF91CF9108952F923F9273
:101370004F925F926F927F928F929F92AF92BF92A5
:10138000CF92DF92EF92FF920F931F93CF93DF9351
:10139000CDB7DEB729970FB6F894DEBF0FBECDBF2D
:1013A0008C014A016A837B83B12CA12C9C012C5FA8
:1013B0003F4F398728877C0134E1E30EF11C6C0133
:1013C0004AE0C40ED11C1C0158E0250E311CA814A3
:1013D000B9040CF01DC1D80151962D913C91529742
:1013E0001F968D919C9150972817390711F51296E9
:1013F0008D919C91DC01ED91FC910190F081E02DAB
:1014000044E050E0688579850995F801E80FF91FF7
:10141000181619064CF49C0121503109319744816A
:101420004D3309F5C901F4CF0097C9F521E0F80162
:10143000248BF80184898111E9C041E050E0BE01AC
:101440006F5F7F4FC1010E9476068981AA81BB81AF
:101450008D93BB83AA83F80184898111DAC0FFEFE1
:10146000AF1ABF0AB4CF81309105C9F4D8011496E0
:101470006C91C7010E94F30552E1660F771F881F28
:10148000991F5A95D1F7BC0188279927C6010E9458
:10149000A009D80153968C918111C8CFCACF823050
:1014A000910501F5F8016481C7010E94F3052B0144
:1014B0003C01D80115966C91C7010E94F30532E1F9
:1014C000440C551C661C771C3A95D1F74CE0660F0E
:1014D000771F881F991F4A95D1F764297529862996
:1014E0009729D1CF83309105D1F5F8016481C701E7
:1014F0000E94F3052B013C01D80115966C91C701A0
:101500000E94F305E2E1440C551C661C771CEA9529
:10151000D1F7FCE0660F771F881F991FFA95D1F766
:10152000462A572A682A792AF8016681C7010E944B
:10153000F305A6E0660F771F881F991FAA95D1F7BC
:10154000462A572A682A792AB30188279927C6018B
:101550000E94A0099927872D762D652D97CF049796
:1015600009F097CFD80114966C91C7010E94F3053A
:101570002B013C01F8016581C7010E94F30522E1BE
:10158000440C551C661C771C2A95D1F73CE0660F6D
:10159000771F881F991F3A95D1F7A3019201262B37
:1015A000372B482B592B2C833D834E835F83D801E7
:1015B00016966C91C7010E94F3052B013C01F801BE
:1015C0006781C7010E94F30546E0440C551C661C68
:1015D000771C4A95D1F72C813D814E815F81622B2A
:1015E000732B842B952B462A572A682A792AB30114
:1015F00088279927C6010E94A0099927872D762D53
:10160000652DC6010E94A009642D40CF80E01ECF49
:101610005401C50129960FB6F894DEBF0FBECDBFA9
:10162000DF91CF911F910F91FF90EF90DF90CF90BE
:10163000BF90AF909F908F907F906F905F904F90F2
:101640003F902F900895E82FF0E0EE54FD4F8081F9
:101650000C94DA03823098F4662319F0613049F073
:101660000895E82FF0E0E65DFE4F60E080810C9485
:10167000DA03E82FF0E0E65DFE4F61E0F7CF089572
:10168000CF93853088F5C62F811128C060E00E9475
:10169000DA0362E370E080E090E00E9490046C2F37
:1016A00084E00E94DA0362E370E080E090E00E9450
:1016B000900461E080E00E94DA0362E370E080E081
:1016C00090E00E94900460E080E00E94DA0362E310
:1016D00070E080E090E0CF910C949004E82FF0E06F
:1016E000E05EFE4F8081F1CFCF9108950F931F935D
:1016F000EFB7F894009168031091690320916A0391
:1017000030916B03EFBFFC0180819181A281B38195
:10171000081B190B2A0B3B0B81E04017510762078E
:10172000730708F080E01F910F9108952FB7F89488
:10173000409168035091690360916A0370916B0353
:101740002FBFFC0140835183628373830895282F48
:1017500030E094E0359527959A95E1F7922F990F0F
:10176000990F291B220F820F08951F93CF93DF93A8
:10177000EC01162F43960E94960BCE0147960E94CD
:10178000960BCE014B960E94960BCE010F960E94AF
:10179000960B1A87DF91CF911F910895DF92EF92F8
:1017A000FF920F931F93CF93DF93182FDAE001E09E
:1017B000009397041093B904109298041092BA04FD
:1017C00065E070E080E090E00E94900490E080E0AE
:1017D0000E94EB0565E070E080E090E00E949004DC
:1017E00080E00E94040181113CC065E070E080E06F
:1017F00090E00E94900463E0812F0E9461011092AA
:101800004F0480934E04833061F565E070E080E022
:1018100090E00E9490040E94B6010E94B601D82E6A
:101820000E94B601C82F81E00E940401811119C0F5
:1018300065E070E080E090E00E949004D0FAEE2431
:10184000E0F82C2F3E2DC90124E0880F991F2A951E
:10185000E1F7DF91CF911F910F91FF90EF90DF9013
:101860000895D15009F0A4CF8FEF9FEFF2CF809170
:101870000C01882319F080E60C94CE0B8FEF9FEFBC
:10188000089590910C01992349F0853050F4E82F88
:10189000F0E0EB5DFE4F80810C94CE0B8FEF9FEF5D
:1018A000089590E080E008950E94610110924F0435
:1018B00080934E0408951F93CF93DF9390910C0172
:1018C000992309F46CC0853008F06CC0811125C0E3
:1018D000ECEAF0E0E49190917B008E2F880F880F66
:1018E00080729F7D892B80937B00E770E064E0939A
:1018F0007C0080917A00806480937A0080917A00E5
:1019000086FDFCCF909178008091790089279827F7
:101910008927DF91CF911F910895E82FF0E0EA5ECB
:10192000FE4F608180E2689FE0011124C868DAE020
:1019300011E080910903109397048093B9041092E9
:1019400098041092BA046C2F83EA95E00E94BC05BB
:101950000E94C901882311F0D15059F760E570E069
:1019600080E090E00E9490048091090363E070E0C1
:1019700090E00E94540C20914E0480914F04281B4B
:10198000330B8AE02330310584F48150D9F78FEF8F
:101990009FEF25E0969587952A95E1F7BACF8FEFCF
:1019A0009FEFB7CF90E080E0B4CF0E94B601D82F70
:1019B0000E94B601C82F0E94B60180E09D2F8C2B9B
:1019C000E8CF2F923F924F925F926F927F928F92C9
:1019D0009F92AF92BF92CF92DF92EF92FF920F93BE
:1019E0001F93CF93DF9381E0809397048FE68093DA
:1019F000B904109298041092BA0460E083EA95E06A
:101A00000E94BC050E94C9018111D5C067E070E049
:101A10008FE690E00E94540C0E94B6018F770E94DE
:101A2000A70B382E0E94B6010E94A70B482E0E94D9
:101A3000B6018F7B0E94A70B582E0E94B6010E9410
:101A4000B6010E94A70B282E0E94B6018F7D0E942E
:101A5000A70B682E0E94B6010E94A70BCEE1C80F0B
:101A6000AC2FB0E020E833E341EE51E00E948A243D
:101A70004B015C01E2EBF7E09D01C4E6D0E000E938
:101A800011E0CF01825B97408217930784F12E54B7
:101A9000384FC90164E670E00E9438247C01C90116
:101AA00060E971E00E9438246C010EE712E0C1E0A9
:101AB000D0E0712CF901E370FF27C615D7050CF0B3
:101AC0003FC0C230D10569F5309759F5E114F104F2
:101AD00019F4C114D10429F590E8890E9BE3991EED
:101AE00096E2A91EB11C21960F5F1F4FE6CFCF01D2
:101AF00083709927892B99F4CF01BE010E94382465
:101B0000892B31F4CF01B8010E943824892B39F494
:101B100080E8880E81E5981E81E0A81EB11C3196F0
:101B2000B0CFD8018C91A82FB0E020E831E541E09A
:101B300050E00E948A24860E971EA81EB91ED3CF9D
:101B4000252D30E0A0E1BEE00E9474246B017C01F1
:101B5000242D30E0ACE3B0E00E947424C60ED71E02
:101B6000E81EF91EC30CD11CE11CF11C822D815012
:101B7000990BDC0120E831E541E050E00E9495241A
:101B80006C0D7D1D8E1D9F1D680D791D8A1D9B1D71
:101B9000DF91CF911F910F91FF90EF90DF90CF9049
:101BA000BF90AF909F908F907F906F905F904F907D
:101BB0003F902F90089560E070E0CB01E9CFFC01E9
:101BC00001900020E9F73197AF01481B590BBC0188
:101BD0008BEB94E00C94C2048F929F92AF92BF92D1
:101BE0000F931F93CF93DF93CDB7DEB7A1970FB6B7
:101BF000F894DEBF0FBECDBF19A2423008F44AE010
:101C00008E010F5D1F4F842E912CB12CA12CA501AC
:101C100094010E944C24E62FB901CA01EA30F4F481
:101C2000E05DD801EE938D01232B242B252B79F732
:101C300090E080E0109719F0CD010E94DF0DA19691
:101C40000FB6F894DEBF0FBECDBFDF91CF911F91CD
:101C50000F91BF90AF909F908F900895E95CE1CF76
:101C60000895089508950895FC012285233029F4EC
:101C700064E00E94B50B80E0089581E00895CF9361
:101C8000DF931F92CDB7DEB7FC012281211108C07E
:101C9000698341E050E0BE016F5F7F4F0E9494086E
:101CA0000F90DF91CF910895CF93DF9300D0CDB700
:101CB000DEB7FC012281211109C06A83798342E0E9
:101CC00050E0BE016F5F7F4F0E9494080F900F900D
:101CD000DF91CF910895CF92DF92EF92FF920F9311
:101CE0001F93CF93DF9300D0CDB7DEB78C016B018C
:101CF000FC01828181111FC042E050E0BE016F5F94
:101D00007F4FC8010E947308F8018281811113C0BE
:101D100089819A81982789279827F6019183808362
:101D20000F900F90DF91CF911F910F91FF90EF9047
:101D3000DF90CF9008950FB6F894DEBF0FBECDBFF1
:101D4000EFCFCF92DF92EF92FF920F931F93CF933B
:101D5000DF931F92CDB7DEB78C016B01FC0182814E
:101D6000811119C041E050E0BE016F5F7F4FC80193
:101D70000E947308F801828181110DC08981F601EA
:101D800080830F90DF91CF911F910F91FF90EF9083
:101D9000DF90CF9008950FB6F894DEBF0FBECDBF91
:101DA000F0CF8F929F92AF92BF92CF92DF92EF923D
:101DB000FF920F931F93CF93DF93CDB7DEB75C01F4
:101DC0008B016A01EDB6FEB6FC018281811129C04A
:101DD0008DB79EB7841B950B0FB6F8949EBF0FBEB0
:101DE0008DBFEDB7FEB731964F01BF01C5010E940F
:101DF0007308F5018281811114C0F401C80CD91C4B
:101E000080E090E0DC012191BA2FA92F982F88273C
:101E1000822BCE16DF06B9F7F80180839183A28367
:101E2000B3830FB6F894FEBE0FBEEDBE0FB6F894A6
:101E3000FEBE0FBEEDBEDF91CF911F910F91FF90BF
:101E4000EF90DF90CF90BF90AF909F908F900895CC
:101E50000F931F93CF93DF93CDB7DEB728970FB6BD
:101E6000F894DEBF0FBECDBF8C010A5A1F4FF80198
:101E70002081222371F060E070E0CB0128960FB63C
:101E8000F894DEBF0FBECDBFDF91CF911F910F91B0
:101E900008950B969E838D831F82BE01685F7F4FDE
:101EA000CE0105960E94A10E8885863029F140F466
:101EB00041E050E0843051F081E0F80180830DC0B2
:101EC0008830E9F044E050E08A30B1F7BE016F5F3E
:101ED0007F4FCE0105960E94D10E8F81882319F085
:101EE00081E0F8018083F80180818111C4CF69818C
:101EF0007A818B819C81C2CF42E050E0E7CF43E002
:101F000050E0E4CF0F931F93CF93DF93CDB7DEB7AD
:101F10000DB71EB7DC011296EC91E1111EC0EDB7B2
:101F2000FEB7E21BF30B0FB6F894FEBF0FBEEDBF7A
:101F30003196DF01A20FB31F4E93452F562F672F07
:101F40007727AE17BF07C1F7A901BD010E9494080A
:101F50000FB6F8941EBF0FBE0DBF0FB6F8941EBF8C
:101F60000FBE0DBFDF91CF911F910F9108950F9379
:101F70001F93CF93DF93CDB7DEB70DB71EB7FC012C
:101F8000228121111EC02DB73EB7241B350B0FB681
:101F9000F8943EBF0FBE2DBF2F5F3F4FFA01319720
:101FA000E20FF31F60834130510519F0EDB7FEB722
:101FB0007183B9010E9494080FB6F8941EBF0FBE3A
:101FC0000DBF0FB6F8941EBF0FBE0DBFDF91CF91AE
:101FD0001F910F9108958F929F92AF92BF92CF92CF
:101FE000DF92EF92FF920F931F93CF93DF93CDB7C2
:101FF000DEB728970FB6F894DEBF0FBECDBF7C01C9
:1020000026E5E20EF11CF701208121118FC08C0121
:102010005C01F4E5AF0EB11CF5018081918121E7EF
:1020200032E03A8329839C838B831D82CE01019603
:102030009F838E8318866801F1E5CF0ED11C48017D
:102040002FE4820E911CF60160817181F401808180
:102050009181681B790B42E050E0CE0106960E9408
:10206000B70FF801408151816281738124E030E033
:10207000CE0106960E94820FF80164817581CE011F
:1020800006960E94540EF8016681CE0106960E94C3
:102090003F0EF8016781CE0106960E943F0EF801BF
:1020A00060857185CE0106960E94540EF801628506
:1020B000CE0106960E943F0EF60140815181F40147
:1020C00080819181481B590BB801615F7F4FCE0120
:1020D00006960E949408F40111821082F601118282
:1020E0001082329610826D81F501808191810E946B
:1020F000A0098885882319F081E0F7018083F70122
:10210000808191E0892728960FB6F894DEBF0FBE34
:10211000CDBFDF91CF911F910F91FF90EF90DF9096
:10212000CF90BF90AF909F908F90089580E0EBCFBD
:10213000CF92DF92EF92FF92CF93DF93CDB7DEB7CE
:10214000CA55D1090FB6F894DEBF0FBECDBF6901E5
:102150007A0128EB32E03D872C8720EC32E03F8784
:102160002E8762961FAE1EAE629764961FAE1EAE9D
:10217000649765961FAE659767969FAF8EAF67971A
:1021800068961FAE689719821A821B821C821F8272
:102190001B867E836D8381E0888781E090E09A874B
:1021A0008987CE010E966A969FAF8EAF6A976B961F
:1021B0001FAE6B978FEFC816D104E104F10409F04C
:1021C00008F564E0CE01885A9F4F0E943F0E21E03F
:1021D00030E0B701A601CE01885A9F4F0E94820FBE
:1021E000CE0101960E94EB0FC65ADF4F0FB6F8944E
:1021F000DEBF0FBECDBFDF91CF91FF90EF90DF909C
:10220000CF900895C114D10481E0E806F10448F4A8
:1022100066E0CE01885A9F4F0E943F0E22E030E0D8
:10222000D8CFC114D104E10481E0F80648F468E095
:10223000CE01885A9F4F0E943F0E23E030E0C9CF65
:102240006AE0CE01885A9F4F0E943F0E24E030E0A2
:10225000C0CF0F931F93CF93DF93CDB7DEB7CA558F
:10226000D1090FB6F894DEBF0FBECDBF890128EBB0
:1022700032E03D872C8720EC32E03F872E87629644
:102280001FAE1EAE629764961FAE1EAE6497659633
:102290001FAE659767969FAF8EAF679768961FAE24
:1022A000689719821A821B821C821F821B867E837A
:1022B0006D83488781E090E09A878987CE010E96EA
:1022C0006A969FAF8EAF6A976B961FAE6B970F3F64
:1022D000110509F0ECF464E0865B9F4F0E943F0E0D
:1022E00041E050E0B801CE01885A9F4F0E94B70FDD
:1022F000CE0101960E94EB0FC65ADF4F0FB6F8943D
:10230000DEBF0FBECDBFDF91CF911F910F9108951A
:1023100066E0CE01885A9F4F0E943F0E42E050E097
:10232000E1CFCF92DF92EF92FF920F931F93CF9363
:10233000DF93CDB7DEB7C256D1090FB6F894DEBF32
:102340000FBECDBF7C0180910C01811178C08FEF51
:1023500069968FAF69976A968FAF6A976B968FAFC2
:102360006B976C968FAF6C976D968FAF6D976E96DF
:102370008FAF6E976F968FAF6F97A0968FAFA09726
:1023800088EB92E09D878C8780EC92E09F878E8718
:1023900062961FAE1EAE629764961FAE1EAE649725
:1023A00065961FAE65976796FFAEEEAE6797689627
:1023B0001FAE689719821A821B821C821F821B869D
:1023C0008AE19FEF9E838D8381E0888781E090E0A2
:1023D0009A878987CE010E96A2969FAF8EAFA2975D
:1023E000A3961FAEA39761E88E5A9F4F0E943F0E9F
:1023F00042E050E068E070E0CE01805A9F4F0E94BA
:10240000B70F48E050E0BE01685A7F4FCE01805AB6
:102410009F4F0E949408CE0101960E94EB0FCE5967
:10242000DF4F0FB6F894DEBF0FBECDBFDF91CF9167
:102430001F910F91FF90EF90DF90CF90089581E072
:102440008093970487E58093B904109298041092C2
:10245000BA0480EF90E00E94EB050E94C90168E099
:1024600070E087E590E00E94540C8E01085A1F4FDF
:10247000680188E0C80ED11C0E94B601F801819362
:102480008F01EC15FD05C1F77BCF0C941624EF925C
:10249000FF920F931F93CF93DF9361E08DE00E9433
:1024A0003A0461E089E00E943A0480E2E82E81E08B
:1024B000F82E0BE111E0D0E0C0E061E0F70181917E
:1024C0007F010E943A0462E0F80181918F010E942D
:1024D0003A04FE01ED59FC4F10822196C530D1051A
:1024E00061F761E081E00E943A0461E085E10E94C9
:1024F0003A0461E080E00E943A0480E290E00E94A9
:10250000451291E0811101C090E090930C010E946E
:10251000080468EC70E080E090E00E9490048EE691
:102520008093090368EC70E080E090E00E949004E2
:1025300068EC70E080E090E00E949004F8941092C3
:1025400080001092810081E080936F0083E080938F
:1025500081007894DF91CF911F910F91FF90EF90C0
:102560000895FC018081918101960C9445120F938E
:102570001F93CF93DF938C01EB010E941624888375
:10258000C80101960E9416248983CE01DF91CF9164
:102590001F910F910895CF93DF9300D0CDB7DEB791
:1025A00020E8829FC0011124BE016F5F7F4F855FCD
:1025B0009E4F0E94B71289819A810F900F90DF91F0
:1025C000CF9108950F931F93CF93DF9300D0CDB792
:1025D000DEB7FC012085222341F081850F900F900A
:1025E000DF91CF911F910F9108958C01FC018281A1
:1025F0009385992349F00E94CB1283709927F801A3
:10260000039789F48581EACFF0E88F9FC0011124F8
:10261000BE016F5F7F4F895F9E4F0E94B712898115
:10262000F80180FDEFCF8481D9CFCF92DF92EF9276
:10263000FF920F931F93CF93DF93EB017B0124E075
:10264000E20EF11C8B016C01C61AD70AC601800F7D
:10265000911F0E941624F80181938F01EE15FF054A
:10266000A9F7CE01DF91CF911F910F91FF90EF90CD
:10267000DF90CF900895CF92DF92EF92FF920F9369
:102680001F93CF93DF9300D000D0CDB7DEB76C019E
:10269000E62EFC0100811181C8010E944512F82E2E
:1026A000C6010E94B112E81640F52F2D2E0D3327DA
:1026B000331FC901F601628170E00E943824880F3F
:1026C000991F880F991F0E5F1F4FBE016F5F7F4FCD
:1026D000800F911F0E94151369817A818B819C81E3
:1026E0000F900F900F900F90DF91CF911F910F914E
:1026F000FF90EF90DF90CF90089560E070E0CB0105
:10270000EFCF0C941E2420E8829FC00111248A5D23
:102710009E4F0C948113CF93DF93FC0122852223DB
:1027200059F1EC0163E082810E9483136AE070E05A
:1027300080E090E00E94900460E08A810E94400B5B
:1027400064EF71E080E090E00E94900460E08A8194
:102750000E9483136AE070E080E090E00E949004A1
:1027600061E0CE010E94B50B8FE593E00E94960BCD
:1027700080E0DF91CF91089581E0FBCFCF93DF938D
:10278000EC018A81882351F090E0029660E09695F2
:10279000982F8827979587950E948113CE010E94D4
:1027A0008B138A81882321F060E0CE010E94B50B53
:1027B00080E0DF91CF910895CF93DF93EC018A8180
:1027C00090E0029661E09695982F882797958795D7
:1027D0000E94811361E0CE010E94B50B80E0DF9181
:1027E000CF910895FF920F931F93CF93DF93EC0146
:1027F000F62E08811981C8010E941624F81621F0CE
:102800006F2DC8010E941E24CE01DF91CF911F9130
:102810000F91FF900895EF92FF920F931F93CF9324
:10282000DF9300D0CDB7DEB78C017B019A8389831B
:10283000FB016081CE0101960E94F2130F5F1F4FD2
:102840001A830983F7016181CE0101960E94F21378
:10285000C7010F900F90DF91CF911F910F91FF90C3
:10286000EF9008951F93CF93DF9300D0CDB7DEB7DD
:10287000182F0E94CB1201969A83898320E8129F19
:10288000C0011124BE016F5F7F4F855F9E4F0E9484
:102890000B140F900F90DF91CF911F910895EF923D
:1028A000FF920F931F93CF93DF9300D0CDB7DEB786
:1028B0008C017B019A838983FB016081CE010196A3
:1028C0000E94F2130F5F1F4F1A830983F701618182
:1028D000CE0101960E94F213C7010F900F90DF9175
:1028E000CF911F910F91FF90EF900895AF92BF92FB
:1028F000CF92DF92EF92FF920F931F93CF93DF93CC
:1029000000D0CDB7DEB78B016B0124E0C20ED11C25
:102910007B015C01A61AB70AC5018E0D9F1D9A8323
:102920008983F70161917F01CE0101960E94F21324
:10293000EC14FD0489F7C8010F900F90DF91CF913F
:102940001F910F91FF90EF90DF90CF90BF90AF90CD
:102950000895AF92BF92CF92DF92EF92FF920F93C2
:102960001F93CF93DF9300D000D000D0CDB7DEB758
:102970008C01FC0182810E94CB1221E081159440E0
:1029800008F020E0F8012387C8010E94E212F80154
:102990001086682F83810E942A0BF801E280F0E8FC
:1029A000EF9E700111249701295F3E4F7901BE010E
:1029B0006F5F7F4FC9010E94B71289819A8101968A
:1029C0009E838D83BE016B5F7F4FC7010E940B14F6
:1029D00080910C01882309F47CC00E94E10CF8016D
:1029E000D2802D2D30E069837A838B839C8379019B
:1029F000EE0CFF1CE20EF31E97012C563A4F7901A4
:102A0000F901A080B180C5010E944512C82EF3E0F3
:102A1000DF9EC00111248C569A4F0E94B112D82E0D
:102A20002C2D280F3327331FC901F701628170E075
:102A30000E943824880F991F880F991FF2E0AF0E6B
:102A4000B11CBE016F5F7F4F8A0D9B1D0E947614E3
:102A5000F70122818081918161E0D2123EC06C0D2C
:102A60000E94811362E0F80182810E9483136AE070
:102A700070E080E090E00E94900461E0F8018281C3
:102A80000E94400B64EF71E080E090E00E949004AF
:102A900061E0F80182810E9483136AE070E080E0C7
:102AA00090E00E94900463E0C8010E94B50B80E0B2
:102AB00026960FB6F894DEBF0FBECDBFDF91CF9143
:102AC0001F910F91FF90EF90DF90CF90BF90AF904C
:102AD000089560E070E0CB0182CF6D0D0196C0CF0C
:102AE0001F920F920FB60F9211242F933F934F9383
:102AF0005F936F937F938F939F93AF93BF93CF9386
:102B0000EF93FF93C091E1008091E100837F809378
:102B1000E100C3FF0FC01092E90081E08093EB0059
:102B20001092EC0082E38093ED001092490488E05B
:102B30008093F000C2FF1AC00E94090280915703DF
:102B4000882341F08091570381508093570381116E
:102B500001C05D9880914804882341F08091480429
:102B6000815080934804811101C02898C4FF23C07C
:102B70008091E2008E7E81608093E2008091E1008E
:102B80008F7E8093E100809158038E7E80618093D8
:102B90005803FF91EF91CF91BF91AF919F918F918A
:102BA0007F916F915F914F913F912F910F900FBE49
:102BB0000F901F901895C0FFECCF8091E2008E7EA1
:102BC00080618093E2008091E1008E7E8093E1003D
:102BD000809158038E7E8160DACF1F920F920FB6DC
:102BE0000F921124CF92DF92EF92FF920F931F93D7
:102BF0002F933F934F935F936F937F938F939F9305
:102C0000AF93BF93EF93FF93CF93DF93CDB7DEB72F
:102C10006C97DEBFCDBF1092E9008091E80083FF82
:102C200025C068E0CE0145960E94E20282EF8093C3
:102C3000E8008D8987FF39C09091E80090FFFCCFB4
:102C4000982F907609F034C19E894F89588D2F892D
:102C5000F88C911131C0803861F5809159038093CF
:102C6000F1001092F1008EEF8093E8006C960FB6A1
:102C7000F894DEBF0FBECDBFDF91CF91FF91EF91F2
:102C8000BF91AF919F918F917F916F915F914F9184
:102C90003F912F911F910F91FF90EF90DF90CF9078
:102CA0000F900FBE0F901F9018959EEF9093E80025
:102CB000C7CF1092F100D5CF913059F48111D3CF05
:102CC0004130510581F6809159038D7F80935903DE
:102CD000CACF933049F48111C6CF4130510519F65E
:102CE000809159038260F2CF953041F48091E800E1
:102CF00080FFFCCF20682093E300B5CF963009F029
:102D0000A9C00B8D1C8D22E01092E9001092550392
:102D100010925403F2122EC01092530310925203D9
:102D20000E94B1021F8299E09983FA8291E09E830A
:102D300090EA98879AEF9987209154033091550330
:102D4000275F3F4F3C832B838D831092E9001092C5
:102D5000550310925403109353030093520349E018
:102D600050E0BE016F5F7F4F80E00E948B020E94A7
:102D7000B10279CF10935303009352030E941402BF
:102D8000DC0112960D911C910115110509F451C138
:102D9000D801ED91FC910480F581E02DBE016B5EC0
:102DA0007F4FC8010995009709F03EC1F8010085E1
:102DB0001185EACFF3E0FF120EC08F89882309F452
:102DC00040C0823061F440E86DE083EA91E00E9407
:102DD0005802811148CF81E28093EB0047CF8130C8
:102DE00029F440E86BE087E991E0F1CF833099F76F
:102DF0000E941402DC011296ED90FC908E010F5F90
:102E00001F4F6801E114F10479F0D701ED91FC91B5
:102E10000680F781E02DB801C7010995080F111D43
:102E2000F701E084F184EECFD8011C92F601019005
:102E30000020E9F73197BF016C197D0940E0C60118
:102E4000C6CF61E871E0FB01449150E080E80E9448
:102E50008B0209CF973009F4BECF983021F481E07E
:102E60008093F10000CF993009F0FDCE837009F016
:102E7000B2CFE4E7F2E081E031E096E32191222352
:102E800071F08093E9003093EB00DF0111972C91F2
:102E90002093EC009093ED008F5F873079F78EE7F9
:102EA0008093EA001092EA008F8980934904DBCE78
:102EB0008B8D9C8D1092E900109255031092540353
:102EC0009093530380935203898D811192C08E8910
:102ED0009D89913A49F4813209F07DCF47E050E075
:102EE00064E071E080E0B3CF913209F074CF8332B7
:102EF00069F48F89988DB0E0A0E0809300019093F1
:102F00000101A0930201B0930301ADCE803269F4B8
:102F10008091E80082FFFCCF67E084E091E00E94AE
:102F2000E2028BEF8093E8009ECE823209F09BCEC6
:102F30008F8980930B01EEEFFFE7859194918B3F92
:102F40009C4D51F1E0E0F8E0809104019091050181
:102F5000A0910601B0910701803B9440A105B10505
:102F6000F1F480910B0180FD1AC0EE3F8AE0F80772
:102F700089F587E797E7918380838091600080934C
:102F8000560388E19BE00FB6F894A8958093600003
:102F90000FBE9093600067CEEEEFFAE0D5CF808150
:102FA00091818737974709F05ECEA89580916000A0
:102FB0008861809360008091560380936000EE3FAB
:102FC0002AE0F20789F08091FE0A9091FF0A91832E
:102FD000808349CE808191818737980751F2909301
:102FE000FF0A8093FE0AC5CF1092FF0A1092FE0AD4
:102FF0003ACE0E941402DC0112960D911C9101152B
:10300000110509F4E8CED801ED91FC910190F08111
:10301000E02DBE016B5E7F4FC8010995811123CE63
:10302000F80100851185EBCF181619060CF41BCE9C
:10303000D2CEF1E0FF12BECE65E871E004CF1F9260
:103040000F920FB60F9211242F933F938F939F935C
:10305000AF93BF938091680390916903A0916A0335
:10306000B0916B0330914D0323E0230F2D3758F5BA
:103070000196A11DB11D20934D0380936803909389
:103080006903A0936A03B0936B0380914E03909100
:103090004F03A0915003B09151030196A11DB11DA2
:1030A00080934E0390934F03A0935003B09351032A
:1030B000BF91AF919F918F913F912F910F900FBE34
:1030C0000F901F90189526E8230F0296A11DB11DA1
:1030D000D2CF1F920F920FB60F9211242F933F93CE
:1030E0004F935F936F937F938F939F93AF93BF9310
:1030F000EF93FF938091B900887F803609F44AC02E
:10310000F0F5883209F4A7C018F5803109F49BC0A6
:10311000B8F4882309F4F9C0883009F494C0FF9109
:10312000EF91BF91AF919F918F917F916F915F913F
:103130004F913F912F910F900FBE0F901F901895B8
:10314000883109F488C0803251F78093940414C008
:10315000803409F49DC040F48033B9F38833F9F624
:103160008093940485ECB0C0803509F485C088351F
:1031700009F496C0883499F60E944705D0CF883963
:1031800009F48CC038F5883729F050F4883611F0EE
:10319000803729F683E08093960410924C0357C041
:1031A000883809F47BC0803919F0803809F0B7CF2E
:1031B00080914C03803208F071C0E0914C0381E0B3
:1031C0008E0F80934C038091BB00F0E0E45DFC4FD8
:1031D00080833DC0803B39F0E0F4803A09F479C047
:1031E000883A09F09CCF84E08093960410922B03D8
:1031F00010922A03E0914C04F0914D0409958091BE
:103200002A0381110FC081E080932A0310920A03E0
:1032100009C0803C09F4A6CF883C09F4A3CF883BC1
:1032200009F07DCFE0912B0381E08E0F80932B037B
:10323000F0E0E65FFC4F80818093BB0090912B0310
:1032400080912A0329C0809171048093BB0085EC92
:103250008093BC0064CF909193048091920498175E
:1032600058F5E091930481E08E0F80939304F0E091
:10327000EE58FB4F8081E9CFE091930481E08E0FFF
:10328000809393048091BB00F0E0EE58FB4F808365
:1032900090919304809192049817C8F285E8D8CF52
:1032A000E091930481E08E0F809393048091BB00A2
:1032B000F0E0EE58FB4F80838091950481115CCF44
:1032C00081E08093700484EA8093BC00109296049D
:1032D00026CF85EC8093BC001092960480914C031D
:1032E000803230F4E0914C03F0E0E45DFC4F10825A
:1032F00060914C0370E0E0914A04F0914B048CE241
:1033000093E0099510924C030ACF1092940434CFA5
:103310001F920F920FB60F9211240F931F932F93AA
:103320003F934F935F936F937F938F939F93AF934D
:10333000BF93CF93DF93EF93FF930BE111E0D0E0C6
:10334000C0E0F80181918F010E94B103FE01EC5FA2
:10335000FC4F9081981731F0DE01AD59BC4F9C9124
:103360009F5F9C9380832196C530D10551F7FF91D3
:10337000EF91DF91CF91BF91AF919F918F917F910D
:103380006F915F914F913F912F911F910F910F90EE
:103390000FBE0F901F901895EBEBF4E01382128292
:1033A00088EE93E0A0E0B0E084839583A683B783A2
:1033B00026EC32E0318320832FEF3FEF35872487DF
:1033C000E3EAF5E01382128284839583A683B783B0
:1033D00088ED92E091838083EBE0F5E08AEE92E065
:1033E0009183808382EF92E0938382831092900591
:1033F00010928F05109292051092910510929305EC
:10340000E4E9F5E088E0828320E431E03183208341
:10341000858320EC31E034832383808720E432E00D
:1034200037832683838720EC32E0328721878687A3
:1034300080E493E0958784870C940804CF93DF930E
:10344000CDB7DEB7C85BD1090FB6F894DEBF0FBEAB
:10345000CDBF789484B5826084BD84B5816084BD1D
:1034600085B5826085BD85B5816085BD80916E0022
:10347000816080936E001092810080918100826053
:103480008093810080918100816080938100809190
:1034900080008160809380008091910082608093A1
:1034A00091008091910081608093910080919000C3
:1034B0008160809390008091C10084608093C100FE
:1034C0008091C10082608093C1008091C1008160C1
:1034D0008093C1008091C30081608093C30080917C
:1034E000C00082608093C0008091C20081608093A0
:1034F000C20080917A00846080937A0080917A0083
:10350000826080937A0080917A00816080937A0053
:1035100080917A00806880937A001092490410921A
:103520005903109258038091D70081608093D7008F
:1035300080EA8093D80089B5806189BD89B58260B1
:1035400089BD09B400FEFDCF61E070E080E090E04D
:103550000E9490048091D8008F7C80618093D80075
:103560008091E000807F8093E0008091E1008E7E7A
:103570008093E1008DE08093E200559A209A5D9857
:10358000289814BE0FB6F894A895809160008861C1
:1035900080936000109260000FBE81E490E00E9472
:1035A000451280935E0360EA7FE080E090E00E9435
:1035B000900488E199E20FB6F894A8958093600092
:1035C0000FBE90936000A8958FEF9FEF9093C80473
:1035D0008093C70418E061E080E00E94230B64E65A
:1035E00070E080E090E00E94900461E081E00E9441
:1035F000230B64E670E080E090E00E94900460E0BD
:1036000080E00E94230B64E670E080E090E00E947E
:10361000900460E081E00E94230B64E670E080E0AB
:1036200090E00E9490041150B1F6A895BE016F5F22
:103630007F4F90E080E00E94151389819A81AB81D1
:10364000BC81813A9D4AA14ABD4A09F472C21982DD
:103650001A821B821C82BE016F5F7F4F88E090E060
:103660000E94761419821A821B821C82BE016F5F2F
:103670007F4F8CE090E00E94761483E0898311E014
:103680001A83BE016F5F7F4F84E090E00E944F1469
:1036900019831A82BE016F5F7F4F86E090E00E941F
:1036A0004F1461E080E290E00E94811334E9C32E60
:1036B00035E0D32E07E011E0F12CCB54DF4F198217
:1036C0001882C55BD040BE016B547F4FC8010E9479
:1036D0000B14C954DF4F19821882C75BD040BE015A
:1036E00069547F4FC80104960E940B1460E08F2D2F
:1036F0000E94831360E0C8010D960E94811360E070
:10370000C80108960E94811360E0D6018D919C91BA
:103710000E948113F6018081918160E001960E94F0
:103720008113F39400581F4FF3E0CF0ED11C25E016
:10373000F212C3CF61E080E091E00E94811361E06A
:1037400080E891E00E94811361E080E092E00E94B5
:10375000811360E080E892E00E94811360E080E0E5
:1037600093E00E94811360E080E490E00E94811366
:103770006AE772E090E080E00E9476140E944712AF
:1037800010E161E080E00E94230B64E170E080E0E2
:1037900090E00E94900461E081E00E94230B64E1CC
:1037A00070E080E090E00E94900460E080E00E9481
:1037B000230B64E170E080E090E00E94900460E000
:1037C00081E00E94230B64E170E080E090E00E94C1
:1037D00090041150B1F680910C01882309F4ACC11A
:1037E0000E94E10C60935A0370935B0380935C0327
:1037F00090935D036AE573E08CE090E00E9476149C
:10380000BE016F5F7F4F88E090E00E9415138981B1
:103810009A81AB81BC810196A11DB11D89839A83D8
:10382000AB83BC83BE016F5F7F4F88E090E00E9456
:103830007614A89580915E03857009F47CC004E13C
:1038400011E0F12CC8010E944512853080F523E07B
:10385000E22EC8010E94451261E0680FC8010E9473
:10386000811364E170E080E090E00E9490048F2D6D
:103870000E94410C6C0162E370E080E090E00E94E5
:103880009004C8010E9445126FEF680FC8010E94A2
:10389000811364E170E080E090E00E94900449E8C8
:1038A000C41643E1D40618F0EA94E110D2CFF394A1
:1038B00000581F4F85E0F812C5CF0FE011E0F12C42
:1038C000C8010E944512853080F593E0E92EC801B9
:1038D0000E94451261E0680FC8010E94811364E1F3
:1038E00070E080E090E00E9490048F2D0E945B0CBD
:1038F0006C0162E370E080E090E00E949004C801F7
:103900000E9445126FEF680FC8010E94811364E1A5
:1039100070E080E090E00E94900491E1C91697E287
:10392000D90618F0EA94E110D2CFF39400581F4F53
:10393000A5E0FA12C5CF84EF92E0909379038093CB
:10394000780310927A0310927B0310927C0381E03B
:1039500080937D0380937E0310927F0327EF32E0F4
:103960003093A00320939F038093A1038093A2032D
:103970001092A3038093A4038093A5031092A6033F
:103980002AEF32E03093C7032093C60392E090936E
:10399000C8031092CA038093CB038093CC03109288
:1039A000CD038DEF92E09093EE038093ED0383E0DF
:1039B0008093EF031092F3031092F40380E093E0FE
:1039C000909315048093140484E08093160410925D
:1039D0001A0410921B04ABE3EA2EA4E0FA2E08E7C7
:1039E00013E0B2E0DB2E80E6882E8AEE982EA12C22
:1039F000B12CF80110861186D686178E10A211A25E
:103A000012A283A294A2A5A2B6A28281853008F058
:103A10009CC0882361F090E002969695982F8827A5
:103A2000979587950E944512882309F48EC061E01E
:103A3000C8010E94B50B095D1F4FE016F106C9F6DB
:103A400076E2C72EDD24D394F12CE12CE7E2BE2EE2
:103A5000C6010E9445128250823090F460E08E2DA3
:103A60000E948313BE9CC001BF9C900D11248858F6
:103A70009C4F20915E03257009F469C00E94BE131B
:103A8000FFEFEF1AFF0A20E8C20ED11C45E0E41652
:103A9000F104F1F610920D018FE593E00E94960B70
:103AA00084E793E00E94960B10923B0410927003FF
:103AB0001092710310927203109273030E94E10C32
:103AC000663D754D8D4C9D4508F0F7C0812C912CBD
:103AD0005401512C54E6E52EF12C60E9C62EDD246C
:103AE000D394252D30E02E54384FF901E370FF2791
:103AF000309781F5C901B7010E943824892B31F430
:103B0000C901B6010E943824892B21F58EE691E087
:103B1000A0E0B0E0880E991EAA1EBB1ED501C4010C
:103B2000AA27BB2787329744A105B105C0F4539457
:103B3000D8CF0E9447124FCE10925A0310925B03C7
:103B400010925C0310925D0355CE60E071CF0E942D
:103B50008B1396CF8DE691E0A0E0B0E0DBCFC901FA
:103B600064E670E00E9438247C01C90160E971E0DC
:103B70000E943824309729F4E114F104F1F40097FD
:103B8000E1F04DE651E060E070E0481959096A093A
:103B90007B094A5D584B6F4F7F4FAEE7B2E030E094
:103BA000313081F4309709F0D1C0E114F10419F4F7
:103BB000009709F0CBC02DE106C04EE651E060E071
:103BC00070E0E3CF2C91822E912CB12CA12C21E01E
:103BD000230F481559056A057B0540F04819590916
:103BE0006A097B091196322F2C30D1F6EE24E3942A
:103BF000E30EFF24F394F40EDD24D394D0929704C3
:103C00008FE68093B904109298041092BA0460E091
:103C100083EA95E00E94BC0560E083EA95E00E949B
:103C2000BC0561E383EA95E00E94BC0562E283EA99
:103C300095E00E94BC058DE090E00E94EB054AE013
:103C4000C42E8F2D6C2D0E942C24682F660F680FB8
:103C5000660F6F0D83EA95E00E94BC058E2D6C2DDA
:103C60000E942C24682F660F680F660F6E0D83EA82
:103C700095E00E94BC0582EE580E852D6C2D0E94A9
:103C80002C24682F660F680F660F650D83EA95E098
:103C90000E94BC050E94C901D0929704109298041A
:103CA0001092BA0460E083EA95E00E94BC0580EDC2
:103CB00090E00E94EB050E94C901A8957E019DEA53
:103CC000E90EF11C80913B04811118C0D0900D01C8
:103CD000A4E0AD15E8F18FE593E00E94960B87E232
:103CE0008D9DF0011124E858FC4F9285913019F414
:103CF000CF010E94A9148FEF80930D01F8E7CF2E1A
:103D0000F3E0DF2E99249394A0E62A2EAAEE3A2E11
:103D1000412C512CD6011296EC91F0E0ED59FC4F5C
:103D20008081883008F49EC01082C6014B960E94A4
:103D3000960BF6018285882309F491C0833008F040
:103D400091C063E0C6010E94B50B8CC02CE13BCF53
:103D500040E65AEE60E070E08FE593E00E94760B5B
:103D6000882361F238E7A32E33E0B32ED12CC12C87
:103D7000F5018285813009F067C0C50188579340FD
:103D80004C01478D50A161A172A1C50143960E94CB
:103D9000760B882309F458C08FE593E00E94960BB8
:103DA00087E28C9DF0018D9DF00D1124E858FC4FA9
:103DB0008285813029F4C40188589C4F0E94A9143F
:103DC000C601880F991FC80ED91ED601AC56BA4F2E
:103DD0006D01B12CC6010E94B112B81630F46B2DE2
:103DE000C6010E943B13B394F5CF823008F486CF0E
:103DF000BB24B394C6010E94B112982F853008F0FD
:103E000094E0B91658F46B2DC6010E943B136FEF76
:103E10006B0DC6010E943B13B394ECCFB82EB3E0F8
:103E2000B81710F4B3E0BB2EAA24A394AB1408F087
:103E300065CF6A2DC6010E943B136FEF6A0DC60164
:103E40000E943B13A394F2CFEFEFCE1ADE0AF7E203
:103E5000AF0EB11CA016B10609F08ACF4FCFC60134
:103E60000E94BE13D60112968C910E94410C8F3F86
:103E70009807E1F0E2E0BE2E8837910560F0B12CA2
:103E80008C32E1E09E0738F0BB24B3948235934036
:103E900010F073E0B72ED6011E968C918B1531F081
:103EA000C6010F960E94960BF601B686D6011A96A9
:103EB0008C91823009F48FC108F050C1882309F435
:103EC00077C1A895B7E2CB0ED11CC016D10609F078
:103ED00021CF8BEB94E00E944B031C01512C412C11
:103EE0006E01E8E9CE0ED11C421453040CF09EC3BF
:103EF0008BEB94E00E9409038A30910509F090C38E
:103F00008CE992E0D60111969C938E938BE095E01C
:103F100013969C938E9312978EE892E019969C9339
:103F20008E93189786E992E01B969C938E931A972E
:103F300050961C921E921F9752961C921E92519759
:103F400053961C92539754961C9288EB92E09D874F
:103F50008C8780EC92E09F878E8762961FAE1EAEA4
:103F6000629764961FAE1EAE649765961FAE659706
:103F70006796DFAECEAE679768961FAE6897689675
:103F80008FAD689781113EC367968EAD9FAD6797E1
:103F900022EA32E0F7013183208393838283148203
:103FA000CE54DF4FF982E882C25BD040CC54DF4F61
:103FB0001882C45BD04042E050E0BE01685A7F4F97
:103FC000CE018E549F4F0E947308CC54DF4F8881DE
:103FD000C45BD040811107C06A966EAC7FAC6A9713
:103FE00076246724762444E050E0BE016F5F7F4F63
:103FF000CE018E549F4F0E94D10EBE016B5F7F4F4A
:10400000CE018E549F4F0E946B0EBE01695F7F4FA1
:10401000CE018E549F4F0E94A10EBE01685F7F4F5C
:10402000CE018E549F4F0E94A10EBE01675F7F4F4D
:10403000CE018E549F4F0E946B0EBE01655F7F4F75
:10404000CE018E549F4F0E94A10E62961FAE1EAEEF
:10405000629764961FAE1EAE649765961FAE659715
:1040600016141704E4F460E4A62EB12CF0E46F16E5
:1040700071040CF45301A501BE01685A7F4FC701BA
:104080000E942A08AC01BE01685A7F4FCE010C96EF
:104090000E94A0076A187B088A159B050CF7CC5470
:1040A000DF4F8881C45BD040882321F081E068968F
:1040B0008FAF6897D7011496BC9067968EAD9FAD71
:1040C0006797DC01ED91FC910190F081E02D41E0DA
:1040D00050E0BE01685A7F4F099569968FAD699788
:1040E000B81621F081E068968FAF689768968FAD1B
:1040F0006897811187C288EA92E06A969FAF8EAF77
:104100006A9780EB92E06C969FAF8EAF6C978EE0D3
:1041100091E06E969FAF8EAF6E97A3961FAE1EAEC8
:10412000A397A8961FAEA897ED81FE81F05CEF30B3
:10413000F10508F0B9C0E156FF4D0C946E244F21F3
:104140005F217B21C521B322A421B621D421E52101
:10415000EC22C7223A221B2251226C22833009F41E
:104160004EC0843009F0ADCE5601B7E1AB0EB11CA4
:1041700040E157E260E070E0C5010E94760B8823C1
:1041800019F0C5010E94960BF60143A154A165A147
:1041900076A1C60143960E94760B882309F491CE3E
:1041A000D60193962D923D924D925C92969723C0A4
:1041B000F6018281811185CE40E65AEE60E070E022
:1041C000C60143960E94760B882309F47ACEC60175
:1041D0000E94DC1376CE40EE53E964E070E0C60145
:1041E00043960E94760B882309F46BCED601129673
:1041F0008C910E943214C6010E948B1362CEF6018C
:104200008385882361F18681882391F040EE53E90C
:1042100064E070E0C6014B960E94760B882341F063
:10422000D60112968C910E943214C6010E94340E5F
:10423000F6018781882309F444CE5601FFE0AF0ED2
:10424000B11C40E157E260E070E0C5010E94760BCE
:10425000882309F436CEC5010E94960B32CE40E089
:104260005AEB6BED70E0C60143960E94760B8823F3
:1042700009F427CEC6010E94E21261E0811160E0DC
:10428000D60118969C92189719966C9319971396C5
:104290008C910E942A0BC6010E94340E12CECE01D0
:1042A000885A9F4F0E949111CE01885A9F4F0E94B9
:1042B00091096AE08EE091E00E94A00960CE8885B5
:1042C000A82EB12CB1E0AB16B10461F40E94370CFA
:1042D0009C01A50166E07FEFCE01885A9F4F0E94A6
:1042E0002911E2CF8250853018F40E94410CF0CFA2
:1042F00090E080E0EDCF8885482F50E0815030E09D
:1043000020E08530F0F48FB7F894809068039090A7
:104310006903A0906A03B0906B038FBFCA01019735
:1043200027E2289FF001299FF00D1124E858FC4F47
:10433000838D948DA58DB68D881A990AAA0ABB0A19
:10434000940169E07FEFC8CFB70188E090E00E9458
:104350001513F70120813181428153816AE17FEF9A
:10436000CE01885A9F4F0E9498109ECF8885A82E14
:10437000B12C853038F40E94CB129C01A50165E078
:104380007FEFAACF90E080E0F8CF8885A82EB12CEF
:10439000853038F40E945B0C9C01A50160E17FEF41
:1043A0009BCF90E080E0F8CF8885482F50E0815087
:1043B00021E030E0853010F030E020E0853010F46E
:1043C00080930D016BE07FEF87CFCE0101960E94B5
:1043D000280F68962FAD68974885211128C0842E34
:1043E000912C4150AA24A394B12C453010F0B12C4B
:1043F000A12C4530B8F494012150310947E2429F85
:10440000F001439FF00D1124E858FC4FDB0128EE2A
:1044100033E00E94832463A374A385A396A3CF01F2
:104420000E94340E9501A4016AE07FEF55CF50E061
:1044300030E020E0F9CF8885882E912C8150AA2485
:10444000A394B12C853010F0B12CA12C853068F4E8
:1044500094012150310947E2429FC001439F900DD2
:10446000112488589C4F0E94DC139501A40160E23E
:104470007FEF32CF8885482F50E0815030E020E038
:10448000853060F4CA01019727E2289FF001299F37
:10449000F00D1124E858FC4F228530E06FE17FEFEA
:1044A0001BCFA884B12C9501215031092230310550
:1044B00080F447E2429FC001439F900D1124885829
:1044C0009C4F0E94E212282F30E0A50161E27FEFAD
:1044D00003CF2FEF30E0F9CFCE0101960E94280FD5
:1044E00068962FAD68974885211139C0842E912C8C
:1044F000A401415051094230510570F55B0161152D
:104500007105B9F427E2249FF001259FF00D1124D5
:10451000E858FC4F81E08087118660E083810E942B
:104520002A0BAA24A394B12C9501A40162E27FEF87
:10453000D3CE6130710581F427E2249FF001259FDD
:10454000F00D1124E858FC4F81E08087818761E0FD
:1045500083810E942A0BE8CFB12CA12CE5CF50E03B
:1045600030E020E0E3CF2FB7F894609168037091BA
:10457000690380916A0390916B032FBF28EE33E0AB
:1045800040E050E00E944C2464E17FEFE9CED70187
:104590001D921D921D921C9213974701B12CA12CC4
:1045A000CE54DF4FB982A882C25BD040F401619142
:1045B0004F01CE018E549F4F0E94F213FFEFAF1AAE
:1045C000BF0A24E0A216B10459F721E030E041E02F
:1045D00050E06AE070EC80CE81E080933B048CE692
:1045E00093E00E94960B1092700310927103109248
:1045F00072031092730321E030E041E050E069E083
:1046000070EC6ACE1092900510928F051092920570
:1046100010929105109293054FEF441A540A64CCFE
:10462000682F8DE095E00E94A009F6CF40E65AEE93
:1046300060E070E084E793E00E94760B882309F441
:1046400070C084E793E00E94960BA89588EA92E0F8
:104650009A83898380EB92E09C838B838EE091E048
:104660009E838D831B861A86188ACE0101960E942E
:104670009111CC24C394D12C81E0C816D10409F047
:10468000ABC00E94370C9C01A60166E07FEFCE0113
:1046900001960E9429119FEFC91AD90AA7E0CA16EC
:1046A000D10451F7CC24C394D12CB5E090E080E044
:1046B000CB1619F08C2D0E94CB129C01A60165E04F
:1046C0007FEFCE0101960E942911EFEFCE1ADE0A8C
:1046D000F6E0CF16D10449F7CC24C394D12C25E0C1
:1046E00090E080E0C21619F08C2D0E945B0C9C01BA
:1046F000A60160E17FEFCE0101960E9429114FEFE4
:10470000C41AD40A86E0C816D10449F7CE0101962E
:104710000E9491096AE08EE091E00E94A0090E9447
:104720000902D0903B04DD2009F45BC04091700386
:104730005091710360917203709173038CE693E062
:104740000E94760B882309F44CC088E199E20FB6E9
:10475000F894A895809360000FBE90936000A89590
:1047600015E061E080E00E94230B61E081E00E949F
:10477000230B60E570E080E090E00E94900460E030
:1047800080E00E94230B60E081E00E94230B60E543
:1047900070E080E090E00E949004115011F761E019
:1047A00080E00E94230B61E081E00E94230B68EC13
:1047B00070E080E090E00E94900460E080E00E9461
:1047C000230B60E081E00E94230B68EC70E080E046
:1047D00090E00E949004C4CF8EEF8C0D0E94410C9B
:1047E00052CF8DE00E94B10361E0019709F460E0CF
:1047F00080E00E94230BDD2051F08DE00E94B10388
:1048000061E0019709F060E081E00E94230BA89528
:1048100068EC70E080E090E00E94900480E090E01E
:10482000892B09F44FCA0E9400004CCAF999FECFA7
:1048300092BD81BDF89A992780B50895262FF999E0
:10484000FECF1FBA92BD81BD20BD0FB6F894FA9A73
:10485000F99A0FBE01960895991B79E004C0991F3B
:10486000961708F0961B881F7A95C9F780950895CA
:1048700097FB072E16F4009407D077FD09D00E940D
:104880009D2407FC05D03EF4909581959F4F089597
:10489000709561957F4F0895A1E21A2EAA1BBB1B4C
:1048A000FD010DC0AA1FBB1FEE1FFF1FA217B307FC
:1048B000E407F50720F0A21BB30BE40BF50B661F12
:1048C000771F881F991F1A9469F7609570958095D6
:1048D00090959B01AC01BD01CF010895EE0FFF1F24
:1048E0000590F491E02D0994A29FB001B39FC001FF
:1048F000A39F700D811D1124911DB29F700D811D0C
:104900001124911D08950E947424B7FF0895821BFD
:10491000930B08950E947424A59F900DB49F900D51
:10492000A49F800D911D11240895B7FF0C948A2433
:104930000E948A24821B930B0895AA1BBB1B51E182
:1049400007C0AA1FBB1FA617B70710F0A61BB70BFF
:10495000881F991F5A95A9F780959095BC01CD01A4
:064960000895F894FFCF5A
:10496600FFFFFFFF00E100000000000001FF14014F
:1049760000000000130800000102030507160B17CC
:104986000406080A0C62686A636B011541424344D7
:1049960045464748494A4B4C4D4E4F505152535449
:1049A60055565758595A6162636465666768696AFD
:1049B6006B6C6D6E6F707172737475767778797AC9
:1049C600303132333435363738392B2F00005EBC60
:1049D600E2613FDD83C29C7E20A3FD1F419DC32172
:1049E6007FFCA2401E5F01E3BD3E6082DC237D9F0B
:1049F600C1421CFEA0E1BF5D0380DE3C62BEE00258
:104A06005CDF81633D7C22C09E1D43A1FF4618FAF0
:104A1600A427799BC584DA3866E5BB5907DB856729
:104A260039BAE406581947A5FB7826C49A653BD9D6
:104A360087045AB8E6A7F91B45C6987A24F8A6440F
:104A46001A99C7257B3A6486D85B05E7B98CD230BC
:104A56006EEDB3510F4E10F2AC2F7193CD114FADD9
:104A6600F3702ECC92D38D6F31B2EC0E50AFF113A2
:104A76004DCE90722C6D33D18F0C52B0EE326C8EBF
:104A8600D0530DEFB1F0AE4C1291CF2D73CA947680
:104A960028ABF517490856B4EA6937D58B5709EBA1
:104AA600B536688AD495CB2977F4AA4816E9B7555E
:104AB6000B88D6346A2B7597C94A14F6A8742AC887
:104AC60096154BA9F7B6E80A54D7896B350000004E
:104AD60000500800C18081000000A1ADA1AD1F1CDF
:104AE6001F1E1F1E1F1F1E1F1E1F00000000760612
:104AF6002206FEFF0000730600000000B609000053
:104B060000002A08000000005B099109FEFF000072
:104B16009D090D0900000000A306A007FEFF000086
:104B2600100800000000EF02C204050328024B0330
:104B36000903270300000000BC058F05F005780572
:104B46008805A3017905000000005B07E806FEFF63
:104B5600000058076E6300676E00637300783100CB
:044B660078320000A1
:00000001FF
