:100000000C94F2000C941A010C941A010C941A012D
:100010000C941A010C941A010C941A010C941A01F4
:100020000C941A010C941A010C947A110C94EC1192
:100030000C941A010C941A010C941A010C941A01D4
:100040000C941A010C941A010C941A010C941A01C4
:100050000C943F030C941A010C941A010C94190E81
:100060000C941A010C941A010C941A010C941A01A4
:100070000C941A010C941A010C941A010C941A0194
:100080000C941A010C941A010C941A010C941A0184
:100090000C94630E0C941A010C941A010C941A011E
:1000A0000C941A010C941A010C941A01F50BF80B1C
:1000B000E70BEB0BF10B190C190C190CFC0B000CDA
:1000C000040C0A0C0E0C190C140C07060504010094
:1000D000080A0B0C0D0900000000240027002A006C
:1000E0002D00300000000000250028002B002E000D
:1000F0003100000000002300260029002C002F0002
:1001000004040404040304050202020204030202BC
:10011000020206060606060604040202020404049D
:1001200008020110408040102040804080080204F6
:10013000018040201002011080102040402000006B
:10014000000200090F0000030401000C0000000081
:1001500000000000000000000000000000080B008C
:10016000020202010009040000010202000005244D
:1001700000100105240101010424020605240600E3
:10018000010705810310004009040100020A000074
:10019000000705020240000007058302400000043A
:1001A00003090441726475696E6F204C4C43004131
:1001B000726475696E6F204D6963726F0012010081
:1001C00002000000404123378000010102030112B8
:1001D000010002EF020140412337800001010203C8
:1001E0000100551E11241FBECFEFDAE0DEBFCDBFE8
:1001F00013E0A0E0B1E0EAE0F3E402C005900D9264
:10020000A839B107D9F725E0A8E9B3E001C01D92EC
:10021000AF3CB207E1F710E0C2EFD0E004C0219795
:10022000FE010E94C11EC13FD107C9F70E94FA1703
:100230000C9483210C94000081E08093A60380E05D
:100240000895982F92959F702AEF929F800D112408
:1002500008951F93CF93DF93C0E0D0E0CE010E94BA
:100260006D21182F682F62956F7070E080E090E02C
:1002700040E10E947316612F6F7070E080E090E0A3
:1002800040E10E94731680E20E94F814CE01837050
:100290009927039719F480E20E94F814CE018F7118
:1002A00099274F9711F40E9403152196C11584E0F8
:1002B000D807A1F680E0DF91CF911F9108950F93A9
:1002C0001F93CF93DF938C01EB010E946D218883F4
:1002D000C80101960E946D218983CE01DF91CF91E3
:1002E0001F910F910895FF920F931F93CF93DF9368
:1002F000CDB7DEB728970FB6F894DEBF0FBECDBFDF
:10030000CE0101960E944F168E010F5F1F4F88E0AD
:10031000F82EF00EF80161918F016F7070E080E0AF
:1003200090E040E10E94731640E160E070E0CB0194
:100330000E947316F012EECF0E94031580E02896FB
:100340000FB6F894DEBF0FBECDBFDF91CF911F91E6
:100350000F91FF900895823059F4FB0182819381BF
:100360000E944721853030F48093000180E0089599
:1003700082E0089583E00895EF92FF920F931F9318
:10038000CF93DF931F92CDB7DEB77C01FC010081D4
:100390001181C80169830E946D216981681719F074
:1003A000C8010E947521C7010F90DF91CF911F9165
:1003B0000F91FF90EF900895EF92FF920F931F938C
:1003C000CF93DF9300D0CDB7DEB78C017B01FB016B
:1003D00060819A838983CE0101960E94BC01F70156
:1003E00061810F5F1F4F1A830983CE0101960E941E
:1003F000BC01C7010F900F90DF91CF911F910F911A
:10040000FF90EF900895E82FF0E0E15EFE4F8081CD
:100410000C94670DCF92DF92EF92FF920F931F9390
:10042000CF93DF93D82E1AE0E82EF12C8D2D0E9469
:10043000861465E070E080E090E00E94D30D80E0DB
:1004400090E00E94DB1465E070E080E090E00E94A4
:10045000D30D80E00E942914811127C065E070E06F
:1004600080E090E00E94D30D63E070E0C7010E943D
:1004700090148330D1F465E070E080E090E00E9459
:10048000D30D00E02091B40530E08091B505281B24
:100490003109233031057CF465E070E080E090E0C4
:1004A0000E94D30D0F5F043669F7115009F0BECFDB
:1004B0008FEF9FEF24C086EB95E00E94810C86EBC6
:1004C00095E00E94810C082F86EB95E00E94810C3C
:1004D000C82E81E00E9429148111E7CF65E070E009
:1004E00080E090E00E94D30D0170D02F80E0C82FF3
:1004F000CE018C2924E0880F991F2A95E1F7DF911E
:10050000CF911F910F91FF90EF90DF90CF900895C2
:10051000CF93853088F5C62F811120C060E00E94FE
:10052000670D62E370E080E090E00E94D30D6C2FD5
:1005300084E00E94670D62E370E080E090E00E943A
:10054000D30D61E080E00E94670D62E370E080E01F
:1005500090E00E94D30D60E080E005C0E82FF0E05D
:10056000EB5EFE4F80810E94670D62E370E080E0E9
:1005700090E0CF910C94D30DCF9108950F931F93DA
:10058000CF93DF93853008F073C0811126C0EAEC69
:10059000F0E0E49180917B00E3FB222720F930E03A
:1005A00045E0220F331F4A95E1F78F7D282B2093DA
:1005B0007B00E770E064E0937C0080917A008064C7
:1005C00080937A0080917A0086FDFCCF809178003C
:1005D0002091790090E0922B4DC0E82FF0E0EB5D88
:1005E000FE4F608180E2689FB0011124162F1868C9
:1005F0000AE080919B030E948614612F86EB95E0B0
:100600000E94CD0C0E940715882311F0015089F734
:1006100060E570E080E090E00E94D30D80919B0344
:1006200063E070E090E00E9490148091B40590E047
:100630002091B505821B910983309105ECF386EB7F
:1006400095E00E94810C082F86EB95E00E94810CBA
:10065000182F86EB95E00E94810CD02F80E0C82FE8
:10066000CE01812B25E0969587952A95E1F702C06A
:1006700080E090E0DF91CF911F910F9108951F923C
:100680000F920FB60F9211240F931F932F933F9346
:100690004F935F936F937F938F939F93AF93BF938A
:1006A000CF93DF93EF93FF9300E111E0C0E0D0E040
:1006B000F80181918F010E943E0DFE01E556FB4F2E
:1006C00090818083981731F0FE01EF55FC4F8081B7
:1006D0008F5F80832196C530D10551F7FF91EF914F
:1006E000DF91CF91BF91AF919F918F917F916F914A
:1006F0005F914F913F912F911F910F910F900FBEDE
:100700000F901F9018956F927F928F929F92AF9249
:10071000BF92CF92DF92EF92FF920F931F93CF93EE
:10072000DF93EC01EE81AE2FB0E020E833E341EE41
:1007300051E00E94D61E4B015C0122EB37E0FD0127
:1007400004E610E080E9E82EFF24F394C901825BFF
:1007500097408E179F07DCF4C90183709927892B76
:1007600099F4C901B8010E948B1E892B31F4C9018B
:10077000B7010E948B1E892B39F480E8880E81E531
:10078000981E81E0A81EB11C2F5F3F4FDFCF6D8008
:10079000712CEE54F84FCF0164E670E00E948B1E7E
:1007A0007C01CF0160E971E00E948B1E6C0101E0C9
:1007B00010E0E370FF27061517052CF50230110530
:1007C00081F4309771F4E114F10419F4C114D104E7
:1007D00041F480E8880E8BE3981E86E2A81EB11CC7
:1007E0000FC0D801A75DBE4FAC91B0E020E831E565
:1007F00041E050E00E94D61E860E971EA81EB91E2C
:100800000F5F1F4FD8CF49812A8130E0A0E1BEE0C1
:100810000E94C71E6B017C01242F30E0ACE3B0E0E6
:100820000E94C71EDC01CB018C0D9D1DAE1DBF1D9E
:1008300028816C017D01C20ED11CE11CF11CAC8130
:10084000B0E0119720E831E541E050E00E94E11E60
:10085000DC01CB018C0D9D1DAE1DBF1DBC01CD016A
:10086000680D791D8A1D9B1DDF91CF911F910F91FE
:10087000FF90EF90DF90CF90BF90AF909F908F90C0
:100880007F906F900895EF92FF920F931F93CF93F5
:10089000DF9300D0CDB7DEB78C017B01FB01608117
:1008A0009A838983CE0101960E94BC01F701618180
:1008B0000F5F1F4F1A830983CE0101960E94BC016E
:1008C000C7010F900F90DF91CF911F910F91FF9073
:1008D000EF900895AF92BF92CF92DF92EF92FF9286
:1008E0000F931F93CF93DF9300D0CDB7DEB78B016B
:1008F0006B0124E0C20ED11C7B015C01A61AB70A71
:1009000095012E0D3F1DF70161917F013A832983E7
:10091000CE0101960E94BC01EC14FD0489F7C801C8
:100920000F900F90DF91CF911F910F91FF90EF905B
:10093000DF90CF90BF90AF900895CF92DF92EF926B
:10094000FF920F931F93CF93DF93EB017B0124E082
:10095000E20EF11C8B016C01C61AD70AC601800F8A
:10096000911F0E946D21F80181938F01EE15FF0503
:10097000A9F7CE01DF91CF911F910F91FF90EF90DA
:10098000DF90CF90089520E8829FC00111248A5DF6
:100990009E4F0C94752120E8829FC00111248A5D2E
:1009A0009E4F0C946D21CF93DF9300D0CDB7DEB76F
:1009B00020E8829FC0011124BE016F5F7F4F855FD9
:1009C0009E4F0E945F0189819A810F900F90DF9165
:1009D000CF910895853070F4882371F090E00296ED
:1009E0009695982F8827979587950E946D2191E07D
:1009F000811103C090E001C091E0892F0895EF922A
:100A0000FF921F93CF93DF93CDB7DEB728970FB632
:100A1000F894DEBF0FBECDBF19821A821B821C82E2
:100A2000BE016F5F7F4F88E090E00E946A041982E8
:100A30001A821B821C82BE016F5F7F4F8CE090E0A8
:100A40000E946A0483E08F8311E01887BE01695F0A
:100A50007F4F84E090E00E94DC011F831886BE0176
:100A6000695F7F4F86E090E00E94DC0187E0E82E1E
:100A7000FF24F39410E01E821D82BE016B5F7F4F46
:100A8000C7010E9443041A821982BE016F5F7F4F23
:100A9000C70104960E94430460E0812F0E94C304B2
:100AA0001F5F80E8E80EF11C153029F761E080E057
:100AB00091E00E94752161E080E891E00E9475213B
:100AC00061E080E092E00E94752160E080E892E0C1
:100AD0000E94752160E080E093E00E94752161E250
:100AE00071E080E090E00E946A0428960FB6F894C6
:100AF000DEBF0FBECDBFDF91CF911F91FF90EF9072
:100B00000895CF93DF93EC018FE60E94861460E096
:100B100086EB95E00E94CD0C0E94071581113CC028
:100B200067E070E08FE690E00E94901486EB95E01D
:100B30000E94810C8F770E942101888386EB95E0CB
:100B40000E94810C0E942101898386EB95E00E941E
:100B5000810C8F7B0E9421018A8386EB95E00E94A5
:100B6000810C877C8B8386EB95E00E94810C0E9430
:100B700021018C8386EB95E00E94810C8F7D0E9481
:100B800021018D8386EB95E00E94810C0E9421015A
:100B9000825E8E8381E001C080E0DF91CF91089575
:100BA000CF93DF93CDB7DEB727970FB6F894DEBFAC
:100BB0000FBECDBFCE0101960E948105882329F08A
:100BC000CE0101960E94830303C060E070E0CB0178
:100BD00027960FB6F894DEBF0FBECDBFDF91CF9141
:100BE000089580910D0181110C9403150895CF9300
:100BF000DF9320910D01222369F0EC0182E892E05D
:100C00000E94E014CE010E94E01480E2DF91CF91B7
:100C10000C94F814DF91CF91089520910D012111CA
:100C20000C94E0140895CF93DF93EC010E940D0E15
:100C3000688379838A839B83DF91CF910895CF93D3
:100C4000DF938230F1F4FB01828193810E9447217E
:100C50008530C8F49FE1899FE0011124CE018E53B5
:100C60009C4F0E941306C955DC4F888199810E94D0
:100C7000F70588E892E00E940D060E94F10580E0E9
:100C800003C082E001C083E0DF91CF9108950F930C
:100C90001F93CF93DF931F92CDB7DEB78C0143969E
:100CA00069830E941306C80147960E941306C80173
:100CB0004B960E941306C8010F960E941306698185
:100CC000F80162870F90DF91CF911F910F910895E6
:100CD000CF93DF93EC01888199810E94F7058BE91E
:100CE00092E00E940D060E94F10563E08A810E9455
:100CF000C3046AE070E080E090E00E94D30D60E001
:100D00008A810E94880264E670E080E090E00E94A0
:100D1000D30D60E08A810E94C3046AE070E080E045
:100D200090E00E94D30D60E0CE01DF91CF910C9452
:100D30004706823089F4FB01828193810E9447211A
:100D4000853060F42FE1829FC001112489559C4FAA
:100D50000E94680680E0089582E0089583E0089587
:100D6000CF93DF93EC018A858D7FA1F08A81882360
:100D700089F0888199810E94F70582E292E00E94C1
:100D80000D060E94F1051D8662E0CE010E94470615
:100D900080E001C081E0DF91CF910895823089F435
:100DA000FB01828193810E944721853060F42FE10D
:100DB000829FC001112489559C4F0E94B00680E09B
:100DC000089582E0089583E008950F931F93CF93D1
:100DD000DF9300D0CDB7DEB7FC012681222311F0CE
:100DE000878122C08C01FC018385882349F08281A0
:100DF0000E94D30483709927F8010397A1F411C0CE
:100E0000F8018281F0E88F9FC0011124BE016F5F5D
:100E10007F4F895F9E4F0E945F018981F80180FFAB
:100E200002C0858101C084810F900F90DF91CF9126
:100E30001F910F910895EF92FF920F931F93CF93FD
:100E4000DF9300D0CDB7DEB7FC0192859150923090
:100E5000B8F08F01F280FF2011F18F2D0E94EA047B
:100E6000882381F08F2D0E94CB0482508230B8F409
:100E7000D8018D919C910E94F7058BEC92E009C0FE
:100E800081E08DC0F801808191810E94F7058FEB90
:100E900092E00E940D060E94F10583E680C08F2D2E
:100EA0000E94D30421E04E9708F020E0F801238748
:100EB000C8010E94E506F82ED80116961C921697D6
:100EC0001396EC91E23088F4FF2041F021E0F21219
:100ED0000CC0F0E0E25FFE4F61E004C0F0E0E25FD2
:100EE000FE4F60E080810E94670DD8018D919C913A
:100EF0000E94F70585EB92E00E940D06F8018481BF
:100F0000F81619F08BEA92E002C083EA92E00E94A0
:100F10000D060E94F105D8011296EC90B0E8EB9E08
:100F2000C0011124FC01E95FFE4F7F01BE016F5F2C
:100F30007F4FCF010E945F0189819A8101969A8338
:100F40008983BE016F5F7F4FC7010E94430462E047
:100F5000D80112968C910E94C3046AE070E080E090
:100F600090E00E94D30D61E0F80182810E94880226
:100F700064E670E080E090E00E94D30D61E0D8016B
:100F800012968C910E94C3046AE070E080E090E0C9
:100F90000E94D30D61E0C8010E94470680E00F90D7
:100FA0000F90DF91CF911F910F91FF90EF900895D7
:100FB0000E94FF0480E008958091A00383FF04C095
:100FC00088ED92E00E94A8178091A00382FF04C0E0
:100FD0008DED92E00E94A8178091A00381FF04C0CC
:100FE00082EE92E00E94A8178091A00380FF04C0C7
:100FF00088EE92E00E94A81780E00895CF93DF93D7
:101000008230B9F4FB01C281D3816DEE72E0CE0172
:101010000E943E21892B21F481E080930D0109C0BB
:1010200060EF72E0CE010E943E21892B11F41092F4
:101030000D0180E0DF91CF9108950F931F93CF931F
:10104000DF938430A1F58B01FB01828193810E94A3
:101050004721C82F853058F569E972E0F80186818B
:1010600097810E943E21D1E0892B09F0D0E0F80160
:101070000481158164EF72E0C8010E943E21892B32
:1010800041F48FE1C89FF0011124E955FC4FD0874E
:101090000EC062E472E0C8010E943E21892B39F043
:1010A0008FE1C89FF0011124E955FC4FD18780E002
:1010B000DF91CF911F910F9108950F931F93CF93BD
:1010C000DF938B01823099F4FB01828193810E942E
:1010D0004721853058F50E94EA04682F70E080E0CF
:1010E00090E04AE00E9473160E9403151FC08330EF
:1010F000E9F4FB01828193810E944721EC01853054
:10110000A8F467EC71E0F801848195810E943E218A
:1011100061E0892B09F060E0CE019927029696954F
:10112000982F8827979587950E94752180E0DF91F9
:10113000CF911F910F9108950F931F930E94D00597
:1011400000919C0310919D0320919E0330919F0379
:10115000601B710B820B930B4AE00E9473160E9476
:10116000031580E01F910F9108950F931F93CF9364
:10117000DF939EEF980F923008F04EC08B01D82F6E
:10118000FB01828193810E944721C82F853008F09E
:1011900045C0D33061F5F801048115816BEF72E031
:1011A000C8010E943E21892B61F42FE1C29FF0010A
:1011B0001124E955FC4F81E08683178287EF92E086
:1011C00027C062E073E0C8010E943E21892B61F4D0
:1011D0008FE1C89FF0011124E955FC4F81E086831F
:1011E00087838EEF92E014C087E093E011C0EFE1B7
:1011F0008E9FC001112489559C4F0E94E5068111E4
:1012000003C08BEF92E004C0813071F782E093E07D
:101210000E94A81780E003C082E001C083E0DF9154
:10122000CF911F910F91089585E193E00E94E01402
:101230000E94AB1542E00E94D3160E94031582E281
:1012400093E00E94E0140E940A1542E00E94D31627
:101250000E94031580E00895CF93C0E08C2F0E9478
:10126000BE02BC0180E090E04AE00E9473160E943A
:101270000315CF5FC53091F780E0CF910895CF93EC
:10128000C0E08C2F0E94D304BC0180E090E04AE0D3
:101290000E9473160E940315CF5FC53091F780E05E
:1012A000CF9108950F931F93CF93DF93C7EAD3E0B5
:1012B0000E940D0E0B8D1C8D2D8D3E8D601B710BB4
:1012C000820B930B4AE00E9473160E9403156F96DF
:1012D00084E0C234D80761F780E0DF91CF911F919D
:1012E0000F9108951F93CF93DF9380E60E940A0227
:1012F000BC0180E090E04AE00E947316CAE1D1E0B0
:101300001C2F1B5F80E20E94F81489910E940A0240
:10131000BC0180E090E04AE00E9473161C13F2CFFB
:101320000E94031580E0DF91CF911F9108952F92C5
:101330003F924F925F926F927F928F929F92AF9265
:10134000BF92CF92DF92EF92FF920F931F93CF93B2
:10135000DF93CDB7DEB729970FB6F894DEBF0FBE87
:10136000CDBF8B01813009F460C0873009F09AC18C
:10137000FB01828193810E944721825B8F83F80168
:10138000848195810E9447218E83F801868197810F
:101390000E9447218D83F801808591850E94472115
:1013A0008B83F801828593850E9447218A83F80107
:1013B000848595850E9447218983CE0101960E94EC
:1013C00083032CE3C22ED12CE12CF12CA701960132
:1013D0000E949F1E662E6887CA01B901A701960167
:1013E0000E949F1E762E562ECA01B90128E130E0D8
:1013F00040E050E00E949F1E69017A01062F462EB0
:10140000CA01B9016C5F7F4F8F4F9F4F27E030E0DB
:1014100040E050E00E949F1E6F5F6987812C912CF5
:10142000540110E0E0E9F1E05DC0CE0101960E94B8
:1014300081056F8170E06E54784F072E000C880B89
:10144000990B4AE00E94731680E20E94F8146E81A4
:1014500070E080E090E04AE00E94731680E20E9413
:10146000F8146D8170E080E090E04AE00E9473160D
:1014700080E20E94F8146B8170E080E090E04AE026
:101480000E94731680E20E94F8146A8170E080E086
:1014900090E04AE00E94731680E20E94F81469818D
:1014A00070E080E090E04AE00E9473160E9403150D
:1014B000F7C0C90164E670E00E948B1E892BF1F031
:1014C0008EE691E0A0E0B0E0880E991EAA1EBB1E39
:1014D000D501C401AA27BB27C816D906EA06FB0610
:1014E000C0F01F5F212F30E02E54384F190183E0E8
:1014F000282233242114310439F4DBCFC901BF0180
:101500000E948B1E892BE1F28DE691E0A0E0B0E015
:10151000DBCF2114310499F4C90164E670E00E9424
:101520008B1E892B39F4C90160E971E00E948B1E82
:10153000892B29F48EE691E0A0E0B0E004C08DE6AE
:1015400091E0A0E0B0E0881A990AAA0ABB0AC8187C
:10155000D908EA08FB08C90164E670E00E948B1E06
:10156000FC01C90160E971E00E948B1EAAE2B1E0B2
:1015700020E0213041F42114310449F4309729F45A
:10158000009729F402C04C9103C04DE101C04CE129
:1015900050E060E070E0C416D506E606F70640F0BD
:1015A000C41AD50AE60AF70A2F5F11962C3009F7FC
:1015B000BB24B394B20EC3948FE60E94861460E0FD
:1015C00086EB95E00E94CD0C60E086EB95E00E94F2
:1015D000CD0C8AE0F82E852D6F2D0E947F1E282FBE
:1015E000220F280F220F622F670D86EB95E00E94D5
:1015F000CD0C842D6F2D0E947F1E282F220F280FC7
:10160000220F622F600F86EB95E00E94CD0C89853A
:10161000886090E00E94DB148C2D6F2D0E947F1E4D
:10162000982F990F980F990F692F6C0D86EB95E005
:101630000E94CD0C8B2D6F2D0E947F1E682F660F90
:10164000860F682F660F6B0D86EB95E00E94CD0C20
:101650001E51812F6F2D0E947F1E682F660F860FEF
:10166000880F682F610F86EB95E00E94CD0C0E94D9
:1016700007158FE60E94861460E086EB95E00E94D5
:10168000CD0C88856F2D0E947F1E982F990F890F92
:10169000880F860D806890E00E94DB140E94071579
:1016A00080E001C082E029960FB6F894DEBF0FBE3D
:1016B000CDBFDF91CF911F910F91FF90EF90DF9001
:1016C000CF90BF90AF909F908F907F906F905F90E2
:1016D0004F903F902F90089590910D01992339F0EC
:1016E000682F70E080E090E04AE00C947316089553
:1016F000CF92DF92EF92FF920F931F93CF93DF93DE
:101700006C01E62E8A01F12CF4E0FF9EE001112429
:10171000CA5CDE4F88819981009769F0F801608189
:1017200071810E943E21892B21F40A80DB81C02D2A
:1017300004C0F394E9CFC0E0D0E08CE293E00E94D3
:10174000E014C6010E94E01480E20E94F814F8013F
:10175000808191810E94A817209729F0B8018E2DD1
:10176000FE01099504C086E393E00E94A81788E46F
:1017700093E0DF91CF911F910F91FF90EF90DF9059
:10178000CF900C94A817FC018485958597FD0BC01C
:101790009FB7F89482E08093E9008091F2009FBFA8
:1017A00090E0019608959FB7F89482E08093E90055
:1017B0008091F2009FBF90E0089590E0FC01319786
:1017C000EF30F105B0F5EA5AFF4F0C94C11E80913D
:1017D00080008F7703C0809180008F7D8093800090
:1017E000089580918000877FF9CF84B58F7702C0FC
:1017F00084B58F7D84BD0895809190008F7707C058
:10180000809190008F7D03C080919000877F8093AE
:10181000900008958091C0008F7703C08091C00030
:101820008F7D8093C00008958091C200877F809350
:10183000C20008953FB7F8948091EC049091ED04B4
:10184000A091EE04B091EF0426B5A89B05C02F3FF0
:1018500019F00196A11DB11D3FBFBA2FA92F982FD6
:101860008827820F911DA11DB11DBC01CD0142E051
:10187000660F771F881F991F4A95D1F7089585ED48
:101880008093BC008091BC0084FDFCCF10923F058A
:1018900008954091C204262F30E0240F311D2132DB
:1018A0003105DCF420913F052430C9F4FC0180E0CF
:1018B00090E0861758F43091C2042191DC01A056C3
:1018C000BB4FA30FB11D2C930196F3CF8091C2049F
:1018D000680F6093C20480E0089581E0089582E07B
:1018E00008950895E091B5058091B405E81730F4A6
:1018F000F0E0E750FB4F808190E008958FEF9FEF7D
:1019000008959091B5058091B405981750F4E92F8A
:10191000F0E0E750FB4F208130E09F5F9093B505EA
:1019200002C02FEF3FEFC90108958091B40590E008
:101930002091B505821B91090895CF92DF92EF9215
:10194000FF920F931F93CF93DF937C01262F972F46
:101950008A0180914005882391F0C62FD72F6E0110
:10196000C40ED51ECC15DD0571F06991D701ED913E
:10197000FC910190F081E02DC7010995F3CF642F10
:10198000822F0E94490CC801DF91CF911F910F91C6
:10199000FF90EF90DF90CF900895CF93DF931F9249
:1019A000CDB7DEB76983209140052223D1F0209185
:1019B000B205203240F021E030E0FC013383228385
:1019C00080E090E015C08091B305E82FF0E0EF5B78
:1019D000FA4F998190838F5F8093B3058093B2050E
:1019E00005C061E0CE0101960E94490C81E090E0C3
:1019F0000F90DF91CF9108950F931F93CF93DF93B3
:101A00001F92CDB7DEB78C01FC018485958597FFC9
:101A10000EC0CE0101960E94BC17019719F42981CE
:101A200030E002C02FEF3FEFF80135872487F8013F
:101A3000848595850F90DF91CF911F910F91089527
:101A4000CF93DF931F92CDB7DEB7FC0184859585D8
:101A500097FD05C02FEF3FEF358724870BC0CE01E0
:101A600001960E94BC17019719F4898190E002C089
:101A70008FEF9FEF0F90DF91CF910895CF93DF937A
:101A8000282F30E0F901E25CFE4F8491F901E15E1C
:101A9000FE4FD491F901E050FF4FC491CC2391F057
:101AA00081110E94DD0BEC2FF0E0EE0FFF1FEE50D6
:101AB000FF4FA591B491EC91ED2381E090E021F4EA
:101AC00080E002C080E090E0DF91CF9108951F9305
:101AD000CF93DF93282F30E0F901E25CFE4F849131
:101AE000F901E15EFE4FD491F901E050FF4FC4913E
:101AF000CC23C9F0162F81110E94DD0BEC2FF0E0F2
:101B0000EE0FFF1FEC51FF4FA591B4918FB7F894E2
:101B1000111105C09C91ED2FE095E92302C0EC91D5
:101B2000ED2BEC938FBFDF91CF911F910895CF9351
:101B3000DF9390E0FC01E15EFE4F2491FC01E05058
:101B4000FF4F8491882361F190E0880F991FFC0179
:101B5000EA52FF4FC591D491FC01EC51FF4FA59182
:101B6000B491611109C09FB7F894888120958223B0
:101B70008883EC912E230BC0623061F49FB7F894F8
:101B80003881822F809583238883EC912E2B2C9390
:101B90009FBF06C08FB7F894E8812E2B28838FBF94
:101BA000DF91CF9108958F929F92AF92BF92CF9283
:101BB000DF92EF92FF926B017C010E941A0C4B01A5
:101BC0005C01C114D104E104F104F1F00E941A0C8B
:101BD000DC01CB0188199909AA09BB09883E934009
:101BE000A105B10570F321E0C21AD108E108F1089E
:101BF00088EE880E83E0981EA11CB11CC114D1048C
:101C0000E104F10419F7DDCFFF90EF90DF90CF9062
:101C1000BF90AF909F908F9008952FB7F8946091E8
:101C2000E8047091E9048091EA049091EB042FBFDD
:101C300008951F920F920FB60F9211242F933F9386
:101C40008F939F93AF93BF938091E8049091E904A1
:101C5000A091EA04B091EB043091E70423E0230F54
:101C60002D3720F40196A11DB11D05C026E8230FD4
:101C70000296A11DB11D2093E7048093E804909380
:101C8000E904A093EA04B093EB048091EC049091F2
:101C9000ED04A091EE04B091EF040196A11DB11DD9
:101CA0008093EC049093ED04A093EE04B093EF04C2
:101CB000BF91AF919F918F913F912F910F900FBE48
:101CC0000F901F9018951F920F920FB60F9211242C
:101CD0002F933F934F935F936F937F938F939F9334
:101CE000AF93BF93EF93FF938091B900887F8036C5
:101CF00009F49CC068F5883209F45BC090F4803127
:101D000009F454C038F4882309F4F6C0883009F483
:101D10004DC0F6C0883109F44CC0803209F45DC072
:101D2000EFC0803409F468C048F4803309F455C02A
:101D3000883309F0E5C080933D05D8C0803509F4AB
:101D40004FC0883509F45DC0883409F0D9C0D6C0C9
:101D5000883909F4C7C0A8F4883709F467C038F493
:101D6000883609F463C0803709F460C0C9C0883878
:101D700009F4B8C0803909F45FC0803809F0C0C0E8
:101D80005BC0803B09F486C038F4803A09F466C031
:101D9000883A09F47FC0B4C0803C09F4A7C0883CED
:101DA00009F4A4C0883B09F48AC0AAC080911A052E
:101DB00010C090913C0580913B05981770F5E0911B
:101DC0003C0581E08E0F80933C05F0E0E55EFA4F24
:101DD00080818093BB0085EC86C080933D058EC0DA
:101DE000E0913C0581E08E0F80933C058091BB0023
:101DF000F0E0E55EFA4F808390913C0580913B05D1
:101E00006EC0E0913C0581E08E0F80933C0580918F
:101E1000BB00F0E0E55EFA4F808380913E058111C2
:101E20006DC081E08093190584EA61C083E08093EE
:101E30003F051092E604CFCF8091E604803208F08F
:101E400051C0E091E60481E08E0F8093E60480911A
:101E5000BB00F0E0EA53FB4F8083BDCF85EC80935D
:101E6000BC0010923F058091E604803230F4E0918E
:101E7000E604F0E0EA53FB4F10826091E60470E064
:101E8000E091C404F091C50486EC94E009951092A9
:101E9000E60436C084E080933F051092C30410929C
:101EA000C204E091C004F091C10409958091C2047C
:101EB000811105C081E08093C2041092A004E091DA
:101EC000C30481E08E0F8093C304F0E0E056FB4F23
:101ED00080818093BB009091C3048091C2049817C5
:101EE00008F479CF85E88093BC000AC085EC809324
:101EF000BC0010923F0504C010923D050E943F0CAB
:101F0000FF91EF91BF91AF919F918F917F916F91D1
:101F10005F914F913F912F910F900FBE0F901F90A7
:101F2000189510923F0581E080933E0510921905A7
:101F300061E082E00E94670D61E083E00E94670D2E
:101F4000E9EBF0E080818E7F808380818D7F8083CC
:101F500088E48093B80085E48093BC0008952091C4
:101F60000D01222319F042E00C94D316089520911C
:101F70000D01222331F0BC0180E090E04AE00C9496
:101F800073160895BC0180910D01882339F0072E46
:101F9000000C880B990B40E10C9473160895409146
:101FA000F3045091F4042091F1043091F2044217AB
:101FB0005307B4F49091E8009570E1F39091E80034
:101FC00092FD19C08093F1008091F3049091F40484
:101FD00001968F739927892B19F48EEF8093E8006F
:101FE0008091F3049091F40401969093F40480930B
:101FF000F30481E0089580E00895CF92DF92EF929C
:10200000FF920F931F93CF93DF931F92CDB7DEB74D
:10201000182F062FE42E862F880F8E5F99830E943B
:10202000CF0F83E00E94CF0FF12EC12E9981D92EC0
:102030008C2D8F19801798F4F601E7FE02C0849169
:1020400001C080810E94CF0F182F80E00E94CF0F27
:102050008123FFEFCF1ADF0A8111EACF01C081E0AF
:102060000F90DF91CF911F910F91FF90EF90DF9034
:10207000CF900895DF92EF92FF920F931F93CF932B
:10208000DF93D82E8A017B01E40EF51EEB01CE15FD
:10209000DF0571F0D7FE03C0FE01849101C0888185
:1020A0000E94CF0F21968111F2CF8FEF9FEF01C0D9
:1020B000C801DF91CF911F910F91FF90EF90DF90BA
:1020C0000895615030F02091F100FC0120830196C9
:1020D000F8CF289A84E68093F6040895CF92DF9291
:1020E000EF92FF920F931F93CF93DF936C017A01CE
:1020F0008B01C0E0D0E0CE15DF0589F0D8016D91ED
:102100008D01D601ED91FC910190F081E02DC60189
:102110000995892B11F47E0102C02196ECCFC701ED
:10212000DF91CF911F910F91FF90EF90DF90CF90B3
:102130000895CF93DF931F92CDB7DEB76983DC019B
:10214000ED91FC910280F381E02D41E050E0BE0171
:102150006F5F7F4F09950F90DF91CF91089583E0D6
:102160008093E9008091F200882319F08AE380933C
:10217000E80008950E9439210F931F93CF93DF93B6
:102180001F92CDB7DEB782E0898342E450E06DE56F
:1021900071E080E80E943A100E94E617DC01129676
:1021A0000D911C9113970115110569F0D801ED915E
:1021B000FC910280F381E02DBE016F5F7F4FC8016B
:1021C000099597FF07C089810F90DF91CF911F91EB
:1021D0000F910895F80100851185E5CF8F929F92A8
:1021E000AF92BF92CF92DF92EF92FF920F931F9325
:1021F000CF93DF935C016B018A0180910C018823EE
:1022000009F45EC08091F704882309F459C08091D5
:10221000990380FF05C08091E00082608093E00018
:10222000E8018AEFF82E93E0E92E2FE3822E3AE3BD
:10223000932E209709F43DC08FB7F894E092E900FF
:102240009091E80095FF06C09091F200282D291B7F
:10225000922F01C090E08FBF91110AC0FA94FF2025
:1022600079F161E070E080E090E00E94D30DE1CF71
:10227000292F30E0C217D3070CF49C2F8FB7F894A6
:10228000E092E9002091E80025FF11C0292F30E0FD
:10229000C21BD30BF601915020F041914093F10005
:1022A000FACFC20ED31E9091E80095FF13C08FBFE6
:1022B000C0CF5D9A84E68093F5041016110644F0B1
:1022C00081E090E0F5019383828380E090E005C097
:1022D000C80103C09092E800EACFDF91CF911F912F
:1022E0000F91FF90EF90DF90CF90BF90AF909F90B5
:1022F0008F9008951F920F920FB60F9211248F9313
:102300009F938091E1009091E100937F9093E10091
:1023100083FF0FC01092E90091E09093EB001092C0
:10232000EC0092E39093ED001092F70498E0909304
:10233000F00082FF20C093E09093E9009091F200BA
:10234000992319F09AE39093E8009091F50499236A
:1023500039F09091F50491509093F504992389F107
:102360009091F604992339F09091F604915090934E
:10237000F604992341F184FF10C08091E2008E7E23
:1023800081608093E2008091E1008F7E8093E10084
:10239000809199038E7E806111C080FF16C080916C
:1023A000E2008E7E80618093E2008091E1008E7E6B
:1023B0008093E100809199038E7E816080939903E0
:1023C00004C05D98CDCF2898D6CF9F918F910F9064
:1023D0000FBE0F901F9018951F920F920FB60F927D
:1023E0001124CF92DF92EF92FF920F931F932F93BE
:1023F0003F934F935F936F937F938F939F93AF938D
:10240000BF93EF93FF93CF93DF93CDB7DEB76C9776
:10241000DEBFCDBF1092E9008091E80083FFFAC1D2
:1024200068E0CE0145960E94611082EF8093E8003B
:102430008D8987FF05C09091E80090FFFCCF03C015
:102440009EEF9093E800982F907609F0C6C09E8981
:102450002F89188D91110CC0803829F480919A032E
:102460008093F10002C01092F1001092F10047C178
:10247000422F50E0512B913051F4811140C1413035
:10248000510509F03CC180919A038D7F0BC09330B8
:1024900061F4811134C14130510509F030C180919E
:1024A0009A03826080939A032AC1953041F4809107
:1024B000E80080FFFCCF20682093E30020C1963025
:1024C00009F05FC0EB8CFC8C1092E9001092F404D0
:1024D0001092F304123091F51092F2041092F1046C
:1024E0000E94BC1099E0BE016F5F7F4FDB01E92FB6
:1024F0001D92EA95E9F799831A8391E09E8390EA09
:1025000098879AEF99872091F3043091F404275F1C
:102510003F4F3C832B838D831092E9001092F4048B
:102520001092F304F092F204E092F10449E050E0DA
:1025300080E00E943A100E94BC10E1C0F092F204C8
:10254000E092F1040E94E617DC011296ED90FC90F7
:102550001397E114F10409F4C0C0D701ED91FC9187
:102560000480F581E02DBE016B5E7F4FC7010995A8
:10257000009719F00CF0C3C0C6C0F701E084F184E5
:10258000E8CF973009F4BFC0983021F481E0809300
:10259000F100B5C0993009F0B2C0837009F0B3C042
:1025A000EBE8F1E081E021E036E39081992361F0EE
:1025B0008093E9002093EB0091919093EC0030938D
:1025C000ED008F5F873089F78EE78093EA001092E5
:1025D000EA008F898093F70492C08B8D9C8D1092B6
:1025E000E9001092F4041092F3049093F2048093A3
:1025F000F104898D811156C08E899D89913A59F4D3
:10260000813209F080C047E050E065E071E080E091
:102610000E943A1074C0913209F075C0833289F477
:10262000888D90E0982F88272F89822BA0E0B0E03A
:102630008093010190930201A0930301B0930401E0
:102640005EC0803269F48091E80082FFFCCF67E0D1
:1026500085E091E00E9461108BEF8093E80006C056
:10266000823209F04CC08F8980930C0180919803CD
:10267000882319F0EEEFFAE002C0E0E0F8E0809184
:10268000050190910601A0910701B0910801803BDE
:102690009440A105B10509F088C080910C0180FF2C
:1026A000A0C083C00E94E617DC0112960D911C9118
:1026B00013970115110539F1D801ED91FC910190A5
:1026C000F081E02DBE016B5E7F4FC801099581113D
:1026D00016C0F80100851185ECCF1130C1F0133020
:1026E00091F48F89882309F455C08230E9F440E8D9
:1026F0006DE08FEA91E00E94FD0F882321F08EEFBC
:102700008093E80087C081E28093EB0083C08B8DCB
:102710009C8D089711F41093F0048091F0048111BE
:1027200036C06DEB71E038C0813029F440E86BE0D1
:1027300083EA91E0E0CF833031F70E94E617DC01B5
:102740001296ED90FC9013978E010F5F1F4F68015A
:10275000E114F10479F0D701ED91FC910680F78145
:10276000E02DB801C7010995080F111DF701E0849C
:10277000F184EECFD8011C92F60101900020E9F718
:102780003197BF016C197D0940E0C601B4CF6FECF1
:1027900071E002C06FE971E06115710509F4B3CF12
:1027A000FB01449150E080E833CF0FB6F894A89530
:1027B00080916000886180936000109260000FBE7D
:1027C000A895EE3F2AE0F20739F08091FE0A909139
:1027D000FF0A9183808393CF1092FF0A1092FE0A22
:1027E0008ECFEE3F8AE0F80731F08081918190939F
:1027F000FF0A8093FE0A87E797E7918380839BE037
:1028000088E10FB6F894A895809360000FBE90936E
:10281000600075CF6C960FB6F894DEBF0FBECDBFCB
:10282000DF91CF91FF91EF91BF91AF919F918F91E8
:102830007F916F915F914F913F912F911F910F91D8
:10284000FF90EF90DF90CF900F900FBE0F901F90F2
:102850001895382F2091B2059091CE05213208F0BD
:1028600049C080913F058111FCCF42E040933F0574
:1028700030933E053FEF30933D0510923C05209389
:102880003B05A1E4B5E04BE155E0FA013E2F341BD6
:10289000321718F43D913193F9CF10921A05209117
:1028A0001A05990F922B90931A0590911905913062
:1028B00061F41092190590911A059093BB009091C4
:1028C000BC0093FDF8CF95EC01C095EE9093BC0051
:1028D00090913F059230E1F390913D059F3F79F053
:1028E00080913D05803241F080913D05803331F08B
:1028F00084E005C081E003C082E001C083E0109263
:10290000B3051092B20510924005089591E090939E
:1029100040058093CE051092B3051092B20508953C
:1029200090913F059111FCCF613208F060E291E097
:1029300090933F0590933E052FEF20933D05109215
:102940003C05260F20933B0590931A0590911A059C
:10295000880F892B80931A0580911905813061F4C5
:102960001092190580911A058093BB008091BC00DC
:1029700083FDF8CF85EC01C085EE8093BC0080918B
:102980003F058130E1F380913C05861710F460919A
:102990003C05ABE1B5E029EF34E0F9018E2F821B55
:1029A000861718F48D918193F9CF1092B505609335
:1029B000B405862F0895682F86EB95E00C94CD0C16
:1029C000BC01009791F0FC0101900020E9F73197DC
:1029D000AF01481B590BE0916105F091620502803F
:1029E000F381E02D81E695E0099480E090E0089580
:1029F000E0916105F09162050190F081E02D682F72
:102A000081E695E0099486E893E00C94E01481E077
:102A10000C9429148F929F92AF92BF92CF92DF9223
:102A2000EF92FF920F931F9380E40E94861485EF2C
:102A300090E00E94DB140E94071567E370E080E0DD
:102A400090E00E94D30D63E070E080E490E00E948B
:102A5000901410E08091B40590E02091B505821BA0
:102A6000910903970CF45EC086EB95E00E94810CFF
:102A7000082F86EB95E00E94810C182F86EB95E0DD
:102A80000E94810CF02EE12CB701612B8B0120E01C
:102A900030E0322F212F102F002768017901C82A3A
:102AA000D701C60127E130E0C12C40E8D42E48E927
:102AB000E42EF12C4C015D01022E04C0B694A794C3
:102AC000979487940A94D2F780FE04C08C259D25A4
:102AD000AE25BF25F694E794D794C79421503109C9
:102AE0002730310539F7811118C06C7F80E090E004
:102AF0000E94102020E030E040E857E30E94C72009
:102B000020E030E04AEF52E40E94C72020E030E0AD
:102B100040EC50E40E94FD1E13C060E070EC89E7B9
:102B200094E40EC065E070E080E090E00E94D30D78
:102B30001F5F143609F08ECF60E070E889E794E4F7
:102B40001F910F91FF90EF90DF90CF90BF90AF90CB
:102B50009F908F9008958F929F92AF92BF92CF9245
:102B6000DF92EF92FF920F931F93CF93DF9380E456
:102B70000E94861483EF90E00E94DB140E940715E8
:102B800067E370E080E090E00E94D30D63E070E0C6
:102B900080E490E00E949014C5E6D0E08091B405F6
:102BA00090E02091B505821B910903976CF461E0D8
:102BB00070E080E090E00E94D30D219779F760E00B
:102BC00070E889E794E45EC086EB95E00E94810C92
:102BD000D82F86EB95E00E94810CC82F86EB95E0FC
:102BE0000E94810CFD2EE12C97012C2BA90160E0A5
:102BF00070E0762F652F542F44277A018B01E82A45
:102C0000D801C70147E150E0C12CF0E8DF2EF8E918
:102C1000EF2EF12C4C015D01042E04C0B694A79454
:102C2000979487940A94D2F780FE04C08C259D2542
:102C3000AE25BF25F694E794D794C7944150510927
:102C40004730510539F7811119C0B9016C7F80E017
:102C500090E00E94102020E030E040E857E30E941E
:102C6000C72022E538EB4FE253E40E94C72026E656
:102C700036E64BE352E40E94FD1E04C060E070ECB7
:102C800089E794E4DF91CF911F910F91FF90EF902E
:102C9000DF90CF90BF90AF909F908F9008950F934B
:102CA0001F93CF93DF938C0187E50E94861480EFFA
:102CB00090E00E94DB140E94071568E070E087E551
:102CC00090E00E949014E801085F1F4F86EB95E0AA
:102CD0000E94810C8993C017D107C1F7DF91CF9172
:102CE0001F910F9108958F929F92AF92BF920F9371
:102CF0001F93CF93DF93CDB7DEB7A1970FB6F894AC
:102D0000DEBF0FBECDBF19A2423008F44AE08E01EB
:102D10000F5D1F4F842E912CA12CB12CA501940185
:102D20000E949F1EE62FB901CA0101501109EA3025
:102D300014F4E05D01C0E95CD801EC93232B242B53
:102D4000252B61F7C8010E94E014A1960FB6F894F4
:102D5000DEBF0FBECDBFDF91CF911F910F91BF900E
:102D6000AF909F908F900895CF92DF92EF92FF9255
:102D7000CF93DF936B017C018DE20E94F814EC018C
:102D800066277727CB016C197D098E099F094AE0D8
:102D90000E9473168C0F9D1FDF91CF91FF90EF90D3
:102DA000DF90CF9008954F925F926F927F928F92B3
:102DB0009F92AF92BF92CF92DF92EF92FF926B0100
:102DC0007C01B42E9B01AC010E943421882319F0B0
:102DD00089E893E027C026013701E89477F82FEFC0
:102DE0003FEF4FE75FE7C301B2010E943421811139
:102DF0000DC02FEF3FEF4FE75FE7C301B2010E9425
:102E00006A1F18161CF48DE893E00CC02FEF3FEFFB
:102E10004FE75FE4C701B6010E94C220181684F490
:102E200081E993E0FF90EF90DF90CF90BF90AF905B
:102E30009F908F907F906F905F904F900C94E014D4
:102E40002FEF3FEF4FE75FECC701B6010E946A1F0B
:102E500087FDE6CF20E030E0A901C701B6010E945E
:102E60006A1F87FF09C08DE20E94F8144C01F7FA2F
:102E7000F094F7F8F09402C0812C912CA12C60E022
:102E800070E080E09FE3AB1441F020E030E040E2EE
:102E900051E40E946F1FA394F6CF9B01AC01C701C0
:102EA000B6010E94FE1E2B013C010E94E11F6B0136
:102EB0007C010E9410209B01AC01C301B2010E9461
:102EC000FD1E2B013C014AE0C701B6010E947316AA
:102ED0007C01E80CF91CBB2031F085E993E00E94ED
:102EE000E014E80EF91EDB2CDD2021F120E030E0BB
:102EF00040E251E4C301B2010E94C7202B013C0112
:102F00000E94E11F4B01A12CB12C4AE0C501B40184
:102F10000E947316E80EF91EC501B4010E9410202C
:102F20009B01AC01C301B2010E94FD1E2B013C01BB
:102F3000DA94DACFC701FF90EF90DF90CF90BF9087
:102F4000AF909F908F907F906F905F904F9008957B
:102F5000CF93DF930E94E014EC010E9403158C0FC5
:102F60009D1FDF91CF91089580910D01882319F065
:102F700080E20C94F8140895FC018091F70481110B
:102F800003C08FEF9FEF08959FB7F89482E080937E
:102F9000E9002091F20030E01216130614F421E04B
:102FA00030E02115310559F0289A84E68093F60423
:102FB0008091F10080838091F200882319F09FBFF7
:102FC000C90108958BE68093E800F9CF8091C6058A
:102FD00081110DC082E08093C20584E08093C30517
:102FE0001092C5051092C40581E08093C60582EC5D
:102FF00095E00895CF93DF93CDB7DEB76A970FB60C
:10300000F894DEBF0FBECDBF789484B5826084BDD6
:1030100084B5816084BD85B5826085BD85B58160DC
:1030200085BD80916E00816080936E00109281005A
:103030008091810082608093810080918100816015
:1030400080938100809180008160809380008091D6
:1030500091008260809391008091910081608093C3
:103060009100809190008160809390008091C100D8
:1030700084608093C1008091C10082608093C10010
:103080008091C10081608093C1008091C300816004
:103090008093C3008091C00082608093C0008091C3
:1030A000C20081608093C20080917A008460809326
:1030B0007A0080917A00826080937A0080917A0011
:1030C000816080937A0080917A00806880937A0092
:1030D0001092F70410929A03109299038091D700EE
:1030E00081608093D70080EA8093D80089B58061A1
:1030F00089BD89B5826089BD09B400FEFDCF61E05C
:1031000070E080E090E00E94D30D8091D8008F7C29
:1031100080618093D8008091E000807F8093E00000
:103120008091E1008E7E8093E1008DE08093E2004B
:10313000559A209A5D982898EEEFFFE78591949133
:103140008B3F9C4D19F481E08093980384B7809362
:10315000A00314BE99E288E10FB6F894A895809375
:1031600060000FBE90936000A89561E08DE00E9422
:10317000970D61E089E00E94970DE5E1CE2EE1E038
:10318000DE2EF0E1EF2EF1E0FF2E00E010E061E036
:10319000D6018D916D010E94970D60E0F70181913C
:1031A0007F010E94970DF801EF55FC4F10820F5FD1
:1031B0001F4F0530110559F761E081E00E94970D1E
:1031C00061E085E10E94970D61E080E00E94970D2B
:1031D0001092B5051092B4051092B3051092B20585
:1031E0000E94910F68EC70E080E090E00E94D30DA7
:1031F0008EE680939B0368EC70E080E090E00E9494
:10320000D30D68EC70E080E090E00E94D30DF8945C
:10321000109280001092810081E080936F0083E023
:10322000809381007894A8958091A003857019F40B
:10323000A89518E00FC010E060E0812F0E9488027E
:1032400064E670E080E090E00E94D30D1F5F1530CF
:1032500099F7EECF61E080E00E94030264E670E03F
:1032600080E090E00E94D30D61E081E00E940302C3
:1032700064E670E080E090E00E94D30D60E080E0C2
:103280000E94030264E670E080E090E00E94D30DAB
:1032900060E081E00E94030264E670E080E090E07C
:1032A0000E94D30D1150B1F6A8958FEF9FEF909328
:1032B0006E0580936D0560ED77E080E090E00E9400
:1032C000D30DCE0101966C01BC0180E090E00E941C
:1032D0009D0489819A81AB81BC81813A9D4AA14A32
:1032E000BD4A69F088EB91E00E94F70581EB91E01F
:1032F0000E940D060E94F105A8950E94FF048DEB27
:1033000091E09093A8038093A7031092A9031092D1
:10331000AA031092AB0391E09093AC039093AF0398
:103320009093B00320EC31E03093C7032093C603A1
:103330009093C8039093C9031092CA039093CB0350
:103340009093CE039093CF0323EC31E03093E603C8
:103350002093E50382E08093E7031092E9039093C2
:10336000EA031092ED031092EE0386EC91E0909345
:1033700005048093040483E08093060410920C04F7
:1033800010920D0489EC91E090932404809323041F
:1033900084E08093250410922B0410922C040E9448
:1033A000D00560939C0370939D0380939E0390933C
:1033B0009F036CE973E08CE090E00E946A04B60120
:1033C00088E090E00E949D0489819A81AB81BC8154
:1033D0000196A11DB11D89839A83AB83BC83B6017D
:1033E00088E090E00E946A0418E0A89561E080E01F
:1033F0000E9403026AEF70E080E090E00E94D30D2B
:1034000061E081E00E9403026AEF70E080E090E0FA
:103410000E94D30D60E081E00E9403026AEF70E039
:1034200080E090E00E94D30D60E080E00E94030203
:103430006AEF70E080E090E00E94D30D8091A103DC
:10344000843038F482E60E940A028937910508F434
:10345000F7C1A8958091A00383FF10C010E0812FD1
:103460000E94CB048250823020F460E0812F0E94C1
:10347000C3041F5F153099F70E94F1058091A003E6
:103480008570A9F188EB91E00E94F7058091A00377
:1034900080FF04C08CEC91E00E940D068091A00397
:1034A00082FF04C082ED91E00E940D06E12CFF2412
:1034B000F39410E0812F0E94CB048250823078F484
:1034C00060E0C7010E94752160E0812F0E94C30463
:1034D00088ED91E00E940D06812F0E946C0B1F5F0A
:1034E000F0E8EF0EF11C153029F70E94F1058091EC
:1034F000A00381110AC088EB91E00E94F70586EED7
:1035000091E00E940D060E94F10500E010E062E0EB
:10351000F62EF801E955FC4F16821782F68660E018
:10352000CF010E944706015E1F4F0B39110589F735
:10353000109200011092A6031092960482E494E087
:103540000E94130687E994E00E9413068AE191E045
:1035500055E0752E780E48E0642E6C0C99E288E1F7
:103560000FB6F894A895809360000FBE909360000A
:10357000A89510910001153080F482E494E00E9437
:1035800013062FE1129FC001112489559C4F0E9400
:103590001B078FEF809300013FC00E940D0E00912A
:1035A0004204109143042091440430914504DC010D
:1035B000CB01801B910BA20BB30B81339547A10567
:1035C000B10550F182E494E00E94130631EBE32E42
:1035D00033E0F32E00E010E0D7018C91811114C08C
:1035E000F7013897808181110BC02FE1209FC00126
:1035F000219F900D112489559C4F0E941B070CC0E0
:103600000E94EA048111F1CF0F5F1F4FBFE1EB0E63
:10361000F11C0530110501F789EA882E83E0982E08
:1036200097EAA92E93E0B92E25EBE22E23E0F22EA5
:103630008501F4015080852D0E94EA04882309F455
:10364000E4C0E52DF0E0EF55FC4F8081853080F03F
:103650001082C8014B960E941306D8018D919C914F
:103660000E94F70581E992E00E940D060E94F10593
:10367000D401EC91E53010F022E019C0F0E0E65EF4
:10368000FE4F80810E940A028F3FBFEF9B07D9F057
:103690008837910588F38C32E1E09E0728F0823567
:1036A000934020F023E003C020E001C021E0D701D7
:1036B0008C91281741F0C8010F962A8F0E9413069B
:1036C0002A8DF7012083F70134978081813021F121
:1036D00020F0823009F456C098C0F70135978081F8
:1036E000882309F492C0D7018C91823009F48DC0EF
:1036F0000E940D0EF8012785308941895289DC012D
:10370000CB01821B930BA40BB50B81319742A10512
:10371000B10508F099C079C0F701369780818823F8
:10372000A9F00E940D0ED8015B962D913D914D910F
:103730005C915E97DC01CB01821B930BA40BB50B54
:10374000813C944DA140B10508F08EC0F70135973A
:103750008081882309F459C00E940D0ED8011F965C
:103760002D913D914D915C915297DC01CB01821BD3
:10377000930BA40BB50B81319742A105B10508F05D
:1037800095C043C00E940D0ED80157962D913D91D2
:103790004D915C915A97DC01CB01821B930BA40BDA
:1037A000B50B81319742A105B10578F0C801479664
:1037B0000E941306D8018D919C910E94F70582E228
:1037C00092E00E940D060E94F1050E940D0EF80184
:1037D0002389348945895689DC01CB01821B930BEF
:1037E000A40BB50B81369A4EA105B10570F0D80136
:1037F0008D919C910E94F7058BE292E00E940D064C
:103800000E94F105C8010E946806BFE18B0E911C61
:10381000015E1F4FEFE1EE0EF11CF4E002341F07D2
:1038200009F007CFA89510E081E695E00E94C30B50
:10383000181619060CF05DC0103F08F4C9C159C034
:10384000115009F0D2CD05CED8018D919C910E94E6
:10385000F7058FE592E00E940D060E94F10561E0F8
:10386000C8010E944706D1CFF801808191810E9452
:10387000F70580E792E00E940D060E94F105D40151
:103880005C90852D0E94D3040196998F888FB0E8B3
:103890005B9EC0011124BE01685E7F4F855F9E4F15
:1038A0000E944304C8010E94B00650CFF8018081F5
:1038B00091810E94F705D7018C91813059F481E103
:1038C00092E00E940D060E94F105C8010F960E9429
:1038D00013069BCF813018F489EE91E0F2CF82304D
:1038E00019F488EF91E0EDCF833069F784E092E03E
:1038F000E8CF0E940D0E009197041091980420913A
:10390000990430919A04DC01CB01801B910BA20B2E
:10391000B30B81339547A105B10508F4FBC087E9D6
:1039200094E00E941306A895C6010E944F168AE3F0
:1039300092E00E94F7058601D8018D918D018F706C
:1039400090E00E94C20F80E090E00E94C20F6012DF
:10395000F3CF0E94F10562E370E080E090E00E9406
:10396000D30DCE0141960E9481058DE392E00E9425
:10397000F7056F8980910D01882351F070E06E5436
:10398000784F072E000C880B990B4AE00E947316A3
:103990000E94B4178E890E946C0B0E94B4178D8907
:1039A0000E946C0B0E94B4178B890E946C0B0E94C2
:1039B000B4178A890E946C0B0E94B41789890E94EF
:1039C0006C0B0E94F10562E370E080E090E00E94E1
:1039D000D30D82E492E00E94F70580E60E940A027D
:1039E0000E94B70F0AE111E00E94B417F80181911B
:1039F0008F010E940A020E94B70F7012F5CF0E9439
:103A0000F10562E370E080E090E00E94D30D85E470
:103A100092E00E94F70510E0812F0E94BE020E94F2
:103A2000B70F0E94B4171F5F1530B1F70E94F10560
:103A300062E370E080E090E00E94D30D88E492E0C1
:103A40000E94F7050E94AB150E94AF0F0E94B417A9
:103A50000E940A150E94AF0F0E94F10562E370E018
:103A600080E090E00E94D30D8CE492E00E94F70584
:103A700010E0812F0E94D3040E94B70F0E94B41758
:103A80001F5F1530B1F70E94F10562E370E080E03E
:103A900090E00E94D30D83EC92E00E94F70510E0C5
:103AA000812F0E94EA0490910D01992339F0682F2B
:103AB00070E080E090E04AE00E9473160E94B41724
:103AC0001F5F153069F70E94F10562E370E080E046
:103AD00090E00E94D30D8FE093E00E94F705C501AE
:103AE0000E94E506811103C082E592E007C08130A3
:103AF00019F486E592E002C08CE592E00E940D0682
:103B0000FFE1AF0EB11C22E4A21624E0B20639F7A1
:103B10000E94F1058091A603882309F447C099E229
:103B200088E10FB6F894A895809360000FBE90933B
:103B30006000A89515E061E080E00E94030261E06A
:103B400081E00E94030260E570E080E090E00E9466
:103B5000D30D60E080E00E94030260E081E00E94FB
:103B6000030260E570E080E090E00E94D30D115008
:103B700011F761E080E00E94030261E081E00E94B1
:103B8000030268EC70E080E090E00E94D30D60E0FA
:103B900080E00E94030260E081E00E94030268EC82
:103BA00070E080E090E00E94D30DC4CF8DE00E94D1
:103BB0003E0D61E0019709F460E080E00E9403029D
:103BC00080E090E0892B09F4C9CC0E940000C3CCAE
:103BD00081E695E00E94200DA0919604E1E0EA0FB5
:103BE000E0939604B0E0AA5BBB4F8C931F5FE03577
:103BF00070F01092960481E695E00E94C30B1816AF
:103C000019060CF011CE103F09F046C00DCE8A30D7
:103C100009F00ACEF0E0EA5BFB4F108210929604A6
:103C2000A6E4B4E060E0FD018D918032E1F38930DB
:103C3000D1F381528E3590F441E0460FD601A60FA4
:103C4000B11DA60FB11DED93FC939F01F9012F5FEC
:103C50003F4F808181528E35C8F3642F8081882345
:103C600089F0DF01119610826830E8F2E981FA816B
:103C70008081803459F46150AE014D5F5F4FCF01B8
:103C8000019607C0662309F4CFCDF0CFA60188E3E3
:103C900092E00E94780BC8CD81E695E00E94200D4D
:103CA0000A9709F4C1CD1F5FA6CFE1E6F5E01382C4
:103CB000128288EE93E0A0E0B0E084839583A6832F
:103CC000B78325E931E0318320832FEF3FEF35873C
:103CD0002487E6EBF5E01382128284839583A68322
:103CE000B78385EA91E0918380831092B5051092A5
:103CF000B4051092B3051092B2050C94910F991B64
:103D000079E004C0991F961708F0961B881F7A95D2
:103D1000C9F78095089597FB072E16F4009407D0F5
:103D200077FD09D00E94E91E07FC05D03EF490956E
:103D300081959F4F0895709561957F4F0895A1E2F9
:103D40001A2EAA1BBB1BFD010DC0AA1FBB1FEE1F15
:103D5000FF1FA217B307E407F50720F0A21BB30B60
:103D6000E40BF50B661F771F881F991F1A9469F7DC
:103D700060957095809590959B01AC01BD01CF0138
:103D80000895EE0FFF1F0590F491E02D0994A29F76
:103D9000B001B39FC001A39F700D811D1124911D1F
:103DA000B29F700D811D1124911D08950E94C71EA0
:103DB000A59F900DB49F900DA49F800D911D11247F
:103DC0000895B7FF0C94D61E0E94D61E821B930B3B
:103DD0000895AA1BBB1B51E107C0AA1FBB1FA61752
:103DE000B70710F0A61BB70B881F991F5A95A9F7A4
:103DF00080959095BC01CD0108955058BB27AA2706
:103E00000E94151F0C9488200E947A2038F00E948E
:103E1000812020F039F49F3F19F426F40C94772088
:103E20000EF4E095E7FB0C947120E92F0E94992095
:103E300058F3BA17620773078407950720F079F4DF
:103E4000A6F50C94BB200EF4E0950B2EBA2FA02DF6
:103E50000B01B90190010C01CA01A0011124FF2737
:103E6000591B99F0593F50F4503E68F11A16F04032
:103E7000A22F232F342F4427585FF3CF4695379531
:103E80002795A795F0405395C9F77EF41F16BA0BF6
:103E9000620B730B840BBAF09150A1F0FF0FBB1FA4
:103EA000661F771F881FC2F70EC0BA0F621F731FED
:103EB000841F48F4879577956795B795F7959E3F4A
:103EC00008F0B0CF9395880F08F09927EE0F9795DB
:103ED000879508950E944D2008F481E008950E947E
:103EE000831F0C9488200E94812058F00E947A2021
:103EF00040F029F45F3F29F00C94712051110C948B
:103F0000BC200C9477200E94992068F39923B1F388
:103F1000552391F3951B550BBB27AA2762177307EF
:103F2000840738F09F5F5F4F220F331F441FAA1F83
:103F3000A9F335D00E2E3AF0E0E832D0915050403F
:103F4000E695001CCAF72BD0FE2F29D0660F771FED
:103F5000881FBB1F261737074807AB07B0E809F0D3
:103F6000BB0B802DBF01FF2793585F4F3AF09E3F58
:103F7000510578F00C9471200C94BC205F3FE4F361
:103F8000983ED4F3869577956795B795F7959F5F9B
:103F9000C9F7880F911D9695879597F90895E1E0E7
:103FA000660F771F881FBB1F621773078407BA0746
:103FB00020F0621B730B840BBA0BEE1F88F7E095A1
:103FC00008950E94A12088F09F5798F0B92F992753
:103FD000B751B0F0E1F0660F771F881F991F1AF0F4
:103FE000BA95C9F714C0B13091F00E94BB20B1E07E
:103FF00008950C94BB20672F782F8827B85F39F07D
:10400000B93FCCF3869577956795B395D9F73EF48C
:1040100090958095709561957F4F8F4F9F4F089534
:10402000E89409C097FB3EF4909580957095619552
:104030007F4F8F4F9F4F9923A9F0F92F96E9BB2708
:104040009395F695879577956795B795F111F8CF84
:10405000FAF4BB0F11F460FF1BC06F5F7F4F8F4FEF
:104060009F4F16C0882311F096E911C0772321F0E5
:104070009EE8872F762F05C0662371F096E8862F7D
:1040800070E060E02AF09A95660F771F881FDAF7D4
:10409000880F9695879597F90895990F0008550F01
:1040A000AA0BE0E8FEEF16161706E807F907C0F0BE
:1040B00012161306E407F50798F0621B730B840BC6
:1040C000950B39F40A2661F0232B242B252B21F4A0
:1040D00008950A2609F4A140A6958FEF811D811D40
:1040E000089597F99F6780E870E060E008959FEF7A
:1040F00080EC089500240A9416161706180609067F
:10410000089500240A94121613061406050608954D
:10411000092E0394000C11F4882352F0BB0F40F4D5
:10412000BF2B11F460FF04C06F5F7F4F8F4F9F4F15
:10413000089557FD9058440F551F59F05F3F71F097
:104140004795880F97FB991F61F09F3F79F08795FE
:104150000895121613061406551FF2CF4695F1DF87
:1041600008C0161617061806991FF1CF8695710517
:10417000610508940895E894BB2766277727CB014B
:1041800097F908950E944D2008F48FEF08950E943A
:10419000DA200C9488200E947A2038F00E94812036
:1041A00020F0952311F00C9471200C9477201124A9
:1041B0000C94BC200E94992070F3959FC1F3950F39
:1041C00050E0551F629FF001729FBB27F00DB11D9B
:1041D000639FAA27F00DB11DAA1F649F6627B00D2B
:1041E000A11D661F829F2227B00DA11D621F739F14
:1041F000B00DA11D621F839FA00D611D221F749F22
:104200003327A00D611D231F849F600D211D822F68
:10421000762F6A2F11249F5750409AF0F1F088238F
:104220004AF0EE0FFF1FBB1F661F771F881F9150BC
:104230005040A9F79E3F510580F00C9471200C94DA
:10424000BC205F3FE4F3983ED4F38695779567955D
:10425000B795F795E7959F5FC1F7FE2B880F911DE6
:104260009695879597F908950E944D20880B990B94
:10427000089581E090E0F8940C948321FB01DC0127
:104280008D91019080190110D9F3990B0895FC01CB
:1042900088279927E89421912032E9F3293010F0FA
:1042A0002E30C8F32B3241F02D3239F4689404C01B
:1042B0000E946521820F911D219120532A30C0F365
:1042C0001EF4909581959F4F08957AE0979F902DC9
:1042D000879F802D910D11240895F999FECF92BDED
:1042E00081BDF89A992780B50895262FF999FECFB8
:1042F0001FBA92BD81BD20BD0FB6F894FA9AF99A03
:0A4300000FBE01960895F894FFCF58
:10430A00FFFFFFFFFF00E1000000000000010115B0
:10431A000507160B170406080A0C62686A636B0D18
:10432A0009A1ADA1AD00000102031F1C1F1E1F1E23
:10433A001F1F1E1F1E1F26021F064D03AB0153031C
:10434A00CE065803990680031C013A027301420201
:10435A007209F4025209480214095E03B5084502BB
:10436A002C093D029709610329016803DC076B03E5
:10437A003F096E039C0871035D0874031D087A03E4
:10438A00FE077E03D8070000000000C180810000FC
:10439A0000000000009910EE10C30B200DFC0CAFBA
:1043AA001000000000CD0C9D0C950C810C720C7154
:1043BA000C7265636F726420696E6974006E6300C3
:1043CA00676E00637300783100783200706F72662E
:1043DA002000626F726620002072656C6179206627
:1043EA0061756C7420006F6B0063757272656E7410
:1043FA00206E6F726D616C0063757272656E7420E7
:10440A006C6F770063757272656E7420686967688D
:10441A000063757272656E74207374726573736566
:10442A00640073746F7070696E670073746F7020C4
:10443A0074696D656F757400300069640064617435
:10444A006500637500746800656E76006661696C64
:10445A00730073642000656D6D6320003F20006364
:10446A00757272656E742064657465637465640040
:10447A006865617274626561742074696D656F75CF
:10448A0074006C6F673A200065787465726E616CAF
:10449A0020686561727462656174006B696C6C692D
:1044AA006E67007072696D617279007365636F6E11
:1044BA0064617279007374617274696E6720006E48
:1044CA006F7420656E61626C65640072656C6179F7
:1044DA00206661696C6564005744524600424F5237
:1044EA004600455854524600504F5246006F6E00DF
:1044FA006F66660068620073657420736400736592
:10450A007420656D6D6300696E76616C6964206DF7
:10451A00656469610074656D706572617475726550
:10452A00200068756D696469747920003C3C3C2DF3
:10453A00207369643D00636F6D6D616E64206E6FF8
:10454A007420666F756E64002D3E3E3E0073746182
:10455A0072740073746F700073746F7021006273E9
:10456A0000656564756D700062660066630075704B
:10457A0000656E007761746368006C6F670065653B
:10458A007265736574000D0A006E616E00696E666D
:08459A00006F7666002E0000A0
:00000001FF
