:100000000C94F2000C941A010C941A010C941A012D
:100010000C941A010C941A010C941A010C941A01F4
:100020000C941A010C941A010C9454110C94C611DE
:100030000C941A010C941A010C941A010C941A01D4
:100040000C941A010C941A010C941A010C941A01C4
:100050000C943F030C941A010C941A010C94F30DA8
:100060000C941A010C941A010C941A010C941A01A4
:100070000C941A010C941A010C941A010C941A0194
:100080000C941A010C941A010C941A010C941A0184
:100090000C943D0E0C941A010C941A010C941A0144
:1000A0000C941A010C941A010C941A01CF0BD20B68
:1000B000C10BC50BCB0BF30BF30BF30BD60BDA0B0E
:1000C000DE0BE40BE80BF30BEE0B07060504010057
:1000D000080A0B0C0D0900000000240027002A006C
:1000E0002D00300000000000250028002B002E000D
:1000F0003100000000002300260029002C002F0002
:1001000004040404040304050202020204030202BC
:10011000020206060606060604040202020404049D
:1001200008020110408040102040804080080204F6
:10013000018040201002011080102040402000006B
:10014000000200090F0000030401000C0000000081
:1001500000000000000000000000000000080B008C
:10016000020202010009040000010202000005244D
:1001700000100105240101010424020605240600E3
:10018000010705810310004009040100020A000074
:10019000000705020240000007058302400000043A
:1001A00003090441726475696E6F204C4C43004131
:1001B000726475696E6F204D6963726F0012010081
:1001C00002000000404123378000010102030112B8
:1001D000010002EF020140412337800001010203C8
:1001E0000100301E11241FBECFEFDAE0DEBFCDBF0D
:1001F00013E0A0E0B1E0E0ECF2E402C005900D9263
:10020000A839B107D9F725E0A8E9B3E001C01D92EC
:10021000AF3CB207E1F710E0C2EFD0E004C0219795
:10022000FE010E949C1EC13FD107C9F70E94D4174E
:100230000C945E210C94000081E08093A60380E082
:100240000895982F92959F702AEF929F800D112408
:1002500008951F93CF93DF93C0E0D0E0CE010E94BA
:100260004821182F682F62956F7070E080E090E051
:1002700040E10E944D16612F6F7070E080E090E0C9
:1002800040E10E944D1680E20E94D214CE0183709C
:100290009927039719F480E20E94D214CE018F713E
:1002A00099274F9711F40E94DD142196C11584E01F
:1002B000D807A1F680E0DF91CF911F9108950F93A9
:1002C0001F93CF93DF938C01EB010E944821888319
:1002D000C80101960E9448218983CE01DF91CF9108
:1002E0001F910F910895FF920F931F93CF93DF9368
:1002F000CDB7DEB728970FB6F894DEBF0FBECDBFDF
:10030000CE0101960E9429168E010F5F1F4F88E0D3
:10031000F82EF00EF80161918F016F7070E080E0AF
:1003200090E040E10E944D1640E160E070E0CB01BA
:100330000E944D16F012EECF0E94DD1480E0289648
:100340000FB6F894DEBF0FBECDBFDF91CF911F91E6
:100350000F91FF900895823059F4FB0182819381BF
:100360000E942221853030F48093000180E00895BE
:1003700082E0089583E00895EF92FF920F931F9318
:10038000CF93DF931F92CDB7DEB77C01FC010081D4
:100390001181C80169830E9448216981681719F099
:1003A000C8010E945021C7010F90DF91CF911F918A
:1003B0000F91FF90EF900895EF92FF920F931F938C
:1003C000CF93DF9300D0CDB7DEB78C017B01FB016B
:1003D00060819A838983CE0101960E94BC01F70156
:1003E00061810F5F1F4F1A830983CE0101960E941E
:1003F000BC01C7010F900F90DF91CF911F910F911A
:10040000FF90EF900895E82FF0E0E15EFE4F8081CD
:100410000C94410DCF92DF92EF92FF920F931F93B6
:10042000CF93DF93D82E1AE0E82EF12C8D2D0E9469
:10043000601465E070E080E090E00E94AD0D80E027
:1004400090E00E94B51465E070E080E090E00E94CA
:10045000AD0D80E00E940314811127C065E070E0BB
:1004600080E090E00E94AD0D63E070E0C7010E9463
:100470006A148330D1F465E070E080E090E00E947F
:10048000AD0D00E02091B40530E08091B505281B4A
:100490003109233031057CF465E070E080E090E0C4
:1004A0000E94AD0D0F5F043669F7115009F0BECF01
:1004B0008FEF9FEF24C086EB95E00E945B0C86EBEC
:1004C00095E00E945B0C082F86EB95E00E945B0C88
:1004D000C82E81E00E9403148111E7CF65E070E02F
:1004E00080E090E00E94AD0D0170D02F80E0C82F19
:1004F000CE018C2924E0880F991F2A95E1F7DF911E
:10050000CF911F910F91FF90EF90DF90CF900895C2
:10051000CF93853088F5C62F811120C060E00E94FE
:10052000410D62E370E080E090E00E94AD0D6C2F21
:1005300084E00E94410D62E370E080E090E00E9460
:10054000AD0D61E080E00E94410D62E370E080E06B
:1005500090E00E94AD0D60E080E005C0E82FF0E083
:10056000EB5EFE4F80810E94410D62E370E080E00F
:1005700090E0CF910C94AD0DCF9108950F931F9300
:10058000CF93DF93853008F073C0811126C0EAEC69
:10059000F0E0E49180917B00E3FB222720F930E03A
:1005A00045E0220F331F4A95E1F78F7D282B2093DA
:1005B0007B00E770E064E0937C0080917A008064C7
:1005C00080937A0080917A0086FDFCCF809178003C
:1005D0002091790090E0922B4DC0E82FF0E0EB5D88
:1005E000FE4F608180E2689FB0011124162F1868C9
:1005F0000AE080919B030E946014612F86EB95E0D6
:100600000E94A70C0E94E114882311F0015089F781
:1006100060E570E080E090E00E94AD0D80919B036A
:1006200063E070E090E00E946A148091B40590E06D
:100630002091B505821B910983309105ECF386EB7F
:1006400095E00E945B0C082F86EB95E00E945B0C06
:10065000182F86EB95E00E945B0CD02F80E0C82F0E
:10066000CE01812B25E0969587952A95E1F702C06A
:1006700080E090E0DF91CF911F910F9108951F923C
:100680000F920FB60F9211240F931F932F933F9346
:100690004F935F936F937F938F939F93AF93BF938A
:1006A000CF93DF93EF93FF9300E111E0C0E0D0E040
:1006B000F80181918F010E94180DFE01E556FB4F54
:1006C00090818083981731F0FE01EF55FC4F8081B7
:1006D0008F5F80832196C530D10551F7FF91EF914F
:1006E000DF91CF91BF91AF919F918F917F916F914A
:1006F0005F914F913F912F911F910F910F900FBEDE
:100700000F901F9018956F927F928F929F92AF9249
:10071000BF92CF92DF92EF92FF920F931F93CF93EE
:10072000DF93EC01EE81AE2FB0E020E833E341EE41
:1007300051E00E94B11E4B015C0122EB37E0FD014C
:1007400004E610E080E9E82EFF24F394C901825BFF
:1007500097408E179F07DCF4C90183709927892B76
:1007600099F4C901B8010E94661E892B31F4C901B0
:10077000B7010E94661E892B39F480E8880E81E556
:10078000981E81E0A81EB11C2F5F3F4FDFCF6D8008
:10079000712CEE54F84FCF0164E670E00E94661EA3
:1007A0007C01CF0160E971E00E94661E6C0101E0EE
:1007B00010E0E370FF27061517052CF50230110530
:1007C00081F4309771F4E114F10419F4C114D104E7
:1007D00041F480E8880E8BE3981E86E2A81EB11CC7
:1007E0000FC0D801A75DBE4FAC91B0E020E831E565
:1007F00041E050E00E94B11E860E971EA81EB91E51
:100800000F5F1F4FD8CF49812A8130E0A0E1BEE0C1
:100810000E94A21E6B017C01242F30E0ACE3B0E00B
:100820000E94A21EDC01CB018C0D9D1DAE1DBF1DC3
:1008300028816C017D01C20ED11CE11CF11CAC8130
:10084000B0E0119720E831E541E050E00E94BC1E85
:10085000DC01CB018C0D9D1DAE1DBF1DBC01CD016A
:10086000680D791D8A1D9B1DDF91CF911F910F91FE
:10087000FF90EF90DF90CF90BF90AF909F908F90C0
:100880007F906F900895EF92FF920F931F93CF93F5
:10089000DF9300D0CDB7DEB78C017B01FB01608117
:1008A0009A838983CE0101960E94BC01F701618180
:1008B0000F5F1F4F1A830983CE0101960E94BC016E
:1008C000C7010F900F90DF91CF911F910F91FF9073
:1008D000EF900895AF92BF92CF92DF92EF92FF9286
:1008E0000F931F93CF93DF9300D0CDB7DEB78B016B
:1008F0006B0124E0C20ED11C7B015C01A61AB70A71
:1009000095012E0D3F1DF70161917F013A832983E7
:10091000CE0101960E94BC01EC14FD0489F7C801C8
:100920000F900F90DF91CF911F910F91FF90EF905B
:10093000DF90CF90BF90AF90089520E8829FC001D4
:1009400011248A5D9E4F0C94502120E8829FC001A3
:1009500011248A5D9E4F0C944821CF93DF9300D0E1
:10096000CDB7DEB720E8829FC0011124BE016F5FC2
:100970007F4F855F9E4F0E945F0189819A810F9012
:100980000F90DF91CF910895853070F4882371F036
:1009900090E002969695982F8827979587950E94C4
:1009A000482191E0811103C090E001C091E0892FBE
:1009B0000895EF92FF921F93CF93DF93CDB7DEB7E9
:1009C00028970FB6F894DEBF0FBECDBF19821A82EA
:1009D0001B821C82BE016F5F7F4F88E090E00E9407
:1009E0006A0419821A821B821C82BE016F5F7F4FCC
:1009F0008CE090E00E946A0483E08F8311E0188706
:100A0000BE01695F7F4F84E090E00E94DC011F839C
:100A10001886BE01695F7F4F86E090E00E94DC018E
:100A200087E0E82EFF24F39410E01E821D82BE01B1
:100A30006B5F7F4FC7010E9443041A821982BE0177
:100A40006F5F7F4FC70104960E94430460E0812FCF
:100A50000E949D041F5F80E8E80EF11C153029F705
:100A600061E080E091E00E94502161E080E891E047
:100A70000E94502161E080E092E00E94502160E0FD
:100A800080E892E00E94502160E080E093E00E94C4
:100A9000502161E271E080E090E00E946A042896B3
:100AA0000FB6F894DEBF0FBECDBFDF91CF911F917F
:100AB000FF90EF900895CF93DF93EC018FE60E94B3
:100AC000601460E086EB95E00E94A70C0E94E114A0
:100AD00081113CC067E070E08FE690E00E946A14EC
:100AE00086EB95E00E945B0C8F770E942101888342
:100AF00086EB95E00E945B0C0E942101898386EBC6
:100B000095E00E945B0C8F7B0E9421018A8386EB1B
:100B100095E00E945B0C877C8B8386EB95E00E94BE
:100B20005B0C0E9421018C8386EB95E00E945B0C9C
:100B30008F7D0E9421018D8386EB95E00E945B0CE6
:100B40000E942101825E8E8381E001C080E0DF91FE
:100B5000CF910895CF93DF93CDB7DEB727970FB628
:100B6000F894DEBF0FBECDBFCE0101960E945B059B
:100B7000882329F0CE0101960E94830303C060E020
:100B800070E0CB0127960FB6F894DEBF0FBECDBF45
:100B9000DF91CF91089580910D0181110C94DD14A6
:100BA0000895CF93DF9320910D01222369F0EC018A
:100BB00082E892E00E94BA14CE010E94BA1480E248
:100BC000DF91CF910C94D214DF91CF9108952091B1
:100BD0000D0121110C94BA140895CF93DF93EC0109
:100BE0000E94E70D688379838A839B83DF91CF918D
:100BF0000895CF93DF938230F1F4FB0182819381DA
:100C00000E9422218530C8F49FE1899FE0011124D0
:100C1000CE018E539C4F0E94ED05C955DC4F888153
:100C200099810E94D10588E892E00E94E7050E9420
:100C3000CB0580E003C082E001C083E0DF91CF916B
:100C400008950F931F93CF93DF931F92CDB7DEB715
:100C50008C01439669830E94ED05C80147960E9466
:100C6000ED05C8014B960E94ED05C8010F960E9444
:100C7000ED056981F80162870F90DF91CF911F9197
:100C80000F910895CF93DF93EC01888199810E94A1
:100C9000D1058BE992E00E94E7050E94CB0563E055
:100CA0008A810E949D046AE070E080E090E00E94EA
:100CB000AD0D60E08A810E94880264E670E080E009
:100CC00090E00E94AD0D60E08A810E949D046AE080
:100CD00070E080E090E00E94AD0D60E0CE01DF9119
:100CE000CF910C942106823089F4FB01828193819B
:100CF0000E942221853060F42FE1829FC0011124DF
:100D000089559C4F0E94420680E0089582E0089534
:100D100083E00895CF93DF93EC018A858D7FA1F066
:100D20008A81882389F0888199810E94D10582E295
:100D300092E00E94E7050E94CB051D8662E0CE018D
:100D40000E94210680E001C081E0DF91CF910895EB
:100D5000823089F4FB01828193810E9422218530B7
:100D600060F42FE1829FC001112489559C4F0E949D
:100D70008A0680E0089582E0089583E008950F9345
:100D80001F93CF93DF9300D0CDB7DEB7FC01268150
:100D9000222311F0878122C08C01FC0183858823E6
:100DA00049F082810E94AD0483709927F80103976E
:100DB000A1F411C0F8018281F0E88F9FC0011124D5
:100DC000BE016F5F7F4F895F9E4F0E945F018981E7
:100DD000F80180FF02C0858101C084810F900F90CF
:100DE000DF91CF911F910F910895EF92FF920F9392
:100DF0001F93CF93DF9300D0CDB7DEB7FC01928570
:100E000091509230B8F08F01F280FF2011F18F2DB8
:100E10000E94C404882381F08F2D0E94A504825073
:100E20008230B8F4D8018D919C910E94D1058BEC51
:100E300092E009C081E08DC0F801808191810E941B
:100E4000D1058FEB92E00E94E7050E94CB0583E677
:100E500080C08F2D0E94AD0421E04E9708F020E065
:100E6000F8012387C8010E94BF06F82ED801169604
:100E70001C9216971396EC91E23088F4FF2041F013
:100E800021E0F2120CC0F0E0E25FFE4F61E004C02E
:100E9000F0E0E25FFE4F60E080810E94410DD801EA
:100EA0008D919C910E94D10585EB92E00E94E7050F
:100EB000F8018481F81619F08BEA92E002C083EA07
:100EC00092E00E94E7050E94CB05D8011296EC90B3
:100ED000B0E8EB9EC0011124FC01E95FFE4F7F01E9
:100EE000BE016F5F7F4FCF010E945F0189819A81B0
:100EF00001969A838983BE016F5F7F4FC7010E946D
:100F0000430462E0D80112968C910E949D046AE02D
:100F100070E080E090E00E94AD0D61E0F801828118
:100F20000E94880264E670E080E090E00E94AD0DCF
:100F300061E0D80112968C910E949D046AE070E0F5
:100F400080E090E00E94AD0D61E0C8010E942106A2
:100F500080E00F900F90DF91CF911F910F91FF9044
:100F6000EF9008950E94D90480E008958091A00335
:100F700083FF04C088ED92E00E9482178091A00355
:100F800082FF04C08DED92E00E9482178091A00341
:100F900081FF04C082EE92E00E9482178091A0033C
:100FA00080FF04C088EE92E00E94821780E00895DE
:100FB000CF93DF938230B9F4FB01C281D3816DEE10
:100FC00072E0CE010E941921892B21F481E08093E7
:100FD0000D0109C060EF72E0CE010E941921892B3A
:100FE00011F410920D0180E0DF91CF9108950F93DD
:100FF0001F93CF93DF938430A1F58B01FB01828196
:1010000093810E942221C82F853058F569E972E04A
:10101000F801868197810E941921D1E0892B09F07E
:10102000D0E0F8010481158164EF72E0C8010E94EC
:101030001921892B41F48FE1C89FF0011124E95552
:10104000FC4FD0870EC062E472E0C8010E941921F3
:10105000892B39F08FE1C89FF0011124E955FC4F2D
:10106000D18780E0DF91CF911F910F9108950F9369
:101070001F93CF93DF938B01823099F4FB01828120
:1010800093810E942221853058F50E94C404682F64
:1010900070E080E090E04AE00E944D160E94DD146E
:1010A0001FC08330E9F4FB01828193810E942221D9
:1010B000EC018530A8F467EC71E0F801848195813A
:1010C0000E94192161E0892B09F060E0CE01992787
:1010D00002969695982F8827979587950E9450217C
:1010E00080E0DF91CF911F910F9108950F931F938F
:1010F0000E94AA0500919C0310919D0320919E03DC
:1011000030919F03601B710B820B930B4AE00E948E
:101110004D160E94DD1480E01F910F9108950F93EA
:101120001F93CF93DF939EEF980F923008F04EC03D
:101130008B01D82FFB01828193810E942221C82F2D
:10114000853008F045C0D33061F5F8010481158180
:101150006BEF72E0C8010E941921892B61F42FE125
:10116000C29FF0011124E955FC4F81E0868317826C
:1011700087EF92E027C062E073E0C8010E94192166
:10118000892B61F48FE1C89FF0011124E955FC4FD0
:1011900081E0868387838EEF92E014C087E093E03E
:1011A00011C0EFE18E9FC001112489559C4F0E9410
:1011B000BF06811103C08BEF92E004C0813071F74C
:1011C00082E093E00E94821780E003C082E001C0C9
:1011D00083E0DF91CF911F910F91089585E193E016
:1011E0000E94BA140E94851542E00E94AD160E942A
:1011F000DD1482E293E00E94BA140E94E41442E0FB
:101200000E94AD160E94DD1480E00895CF93C0E0E7
:101210008C2F0E94BE02BC0180E090E04AE00E9458
:101220004D160E94DD14CF5FC53091F780E0CF915D
:101230000895CF93C0E08C2F0E94AD04BC0180E0E4
:1012400090E04AE00E944D160E94DD14CF5FC53049
:1012500091F780E0CF9108950F931F93CF93DF9381
:10126000C7EAD3E00E94E70D0B8D1C8D2D8D3E8DBE
:10127000601B710B820B930B4AE00E944D160E947B
:10128000DD146F9684E0C234D80761F780E0DF9107
:10129000CF911F910F9108951F93CF93DF9380E615
:1012A0000E940A02BC0180E090E04AE00E944D16D4
:1012B000CAE1D1E01C2F1B5F80E20E94D214899109
:1012C0000E940A02BC0180E090E04AE00E944D16B4
:1012D0001C13F2CF0E94DD1480E0DF91CF911F91AB
:1012E00008952F923F924F925F926F927F928F92CA
:1012F0009F92AF92BF92CF92DF92EF92FF920F93A5
:101300001F93CF93DF93CDB7DEB729970FB6F8942D
:10131000DEBF0FBECDBF8B01813009F460C08730C6
:1013200009F09AC1FB01828193810E942221825B94
:101330008F83F801848195810E9422218E83F80198
:10134000868197810E9422218D83F8018085918575
:101350000E9422218B83F801828593850E9422219D
:101360008A83F801848595850E9422218983CE0194
:1013700001960E9483032CE3C22ED12CE12CF12C88
:10138000A70196010E947A1E662E6887CA01B901DC
:10139000A70196010E947A1E762E562ECA01B90127
:1013A00028E130E040E050E00E947A1E69017A01B5
:1013B000062F462ECA01B9016C5F7F4F8F4F9F4F9A
:1013C00027E030E040E050E00E947A1E6F5F6987BE
:1013D000812C912C540110E0E0E9F1E05DC0CE01D8
:1013E00001960E945B056F8170E06E54784F072E66
:1013F000000C880B990B4AE00E944D1680E20E9477
:10140000D2146E8170E080E090E04AE00E944D16B8
:1014100080E20E94D2146D8170E080E090E04AE0AA
:101420000E944D1680E20E94D2146B8170E080E031
:1014300090E04AE00E944D1680E20E94D2146A8138
:1014400070E080E090E04AE00E944D1680E20E9449
:10145000D214698170E080E090E04AE00E944D166D
:101460000E94DD14F7C0C90164E670E00E94661EA8
:10147000892BF1F08EE691E0A0E0B0E0880E991E95
:10148000AA1EBB1ED501C401AA27BB27C816D906B0
:10149000EA06FB06C0F01F5F212F30E02E54384FC4
:1014A000190183E0282233242114310439F4DBCFDD
:1014B000C901BF010E94661E892BE1F28DE691E011
:1014C000A0E0B0E0DBCF2114310499F4C90164E657
:1014D00070E00E94661E892B39F4C90160E971E051
:1014E0000E94661E892B29F48EE691E0A0E0B0E010
:1014F00004C08DE691E0A0E0B0E0881A990AAA0A3B
:10150000BB0AC818D908EA08FB08C90164E670E0FC
:101510000E94661EFC01C90160E971E00E94661E1E
:10152000AAE2B1E020E0213041F42114310449F471
:10153000309729F4009729F402C04C9103C04DE183
:1015400001C04CE150E060E070E0C416D506E6064C
:10155000F70640F0C41AD50AE60AF70A2F5F11967B
:101560002C3009F7BB24B394B20EC3948FE60E94CB
:10157000601460E086EB95E00E94A70C60E086EBCB
:1015800095E00E94A70C8AE0F82E852D6F2D0E9411
:101590005A1E282F220F280F220F622F670D86EB6D
:1015A00095E00E94A70C842D6F2D0E945A1E282FB3
:1015B000220F280F220F622F600F86EB95E00E940A
:1015C000A70C8985886090E00E94B5148C2D6F2D42
:1015D0000E945A1E982F990F980F990F692F6C0D22
:1015E00086EB95E00E94A70C8B2D6F2D0E945A1E52
:1015F000682F660F860F682F660F6B0D86EB95E0E0
:101600000E94A70C1E51812F6F2D0E945A1E682F19
:10161000660F860F880F682F610F86EB95E00E949A
:10162000A70C0E94E1148FE60E94601460E086EB34
:1016300095E00E94A70C88856F2D0E945A1E982F56
:10164000990F890F880F860D806890E00E94B5146D
:101650000E94E11480E001C082E029960FB6F89460
:10166000DEBF0FBECDBFDF91CF911F910F91FF90D5
:10167000EF90DF90CF90BF90AF909F908F907F9032
:101680006F905F904F903F902F90089590910D0133
:10169000992339F0682F70E080E090E04AE00C94E4
:1016A0004D160895CF92DF92EF92FF920F931F9302
:1016B000CF93DF936C01E62E8A01F12CF4E0FF9EBC
:1016C000E0011124CA5CDE4F88819981009769F09E
:1016D000F801608171810E941921892B21F40A800F
:1016E000DB81C02D04C0F394E9CFC0E0D0E08CE2F0
:1016F00093E00E94BA14C6010E94BA1480E20E94CC
:10170000D214F801808191810E948217209729F0DC
:10171000B8018E2DFE01099504C086E393E00E9476
:10172000821788E493E0DF91CF911F910F91FF9092
:10173000EF90DF90CF900C948217FC018485958503
:1017400097FD0BC09FB7F89482E08093E9008091E9
:10175000F2009FBF90E0019608959FB7F89482E051
:101760008093E9008091F2009FBF90E0089590E09F
:10177000FC013197EF30F105B0F5EA5AFF4F0C94B8
:101780009C1E809180008F7703C0809180008F7DA8
:1017900080938000089580918000877FF9CF84B581
:1017A0008F7702C084B58F7D84BD089580919000AD
:1017B0008F7707C0809190008F7D03C0809190004B
:1017C000877F8093900008958091C0008F7703C039
:1017D0008091C0008F7D8093C00008958091C200E9
:1017E000877F8093C20008953FB7F8948091EC04FE
:1017F0009091ED04A091EE04B091EF0426B5A89B62
:1018000005C02F3F19F00196A11DB11D3FBFBA2F92
:10181000A92F982F8827820F911DA11DB11DBC01F2
:10182000CD0142E0660F771F881F991F4A95D1F7B7
:10183000089585ED8093BC008091BC0084FDFCCFB1
:1018400010923F0508954091C204262F30E0240FE6
:10185000311D21323105DCF420913F052430C9F4DB
:10186000FC0180E090E0861758F43091C204219189
:10187000DC01A056BB4FA30FB11D2C930196F3CFF3
:101880008091C204680F6093C20480E0089581E0F3
:10189000089582E008950895E091B5058091B4051A
:1018A000E81730F4F0E0E750FB4F808190E00895B6
:1018B0008FEF9FEF08959091B5058091B40598172B
:1018C00050F4E92FF0E0E750FB4F208130E09F5FBC
:1018D0009093B50502C02FEF3FEFC90108958091A5
:1018E000B40590E02091B505821B91090895CF922F
:1018F000DF92EF92FF920F931F93CF93DF937C01C0
:10190000262F972F8A0180914005882391F0C62FBA
:10191000D72F6E01C40ED51ECC15DD0571F069916F
:10192000D701ED91FC910190F081E02DC70109955F
:10193000F3CF642F822F0E94230CC801DF91CF9137
:101940001F910F91FF90EF90DF90CF900895CF936C
:10195000DF931F92CDB7DEB7698320914005222324
:10196000D1F02091B205203240F021E030E0FC01BE
:101970003383228380E090E015C08091B305E82F87
:10198000F0E0EF5BFA4F998190838F5F8093B3050E
:101990008093B20505C061E0CE0101960E94230C40
:1019A00081E090E00F90DF91CF910895CF93DF9386
:1019B0001F92CDB7DEB7FC018485958597FD05C0E4
:1019C0002FEF3FEF358724870BC0CE0101960E9491
:1019D0009617019719F4898190E002C08FEF9FEF6D
:1019E0000F90DF91CF9108950F931F93CF93DF93C3
:1019F0001F92CDB7DEB78C01FC018485958597FFDA
:101A00000EC0CE0101960E949617019719F4298104
:101A100030E002C02FEF3FEFF80135872487F8014F
:101A2000848595850F90DF91CF911F910F91089537
:101A3000CF93DF93282F30E0F901E25CFE4F8491D1
:101A4000F901E15EFE4FD491F901E050FF4FC491DE
:101A5000CC2391F081110E94B70BEC2FF0E0EE0F38
:101A6000FF1FEE50FF4FA591B491EC91ED2381E063
:101A700090E021F480E002C080E090E0DF91CF911F
:101A800008951F93CF93DF93282F30E0F901E25C94
:101A9000FE4F8491F901E15EFE4FD491F901E050CF
:101AA000FF4FC491CC23C9F0162F81110E94B70BB0
:101AB000EC2FF0E0EE0FFF1FEC51FF4FA591B4911A
:101AC0008FB7F894111105C09C91ED2FE095E92393
:101AD00002C0EC91ED2BEC938FBFDF91CF911F9162
:101AE0000895CF93DF9390E0FC01E15EFE4F2491D7
:101AF000FC01E050FF4F8491882361F190E0880F52
:101B0000991FFC01EA52FF4FC591D491FC01EC51A1
:101B1000FF4FA591B491611109C09FB7F8948881D6
:101B2000209582238883EC912E230BC0623061F4D0
:101B30009FB7F8943881822F809583238883EC9116
:101B40002E2B2C939FBF06C08FB7F894E8812E2BC5
:101B500028838FBFDF91CF9108958F929F92AF928C
:101B6000BF92CF92DF92EF92FF926B017C010E94B5
:101B7000F40B4B015C01C114D104E104F104F1F058
:101B80000E94F40BDC01CB0188199909AA09BB0951
:101B9000883E9340A105B10570F321E0C21AD10837
:101BA000E108F10888EE880E83E0981EA11CB11CA4
:101BB000C114D104E104F10419F7DDCFFF90EF90D7
:101BC000DF90CF90BF90AF909F908F9008952FB7E8
:101BD000F8946091E8047091E9048091EA0490918E
:101BE000EB042FBF08951F920F920FB60F9211248E
:101BF0002F933F938F939F93AF93BF938091E8046C
:101C00009091E904A091EA04B091EB043091E704CB
:101C100023E0230F2D3720F40196A11DB11D05C02F
:101C200026E8230F0296A11DB11D2093E70480939F
:101C3000E8049093E904A093EA04B093EB04809144
:101C4000EC049091ED04A091EE04B091EF040196A4
:101C5000A11DB11D8093EC049093ED04A093EE04BC
:101C6000B093EF04BF91AF919F918F913F912F91CE
:101C70000F900FBE0F901F9018951F920F920FB6E6
:101C80000F9211242F933F934F935F936F937F9302
:101C90008F939F93AF93BF93EF93FF938091B9007E
:101CA000887F803609F49CC068F5883209F45BC0EF
:101CB00090F4803109F454C038F4882309F4F6C054
:101CC000883009F44DC0F6C0883109F44CC0803228
:101CD00009F45DC0EFC0803409F468C048F4803373
:101CE00009F455C0883309F0E5C080933D05D8C09C
:101CF000803509F44FC0883509F45DC0883409F097
:101D0000D9C0D6C0883909F4C7C0A8F4883709F407
:101D100067C038F4883609F463C0803709F460C0BE
:101D2000C9C0883809F4B8C0803909F45FC0803868
:101D300009F0C0C05BC0803B09F486C038F4803A2B
:101D400009F466C0883A09F47FC0B4C0803C09F445
:101D5000A7C0883C09F4A4C0883B09F48AC0AAC083
:101D600080911A0510C090913C0580913B05981711
:101D700070F5E0913C0581E08E0F80933C05F0E02A
:101D8000E55EFA4F80818093BB0085EC86C080932E
:101D90003D058EC0E0913C0581E08E0F80933C05AF
:101DA0008091BB00F0E0E55EFA4F808390913C05A6
:101DB00080913B056EC0E0913C0581E08E0F8093E1
:101DC0003C058091BB00F0E0E55EFA4F8083809196
:101DD0003E0581116DC081E08093190584EA61C0E0
:101DE00083E080933F051092E604CFCF8091E60414
:101DF000803208F051C0E091E60481E08E0F8093BC
:101E0000E6048091BB00F0E0EA53FB4F8083BDCF36
:101E100085EC8093BC0010923F058091E6048032EF
:101E200030F4E091E604F0E0EA53FB4F1082609159
:101E3000E60470E0E091C404F091C50486EC94E0FF
:101E400009951092E60436C084E080933F05109215
:101E5000C3041092C204E091C004F091C10409953A
:101E60008091C204811105C081E08093C204109268
:101E7000A004E091C30481E08E0F8093C304F0E0DE
:101E8000E056FB4F80818093BB009091C30480910A
:101E9000C204981708F479CF85E88093BC000AC083
:101EA00085EC8093BC0010923F0504C010923D0564
:101EB0000E94190CFF91EF91BF91AF919F918F916B
:101EC0007F916F915F914F913F912F910F900FBE36
:101ED0000F901F90189510923F0581E080933E056A
:101EE0001092190561E082E00E94410D61E083E0FB
:101EF0000E94410DE9EBF0E080818E7F808380813C
:101F00008D7F808388E48093B80085E48093BC0053
:101F1000089520910D01222319F042E00C94AD1692
:101F2000089520910D01222331F0BC0180E090E062
:101F30004AE00C944D160895BC0180910D01882350
:101F400039F0072E000C880B990B40E10C944D16CC
:101F500008954091F3045091F4042091F1043091DC
:101F6000F20442175307B4F49091E8009570E1F33E
:101F70009091E80092FD19C08093F1008091F304E4
:101F80009091F40401968F739927892B19F48EEFA1
:101F90008093E8008091F3049091F404019690936B
:101FA000F4048093F30481E0089580E00895CF92D3
:101FB000DF92EF92FF920F931F93CF93DF931F92C5
:101FC000CDB7DEB7182F062FE42E862F880F8E5F31
:101FD00099830E94A90F83E00E94A90FF12EC12EC0
:101FE0009981D92E8C2D8F19801798F4F601E7FE70
:101FF00002C0849101C080810E94A90F182F80E047
:102000000E94A90F8123FFEFCF1ADF0A8111EACFC7
:1020100001C081E00F90DF91CF911F910F91FF9050
:10202000EF90DF90CF900895DF92EF92FF920F93A1
:102030001F93CF93DF93D82E8A017B01E40EF51E08
:10204000EB01CE15DF0571F0D7FE03C0FE018491D0
:1020500001C088810E94A90F21968111F2CF8FEFD4
:102060009FEF01C0C801DF91CF911F910F91FF90A9
:10207000EF90DF900895615030F02091F100FC0165
:1020800020830196F8CF289A84E68093F604089579
:10209000CF92DF92EF92FF920F931F93CF93DF9334
:1020A0006C017A018B01C0E0D0E0CE15DF0589F02C
:1020B000D8016D918D01D601ED91FC910190F081D7
:1020C000E02DC6010995892B11F47E0102C02196ED
:1020D000ECCFC701DF91CF911F910F91FF90EF904F
:1020E000DF90CF900895CF93DF931F92CDB7DEB7E7
:1020F0006983DC01ED91FC910280F381E02D41E0E8
:1021000050E0BE016F5F7F4F09950F90DF91CF9137
:10211000089583E08093E9008091F200882319F00C
:102120008AE38093E80008950E9414210F931F937F
:10213000CF93DF931F92CDB7DEB782E0898342E46D
:1021400050E06DE571E080E80E9414100E94C01715
:10215000DC0112960D911C9113970115110569F080
:10216000D801ED91FC910280F381E02DBE016F5FFB
:102170007F4FC801099597FF07C089810F90DF91B4
:10218000CF911F910F910895F80100851185E5CF3A
:102190008F929F92AF92BF92CF92DF92EF92FF9277
:1021A0000F931F93CF93DF935C016B018A018091A2
:1021B0000C01882309F45EC08091F704882309F498
:1021C00059C08091990380FF05C08091E000826032
:1021D0008093E000E8018AEFF82E93E0E92E2FE3E8
:1021E000822E3AE3932E209709F43DC08FB7F894DE
:1021F000E092E9009091E80095FF06C09091F2000E
:10220000282D291B922F01C090E08FBF91110AC089
:10221000FA94FF2079F161E070E080E090E00E94A4
:10222000AD0DE1CF292F30E0C217D3070CF49C2F5E
:102230008FB7F894E092E9002091E80025FF11C0E3
:10224000292F30E0C21BD30BF601915020F04191B1
:102250004093F100FACFC20ED31E9091E80095FF93
:1022600013C08FBFC0CF5D9A84E68093F50410162B
:10227000110644F081E090E0F5019383828380E0D1
:1022800090E005C0C80103C09092E800EACFDF915A
:10229000CF911F910F91FF90EF90DF90CF90BF9063
:1022A000AF909F908F9008951F920F920FB60F924C
:1022B00011248F939F938091E1009091E100937F8F
:1022C0009093E10083FF0FC01092E90091E090939A
:1022D000EB001092EC0092E39093ED001092F70463
:1022E00098E09093F00082FF20C093E09093E90083
:1022F0009091F200992319F09AE39093E80090915D
:10230000F504992339F09091F50491509093F504D8
:10231000992389F19091F604992339F09091F6046C
:1023200091509093F604992341F184FF10C080915D
:10233000E2008E7E81608093E2008091E1008F7EDA
:102340008093E100809199038E7E806111C080FFAF
:1023500016C08091E2008E7E80618093E2008091C1
:10236000E1008E7E8093E100809199038E7E8160F2
:102370008093990304C05D98CDCF2898D6CF9F91C4
:102380008F910F900FBE0F901F9018951F920F9274
:102390000FB60F921124CF92DF92EF92FF920F931C
:1023A0001F932F933F934F935F936F937F938F93DD
:1023B0009F93AF93BF93EF93FF93CF93DF93CDB7EB
:1023C000DEB76C97DEBFCDBF1092E9008091E800C8
:1023D00083FFFAC168E0CE0145960E943B1082EF70
:1023E0008093E8008D8987FF05C09091E80090FFF9
:1023F000FCCF03C09EEF9093E800982F907609F0F1
:10240000C6C09E892F89188D91110CC0803829F47F
:1024100080919A038093F10002C01092F100109213
:10242000F10047C1422F50E0512B913051F48111FE
:1024300040C14130510509F03CC180919A038D7F24
:102440000BC0933061F4811134C14130510509F062
:1024500030C180919A03826080939A032AC195309B
:1024600041F48091E80080FFFCCF20682093E300D6
:1024700020C1963009F05FC0EB8CFC8C1092E90013
:102480001092F4041092F304123091F51092F204B9
:102490001092F1040E94961099E0BE016F5F7F4F89
:1024A000DB01E92F1D92EA95E9F799831A8391E000
:1024B0009E8390EA98879AEF99872091F304309150
:1024C000F404275F3F4F3C832B838D831092E900F8
:1024D0001092F4041092F304F092F204E092F104EA
:1024E00049E050E080E00E9414100E949610E1C084
:1024F000F092F204E092F1040E94C017DC011296FF
:10250000ED90FC901397E114F10409F4C0C0D701D9
:10251000ED91FC910480F581E02DBE016B5E7F4F53
:10252000C7010995009719F00CF0C3C0C6C0F701A8
:10253000E084F184E8CF973009F4BFC0983021F4EB
:1025400081E08093F100B5C0993009F0B2C083708A
:1025500009F0B3C0EBE8F1E081E021E036E39081DF
:10256000992361F08093E9002093EB00919190937F
:10257000EC003093ED008F5F873089F78EE7809312
:10258000EA001092EA008F898093F70492C08B8D45
:102590009C8D1092E9001092F4041092F304909331
:1025A000F2048093F104898D811156C08E899D8932
:1025B000913A59F4813209F080C047E050E065E07B
:1025C00071E080E00E94141074C0913209F075C06F
:1025D000833289F4888D90E0982F88272F89822B69
:1025E000A0E0B0E08093010190930201A093030169
:1025F000B09304015EC0803269F48091E80082FFEC
:10260000FCCF67E085E091E00E943B108BEF809368
:10261000E80006C0823209F04CC08F8980930C011B
:1026200080919803882319F0EEEFFAE002C0E0E011
:10263000F8E08091050190910601A0910701B09109
:102640000801803B9440A105B10509F088C0809144
:102650000C0180FFA0C083C00E94C017DC0112964D
:102660000D911C9113970115110539F1D801ED91C8
:10267000FC910190F081E02DBE016B5E7F4FC8019F
:102680000995811116C0F80100851185ECCF113034
:10269000C1F0133091F48F89882309F455C082303A
:1026A000E9F440E86DE08FEA91E00E94D70F8823BB
:1026B00021F08EEF8093E80087C081E28093EB00E9
:1026C00083C08B8D9C8D089711F41093F00480913A
:1026D000F004811136C06DEB71E038C0813029F40F
:1026E00040E86BE083EA91E0E0CF833031F70E946D
:1026F000C017DC011296ED90FC9013978E010F5FCE
:102700001F4F6801E114F10479F0D701ED91FC91BC
:102710000680F781E02DB801C7010995080F111D4A
:10272000F701E084F184EECFD8011C92F60101900C
:102730000020E9F73197BF016C197D0940E0C6011F
:10274000B4CF6FEC71E002C06FE971E06115710503
:1027500009F4B3CFFB01449150E080E833CF0FB6CA
:10276000F894A89580916000886180936000109231
:1027700060000FBEA895EE3F2AE0F20739F0809185
:10278000FE0A9091FF0A9183808393CF1092FF0AF3
:102790001092FE0A8ECFEE3F8AE0F80731F080817A
:1027A00091819093FF0A8093FE0A87E797E79183D0
:1027B00080839BE088E10FB6F894A8958093600031
:1027C0000FBE9093600075CF6C960FB6F894DEBF85
:1027D0000FBECDBFDF91CF91FF91EF91BF91AF9130
:1027E0009F918F917F916F915F914F913F912F9129
:1027F0001F910F91FF90EF90DF90CF900F900FBE41
:102800000F901F901895382F2091B2059091CE050A
:10281000213208F049C080913F058111FCCF42E090
:1028200040933F0530933E053FEF30933D051092B6
:102830003C0520933B05A1E4B5E04BE155E0FA01EE
:102840003E2F341B321718F43D913193F9CF10927B
:102850001A0520911A05990F922B90931A059091C1
:102860001905913061F41092190590911A05909311
:10287000BB009091BC0093FDF8CF95EC01C095EEA4
:102880009093BC0090913F059230E1F390913D050B
:102890009F3F79F080913D05803241F080913D0568
:1028A000803331F084E005C081E003C082E001C0E4
:1028B00083E01092B3051092B2051092400508957E
:1028C00091E0909340058093CE051092B30510924D
:1028D000B205089590913F059111FCCF613208F047
:1028E00060E291E090933F0590933E052FEF209397
:1028F0003D0510923C05260F20933B0590931A0549
:1029000090911A05880F892B80931A0580911905DB
:10291000813061F41092190580911A058093BB00F3
:102920008091BC0083FDF8CF85EC01C085EE8093DB
:10293000BC0080913F058130E1F380913C05861712
:1029400010F460913C05ABE1B5E029EF34E0F9010A
:102950008E2F821B861718F48D918193F9CF1092D8
:10296000B5056093B405862F0895682F86EB95E032
:102970000C94A70CBC01009791F0FC010190002081
:10298000E9F73197AF01481B590BE0916105F091D0
:1029900062050280F381E02D81E695E0099480E0F4
:1029A00090E00895E0916105F09162050190F08159
:1029B000E02D682F81E695E0099486E893E00C9479
:1029C000BA1481E00C9403148F929F92AF92BF923D
:1029D000CF92DF92EF92FF920F931F9380E40E94B9
:1029E000601485EF90E00E94B5140E94E11467E343
:1029F00070E080E090E00E94AD0D63E070E080E464
:102A000090E00E946A1410E08091B40590E020915B
:102A1000B505821B910903970CF45EC086EB95E027
:102A20000E945B0C082F86EB95E00E945B0C182F30
:102A300086EB95E00E945B0CF02EE12CB701612B38
:102A40008B0120E030E0322F212F102F002768016A
:102A50007901C82AD701C60127E130E0C12C40E83E
:102A6000D42E48E9E42EF12C4C015D01022E04C065
:102A7000B694A794979487940A94D2F780FE04C0E2
:102A80008C259D25AE25BF25F694E794D794C79451
:102A9000215031092730310539F7811118C06C7F79
:102AA00080E090E00E94EB1F20E030E040E857E338
:102AB0000E94A22020E030E04AEF52E40E94A220CF
:102AC00020E030E040EC50E40E94D81E13C060E0EB
:102AD00070EC89E794E40EC065E070E080E090E07F
:102AE0000E94AD0D1F5F143609F08ECF60E070E8D4
:102AF00089E794E41F910F91FF90EF90DF90CF90C2
:102B0000BF90AF909F908F9008958F929F92AF92B9
:102B1000BF92CF92DF92EF92FF920F931F93CF93CA
:102B2000DF9380E40E94601483EF90E00E94B5146C
:102B30000E94E11467E370E080E090E00E94AD0D38
:102B400063E070E080E490E00E946A14C5E6D0E0A3
:102B50008091B40590E02091B505821B91090397FF
:102B60006CF461E070E080E090E00E94AD0D219790
:102B700079F760E070E889E794E45EC086EB95E061
:102B80000E945B0CD82F86EB95E00E945B0CC82F4F
:102B900086EB95E00E945B0CFD2EE12C97012C2B1F
:102BA000A90160E070E0762F652F542F44277A0149
:102BB0008B01E82AD801C70147E150E0C12CF0E8B9
:102BC000DF2EF8E9EF2EF12C4C015D01042E04C03C
:102BD000B694A794979487940A94D2F780FE04C081
:102BE0008C259D25AE25BF25F694E794D794C794F0
:102BF000415051094730510539F7811119C0B901C8
:102C00006C7F80E090E00E94EB1F20E030E040E825
:102C100057E30E94A22022E538EB4FE253E40E94E2
:102C2000A22026E636E64BE352E40E94D81E04C0FA
:102C300060E070EC89E794E4DF91CF911F910F91F0
:102C4000FF90EF90DF90CF90BF90AF909F908F90CC
:102C500008950F931F93CF93DF938C0187E50E9414
:102C6000601480EF90E00E94B5140E94E11468E0C7
:102C700070E087E590E00E946A14E801085F1F4F4A
:102C800086EB95E00E945B0C8993C017D107C1F7D2
:102C9000DF91CF911F910F9108958F929F92AF92E4
:102CA000BF920F931F93CF93DF93CDB7DEB7A1975A
:102CB0000FB6F894DEBF0FBECDBF19A2423008F4A4
:102CC0004AE08E010F5D1F4F842E912CA12CB12C58
:102CD000A50194010E947A1EE62FB901CA01015094
:102CE0001109EA3014F4E05D01C0E95CD801EC930D
:102CF000232B242B252B61F7C8010E94BA14A1961F
:102D00000FB6F894DEBF0FBECDBFDF91CF911F91FC
:102D10000F91BF90AF909F908F900895CF92DF92C8
:102D2000EF92FF92CF93DF936B017C018DE20E94C3
:102D3000D214EC0166277727CB016C197D098E0927
:102D40009F094AE00E944D168C0F9D1FDF91CF9185
:102D5000FF90EF90DF90CF9008954F925F926F9227
:102D60007F928F929F92AF92BF92CF92DF92EF921B
:102D7000FF926B017C01B42E9B01AC010E940F21DC
:102D8000882319F089E893E027C026013701E894E9
:102D900077F82FEF3FEF4FE75FE7C301B2010E94E3
:102DA0000F2181110DC02FEF3FEF4FE75FE7C30108
:102DB000B2010E94451F18161CF48DE893E00CC068
:102DC0002FEF3FEF4FE75FE4C701B6010E949D2060
:102DD000181684F481E993E0FF90EF90DF90CF9094
:102DE000BF90AF909F908F907F906F905F904F902B
:102DF0000C94BA142FEF3FEF4FE75FECC701B60119
:102E00000E94451F87FDE6CF20E030E0A901C70101
:102E1000B6010E94451F87FF09C08DE20E94D214AF
:102E20004C01F7FAF094F7F8F09402C0812C912C41
:102E3000A12C60E070E080E09FE3AB1441F020E063
:102E400030E040E251E40E944A1FA394F6CF9B0178
:102E5000AC01C701B6010E94D91E2B013C010E94A2
:102E6000BC1F6B017C010E94EB1F9B01AC01C301E5
:102E7000B2010E94D81E2B013C014AE0C701B601F5
:102E80000E944D167C01E80CF91CBB2031F085E94D
:102E900093E00E94BA14E80EF91EDB2CDD2021F12C
:102EA00020E030E040E251E4C301B2010E94A220E0
:102EB0002B013C010E94BC1F4B01A12CB12C4AE00C
:102EC000C501B4010E944D16E80EF91EC501B401FA
:102ED0000E94EB1F9B01AC01C301B2010E94D81EEE
:102EE0002B013C01DA94DACFC701FF90EF90DF901D
:102EF000CF90BF90AF909F908F907F906F905F909A
:102F00004F900895CF93DF930E94BA14EC010E9472
:102F1000DD148C0F9D1FDF91CF91089580910D01DD
:102F2000882319F080E20C94D2140895FC0180915A
:102F3000F704811103C08FEF9FEF08959FB7F894B6
:102F400082E08093E9002091F20030E0121613062F
:102F500014F421E030E02115310559F0289A84E677
:102F60008093F6048091F10080838091F2008823A1
:102F700019F09FBFC90108958BE68093E800F9CF4F
:102F80008091C60581110DC082E08093C20584E066
:102F90008093C3051092C5051092C40581E080930B
:102FA000C60582EC95E00895CF93DF93CDB7DEB7E9
:102FB0006A970FB6F894DEBF0FBECDBF789484B584
:102FC000826084BD84B5816084BD85B5826085BD25
:102FD00085B5816085BD80916E00816080936E00B3
:102FE00010928100809181008260809381008091A5
:102FF0008100816080938100809180008160809356
:103000008000809191008260809391008091910076
:103010008160809391008091900081608093900006
:103020008091C10084608093C1008091C100826062
:103030008093C1008091C10081608093C100809124
:10304000C30081608093C3008091C0008260809340
:10305000C0008091C20081608093C20080917A009C
:10306000846080937A0080917A00826080937A00F5
:1030700080917A00816080937A0080917A008068E4
:1030800080937A001092F70410929A031092990399
:103090008091D70081608093D70080EA8093D80028
:1030A00089B5806189BD89B5826089BD09B400FE9A
:1030B000FDCF61E070E080E090E00E94AD0D809176
:1030C000D8008F7C80618093D8008091E000807F61
:1030D0008093E0008091E1008E7E8093E1008DE09E
:1030E0008093E200559A209A5D982898EEEFFFE7CA
:1030F000859194918B3F9C4D19F481E080939803C6
:1031000084B78093A00314BE99E288E10FB6F894C7
:10311000A895809360000FBE90936000A89561E031
:103120008DE00E94710D61E089E00E94710DE5E182
:10313000CE2EE1E0DE2EF0E1EF2EF1E0FF2E00E0FA
:1031400010E061E0D6018D916D010E94710D60E08B
:10315000F70181917F010E94710DF801EF55FC4F3D
:1031600010820F5F1F4F0530110559F761E081E0B4
:103170000E94710D61E085E10E94710D61E080E0C7
:103180000E94710D1092B5051092B4051092B3050E
:103190001092B2050E946B0F68EC70E080E090E046
:1031A0000E94AD0D8EE680939B0368EC70E080E09A
:1031B00090E00E94AD0D68EC70E080E090E00E942D
:1031C000AD0DF894109280001092810081E0809300
:1031D0006F0083E0809381007894A8958091A0038C
:1031E000857019F4A89518E00FC010E060E0812FF9
:1031F0000E94880264E670E080E090E00E94AD0DDD
:103200001F5F153099F7EECF61E080E00E94030266
:1032100064E670E080E090E00E94AD0D61E081E046
:103220000E94030264E670E080E090E00E94AD0D31
:1032300060E080E00E94030264E670E080E090E0DD
:103240000E94AD0D60E081E00E94030264E670E040
:1032500080E090E00E94AD0D1150B1F6A8958FEF7F
:103260009FEF90936E0580936D0560ED77E080E0B1
:1032700090E00E94AD0D88EB91E00E94D10581EBBA
:1032800091E00E94E7050E94CB05A8950E94D90411
:103290008DEB91E09093A8038093A7031092A9036C
:1032A0001092AA031092AB0381E08093AC03809349
:1032B000AF038093B00320EC31E03093C703209339
:1032C000C6038093C8038093C9031092CA038093F6
:1032D000CB038093CE038093CF0323EC31E0309374
:1032E000E6032093E50392E09093E7031092E9034D
:1032F0008093EA031092ED031092EE0386EC91E0C6
:10330000909305048093040483E080930604109254
:103310000C0410920D0489EC91E0909324048093A6
:10332000230484E08093250410922B0410922C0433
:103330000E94AA0560939C0370939D0380939E0353
:1033400090939F036CE973E08CE090E00E946A0424
:10335000CE0101967C0108E010E0B82EAF2CC80128
:103360000E944821D7018D937D010F5F1F4F0C30C4
:103370001105A9F789819A81AB81BC810196A11DB4
:10338000B11D89839A83AB83BC836B2D7A2D88E032
:1033900090E00E946A0418E0A89561E080E00E9435
:1033A00003026AEF70E080E090E00E94AD0D61E002
:1033B00081E00E9403026AEF70E080E090E00E94EA
:1033C000AD0D60E081E00E9403026AEF70E080E0F2
:1033D00090E00E94AD0D60E080E00E9403026AEF81
:1033E00070E080E090E00E94AD0D8091A1038430F8
:1033F00038F482E60E940A028937910508F4F7C181
:10340000A8958091A00383FF10C010E0812F0E9437
:10341000A5048250823020F460E0812F0E949D0438
:103420001F5F153099F70E94CB058091A00385702E
:10343000A9F188EB91E00E94D1058091A00380FF63
:1034400004C08CEC91E00E94E7058091A00382FF0C
:1034500004C082ED91E00E94E705E12CFF24F39483
:1034600010E0812F0E94A5048250823078F460E041
:10347000C7010E94502160E0812F0E949D0488EDC9
:1034800091E00E94E705812F0E94460B1F5FB0E884
:10349000EB0EF11C153029F70E94CB058091A0039B
:1034A00081110AC088EB91E00E94D10586EE91E07F
:1034B0000E94E7050E94CB0500E010E062E0F62ED6
:1034C000F801E955FC4F16821782F68660E0CF01BD
:1034D0000E942106015E1F4F0B39110589F71092DA
:1034E00000011092A6031092960482E494E00E94D8
:1034F000ED0587E994E00E94ED058AE191E055E051
:10350000752E780E48E0642E6B0C99E288E10FB6B8
:10351000F894A895809360000FBE90936000A895E2
:1035200010910001153080F482E494E00E94ED05D2
:10353000EFE11E9FC001112489559C4F0E94F506A2
:103540008FEF809300013FC00E94E70D009142047D
:10355000109143042091440430914504DC01CB01D7
:10356000801B910BA20BB30B81339547A105B105CD
:1035700050F182E494E00E94ED0531EBE32E33E05C
:10358000F32E00E010E0D7018C91811114C0F701F7
:103590003897808181110BC02FE1209FC001219FAE
:1035A000900D112489559C4F0E94F5060CC00E9475
:1035B000C4048111F1CF0F5F1F4FBFE1EB0EF11C6F
:1035C0000530110501F789EA882E83E0982E97EAE5
:1035D000C92E93E0D92E25EBE22E23E0F22E8601B0
:1035E000F4015080852D0E94C404882309F4E4C0AE
:1035F000E52DF0E0EF55FC4F8081853080F01082A2
:10360000C8014B960E94ED05D8018D919C910E94B6
:10361000D10581E992E00E94E7050E94CB05D40123
:10362000EC91E53010F022E019C0F0E0E65EFE4FCC
:1036300080810E940A028F3FBFEF9B07D9F0883735
:10364000910588F38C32E1E09E0728F082359340A3
:1036500020F023E003C020E001C021E0D7018C91DD
:10366000281741F0C8010F962A8F0E94ED052A8D78
:10367000F7012083F70134978081813021F120F018
:10368000823009F456C098C0F701359780818823AD
:1036900009F492C0D7018C91823009F48DC00E9448
:1036A000E70DF8012785308941895289DC01CB017A
:1036B000821B930BA40BB50B81319742A105B10579
:1036C00008F099C079C0F701369780818823A9F066
:1036D0000E94E70DD8015B962D913D914D915C9133
:1036E0005E97DC01CB01821B930BA40BB50B813CD5
:1036F000944DA140B10508F08EC0F7013597808147
:10370000882309F459C00E94E70DD8011F962D9116
:103710003D914D915C915297DC01CB01821B930B43
:10372000A40BB50B81319742A105B10508F095C0F6
:1037300043C00E94E70DD80157962D913D914D91C0
:103740005C915A97DC01CB01821B930BA40BB50B48
:1037500081319742A105B10578F0C80147960E94D2
:10376000ED05D8018D919C910E94D10582E292E0F5
:103770000E94E7050E94CB050E94E70DF80123890E
:10378000348945895689DC01CB01821B930BA40B3C
:10379000B50B81369A4EA105B10570F0D8018D9117
:1037A0009C910E94D1058BE292E00E94E7050E9465
:1037B000CB05C8010E944206BFE18B0E911C015E41
:1037C0001F4FEFE1EE0EF11CF4E002341F0709F089
:1037D00007CFA89510E081E695E00E949D0B181692
:1037E00019060CF05DC0103F08F4CBC159C0115050
:1037F00009F0D2CD05CED8018D919C910E94D105C2
:103800008FE592E00E94E7050E94CB0561E0C801C8
:103810000E942106D1CFF801808191810E94D105BB
:1038200080E792E00E94E7050E94CB05D4015C90FE
:10383000852D0E94AD040196998F888FB0E85B9E1C
:10384000C0011124BE01685E7F4F855F9E4F0E94BC
:103850004304C8010E948A0650CFF80180819181FB
:103860000E94D105D7018C91813059F481E192E019
:103870000E94E7050E94CB05C8010F960E94ED0546
:103880009BCF813018F489EE91E0F2CF823019F4A9
:1038900088EF91E0EDCF833069F784E092E0E8CFE4
:1038A0000E94E70D009197041091980420919904CB
:1038B00030919A04DC01CB01801B910BA20BB30B5E
:1038C00081339547A105B10508F4FDC087E994E06F
:1038D0000E94ED05A8958B2D9A2D0E9429168AE34A
:1038E00092E00E94D1050B2D1A2DF80181918F01D4
:1038F0008F7090E00E949C0F80E090E00E949C0FEF
:103900006012F3CF0E94CB0562E370E080E090E0AC
:103910000E94AD0DCE0141960E945B058DE392E0C1
:103920000E94D1056F8980910D01882351F070E0CC
:103930006E54784F072E000C880B990B4AE00E94BA
:103940004D160E948E178E890E94460B0E948E177C
:103950008D890E94460B0E948E178B890E94460B10
:103960000E948E178A890E94460B0E948E178989B1
:103970000E94460B0E94CB0562E370E080E090E07D
:103980000E94AD0D82E492E00E94D10580E60E9483
:103990000A020E94910F0AE111E00E948E17D801DD
:1039A0008D918D010E940A020E94910F7012F5CF35
:1039B0000E94CB0562E370E080E090E00E94AD0DD4
:1039C00085E492E00E94D10510E0812F0E94BE02A2
:1039D0000E94910F0E948E171F5F1530B1F70E9451
:1039E000CB0562E370E080E090E00E94AD0D88E4DA
:1039F00092E00E94D1050E9485150E94890F0E94C5
:103A00008E170E94E4140E94890F0E94CB0562E386
:103A100070E080E090E00E94AD0D8CE492E00E94A6
:103A2000D10510E0812F0E94AD040E94910F0E94E9
:103A30008E171F5F1530B1F70E94CB0562E370E06F
:103A400080E090E00E94AD0D83EC92E00E94D105F1
:103A500010E0812F0E94C40490910D01992339F048
:103A6000682F70E080E090E04AE00E944D160E94CE
:103A70008E171F5F153069F70E94CB0562E370E077
:103A800080E090E00E94AD0D8FE093E00E94D105B0
:103A9000C6010E94BF06811103C082E592E007C003
:103AA000813019F486E592E002C08CE592E00E9434
:103AB000E705BFE1CB0ED11CE2E4CE16E4E0DE0662
:103AC00039F70E94CB058091A603882309F447C0EB
:103AD00099E288E10FB6F894A895809360000FBE34
:103AE00090936000A89515E061E080E00E940302D9
:103AF00061E081E00E94030260E570E080E090E018
:103B00000E94AD0D60E080E00E94030260E081E071
:103B10000E94030260E570E080E090E00E94AD0D3D
:103B2000115011F761E080E00E94030261E081E042
:103B30000E94030268EC70E080E090E00E94AD0D0E
:103B400060E080E00E94030260E081E00E940302E6
:103B500068EC70E080E090E00E94AD0DC4CF8DE095
:103B60000E94180D61E0019709F460E080E00E9476
:103B7000030280E090E0892B09F4C7CC0E9400008A
:103B8000C1CC81E695E00E94D60CA0919604E1E0BC
:103B9000EA0FE0939604B0E0AA5BBB4F8C931F5FE3
:103BA000E03570F01092960481E695E00E949D0B3E
:103BB000181619060CF00FCE103F09F048C00BCEB6
:103BC0008A3009F008CEF0E0EA5BFB4F10821092D9
:103BD0009604A6E4B4E060E0FD018D918032E1F34B
:103BE0008930D1F381528E3598F491E0960FAB2D48
:103BF000BA2DA60FB11DA60FB11DED93FC939F0129
:103C0000F9012F5F3F4F808181528E35C8F3692FB4
:103C10008081882389F0DF01119610826830E0F2FC
:103C200089819A81DC012C91203451F46150AE01DC
:103C30004D5F5F4F019608C0662309F4CCCDF0CFED
:103C40004B2D5A2D88E392E00E94520BC4CD81E6A1
:103C500095E00E94D60C0A9709F4BDCD1F5FA4CF52
:103C6000E1E6F5E01382128288EE93E0A0E0B0E096
:103C700084839583A683B78325E931E0318320834C
:103C80002FEF3FEF35872487E6EBF5E013821282B2
:103C900084839583A683B78385EA91E091838083AB
:103CA0001092B5051092B4051092B3051092B205AA
:103CB0000C946B0F991B79E004C0991F961708F0BC
:103CC000961B881F7A95C9F78095089597FB072E54
:103CD00016F4009407D077FD09D00E94C41E07FC9B
:103CE00005D03EF4909581959F4F0895709561950C
:103CF0007F4F0895A1E21A2EAA1BBB1BFD010DC028
:103D0000AA1FBB1FEE1FFF1FA217B307E407F5078B
:103D100020F0A21BB30BE40BF50B661F771F881F67
:103D2000991F1A9469F760957095809590959B01FD
:103D3000AC01BD01CF010895EE0FFF1F0590F49176
:103D4000E02D0994A29FB001B39FC001A39F700D05
:103D5000811D1124911DB29F700D811D1124911D93
:103D600008950E94A21EA59F900DB49F900DA49F40
:103D7000800D911D11240895B7FF0C94B11E0E946F
:103D8000B11E821B930B0895AA1BBB1B51E107C0F8
:103D9000AA1FBB1FA617B70710F0A61BB70B881FDB
:103DA000991F5A95A9F780959095BC01CD0108956A
:103DB0005058BB27AA270E94F01E0C9463200E9433
:103DC000552038F00E945C2020F039F49F3F19F410
:103DD00026F40C9452200EF4E095E7FB0C944C2052
:103DE000E92F0E94742058F3BA17620773078407FB
:103DF000950720F079F4A6F50C9496200EF4E09542
:103E00000B2EBA2FA02D0B01B90190010C01CA0194
:103E1000A0011124FF27591B99F0593F50F4503E3F
:103E200068F11A16F040A22F232F342F4427585F31
:103E3000F3CF469537952795A795F0405395C9F749
:103E40007EF41F16BA0B620B730B840BBAF0915001
:103E5000A1F0FF0FBB1F661F771F881FC2F70EC0A0
:103E6000BA0F621F731F841F48F487957795679573
:103E7000B795F7959E3F08F0B0CF9395880F08F05F
:103E80009927EE0F9795879508950E94282008F4AA
:103E900081E008950E945E1F0C9463200E945C20C4
:103EA00058F00E94552040F029F45F3F29F00C940F
:103EB0004C2051110C9497200C9452200E94742095
:103EC00068F39923B1F3552391F3951B550BBB2749
:103ED000AA2762177307840738F09F5F5F4F220F8E
:103EE000331F441FAA1FA9F335D00E2E3AF0E0E885
:103EF00032D091505040E695001CCAF72BD0FE2FCF
:103F000029D0660F771F881FBB1F26173707480762
:103F1000AB07B0E809F0BB0B802DBF01FF2793581A
:103F20005F4F3AF09E3F510578F00C944C200C9472
:103F300097205F3FE4F3983ED4F386957795679595
:103F4000B795F7959F5FC9F7880F911D969587954F
:103F500097F90895E1E0660F771F881FBB1F62176E
:103F600073078407BA0720F0621B730B840BBA0B2C
:103F7000EE1F88F7E09508950E947C2088F09F57F7
:103F800098F0B92F9927B751B0F0E1F0660F771F7D
:103F9000881F991F1AF0BA95C9F714C0B13091F073
:103FA0000E949620B1E008950C949620672F782FF8
:103FB0008827B85F39F0B93FCCF386957795679538
:103FC000B395D9F73EF490958095709561957F4FA4
:103FD0008F4F9F4F0895E89409C097FB3EF490954A
:103FE0008095709561957F4F8F4F9F4F9923A9F0D2
:103FF000F92F96E9BB279395F69587957795679561
:10400000B795F111F8CFFAF4BB0F11F460FF1BC0A4
:104010006F5F7F4F8F4F9F4F16C0882311F096E937
:1040200011C0772321F09EE8872F762F05C06623E5
:1040300071F096E8862F70E060E02AF09A95660F9E
:10404000771F881FDAF7880F9695879597F9089557
:10405000990F0008550FAA0BE0E8FEEF1616170699
:10406000E807F907C0F012161306E407F50798F001
:10407000621B730B840B950B39F40A2661F0232B1A
:10408000242B252B21F408950A2609F4A140A69596
:104090008FEF811D811D089597F99F6780E870E07B
:1040A00060E008959FEF80EC089500240A941616AE
:1040B000170618060906089500240A941216130616
:1040C000140605060895092E0394000C11F48823A4
:1040D00052F0BB0F40F4BF2B11F460FF04C06F5FC0
:1040E0007F4F8F4F9F4F089557FD9058440F551F96
:1040F00059F05F3F71F04795880F97FB991F61F06A
:104100009F3F79F087950895121613061406551FE0
:10411000F2CF4695F1DF08C0161617061806991F4C
:10412000F1CF86957105610508940895E894BB2741
:1041300066277727CB0197F908950E94282008F475
:104140008FEF08950E94B5200C9463200E945520A3
:1041500038F00E945C2020F0952311F00C944C2044
:104160000C94522011240C9497200E94742070F318
:10417000959FC1F3950F50E0551F629FF001729F0C
:10418000BB27F00DB11D639FAA27F00DB11DAA1F1B
:10419000649F6627B00DA11D661F829F2227B00D68
:1041A000A11D621F739FB00DA11D621F839FA00DF3
:1041B000611D221F749F3327A00D611D231F849F43
:1041C000600D211D822F762F6A2F11249F5750409A
:1041D0009AF0F1F088234AF0EE0FFF1FBB1F661F15
:1041E000771F881F91505040A9F79E3F510580F0DE
:1041F0000C944C200C9497205F3FE4F3983ED4F34A
:10420000869577956795B795F795E7959F5FC1F781
:10421000FE2B880F911D9695879597F908950E941A
:104220002820880B990B089581E090E0F8940C9475
:104230005E21FB01DC018D91019080190110D9F301
:10424000990B0895FC0188279927E8942191203241
:10425000E9F3293010F02E30C8F32B3241F02D3223
:1042600039F4689404C00E944021820F911D21916D
:1042700020532A30C0F31EF4909581959F4F0895E6
:104280007AE0979F902D879F802D910D112408959E
:10429000F999FECF92BD81BDF89A992780B508950E
:1042A000262FF999FECF1FBA92BD81BD20BD0FB652
:1042B000F894FA9AF99A0FBE01960895F894FFCFF0
:1042C000FFFFFFFFFF00E1000000000000010115FB
:1042D0000507160B170406080A0C62686A636B0D63
:1042E00009A1ADA1AD00000102031F1C1F1E1F1E6E
:1042F0001F1F1E1F1E1F2602F9054D03AB0153038E
:10430000A8065803730680031C013A027301420297
:104310004C09F4022C094802EE085E038F0845029E
:1043200006093D027109610329016803B6076B03A1
:1043300019096E037608710337087403F7077A03C7
:10434000D8077E03B2070000000000C18081000092
:1043500000000000007310C8109D0BD60CF40C89EF
:104360001000000000A70C770C6F0C5B0C4C0C4B82
:104370000C7265636F726420696E6974006E63000D
:10438000676E00637300783100783200706F726678
:104390002000626F726620002072656C6179206671
:1043A00061756C7420006F6B0063757272656E745A
:1043B000206E6F726D616C0063757272656E742031
:1043C0006C6F770063757272656E742068696768D8
:1043D0000063757272656E742073747265737365B1
:1043E000640073746F7070696E670073746F70200F
:1043F00074696D656F757400300069640064617480
:104400006500637500746800656E76006661696CAE
:10441000730073642000656D6D6320003F200063AE
:10442000757272656E74206465746563746564008A
:104430006865617274626561742074696D656F7519
:1044400074006C6F673A200065787465726E616CF9
:1044500020686561727462656174006B696C6C6977
:104460006E67007072696D617279007365636F6E5B
:1044700064617279007374617274696E6720006E92
:104480006F7420656E61626C65640072656C617941
:10449000206661696C6564005744524600424F5281
:1044A0004600455854524600504F5246006F6E0029
:1044B0006F666600686200736574207364007365DC
:1044C0007420656D6D6300696E76616C6964206D42
:1044D000656469610074656D70657261747572659B
:1044E000200068756D696469747920003C3C3C2D3E
:1044F000207369643D00636F6D6D616E64206E6F43
:104500007420666F756E64002D3E3E3E00737461CC
:1045100072740073746F700073746F702100627333
:1045200000656564756D7000626600666300757095
:1045300000656E007761746368006C6F6700656585
:104540007265736574000D0A006E616E00696E66B7
:08455000006F7666002E0000EA
:00000001FF
