:100000000C94E7000C9418010C9418010C9418013E
:100010000C9418010C9418010C9418010C941801FC
:100020000C9418010C9418010C94EB0B0C947D0AA1
:100030000C9418010C9418010C9418010C941801DC
:100040000C9418010C9418010C9418010C941801CC
:100050000C9418010C9418010C9418010C941F05B1
:100060000C9418010C9418010C9418010C941801AC
:100070000C9418010C9418010C9418010C9418019C
:100080000C9418010C9418010C9418010C9418018C
:100090000C94F2030C9418010C9418010C941801A0
:1000A0000C9418010C9418010C94180122062506D2
:1000B000140618061E0646064606460629062D069E
:1000C000310637063B0646064106000000020009DD
:1000D0000F0000030401000C0000000000000000FD
:1000E0000000000000000000000408020110408031
:1000F000401020408040800802040180402010020F
:10010000011080102040402004040404040304056E
:1001100002020202040302020202060606060606A4
:100120000404020202040400000000250028002B41
:10013000002E00310000000000240027002A002DBE
:10014000003000080B000202020100090400000157
:10015000020200000524001001052401010104240D
:10016000020605240600010705810310004009046A
:100170000100020A00000007050202400000070516
:10018000830240000012010002EF020140412337C8
:100190008000010102030112010002000000404141
:1001A00023378000010102030141726475696E6F9B
:1001B000204C4C430041726475696E6F204D696339
:1001C000726F000403090400B20108039D071124A3
:1001D0001FBECFEFDAE0DEBFCDBF14BE88E10FB6A1
:1001E000F89480936000109260000FBE11E0A0E0D0
:1001F000B1E0EAEBFAE102C005900D92A634B10736
:10020000D9F722E0A6E4B1E001C01D92AF37B207F2
:10021000E1F711E0CEECD1E004C02297FE010E948C
:10022000570DC83CD107C9F70E94840C0C945B0D94
:100230000C94000061E08DE00E94470661E089E0D7
:100240000E94470661E080E00E94470661E081E08D
:100250000E94470661E084E00E94470661E085E174
:100260000E94470661E086E00E94470661E088E060
:100270000E94470661E08AE00E94470661E08CE048
:100280000E94470660E085E00E94470660E087E044
:100290000E94470660E086E10E94470660E08BE02E
:1002A0000E94470660E087E10C94470668EE73E021
:1002B00080E090E00E948C050E941A0168EE73E0D5
:1002C00080E090E00E948C0540E052EC61E070E03C
:1002D00088E192E00E9497078FE491E00E94780203
:1002E00068EE73E080E090E00C948C050F931F9310
:1002F000CF93DF9366E471E08EE491E00E94B60153
:10030000C8E4D1E08E018881803130F463E171E08E
:1003100088E192E00E94D007219640E150E0F80188
:10032000608188E192E00E944E08F1E0CE34DF0760
:1003300049F767E371E088E192E0DF91CF911F9187
:100340000F910C94D6070E94760168EE73E080E06E
:1003500090E00C948C05DC01ED91FC910190F08112
:10036000E02D09948FE491E00C9478020F931F9391
:10037000CF93DF938B0167E570E08FE491E00E94FB
:100380008C0260EF70E08FE491E00E94AB018FE49B
:1003900091E00E94050348E050E067E570E08FE4DB
:1003A00091E00E940203E80118E08FE491E00E94CE
:1003B000E90189931150C9F7DF91CF911F910F91F6
:1003C000089580917F0190E020918001821B910926
:1003D00008952091800180917F01281750F4E22F29
:1003E000F0E0EF57FE4F808190E02F5F2093800177
:1003F00008958FEF9FEF0895E091800180917F0134
:10040000E81730F4F0E0EF57FE4F808190E0089558
:100410008FEF9FEF08950895CF92DF92EF92FF92B2
:100420000F931F93CF93DF937C01CB018A0120911F
:100430005B01222389F0EB016B01C40ED51ECC15A4
:10044000DD0569F06991D701ED91FC910190F08192
:10045000E02DC7010995F3CF642F0E94C903C8019D
:10046000DF91CF911F910F91FF90EF90DF90CF9090
:100470000895CF93DF931F92CDB7DEB769832091A4
:100480005B012223D1F020915C01203240F021E079
:1004900030E0FC013383228380E090E015C080913E
:1004A0005D01E82FF0E0E25AFE4F998190838F5F63
:1004B00080935D0180935C0105C061E0CE010196EF
:1004C0000E94C90381E090E00F90DF91CF910895E1
:1004D000FC011382128248EE53E060E070E0448336
:1004E00055836683778389E191E0918380830895C2
:1004F0001092800110927F0110925D0110925C01B8
:100500000C940C0381E080935B0160937E01109258
:100510005D0110925C0108950C9482020F93062FE6
:1005200021E040915C016EE571E080917E010E94C6
:10053000720310925D0110925C0110925B010F91A9
:1005400008958F929F92AF92BF92CF92DF92EF92D7
:10055000FF920F931F93CF93DF93EC01F62ED42ECF
:1005600048015901EE2019F10E9482021E2D14301B
:1005700008F013E01150B8F0E881F98128E0129FEB
:10058000B0011124A501940104C0569547953795F3
:1005900027956A95D2F7CA01B9010190F081E02D43
:1005A000CE010995E7CF60E0CE010E948E024D2D6D
:1005B000413208F040E22C2D61E871E08F2D0E945D
:1005C0002A031092800180937F01DF91CF911F91C8
:1005D0000F91FF90EF90DF90CF90BF90AF909F90E2
:1005E0008F900895CF92EF920F931F93C22EE12C1C
:1005F00000E010E098010E94A1021F910F91EF907E
:10060000CF90089521E00C94F20261E00C948E02E8
:100610008FE491E00C94680210920E0281E08093C6
:100620000C0210920B0261E082E00E94800661E001
:1006300083E00E948006E9EBF0E080818E7F80837A
:1006400080818D7F808388E48093B80085E48093E7
:10065000BC000895413208F043C090910E02911100
:10066000FCCF91E090930E0220930C022FEF209389
:10067000A1011092E601240F2093E50190930D0251
:1006800090910D02880F892B80930D0280910B02AF
:10069000813061F410920B0280910D028093BB00B7
:1006A0008091BC0083FDF8CF85EC01C085EE80937E
:1006B000BC0080910E028130E1F38091E601841745
:1006C00010F44091E60127EE31E0FB01D9018A2FB9
:1006D000821B841718F48D918193F9CF842F08958C
:1006E00080E008950F93413208F04AC090910E02C5
:1006F0009111FCCF92E090930E0200930C029FEFB9
:100700009093A1011092E6014093E501FB0167EE91
:1007100071E0DB019A2F961B941718F491919D9329
:10072000F9CF10920D0290910D02880F892B8093C2
:100730000D0280910B02813061F410920B028091C6
:100740000D028093BB008091BC0083FDF8CF85EC47
:1007500001C085EE8093BC00222321F080910E021F
:100760008230E1F38091A1018F3F61F08091A1017E
:10077000803251F08091A101803341F483E007C0C1
:1007800081E005C080E003C082E001C084E00F91F9
:100790000895613298F420910E02243089F4609318
:1007A000C301FC0185EC91E0DC012A2F281B2617F0
:1007B00018F421912D93F9CF80E0089581E00895F8
:1007C00082E0089585ED8093BC008091BC0084FD9B
:1007D000FCCF10920E02089585EC8093BC0010921D
:1007E0000E0208951F920F920FB60F9211242F93AD
:1007F0003F934F935F936F937F938F939F93AF93A9
:10080000BF93EF93FF938091B900887F803609F4FE
:100810009EC078F5883209F45DC090F4803109F407
:1008200056C038F4882309F4F5C0883009F44FC065
:10083000F5C0883109F44EC0803209F45FC0EEC0C3
:10084000803409F46AC058F4803309F457C08833FF
:1008500009F0E4C08093A1010E94EC03DFC0803561
:1008600009F44FC0883509F45DC0883409F0D6C05A
:10087000D3C0883909F4C4C0A8F4883709F467C024
:1008800038F4883609F463C0803709F460C0C6C004
:10089000883809F4B5C0803909F45FC0803809F0A0
:1008A000BDC05BC0803B09F483C038F4803A09F4D2
:1008B00066C0883A09F47CC0B1C0803C09F4A4C089
:1008C000883C09F4A1C0883B09F487C0A7C0809187
:1008D0000D0210C09091E6018091E501981770F526
:1008E000E091E60181E08E0F8093E601F0E0E951AE
:1008F000FE4F80818093BB0085EC83C08093A10173
:100900008BC0E091E60181E08E0F8093E60180913B
:10091000BB00F0E0E951FE4F80839091E6018091A9
:10092000E5016BC0E091E60181E08E0F8093E60166
:100930008091BB00F0E0E951FE4F808380910C0272
:1009400081116AC081E080930B0284EA5EC083E07B
:1009500080930E021092A201CFCF8091A20180322B
:1009600008F04EC0E091A20181E08E0F8093A201B9
:100970008091BB00F0E0ED55FE4F8083BDCF0E941B
:10098000EC038091A201803230F4E091A201F0E00A
:10099000ED55FE4F10826091A20170E0E0910702D8
:1009A000F091080283EA91E009951092A20136C005
:1009B00084E080930E021092C4011092C301E09172
:1009C0000902F0910A0209958091C301811105C0C5
:1009D00081E08093C3011092C501E091C40181E0E0
:1009E0008E0F8093C401F0E0EB53FE4F8081809323
:1009F000BB009091C4018091C301981708F47CCF8B
:100A000085E88093BC000AC085EC8093BC001092FE
:100A10000E0204C01092A1010E94E203FF91EF9127
:100A2000BF91AF919F918F917F916F915F914F9106
:100A30003F912F910F900FBE0F901F9018951F920E
:100A40000F920FB60F9211242F933F938F939F9382
:100A5000AF93BF938091100290911102A091120266
:100A6000B091130230910F0223E0230F2D3720F4B1
:100A70000196A11DB11D05C026E8230F0296A11DF8
:100A8000B11D20930F028093100290931102A09346
:100A90001202B09313028091140290911502A0915A
:100AA0001602B09117020196A11DB11D8093140288
:100AB00090931502A0931602B0931702BF91AF91C5
:100AC0009F918F913F912F910F900FBE0F901F908C
:100AD00018953FB7F8948091140290911502A09157
:100AE0001602B091170226B5A89B05C02F3F19F03A
:100AF0000196A11DB11D3FBF6627782F892F9A2F20
:100B0000620F711D811D911D42E0660F771F881FC6
:100B1000991F4A95D1F70895CF92DF92EF92FF92F5
:100B2000CF93DF936B017C010E946905EB01C11437
:100B3000D104E104F10489F00E94970C0E94690538
:100B40006C1B7D0B683E734090F381E0C81AD1089E
:100B5000E108F108C851DC4FEACFDF91CF91FF9057
:100B6000EF90DF90CF900895789484B5826084BD33
:100B700084B5816084BD85B5826085BD85B58160A1
:100B800085BDEEE6F0E0808181608083E1E8F0E001
:100B90001082808182608083808181608083E0E830
:100BA000F0E0808181608083E1E9F0E08081826013
:100BB0008083808181608083E0E9F0E080818160D2
:100BC0008083E1ECF0E080818460808380818260BA
:100BD0008083808181608083E3ECF0E080818160AC
:100BE0008083E0ECF0E0808182608083E2ECF0E0E2
:100BF000808181608083EAE7F0E080818460808387
:100C00008081826080838081816080838081806830
:100C10008083089590E0FC013197EF30F105B0F545
:100C2000EA5AFF4F0C94550D809180008F7703C0D6
:100C3000809180008F7D8093800008958091800056
:100C4000877FF9CF84B58F7702C084B58F7D84BD4F
:100C50000895809190008F7707C0809190008F7DDC
:100C600003C080919000877F8093900008958091C9
:100C7000C0008F7703C08091C0008F7D8093C0003B
:100C800008958091C200877F8093C2000895CF931A
:100C9000DF9390E0FC01E751FF4F2491FC01E85FF6
:100CA000FE4F8491882349F190E0880F991FFC0141
:100CB000EB5CFE4FA591B491895D9E4FFC01C591FF
:100CC000D4919FB7611108C0F8948C91209582232C
:100CD0008C93888182230AC0623051F4F8948C91FD
:100CE000322F309583238C938881822B888304C094
:100CF000F8948C91822B8C939FBFDF91CF910895B4
:100D00000F931F93CF93DF931F92CDB7DEB7282F9A
:100D100030E0F901E653FF4F8491F901E751FF4FAD
:100D20001491F901E85FFE4F04910023C9F0882374
:100D300021F069830E940A066981E02FF0E0EE0F3E
:100D4000FF1FE95DFE4FA591B4919FB7F8948C9178
:100D5000611103C01095812301C0812B8C939FBF2B
:100D60000F90DF91CF911F910F910895CF93DF9353
:100D70001F92CDB7DEB76983DC01ED91FC91028053
:100D8000F381E02D41E050E0BE016F5F7F4F099598
:100D90000F90DF91CF910895CF93DF93EC018C8575
:100DA0009D8597FF05C082E00E9466099D878C871C
:100DB0008C859D85DF91CF91089583E00C94E10BA4
:100DC000FC018485958597FD06C082E00E940E098E
:100DD00090E00196089582E00E940E0990E0089547
:100DE000FC018485958597FD05C02FEF3FEF358782
:100DF0002487089582E00C946609CF93DF93EC0179
:100E000080910B01882331F083E00E949709181626
:100E1000190634F081E090E09B838A8380E090E0C3
:100E2000DF91CF910895FC0120812E5F208342E461
:100E300050E063E471E080E80C94320AFC01218107
:100E40008081813A59F4213209F05CC047E050E0DA
:100E500064E071E080E00E94320A67C0813209F0EC
:100E600051C0233289F4838190E0982F8827328102
:100E7000832BA0E0B0E08093000190930101A09348
:100E80000201B09303010FC0203239F467E070E033
:100E900084E091E00E94630A0AC0223221F4828138
:100EA00080930B0104C02D7F203209F03EC0809159
:100EB000040190910501A0910601B0910701803BCA
:100EC0009440A105B10501F580910B0180FD1CC086
:100ED00080910008909101089093FF0A8093FE0A88
:100EE00087E797E790930108809300082BE088E15B
:100EF00090E00FB6F894A895809360000FBE209301
:100F0000600013C080E0089588E10FB6F8948093E4
:100F10006000109260000FBEA8958091FE0A90912B
:100F2000FF0A909301088093000881E008952FEF55
:100F30003FEFFC0135872487089510921B02109221
:100F40001A0288EE93E0A0E0B0E080931C02909338
:100F50001D02A0931E02B0931F0289E291E09093BC
:100F60001902809318028FEF9FEF909325028093D0
:100F7000240208956115710581F0DB010D900020B8
:100F8000E9F7AD0141505109461B570BDC01ED91CA
:100F9000FC910280F381E02D099480E090E00895B7
:100FA0000C94BA0765E371E00C94BA070F931F9392
:100FB000CF93DF93EC010E94BA078C01CE010E940F
:100FC000D207800F911FDF91CF911F910F9108954C
:100FD0008F929F92AF92BF92CF92DF92EF92FF9249
:100FE0000F931F93CF93DF93CDB7DEB7A1970FB6C3
:100FF000F894DEBF0FBECDBF7C01C42EE52FCB0120
:10100000D22E19A221E02D1510F02AE0D22E8E0149
:101010000F5D1F4F8D2C912CA12CB12C6C2D7E2F90
:10102000A50194010E94330D8C2DD29E80191124AC
:10103000015011098A3014F4805D01C0895CF80107
:101040008083211531054105510521F0C22EE32F82
:10105000CA01E4CFB801C7010E94BA07A1960FB632
:10106000F894DEBF0FBECDBFDF91CF911F910F91DE
:10107000FF90EF90DF90CF90BF90AF909F908F90B8
:1010800008952115310541F4DC01ED91FC910190A9
:10109000F081E02D642F09940C94E8079A01462F03
:1010A00050E060E070E00C944108615030F0209115
:1010B000F100FC0120830196F8CF289A84E6809302
:1010C0007102089540916C0250916D0220916A0264
:1010D00030916B0242175307B4F49091E800957079
:1010E000E1F39091E80092FD19C08093F1008091A6
:1010F0006C0290916D0201968F739927892B19F4D8
:101100008EEF8093E80080916C0290916D020196C1
:1011100090936D0280936C0281E0089580E00895C1
:10112000CF92DF92EF92FF920F931F93CF93DF93B3
:101130001F92CDB7DEB7082F162FF42E862F880FFB
:101140008E5F99830E94620883E00E946208E02E0D
:10115000C02E9981D92E8C2D8E19811798F4F60105
:10116000F7FE02C0849101C080810E946208082FAE
:1011700080E00E9462088023FFEFCF1ADF0A81110E
:10118000EACF01C081E00F90DF91CF911F910F91C5
:10119000FF90EF90DF90CF9008958091D70081600D
:1011A0008093D70080EA8093D80089B5806189BD9B
:1011B00089B5826089BD09B400FEFDCF61E070E0B1
:1011C00080E090E00E948C058091D8008F7C806147
:1011D0008093D8008091E000807F8093E0000895A4
:1011E000CF93DF931F92CDB7DEB71982CE01019660
:1011F0000E9413070E941F0DBE016F5F7F4F0E9468
:10120000980C89810F90DF91CF9108952FB7FC0141
:101210002083F89467706093E9000895CF93DF937B
:101220001F92CDB7DEB7682FCE0101960E94060946
:101230008091F20099819FBF0F90DF91CF91089527
:10124000FF920F931F93CF93DF9300D0CDB7DEB7FC
:10125000F62E8A0190917002992311F057FF03C076
:101260008FEF9FEF2BC0682FCE0101967A830E94EB
:1012700006098091F20090E0A8017A818017910719
:101280000CF4AC01EF2DF72FF40E84E6FE1639F0C6
:10129000289A809371029091F1009193F7CF4115B4
:1012A000510521F08091F200882321F089818FBFC0
:1012B000CA0104C08BE68093E800F8CF0F900F902E
:1012C000DF91CF911F910F91FF900895CF93DF93FE
:1012D0001F92CDB7DEB741E050E0BE016F5F7F4F98
:1012E0000E942009019719F4898190E002C08FEFD4
:1012F0009FEF0F90DF91CF910895CF93DF931F92CF
:10130000CDB7DEB7682FCE0101960E9406099091F5
:10131000E800892F807295FF04C09091F20080E46C
:10132000891B99819FBF0F90DF91CF9108956F9294
:101330007F928F929F92AF92BF92CF92DF92EF9265
:10134000FF920F931F93CF93DF931F92CDB7DEB71A
:10135000782E7B01C42EB52E80917002882369F00F
:10136000042F152F8AEFD82E872D8072982E9AE39E
:10137000A92E872D8074882E11C08FEF9FEF57C044
:10138000872D0E947D09682E81110CC0DA94A9F383
:1013900061E070E080E090E00E948C05011511058D
:1013A00079F73BC0282F30E0021713070CF4602EAA
:1013B000672DCE0101960E9406098091E80085FF05
:1013C00029C0262D30E0021B130B992039F06A94B6
:1013D0008FEF6816B1F01092F100F9CFF701862D6A
:1013E00077FE07C0815058F094919093F1003196A8
:1013F000F9CF815020F091919093F100FACFE20E55
:10140000F31E8091E80085FF0FC00115110511F44E
:1014100081100AC089818FBFC1CF5D9A84E6809315
:1014200072028C2D9B2D03C0A092E800F3CF0F9089
:10143000DF91CF911F910F91FF90EF90DF90CF90B0
:10144000BF90AF909F908F907F906F900895109273
:10145000E90010926D0210926C0290936B028093DF
:101460006A020895CF92DF92FF920F931F93CF935A
:10147000DF9300D0CDB7DEB7F82E8A016B010115DE
:101480001105B1F0F601F7FE02C0849101C0808120
:1014900049835A830E94620801501109FFEFCF1A55
:1014A000DF0A49815A818111EACF8FEF9FEF01C096
:1014B000CA010F900F90DF91CF911F910F91FF9074
:1014C000DF90CF9008951F93CF93DF931F92CDB7F6
:1014D000DEB7162F2091E80022FFFCCF612F798321
:1014E0000E9455088BEF8093E800812F7981972F18
:1014F0000F90DF91CF911F9108951F920F920FB619
:101500000F921124DF92EF92FF920F931F932F936C
:101510003F934F935F936F937F938F939F93AF937B
:10152000BF93EF93FF93CF93DF93CDB7DEB76C9765
:10153000DEBFCDBF1092E9008091E80083FF23C198
:1015400068E0CE0145960E94550882EF8093E8003E
:101550003D8937FF05C08091E80080FFFCCF03C0C4
:101560008EEF8093E800832F807609F0F0C02E89FB
:101570004F89D88C21110CC0303829F480916F022A
:101580008093F10002C01092F1001092F100F4C0BB
:10159000842F90E09D29213049F43111EDC001974D
:1015A00009F0EAC080916F028D7F0AC0233059F4A0
:1015B0003111E2C0019709F0DFC080916F028260B3
:1015C00080936F02D9C0253041F48091E80080FFFC
:1015D000FCCF40684093E300CFC0263009F08DC0B7
:1015E000EB8CFC8C22E0D2122CC080E090E00E94B8
:1015F000270A0E94F00899E08E010F5F1F4FF80143
:10160000292F11922A95E9F79983DA8291E09E8336
:1016100090EA98879AEF998720916C0230916D0239
:10162000275F3F4F3C832B838D83C7010E94270A8E
:1016300049E050E0B80180E00E94320A0E94F008C0
:101640009BC0C7010E94270A0E941F0DBE016B5E4E
:101650007F4F0E94C10C009719F00CF08DC090C014
:1016600081E0D8120EC08B8D9C8D089719F481E013
:10167000809369028091690281112FC067E971E04E
:1016800031C0E3E0DE127CC08F89882349F18230CB
:1016900029F440E86DE085EB91E01CC0813029F42D
:1016A00040E86BE089EA91E015C0833009F068C03A
:1016B0000E941F0D8E010F5F1F4FB8010E94E00CAA
:1016C000F80101900020E9F73197E01BF10B40E0B1
:1016D0006E2FC8010E9490084DC065E871E002C0FD
:1016E00063EC71E06115710509F44AC0FB01449196
:1016F00050E080E80E94320A3FC0273009F440C021
:10170000283021F481E08093F10036C02930A1F522
:101710003370B1F5EDE0F1E081E021E036E3908156
:10172000992361F08093E9002093EB0091919093CD
:10173000EC003093ED008F5F873089F78EE7809360
:10174000EA001092EA008F898093700215C08B8D99
:101750009C8D0E94270A898D811105C0CE01459676
:101760000E941E0707C00E941F0DBE016B5E7F4FC7
:101770000E94FF0C882321F08EEF8093E80003C0C5
:1017800081E28093EB006C960FB6F894DEBF0FBE3B
:10179000CDBFDF91CF91FF91EF91BF91AF919F911D
:1017A0008F917F916F915F914F913F912F911F91F9
:1017B0000F91FF90EF90DF900F900FBE0F901F9052
:1017C00018958093E9008091F200882319F08AE34C
:1017D0008093E80008951F920F920FB60F92112484
:1017E0002F933F934F935F936F937F938F939F9329
:1017F000AF93BF93CF93EF93FF93C091E10080919C
:10180000E100837F8093E1008093E100C3FF0FC07C
:101810001092E90081E08093EB001092EC0082E3EB
:101820008093ED001092700288E08093F000C2FF78
:1018300019C083E00E94E10B80917202882339F085
:1018400080917202815080937202882389F1809185
:101850007102882339F08091710281508093710266
:10186000882341F1C4FF10C08091E2008E7E816028
:101870008093E2008091E1008F7E8093E10080916F
:101880006E028E7E806111C0C0FF16C08091E200A2
:101890008E7E80618093E2008091E1008E7E809355
:1018A000E10080916E028E7E816080936E0204C0A2
:1018B0005D98CDCF2898D6CFFF91EF91CF91BF9172
:1018C000AF919F918F917F916F915F914F913F91D8
:1018D0002F910F900FBE0F901F90189510927002CD
:1018E00010926F0210926E020E94CD08E1EEF0E0BD
:1018F00080818E7E80838DE08093E200559A209ACD
:101900005D982898089508950E94B4050E94830C5C
:1019100088E692E00E946E0C0E945601C0E0D0E082
:101920000E94A3012097E1F30E940000F9CF0895DF
:10193000EF92FF920F931F93CF93DF937B01FC01F4
:10194000C281D38100E010E0209781F0E881F98125
:101950000280F381E02DB701CE01099597FD08C003
:10196000080F191F0884D985C02DEECFC80102C009
:101970008FEF9FEFDF91CF911F910F91FF90EF902D
:1019800008950F931F93CF93DF938B01FC01C281C6
:10199000D381209771F0E881F9810480F581E02DF1
:1019A000B801CE010995009731F40884D985C02D7E
:1019B000F0CF80E090E0DF91CF911F910F910895DB
:1019C0000F931F93CF93DF938B01FC01C281D381CF
:1019D000209771F0E881F9810680F781E02DB80148
:1019E000CE010995080F111D0884D985C02DF0CFAF
:1019F000F8011082DF91CF911F910F9108950F93FD
:101A00001F93CF93DF938B01FC01C281D381209779
:101A100071F0E881F9810190F081E02DB801CE01EB
:101A20000995811106C00884D985C02DF0CF80E0CA
:101A300001C081E0DF91CF911F910F9108958091B6
:101A4000770281110DC082E08093730284E080935D
:101A50007402109276021092750281E080937702F0
:101A600083E792E00895A1E21A2EAA1BBB1BFD0199
:101A70000DC0AA1FBB1FEE1FFF1FA217B307E4076D
:101A8000F50720F0A21BB30BE40BF50B661F771FC5
:101A9000881F991F1A9469F76095709580959095A5
:101AA0009B01AC01BD01CF010895EE0FFF1F059012
:0A1AB000F491E02D0994F894FFCFA3
:101ABA00FFFFFFFF00E100000000000000C180817D
:101ACA0000000030000000000039020C02E101E9C8
:101ADA0001FC010B0200000000B606FD06E006F05C
:101AEA0006CC06DD060D0A006E616E00696E6600A0
:061AFA006F7666002E006D
:00000001FF
