:100000000C94EE000C941F010C941F010C941F0122
:100010000C941F010C941F010C941F010C941F01E0
:100020000C941F010C941F010C9417120C94A9102E
:100030000C941F010C941F010C941F010C941F01C0
:100040000C941F010C941F010C941F010C941F01B0
:100050000C941F010C941F010C941F010C94C10AF5
:100060000C941F010C941F010C941F010C941F0190
:100070000C941F010C941F010C941F010C941F0180
:100080000C941F010C941F010C941F010C941F0170
:100090000C9494090C941F010C941F010C941F01E3
:1000A0000C941F010C941F010C941F01F50BF80B0D
:1000B000E70BEB0BF10B190C190C190CFC0B000CDA
:1000C000040C0A0C0E0C190C140C07060504010094
:1000D000080A0B0C0D090000000200090F000003C4
:1000E0000401000C000000000000000000000000FF
:1000F0000000000000040802011040804010204071
:10010000804080080204018040201002011080100D
:1001100020404020040404040403040502020202F7
:100120000403020202020606060606060404020290
:1001300002040400000000250028002B002E0031DE
:100140000000000000240027002A002D00300008D5
:100150000B0002020201000904000001020200007B
:1001600005240010010524010101042402060524D0
:100170000600010705810310004009040100020A7E
:10018000000000070502024000000705830240004E
:100190000012010002EF02014041233780000101FB
:1001A00002030112010002000000404123378000D9
:1001B000010102030141726475696E6F204C4C436A
:1001C0000041726475696E6F204D6963726F00043F
:1001D000030904007B041F06AA08700D11241FBE2A
:1001E000CFEFDAE0DEBFCDBF14BE88E10FB6F894E2
:1001F00080936000109260000FBE14E0A0E0B1E0B8
:10020000E4EBFAE202C005900D92AA38B107D9F7E3
:1002100025E0AAE8B4E001C01D92AB3DB207E1F7CA
:1002200011E0CCEDD1E004C02297FE010E941E1522
:10023000C43DD107C9F70E94B0120C9458150C9414
:10024000000061E08DE00E941A0C61E089E00E94EC
:100250001A0C61E080E00E941A0C61E081E00E94CB
:100260001A0C61E084E00E941A0C61E085E10E94B2
:100270001A0C61E086E00E941A0C61E088E00E949E
:100280001A0C61E08AE00E941A0C61E08CE00E9486
:100290001A0C60E085E00E941A0C60E087E00E9482
:1002A0001A0C60E086E10E941A0C60E08BE00E946C
:1002B0001A0C60E087E10C941A0CFF920F931F93C5
:1002C000CF93DF9361EA74E08AEA94E00E949A0691
:1002D00069E871E084E795E00E94A30DC1EAD4E0EB
:1002E000F12C8E018881803130F46FE971E084E770
:1002F00095E00E94A30D219640E150E0F801608155
:1003000084E795E00E947A0EF7E0FF1631F067E887
:1003100071E084E795E00E94A30DF39488E0F81261
:10032000E0CF6DE774E084E795E0DF91CF911F9116
:100330000F91FF900C94B00D0F931F93CF93DF9309
:1003400082E10E94AC0B8C0140E060E089EA94E01D
:100350000E94CE0589EA94E00E94ED05EC0185E05B
:10036000D695C7958A95E1F7C00FD11F40E061E0AF
:1003700089EA94E00E94CE0589EA94E00E94ED05A6
:1003800025E0969587952A95E1F7C80FD91F40E09B
:1003900062E089EA94E00E94CE0589EA94E00E9436
:1003A000ED0535E0969587953A95E1F7C80FD91F89
:1003B00040E063E089EA94E00E94CE0589EA94E097
:1003C0000E94ED0545E0969587954A95E1F78C0FDB
:1003D0009D1F0A9718F461EA71E002C067EB71E0B3
:1003E00084E795E0DF91CF911F910F910C94B00DB0
:1003F00060E080E00E94530C61E084E00E94530CB6
:1004000062E070E080E090E00E942E0B61E080E00E
:100410000E94530C62E070E080E090E00E942E0B9E
:1004200060E080E00E94530C62E070E080E090E0C9
:100430000C942E0B61E086E00C94530C61E088E094
:100440000C94530C61E08AE00C94530C61E08CE056
:100450000C94530C60E080E00E94530C60E084E058
:100460000E94530C62E070E080E090E00E942E0B4E
:1004700061E080E00E94530C62E070E080E090E078
:100480000E942E0B60E080E00E94530C62E070E05E
:1004900080E090E00C942E0B60E086E00C94530C0E
:1004A00060E088E00C94530C60E08AE00C94530CFC
:1004B00060E08CE00C94530C0E942A0268EC70E01F
:1004C00080E090E00E942E0B0E944C0268EC70E0ED
:1004D00080E090E00E942E0B0E94500268EC70E0D9
:1004E00080E090E00E942E0B0E94540268EC70E0C5
:1004F00080E090E00E942E0B0C94580268EE73E0AE
:1005000080E090E00E942E0B0E94210168EE73E0D3
:1005100080E090E00E942E0B0E945C0240E052ECD2
:1005200061E070E084E795E00E946A0D8BEA94E058
:100530000E94170868EE73E080E090E00E942E0BA6
:1005400041E061E089EA94E00E94A30580EA94E03A
:100550000C94870460EE71E084E795E00E94B00D92
:100560006BE272E084E795E00E94A30D0E94F8011F
:1005700060ED77E080E090E00E942E0B64E372E093
:1005800084E795E00E94A30D0E941A0260ED77E0D7
:1005900080E090E00E942E0B6DE372E084E795E02E
:1005A0000E94A30D0E941E0260ED77E080E090E0C3
:1005B0000E942E0B66E472E084E795E00E94A30D92
:1005C0000E94220260ED77E080E090E00E942E0B16
:1005D0006FE472E084E795E00E94B00D0E9426026D
:1005E00060ED77E080E090E00E942E0B67E572E01E
:1005F00084E795E00E94B00D0E945C0268EE73E013
:1006000080E090E00C942E0B61E081E00C94530CA0
:1006100060E081E00C94530C61E085E10C94530C94
:1006200060E085E10C94530C60E772E084E795E0AC
:100630000E94B00D6DE774E084E795E00E94B00D74
:100640000E945D016EE972E084E795E00E94A30DCF
:100650000E94790660939C0470939D0480939E048D
:1006600090939F0468EE73E080E090E00E942E0B70
:100670000E94790600919C0410919D0420919E0493
:1006800030919F04601771078207930719F061E1A9
:1006900073E002C064E273E084E795E00E94B00D6D
:1006A0000E949C0184E10E94AC0B9093970480937C
:1006B000960483E10E94AC0B90938F0480938E0488
:1006C00080EA94E00E94B3040E94C41370938B04E8
:1006D00060938A0480EA94E00E942B050E94C41370
:1006E00070939304609392046CE774E084E795E060
:1006F0000E94B00D63EB72E084E795E00E94B00DBC
:1007000068E57BE180E090E00E942E0B62EF72E0F2
:1007100084E795E00E94A30D85E090E090939B0410
:1007200080939A0460919A0470919B0416161706A0
:10073000D4F4615071094AE050E084E795E00E94EA
:10074000650E6DE971E084E795E00E94A30D6EED02
:1007500073E080E090E00E942E0B80919A049091CB
:100760009B040197DBCF64EF71E080E090E00E9492
:100770002E0B6CE774E084E795E00E94B00D84E1F5
:100780000E94AC0B909399048093980483E10E949B
:10079000AC0B909391048093900480EA94E00E94C3
:1007A000B3040E94C41370938D0460938C0480EA98
:1007B00094E00E942B050E94C413709395046093EB
:1007C000940420919804309199048091960490911A
:1007D0009704281739071CF463E073E002C066E150
:1007E00073E084E795E00E94B00D20919004309171
:1007F000910480918E0490918F04281739071CF47E
:1008000069E273E002C060E473E084E795E00E946F
:10081000B00D2091940430919504809192049091B0
:1008200093042817390774F420918C0430918D04B7
:1008300080918A0490918B04821793071CF467E5DA
:1008400073E002C067E673E084E795E00E94B00DB4
:100850006CE774E084E795E00E94B00D67E773E011
:1008600084E795E00E94B00D68E873E180E090E0D5
:100870000E942E0B6CE774E084E795E00E94B00DB7
:1008800067EB73E084E795E00E94B00D0E94AA0236
:100890006DE774E084E795E00E94B00D67EC73E0CB
:1008A00084E795E00E94B00D6DE774E084E795E081
:1008B0000E94B00D6DE774E084E795E00E94B00DF2
:1008C00061E374E084E795E00E94B00D0E9410039C
:1008D0000E94080360ED77E080E090E00E942E0B1C
:1008E0000E940C030E94040360ED77E080E090E03A
:1008F0000E942E0BEBCF80EA94E00C948604DC017E
:10090000ED91FC910190F081E02D099408950895F6
:100910000F931F93CB01A0E0B0E0BA2FA92F982F1F
:100920008827842BE7E1F0E040E050E868E970E0D8
:100930008C019D010E2E04C03695279517950795BD
:100940000A94D2F700FF04C084279527A627B7276B
:1009500076956795579547953197E730F10541F7BB
:100960001F910F910895EF92FF920F931F93CF93D2
:10097000DF937C0160E470E08BEA94E00E942B0836
:1009800065EF70E08BEA94E00E947F048BEA94E0CC
:100990000E94A70867E370E080E090E00E942E0BC1
:1009A00043E050E060E470E08BEA94E00E94A40829
:1009B00005E610E08BEA94E00E948007039774F448
:1009C00061E070E080E090E00E942E0B0150110980
:1009D00089F760E070E889E794E436C08BEA94E038
:1009E0000E948807082F8BEA94E00E948807182F3E
:1009F0008BEA94E00E948807D02F90E0C92FC12B8A
:100A0000482FBE01C7010E948804811119C0BE0190
:100A10006C7F80E090E00E94F51320E030E040E839
:100A200057E30E94831420E030E04AEF52E40E9432
:100A3000831420E030E040EC50E40E945F1304C0D7
:100A400060E070EC89E794E4DF91CF911F910F9102
:100A5000FF90EF900895EF92FF920F931F93CF9323
:100A6000DF937C0160E470E08BEA94E00E942B0845
:100A700063EF70E08BEA94E00E947F048BEA94E0DD
:100A80000E94A70867E370E080E090E00E942E0BD0
:100A900043E050E060E470E08BEA94E00E94A40838
:100AA00005E610E08BEA94E00E948007039774F457
:100AB00061E070E080E090E00E942E0B015011098F
:100AC00089F760E070E889E794E436C08BEA94E047
:100AD0000E948807082F8BEA94E00E948807182F4D
:100AE0008BEA94E00E948807D02F90E0C92FC12B99
:100AF000482FBE01C7010E948804811119C0BE01A0
:100B00006C7F80E090E00E94F51320E030E040E848
:100B100057E30E94831422E538EB4FE253E40E942E
:100B2000831426E636E64BE352E40E945F1304C0CA
:100B300060E070EC89E794E4DF91CF911F910F9111
:100B4000FF90EF900895FC01611103C0411107C0AF
:100B500004C0623061F44230C1F488E61DC0423006
:100B600011F489E619C04130C1F48AE615C061303C
:100B7000A1F4411102C08CE60FC0423011F48DE6A1
:100B80000BC0413051F48EE607C0411102C08BE624
:100B900003C0413011F48FE680830895CF93DF9333
:100BA0001F92CDB7DEB7486850E2659F90011124CF
:100BB000422BFC0160818BEA94E049830E9421086A
:100BC0004981642F8BEA94E00E94D8078BEA94E075
:100BD0000F90DF91CF910C94A7080F931F93CF93A1
:100BE000DF938C0160E570E080E090E00E942E0BC6
:100BF00043E0F80160818BEA94E00E94A1088BEA4F
:100C000094E00E948807082F8BEA94E00E948807EE
:100C1000182F8BEA94E00E948807D02FF0E0CF2FA6
:100C2000CE01812BDF91CF911F910F910895982FC5
:100C300092959F702AEF929F800D112408958BEA60
:100C400094E00C941708CF93DF93EC016FE670E00B
:100C50008BEA94E00E942B0860E08BEA94E00E940B
:100C6000D8078BEA94E00E94A70881113EC047E0B4
:100C700050E06FE670E08BEA94E00E94A4088BEAF3
:100C800094E00E9488078F770E94170688838BEA7A
:100C900094E00E9488070E94170689838BEA94E0FB
:100CA0000E9488078F7B0E9417068A838BEA94E054
:100CB0000E948807877C8B838BEA94E00E948807D8
:100CC0000E9417068C838BEA94E00E9488078F7D30
:100CD0000E9417068D838BEA94E00E9488070E9489
:100CE0001706825E8E8381E001C080E0DF91CF91A4
:100CF0000895CF93DF93CDB7DEB727970FB6F8945B
:100D0000DEBF0FBECDBFCE0101960E942306882311
:100D100029F0CE0101960E94C50603C060E070E094
:100D2000CB0127960FB6F894DEBF0FBECDBFDF9183
:100D3000CF9108950F931F93CF93DF938B0167E5B6
:100D400070E08BEA94E00E942B0860EF70E08BEA81
:100D500094E00E947F048BEA94E00E94A70848E098
:100D600050E067E570E08BEA94E00E94A408E80197
:100D700018E08BEA94E00E94880789931150C9F724
:100D8000DF91CF911F910F9108956F927F928F9273
:100D90009F92AF92BF92CF92DF92EF92FF920F930A
:100DA0001F93CF93DF93FC01C680AC2DB0E020E809
:100DB00033E341EE51E00E9431154B015C0122EB1F
:100DC00037E06D01C4E6D0E000E911E0C901825BC3
:100DD00097408C159D05DCF4C90183709927892BF8
:100DE00099F4C901BE010E94E614892B31F4C901AE
:100DF000B8010E94E614892B39F480E8880E81E559
:100E0000981E81E0A81EB11C2F5F3F4FDFCF658089
:100E1000712C8EE4C81A88EFD80AC60164E670E027
:100E20000E94E6148C01C60160E971E00E94E6149C
:100E30007C01C1E0D0E083E0C822DD24C615D705DF
:100E40002CF5C230D10589F4C114D10471F4011517
:100E5000110519F4E114F10441F480E8880E8BE3E4
:100E6000981E86E2A81EB11C0FC0DE01A25BBB4F1C
:100E7000AC91B0E020E831E541E050E00E9431154E
:100E8000860E971EA81EB91E2196D8CF41812281B9
:100E900030E0A0E1BEE00E9422156B017C01242F0E
:100EA00030E0ACE3B0E00E942215C60ED71EE81E6B
:100EB000F91E8081C80ED11CE11CF11CA481B0E098
:100EC000119720E831E541E050E00E943C15C60E44
:100ED000D71EE81EF91EC80CD91CEA1CFB1CC70152
:100EE000B601DF91CF911F910F91FF90EF90DF90AE
:100EF000CF90BF90AF909F908F907F906F9008950C
:100F00008091DB0490E02091DC04821B910908951C
:100F10002091DC048091DB04281750F4E22FF0E0EC
:100F2000E352FB4F808190E02F5F2093DC04089513
:100F30008FEF9FEF0895E091DC048091DB04E817C8
:100F400030F4F0E0E352FB4F808190E008958FEFA2
:100F50009FEF08950895CF92DF92EF92FF920F9343
:100F60001F93CF93DF937C01CB018A012091B704BB
:100F7000222389F0EB016B01C40ED51ECC15DD05D3
:100F800069F06991D701ED91FC910190F081E02D1C
:100F9000C7010995F3CF642F0E946B09C801DF9147
:100FA000CF911F910F91FF90EF90DF90CF90089518
:100FB000CF93DF931F92CDB7DEB769832091B7043B
:100FC0002223D1F02091B804203240F021E030E01B
:100FD000FC013383228380E090E015C08091B90446
:100FE000E82FF0E0E654FB4F998190838F5F809368
:100FF000B9048093B80405C061E0CE0101960E9457
:101000006B0981E090E00F90DF91CF910895FC0192
:101010001382128248EE53E060E070E0448355830F
:10102000668377838FE594E091838083089510929F
:10103000DC041092DB041092B9041092B8040C94F2
:10104000AE0881E08093B7046093DA041092B9048B
:101050001092B80408950C9421080F93062F21E0F4
:101060004091B8046AEB74E08091DA040E9414099C
:101070001092B9041092B8041092B7040F91089519
:101080008F929F92AF92BF92CF92DF92EF92FF9298
:101090000F931F93CF93DF93EC01F62ED42E4801CC
:1010A0005901EE2019F10E9421081E2D143008F07C
:1010B00013E01150B8F0E881F98128E0129FB001E7
:1010C0001124A501940104C056954795379527959D
:1010D0006A95D2F7CA01B9010190F081E02DCE01E5
:1010E0000995E7CF60E0CE010E942D084D2D4132D9
:1010F00008F040E22C2D6DED74E08F2D0E94CC089D
:101100001092DC048093DB04DF91CF911F910F914B
:10111000FF90EF90DF90CF90BF90AF909F908F9017
:101120000895CF92EF920F931F93C22EE12C00E00F
:1011300010E098010E9440081F910F91EF90CF900E
:10114000089521E00C94910821E00C94910861E04D
:101150000C942D088BEA94E00C94070810926A0511
:1011600081E0809368051092670561E082E00E944B
:10117000530C61E083E00E94530CE9EBF0E08081C6
:101180008E7F808380818D7F808388E48093B80008
:1011900085E48093BC000895413208F043C09091EB
:1011A0006A059111FCCF91E090936A052093680540
:1011B0002FEF2093FD0410924205240F2093410548
:1011C0009093690590916905880F892B8093690533
:1011D00080916705813061F41092670580916905FF
:1011E0008093BB008091BC0083FDF8CF85EC01C0EB
:1011F00085EE8093BC0080916A058130E1F3809197
:101200004205841710F44091420523E435E0FB01C8
:10121000D9018A2F821B841718F48D918193F9CFFD
:10122000842F089580E008950F93413208F04AC05A
:1012300090916A059111FCCF92E090936A0500931A
:1012400068059FEF9093FD0410924205409341057D
:10125000FB0163E475E0DB019A2F961B941718F4E9
:1012600091919D93F9CF1092690590916905880F2E
:10127000892B8093690580916705813061F4109214
:101280006705809169058093BB008091BC0083FD58
:10129000F8CF85EC01C085EE8093BC00222321F0BD
:1012A00080916A058230E1F38091FD048F3F61F007
:1012B0008091FD04803251F08091FD04803341F42F
:1012C00083E007C081E005C080E003C082E001C088
:1012D00084E00F910895613298F420916A052430DA
:1012E00089F460931F05FC0181E295E0DC012A2F5F
:1012F000281B261718F421912D93F9CF80E008952B
:1013000081E0089582E0089585ED8093BC0080918E
:10131000BC0084FDFCCF10926A05089585EC809393
:10132000BC0010926A0508951F920F920FB60F929B
:1013300011242F933F934F935F936F937F938F93DA
:101340009F93AF93BF93EF93FF938091B900887FF2
:10135000803609F49EC078F5883209F45DC090F4B7
:10136000803109F456C038F4882309F4F5C0883078
:1013700009F44FC0F5C0883109F44EC0803209F439
:101380005FC0EEC0803409F46AC058F4803309F4B9
:1013900057C0883309F0E4C08093FD040E948E0991
:1013A000DFC0803509F44FC0883509F45DC088344A
:1013B00009F0D6C0D3C0883909F4C4C0A8F488376E
:1013C00009F467C038F4883609F463C0803709F43B
:1013D00060C0C6C0883809F4B5C0803909F45FC060
:1013E000803809F0BDC05BC0803B09F483C038F48D
:1013F000803A09F466C0883A09F47CC0B1C0803CE8
:1014000009F4A4C0883C09F4A1C0883B09F487C052
:10141000A7C08091690510C0909142058091410557
:10142000981770F5E091420581E08E0F8093420598
:10143000F0E0ED5BFA4F80818093BB0085EC83C0C8
:101440008093FD048BC0E091420581E08E0F809374
:1014500042058091BB00F0E0ED5BFA4F80839091F4
:101460004205809141056BC0E091420581E08E0FFD
:10147000809342058091BB00F0E0ED5BFA4F8083E2
:101480008091680581116AC081E08093670584EAD4
:101490005EC083E080936A051092FE04CFCF8091F6
:1014A000FE04803208F04EC0E091FE0481E08E0F11
:1014B0008093FE048091BB00F0E0E150FB4F8083FD
:1014C000BDCF0E948E098091FE04803230F4E091FD
:1014D000FE04F0E0E150FB4F10826091FE0470E0EA
:1014E000E0916305F09164058FEF94E00995109207
:1014F000FE0436C084E080936A05109220051092A5
:101500001F05E0916505F0916605099580911F051D
:10151000811105C081E080931F0510922105E091A3
:10152000200581E08E0F80932005F0E0EF5DFA4FFB
:1015300080818093BB009091200580911F059817B2
:1015400008F47CCF85E88093BC000AC085EC8093CA
:10155000BC0010926A0504C01092FD040E94840928
:10156000FF91EF91BF91AF919F918F917F916F917B
:101570005F914F913F912F910F900FBE0F901F9051
:1015800018951F920F920FB60F9211242F933F932D
:101590008F939F93AF93BF9380916C0590916D054E
:1015A000A0916E05B0916F0530916B0523E0230F7C
:1015B0002D3720F40196A11DB11D05C026E8230F8B
:1015C0000296A11DB11D20936B0580936C0590932D
:1015D0006D05A0936E05B0936F0580917005909195
:1015E0007105A0917205B09173050196A11DB11D01
:1015F0008093700590937105A0937205B093730565
:10160000BF91AF919F918F913F912F910F900FBEFE
:101610000F901F9018953FB7F894809170059091A6
:101620007105A0917205B091730526B5A89B05C000
:101630002F3F19F00196A11DB11D3FBF6627782FDE
:10164000892F9A2F620F711D811D911D42E0660F37
:10165000771F881F991F4A95D1F70895CF92DF927F
:10166000EF92FF92CF93DF936B017C010E940B0BF3
:10167000EB01C114D104E104F10489F00E94C3120A
:101680000E940B0B6C1B7D0B683E734090F381E056
:10169000C81AD108E108F108C851DC4FEACFDF9140
:1016A000CF91FF90EF90DF90CF900895789484B51C
:1016B000826084BD84B5816084BD85B5826085BD4E
:1016C00085B5816085BDEEE6F0E080818160808334
:1016D000E1E8F0E010828081826080838081816017
:1016E0008083E0E8F0E0808181608083E1E9F0E0E0
:1016F000808182608083808181608083E0E9F0E086
:10170000808181608083E1ECF0E08081846080836F
:10171000808182608083808181608083E3ECF0E05F
:10172000808181608083E0ECF0E080818260808352
:10173000E2ECF0E0808181608083EAE7F0E0808184
:1017400084608083808182608083808181608083E7
:101750008081806880830895823108F08251E82F6B
:10176000F0E0E653FF4FE49180917B00E3FB2227FA
:1017700020F930E095E0220F331F9A95E1F78F7D35
:10178000822B80937B00E7708091000120E4829F90
:10179000C0011124E82BE0937C0080917A008064E2
:1017A00080937A0080917A0086FDFCCF809178004A
:1017B0002091790090E0922B089590E0FC01319700
:1017C000EF30F105B0F5EA5AFF4F0C941C158091EB
:1017D00080008F7703C0809180008F7D8093800090
:1017E000089580918000877FF9CF84B58F7702C0FC
:1017F00084B58F7D84BD0895809190008F7707C058
:10180000809190008F7D03C080919000877F8093AE
:10181000900008958091C0008F7703C08091C00030
:101820008F7D8093C00008958091C200877F809350
:10183000C2000895CF93DF9390E0FC01EB50FF4F7F
:101840002491FC01EC5EFE4F8491882349F190E0E5
:10185000880F991FFC01EF5BFE4FA591B4918D5C41
:101860009E4FFC01C591D4919FB7611108C0F894B7
:101870008C91209582238C93888182230AC06230C8
:1018800051F4F8948C91322F309583238C93888176
:10189000822B888304C0F8948C91822B8C939FBFF9
:1018A000DF91CF9108950F931F93CF93DF931F92F2
:1018B000CDB7DEB7282F30E0F901EA52FF4F84910F
:1018C000F901EB50FF4F1491F901EC5EFE4F0491CA
:1018D0000023C9F0882321F069830E94DD0B698110
:1018E000E02FF0E0EE0FFF1FED5CFE4FA591B491ED
:1018F0009FB7F8948C91611103C01095812301C0AA
:10190000812B8C939FBF0F90DF91CF911F910F91EF
:101910000895CF93DF931F92CDB7DEB76983DC01C3
:10192000ED91FC910280F381E02D41E050E0BE0199
:101930006F5F7F4F09950F90DF91CF910895CF93FF
:10194000DF93EC018C859D8597FF05C082E00E94A6
:10195000920F9D878C878C859D85DF91CF9108950F
:1019600083E00C940D12FC018485958597FD06C0DB
:1019700082E00E943A0F90E00196089582E00E9472
:101980003A0F90E00895FC018485958597FD05C088
:101990002FEF3FEF35872487089582E00C94920F54
:1019A000CF93DF93EC0180910C01882331F083E029
:1019B0000E94C30F1816190634F081E090E09B8353
:1019C0008A8380E090E0DF91CF910895FC0120812F
:1019D0002E5F208342E450E06FE471E080E80C94D5
:1019E0005E10FC0121818081813A59F4213209F095
:1019F0005CC047E050E065E071E080E00E945E106E
:101A000067C0813209F051C0233289F4838190E0AC
:101A1000982F88273281832BA0E0B0E080930101CA
:101A200090930201A0930301B09304010FC02032F0
:101A300039F467E070E085E091E00E948F100AC001
:101A4000223221F4828180930C0104C02D7F203248
:101A500009F03EC08091050190910601A091070117
:101A6000B0910801803B9440A105B10501F580913A
:101A70000C0180FD1CC0809100089091010890939A
:101A8000FF0A8093FE0A87E797E790930108809307
:101A900000082BE088E190E00FB6F894A8958093B9
:101AA00060000FBE2093600013C080E0089588E1BD
:101AB0000FB6F89480936000109260000FBEA89556
:101AC0008091FE0A9091FF0A90930108809300088C
:101AD00081E008952FEF3FEFFC01358724870895BB
:101AE000109277051092760588EE93E0A0E0B0E0C2
:101AF0008093780590937905A0937A05B0937B0540
:101B00008FE694E090937505809374058FEF9FEFB7
:101B1000909381058093800508956115710581F08A
:101B2000DB010D900020E9F7AD0141505109461B42
:101B3000570BDC01ED91FC910280F381E02D0994BB
:101B400080E090E008950C948D0DDC01ED91FC9106
:101B50000190F081E02D09946BE774E00C948D0DF9
:101B60000F931F93CF93DF93EC010E948D0D8C0197
:101B7000CE010E94AC0D800F911FDF91CF911F917C
:101B80000F9108958F929F92AF92BF92CF92DF9262
:101B9000EF92FF920F931F93CF93DF93CDB7DEB7F2
:101BA000A1970FB6F894DEBF0FBECDBF7C01C42E47
:101BB000E52FCB01D22E19A221E02D1510F02AE03D
:101BC000D22E8E010F5D1F4F8D2C912CA12CB12C8C
:101BD0006C2D7E2FA50194010E94FA148C2DD29EAB
:101BE00080191124015011098A3014F4805D01C05C
:101BF000895CF8018083211531054105510521F0EB
:101C0000C22EE32FCA01E4CFB801C7010E948D0D97
:101C1000A1960FB6F894DEBF0FBECDBFDF91CF9176
:101C20001F910F91FF90EF90DF90CF90BF90AF90FA
:101C30009F908F900895CF92DF92EF92FF920F9333
:101C40001F93CF93DF93EC016A017B0121153105CE
:101C500079F4E881F9810190F081E02D642FDF9122
:101C6000CF911F910F91FF90EF90DF90CF9009944B
:101C70002A303105E9F477FF1AC06DE20E94A50D04
:101C80008C0144275527BA014C195D096E097F095B
:101C90002AE0CE010E94C20D800F911FDF91CF91EB
:101CA0001F910F91FF90EF90DF90CF9008952AE061
:101CB000B701A601CE01DF91CF911F910F91FF9047
:101CC000EF90DF90CF900C94C20D9A01AB01662784
:101CD00057FD6095762F0C941B0E2115310541F4AC
:101CE000DC01ED91FC910190F081E02D642F0994CD
:101CF0000C94C20D9A01462F50E060E070E00C9405
:101D00006D0E615030F02091F100FC0120830196AE
:101D1000F8CF289A84E68093CD0508954091C805B0
:101D20005091C9052091C6053091C7054217530748
:101D3000B4F49091E8009570E1F39091E80092FD81
:101D400019C08093F1008091C8059091C905019652
:101D50008F739927892B19F48EEF8093E800809177
:101D6000C8059091C90501969093C9058093C8054F
:101D700081E0089580E00895CF92DF92EF92FF9284
:101D80000F931F93CF93DF931F92CDB7DEB7082F2A
:101D9000162FF42E862F880F8E5F99830E948E0E49
:101DA00083E00E948E0EE02EC02E9981D92E8C2DBC
:101DB0008E19811798F4F601F7FE02C0849101C0D4
:101DC00080810E948E0E082F80E00E948E0E80235C
:101DD000FFEFCF1ADF0A8111EACF01C081E00F9037
:101DE000DF91CF911F910F91FF90EF90DF90CF90F7
:101DF00008958091D70081608093D70080EA809316
:101E0000D80089B5806189BD89B5826089BD09B472
:101E100000FEFDCF61E070E080E090E00E942E0BBC
:101E20008091D8008F7C80618093D8008091E00001
:101E3000807F8093E0000895CF93DF931F92CDB70A
:101E4000DEB71982CE0101960E94E60C0E944B1368
:101E5000BE016F5F7F4F0E94C41289810F90DF9196
:101E6000CF9108952FB7FC012083F8946770609399
:101E7000E9000895CF93DF931F92CDB7DEB7682FA7
:101E8000CE0101960E94320F8091F20099819FBF8E
:101E90000F90DF91CF910895FF920F931F93CF93EF
:101EA000DF9300D0CDB7DEB7F62E8A019091CC0536
:101EB000992311F057FF03C08FEF9FEF2BC0682FBE
:101EC000CE0101967A830E94320F8091F20090E059
:101ED000A8017A81801791070CF4AC01EF2DF72F40
:101EE000F40E84E6FE1639F0289A8093CD05909181
:101EF000F1009193F7CF4115510521F08091F20047
:101F0000882321F089818FBFCA0104C08BE68093AA
:101F1000E800F8CF0F900F90DF91CF911F910F91B4
:101F2000FF900895CF93DF931F92CDB7DEB741E0C6
:101F300050E0BE016F5F7F4F0E944C0F019719F474
:101F4000898190E002C08FEF9FEF0F90DF91CF91DA
:101F50000895CF93DF931F92CDB7DEB7682FCE01E0
:101F600001960E94320F9091E800892F807295FFB0
:101F700004C09091F20080E4891B99819FBF0F906B
:101F8000DF91CF9108956F927F928F929F92AF923F
:101F9000BF92CF92DF92EF92FF920F931F93CF9356
:101FA000DF931F92CDB7DEB7782E7B01C42EB52EFE
:101FB0008091CC05882369F0042F152F8AEFD82E45
:101FC000872D8072982E9AE3A92E872D8074882EF3
:101FD00011C08FEF9FEF57C0872D0E94A90F682E69
:101FE00081110CC0DA94A9F361E070E080E090E028
:101FF0000E942E0B0115110579F73BC0282F30E008
:10200000021713070CF4602E672DCE0101960E9473
:10201000320F8091E80085FF29C0262D30E0021B99
:10202000130B992039F06A948FEF6816B1F0109273
:10203000F100F9CFF701862D77FE07C0815058F0E7
:1020400094919093F1003196F9CF815020F09191C5
:102050009093F100FACFE20EF31E8091E80085FF25
:102060000FC00115110511F481100AC089818FBFBD
:10207000C1CF5D9A84E68093CE058C2D9B2D03C045
:10208000A092E800F3CF0F90DF91CF911F910F91B5
:10209000FF90EF90DF90CF90BF90AF909F908F9088
:1020A0007F906F9008951092E9001092C9051092E8
:1020B000C8059093C7058093C6050895CF92DF9217
:1020C000FF920F931F93CF93DF9300D0CDB7DEB76E
:1020D000F82E8A016B0101151105B1F0F601F7FE2A
:1020E00002C0849101C0808149835A830E948E0E70
:1020F00001501109FFEFCF1ADF0A49815A8181117E
:10210000EACF8FEF9FEF01C0CA010F900F90DF91D0
:10211000CF911F910F91FF90DF90CF9008951F9363
:10212000CF93DF931F92CDB7DEB7162F2091E80033
:1021300022FFFCCF612F79830E94810E8BEF809369
:10214000E800812F7981972F0F90DF91CF911F9118
:1021500008951F920F920FB60F921124DF92EF9203
:10216000FF920F931F932F933F934F935F936F9320
:102170007F938F939F93AF93BF93EF93FF93CF93EF
:10218000DF93CDB7DEB76C97DEBFCDBF1092E9000D
:102190008091E80083FF23C168E0CE0145960E944C
:1021A000810E82EF8093E8003D8937FF05C0809162
:1021B000E80080FFFCCF03C08EEF8093E800832F00
:1021C000807609F0F0C02E894F89D88C21110CC07F
:1021D000303829F48091CB058093F10002C0109231
:1021E000F1001092F100F4C0842F90E09D2921307D
:1021F00049F43111EDC0019709F0EAC08091CB0597
:102200008D7F0AC0233059F43111E2C0019709F0E3
:10221000DFC08091CB0582608093CB05D9C025308B
:1022200041F48091E80080FFFCCF40684093E300D8
:10223000CFC0263009F08DC0EB8CFC8C22E0D2128E
:102240002CC080E090E00E9453100E941C0F99E087
:102250008E010F5F1F4FF801292F11922A95E9F780
:102260009983DA8291E09E8390EA98879AEF998722
:102270002091C8053091C905275F3F4F3C832B83D0
:102280008D83C7010E94531049E050E0B80180E0FF
:102290000E945E100E941C0F9BC0C7010E94531039
:1022A0000E944B13BE016B5E7F4F0E94ED120097A0
:1022B00019F00CF08DC090C081E0D8120EC08B8D4B
:1022C0009C8D089719F481E08093C5058091C50520
:1022D00081112FC063EA71E031C0E3E0DE127CC0FF
:1022E0008F89882349F1823029F440E86DE081EC40
:1022F00091E01CC0813029F440E86BE085EB91E06F
:1023000015C0833009F068C00E944B138E010F5F27
:102310001F4FB8010E940C13F80101900020E9F74B
:102320003197E01BF10B40E06E2FC8010E94BC0EFC
:102330004DC061E971E002C06FEC71E0611571059B
:1023400009F44AC0FB01449150E080E80E945E100D
:102350003FC0273009F440C0283021F481E0809349
:10236000F10036C02930A1F53370B1F5EEE0F1E0AF
:1023700081E021E036E39081992361F08093E900C8
:102380002093EB0091919093EC003093ED008F5FE0
:10239000873089F78EE78093EA001092EA008F89F0
:1023A0008093CC0515C08B8D9C8D0E945310898D18
:1023B000811105C0CE0145960E94F10C07C00E9414
:1023C0004B13BE016B5E7F4F0E942B13882321F0BD
:1023D0008EEF8093E80003C081E28093EB006C965F
:1023E0000FB6F894DEBF0FBECDBFDF91CF91FF9146
:1023F000EF91BF91AF919F918F917F916F915F917D
:102400004F913F912F911F910F91FF90EF90DF908F
:102410000F900FBE0F901F9018958093E900809148
:10242000F200882319F08AE38093E80008951F9250
:102430000F920FB60F9211242F933F934F935F93F8
:102440006F937F938F939F93AF93BF93CF93EF93AC
:10245000FF93C091E1008091E100837F8093E100D0
:102460008093E100C3FF0FC01092E90081E08093E8
:10247000EB001092EC0082E38093ED001092CC050B
:1024800088E08093F000C2FF19C083E00E940D1223
:102490008091CE05882339F08091CE0581508093BC
:1024A000CE05882389F18091CD05882339F080916C
:1024B000CD0581508093CD05882341F1C4FF10C024
:1024C0008091E2008E7E81608093E2008091E10045
:1024D0008F7E8093E1008091CA058E7E806111C05D
:1024E000C0FF16C08091E2008E7E80618093E20082
:1024F0008091E1008E7E8093E1008091CA058E7EFE
:1025000081608093CA0504C05D98CDCF2898D6CF4E
:10251000FF91EF91CF91BF91AF919F918F917F915B
:102520006F915F914F913F912F910F900FBE0F9040
:102530001F9018951092CC051092CB051092CA05E9
:102540000E94F90EE1EEF0E080818E7E80838DE0C6
:102550008093E200559A209A5D98289808950895EE
:102560000E94560B0E94AF1284EC95E00E949A12D2
:102570000E947E02C0E0D0E00E9414032097E1F3A5
:102580000E940000F9CF0895EF92FF920F931F93DE
:10259000CF93DF937B01FC01C281D38100E010E087
:1025A000209781F0E881F9810280F381E02DB70165
:1025B000CE01099597FD08C0080F191F0884D98519
:1025C000C02DEECFC80102C08FEF9FEFDF91CF91FA
:1025D0001F910F91FF90EF9008950F931F93CF934A
:1025E000DF938B01FC01C281D381209771F0E881D8
:1025F000F9810480F581E02DB801CE01099500979D
:1026000031F40884D985C02DF0CF80E090E0DF91CF
:10261000CF911F910F9108950F931F93CF93DF9345
:102620008B01FC01C281D381209771F0E881F9818F
:102630000680F781E02DB801CE010995080F111D24
:102640000884D985C02DF0CFF8011082DF91CF9199
:102650001F910F9108950F931F93CF93DF938B01D9
:10266000FC01C281D381209771F0E881F98101904A
:10267000F081E02DB801CE010995811106C00884D2
:10268000D985C02DF0CF80E001C081E0DF91CF91EE
:102690001F910F9108958091D30581110DC082E0A3
:1026A0008093CF0584E08093D0051092D2051092DC
:1026B000D10581E08093D3058FEC95E008955058C3
:1026C000BB27AA270ED0E5C0D6D030F0DBD020F053
:1026D00031F49F3F11F41EF4CBC00EF4E095E7FBFC
:1026E000C1C0E92FE7D080F3BA17620773078407E8
:1026F000950718F071F49EF5FFC00EF4E0950B2ECF
:10270000BA2FA02D0B01B90190010C01CA01A00143
:102710001124FF27591B99F0593F50F4503E68F19E
:102720001A16F040A22F232F342F4427585FF3CFDF
:10273000469537952795A795F0405395C9F77EF4B0
:102740001F16BA0B620B730B840BBAF09150A1F0F9
:10275000FF0FBB1F661F771F881FC2F70EC0BA0F7F
:10276000621F731F841F48F4879577956795B79507
:10277000F7959E3F08F0B3CF9395880F08F09927FF
:10278000EE0F97958795089504D06894B111B5C060
:10279000089598D088F09F5790F0B92F9927B75196
:1027A000A0F0D1F0660F771F881F991F1AF0BA9515
:1027B000C9F712C0B13081F09FD0B1E008959CC03C
:1027C000672F782F8827B85F39F0B93FCCF386950B
:1027D00077956795B395D9F73EF490958095709568
:1027E00061957F4F8F4F9F4F0895E89409C097FBE5
:1027F0003EF490958095709561957F4F8F4F9F4FD8
:102800009923A9F0F92F96E9BB279395F69587951B
:1028100077956795B795F111F8CFFAF4BB0F11F4DE
:1028200060FF1BC06F5F7F4F8F4F9F4F16C0882385
:1028300011F096E911C0772321F09EE8872F762FBB
:1028400005C0662371F096E8862F70E060E02AF0FC
:102850009A95660F771F881FDAF7880F96958795E8
:1028600097F9089597F99F6780E870E060E0089510
:102870009FEF80EC089500240A9416161706180698
:102880000906089500240A94121613061406050674
:102890000895092E0394000C11F4882352F0BB0F05
:1028A00040F4BF2B11F460FF04C06F5F7F4F8F4F68
:1028B0009F4F089557FD9058440F551F59F05F3FA3
:1028C00071F04795880F97FB991F61F09F3F79F052
:1028D00087950895121613061406551FF2CF4695D4
:1028E000F1DF08C0161617061806991FF1CF869556
:1028F0007105610508940895E894BB27662777273A
:10290000CB0197F908950BD0C4CFB5DF28F0BADF1B
:1029100018F0952309F0A6CFABCF1124EECFCADF74
:10292000A0F3959FD1F3950F50E0551F629FF001E2
:10293000729FBB27F00DB11D639FAA27F00DB11D3B
:10294000AA1F649F6627B00DA11D661F829F2227C4
:10295000B00DA11D621F739FB00DA11D621F839F4B
:10296000A00D611D221F749F3327A00D611D231F21
:10297000849F600D211D822F762F6A2F11249F576F
:1029800050408AF0E1F088234AF0EE0FFF1FBB1F92
:10299000661F771F881F91505040A9F79E3F510531
:1029A00070F060CFAACF5F3FECF3983EDCF38695E2
:1029B00077956795B795F795E7959F5FC1F7FE2BDC
:1029C000880F911D9695879597F9089597FB072E87
:1029D00016F4009407D077FD09D00E94441507FC37
:1029E00005D03EF4909581959F4F0895709561951F
:1029F0007F4F0895A1E21A2EAA1BBB1BFD010DC03B
:102A0000AA1FBB1FEE1FFF1FA217B307E407F5079E
:102A100020F0A21BB30BE40BF50B661F771F881F7A
:102A2000991F1A9469F760957095809590959B0110
:102A3000AC01BD01CF010895EE0FFF1F0590F49189
:102A4000E02D0994A29FB001B39FC001A39F700D18
:102A5000811D1124911DB29F700D811D1124911DA6
:102A600008950E942215A59F900DB49F900DA49FDC
:102A7000800D911D11240895B7FF0C9431150E940B
:102A80003115821B930B0895AA1BBB1B51E107C094
:102A9000AA1FBB1FA617B70710F0A61BB70B881FEE
:102AA000991F5A95A9F780959095BC01CD0108957D
:042AB000F894FFCFC8
:102AB40001FFFFFFFF00E100000000000000C180F3
:102AC4008100000048545532312053656E736F7293
:102AD4003A20002054656D70657261747572653AB0
:102AE4000043002048756D69646974793A002500D3
:102AF400484948343033302048756D6964697479C5
:102B04002053656E736F722072656164696E67200D
:102B140028302D31303234293A004C6967687420EA
:102B240053656E736F722072656164696E672028E5
:102B3400302D31303234293A00302E20556E6971EF
:102B4400756520426F61726420494420232000305F
:102B54000049492E20546865726D6973746F7273ED
:102B64003A20504153530049492E20546865726DF0
:102B74006973746F72733A204641494C0054686516
:102B8400726D6973746F722056616C7565733A0067
:102B940057652077696C6C20706F776572204F4E93
:102BA40020616C6C2072656C617973206F6E652096
:102BB4006279206F6E652E20596F752073686F756A
:102BC4006C6420686561722035207365706572617C
:102BD400746520636C69636B732E00436C69636B6B
:102BE40020312000436C69636B20322000436C6900
:102BF400636B20332000436C69636B2034200043F3
:102C04006C69636B203500506F776572696E67205D
:102C14006F666620616C6C2072656C6179732E003E
:102C24002D2D2D2D2D2D5761676D616E20456E76EE
:102C340069726F6E6D656E74616C2053656E736F2F
:102C4400727320546573742D2D2D2D2D2D00492E56
:102C5400205761676D616E2052544320546573742C
:102C64003A2000506C65617365207475726E20742F
:102C7400686520626F617264207570736964652091
:102C8400646F776E20616E6420626C6F7720686F6A
:102C94007420616972206F6E20746F2069742E2E07
:102CA4002E00436F756E74696E6720646F776E2EA5
:102CB4002E2E004949492E20484948343033303AB1
:102CC4002050415353004949492E20484948343043
:102CD40033303A204641494C0049562E204C49474E
:102CE40048545F53454E534F523A2050415353007A
:102CF40049562E204C494748545F53454E534F5232
:102D04003A204641494C00562E204854553231440D
:102D14003A205041535300562E20485455323144E2
:102D24003A204641494C00506C65617365207475C6
:102D3400726E2072696768742073696465207570A7
:102D44002C20616E64207761697420746F2068653B
:102D54006172207468652072656C61797320636C9C
:102D640069636B2E2E2E0056492E2052656C6179B4
:102D740020546573743A005649492E205761676D93
:102D8400616E20426F6F742053656C6563746F725B
:102D94002054657374732E20506C656173652075BF
:102DA40073652061206D756C74696D65746572203E
:102DB400776974682074686520626565706572203F
:102DC400656E61626C656420666F7220746865204C
:102DD400666F6C6C6F77696E672074657374732E9D
:102DE400002D2D2D2D2D2D456E64206F6620626FD4
:102DF40061726420746573742D2D2D2D2D2D001F8B
:102E04001C1F1E1F1E1F1F1E1F1E1F00000000D898
:102E140007AB07800788079B07AA07000000008903
:102E24000CD00CB30CC30C9F0CB00C0D0A006E61DB
:0A2E34006E00696E66006F7666009E
:00000001FF
