:100000000C94EE000C941F010C941F010C941F0122
:100010000C941F010C941F010C941F010C941F01E0
:100020000C941F010C941F010C9442120C94D410D8
:100030000C941F010C941F010C941F010C941F01C0
:100040000C941F010C941F010C941F010C941F01B0
:100050000C941F010C941F010C941F010C94EC0ACA
:100060000C941F010C941F010C941F010C941F0190
:100070000C941F010C941F010C941F010C941F0180
:100080000C941F010C941F010C941F010C941F0170
:100090000C94BF090C941F010C941F010C941F01B8
:1000A0000C941F010C941F010C941F01200C230CB5
:1000B000120C160C1C0C440C440C440C270C2B0C7E
:1000C0002F0C350C390C440C3F0C070605040100BD
:1000D000080A0B0C0D090000000200090F000003C4
:1000E0000401000C000000000000000000000000FF
:1000F0000000000000040802011040804010204071
:10010000804080080204018040201002011080100D
:1001100020404020040404040403040502020202F7
:100120000403020202020606060606060404020290
:1001300002040400000000250028002B002E0031DE
:100140000000000000240027002A002D00300008D5
:100150000B0002020201000904000001020200007B
:1001600005240010010524010101042402060524D0
:100170000600010705810310004009040100020A7E
:10018000000000070502024000000705830240004E
:100190000012010002EF02014041233780000101FB
:1001A00002030112010002000000404123378000D9
:1001B000010102030141726475696E6F204C4C436A
:1001C0000041726475696E6F204D6963726F00043F
:1001D00003090400A6044A06D5089B0D11241FBE7E
:1001E000CFEFDAE0DEBFCDBF14BE88E10FB6F894E2
:1001F00080936000109260000FBE14E0A0E0B1E0B8
:10020000E8EFFAE202C005900D92A238B107D9F7E3
:1002100025E0A2E8B4E001C01D92AB3DB207E1F7D2
:1002200011E0CCEDD1E004C02297FE010E94401500
:10023000C43DD107C9F70E94DB120C947A150C94C7
:10024000000061E08DE00E94450C61E089E00E94C1
:10025000450C61E080E00E94450C61E081E00E9475
:10026000450C61E084E00E94450C61E085E10E945C
:10027000450C61E086E00E94450C61E088E00E9448
:10028000450C61E08AE00E94450C61E08CE00E9430
:10029000450C60E085E00E94450C60E087E00E942C
:1002A000450C60E086E10E94450C60E08BE00E9416
:1002B000450C60E087E10C94450CFF920F931F936F
:1002C000CF93DF9361EA74E08AEA94E00E94C50666
:1002D00069E871E084E795E00E94CE0DC1EAD4E0C0
:1002E000F12C8E018881803130F46FE971E084E770
:1002F00095E00E94CE0D219640E150E0F80160812A
:1003000084E795E00E94A50EF7E0FF1631F067E85C
:1003100071E084E795E00E94CE0DF39488E0F81236
:10032000E0CF64E774E084E795E0DF91CF911F911F
:100330000F91FF900C94DB0D0F931F93CF93DF93DE
:1003400082E10E94D70B8C0140E060E089EA94E0F2
:100350000E94F90589EA94E00E941806EC0185E004
:10036000D695C7958A95E1F7C00FD11F40E061E0AF
:1003700089EA94E00E94F90589EA94E00E9418064F
:1003800025E0969587952A95E1F7C80FD91F40E09B
:1003900062E089EA94E00E94F90589EA94E00E940B
:1003A000180635E0969587953A95E1F7C80FD91F5D
:1003B00040E063E089EA94E00E94F90589EA94E06C
:1003C0000E94180645E0969587954A95E1F78C0FAF
:1003D0009D1F0A9718F461EA71E002C067EB71E0B3
:1003E00084E795E0DF91CF911F910F910C94DB0D85
:1003F00060E080E00E947E0C61E084E00E947E0C60
:1004000062E070E080E090E00E94590B61E080E0E3
:100410000E947E0C62E070E080E090E00E94590B48
:1004200060E080E00E947E0C62E070E080E090E09E
:100430000C94590B61E086E00C947E0C61E088E03E
:100440000C947E0C61E08AE00C947E0C61E08CE000
:100450000C947E0C60E080E00E947E0C60E084E002
:100460000E947E0C62E070E080E090E00E94590BF8
:1004700061E080E00E947E0C62E070E080E090E04D
:100480000E94590B60E080E00E947E0C62E070E008
:1004900080E090E00C94590B60E086E00C947E0CB8
:1004A00060E088E00C947E0C60E08AE00C947E0CA6
:1004B00060E08CE00C947E0C0E942A0268EC70E0F4
:1004C00080E090E00E94590B0E944C0268EC70E0C2
:1004D00080E090E00E94590B0E94500268EC70E0AE
:1004E00080E090E00E94590B0E94540268EC70E09A
:1004F00080E090E00E94590B0C94580268EE73E083
:1005000080E090E00E94590B0E94210168EE73E0A8
:1005100080E090E00E94590B0E945C0240E052ECA7
:1005200061E070E084E795E00E94950D8BEA94E02D
:100530000E94420868EE73E080E090E00E94590B50
:1005400041E061E089EA94E00E94CE0580EA94E00F
:100550000C94B20460EE71E084E795E00E94DB0D3C
:100560006BE272E084E795E00E94CE0D0E94F801F4
:1005700060ED77E080E090E00E94590B64E372E068
:1005800084E795E00E94CE0D0E941A0260ED77E0AC
:1005900080E090E00E94590B6DE372E084E795E003
:1005A0000E94CE0D0E941E0260ED77E080E090E098
:1005B0000E94590B66E472E084E795E00E94CE0D3C
:1005C0000E94220260ED77E080E090E00E94590BEB
:1005D0006FE472E084E795E00E94DB0D0E94260242
:1005E00060ED77E080E090E00E94590B67E572E0F3
:1005F00084E795E00E94DB0D0E945C0268EE73E0E8
:1006000080E090E00C94590B61E081E00C947E0C4A
:1006100060E081E00C947E0C61E085E10C947E0C3E
:1006200060E085E10C947E0C60E772E084E795E081
:100630000E94DB0D64E774E084E795E00E94DB0D27
:100640000E945D016EE972E084E795E00E94CE0DA4
:100650000E94A40660939C0470939D0480939E0462
:1006600090939F0468EE73E080E090E00E94590B45
:100670000E94A40600919C0410919D0420919E0468
:1006800030919F04601771078207930719F068E0A3
:1006900073E002C06BE173E084E795E00E94DB0D3C
:1006A0000E949C0184E10E94D70B90939704809351
:1006B000960483E10E94D70B909393048093920455
:1006C00080EA94E00E94DE0460938A0470938B04B5
:1006D00080938C0490938D0480EA94E00E945605E8
:1006E00060938204709383048093840490938504C0
:1006F00063E774E084E795E00E94DB0D63EB72E052
:1007000084E795E00E94DB0D68E57BE180E090E006
:100710000E94590B69EE72E084E795E00E94CE0DCD
:1007200085E090E090939B0480939A0460919A04F2
:1007300070919B0416161706D4F4615071094AE0B3
:1007400050E084E795E00E94900E6DE971E084E747
:1007500095E00E94CE0D6EED73E080E090E00E9487
:10076000590B80919A0490919B040197DBCF64EF21
:1007700071E080E090E00E94590B63E774E084E749
:1007800095E00E94DB0D84E10E94D70B90939904C1
:100790008093980483E10E94D70B909395048093F3
:1007A000940480EA94E00E94DE0460938E047093C7
:1007B0008F04809390049093910480EA94E00E94C7
:1007C0005605609386047093870480938804909301
:1007D000890480919604909197040497209198043D
:1007E00030919904281739071CF06AEF72E002C0B3
:1007F0006DE073E084E795E00E94DB0D20919404A6
:1008000030919504809192049091930428173907B0
:100810001CF460E273E002C067E373E084E795E0F4
:100820000E94DB0D20E030E040EC5FE360918A0441
:1008300070918B0480918C0490918D040E948A1396
:100840009B01AC0160918E0470918F0480919004A3
:10085000909191040E94A1141816FCF420E030E05D
:1008600040E05FE36091820470918304809184048E
:10087000909185040E948B139B01AC0160918604CA
:100880007091870480918804909189040E94A1143A
:1008900018161CF46EE473E002C06EE573E084E7A2
:1008A00095E00E94DB0D63E774E084E795E00E9429
:1008B000DB0D6EE673E084E795E00E94DB0D68E8EF
:1008C00073E180E090E00E94590B63E774E084E7F5
:1008D00095E00E94DB0D6EEA73E084E795E00E94EC
:1008E000DB0D0E94AA0264E774E084E795E00E94B1
:1008F000DB0D6EEB73E084E795E00E94DB0D64E7AF
:1009000074E084E795E00E94DB0D64E774E084E71F
:1009100095E00E94DB0D68E274E084E795E00E94B8
:10092000DB0D0E9410030E94080360ED77E080E079
:1009300090E00E94590B0E940C030E94040360ED9A
:1009400077E080E090E00E94590BEBCF80EA94E0E2
:100950000C94B104DC01ED91FC910190F081E02D4B
:100960000994089508950F931F93CB01A0E0B0E080
:10097000BA2FA92F982F8827842BE7E1F0E040E0D9
:1009800050E868E970E08C019D010E2E04C0369598
:100990002795179507950A94D2F700FF04C084277E
:1009A0009527A627B7277695679557954795319749
:1009B000E730F10541F71F910F910895EF92FF92F3
:1009C0000F931F93CF93DF937C0160E470E08BEA79
:1009D00094E00E94560865EF70E08BEA94E00E9474
:1009E000AA048BEA94E00E94D20867E370E080E0FA
:1009F00090E00E94590B43E050E060E470E08BEA25
:100A000094E00E94CF0805E610E08BEA94E00E9493
:100A1000AB07039774F461E070E080E090E00E941F
:100A2000590B0150110989F760E070E889E794E4F7
:100A300036C08BEA94E00E94B307082F8BEA94E05B
:100A40000E94B307182F8BEA94E00E94B307D02FBF
:100A500090E0C92FC12B482FBE01C7010E94B304EB
:100A6000811119C0BE016C7F80E090E00E94EF13FD
:100A700020E030E040E857E30E94A51420E030E099
:100A80004AEF52E40E94A51420E030E040EC50E42C
:100A90000E948A1304C060E070EC89E794E4DF915F
:100AA000CF911F910F91FF90EF900895EF92FF92D9
:100AB0000F931F93CF93DF937C0160E470E08BEA88
:100AC00094E00E94560863EF70E08BEA94E00E9485
:100AD000AA048BEA94E00E94D20867E370E080E009
:100AE00090E00E94590B43E050E060E470E08BEA34
:100AF00094E00E94CF0805E610E08BEA94E00E94A3
:100B0000AB07039774F461E070E080E090E00E942E
:100B1000590B0150110989F760E070E889E794E406
:100B200036C08BEA94E00E94B307082F8BEA94E06A
:100B30000E94B307182F8BEA94E00E94B307D02FCE
:100B400090E0C92FC12B482FBE01C7010E94B304FA
:100B5000811119C0BE016C7F80E090E00E94EF130C
:100B600020E030E040E857E30E94A51422E538EB8E
:100B70004FE253E40E94A51426E636E64BE352E426
:100B80000E948A1304C060E070EC89E794E4DF916E
:100B9000CF911F910F91FF90EF900895FC0161118B
:100BA00003C0411107C004C0623061F44230C1F497
:100BB00088E61DC0423011F489E619C04130C1F405
:100BC0008AE615C06130A1F4411102C08CE60FC065
:100BD000423011F48DE60BC0413051F48EE607C06F
:100BE000411102C08BE603C0413011F48FE68083CF
:100BF0000895CF93DF931F92CDB7DEB7486850E2D8
:100C0000659F90011124422BFC0160818BEA94E0E6
:100C100049830E944C084981642F8BEA94E00E942A
:100C200003088BEA94E00F90DF91CF910C94D208E7
:100C30000F931F93CF93DF938C0160E570E080E00A
:100C400090E00E94590B43E0F80160818BEA94E048
:100C50000E94CC088BEA94E00E94B307082F8BEA2D
:100C600094E00E94B307182F8BEA94E00E94B30728
:100C7000D02FF0E0CF2FCE01812BDF91CF911F91AC
:100C80000F910895982F92959F702AEF929F800D53
:100C9000112408958BEA94E00C944208CF93DF93DB
:100CA000EC016FE670E08BEA94E00E94560860E089
:100CB0008BEA94E00E9403088BEA94E00E94D20839
:100CC00081113EC047E050E06FE670E08BEA94E0AF
:100CD0000E94CF088BEA94E00E94B3078F770E94AE
:100CE000420688838BEA94E00E94B3070E94420682
:100CF00089838BEA94E00E94B3078F7B0E944206AF
:100D00008A838BEA94E00E94B307877C8B838BEA0B
:100D100094E00E94B3070E9442068C838BEA94E021
:100D20000E94B3078F7D0E9442068D838BEA94E078
:100D30000E94B3070E944206825E8E8381E001C05A
:100D400080E0DF91CF910895CF93DF93CDB7DEB7E9
:100D500027970FB6F894DEBF0FBECDBFCE01019628
:100D60000E944E06882329F0CE0101960E94F006CB
:100D700003C060E070E0CB0127960FB6F894DEBFA9
:100D80000FBECDBFDF91CF9108950F931F93CF93E7
:100D9000DF938B0167E570E08BEA94E00E945608D0
:100DA00060EF70E08BEA94E00E94AA048BEA94E082
:100DB0000E94D20848E050E067E570E08BEA94E0DA
:100DC0000E94CF08E80118E08BEA94E00E94B30784
:100DD00089931150C9F7DF91CF911F910F91089519
:100DE0006F927F928F929F92AF92BF92CF92DF923B
:100DF000EF92FF920F931F93CF93DF93FC01C68076
:100E0000AC2DB0E020E833E341EE51E00E945315F1
:100E10004B015C0122EB37E06D01C4E6D0E000E954
:100E200011E0C901825B97408C159D05DCF4C90176
:100E300083709927892B99F4C901BE010E94081576
:100E4000892B31F4C901B8010E940815892B39F4A6
:100E500080E8880E81E5981E81E0A81EB11C2F5FF6
:100E60003F4FDFCF6580712C8EE4C81A88EFD80A17
:100E7000C60164E670E00E9408158C01C60160E9B5
:100E800071E00E9408157C01C1E0D0E083E0C82237
:100E9000DD24C615D7052CF5C230D10589F4C1145F
:100EA000D10471F40115110519F4E114F10441F4B0
:100EB00080E8880E8BE3981E86E2A81EB11C0FC046
:100EC000DE01AB5BBB4FAC91B0E020E831E541E027
:100ED00050E00E945315860E971EA81EB91E21963B
:100EE000D8CF4181228130E0A0E1BEE00E944415CC
:100EF0006B017C01242F30E0ACE3B0E00E9444158C
:100F0000C60ED71EE81EF91E8081C80ED11CE11C3A
:100F1000F11CA481B0E0119720E831E541E050E0F8
:100F20000E945E15C60ED71EE81EF91EC80CD91CFD
:100F3000EA1CFB1CC701B601DF91CF911F910F91F5
:100F4000FF90EF90DF90CF90BF90AF909F908F90E9
:100F50007F906F9008958091DB0490E02091DC04F5
:100F6000821B910908952091DC048091DB042817ED
:100F700050F4E22FF0E0E352FB4F808190E02F5FCE
:100F80002093DC0408958FEF9FEF0895E091DC0437
:100F90008091DB04E81730F4F0E0E352FB4F8081EE
:100FA00090E008958FEF9FEF08950895CF92DF921C
:100FB000EF92FF920F931F93CF93DF937C01CB01AE
:100FC0008A012091B704222389F0EB016B01C40E42
:100FD000D51ECC15DD0569F06991D701ED91FC9125
:100FE0000190F081E02DC7010995F3CF642F0E9495
:100FF0009609C801DF91CF911F910F91FF90EF905B
:10100000DF90CF900895CF93DF931F92CDB7DEB7D7
:1010100069832091B7042223D1F02091B8042032B3
:1010200040F021E030E0FC013383228380E090E057
:1010300015C08091B904E82FF0E0E654FB4F998188
:1010400090838F5F8093B9048093B80405C061E0FA
:10105000CE0101960E94960981E090E00F90DF9109
:10106000CF910895FC011382128248EE53E060E0B4
:1010700070E0448355836683778386E594E09183AB
:10108000808308951092DC041092DB041092B9045E
:101090001092B8040C94D90881E08093B70460934F
:1010A000DA041092B9041092B80408950C944C0814
:1010B0000F93062F21E04091B8046AEB74E0809111
:1010C000DA040E943F091092B9041092B8041092F9
:1010D000B7040F9108958F929F92AF92BF92CF92D3
:1010E000DF92EF92FF920F931F93CF93DF93EC0168
:1010F000F62ED42E48015901EE2019F10E944C0819
:101100001E2D143008F013E01150B8F0E881F98179
:1011100028E0129FB0011124A501940104C0569546
:101120004795379527956A95D2F7CA01B90101907D
:10113000F081E02DCE010995E7CF60E0CE010E945D
:1011400058084D2D413208F040E22C2D6DED74E031
:101150008F2D0E94F7081092DC048093DB04DF914E
:10116000CF911F910F91FF90EF90DF90CF90BF90A4
:10117000AF909F908F900895CF92EF920F931F930F
:10118000C22EE12C00E010E098010E946B081F9134
:101190000F91EF90CF90089521E00C94BC0821E0CE
:1011A0000C94BC0861E00C9458088BEA94E00C9411
:1011B000320810926A0581E08093680510926705F5
:1011C00061E082E00E947E0C61E083E00E947E0C80
:1011D000E9EBF0E080818E7F808380818D7F80834A
:1011E00088E48093B80085E48093BC000895413280
:1011F00008F043C090916A059111FCCF91E0909363
:101200006A05209368052FEF2093FD041092420594
:10121000240F209341059093690590916905880FEB
:10122000892B8093690580916705813061F4109264
:101230006705809169058093BB008091BC0083FDA8
:10124000F8CF85EC01C085EE8093BC0080916A05E3
:101250008130E1F380914205841710F440914205FA
:1012600023E435E0FB01D9018A2F821B841718F48F
:101270008D918193F9CF842F089580E008950F9385
:10128000413208F04AC090916A059111FCCF92E07A
:1012900090936A05009368059FEF9093FD04109268
:1012A000420540934105FB0163E475E0DB019A2FA1
:1012B000961B941718F491919D93F9CF109269059C
:1012C00090916905880F892B809369058091670546
:1012D000813061F410926705809169058093BB00AD
:1012E0008091BC0083FDF8CF85EC01C085EE809332
:1012F000BC00222321F080916A058230E1F38091C5
:10130000FD048F3F61F08091FD04803251F08091A7
:10131000FD04803341F483E007C081E005C080E034
:1013200003C082E001C084E00F910895613298F417
:1013300020916A05243089F460931F05FC0181E245
:1013400095E0DC012A2F281B261718F421912D93F4
:10135000F9CF80E0089581E0089582E0089585ED59
:101360008093BC008091BC0084FDFCCF10926A0584
:10137000089585EC8093BC0010926A0508951F9231
:101380000F920FB60F9211242F933F934F935F93B9
:101390006F937F938F939F93AF93BF93EF93FF933D
:1013A0008091B900887F803609F49EC078F5883234
:1013B00009F45DC090F4803109F456C038F48823F4
:1013C00009F4F5C0883009F44FC0F5C0883109F43C
:1013D0004EC0803209F45FC0EEC0803409F46AC0A8
:1013E00058F4803309F457C0883309F0E4C080937F
:1013F000FD040E94B909DFC0803509F44FC088356B
:1014000009F45DC0883409F0D6C0D3C0883909F426
:10141000C4C0A8F4883709F467C038F4883609F4E2
:1014200063C0803709F460C0C6C0883809F4B5C00D
:10143000803909F45FC0803809F0BDC05BC0803BD3
:1014400009F483C038F4803A09F466C0883A09F494
:101450007CC0B1C0803C09F4A4C0883C09F4A1C0A0
:10146000883B09F487C0A7C08091690510C090919E
:10147000420580914105981770F5E091420581E0A1
:101480008E0F80934205F0E0ED5BFA4F80818093F0
:10149000BB0085EC83C08093FD048BC0E0914205C6
:1014A00081E08E0F809342058091BB00F0E0ED5B00
:1014B000FA4F808390914205809141056BC0E09185
:1014C000420581E08E0F809342058091BB00F0E0E1
:1014D000ED5BFA4F80838091680581116AC081E0DD
:1014E0008093670584EA5EC083E080936A0510926A
:1014F000FE04CFCF8091FE04803208F04EC0E09110
:10150000FE0481E08E0F8093FE048091BB00F0E02A
:10151000E150FB4F8083BDCF0E94B9098091FE044A
:10152000803230F4E091FE04F0E0E150FB4F108295
:101530006091FE0470E0E0916305F09164058FEF27
:1015400094E009951092FE0436C084E080936A0509
:101550001092200510921F05E0916505F091660537
:10156000099580911F05811105C081E080931F05B9
:1015700010922105E091200581E08E0F80932005D7
:10158000F0E0EF5DFA4F80818093BB0090912005E1
:1015900080911F05981708F47CCF85E88093BC00E4
:1015A0000AC085EC8093BC0010926A0504C01092BA
:1015B000FD040E94AF09FF91EF91BF91AF919F9100
:1015C0008F917F916F915F914F913F912F910F90EC
:1015D0000FBE0F901F9018951F920F920FB60F928B
:1015E00011242F933F938F939F93AF93BF93809139
:1015F0006C0590916D05A0916E05B0916F053091CD
:101600006B0523E0230F2D3720F40196A11DB11D9A
:1016100005C026E8230F0296A11DB11D20936B057E
:1016200080936C0590936D05A0936E05B0936F0544
:101630008091700590917105A0917205B09173052C
:101640000196A11DB11D8093700590937105A09323
:101650007205B0937305BF91AF919F918F913F91A8
:101660002F910F900FBE0F901F9018953FB7F894D1
:101670008091700590917105A0917205B0917305EC
:1016800026B5A89B05C02F3F19F00196A11DB11DDD
:101690003FBF6627782F892F9A2F620F711D811DFA
:1016A000911D42E0660F771F881F991F4A95D1F759
:1016B0000895CF92DF92EF92FF92CF93DF936B0169
:1016C0007C010E94360BEB01C114D104E104F1044A
:1016D00089F00E94EE120E94360B6C1B7D0B683E57
:1016E000734090F381E0C81AD108E108F108C851AD
:1016F000DC4FEACFDF91CF91FF90EF90DF90CF905A
:101700000895789484B5826084BD84B5816084BD79
:1017100085B5826085BD85B5816085BDEEE6F0E06A
:10172000808181608083E1E8F0E0108280818260C6
:101730008083808181608083E0E8F0E08081816047
:101740008083E1E9F0E08081826080838081816034
:101750008083E0E9F0E0808181608083E1ECF0E06B
:1017600080818460808380818260808380818160C9
:101770008083E3ECF0E0808181608083E0ECF0E046
:10178000808182608083E2ECF0E0808181608083F0
:10179000EAE7F0E0808184608083808182608083DA
:1017A0008081816080838081806880830895823118
:1017B00008F08251E82FF0E0E653FF4FE49180916A
:1017C0007B00E3FB222720F930E095E0220F331F56
:1017D0009A95E1F78F7D822B80937B00E770809153
:1017E000000120E4829FC0011124E82BE0937C00DB
:1017F00080917A00806480937A0080917A0086FDDF
:10180000FCCF809178002091790090E0922B089590
:1018100090E0FC013197EF30F105B0F5EA5AFF4F47
:101820000C943E15809180008F7703C080918000DA
:101830008F7D80938000089580918000877FF9CF0D
:1018400084B58F7702C084B58F7D84BD0895809163
:1018500090008F7707C0809190008F7D03C08091AA
:101860009000877F8093900008958091C0008F77CB
:1018700003C08091C0008F7D8093C0000895809147
:10188000C200877F8093C2000895CF93DF9390E0DA
:10189000FC01EB50FF4F2491FC01EC5EFE4F849164
:1018A000882349F190E0880F991FFC01EF5BFE4F00
:1018B000A591B4918D5C9E4FFC01C591D4919FB7C9
:1018C000611108C0F8948C91209582238C938881B3
:1018D00082230AC0623051F4F8948C91322F3095F3
:1018E00083238C938881822B888304C0F8948C9105
:1018F000822B8C939FBFDF91CF9108950F931F93FD
:10190000CF93DF931F92CDB7DEB7282F30E0F901D8
:10191000EA52FF4F8491F901EB50FF4F1491F90106
:10192000EC5EFE4F04910023C9F0882321F0698307
:101930000E94080C6981E02FF0E0EE0FFF1FED5CC4
:10194000FE4FA591B4919FB7F8948C91611103C09B
:101950001095812301C0812B8C939FBF0F90DF9145
:10196000CF911F910F910895CF93DF931F92CDB721
:10197000DEB76983DC01ED91FC910280F381E02DFB
:1019800041E050E0BE016F5F7F4F09950F90DF91FE
:10199000CF910895CF93DF93EC018C859D8597FFC0
:1019A00005C082E00E94BD0F9D878C878C859D8538
:1019B000DF91CF91089583E00C943812FC01848567
:1019C000958597FD06C082E00E94650F90E0019624
:1019D000089582E00E94650F90E00895FC018485DF
:1019E000958597FD05C02FEF3FEF35872487089534
:1019F00082E00C94BD0FCF93DF93EC0180910C013A
:101A0000882331F083E00E94EE0F1816190634F097
:101A100081E090E09B838A8380E090E0DF91CF912A
:101A20000895FC0120812E5F208342E450E06FE4A2
:101A300071E080E80C948910FC0121818081813A59
:101A400059F4213209F05CC047E050E065E071E0F4
:101A500080E00E94891067C0813209F051C02332B2
:101A600089F4838190E0982F88273281832BA0E02E
:101A7000B0E08093010190930201A0930301B09321
:101A800004010FC0203239F467E070E085E091E096
:101A90000E94BA100AC0223221F4828180930C0184
:101AA00004C02D7F203209F03EC080910501909145
:101AB0000601A0910701B0910801803B9440A10567
:101AC000B10501F580910C0180FD1CC080910008DA
:101AD000909101089093FF0A8093FE0A87E797E7A9
:101AE00090930108809300082BE088E190E00FB606
:101AF000F894A895809360000FBE2093600013C0F7
:101B000080E0089588E10FB6F89480936000109209
:101B100060000FBEA8958091FE0A9091FF0A9093F5
:101B200001088093000881E008952FEF3FEFFC014A
:101B3000358724870895109277051092760588EEF0
:101B400093E0A0E0B0E08093780590937905A093AE
:101B50007A05B0937B0586E694E0909375058093B3
:101B600074058FEF9FEF9093810580938005089512
:101B70006115710581F0DB010D900020E9F7AD01E1
:101B800041505109461B570BDC01ED91FC9102803D
:101B9000F381E02D099480E090E008950C94B80D55
:101BA000DC01ED91FC910190F081E02D099462E758
:101BB00074E00C94B80D0F931F93CF93DF93EC0157
:101BC0000E94B80D8C01CE010E94D70D800F911F8D
:101BD000DF91CF911F910F9108958F929F92AF92B5
:101BE000BF92CF92DF92EF92FF920F931F93CF930A
:101BF000DF93CDB7DEB7A1970FB6F894DEBF0FBE67
:101C0000CDBF7C01C42EE52FCB01D22E19A221E03D
:101C10002D1510F02AE0D22E8E010F5D1F4F8D2C56
:101C2000912CA12CB12C6C2D7E2FA50194010E942A
:101C30001C158C2DD29E80191124015011098A3057
:101C400014F4805D01C0895CF801808321153105A1
:101C50004105510521F0C22EE32FCA01E4CFB8019E
:101C6000C7010E94B80DA1960FB6F894DEBF0FBE53
:101C7000CDBFDF91CF911F910F91FF90EF90DF903B
:101C8000CF90BF90AF909F908F900895CF92DF92AA
:101C9000EF92FF920F931F93CF93DF93EC016A01B2
:101CA0007B012115310579F4E881F9810190F081FA
:101CB000E02D642FDF91CF911F910F91FF90EF9056
:101CC000DF90CF9009942A303105E9F477FF1AC0EC
:101CD0006DE20E94D00D8C0144275527BA014C19A2
:101CE0005D096E097F092AE0CE010E94ED0D800F8B
:101CF000911FDF91CF911F910F91FF90EF90DF9097
:101D0000CF9008952AE0B701A601CE01DF91CF91CF
:101D10001F910F91FF90EF90DF90CF900C94ED0DFD
:101D20009A01AB01662757FD6095762F0C94460EFD
:101D30002115310541F4DC01ED91FC910190F08118
:101D4000E02D642F09940C94ED0D9A01462F50E07C
:101D500060E070E00C94980E615030F02091F1003A
:101D6000FC0120830196F8CF289A84E68093CD0564
:101D700008954091C8055091C9052091C60530913C
:101D8000C70542175307B4F49091E8009570E1F34A
:101D90009091E80092FD19C08093F1008091C805F0
:101DA0009091C90501968F739927892B19F48EEFAD
:101DB0008093E8008091C8059091C90501969093A1
:101DC000C9058093C80581E0089580E00895CF9209
:101DD000DF92EF92FF920F931F93CF93DF931F92A7
:101DE000CDB7DEB7082F162FF42E862F880F8E5F03
:101DF00099830E94B90E83E00E94B90EE02EC02E96
:101E00009981D92E8C2D8E19811798F4F601F7FE41
:101E100002C0849101C080810E94B90E082F80E029
:101E20000E94B90E8023FFEFCF1ADF0A8111EACF9B
:101E300001C081E00F90DF91CF911F910F91FF9032
:101E4000EF90DF90CF9008958091D70081608093CC
:101E5000D70080EA8093D80089B5806189BD89B5B3
:101E6000826089BD09B400FEFDCF61E070E080E0D2
:101E700090E00E94590B8091D8008F7C8061809304
:101E8000D8008091E000807F8093E0000895CF9398
:101E9000DF931F92CDB7DEB71982CE0101960E9463
:101EA000110D0E947613BE016F5F7F4F0E94EF12EB
:101EB00089810F90DF91CF9108952FB7FC01208386
:101EC000F89467706093E9000895CF93DF931F92B1
:101ED000CDB7DEB7682FCE0101960E945D0F8091CD
:101EE000F20099819FBF0F90DF91CF910895FF92EB
:101EF0000F931F93CF93DF9300D0CDB7DEB7F62EAD
:101F00008A019091CC05992311F057FF03C08FEF00
:101F10009FEF2BC0682FCE0101967A830E945D0F40
:101F20008091F20090E0A8017A81801791070CF46B
:101F3000AC01EF2DF72FF40E84E6FE1639F0289A47
:101F40008093CD059091F1009193F7CF4115510504
:101F500021F08091F200882321F089818FBFCA018E
:101F600004C08BE68093E800F8CF0F900F90DF91CC
:101F7000CF911F910F91FF900895CF93DF931F9200
:101F8000CDB7DEB741E050E0BE016F5F7F4F0E94EA
:101F9000770F019719F4898190E002C08FEF9FEFCE
:101FA0000F90DF91CF910895CF93DF931F92CDB71C
:101FB000DEB7682FCE0101960E945D0F9091E80078
:101FC000892F807295FF04C09091F20080E4891BF4
:101FD00099819FBF0F90DF91CF9108956F927F926B
:101FE0008F929F92AF92BF92CF92DF92EF92FF9229
:101FF0000F931F93CF93DF931F92CDB7DEB7782E49
:102000007B01C42EB52E8091CC05882369F0042F66
:10201000152F8AEFD82E872D8072982E9AE3A92E3D
:10202000872D8074882E11C08FEF9FEF57C0872DAA
:102030000E94D40F682E81110CC0DA94A9F361E0DC
:1020400070E080E090E00E94590B0115110579F7CE
:102050003BC0282F30E0021713070CF4602E672DC9
:10206000CE0101960E945D0F8091E80085FF29C096
:10207000262D30E0021B130B992039F06A948FEF64
:102080006816B1F01092F100F9CFF701862D77FEB6
:1020900007C0815058F094919093F1003196F9CF98
:1020A000815020F091919093F100FACFE20EF31E4F
:1020B0008091E80085FF0FC00115110511F4811012
:1020C0000AC089818FBFC1CF5D9A84E68093CE0517
:1020D0008C2D9B2D03C0A092E800F3CF0F90DF91D1
:1020E000CF911F910F91FF90EF90DF90CF90BF9015
:1020F000AF909F908F907F906F9008951092E9001D
:102100001092C9051092C8059093C7058093C60523
:102110000895CF92DF92FF920F931F93CF93DF9397
:1021200000D0CDB7DEB7F82E8A016B01011511057D
:10213000B1F0F601F7FE02C0849101C080814983AD
:102140005A830E94B90E01501109FFEFCF1ADF0A1E
:1021500049815A818111EACF8FEF9FEF01C0CA01F7
:102160000F900F90DF91CF911F910F91FF90DF9013
:10217000CF9008951F93CF93DF931F92CDB7DEB713
:10218000162F2091E80022FFFCCF612F79830E9457
:10219000AC0E8BEF8093E800812F7981972F0F9001
:1021A000DF91CF911F9108951F920F920FB60F925A
:1021B0001124DF92EF92FF920F931F932F933F937F
:1021C0004F935F936F937F938F939F93AF93BF933F
:1021D000EF93FF93CF93DF93CDB7DEB76C97DEBF5E
:1021E000CDBF1092E9008091E80083FF23C168E031
:1021F000CE0145960E94AC0E82EF8093E8003D89A7
:1022000037FF05C08091E80080FFFCCF03C08EEF50
:102210008093E800832F807609F0F0C02E894F89E3
:10222000D88C21110CC0303829F48091CB058093D3
:10223000F10002C01092F1001092F100F4C0842F5E
:1022400090E09D29213049F43111EDC0019709F04A
:10225000EAC08091CB058D7F0AC0233059F431113B
:10226000E2C0019709F0DFC08091CB0582608093C6
:10227000CB05D9C0253041F48091E80080FFFCCF28
:1022800040684093E300CFC0263009F08DC0EB8C4E
:10229000FC8C22E0D2122CC080E090E00E947E10E4
:1022A0000E94470F99E08E010F5F1F4FF801292F01
:1022B00011922A95E9F79983DA8291E09E8390EA58
:1022C00098879AEF99872091C8053091C905275FB3
:1022D0003F4F3C832B838D83C7010E947E1049E0D2
:1022E00050E0B80180E00E9489100E94470F9BC017
:1022F000C7010E947E100E947613BE016B5E7F4F65
:102300000E941813009719F00CF08DC090C081E066
:10231000D8120EC08B8D9C8D089719F481E08093A4
:10232000C5058091C50581112FC063EA71E031C0F8
:10233000E3E0DE127CC08F89882349F1823029F4E2
:1023400040E86DE081EC91E01CC0813029F440E868
:102350006BE085EB91E015C0833009F068C00E9406
:1023600076138E010F5F1F4FB8010E943713F801DB
:1023700001900020E9F73197E01BF10B40E06E2F50
:10238000C8010E94E70E4DC061E971E002C06FEC28
:1023900071E06115710509F44AC0FB01449150E0F8
:1023A00080E80E9489103FC0273009F440C02830DF
:1023B00021F481E08093F10036C02930A1F533701B
:1023C000B1F5EEE0F1E081E021E036E39081992380
:1023D00061F08093E9002093EB0091919093EC00E1
:1023E0003093ED008F5F873089F78EE78093EA00A6
:1023F0001092EA008F898093CC0515C08B8D9C8D3F
:102400000E947E10898D811105C0CE0145960E94E3
:102410001C0D07C00E947613BE016B5E7F4F0E94A9
:102420005613882321F08EEF8093E80003C081E2E9
:102430008093EB006C960FB6F894DEBF0FBECDBF55
:10244000DF91CF91FF91EF91BF91AF919F918F91CC
:102450007F916F915F914F913F912F911F910F91BC
:10246000FF90EF90DF900F900FBE0F901F90189588
:102470008093E9008091F200882319F08AE3809329
:10248000E80008951F920F920FB60F9211242F9318
:102490003F934F935F936F937F938F939F93AF93EC
:1024A000BF93CF93EF93FF93C091E1008091E10040
:1024B000837F8093E1008093E100C3FF0FC01092FF
:1024C000E90081E08093EB001092EC0082E38093BE
:1024D000ED001092CC0588E08093F000C2FF19C097
:1024E00083E00E9438128091CE05882339F08091D4
:1024F000CE0581508093CE05882389F18091CD054A
:10250000882339F08091CD0581508093CD058823B3
:1025100041F1C4FF10C08091E2008E7E8160809303
:10252000E2008091E1008F7E8093E1008091CA05F6
:102530008E7E806111C0C0FF16C08091E2008E7E49
:1025400080618093E2008091E1008E7E8093E100C3
:102550008091CA058E7E81608093CA0504C05D9813
:10256000CDCF2898D6CFFF91EF91CF91BF91AF916A
:102570009F918F917F916F915F914F913F912F919B
:102580000F900FBE0F901F9018951092CC051092CF
:10259000CB051092CA050E94240FE1EEF0E0808185
:1025A0008E7E80838DE08093E200559A209A5D981C
:1025B0002898089508950E94810B0E94DA1284ECF5
:1025C00095E00E94C5120E947E02C0E0D0E00E9409
:1025D00014032097E1F30E940000F9CF0895EF92D1
:1025E000FF920F931F93CF93DF937B01FC01C28176
:1025F000D38100E010E0209781F0E881F98102802A
:10260000F381E02DB701CE01099597FD08C0080FB1
:10261000191F0884D985C02DEECFC80102C08FEFE5
:102620009FEFDF91CF911F910F91FF90EF90089551
:102630000F931F93CF93DF938B01FC01C281D38152
:10264000209771F0E881F9810480F581E02DB801CF
:10265000CE010995009731F40884D985C02DF0CFBB
:1026600080E090E0DF91CF911F910F9108950F933B
:102670001F93CF93DF938B01FC01C281D3812097FD
:1026800071F0E881F9810680F781E02DB801CE0173
:102690000995080F111D0884D985C02DF0CFF801C8
:1026A0001082DF91CF911F910F9108950F931F9387
:1026B000CF93DF938B01FC01C281D381209771F00E
:1026C000E881F9810190F081E02DB801CE010995F2
:1026D000811106C00884D985C02DF0CF80E001C0EB
:1026E00081E0DF91CF911F910F9108958091D305E3
:1026F00081110DC082E08093CF0584E08093D005E6
:102700001092D2051092D10581E08093D3058FEC11
:1027100095E008955058BB27AA270ED0D8C0C9D03D
:1027200030F0CED020F031F49F3F11F41EF4BEC043
:102730000EF4E095E7FBB4C0E92FDAD080F3BA17C6
:10274000620773078407950718F071F49EF5F2C0CD
:102750000EF4E0950B2EBA2FA02D0B01B9019001BC
:102760000C01CA01A0011124FF27591B99F0593F00
:1027700050F4503E68F11A16F040A22F232F342F48
:102780004427585FF3CF469537952795A795F04096
:102790005395C9F77EF41F16BA0B620B730B840BAB
:1027A000BAF09150A1F0FF0FBB1F661F771F881F63
:1027B000C2F70EC0BA0F621F731F841F48F48795BB
:1027C00077956795B795F7959E3F08F0B3CF9395AA
:1027D000880F08F09927EE0F979587950895E8944C
:1027E00009C097FB3EF490958095709561957F4F59
:1027F0008F4F9F4F9923A9F0F92F96E9BB27939507
:10280000F695879577956795B795F111F8CFFAF416
:10281000BB0F11F460FF1BC06F5F7F4F8F4F9F4F47
:1028200016C0882311F096E911C0772321F09EE8A5
:10283000872F762F05C0662371F096E8862F70E00B
:1028400060E02AF09A95660F771F881FDAF7880FE5
:102850009695879597F90895990F0008550FAA0B3B
:10286000E0E8FEEF16161706E807F907C0F01216A3
:102870001306E407F50798F0621B730B840B950BA6
:1028800039F40A2661F0232B242B252B21F40895FB
:102890000A2609F4A140A6958FEF811D811D089598
:1028A00097F99F6780E870E060E008959FEF80EC03
:1028B000089500240A9416161706180609060895A6
:1028C00000240A9412161306140605060895092E0C
:1028D0000394000C11F4882352F0BB0F40F4BF2B7B
:1028E00011F460FF04C06F5F7F4F8F4F9F4F0895BB
:1028F00057FD9058440F551F59F05F3F71F04795B1
:10290000880F97FB991F61F09F3F79F08795089595
:10291000121613061406551FF2CF4695F1DF08C0B4
:10292000161617061806991FF1CF869571056105D1
:1029300008940895E894BB2766277727CB0197F979
:1029400008958ADF08F48FEF08950BD0C0CFB1DF70
:1029500028F0B6DF18F0952309F0A2CFA7CF1124F5
:10296000EACFC6DFA0F3959FD1F3950F50E0551F36
:10297000629FF001729FBB27F00DB11D639FAA27D4
:10298000F00DB11DAA1F649F6627B00DA11D661F23
:10299000829F2227B00DA11D621F739FB00DA11D44
:1029A000621F839FA00D611D221F749F3327A00DFE
:1029B000611D231F849F600D211D822F762F6A2F9A
:1029C00011249F5750408AF0E1F088234AF0EE0F1F
:1029D000FF1FBB1F661F771F881F91505040A9F72C
:1029E0009E3F510570F05CCFA6CF5F3FECF3983E61
:1029F000DCF3869577956795B795F795E7959F5F93
:102A0000C1F7FE2B880F911D9695879597F908952C
:102A100097FB072E16F4009407D077FD09D00E948B
:102A2000661507FC05D03EF4909581959F4F08955B
:102A3000709561957F4F0895A1E21A2EAA1BBB1BCA
:102A4000FD010DC0AA1FBB1FEE1FFF1FA217B3077A
:102A5000E407F50720F0A21BB30BE40BF50B661F90
:102A6000771F881F991F1A9469F760957095809554
:102A700090959B01AC01BD01CF010895EE0FFF1FA2
:102A80000590F491E02D0994A29FB001B39FC0017D
:102A9000A39F700D811D1124911DB29F700D811D8A
:102AA0001124911D08950E944415A59F900DB49F77
:102AB000900DA49F800D911D11240895B7FF0C94D3
:102AC00053150E945315821B930B0895AA1BBB1B21
:102AD00051E107C0AA1FBB1FA617B70710F0A61B1E
:102AE000B70B881F991F5A95A9F780959095BC013F
:082AF000CD010895F894FFCF19
:102AF80001FFFFFFFF00E100000000000000C180AF
:102B08008100000048545532312053656E736F724E
:102B18003A20002054656D70657261747572653A6B
:102B28000043002048756D69646974793A0025008E
:102B3800484948343033302048756D696469747980
:102B48002053656E736F722072656164696E6720C9
:102B580028302D31303234293A004C6967687420A6
:102B680053656E736F722072656164696E672028A1
:102B7800302D31303234293A00302E20556E6971AB
:102B8800756520426F61726420494420232000301B
:102B98000049492E20546865726D6973746F7273A9
:102BA8003A20504153530049492E20546865726DAC
:102BB8006973746F72733A204641494C00546865D2
:102BC800726D6973746F722056616C7565733A0023
:102BD80057652077696C6C20706F776572204F4E4F
:102BE80020616C6C2072656C617973206F6E652052
:102BF8006279206F6E652E20596F752073686F7526
:102C08006C64206865617220352073657065726137
:102C1800746520636C69636B732E00436C69636B26
:102C280020312000436C69636B20322000436C69BB
:102C3800636B20332000436C69636B2034200043AE
:102C48006C69636B203500506F776572696E672019
:102C58006F666620616C6C2072656C6179732E00FA
:102C68002D2D2D2D2D2D5761676D616E20456E76AA
:102C780069726F6E6D656E74616C2053656E736FEB
:102C8800727320546573742D2D2D2D2D2D00492E12
:102C9800205761676D616E205254432054657374E8
:102CA8003A2000506C6561736520706C6163652023
:102CB800796F75722066696E6765727320696E2018
:102CC8007468652074687265652073656E736F72C9
:102CD80073206E6F772E2E2E00436F756E74696E9B
:102CE8006720646F776E2E2E2E004949492E2048A2
:102CF8004948343033303A20504153530049494908
:102D08002E20484948343033303A204641494C0057
:102D180049562E204C494748545F53454E534F520D
:102D28003A20504153530049562E204C49474854A5
:102D38005F53454E534F523A204641494C00562E58
:102D4800204854553231443A205041535300562EAE
:102D5800204854553231443A204641494C00506C81
:102D680065617365207475726E2072696768742076
:102D7800736964652075702C20616E6420776169C1
:102D88007420746F206865617220746865207265AC
:102D98006C61797320636C69636B2E2E2E00564923
:102DA8002E2052656C617920546573743A00564937
:102DB800492E205761676D616E20426F6F742053F2
:102DC800656C6563746F722054657374732E20503C
:102DD8006C65617365207573652061206D756C7411
:102DE800696D6574657220776974682074686520F8
:102DF80062656570657220656E61626C65642066E7
:102E08006F722074686520666F6C6C6F77696E6787
:102E18002074657374732E002D2D2D2D2D2D456E68
:102E280064206F6620626F61726420746573742D0C
:102E38002D2D2D2D2D001F1C1F1E1F1E1F1F1E1F79
:102E48001E1F000000000308D607AB07B307C6071C
:102E5800D50700000000B40CFB0CDE0CEE0CCA0C0D
:102E6800DB0C0D0A006E616E00696E66006F766697
:022E7800000058
:00000001FF
